{
  "contractName": "AGOBTC",
  "abi": [
    {
      "inputs": [
        {
          "internalType": "string",
          "name": "_name",
          "type": "string"
        },
        {
          "internalType": "string",
          "name": "_symbol",
          "type": "string"
        },
        {
          "internalType": "address",
          "name": "_treasury",
          "type": "address"
        }
      ],
      "stateMutability": "nonpayable",
      "type": "constructor"
    },
    {
      "anonymous": false,
      "inputs": [
        {
          "indexed": true,
          "internalType": "address",
          "name": "owner",
          "type": "address"
        },
        {
          "indexed": true,
          "internalType": "address",
          "name": "spender",
          "type": "address"
        },
        {
          "indexed": false,
          "internalType": "uint256",
          "name": "value",
          "type": "uint256"
        }
      ],
      "name": "Approval",
      "type": "event"
    },
    {
      "anonymous": false,
      "inputs": [
        {
          "indexed": true,
          "internalType": "address",
          "name": "from",
          "type": "address"
        },
        {
          "indexed": true,
          "internalType": "address",
          "name": "to",
          "type": "address"
        },
        {
          "indexed": false,
          "internalType": "uint256",
          "name": "amount",
          "type": "uint256"
        }
      ],
      "name": "DollarBurned",
      "type": "event"
    },
    {
      "anonymous": false,
      "inputs": [
        {
          "indexed": true,
          "internalType": "address",
          "name": "from",
          "type": "address"
        },
        {
          "indexed": true,
          "internalType": "address",
          "name": "to",
          "type": "address"
        },
        {
          "indexed": false,
          "internalType": "uint256",
          "name": "amount",
          "type": "uint256"
        }
      ],
      "name": "DollarMinted",
      "type": "event"
    },
    {
      "anonymous": false,
      "inputs": [
        {
          "indexed": true,
          "internalType": "address",
          "name": "previousOperator",
          "type": "address"
        },
        {
          "indexed": true,
          "internalType": "address",
          "name": "newOperator",
          "type": "address"
        }
      ],
      "name": "OperatorTransferred",
      "type": "event"
    },
    {
      "anonymous": false,
      "inputs": [
        {
          "indexed": true,
          "internalType": "address",
          "name": "previousOwner",
          "type": "address"
        },
        {
          "indexed": true,
          "internalType": "address",
          "name": "newOwner",
          "type": "address"
        }
      ],
      "name": "OwnershipTransferred",
      "type": "event"
    },
    {
      "anonymous": false,
      "inputs": [
        {
          "indexed": true,
          "internalType": "address",
          "name": "from",
          "type": "address"
        },
        {
          "indexed": true,
          "internalType": "address",
          "name": "to",
          "type": "address"
        },
        {
          "indexed": false,
          "internalType": "uint256",
          "name": "value",
          "type": "uint256"
        }
      ],
      "name": "Transfer",
      "type": "event"
    },
    {
      "inputs": [
        {
          "internalType": "address",
          "name": "owner",
          "type": "address"
        },
        {
          "internalType": "address",
          "name": "spender",
          "type": "address"
        }
      ],
      "name": "allowance",
      "outputs": [
        {
          "internalType": "uint256",
          "name": "",
          "type": "uint256"
        }
      ],
      "stateMutability": "view",
      "type": "function",
      "constant": true
    },
    {
      "inputs": [
        {
          "internalType": "address",
          "name": "spender",
          "type": "address"
        },
        {
          "internalType": "uint256",
          "name": "amount",
          "type": "uint256"
        }
      ],
      "name": "approve",
      "outputs": [
        {
          "internalType": "bool",
          "name": "",
          "type": "bool"
        }
      ],
      "stateMutability": "nonpayable",
      "type": "function"
    },
    {
      "inputs": [
        {
          "internalType": "address",
          "name": "account",
          "type": "address"
        }
      ],
      "name": "balanceOf",
      "outputs": [
        {
          "internalType": "uint256",
          "name": "",
          "type": "uint256"
        }
      ],
      "stateMutability": "view",
      "type": "function",
      "constant": true
    },
    {
      "inputs": [
        {
          "internalType": "uint256",
          "name": "amount",
          "type": "uint256"
        }
      ],
      "name": "burn",
      "outputs": [],
      "stateMutability": "nonpayable",
      "type": "function"
    },
    {
      "inputs": [
        {
          "internalType": "address",
          "name": "account",
          "type": "address"
        },
        {
          "internalType": "uint256",
          "name": "amount",
          "type": "uint256"
        }
      ],
      "name": "burnFrom",
      "outputs": [],
      "stateMutability": "nonpayable",
      "type": "function"
    },
    {
      "inputs": [],
      "name": "decimals",
      "outputs": [
        {
          "internalType": "uint8",
          "name": "",
          "type": "uint8"
        }
      ],
      "stateMutability": "view",
      "type": "function",
      "constant": true
    },
    {
      "inputs": [
        {
          "internalType": "address",
          "name": "spender",
          "type": "address"
        },
        {
          "internalType": "uint256",
          "name": "subtractedValue",
          "type": "uint256"
        }
      ],
      "name": "decreaseAllowance",
      "outputs": [
        {
          "internalType": "bool",
          "name": "",
          "type": "bool"
        }
      ],
      "stateMutability": "nonpayable",
      "type": "function"
    },
    {
      "inputs": [],
      "name": "genesis_supply",
      "outputs": [
        {
          "internalType": "uint256",
          "name": "",
          "type": "uint256"
        }
      ],
      "stateMutability": "view",
      "type": "function",
      "constant": true
    },
    {
      "inputs": [
        {
          "internalType": "address",
          "name": "spender",
          "type": "address"
        },
        {
          "internalType": "uint256",
          "name": "addedValue",
          "type": "uint256"
        }
      ],
      "name": "increaseAllowance",
      "outputs": [
        {
          "internalType": "bool",
          "name": "",
          "type": "bool"
        }
      ],
      "stateMutability": "nonpayable",
      "type": "function"
    },
    {
      "inputs": [],
      "name": "initialized",
      "outputs": [
        {
          "internalType": "bool",
          "name": "",
          "type": "bool"
        }
      ],
      "stateMutability": "view",
      "type": "function",
      "constant": true
    },
    {
      "inputs": [],
      "name": "isOperator",
      "outputs": [
        {
          "internalType": "bool",
          "name": "",
          "type": "bool"
        }
      ],
      "stateMutability": "view",
      "type": "function",
      "constant": true
    },
    {
      "inputs": [],
      "name": "name",
      "outputs": [
        {
          "internalType": "string",
          "name": "",
          "type": "string"
        }
      ],
      "stateMutability": "view",
      "type": "function",
      "constant": true
    },
    {
      "inputs": [],
      "name": "operator",
      "outputs": [
        {
          "internalType": "address",
          "name": "",
          "type": "address"
        }
      ],
      "stateMutability": "view",
      "type": "function",
      "constant": true
    },
    {
      "inputs": [],
      "name": "owner",
      "outputs": [
        {
          "internalType": "address",
          "name": "",
          "type": "address"
        }
      ],
      "stateMutability": "view",
      "type": "function",
      "constant": true
    },
    {
      "inputs": [],
      "name": "renounceOwnership",
      "outputs": [],
      "stateMutability": "nonpayable",
      "type": "function"
    },
    {
      "inputs": [],
      "name": "symbol",
      "outputs": [
        {
          "internalType": "string",
          "name": "",
          "type": "string"
        }
      ],
      "stateMutability": "view",
      "type": "function",
      "constant": true
    },
    {
      "inputs": [],
      "name": "totalSupply",
      "outputs": [
        {
          "internalType": "uint256",
          "name": "",
          "type": "uint256"
        }
      ],
      "stateMutability": "view",
      "type": "function",
      "constant": true
    },
    {
      "inputs": [
        {
          "internalType": "address",
          "name": "recipient",
          "type": "address"
        },
        {
          "internalType": "uint256",
          "name": "amount",
          "type": "uint256"
        }
      ],
      "name": "transfer",
      "outputs": [
        {
          "internalType": "bool",
          "name": "",
          "type": "bool"
        }
      ],
      "stateMutability": "nonpayable",
      "type": "function"
    },
    {
      "inputs": [
        {
          "internalType": "address",
          "name": "sender",
          "type": "address"
        },
        {
          "internalType": "address",
          "name": "recipient",
          "type": "address"
        },
        {
          "internalType": "uint256",
          "name": "amount",
          "type": "uint256"
        }
      ],
      "name": "transferFrom",
      "outputs": [
        {
          "internalType": "bool",
          "name": "",
          "type": "bool"
        }
      ],
      "stateMutability": "nonpayable",
      "type": "function"
    },
    {
      "inputs": [
        {
          "internalType": "address",
          "name": "newOperator_",
          "type": "address"
        }
      ],
      "name": "transferOperator",
      "outputs": [],
      "stateMutability": "nonpayable",
      "type": "function"
    },
    {
      "inputs": [
        {
          "internalType": "address",
          "name": "newOwner",
          "type": "address"
        }
      ],
      "name": "transferOwnership",
      "outputs": [],
      "stateMutability": "nonpayable",
      "type": "function"
    },
    {
      "inputs": [],
      "name": "treasury",
      "outputs": [
        {
          "internalType": "address",
          "name": "",
          "type": "address"
        }
      ],
      "stateMutability": "view",
      "type": "function",
      "constant": true
    },
    {
      "inputs": [],
      "name": "initialize",
      "outputs": [],
      "stateMutability": "nonpayable",
      "type": "function"
    },
    {
      "inputs": [
        {
          "internalType": "address",
          "name": "_address",
          "type": "address"
        },
        {
          "internalType": "uint256",
          "name": "_amount",
          "type": "uint256"
        }
      ],
      "name": "poolBurnFrom",
      "outputs": [],
      "stateMutability": "nonpayable",
      "type": "function"
    },
    {
      "inputs": [
        {
          "internalType": "address",
          "name": "_address",
          "type": "address"
        },
        {
          "internalType": "uint256",
          "name": "_amount",
          "type": "uint256"
        }
      ],
      "name": "poolMint",
      "outputs": [],
      "stateMutability": "nonpayable",
      "type": "function"
    },
    {
      "inputs": [
        {
          "internalType": "address",
          "name": "_treasury",
          "type": "address"
        }
      ],
      "name": "setTreasuryAddress",
      "outputs": [],
      "stateMutability": "nonpayable",
      "type": "function"
    }
  ],
  "bytecode": "0x60806040523480156200001157600080fd5b506040516200175038038062001750833981016040819052620000349162000265565b600380546001600160a01b0319163390811790915560405181906000907f8be0079c531659141344cd1fd0a4f28419497f9722a3daafe3b4186f6b6457e0908290a350600480546001600160a01b031916339081179091556040516000907f74da04524d50c64947f5dd5381ef1a4dca5cba8ed1d816243f9e48aa0b5617ed908290a38251620000cc9060069060208601906200010c565b508151620000e29060059060208501906200010c565b50600780546001600160a01b0319166001600160a01b039290921691909117905550620003419050565b8280546200011a90620002ee565b90600052602060002090601f0160209004810192826200013e576000855562000189565b82601f106200015957805160ff191683800117855562000189565b8280016001018555821562000189579182015b82811115620001895782518255916020019190600101906200016c565b50620001979291506200019b565b5090565b5b808211156200019757600081556001016200019c565b600082601f830112620001c3578081fd5b81516001600160401b0380821115620001e057620001e06200032b565b604051601f8301601f19908116603f011681019082821181831017156200020b576200020b6200032b565b8160405283815260209250868385880101111562000227578485fd5b8491505b838210156200024a57858201830151818301840152908201906200022b565b838211156200025b57848385830101525b9695505050505050565b6000806000606084860312156200027a578283fd5b83516001600160401b038082111562000291578485fd5b6200029f87838801620001b2565b94506020860151915080821115620002b5578384fd5b50620002c486828701620001b2565b604086015190935090506001600160a01b0381168114620002e3578182fd5b809150509250925092565b600181811c908216806200030357607f821691505b602082108114156200032557634e487b7160e01b600052602260045260246000fd5b50919050565b634e487b7160e01b600052604160045260246000fd5b6113ff80620003516000396000f3fe608060405234801561001057600080fd5b50600436106101ae5760003560e01c8063570ca735116100ee5780638129fc1c11610097578063a457c2d711610071578063a457c2d714610366578063a9059cbb14610379578063dd62ed3e1461038c578063f2fde38b146103c5576101ae565b80638129fc1c146103455780638da5cb5b1461034d57806395d89b411461035e576101ae565b806370a08231116100c857806370a0823114610317578063715018a61461032a57806379cc679014610332576101ae565b8063570ca735146102cc57806361d027b3146102f15780636605bfda14610304576101ae565b806323b872dd1161015b5780633950935111610135578063395093511461028257806342966c68146102955780634456eda2146102a857806351e238e3146102bb576101ae565b806323b872dd1461024257806329605e7714610255578063313ce56714610268576101ae565b80630c407d561161018c5780630c407d5614610209578063158ef93e1461021c57806318160ddd14610230576101ae565b806306fdde03146101b3578063095ea7b3146101d15780630a0c165a146101f4575b600080fd5b6101bb6103d8565b6040516101c891906112f6565b60405180910390f35b6101e46101df366004611295565b610466565b60405190151581526020016101c8565b610207610202366004611295565b61047d565b005b610207610217366004611295565b610581565b6007546101e490600160a01b900460ff1681565b6002545b6040519081526020016101c8565b6101e461025036600461125a565b610678565b61020761026336600461120e565b6106da565b610270601281565b60405160ff90911681526020016101c8565b6101e4610290366004611295565b610740565b6102076102a33660046112de565b610776565b6004546001600160a01b031633146101e4565b61023469010f0cf064dd5920000081565b6004546001600160a01b03165b6040516001600160a01b0390911681526020016101c8565b6007546102d9906001600160a01b031681565b61020761031236600461120e565b610780565b61023461032536600461120e565b610815565b610207610834565b610207610340366004611295565b6108e5565b610207610917565b6003546001600160a01b03166102d9565b6101bb610a21565b6101e4610374366004611295565b610a2e565b6101e4610387366004611295565b610a64565b61023461039a366004611228565b6001600160a01b03918216600090815260016020908152604080832093909416825291909152205490565b6102076103d336600461120e565b610a71565b600680546103e590611378565b80601f016020809104026020016040519081016040528092919081815260200182805461041190611378565b801561045e5780601f106104335761010080835404028352916020019161045e565b820191906000526020600020905b81548152906001019060200180831161044157829003601f168201915b505050505081565b6000610473338484610bb0565b5060015b92915050565b600754604051631246dbf560e01b81523360048201526001600160a01b0390911690631246dbf59060240160206040518083038186803b1580156104c057600080fd5b505afa1580156104d4573d6000803e3d6000fd5b505050506040513d601f19601f820116820180604052508101906104f891906112be565b6105325760405162461bcd60e51b815260206004820152600660248201526521706f6f6c7360d01b60448201526064015b60405180910390fd5b61053c8282610d09565b60405181815233906001600160a01b038416907fb53a8a5aa66e96b4627a60632ff728cd6991e142988ea8f28215fae565fe8ad0906020015b60405180910390a35050565b600754604051631246dbf560e01b81523360048201526001600160a01b0390911690631246dbf59060240160206040518083038186803b1580156105c457600080fd5b505afa1580156105d8573d6000803e3d6000fd5b505050506040513d601f19601f820116820180604052508101906105fc91906112be565b6106315760405162461bcd60e51b815260206004820152600660248201526521706f6f6c7360d01b6044820152606401610529565b61063b8282610d41565b6040518181526001600160a01b0383169033907f0c0f5df55f02a0601bce877b4f87152a1e95aa77aa55a08f16a8852fcf1f2bf990602001610575565b6000610685848484610e18565b6106d084336001600160a01b03871660009081526001602052604081206106cb91879190335b6001600160a01b0316815260208101919091526040016000205490610fb3565b610bb0565b5060019392505050565b6003546001600160a01b031633146107345760405162461bcd60e51b815260206004820181905260248201527f4f776e61626c653a2063616c6c6572206973206e6f7420746865206f776e65726044820152606401610529565b61073d81610fe4565b50565b3360008181526001602090815260408083206001600160a01b038716845290915281205490916104739185906106cb90866110c5565b61073d33826110f1565b6004546001600160a01b031633146107e65760405162461bcd60e51b8152602060048201526024808201527f6f70657261746f723a2063616c6c6572206973206e6f7420746865206f70657260448201526330ba37b960e11b6064820152608401610529565b6007805473ffffffffffffffffffffffffffffffffffffffff19166001600160a01b0392909216919091179055565b6001600160a01b0381166000908152602081905260409020545b919050565b6003546001600160a01b0316331461088e5760405162461bcd60e51b815260206004820181905260248201527f4f776e61626c653a2063616c6c6572206973206e6f7420746865206f776e65726044820152606401610529565b6003546040516000916001600160a01b0316907f8be0079c531659141344cd1fd0a4f28419497f9722a3daafe3b4186f6b6457e0908390a36003805473ffffffffffffffffffffffffffffffffffffffff19169055565b60006108fb826108f5853361039a565b90610fb3565b9050610908833383610bb0565b61091283836110f1565b505050565b6004546001600160a01b0316331461097d5760405162461bcd60e51b8152602060048201526024808201527f6f70657261746f723a2063616c6c6572206973206e6f7420746865206f70657260448201526330ba37b960e11b6064820152608401610529565b600754600160a01b900460ff16156109d75760405162461bcd60e51b815260206004820152601260248201527f616c7265616479496e697469616c697a656400000000000000000000000000006044820152606401610529565b600780547fffffffffffffffffffffff00ffffffffffffffffffffffffffffffffffffffff16600160a01b179055610a1f610a0f3390565b69010f0cf064dd59200000610d41565b565b600580546103e590611378565b3360008181526001602090815260408083206001600160a01b038716845290915281205490916104739185906106cb9086610fb3565b6000610473338484610e18565b6003546001600160a01b03163314610acb5760405162461bcd60e51b815260206004820181905260248201527f4f776e61626c653a2063616c6c6572206973206e6f7420746865206f776e65726044820152606401610529565b6001600160a01b038116610b475760405162461bcd60e51b815260206004820152602660248201527f4f776e61626c653a206e6577206f776e657220697320746865207a65726f206160448201527f64647265737300000000000000000000000000000000000000000000000000006064820152608401610529565b6003546040516001600160a01b038084169216907f8be0079c531659141344cd1fd0a4f28419497f9722a3daafe3b4186f6b6457e090600090a36003805473ffffffffffffffffffffffffffffffffffffffff19166001600160a01b0392909216919091179055565b6001600160a01b038316610c2b5760405162461bcd60e51b8152602060048201526024808201527f45524332303a20617070726f76652066726f6d20746865207a65726f2061646460448201527f72657373000000000000000000000000000000000000000000000000000000006064820152608401610529565b6001600160a01b038216610ca75760405162461bcd60e51b815260206004820152602260248201527f45524332303a20617070726f766520746f20746865207a65726f20616464726560448201527f73730000000000000000000000000000000000000000000000000000000000006064820152608401610529565b6001600160a01b0383811660008181526001602090815260408083209487168084529482529182902085905590518481527f8c5be1e5ebec7d5bd14f71427d1e84f3dd0314c0f7b2291e5b200ac8c7c3b92591015b60405180910390a3505050565b610d1382826110f1565b610d3d82336001600160a01b03851660009081526001602052604081206106cb91869190336106ab565b5050565b6001600160a01b038216610d975760405162461bcd60e51b815260206004820152601f60248201527f45524332303a206d696e7420746f20746865207a65726f2061646472657373006044820152606401610529565b600254610da490826110c5565b6002556001600160a01b038216600090815260208190526040902054610dca90826110c5565b6001600160a01b038316600081815260208181526040808320949094559251848152919290917fddf252ad1be2c89b69c2b068fc378daa952ba7f163c4a11628f55a4df523b3ef9101610575565b6001600160a01b038316610e945760405162461bcd60e51b815260206004820152602560248201527f45524332303a207472616e736665722066726f6d20746865207a65726f20616460448201527f64726573730000000000000000000000000000000000000000000000000000006064820152608401610529565b6001600160a01b038216610f105760405162461bcd60e51b815260206004820152602360248201527f45524332303a207472616e7366657220746f20746865207a65726f206164647260448201527f65737300000000000000000000000000000000000000000000000000000000006064820152608401610529565b6001600160a01b038316600090815260208190526040902054610f339082610fb3565b6001600160a01b038085166000908152602081905260408082209390935590841681522054610f6290826110c5565b6001600160a01b038381166000818152602081815260409182902094909455518481529092918616917fddf252ad1be2c89b69c2b068fc378daa952ba7f163c4a11628f55a4df523b3ef9101610cfc565b600082821115610fd357634e487b7160e01b600052600160045260246000fd5b610fdd8284611361565b9392505050565b6001600160a01b0381166110605760405162461bcd60e51b815260206004820152602d60248201527f6f70657261746f723a207a65726f206164647265737320676976656e20666f7260448201527f206e6577206f70657261746f72000000000000000000000000000000000000006064820152608401610529565b6040516001600160a01b038216906000907f74da04524d50c64947f5dd5381ef1a4dca5cba8ed1d816243f9e48aa0b5617ed908290a36004805473ffffffffffffffffffffffffffffffffffffffff19166001600160a01b0392909216919091179055565b60006110d18284611349565b90508281101561047757634e487b7160e01b600052600160045260246000fd5b6001600160a01b03821661116d5760405162461bcd60e51b815260206004820152602160248201527f45524332303a206275726e2066726f6d20746865207a65726f2061646472657360448201527f73000000000000000000000000000000000000000000000000000000000000006064820152608401610529565b6001600160a01b0382166000908152602081905260409020546111909082610fb3565b6001600160a01b0383166000908152602081905260409020556002546111b69082610fb3565b6002556040518181526000906001600160a01b038416907fddf252ad1be2c89b69c2b068fc378daa952ba7f163c4a11628f55a4df523b3ef90602001610575565b80356001600160a01b038116811461082f57600080fd5b60006020828403121561121f578081fd5b610fdd826111f7565b6000806040838503121561123a578081fd5b611243836111f7565b9150611251602084016111f7565b90509250929050565b60008060006060848603121561126e578081fd5b611277846111f7565b9250611285602085016111f7565b9150604084013590509250925092565b600080604083850312156112a7578182fd5b6112b0836111f7565b946020939093013593505050565b6000602082840312156112cf578081fd5b81518015158114610fdd578182fd5b6000602082840312156112ef578081fd5b5035919050565b6000602080835283518082850152825b8181101561132257858101830151858201604001528201611306565b818111156113335783604083870101525b50601f01601f1916929092016040019392505050565b6000821982111561135c5761135c6113b3565b500190565b600082821015611373576113736113b3565b500390565b600181811c9082168061138c57607f821691505b602082108114156113ad57634e487b7160e01b600052602260045260246000fd5b50919050565b634e487b7160e01b600052601160045260246000fdfea2646970667358221220f5e480995282428baa960208d56c7996a961bdf1840439404610069d165bfb5d64736f6c63430008030033",
  "immutableReferences": {},
  "source": "// SPDX-License-Identifier: MIT\r\n\r\npragma solidity ^0.8.0;\r\npragma experimental ABIEncoderV2;\r\n\r\n// import \"./openZeppelin/SafeMath.sol\";\r\n// import \"./openZeppelin/Context.sol\";\r\n\r\nimport \"./ERC20Custom.sol\";\r\nimport \"./Operator.sol\";\r\nimport \"./CNUSD.sol\";\r\nimport \"./interfaces/ITreasury.sol\";\r\nimport \"./interfaces/IDollar.sol\";\r\n\r\ncontract AGOBTC is ERC20Custom, IDollar, Operator {\r\n    using SafeMath for uint256;\r\n\r\n    // ERC20\r\n    string public override symbol;\r\n    string public override name;\r\n    uint8 public constant override decimals = 18;\r\n    uint256 public constant genesis_supply = 5000 ether; // 5000 will be mited at genesis for liq pool seeding\r\n\r\n    // CONTRACTS\r\n    address public treasury;\r\n\r\n    // FLAGS\r\n    bool public initialized;\r\n\r\n    /* ========== MODIFIERS ========== */\r\n\r\n    modifier onlyPools() {\r\n        require(ITreasury(treasury).hasPool(msg.sender), \"!pools\");\r\n        _;\r\n    }\r\n\r\n    /* ========== CONSTRUCTOR ========== */\r\n\r\n    constructor(string memory _name,  string memory _symbol, address _treasury){\r\n        name = _name;\r\n        symbol = _symbol;\r\n        treasury = _treasury;\r\n    }\r\n\r\n    function initialize() external onlyOperator {\r\n        require(!initialized, \"alreadyInitialized\");\r\n        initialized = true;\r\n        _mint(_msgSender(), genesis_supply);\r\n    }\r\n\r\n    /* ========== RESTRICTED FUNCTIONS ========== */\r\n\r\n    // Burn DOLLAR. Can be used by Pool only\r\n    function poolBurnFrom(address _address, uint256 _amount) external override onlyPools {\r\n        super._burnFrom(_address, _amount);\r\n        emit DollarBurned(_address, msg.sender, _amount);\r\n    }\r\n\r\n    // Mint DOLLAR. Can be used by Pool only\r\n    function poolMint(address _address, uint256 _amount) external override onlyPools {\r\n        super._mint(_address, _amount);\r\n        emit DollarMinted(msg.sender, _address, _amount);\r\n    }\r\n\r\n    function setTreasuryAddress(address _treasury) public onlyOperator {\r\n        treasury = _treasury;\r\n    }\r\n\r\n    /* ========== EVENTS ========== */\r\n    event DollarBurned(address indexed from, address indexed to, uint256 amount);// Track DOLLAR burned\r\n    event DollarMinted(address indexed from, address indexed to, uint256 amount);// Track DOLLAR minted\r\n}\r\n",
  "sourcePath": "C:/Users/PaulMuller/Documents/projects/project_AGO/contracts/AGOBTC.sol",
  "compiler": {
    "name": "solc",
    "version": "0.8.3+commit.8d00100c.Emscripten.clang"
  },
  "schemaVersion": "3.3.4",
  "updatedAt": "2021-04-22T01:53:14.305Z",
  "networkType": "ethereum",
  "devdoc": {
    "kind": "dev",
    "methods": {},
    "version": 1
  },
  "userdoc": {
    "kind": "user",
    "methods": {},
    "version": 1
  }
}