{
  "contractName": "AGOUSD",
  "abi": [
    {
      "inputs": [
        {
          "internalType": "string",
          "name": "_name",
          "type": "string"
        },
        {
          "internalType": "string",
          "name": "_symbol",
          "type": "string"
        },
        {
          "internalType": "address",
          "name": "_treasury",
          "type": "address"
        }
      ],
      "stateMutability": "nonpayable",
      "type": "constructor"
    },
    {
      "anonymous": false,
      "inputs": [
        {
          "indexed": true,
          "internalType": "address",
          "name": "owner",
          "type": "address"
        },
        {
          "indexed": true,
          "internalType": "address",
          "name": "spender",
          "type": "address"
        },
        {
          "indexed": false,
          "internalType": "uint256",
          "name": "value",
          "type": "uint256"
        }
      ],
      "name": "Approval",
      "type": "event"
    },
    {
      "anonymous": false,
      "inputs": [
        {
          "indexed": true,
          "internalType": "address",
          "name": "from",
          "type": "address"
        },
        {
          "indexed": true,
          "internalType": "address",
          "name": "to",
          "type": "address"
        },
        {
          "indexed": false,
          "internalType": "uint256",
          "name": "amount",
          "type": "uint256"
        }
      ],
      "name": "DollarBurned",
      "type": "event"
    },
    {
      "anonymous": false,
      "inputs": [
        {
          "indexed": true,
          "internalType": "address",
          "name": "from",
          "type": "address"
        },
        {
          "indexed": true,
          "internalType": "address",
          "name": "to",
          "type": "address"
        },
        {
          "indexed": false,
          "internalType": "uint256",
          "name": "amount",
          "type": "uint256"
        }
      ],
      "name": "DollarMinted",
      "type": "event"
    },
    {
      "anonymous": false,
      "inputs": [
        {
          "indexed": true,
          "internalType": "address",
          "name": "previousOperator",
          "type": "address"
        },
        {
          "indexed": true,
          "internalType": "address",
          "name": "newOperator",
          "type": "address"
        }
      ],
      "name": "OperatorTransferred",
      "type": "event"
    },
    {
      "anonymous": false,
      "inputs": [
        {
          "indexed": true,
          "internalType": "address",
          "name": "previousOwner",
          "type": "address"
        },
        {
          "indexed": true,
          "internalType": "address",
          "name": "newOwner",
          "type": "address"
        }
      ],
      "name": "OwnershipTransferred",
      "type": "event"
    },
    {
      "anonymous": false,
      "inputs": [
        {
          "indexed": true,
          "internalType": "address",
          "name": "from",
          "type": "address"
        },
        {
          "indexed": true,
          "internalType": "address",
          "name": "to",
          "type": "address"
        },
        {
          "indexed": false,
          "internalType": "uint256",
          "name": "value",
          "type": "uint256"
        }
      ],
      "name": "Transfer",
      "type": "event"
    },
    {
      "inputs": [
        {
          "internalType": "address",
          "name": "owner",
          "type": "address"
        },
        {
          "internalType": "address",
          "name": "spender",
          "type": "address"
        }
      ],
      "name": "allowance",
      "outputs": [
        {
          "internalType": "uint256",
          "name": "",
          "type": "uint256"
        }
      ],
      "stateMutability": "view",
      "type": "function",
      "constant": true
    },
    {
      "inputs": [
        {
          "internalType": "address",
          "name": "spender",
          "type": "address"
        },
        {
          "internalType": "uint256",
          "name": "amount",
          "type": "uint256"
        }
      ],
      "name": "approve",
      "outputs": [
        {
          "internalType": "bool",
          "name": "",
          "type": "bool"
        }
      ],
      "stateMutability": "nonpayable",
      "type": "function"
    },
    {
      "inputs": [
        {
          "internalType": "address",
          "name": "account",
          "type": "address"
        }
      ],
      "name": "balanceOf",
      "outputs": [
        {
          "internalType": "uint256",
          "name": "",
          "type": "uint256"
        }
      ],
      "stateMutability": "view",
      "type": "function",
      "constant": true
    },
    {
      "inputs": [
        {
          "internalType": "uint256",
          "name": "amount",
          "type": "uint256"
        }
      ],
      "name": "burn",
      "outputs": [],
      "stateMutability": "nonpayable",
      "type": "function"
    },
    {
      "inputs": [
        {
          "internalType": "address",
          "name": "account",
          "type": "address"
        },
        {
          "internalType": "uint256",
          "name": "amount",
          "type": "uint256"
        }
      ],
      "name": "burnFrom",
      "outputs": [],
      "stateMutability": "nonpayable",
      "type": "function"
    },
    {
      "inputs": [],
      "name": "decimals",
      "outputs": [
        {
          "internalType": "uint8",
          "name": "",
          "type": "uint8"
        }
      ],
      "stateMutability": "view",
      "type": "function",
      "constant": true
    },
    {
      "inputs": [
        {
          "internalType": "address",
          "name": "spender",
          "type": "address"
        },
        {
          "internalType": "uint256",
          "name": "subtractedValue",
          "type": "uint256"
        }
      ],
      "name": "decreaseAllowance",
      "outputs": [
        {
          "internalType": "bool",
          "name": "",
          "type": "bool"
        }
      ],
      "stateMutability": "nonpayable",
      "type": "function"
    },
    {
      "inputs": [],
      "name": "genesis_supply",
      "outputs": [
        {
          "internalType": "uint256",
          "name": "",
          "type": "uint256"
        }
      ],
      "stateMutability": "view",
      "type": "function",
      "constant": true
    },
    {
      "inputs": [
        {
          "internalType": "address",
          "name": "spender",
          "type": "address"
        },
        {
          "internalType": "uint256",
          "name": "addedValue",
          "type": "uint256"
        }
      ],
      "name": "increaseAllowance",
      "outputs": [
        {
          "internalType": "bool",
          "name": "",
          "type": "bool"
        }
      ],
      "stateMutability": "nonpayable",
      "type": "function"
    },
    {
      "inputs": [],
      "name": "initialized",
      "outputs": [
        {
          "internalType": "bool",
          "name": "",
          "type": "bool"
        }
      ],
      "stateMutability": "view",
      "type": "function",
      "constant": true
    },
    {
      "inputs": [],
      "name": "isOperator",
      "outputs": [
        {
          "internalType": "bool",
          "name": "",
          "type": "bool"
        }
      ],
      "stateMutability": "view",
      "type": "function",
      "constant": true
    },
    {
      "inputs": [],
      "name": "name",
      "outputs": [
        {
          "internalType": "string",
          "name": "",
          "type": "string"
        }
      ],
      "stateMutability": "view",
      "type": "function",
      "constant": true
    },
    {
      "inputs": [],
      "name": "operator",
      "outputs": [
        {
          "internalType": "address",
          "name": "",
          "type": "address"
        }
      ],
      "stateMutability": "view",
      "type": "function",
      "constant": true
    },
    {
      "inputs": [],
      "name": "owner",
      "outputs": [
        {
          "internalType": "address",
          "name": "",
          "type": "address"
        }
      ],
      "stateMutability": "view",
      "type": "function",
      "constant": true
    },
    {
      "inputs": [],
      "name": "renounceOwnership",
      "outputs": [],
      "stateMutability": "nonpayable",
      "type": "function"
    },
    {
      "inputs": [],
      "name": "symbol",
      "outputs": [
        {
          "internalType": "string",
          "name": "",
          "type": "string"
        }
      ],
      "stateMutability": "view",
      "type": "function",
      "constant": true
    },
    {
      "inputs": [],
      "name": "totalSupply",
      "outputs": [
        {
          "internalType": "uint256",
          "name": "",
          "type": "uint256"
        }
      ],
      "stateMutability": "view",
      "type": "function",
      "constant": true
    },
    {
      "inputs": [
        {
          "internalType": "address",
          "name": "recipient",
          "type": "address"
        },
        {
          "internalType": "uint256",
          "name": "amount",
          "type": "uint256"
        }
      ],
      "name": "transfer",
      "outputs": [
        {
          "internalType": "bool",
          "name": "",
          "type": "bool"
        }
      ],
      "stateMutability": "nonpayable",
      "type": "function"
    },
    {
      "inputs": [
        {
          "internalType": "address",
          "name": "sender",
          "type": "address"
        },
        {
          "internalType": "address",
          "name": "recipient",
          "type": "address"
        },
        {
          "internalType": "uint256",
          "name": "amount",
          "type": "uint256"
        }
      ],
      "name": "transferFrom",
      "outputs": [
        {
          "internalType": "bool",
          "name": "",
          "type": "bool"
        }
      ],
      "stateMutability": "nonpayable",
      "type": "function"
    },
    {
      "inputs": [
        {
          "internalType": "address",
          "name": "newOperator_",
          "type": "address"
        }
      ],
      "name": "transferOperator",
      "outputs": [],
      "stateMutability": "nonpayable",
      "type": "function"
    },
    {
      "inputs": [
        {
          "internalType": "address",
          "name": "newOwner",
          "type": "address"
        }
      ],
      "name": "transferOwnership",
      "outputs": [],
      "stateMutability": "nonpayable",
      "type": "function"
    },
    {
      "inputs": [],
      "name": "treasury",
      "outputs": [
        {
          "internalType": "address",
          "name": "",
          "type": "address"
        }
      ],
      "stateMutability": "view",
      "type": "function",
      "constant": true
    },
    {
      "inputs": [],
      "name": "initialize",
      "outputs": [],
      "stateMutability": "nonpayable",
      "type": "function"
    },
    {
      "inputs": [
        {
          "internalType": "address",
          "name": "_address",
          "type": "address"
        },
        {
          "internalType": "uint256",
          "name": "_amount",
          "type": "uint256"
        }
      ],
      "name": "poolBurnFrom",
      "outputs": [],
      "stateMutability": "nonpayable",
      "type": "function"
    },
    {
      "inputs": [
        {
          "internalType": "address",
          "name": "_address",
          "type": "address"
        },
        {
          "internalType": "uint256",
          "name": "_amount",
          "type": "uint256"
        }
      ],
      "name": "poolMint",
      "outputs": [],
      "stateMutability": "nonpayable",
      "type": "function"
    },
    {
      "inputs": [
        {
          "internalType": "address",
          "name": "_treasury",
          "type": "address"
        }
      ],
      "name": "setTreasuryAddress",
      "outputs": [],
      "stateMutability": "nonpayable",
      "type": "function"
    }
  ],
  "bytecode": "0x60806040523480156200001157600080fd5b506040516200159a3803806200159a833981016040819052620000349162000265565b600380546001600160a01b0319163390811790915560405181906000907f8be0079c531659141344cd1fd0a4f28419497f9722a3daafe3b4186f6b6457e0908290a350600480546001600160a01b031916339081179091556040516000907f74da04524d50c64947f5dd5381ef1a4dca5cba8ed1d816243f9e48aa0b5617ed908290a38251620000cc9060069060208601906200010c565b508151620000e29060059060208501906200010c565b50600780546001600160a01b0319166001600160a01b039290921691909117905550620003419050565b8280546200011a90620002ee565b90600052602060002090601f0160209004810192826200013e576000855562000189565b82601f106200015957805160ff191683800117855562000189565b8280016001018555821562000189579182015b82811115620001895782518255916020019190600101906200016c565b50620001979291506200019b565b5090565b5b808211156200019757600081556001016200019c565b600082601f830112620001c3578081fd5b81516001600160401b0380821115620001e057620001e06200032b565b604051601f8301601f19908116603f011681019082821181831017156200020b576200020b6200032b565b8160405283815260209250868385880101111562000227578485fd5b8491505b838210156200024a57858201830151818301840152908201906200022b565b838211156200025b57848385830101525b9695505050505050565b6000806000606084860312156200027a578283fd5b83516001600160401b038082111562000291578485fd5b6200029f87838801620001b2565b94506020860151915080821115620002b5578384fd5b50620002c486828701620001b2565b604086015190935090506001600160a01b0381168114620002e3578182fd5b809150509250925092565b600181811c908216806200030357607f821691505b602082108114156200032557634e487b7160e01b600052602260045260246000fd5b50919050565b634e487b7160e01b600052604160045260246000fd5b61124980620003516000396000f3fe608060405234801561001057600080fd5b506004361061018e5760003560e01c8063570ca735116100de5780638129fc1c11610097578063a457c2d711610071578063a457c2d71461035c578063a9059cbb1461036f578063dd62ed3e14610382578063f2fde38b146103bb57600080fd5b80638129fc1c1461033b5780638da5cb5b1461034357806395d89b411461035457600080fd5b8063570ca735146102ac57806361d027b3146102d15780636605bfda146102e457806370a08231146102f7578063715018a61461032057806379cc67901461032857600080fd5b806323b872dd1161014b5780633950935111610125578063395093511461026257806342966c68146102755780634456eda21461028857806351e238e31461029b57600080fd5b806323b872dd1461022257806329605e7714610235578063313ce5671461024857600080fd5b806306fdde0314610193578063095ea7b3146101b15780630a0c165a146101d45780630c407d56146101e9578063158ef93e146101fc57806318160ddd14610210575b600080fd5b61019b6103ce565b6040516101a891906110c7565b60405180910390f35b6101c46101bf366004611066565b61045c565b60405190151581526020016101a8565b6101e76101e2366004611066565b610473565b005b6101e76101f7366004611066565b610577565b6007546101c490600160a01b900460ff1681565b6002545b6040519081526020016101a8565b6101c461023036600461102b565b61066e565b6101e7610243366004610fdf565b6106d0565b610250601281565b60405160ff90911681526020016101a8565b6101c4610270366004611066565b610706565b6101e76102833660046110af565b61073c565b6004546001600160a01b031633146101c4565b61021469010f0cf064dd5920000081565b6004546001600160a01b03165b6040516001600160a01b0390911681526020016101a8565b6007546102b9906001600160a01b031681565b6101e76102f2366004610fdf565b610746565b610214610305366004610fdf565b6001600160a01b031660009081526020819052604090205490565b6101e7610792565b6101e7610336366004611066565b610806565b6101e7610838565b6003546001600160a01b03166102b9565b61019b6108e0565b6101c461036a366004611066565b6108ed565b6101c461037d366004611066565b610923565b610214610390366004610ff9565b6001600160a01b03918216600090815260016020908152604080832093909416825291909152205490565b6101e76103c9366004610fdf565b610930565b600680546103db906111c2565b80601f0160208091040260200160405190810160405280929190818152602001828054610407906111c2565b80156104545780601f1061042957610100808354040283529160200191610454565b820191906000526020600020905b81548152906001019060200180831161043757829003601f168201915b505050505081565b6000610469338484610a1b565b5060015b92915050565b600754604051631246dbf560e01b81523360048201526001600160a01b0390911690631246dbf59060240160206040518083038186803b1580156104b657600080fd5b505afa1580156104ca573d6000803e3d6000fd5b505050506040513d601f19601f820116820180604052508101906104ee919061108f565b6105285760405162461bcd60e51b815260206004820152600660248201526521706f6f6c7360d01b60448201526064015b60405180910390fd5b6105328282610b40565b60405181815233906001600160a01b038416907fb53a8a5aa66e96b4627a60632ff728cd6991e142988ea8f28215fae565fe8ad0906020015b60405180910390a35050565b600754604051631246dbf560e01b81523360048201526001600160a01b0390911690631246dbf59060240160206040518083038186803b1580156105ba57600080fd5b505afa1580156105ce573d6000803e3d6000fd5b505050506040513d601f19601f820116820180604052508101906105f2919061108f565b6106275760405162461bcd60e51b815260206004820152600660248201526521706f6f6c7360d01b604482015260640161051f565b6106318282610b78565b6040518181526001600160a01b0383169033907f0c0f5df55f02a0601bce877b4f87152a1e95aa77aa55a08f16a8852fcf1f2bf99060200161056b565b600061067b848484610c4f565b6106c684336001600160a01b03871660009081526001602052604081206106c191879190335b6001600160a01b0316815260208101919091526040016000205490610db8565b610a1b565b5060019392505050565b6003546001600160a01b031633146106fa5760405162461bcd60e51b815260040161051f9061111a565b61070381610de9565b50565b3360008181526001602090815260408083206001600160a01b038716845290915281205490916104699185906106c19086610ead565b6107033382610ed9565b6004546001600160a01b031633146107705760405162461bcd60e51b815260040161051f9061114f565b600780546001600160a01b0319166001600160a01b0392909216919091179055565b6003546001600160a01b031633146107bc5760405162461bcd60e51b815260040161051f9061111a565b6003546040516000916001600160a01b0316907f8be0079c531659141344cd1fd0a4f28419497f9722a3daafe3b4186f6b6457e0908390a3600380546001600160a01b0319169055565b600061081c826108168533610390565b90610db8565b9050610829833383610a1b565b6108338383610ed9565b505050565b6004546001600160a01b031633146108625760405162461bcd60e51b815260040161051f9061114f565b600754600160a01b900460ff16156108b15760405162461bcd60e51b8152602060048201526012602482015271185b1c9958591e525b9a5d1a585b1a5e995960721b604482015260640161051f565b6007805460ff60a01b1916600160a01b1790556108de6108ce3390565b69010f0cf064dd59200000610b78565b565b600580546103db906111c2565b3360008181526001602090815260408083206001600160a01b038716845290915281205490916104699185906106c19086610db8565b6000610469338484610c4f565b6003546001600160a01b0316331461095a5760405162461bcd60e51b815260040161051f9061111a565b6001600160a01b0381166109bf5760405162461bcd60e51b815260206004820152602660248201527f4f776e61626c653a206e6577206f776e657220697320746865207a65726f206160448201526564647265737360d01b606482015260840161051f565b6003546040516001600160a01b038084169216907f8be0079c531659141344cd1fd0a4f28419497f9722a3daafe3b4186f6b6457e090600090a3600380546001600160a01b0319166001600160a01b0392909216919091179055565b6001600160a01b038316610a7d5760405162461bcd60e51b8152602060048201526024808201527f45524332303a20617070726f76652066726f6d20746865207a65726f206164646044820152637265737360e01b606482015260840161051f565b6001600160a01b038216610ade5760405162461bcd60e51b815260206004820152602260248201527f45524332303a20617070726f766520746f20746865207a65726f206164647265604482015261737360f01b606482015260840161051f565b6001600160a01b0383811660008181526001602090815260408083209487168084529482529182902085905590518481527f8c5be1e5ebec7d5bd14f71427d1e84f3dd0314c0f7b2291e5b200ac8c7c3b92591015b60405180910390a3505050565b610b4a8282610ed9565b610b7482336001600160a01b03851660009081526001602052604081206106c191869190336106a1565b5050565b6001600160a01b038216610bce5760405162461bcd60e51b815260206004820152601f60248201527f45524332303a206d696e7420746f20746865207a65726f206164647265737300604482015260640161051f565b600254610bdb9082610ead565b6002556001600160a01b038216600090815260208190526040902054610c019082610ead565b6001600160a01b038316600081815260208181526040808320949094559251848152919290917fddf252ad1be2c89b69c2b068fc378daa952ba7f163c4a11628f55a4df523b3ef910161056b565b6001600160a01b038316610cb35760405162461bcd60e51b815260206004820152602560248201527f45524332303a207472616e736665722066726f6d20746865207a65726f206164604482015264647265737360d81b606482015260840161051f565b6001600160a01b038216610d155760405162461bcd60e51b815260206004820152602360248201527f45524332303a207472616e7366657220746f20746865207a65726f206164647260448201526265737360e81b606482015260840161051f565b6001600160a01b038316600090815260208190526040902054610d389082610db8565b6001600160a01b038085166000908152602081905260408082209390935590841681522054610d679082610ead565b6001600160a01b038381166000818152602081815260409182902094909455518481529092918616917fddf252ad1be2c89b69c2b068fc378daa952ba7f163c4a11628f55a4df523b3ef9101610b33565b600082821115610dd857634e487b7160e01b600052600160045260246000fd5b610de282846111ab565b9392505050565b6001600160a01b038116610e555760405162461bcd60e51b815260206004820152602d60248201527f6f70657261746f723a207a65726f206164647265737320676976656e20666f7260448201526c103732bb9037b832b930ba37b960991b606482015260840161051f565b6040516001600160a01b038216906000907f74da04524d50c64947f5dd5381ef1a4dca5cba8ed1d816243f9e48aa0b5617ed908290a3600480546001600160a01b0319166001600160a01b0392909216919091179055565b6000610eb98284611193565b90508281101561046d57634e487b7160e01b600052600160045260246000fd5b6001600160a01b038216610f395760405162461bcd60e51b815260206004820152602160248201527f45524332303a206275726e2066726f6d20746865207a65726f206164647265736044820152607360f81b606482015260840161051f565b6001600160a01b038216600090815260208190526040902054610f5c9082610db8565b6001600160a01b038316600090815260208190526040902055600254610f829082610db8565b6002556040518181526000906001600160a01b038416907fddf252ad1be2c89b69c2b068fc378daa952ba7f163c4a11628f55a4df523b3ef9060200161056b565b80356001600160a01b0381168114610fda57600080fd5b919050565b600060208284031215610ff0578081fd5b610de282610fc3565b6000806040838503121561100b578081fd5b61101483610fc3565b915061102260208401610fc3565b90509250929050565b60008060006060848603121561103f578081fd5b61104884610fc3565b925061105660208501610fc3565b9150604084013590509250925092565b60008060408385031215611078578182fd5b61108183610fc3565b946020939093013593505050565b6000602082840312156110a0578081fd5b81518015158114610de2578182fd5b6000602082840312156110c0578081fd5b5035919050565b6000602080835283518082850152825b818110156110f3578581018301518582016040015282016110d7565b818111156111045783604083870101525b50601f01601f1916929092016040019392505050565b6020808252818101527f4f776e61626c653a2063616c6c6572206973206e6f7420746865206f776e6572604082015260600190565b60208082526024908201527f6f70657261746f723a2063616c6c6572206973206e6f7420746865206f70657260408201526330ba37b960e11b606082015260800190565b600082198211156111a6576111a66111fd565b500190565b6000828210156111bd576111bd6111fd565b500390565b600181811c908216806111d657607f821691505b602082108114156111f757634e487b7160e01b600052602260045260246000fd5b50919050565b634e487b7160e01b600052601160045260246000fdfea26469706673582212201b212c78141bf60b70e888506e6ffd4c7a32e13283d786813065697a0d9ab9b664736f6c63430008040033",
  "immutableReferences": {},
  "source": "// SPDX-License-Identifier: MIT\r\npragma solidity 0.8.4;\r\npragma experimental ABIEncoderV2;\r\n\r\nlibrary SafeMath {\r\n  function mul(uint256 a, uint256 b) internal pure returns (uint256 c) {\r\n    if (a == 0) {return 0;}\r\n    c = a * b;\r\n    assert(c / a == b);\r\n    return c;\r\n  }\r\n\r\n  function div(uint256 a, uint256 b) internal pure returns (uint256) {\r\n    return a / b;\r\n  }\r\n\r\n  function sub(uint256 a, uint256 b) internal pure returns (uint256) {\r\n    assert(b <= a);\r\n    return a - b;\r\n  }\r\n\r\n  function add(uint256 a, uint256 b) internal pure returns (uint256 c) {\r\n    c = a + b;\r\n    assert(c >= a);\r\n    return c;\r\n  }\r\n}\r\n\r\ninterface IDollar {\r\n    function poolBurnFrom(address _address, uint256 _amount) external;\r\n\r\n    function poolMint(address _address, uint256 m_amount) external;\r\n}\r\n\r\ninterface IEpoch {\r\n    function epoch() external view returns (uint256);\r\n\r\n    function nextEpochPoint() external view returns (uint256);\r\n}\r\n\r\ninterface ITreasury is IEpoch {\r\n    function hasPool(address _address) external view returns (bool);\r\n\r\n    function info()\r\n        external\r\n        view\r\n        returns (\r\n            uint256,\r\n            uint256,\r\n            uint256,\r\n            uint256,\r\n            uint256,\r\n            uint256,\r\n            uint256,\r\n            uint256\r\n        );\r\n\r\n    function epochInfo()\r\n        external\r\n        view\r\n        returns (\r\n            uint256,\r\n            uint256,\r\n            uint256,\r\n            uint256\r\n        );\r\n}\r\n\r\ninterface IERC20 {\r\n    function totalSupply() external view returns (uint256);\r\n    function balanceOf(address account) external view returns (uint256);\r\n    function transfer(address recipient, uint256 amount) external returns (bool);\r\n    function allowance(address owner, address spender) external view returns (uint256);\r\n    function approve(address spender, uint256 amount) external returns (bool);\r\n    function transferFrom(address sender, address recipient, uint256 amount) external returns (bool);\r\n    event Transfer(address indexed from, address indexed to, uint256 value);\r\n    event Approval(address indexed owner, address indexed spender, uint256 value);\r\n    \r\n    function name() external view returns (string memory);\r\n    function symbol() external view returns (string memory);\r\n    function decimals() external view returns (uint8);\r\n}\r\n\r\nabstract contract Context {\r\n    function _msgSender() internal view virtual returns (address) {\r\n        return msg.sender;\r\n    }\r\n\r\n    function _msgData() internal view virtual returns (bytes calldata) {\r\n        this;\r\n        return msg.data;\r\n    }\r\n}\r\n\r\nabstract contract ERC20Custom is Context, IERC20 {\r\n\tusing SafeMath for uint256;\r\n\r\n\tmapping (address => uint256) internal _balances;\r\n\tmapping (address => mapping (address => uint256)) internal _allowances;\r\n\tuint256 private _totalSupply;\r\n\r\n\tfunction totalSupply() public view override returns (uint256) {\r\n\t\treturn _totalSupply;\r\n\t}\r\n\r\n\tfunction balanceOf(address account) public view override returns (uint256) {\r\n\t\treturn _balances[account];\r\n\t}\r\n\r\n\tfunction allowance(address owner, address spender) public view virtual override returns (uint256) {\r\n\t\treturn _allowances[owner][spender];\r\n\t}\r\n\t\r\n\tfunction transfer(address recipient, uint256 amount) public virtual override returns (bool) {\r\n\t\t_transfer(_msgSender(), recipient, amount);\r\n\t\treturn true;\r\n\t}\r\n\r\n\r\n\tfunction approve(address spender, uint256 amount) public virtual override returns (bool) {\r\n\t\t_approve(_msgSender(), spender, amount);\r\n\t\treturn true;\r\n\t}\r\n\r\n\tfunction transferFrom(address sender, address recipient, uint256 amount) public virtual override returns (bool) {\r\n\t\t_transfer(sender, recipient, amount);\r\n\t\t_approve(sender, _msgSender(), _allowances[sender][_msgSender()].sub(amount));\r\n\t\treturn true;\r\n\t}\r\n\r\n\tfunction increaseAllowance(address spender, uint256 addedValue) public virtual returns (bool) {\r\n\t\t_approve(_msgSender(), spender, _allowances[_msgSender()][spender].add(addedValue));\r\n\t\treturn true;\r\n\t}\r\n\r\n\tfunction decreaseAllowance(address spender, uint256 subtractedValue) public virtual returns (bool) {\r\n\t\t_approve(_msgSender(), spender, _allowances[_msgSender()][spender].sub(subtractedValue));\r\n\t\treturn true;\r\n\t}\r\n\r\n\tfunction _transfer(address sender, address recipient, uint256 amount) internal virtual {\r\n\t\trequire(sender != address(0), \"ERC20: transfer from the zero address\");\r\n\t\trequire(recipient != address(0), \"ERC20: transfer to the zero address\");\r\n\r\n\t\t_beforeTokenTransfer(sender, recipient, amount);\r\n\r\n\t\t_balances[sender] = _balances[sender].sub(amount);\r\n\t\t_balances[recipient] = _balances[recipient].add(amount);\r\n\t\temit Transfer(sender, recipient, amount);\r\n\t}\r\n\r\n\tfunction _mint(address account, uint256 amount) internal virtual {\r\n\t\trequire(account != address(0), \"ERC20: mint to the zero address\");\r\n\r\n\t\t_beforeTokenTransfer(address(0), account, amount);\r\n\r\n\t\t_totalSupply = _totalSupply.add(amount);\r\n\t\t_balances[account] = _balances[account].add(amount);\r\n\t\temit Transfer(address(0), account, amount);\r\n\t}\r\n\r\n\tfunction burn(uint256 amount) public virtual {\r\n\t\t_burn(_msgSender(), amount);\r\n\t}\r\n\r\n\tfunction burnFrom(address account, uint256 amount) public virtual {\r\n\t\tuint256 decreasedAllowance = allowance(account, _msgSender()).sub(amount);\r\n\r\n\t\t_approve(account, _msgSender(), decreasedAllowance);\r\n\t\t_burn(account, amount);\r\n\t}\r\n\r\n\tfunction _burn(address account, uint256 amount) internal virtual {\r\n\t\trequire(account != address(0), \"ERC20: burn from the zero address\");\r\n\r\n\t\t_beforeTokenTransfer(account, address(0), amount);\r\n\r\n\t\t_balances[account] = _balances[account].sub(amount);\r\n\t\t_totalSupply = _totalSupply.sub(amount);\r\n\t\temit Transfer(account, address(0), amount);\r\n\t}\r\n\r\n\tfunction _approve(address owner, address spender, uint256 amount) internal virtual {\r\n\t\trequire(owner != address(0), \"ERC20: approve from the zero address\");\r\n\t\trequire(spender != address(0), \"ERC20: approve to the zero address\");\r\n\r\n\t\t_allowances[owner][spender] = amount;\r\n\t\temit Approval(owner, spender, amount);\r\n\t}\r\n\r\n\tfunction _burnFrom(address account, uint256 amount) internal virtual {\r\n\t\t_burn(account, amount);\r\n\t\t_approve(account, _msgSender(), _allowances[account][_msgSender()].sub(amount));\r\n\t}\r\n\r\n\tfunction _beforeTokenTransfer(address from, address to, uint256 amount) internal virtual { }\r\n}\r\n\r\nabstract contract Ownable is Context {\r\n    address private _owner;\r\n    event OwnershipTransferred(address indexed previousOwner, address indexed newOwner);\r\n\r\n    constructor () {\r\n        address msgSender = _msgSender();\r\n        _owner = msgSender;\r\n        emit OwnershipTransferred(address(0), msgSender);\r\n    }\r\n\r\n    function owner() public view virtual returns (address) {\r\n        return _owner;\r\n    }\r\n\r\n    modifier onlyOwner() {\r\n        require(owner() == _msgSender(), \"Ownable: caller is not the owner\");\r\n        _;\r\n    }\r\n\r\n    function renounceOwnership() public virtual onlyOwner {\r\n        emit OwnershipTransferred(_owner, address(0));\r\n        _owner = address(0);\r\n    }\r\n\r\n    function transferOwnership(address newOwner) public virtual onlyOwner {\r\n        require(newOwner != address(0), \"Ownable: new owner is the zero address\");\r\n        emit OwnershipTransferred(_owner, newOwner);\r\n        _owner = newOwner;\r\n    }\r\n}\r\n\r\nabstract contract Operator is Context, Ownable {\r\n    address private _operator;\r\n\r\n    event OperatorTransferred(address indexed previousOperator, address indexed newOperator);\r\n\r\n    constructor(){\r\n        _operator = _msgSender();\r\n        emit OperatorTransferred(address(0), _operator);\r\n    }\r\n\r\n    function operator() public view returns (address) {\r\n        return _operator;\r\n    }\r\n\r\n    modifier onlyOperator() {\r\n        require(_operator == msg.sender, \"operator: caller is not the operator\");\r\n        _;\r\n    }\r\n\r\n    function isOperator() public view returns (bool) {\r\n        return _msgSender() == _operator;\r\n    }\r\n\r\n    function transferOperator(address newOperator_) public onlyOwner {\r\n        _transferOperator(newOperator_);\r\n    }\r\n\r\n    function _transferOperator(address newOperator_) internal {\r\n        require(newOperator_ != address(0), \"operator: zero address given for new operator\");\r\n        emit OperatorTransferred(address(0), newOperator_);\r\n        _operator = newOperator_;\r\n    }\r\n}\r\n\r\ncontract CNUSD is ERC20Custom, Operator {\r\n    using SafeMath for uint256;\r\n\r\n    /* ========== STATE VARIABLES ========== */\r\n\r\n    // ERC20 - Token\r\n    string public override symbol;\r\n    string public override name;\r\n    uint8 public constant override decimals = 18;\r\n\r\n    // CONTRACTS\r\n    address public treasury;\r\n\r\n    // FLAGS\r\n    bool public initialized;\r\n\r\n    // DISTRIBUTION\r\n    uint256 public constant COMMUNITY_REWARD_ALLOCATION = 80000000 ether; // 80M\r\n    uint256 public constant DEV_FUND_ALLOCATION = 20000000 ether; // 20M\r\n    uint256 public constant VESTING_DURATION = 1 days;//365 days; // 12 months\r\n    uint256 public startTime; // Start time of vesting duration\r\n    uint256 public endTime; // End of vesting duration\r\n    address public devFund;\r\n    address public rewardController; // Holding SHARE tokens to distribute into Liquiditiy Mining Pools\r\n    uint256 public devFundLastClaimed;\r\n    uint256 public devFundEmissionRate = DEV_FUND_ALLOCATION / VESTING_DURATION;\r\n    uint256 public communityRewardClaimed;\r\n\r\n    /* ========== MODIFIERS ========== */\r\n\r\n    modifier onlyPools() {\r\n        require(ITreasury(treasury).hasPool(msg.sender), \"!pools\");\r\n        _;\r\n    }\r\n\r\n    /* ========== CONSTRUCTOR ========== */\r\n\r\n    constructor(string memory _name, string memory _symbol,  address _treasury){\r\n        name = _name;\r\n        symbol = _symbol;\r\n        treasury = _treasury;\r\n    }\r\n\r\n    function initialize(\r\n        address _devFund,\r\n        address _rewardController,\r\n        uint256 _startTime\r\n    ) external onlyOperator {\r\n        require(!initialized, \"alreadyInitialized\");\r\n        require(_rewardController != address(0), \"!rewardController\");\r\n        initialized = true;\r\n        devFund = _devFund;\r\n        rewardController = _rewardController;\r\n        startTime = _startTime;\r\n        endTime = _startTime + VESTING_DURATION;\r\n        devFundLastClaimed = _startTime;\r\n\r\n        _mint(msg.sender, 5000 ether);\r\n    }\r\n\r\n    function claimCommunityRewards(uint256 amount) external onlyOperator {\r\n        require(amount > 0, \"invalidAmount\");\r\n        require(initialized, \"!initialized\");\r\n        require(rewardController != address(0), \"!rewardController\");\r\n        uint256 _remainingRewards = COMMUNITY_REWARD_ALLOCATION.sub(communityRewardClaimed);\r\n        require(amount <= _remainingRewards, \"exceedRewards\");\r\n        communityRewardClaimed = communityRewardClaimed.add(amount);\r\n        _mint(rewardController, amount);\r\n    }\r\n\r\n    /* ========== RESTRICTED FUNCTIONS ========== */\r\n\r\n    function setTreasuryAddress(address _treasury) external onlyOperator {\r\n        treasury = _treasury;\r\n    }\r\n\r\n    function setDevFund(address _devFund) external {\r\n        require(msg.sender == devFund, \"!dev\");\r\n        require(_devFund != address(0), \"zero\");\r\n        devFund = _devFund;\r\n    }\r\n\r\n    // This function is what other Pools will call to mint new SHARE\r\n    function poolMint(address m_address, uint256 m_amount) external onlyPools {\r\n        super._mint(m_address, m_amount);\r\n        emit ShareMinted(address(this), m_address, m_amount);\r\n    }\r\n\r\n    // This function is what other pools will call to burn SHARE\r\n    function poolBurnFrom(address b_address, uint256 b_amount) external onlyPools {\r\n        super._burnFrom(b_address, b_amount);\r\n        emit ShareBurned(b_address, address(this), b_amount);\r\n    }\r\n\r\n    function unclaimedDevFund() public view returns (uint256 _pending) {\r\n        uint256 _now = block.timestamp;\r\n        if (_now > endTime) _now = endTime;\r\n        if (devFundLastClaimed >= _now) return 0;\r\n        _pending = _now.sub(devFundLastClaimed).mul(devFundEmissionRate);\r\n    }\r\n\r\n    function claimDevFundRewards() external {\r\n        require(msg.sender == devFund, \"!dev\");\r\n        uint256 _pending = unclaimedDevFund();\r\n        if (_pending > 0 && devFund != address(0)) {\r\n            _mint(devFund, _pending);\r\n            devFundLastClaimed = block.timestamp;\r\n        }\r\n    }\r\n\r\n    /* ========== EVENTS ========== */\r\n\r\n    // Track Share burned\r\n    event ShareBurned(address indexed from, address indexed to, uint256 amount);\r\n\r\n    // Track Share minted\r\n    event ShareMinted(address indexed from, address indexed to, uint256 amount);\r\n}\r\n\r\n\r\ncontract AGOUSD is ERC20Custom, IDollar, Operator {\r\n    using SafeMath for uint256;\r\n\r\n    // ERC20\r\n    string public override symbol;\r\n    string public override name;\r\n    uint8 public constant override decimals = 18;\r\n    uint256 public constant genesis_supply = 5000 ether; // 5000 will be mited at genesis for liq pool seeding\r\n\r\n    // CONTRACTS\r\n    address public treasury;\r\n\r\n    // FLAGS\r\n    bool public initialized;\r\n\r\n    /* ========== MODIFIERS ========== */\r\n\r\n    modifier onlyPools() {\r\n        require(ITreasury(treasury).hasPool(msg.sender), \"!pools\");\r\n        _;\r\n    }\r\n\r\n    /* ========== CONSTRUCTOR ========== */\r\n\r\n    constructor(string memory _name,  string memory _symbol, address _treasury){\r\n        name = _name;\r\n        symbol = _symbol;\r\n        treasury = _treasury;\r\n    }\r\n\r\n    function initialize() external onlyOperator {\r\n        require(!initialized, \"alreadyInitialized\");\r\n        initialized = true;\r\n        _mint(_msgSender(), genesis_supply);\r\n    }\r\n\r\n    /* ========== RESTRICTED FUNCTIONS ========== */\r\n\r\n    // Burn DOLLAR. Can be used by Pool only\r\n    function poolBurnFrom(address _address, uint256 _amount) external override onlyPools {\r\n        super._burnFrom(_address, _amount);\r\n        emit DollarBurned(_address, msg.sender, _amount);\r\n    }\r\n\r\n    // Mint DOLLAR. Can be used by Pool only\r\n    function poolMint(address _address, uint256 _amount) external override onlyPools {\r\n        super._mint(_address, _amount);\r\n        emit DollarMinted(msg.sender, _address, _amount);\r\n    }\r\n\r\n    function setTreasuryAddress(address _treasury) public onlyOperator {\r\n        treasury = _treasury;\r\n    }\r\n\r\n    /* ========== EVENTS ========== */\r\n    event DollarBurned(address indexed from, address indexed to, uint256 amount);// Track DOLLAR burned\r\n    event DollarMinted(address indexed from, address indexed to, uint256 amount);// Track DOLLAR minted\r\n}\r\n",
  "sourcePath": "C:/Users/PaulMuller/Documents/projects/project_AGO/contracts/AGOUSD.sol",
  "compiler": {
    "name": "solc",
    "version": "0.8.4+commit.c7e474f2.Emscripten.clang"
  },
  "schemaVersion": "3.4.1",
  "updatedAt": "2021-06-04T01:37:04.886Z",
  "networkType": "ethereum",
  "devdoc": {
    "kind": "dev",
    "methods": {},
    "version": 1
  },
  "userdoc": {
    "kind": "user",
    "methods": {},
    "version": 1
  }
}