{
  "contractName": "CNUSDWMATICPairOracle",
  "abi": [
    {
      "inputs": [
        {
          "internalType": "address",
          "name": "pairAddress",
          "type": "address"
        }
      ],
      "stateMutability": "nonpayable",
      "type": "constructor"
    },
    {
      "anonymous": false,
      "inputs": [
        {
          "indexed": true,
          "internalType": "address",
          "name": "previousOperator",
          "type": "address"
        },
        {
          "indexed": true,
          "internalType": "address",
          "name": "newOperator",
          "type": "address"
        }
      ],
      "name": "OperatorTransferred",
      "type": "event"
    },
    {
      "anonymous": false,
      "inputs": [
        {
          "indexed": true,
          "internalType": "address",
          "name": "previousOwner",
          "type": "address"
        },
        {
          "indexed": true,
          "internalType": "address",
          "name": "newOwner",
          "type": "address"
        }
      ],
      "name": "OwnershipTransferred",
      "type": "event"
    },
    {
      "inputs": [],
      "name": "PERIOD",
      "outputs": [
        {
          "internalType": "uint256",
          "name": "",
          "type": "uint256"
        }
      ],
      "stateMutability": "view",
      "type": "function",
      "constant": true
    },
    {
      "inputs": [],
      "name": "blockTimestampLast",
      "outputs": [
        {
          "internalType": "uint32",
          "name": "",
          "type": "uint32"
        }
      ],
      "stateMutability": "view",
      "type": "function",
      "constant": true
    },
    {
      "inputs": [],
      "name": "isOperator",
      "outputs": [
        {
          "internalType": "bool",
          "name": "",
          "type": "bool"
        }
      ],
      "stateMutability": "view",
      "type": "function",
      "constant": true
    },
    {
      "inputs": [],
      "name": "operator",
      "outputs": [
        {
          "internalType": "address",
          "name": "",
          "type": "address"
        }
      ],
      "stateMutability": "view",
      "type": "function",
      "constant": true
    },
    {
      "inputs": [],
      "name": "owner",
      "outputs": [
        {
          "internalType": "address",
          "name": "",
          "type": "address"
        }
      ],
      "stateMutability": "view",
      "type": "function",
      "constant": true
    },
    {
      "inputs": [],
      "name": "pair",
      "outputs": [
        {
          "internalType": "contract IUniswapLP",
          "name": "",
          "type": "address"
        }
      ],
      "stateMutability": "view",
      "type": "function",
      "constant": true
    },
    {
      "inputs": [],
      "name": "price0Average",
      "outputs": [
        {
          "internalType": "uint224",
          "name": "_x",
          "type": "uint224"
        }
      ],
      "stateMutability": "view",
      "type": "function",
      "constant": true
    },
    {
      "inputs": [],
      "name": "price0CumulativeLast",
      "outputs": [
        {
          "internalType": "uint256",
          "name": "",
          "type": "uint256"
        }
      ],
      "stateMutability": "view",
      "type": "function",
      "constant": true
    },
    {
      "inputs": [],
      "name": "price1Average",
      "outputs": [
        {
          "internalType": "uint224",
          "name": "_x",
          "type": "uint224"
        }
      ],
      "stateMutability": "view",
      "type": "function",
      "constant": true
    },
    {
      "inputs": [],
      "name": "price1CumulativeLast",
      "outputs": [
        {
          "internalType": "uint256",
          "name": "",
          "type": "uint256"
        }
      ],
      "stateMutability": "view",
      "type": "function",
      "constant": true
    },
    {
      "inputs": [],
      "name": "renounceOwnership",
      "outputs": [],
      "stateMutability": "nonpayable",
      "type": "function"
    },
    {
      "inputs": [],
      "name": "token0",
      "outputs": [
        {
          "internalType": "address",
          "name": "",
          "type": "address"
        }
      ],
      "stateMutability": "view",
      "type": "function",
      "constant": true
    },
    {
      "inputs": [],
      "name": "token1",
      "outputs": [
        {
          "internalType": "address",
          "name": "",
          "type": "address"
        }
      ],
      "stateMutability": "view",
      "type": "function",
      "constant": true
    },
    {
      "inputs": [
        {
          "internalType": "address",
          "name": "newOperator_",
          "type": "address"
        }
      ],
      "name": "transferOperator",
      "outputs": [],
      "stateMutability": "nonpayable",
      "type": "function"
    },
    {
      "inputs": [
        {
          "internalType": "address",
          "name": "newOwner",
          "type": "address"
        }
      ],
      "name": "transferOwnership",
      "outputs": [],
      "stateMutability": "nonpayable",
      "type": "function"
    },
    {
      "inputs": [
        {
          "internalType": "uint256",
          "name": "_period",
          "type": "uint256"
        }
      ],
      "name": "setPeriod",
      "outputs": [],
      "stateMutability": "nonpayable",
      "type": "function"
    },
    {
      "inputs": [],
      "name": "update",
      "outputs": [],
      "stateMutability": "nonpayable",
      "type": "function"
    },
    {
      "inputs": [
        {
          "internalType": "address",
          "name": "token",
          "type": "address"
        },
        {
          "internalType": "uint256",
          "name": "amountIn",
          "type": "uint256"
        }
      ],
      "name": "consult",
      "outputs": [
        {
          "internalType": "uint256",
          "name": "amountOut",
          "type": "uint256"
        }
      ],
      "stateMutability": "view",
      "type": "function",
      "constant": true
    }
  ],
  "bytecode": "0x60e0604052610e106002553480156200001757600080fd5b5060405162001479380380620014798339810160408190526200003a9162000425565b600080546001600160a01b031916339081178255604051909182917f8be0079c531659141344cd1fd0a4f28419497f9722a3daafe3b4186f6b6457e0908290a350600180546001600160a01b031916339081179091556040516000907f74da04524d50c64947f5dd5381ef1a4dca5cba8ed1d816243f9e48aa0b5617ed908290a36000819050806001600160a01b03166080816001600160a01b031660601b81525050806001600160a01b0316630dfe16816040518163ffffffff1660e01b815260040160206040518083038186803b1580156200011757600080fd5b505afa1580156200012c573d6000803e3d6000fd5b505050506040513d601f19601f8201168201806040525081019062000152919062000425565b6001600160a01b031660a0816001600160a01b031660601b81525050806001600160a01b031663d21220a76040518163ffffffff1660e01b815260040160206040518083038186803b158015620001a857600080fd5b505afa158015620001bd573d6000803e3d6000fd5b505050506040513d601f19601f82011682018060405250810190620001e3919062000425565b6001600160a01b031660c0816001600160a01b031660601b81525050806001600160a01b0316635909c0d56040518163ffffffff1660e01b815260040160206040518083038186803b1580156200023957600080fd5b505afa1580156200024e573d6000803e3d6000fd5b505050506040513d601f19601f82011682018060405250810190620002749190620004a9565b600381905550806001600160a01b0316635a3d54936040518163ffffffff1660e01b815260040160206040518083038186803b158015620002b457600080fd5b505afa158015620002c9573d6000803e3d6000fd5b505050506040513d601f19601f82011682018060405250810190620002ef9190620004a9565b600481905550600080826001600160a01b0316630902f1ac6040518163ffffffff1660e01b815260040160606040518083038186803b1580156200033257600080fd5b505afa15801562000347573d6000803e3d6000fd5b505050506040513d601f19601f820116820180604052508101906200036d919062000455565b6005805463ffffffff191663ffffffff9290921691909117905590925090506001600160701b03821615801590620003ad57506001600160701b03811615155b620003fe5760405162461bcd60e51b815260206004820152601760248201527f506169724f7261636c653a204e4f5f5245534552564553000000000000000000604482015260640160405180910390fd5b50505050620004c2565b80516001600160701b03811681146200042057600080fd5b919050565b60006020828403121562000437578081fd5b81516001600160a01b03811681146200044e578182fd5b9392505050565b6000806000606084860312156200046a578182fd5b620004758462000408565b9250620004856020850162000408565b9150604084015163ffffffff811681146200049e578182fd5b809150509250925092565b600060208284031215620004bb578081fd5b5051919050565b60805160601c60a05160601c60c05160601c610f6962000510600039600081816102c2015261046d01526000818161014001526103ea01526000818161026d01526105eb0152610f696000f3fe608060405234801561001057600080fd5b50600436106101365760003560e01c8063715018a6116100b2578063a8aa1b3111610081578063c5700a0211610066578063c5700a0214610298578063d21220a7146102bd578063f2fde38b146102e457600080fd5b8063a8aa1b3114610268578063b4d1d7951461028f57600080fd5b8063715018a6146102345780638da5cb5b1461023c578063a2e620451461024d578063a6bb45391461025557600080fd5b80634456eda2116101095780635909c0d5116100ee5780635909c0d5146101f75780635a3d5493146102005780635e6aaf2c1461020957600080fd5b80634456eda2146101c8578063570ca735146101e657600080fd5b80630dfe16811461013b5780630f3a9f651461017f57806329605e77146101945780633ddac953146101a7575b600080fd5b6101627f000000000000000000000000000000000000000000000000000000000000000081565b6040516001600160a01b0390911681526020015b60405180910390f35b61019261018d366004610e16565b6102f7565b005b6101926101a2366004610d7e565b610380565b6101ba6101b5366004610d9f565b6103e6565b604051908152602001610176565b6001546001600160a01b031633146040519015158152602001610176565b6001546001600160a01b0316610162565b6101ba60035481565b6101ba60045481565b60075461021c906001600160e01b031681565b6040516001600160e01b039091168152602001610176565b610192610530565b6000546001600160a01b0316610162565b6101926105e1565b60065461021c906001600160e01b031681565b6101627f000000000000000000000000000000000000000000000000000000000000000081565b6101ba60025481565b6005546102a89063ffffffff1681565b60405163ffffffff9091168152602001610176565b6101627f000000000000000000000000000000000000000000000000000000000000000081565b6101926102f2366004610d7e565b61077c565b6001546001600160a01b0316331461037b5760405162461bcd60e51b8152602060048201526024808201527f6f70657261746f723a2063616c6c6572206973206e6f7420746865206f70657260448201527f61746f720000000000000000000000000000000000000000000000000000000060648201526084015b60405180910390fd5b600255565b6000546001600160a01b031633146103da5760405162461bcd60e51b815260206004820181905260248201527f4f776e61626c653a2063616c6c6572206973206e6f7420746865206f776e65726044820152606401610372565b6103e3816108ba565b50565b60007f00000000000000000000000000000000000000000000000000000000000000006001600160a01b0316836001600160a01b0316141561046b5760408051602081019091526006546001600160e01b0316815261045090610449908461099b565b5160701c90565b71ffffffffffffffffffffffffffffffffffff16905061052a565b7f00000000000000000000000000000000000000000000000000000000000000006001600160a01b0316836001600160a01b0316146104ec5760405162461bcd60e51b815260206004820152601960248201527f506169724f7261636c653a20494e56414c49445f544f4b454e000000000000006044820152606401610372565b60408051602081019091526007546001600160e01b0316815261051390610449908461099b565b71ffffffffffffffffffffffffffffffffffff1690505b92915050565b6000546001600160a01b0316331461058a5760405162461bcd60e51b815260206004820181905260248201527f4f776e61626c653a2063616c6c6572206973206e6f7420746865206f776e65726044820152606401610372565b600080546040516001600160a01b03909116907f8be0079c531659141344cd1fd0a4f28419497f9722a3daafe3b4186f6b6457e0908390a36000805473ffffffffffffffffffffffffffffffffffffffff19169055565b600080600061060f7f0000000000000000000000000000000000000000000000000000000000000000610a5f565b600554929550909350915060009061062d9063ffffffff1683610ece565b90506002548163ffffffff1610156106875760405162461bcd60e51b815260206004820152601e60248201527f506169724f7261636c653a20504552494f445f4e4f545f454c415053454400006044820152606401610372565b60405180602001604052808263ffffffff16600354876106a79190610eb7565b6106b19190610e84565b6001600160e01b039081169091529051600680547fffffffff0000000000000000000000000000000000000000000000000000000016919092161790556040805160208101909152600454819063ffffffff8416906107109087610eb7565b61071a9190610e84565b6001600160e01b039081169091529051600780547fffffffff000000000000000000000000000000000000000000000000000000001691909216179055506003929092556004556005805463ffffffff191663ffffffff909216919091179055565b6000546001600160a01b031633146107d65760405162461bcd60e51b815260206004820181905260248201527f4f776e61626c653a2063616c6c6572206973206e6f7420746865206f776e65726044820152606401610372565b6001600160a01b0381166108525760405162461bcd60e51b815260206004820152602660248201527f4f776e61626c653a206e6577206f776e657220697320746865207a65726f206160448201527f64647265737300000000000000000000000000000000000000000000000000006064820152608401610372565b600080546040516001600160a01b03808516939216917f8be0079c531659141344cd1fd0a4f28419497f9722a3daafe3b4186f6b6457e091a36000805473ffffffffffffffffffffffffffffffffffffffff19166001600160a01b0392909216919091179055565b6001600160a01b0381166109365760405162461bcd60e51b815260206004820152602d60248201527f6f70657261746f723a207a65726f206164647265737320676976656e20666f7260448201527f206e6577206f70657261746f72000000000000000000000000000000000000006064820152608401610372565b6040516001600160a01b038216906000907f74da04524d50c64947f5dd5381ef1a4dca5cba8ed1d816243f9e48aa0b5617ed908290a36001805473ffffffffffffffffffffffffffffffffffffffff19166001600160a01b0392909216919091179055565b60408051602081019091526000815260008215806109d8575083516001600160e01b0316836109ca8183610e98565b92506109d69083610e84565b145b610a4a5760405162461bcd60e51b815260206004820152602360248201527f4669786564506f696e743a204d554c5449504c49434154494f4e5f4f5645524660448201527f4c4f5700000000000000000000000000000000000000000000000000000000006064820152608401610372565b60408051602081019091529081529392505050565b6000806000610a6c610c65565b90506000849050806001600160a01b0316635909c0d56040518163ffffffff1660e01b815260040160206040518083038186803b158015610aac57600080fd5b505afa158015610ac0573d6000803e3d6000fd5b505050506040513d601f19601f82011682018060405250810190610ae49190610e2e565b9350806001600160a01b0316635a3d54936040518163ffffffff1660e01b815260040160206040518083038186803b158015610b1f57600080fd5b505afa158015610b33573d6000803e3d6000fd5b505050506040513d601f19601f82011682018060405250810190610b579190610e2e565b92506000806000836001600160a01b0316630902f1ac6040518163ffffffff1660e01b815260040160606040518083038186803b158015610b9757600080fd5b505afa158015610bab573d6000803e3d6000fd5b505050506040513d601f19601f82011682018060405250810190610bcf9190610dc8565b9250925092508463ffffffff168163ffffffff1614610c5a576000610bf48287610ece565b90508063ffffffff16610c078486610c7b565b51610c1b91906001600160e01b0316610e98565b610c259089610e46565b97508063ffffffff16610c388585610c7b565b51610c4c91906001600160e01b0316610e98565b610c569088610e46565b9650505b505050509193909250565b6000610c7664010000000042610ef3565b905090565b6040805160208101909152600081526000826dffffffffffffffffffffffffffff1611610cea5760405162461bcd60e51b815260206004820152601760248201527f4669786564506f696e743a204449565f42595f5a45524f0000000000000000006044820152606401610372565b604080516020810190915280610d326dffffffffffffffffffffffffffff85167bffffffffffffffffffffffffffff0000000000000000000000000000607088901b16610e5e565b6001600160e01b031690529392505050565b80356001600160a01b0381168114610d5b57600080fd5b919050565b80516dffffffffffffffffffffffffffff81168114610d5b57600080fd5b600060208284031215610d8f578081fd5b610d9882610d44565b9392505050565b60008060408385031215610db1578081fd5b610dba83610d44565b946020939093013593505050565b600080600060608486031215610ddc578081fd5b610de584610d60565b9250610df360208501610d60565b9150604084015163ffffffff81168114610e0b578182fd5b809150509250925092565b600060208284031215610e27578081fd5b5035919050565b600060208284031215610e3f578081fd5b5051919050565b60008219821115610e5957610e59610f07565b500190565b60006001600160e01b0380841680610e7857610e78610f1d565b92169190910492915050565b600082610e9357610e93610f1d565b500490565b6000816000190483118215151615610eb257610eb2610f07565b500290565b600082821015610ec957610ec9610f07565b500390565b600063ffffffff83811690831681811015610eeb57610eeb610f07565b039392505050565b600082610f0257610f02610f1d565b500690565b634e487b7160e01b600052601160045260246000fd5b634e487b7160e01b600052601260045260246000fdfea2646970667358221220b73f20a1e59fd1836878ac0d09749c4f93c9eaef40a3e35ebb8f395aceba429e64736f6c63430008040033",
  "immutableReferences": {
    "7917": [
      {
        "length": 32,
        "start": 621
      },
      {
        "length": 32,
        "start": 1515
      }
    ],
    "7919": [
      {
        "length": 32,
        "start": 320
      },
      {
        "length": 32,
        "start": 1002
      }
    ],
    "7921": [
      {
        "length": 32,
        "start": 706
      },
      {
        "length": 32,
        "start": 1133
      }
    ]
  },
  "source": "// SPDX-License-Identifier: MIT\r\n\r\npragma solidity ^0.8.0;\r\n\r\nimport \"../../openZeppelin/SafeMath.sol\";\r\nimport \"../../interfaces/IPairOracle.sol\";\r\nimport \"../../interfaces/IUniswapLP.sol\";\r\nimport \"../../Operator.sol\";\r\nimport \"../../libs/Babylonian.sol\";\r\nimport \"../../libs/UQ112x112.sol\";\r\nimport \"../../libs/FixedPoint.sol\";\r\n\r\n\r\ncontract CNUSDWMATICPairOracle is Operator, IPairOracle {\r\n    using FixedPoint for *;\r\n    using SafeMath for uint256;\r\n\r\n    uint256 public PERIOD = 3600; // 10-minute TWAP (time-weighted average price)\r\n\r\n    IUniswapLP public immutable pair;\r\n    address public immutable token0;\r\n    address public immutable token1;\r\n\r\n    uint256 public price0CumulativeLast;\r\n    uint256 public price1CumulativeLast;\r\n    uint32 public blockTimestampLast;\r\n    FixedPoint.uq112x112 public price0Average;\r\n    FixedPoint.uq112x112 public price1Average;\r\n\r\n    constructor(address pairAddress){\r\n        IUniswapLP _pair = IUniswapLP(pairAddress);\r\n        pair = _pair;\r\n        token0 = _pair.token0();\r\n        token1 = _pair.token1();\r\n        price0CumulativeLast = _pair.price0CumulativeLast(); // Fetch the current accumulated price value (1 / 0)\r\n        price1CumulativeLast = _pair.price1CumulativeLast(); // Fetch the current accumulated price value (0 / 1)\r\n        uint112 reserve0;\r\n        uint112 reserve1;\r\n        (reserve0, reserve1, blockTimestampLast) = _pair.getReserves();\r\n        require(reserve0 != 0 && reserve1 != 0, \"PairOracle: NO_RESERVES\"); // Ensure that there's liquidity in the pair\r\n    }\r\n\r\n    function setPeriod(uint256 _period) external onlyOperator {\r\n        PERIOD = _period;\r\n    }\r\n\r\n    function update() external override {\r\n        (uint256 price0Cumulative, uint256 price1Cumulative, uint32 blockTimestamp) = currentCumulativePrices(address(pair));\r\n        uint32 timeElapsed = blockTimestamp - blockTimestampLast; // Overflow is desired\r\n\r\n        // Ensure that at least one full period has passed since the last update\r\n        require(timeElapsed >= PERIOD, \"PairOracle: PERIOD_NOT_ELAPSED\");\r\n\r\n        // Overflow is desired, casting never truncates\r\n        // Cumulative price is in (uq112x112 price * seconds) units so we simply wrap it after division by time elapsed\r\n        price0Average = FixedPoint.uq112x112(uint224((price0Cumulative - price0CumulativeLast) / timeElapsed));\r\n        price1Average = FixedPoint.uq112x112(uint224((price1Cumulative - price1CumulativeLast) / timeElapsed));\r\n        price0CumulativeLast = price0Cumulative;\r\n        price1CumulativeLast = price1Cumulative;\r\n        blockTimestampLast = blockTimestamp;\r\n    }\r\n\r\n    // Note this will always return 0 before update has been called successfully for the first time.\r\n    function consult(address token, uint256 amountIn) external view override returns (uint256 amountOut) {\r\n        if (token == token0) {\r\n            amountOut = price0Average.mul(amountIn).decode144();\r\n        } else {\r\n            require(token == token1, \"PairOracle: INVALID_TOKEN\");\r\n            amountOut = price1Average.mul(amountIn).decode144();\r\n        }\r\n    }\r\n\r\n    function currentBlockTimestamp() internal view returns (uint32) {\r\n        return uint32(block.timestamp % 2**32);\r\n    }\r\n\r\n    // produces the cumulative price using counterfactuals to save gas and avoid a call to sync.\r\n    function currentCumulativePrices(address _pair)\r\n        internal\r\n        view\r\n        returns (\r\n            uint256 price0Cumulative,\r\n            uint256 price1Cumulative,\r\n            uint32 blockTimestamp\r\n        )\r\n    {\r\n        blockTimestamp = currentBlockTimestamp();\r\n        IUniswapLP uniswapPair = IUniswapLP(_pair);\r\n        price0Cumulative = uniswapPair.price0CumulativeLast();\r\n        price1Cumulative = uniswapPair.price1CumulativeLast();\r\n\r\n        // if time has elapsed since the last update on the pair, mock the accumulated price values\r\n        (uint112 reserve0, uint112 reserve1, uint32 _blockTimestampLast) = uniswapPair.getReserves();\r\n        if (_blockTimestampLast != blockTimestamp) {\r\n            // subtraction overflow is desired\r\n            uint32 timeElapsed = blockTimestamp - _blockTimestampLast;\r\n            // addition overflow is desired\r\n            // counterfactual\r\n            price0Cumulative += uint256(FixedPoint.fraction(reserve1, reserve0)._x) * timeElapsed;\r\n            // counterfactual\r\n            price1Cumulative += uint256(FixedPoint.fraction(reserve0, reserve1)._x) * timeElapsed;\r\n        }\r\n    }\r\n}\r\n",
  "sourcePath": "C:/Users/PaulMuller/Documents/projects/project_AGO/contracts/_mock/oracle/CNUSDWMATICPairOracle.sol",
  "compiler": {
    "name": "solc",
    "version": "0.8.4+commit.c7e474f2.Emscripten.clang"
  },
  "schemaVersion": "3.4.1",
  "updatedAt": "2021-05-16T20:22:07.225Z",
  "networkType": "ethereum",
  "devdoc": {
    "kind": "dev",
    "methods": {},
    "version": 1
  },
  "userdoc": {
    "kind": "user",
    "methods": {},
    "version": 1
  }
}