{
  "contractName": "CNUSD",
  "abi": [
    {
      "inputs": [
        {
          "internalType": "string",
          "name": "_name",
          "type": "string"
        },
        {
          "internalType": "string",
          "name": "_symbol",
          "type": "string"
        },
        {
          "internalType": "address",
          "name": "_treasury",
          "type": "address"
        }
      ],
      "stateMutability": "nonpayable",
      "type": "constructor"
    },
    {
      "anonymous": false,
      "inputs": [
        {
          "indexed": true,
          "internalType": "address",
          "name": "owner",
          "type": "address"
        },
        {
          "indexed": true,
          "internalType": "address",
          "name": "spender",
          "type": "address"
        },
        {
          "indexed": false,
          "internalType": "uint256",
          "name": "value",
          "type": "uint256"
        }
      ],
      "name": "Approval",
      "type": "event"
    },
    {
      "anonymous": false,
      "inputs": [
        {
          "indexed": true,
          "internalType": "address",
          "name": "previousOperator",
          "type": "address"
        },
        {
          "indexed": true,
          "internalType": "address",
          "name": "newOperator",
          "type": "address"
        }
      ],
      "name": "OperatorTransferred",
      "type": "event"
    },
    {
      "anonymous": false,
      "inputs": [
        {
          "indexed": true,
          "internalType": "address",
          "name": "previousOwner",
          "type": "address"
        },
        {
          "indexed": true,
          "internalType": "address",
          "name": "newOwner",
          "type": "address"
        }
      ],
      "name": "OwnershipTransferred",
      "type": "event"
    },
    {
      "anonymous": false,
      "inputs": [
        {
          "indexed": true,
          "internalType": "address",
          "name": "from",
          "type": "address"
        },
        {
          "indexed": true,
          "internalType": "address",
          "name": "to",
          "type": "address"
        },
        {
          "indexed": false,
          "internalType": "uint256",
          "name": "amount",
          "type": "uint256"
        }
      ],
      "name": "ShareBurned",
      "type": "event"
    },
    {
      "anonymous": false,
      "inputs": [
        {
          "indexed": true,
          "internalType": "address",
          "name": "from",
          "type": "address"
        },
        {
          "indexed": true,
          "internalType": "address",
          "name": "to",
          "type": "address"
        },
        {
          "indexed": false,
          "internalType": "uint256",
          "name": "amount",
          "type": "uint256"
        }
      ],
      "name": "ShareMinted",
      "type": "event"
    },
    {
      "anonymous": false,
      "inputs": [
        {
          "indexed": true,
          "internalType": "address",
          "name": "from",
          "type": "address"
        },
        {
          "indexed": true,
          "internalType": "address",
          "name": "to",
          "type": "address"
        },
        {
          "indexed": false,
          "internalType": "uint256",
          "name": "value",
          "type": "uint256"
        }
      ],
      "name": "Transfer",
      "type": "event"
    },
    {
      "inputs": [],
      "name": "COMMUNITY_REWARD_ALLOCATION",
      "outputs": [
        {
          "internalType": "uint256",
          "name": "",
          "type": "uint256"
        }
      ],
      "stateMutability": "view",
      "type": "function",
      "constant": true
    },
    {
      "inputs": [],
      "name": "DEV_FUND_ALLOCATION",
      "outputs": [
        {
          "internalType": "uint256",
          "name": "",
          "type": "uint256"
        }
      ],
      "stateMutability": "view",
      "type": "function",
      "constant": true
    },
    {
      "inputs": [],
      "name": "VESTING_DURATION",
      "outputs": [
        {
          "internalType": "uint256",
          "name": "",
          "type": "uint256"
        }
      ],
      "stateMutability": "view",
      "type": "function",
      "constant": true
    },
    {
      "inputs": [
        {
          "internalType": "address",
          "name": "owner",
          "type": "address"
        },
        {
          "internalType": "address",
          "name": "spender",
          "type": "address"
        }
      ],
      "name": "allowance",
      "outputs": [
        {
          "internalType": "uint256",
          "name": "",
          "type": "uint256"
        }
      ],
      "stateMutability": "view",
      "type": "function",
      "constant": true
    },
    {
      "inputs": [
        {
          "internalType": "address",
          "name": "spender",
          "type": "address"
        },
        {
          "internalType": "uint256",
          "name": "amount",
          "type": "uint256"
        }
      ],
      "name": "approve",
      "outputs": [
        {
          "internalType": "bool",
          "name": "",
          "type": "bool"
        }
      ],
      "stateMutability": "nonpayable",
      "type": "function"
    },
    {
      "inputs": [
        {
          "internalType": "address",
          "name": "account",
          "type": "address"
        }
      ],
      "name": "balanceOf",
      "outputs": [
        {
          "internalType": "uint256",
          "name": "",
          "type": "uint256"
        }
      ],
      "stateMutability": "view",
      "type": "function",
      "constant": true
    },
    {
      "inputs": [
        {
          "internalType": "uint256",
          "name": "amount",
          "type": "uint256"
        }
      ],
      "name": "burn",
      "outputs": [],
      "stateMutability": "nonpayable",
      "type": "function"
    },
    {
      "inputs": [
        {
          "internalType": "address",
          "name": "account",
          "type": "address"
        },
        {
          "internalType": "uint256",
          "name": "amount",
          "type": "uint256"
        }
      ],
      "name": "burnFrom",
      "outputs": [],
      "stateMutability": "nonpayable",
      "type": "function"
    },
    {
      "inputs": [],
      "name": "communityRewardClaimed",
      "outputs": [
        {
          "internalType": "uint256",
          "name": "",
          "type": "uint256"
        }
      ],
      "stateMutability": "view",
      "type": "function",
      "constant": true
    },
    {
      "inputs": [],
      "name": "decimals",
      "outputs": [
        {
          "internalType": "uint8",
          "name": "",
          "type": "uint8"
        }
      ],
      "stateMutability": "view",
      "type": "function",
      "constant": true
    },
    {
      "inputs": [
        {
          "internalType": "address",
          "name": "spender",
          "type": "address"
        },
        {
          "internalType": "uint256",
          "name": "subtractedValue",
          "type": "uint256"
        }
      ],
      "name": "decreaseAllowance",
      "outputs": [
        {
          "internalType": "bool",
          "name": "",
          "type": "bool"
        }
      ],
      "stateMutability": "nonpayable",
      "type": "function"
    },
    {
      "inputs": [],
      "name": "devFund",
      "outputs": [
        {
          "internalType": "address",
          "name": "",
          "type": "address"
        }
      ],
      "stateMutability": "view",
      "type": "function",
      "constant": true
    },
    {
      "inputs": [],
      "name": "devFundEmissionRate",
      "outputs": [
        {
          "internalType": "uint256",
          "name": "",
          "type": "uint256"
        }
      ],
      "stateMutability": "view",
      "type": "function",
      "constant": true
    },
    {
      "inputs": [],
      "name": "devFundLastClaimed",
      "outputs": [
        {
          "internalType": "uint256",
          "name": "",
          "type": "uint256"
        }
      ],
      "stateMutability": "view",
      "type": "function",
      "constant": true
    },
    {
      "inputs": [],
      "name": "endTime",
      "outputs": [
        {
          "internalType": "uint256",
          "name": "",
          "type": "uint256"
        }
      ],
      "stateMutability": "view",
      "type": "function",
      "constant": true
    },
    {
      "inputs": [
        {
          "internalType": "address",
          "name": "spender",
          "type": "address"
        },
        {
          "internalType": "uint256",
          "name": "addedValue",
          "type": "uint256"
        }
      ],
      "name": "increaseAllowance",
      "outputs": [
        {
          "internalType": "bool",
          "name": "",
          "type": "bool"
        }
      ],
      "stateMutability": "nonpayable",
      "type": "function"
    },
    {
      "inputs": [],
      "name": "initialized",
      "outputs": [
        {
          "internalType": "bool",
          "name": "",
          "type": "bool"
        }
      ],
      "stateMutability": "view",
      "type": "function",
      "constant": true
    },
    {
      "inputs": [],
      "name": "isOperator",
      "outputs": [
        {
          "internalType": "bool",
          "name": "",
          "type": "bool"
        }
      ],
      "stateMutability": "view",
      "type": "function",
      "constant": true
    },
    {
      "inputs": [],
      "name": "name",
      "outputs": [
        {
          "internalType": "string",
          "name": "",
          "type": "string"
        }
      ],
      "stateMutability": "view",
      "type": "function",
      "constant": true
    },
    {
      "inputs": [],
      "name": "operator",
      "outputs": [
        {
          "internalType": "address",
          "name": "",
          "type": "address"
        }
      ],
      "stateMutability": "view",
      "type": "function",
      "constant": true
    },
    {
      "inputs": [],
      "name": "owner",
      "outputs": [
        {
          "internalType": "address",
          "name": "",
          "type": "address"
        }
      ],
      "stateMutability": "view",
      "type": "function",
      "constant": true
    },
    {
      "inputs": [],
      "name": "renounceOwnership",
      "outputs": [],
      "stateMutability": "nonpayable",
      "type": "function"
    },
    {
      "inputs": [],
      "name": "rewardController",
      "outputs": [
        {
          "internalType": "address",
          "name": "",
          "type": "address"
        }
      ],
      "stateMutability": "view",
      "type": "function",
      "constant": true
    },
    {
      "inputs": [],
      "name": "startTime",
      "outputs": [
        {
          "internalType": "uint256",
          "name": "",
          "type": "uint256"
        }
      ],
      "stateMutability": "view",
      "type": "function",
      "constant": true
    },
    {
      "inputs": [],
      "name": "symbol",
      "outputs": [
        {
          "internalType": "string",
          "name": "",
          "type": "string"
        }
      ],
      "stateMutability": "view",
      "type": "function",
      "constant": true
    },
    {
      "inputs": [],
      "name": "totalSupply",
      "outputs": [
        {
          "internalType": "uint256",
          "name": "",
          "type": "uint256"
        }
      ],
      "stateMutability": "view",
      "type": "function",
      "constant": true
    },
    {
      "inputs": [
        {
          "internalType": "address",
          "name": "recipient",
          "type": "address"
        },
        {
          "internalType": "uint256",
          "name": "amount",
          "type": "uint256"
        }
      ],
      "name": "transfer",
      "outputs": [
        {
          "internalType": "bool",
          "name": "",
          "type": "bool"
        }
      ],
      "stateMutability": "nonpayable",
      "type": "function"
    },
    {
      "inputs": [
        {
          "internalType": "address",
          "name": "sender",
          "type": "address"
        },
        {
          "internalType": "address",
          "name": "recipient",
          "type": "address"
        },
        {
          "internalType": "uint256",
          "name": "amount",
          "type": "uint256"
        }
      ],
      "name": "transferFrom",
      "outputs": [
        {
          "internalType": "bool",
          "name": "",
          "type": "bool"
        }
      ],
      "stateMutability": "nonpayable",
      "type": "function"
    },
    {
      "inputs": [
        {
          "internalType": "address",
          "name": "newOperator_",
          "type": "address"
        }
      ],
      "name": "transferOperator",
      "outputs": [],
      "stateMutability": "nonpayable",
      "type": "function"
    },
    {
      "inputs": [
        {
          "internalType": "address",
          "name": "newOwner",
          "type": "address"
        }
      ],
      "name": "transferOwnership",
      "outputs": [],
      "stateMutability": "nonpayable",
      "type": "function"
    },
    {
      "inputs": [],
      "name": "treasury",
      "outputs": [
        {
          "internalType": "address",
          "name": "",
          "type": "address"
        }
      ],
      "stateMutability": "view",
      "type": "function",
      "constant": true
    },
    {
      "inputs": [
        {
          "internalType": "address",
          "name": "_devFund",
          "type": "address"
        },
        {
          "internalType": "address",
          "name": "_rewardController",
          "type": "address"
        },
        {
          "internalType": "uint256",
          "name": "_startTime",
          "type": "uint256"
        }
      ],
      "name": "initialize",
      "outputs": [],
      "stateMutability": "nonpayable",
      "type": "function"
    },
    {
      "inputs": [
        {
          "internalType": "uint256",
          "name": "amount",
          "type": "uint256"
        }
      ],
      "name": "claimCommunityRewards",
      "outputs": [],
      "stateMutability": "nonpayable",
      "type": "function"
    },
    {
      "inputs": [
        {
          "internalType": "address",
          "name": "_treasury",
          "type": "address"
        }
      ],
      "name": "setTreasuryAddress",
      "outputs": [],
      "stateMutability": "nonpayable",
      "type": "function"
    },
    {
      "inputs": [
        {
          "internalType": "address",
          "name": "_devFund",
          "type": "address"
        }
      ],
      "name": "setDevFund",
      "outputs": [],
      "stateMutability": "nonpayable",
      "type": "function"
    },
    {
      "inputs": [
        {
          "internalType": "address",
          "name": "m_address",
          "type": "address"
        },
        {
          "internalType": "uint256",
          "name": "m_amount",
          "type": "uint256"
        }
      ],
      "name": "poolMint",
      "outputs": [],
      "stateMutability": "nonpayable",
      "type": "function"
    },
    {
      "inputs": [
        {
          "internalType": "address",
          "name": "b_address",
          "type": "address"
        },
        {
          "internalType": "uint256",
          "name": "b_amount",
          "type": "uint256"
        }
      ],
      "name": "poolBurnFrom",
      "outputs": [],
      "stateMutability": "nonpayable",
      "type": "function"
    },
    {
      "inputs": [],
      "name": "unclaimedDevFund",
      "outputs": [
        {
          "internalType": "uint256",
          "name": "_pending",
          "type": "uint256"
        }
      ],
      "stateMutability": "view",
      "type": "function",
      "constant": true
    },
    {
      "inputs": [],
      "name": "claimDevFundRewards",
      "outputs": [],
      "stateMutability": "nonpayable",
      "type": "function"
    }
  ],
  "bytecode": "0x60806040526200001e620151806a108b2a2c280290940000006200030b565b600d553480156200002e57600080fd5b5060405162001db538038062001db5833981016040819052620000519162000282565b600380546001600160a01b0319163390811790915560405181906000907f8be0079c531659141344cd1fd0a4f28419497f9722a3daafe3b4186f6b6457e0908290a350600480546001600160a01b031916339081179091556040516000907f74da04524d50c64947f5dd5381ef1a4dca5cba8ed1d816243f9e48aa0b5617ed908290a38251620000e990600690602086019062000129565b508151620000ff90600590602085019062000129565b50600780546001600160a01b0319166001600160a01b0392909216919091179055506200037f9050565b82805462000137906200032c565b90600052602060002090601f0160209004810192826200015b5760008555620001a6565b82601f106200017657805160ff1916838001178555620001a6565b82800160010185558215620001a6579182015b82811115620001a657825182559160200191906001019062000189565b50620001b4929150620001b8565b5090565b5b80821115620001b45760008155600101620001b9565b600082601f830112620001e0578081fd5b81516001600160401b0380821115620001fd57620001fd62000369565b604051601f8301601f19908116603f0116810190828211818310171562000228576200022862000369565b8160405283815260209250868385880101111562000244578485fd5b8491505b8382101562000267578582018301518183018401529082019062000248565b838211156200027857848385830101525b9695505050505050565b60008060006060848603121562000297578283fd5b83516001600160401b0380821115620002ae578485fd5b620002bc87838801620001cf565b94506020860151915080821115620002d2578384fd5b50620002e186828701620001cf565b604086015190935090506001600160a01b038116811462000300578182fd5b809150509250925092565b6000826200032757634e487b7160e01b81526012600452602481fd5b500490565b600181811c908216806200034157607f821691505b602082108114156200036357634e487b7160e01b600052602260045260246000fd5b50919050565b634e487b7160e01b600052604160045260246000fd5b611a26806200038f6000396000f3fe608060405234801561001057600080fd5b50600436106102ad5760003560e01c80634cfc4d301161017b5780638da5cb5b116100d8578063ae4db9191161008c578063dd62ed3e11610071578063dd62ed3e14610544578063f25f8cb31461057d578063f2fde38b1461058f57600080fd5b8063ae4db91914610528578063b59c2e411461053b57600080fd5b8063a457c2d7116100bd578063a457c2d7146104f9578063a790b5ca1461050c578063a9059cbb1461051557600080fd5b80638da5cb5b146104e057806395d89b41146104f157600080fd5b8063715018a61161012f57806379cc67901161011457806379cc6790146104a857806384e09fd6146104bb5780638cc5ce99146104cd57600080fd5b8063715018a61461049757806378e979251461049f57600080fd5b806361d027b31161016057806361d027b3146104485780636605bfda1461045b57806370a082311461046e57600080fd5b80634cfc4d301461042d578063570ca7351461043757600080fd5b806323b872dd1161022957806339509351116101dd5780634390d2a8116101c25780634390d2a8146103dc5780634456eda2146104075780634744aa7f1461041a57600080fd5b806339509351146103b657806342966c68146103c957600080fd5b80632c07a6241161020e5780632c07a6241461038b578063313ce567146103935780633197cbb6146103ad57600080fd5b806323b872dd1461036557806329605e771461037857600080fd5b80630ba2f93e11610280578063158ef93e11610265578063158ef93e146103365780631794bb3c1461034a57806318160ddd1461035d57600080fd5b80630ba2f93e1461031b5780630c407d561461032357600080fd5b806304017315146102b257806306fdde03146102ce578063095ea7b3146102e35780630a0c165a14610306575b600080fd5b6102bb600c5481565b6040519081526020015b60405180910390f35b6102d66105a2565b6040516102c591906118de565b6102f66102f136600461187d565b610630565b60405190151581526020016102c5565b61031961031436600461187d565b610647565b005b61031961074b565b61031961033136600461187d565b6107d7565b6007546102f690600160a01b900460ff1681565b610319610358366004611842565b6108ce565b6002546102bb565b6102f6610373366004611842565b610a75565b6103196103863660046117f6565b610ad7565b6102bb610b3a565b61039b601281565b60405160ff90911681526020016102c5565b6102bb60095481565b6102f66103c436600461187d565b610b86565b6103196103d73660046118c6565b610bbc565b600a546103ef906001600160a01b031681565b6040516001600160a01b0390911681526020016102c5565b6004546001600160a01b031633146102f6565b6103196104283660046118c6565b610bc6565b6102bb6201518081565b6004546001600160a01b03166103ef565b6007546103ef906001600160a01b031681565b6103196104693660046117f6565b610dcb565b6102bb61047c3660046117f6565b6001600160a01b031660009081526020819052604090205490565b610319610e53565b6102bb60085481565b6103196104b636600461187d565b610ef7565b6102bb6a108b2a2c2802909400000081565b600b546103ef906001600160a01b031681565b6003546001600160a01b03166103ef565b6102d6610f24565b6102f661050736600461187d565b610f31565b6102bb600e5481565b6102f661052336600461187d565b610f67565b6103196105363660046117f6565b610f74565b6102bb600d5481565b6102bb610552366004611810565b6001600160a01b03918216600090815260016020908152604080832093909416825291909152205490565b6102bb6a422ca8b0a00a425000000081565b61031961059d3660046117f6565b611031565b600680546105af9061199f565b80601f01602080910402602001604051908101604052809291908181526020018280546105db9061199f565b80156106285780601f106105fd57610100808354040283529160200191610628565b820191906000526020600020905b81548152906001019060200180831161060b57829003601f168201915b505050505081565b600061063d338484611163565b5060015b92915050565b600754604051631246dbf560e01b81523360048201526001600160a01b0390911690631246dbf59060240160206040518083038186803b15801561068a57600080fd5b505afa15801561069e573d6000803e3d6000fd5b505050506040513d601f19601f820116820180604052508101906106c291906118a6565b6106fc5760405162461bcd60e51b815260206004820152600660248201526521706f6f6c7360d01b60448201526064015b60405180910390fd5b61070682826112bc565b60405181815230906001600160a01b038416907fdf05d6cb804e48c3130d5f7811e55947769ccdecf499faea489170f17df227cf906020015b60405180910390a35050565b600a546001600160a01b0316331461078e5760405162461bcd60e51b81526004016106f39060208082526004908201526310b232bb60e11b604082015260600190565b6000610798610b3a565b90506000811180156107b45750600a546001600160a01b031615155b156107d457600a546107cf906001600160a01b0316826112f0565b42600c555b50565b600754604051631246dbf560e01b81523360048201526001600160a01b0390911690631246dbf59060240160206040518083038186803b15801561081a57600080fd5b505afa15801561082e573d6000803e3d6000fd5b505050506040513d601f19601f8201168201806040525081019061085291906118a6565b6108875760405162461bcd60e51b815260206004820152600660248201526521706f6f6c7360d01b60448201526064016106f3565b61089182826112f0565b6040518181526001600160a01b0383169030907ff4d2b66b63836b39ffec28f88533e0f50c9136ab7d8d9b9976f93d3880e802059060200161073f565b6004546001600160a01b031633146109345760405162461bcd60e51b8152602060048201526024808201527f6f70657261746f723a2063616c6c6572206973206e6f7420746865206f70657260448201526330ba37b960e11b60648201526084016106f3565b600754600160a01b900460ff161561098e5760405162461bcd60e51b815260206004820152601260248201527f616c7265616479496e697469616c697a6564000000000000000000000000000060448201526064016106f3565b6001600160a01b0382166109e45760405162461bcd60e51b815260206004820152601160248201527f21726577617264436f6e74726f6c6c657200000000000000000000000000000060448201526064016106f3565b600780547fffffffffffffffffffffff00ffffffffffffffffffffffffffffffffffffffff16600160a01b179055600a80546001600160a01b038086166001600160a01b031992831617909255600b8054928516929091169190911790556008819055610a546201518082611931565b600955600c819055610a703369010f0cf064dd592000006112f0565b505050565b6000610a828484846113c7565b610acd84336001600160a01b0387166000908152600160205260408120610ac891879190335b6001600160a01b0316815260208101919091526040016000205490611562565b611163565b5060019392505050565b6003546001600160a01b03163314610b315760405162461bcd60e51b815260206004820181905260248201527f4f776e61626c653a2063616c6c6572206973206e6f7420746865206f776e657260448201526064016106f3565b6107d481611593565b6009546000904290811115610b4e57506009545b80600c5410610b5f57600091505090565b610b80600d54610b7a600c548461156290919063ffffffff16565b90611667565b91505090565b3360008181526001602090815260408083206001600160a01b0387168452909152812054909161063d918590610ac890866116a8565b6107d433826116d4565b6004546001600160a01b03163314610c2c5760405162461bcd60e51b8152602060048201526024808201527f6f70657261746f723a2063616c6c6572206973206e6f7420746865206f70657260448201526330ba37b960e11b60648201526084016106f3565b60008111610c7c5760405162461bcd60e51b815260206004820152600d60248201527f696e76616c6964416d6f756e740000000000000000000000000000000000000060448201526064016106f3565b600754600160a01b900460ff16610cd55760405162461bcd60e51b815260206004820152600c60248201527f21696e697469616c697a6564000000000000000000000000000000000000000060448201526064016106f3565b600b546001600160a01b0316610d2d5760405162461bcd60e51b815260206004820152601160248201527f21726577617264436f6e74726f6c6c657200000000000000000000000000000060448201526064016106f3565b6000610d4f600e546a422ca8b0a00a425000000061156290919063ffffffff16565b905080821115610da15760405162461bcd60e51b815260206004820152600d60248201527f657863656564526577617264730000000000000000000000000000000000000060448201526064016106f3565b600e54610dae90836116a8565b600e55600b54610dc7906001600160a01b0316836112f0565b5050565b6004546001600160a01b03163314610e315760405162461bcd60e51b8152602060048201526024808201527f6f70657261746f723a2063616c6c6572206973206e6f7420746865206f70657260448201526330ba37b960e11b60648201526084016106f3565b600780546001600160a01b0319166001600160a01b0392909216919091179055565b6003546001600160a01b03163314610ead5760405162461bcd60e51b815260206004820181905260248201527f4f776e61626c653a2063616c6c6572206973206e6f7420746865206f776e657260448201526064016106f3565b6003546040516000916001600160a01b0316907f8be0079c531659141344cd1fd0a4f28419497f9722a3daafe3b4186f6b6457e0908390a3600380546001600160a01b0319169055565b6000610f0d82610f078533610552565b90611562565b9050610f1a833383611163565b610a7083836116d4565b600580546105af9061199f565b3360008181526001602090815260408083206001600160a01b0387168452909152812054909161063d918590610ac89086611562565b600061063d3384846113c7565b600a546001600160a01b03163314610fb75760405162461bcd60e51b81526004016106f39060208082526004908201526310b232bb60e11b604082015260600190565b6001600160a01b03811661100f5760405162461bcd60e51b81526004016106f39060208082526004908201527f7a65726f00000000000000000000000000000000000000000000000000000000604082015260600190565b600a80546001600160a01b0319166001600160a01b0392909216919091179055565b6003546001600160a01b0316331461108b5760405162461bcd60e51b815260206004820181905260248201527f4f776e61626c653a2063616c6c6572206973206e6f7420746865206f776e657260448201526064016106f3565b6001600160a01b0381166111075760405162461bcd60e51b815260206004820152602660248201527f4f776e61626c653a206e6577206f776e657220697320746865207a65726f206160448201527f646472657373000000000000000000000000000000000000000000000000000060648201526084016106f3565b6003546040516001600160a01b038084169216907f8be0079c531659141344cd1fd0a4f28419497f9722a3daafe3b4186f6b6457e090600090a3600380546001600160a01b0319166001600160a01b0392909216919091179055565b6001600160a01b0383166111de5760405162461bcd60e51b8152602060048201526024808201527f45524332303a20617070726f76652066726f6d20746865207a65726f2061646460448201527f726573730000000000000000000000000000000000000000000000000000000060648201526084016106f3565b6001600160a01b03821661125a5760405162461bcd60e51b815260206004820152602260248201527f45524332303a20617070726f766520746f20746865207a65726f20616464726560448201527f737300000000000000000000000000000000000000000000000000000000000060648201526084016106f3565b6001600160a01b0383811660008181526001602090815260408083209487168084529482529182902085905590518481527f8c5be1e5ebec7d5bd14f71427d1e84f3dd0314c0f7b2291e5b200ac8c7c3b92591015b60405180910390a3505050565b6112c682826116d4565b610dc782336001600160a01b0385166000908152600160205260408120610ac89186919033610aa8565b6001600160a01b0382166113465760405162461bcd60e51b815260206004820152601f60248201527f45524332303a206d696e7420746f20746865207a65726f20616464726573730060448201526064016106f3565b60025461135390826116a8565b6002556001600160a01b03821660009081526020819052604090205461137990826116a8565b6001600160a01b038316600081815260208181526040808320949094559251848152919290917fddf252ad1be2c89b69c2b068fc378daa952ba7f163c4a11628f55a4df523b3ef910161073f565b6001600160a01b0383166114435760405162461bcd60e51b815260206004820152602560248201527f45524332303a207472616e736665722066726f6d20746865207a65726f20616460448201527f647265737300000000000000000000000000000000000000000000000000000060648201526084016106f3565b6001600160a01b0382166114bf5760405162461bcd60e51b815260206004820152602360248201527f45524332303a207472616e7366657220746f20746865207a65726f206164647260448201527f657373000000000000000000000000000000000000000000000000000000000060648201526084016106f3565b6001600160a01b0383166000908152602081905260409020546114e29082611562565b6001600160a01b03808516600090815260208190526040808220939093559084168152205461151190826116a8565b6001600160a01b038381166000818152602081815260409182902094909455518481529092918616917fddf252ad1be2c89b69c2b068fc378daa952ba7f163c4a11628f55a4df523b3ef91016112af565b60008282111561158257634e487b7160e01b600052600160045260246000fd5b61158c8284611988565b9392505050565b6001600160a01b03811661160f5760405162461bcd60e51b815260206004820152602d60248201527f6f70657261746f723a207a65726f206164647265737320676976656e20666f7260448201527f206e6577206f70657261746f720000000000000000000000000000000000000060648201526084016106f3565b6040516001600160a01b038216906000907f74da04524d50c64947f5dd5381ef1a4dca5cba8ed1d816243f9e48aa0b5617ed908290a3600480546001600160a01b0319166001600160a01b0392909216919091179055565b60008261167657506000610641565b6116808284611969565b90508161168d8483611949565b1461064157634e487b7160e01b600052600160045260246000fd5b60006116b48284611931565b90508281101561064157634e487b7160e01b600052600160045260246000fd5b6001600160a01b0382166117505760405162461bcd60e51b815260206004820152602160248201527f45524332303a206275726e2066726f6d20746865207a65726f2061646472657360448201527f730000000000000000000000000000000000000000000000000000000000000060648201526084016106f3565b6001600160a01b0382166000908152602081905260409020546117739082611562565b6001600160a01b0383166000908152602081905260409020556002546117999082611562565b6002556040518181526000906001600160a01b038416907fddf252ad1be2c89b69c2b068fc378daa952ba7f163c4a11628f55a4df523b3ef9060200161073f565b80356001600160a01b03811681146117f157600080fd5b919050565b600060208284031215611807578081fd5b61158c826117da565b60008060408385031215611822578081fd5b61182b836117da565b9150611839602084016117da565b90509250929050565b600080600060608486031215611856578081fd5b61185f846117da565b925061186d602085016117da565b9150604084013590509250925092565b6000806040838503121561188f578182fd5b611898836117da565b946020939093013593505050565b6000602082840312156118b7578081fd5b8151801515811461158c578182fd5b6000602082840312156118d7578081fd5b5035919050565b6000602080835283518082850152825b8181101561190a578581018301518582016040015282016118ee565b8181111561191b5783604083870101525b50601f01601f1916929092016040019392505050565b60008219821115611944576119446119da565b500190565b60008261196457634e487b7160e01b81526012600452602481fd5b500490565b6000816000190483118215151615611983576119836119da565b500290565b60008282101561199a5761199a6119da565b500390565b600181811c908216806119b357607f821691505b602082108114156119d457634e487b7160e01b600052602260045260246000fd5b50919050565b634e487b7160e01b600052601160045260246000fdfea2646970667358221220dd0598e5af2707e7a26b6d228e86060a90142457e2b0537b25833a2164c400d564736f6c63430008040033",
  "immutableReferences": {},
  "source": "// SPDX-License-Identifier: MIT\r\n\r\npragma solidity ^0.8.0;\r\npragma experimental ABIEncoderV2;\r\n\r\nimport \"./openZeppelin/SafeMath.sol\";\r\nimport \"./openZeppelin/Context.sol\";\r\nimport \"./openZeppelin/IERC20.sol\";\r\n\r\nimport \"./ERC20Custom.sol\";\r\nimport \"./interfaces/ITreasury.sol\";\r\nimport \"./Operator.sol\";\r\n\r\ncontract CNUSD is ERC20Custom, Operator {\r\n    using SafeMath for uint256;\r\n\r\n    /* ========== STATE VARIABLES ========== */\r\n\r\n    // ERC20 - Token\r\n    string public override symbol;\r\n    string public override name;\r\n    uint8 public constant override decimals = 18;\r\n\r\n    // CONTRACTS\r\n    address public treasury;\r\n\r\n    // FLAGS\r\n    bool public initialized;\r\n\r\n    // DISTRIBUTION\r\n    uint256 public constant COMMUNITY_REWARD_ALLOCATION = 80000000 ether; // 80M\r\n    uint256 public constant DEV_FUND_ALLOCATION = 20000000 ether; // 20M\r\n    uint256 public constant VESTING_DURATION = 1 days;//365 days; // 12 months\r\n    uint256 public startTime; // Start time of vesting duration\r\n    uint256 public endTime; // End of vesting duration\r\n    address public devFund;\r\n    address public rewardController; // Holding SHARE tokens to distribute into Liquiditiy Mining Pools\r\n    uint256 public devFundLastClaimed;\r\n    uint256 public devFundEmissionRate = DEV_FUND_ALLOCATION / VESTING_DURATION;\r\n    uint256 public communityRewardClaimed;\r\n\r\n    /* ========== MODIFIERS ========== */\r\n\r\n    modifier onlyPools() {\r\n        require(ITreasury(treasury).hasPool(msg.sender), \"!pools\");\r\n        _;\r\n    }\r\n\r\n    /* ========== CONSTRUCTOR ========== */\r\n\r\n    constructor(string memory _name, string memory _symbol,  address _treasury){\r\n        name = _name;\r\n        symbol = _symbol;\r\n        treasury = _treasury;\r\n    }\r\n\r\n    function initialize(\r\n        address _devFund,\r\n        address _rewardController,\r\n        uint256 _startTime\r\n    ) external onlyOperator {\r\n        require(!initialized, \"alreadyInitialized\");\r\n        require(_rewardController != address(0), \"!rewardController\");\r\n        initialized = true;\r\n        devFund = _devFund;\r\n        rewardController = _rewardController;\r\n        startTime = _startTime;\r\n        endTime = _startTime + VESTING_DURATION;\r\n        devFundLastClaimed = _startTime;\r\n\r\n        _mint(msg.sender, 5000 ether);\r\n    }\r\n\r\n    function claimCommunityRewards(uint256 amount) external onlyOperator {\r\n        require(amount > 0, \"invalidAmount\");\r\n        require(initialized, \"!initialized\");\r\n        require(rewardController != address(0), \"!rewardController\");\r\n        uint256 _remainingRewards = COMMUNITY_REWARD_ALLOCATION.sub(communityRewardClaimed);\r\n        require(amount <= _remainingRewards, \"exceedRewards\");\r\n        communityRewardClaimed = communityRewardClaimed.add(amount);\r\n        _mint(rewardController, amount);\r\n    }\r\n\r\n    /* ========== RESTRICTED FUNCTIONS ========== */\r\n\r\n    function setTreasuryAddress(address _treasury) external onlyOperator {\r\n        treasury = _treasury;\r\n    }\r\n\r\n    function setDevFund(address _devFund) external {\r\n        require(msg.sender == devFund, \"!dev\");\r\n        require(_devFund != address(0), \"zero\");\r\n        devFund = _devFund;\r\n    }\r\n\r\n    // This function is what other Pools will call to mint new SHARE\r\n    function poolMint(address m_address, uint256 m_amount) external onlyPools {\r\n        super._mint(m_address, m_amount);\r\n        emit ShareMinted(address(this), m_address, m_amount);\r\n    }\r\n\r\n    // This function is what other pools will call to burn SHARE\r\n    function poolBurnFrom(address b_address, uint256 b_amount) external onlyPools {\r\n        super._burnFrom(b_address, b_amount);\r\n        emit ShareBurned(b_address, address(this), b_amount);\r\n    }\r\n\r\n    function unclaimedDevFund() public view returns (uint256 _pending) {\r\n        uint256 _now = block.timestamp;\r\n        if (_now > endTime) _now = endTime;\r\n        if (devFundLastClaimed >= _now) return 0;\r\n        _pending = _now.sub(devFundLastClaimed).mul(devFundEmissionRate);\r\n    }\r\n\r\n    function claimDevFundRewards() external {\r\n        require(msg.sender == devFund, \"!dev\");\r\n        uint256 _pending = unclaimedDevFund();\r\n        if (_pending > 0 && devFund != address(0)) {\r\n            _mint(devFund, _pending);\r\n            devFundLastClaimed = block.timestamp;\r\n        }\r\n    }\r\n\r\n    /* ========== EVENTS ========== */\r\n\r\n    // Track Share burned\r\n    event ShareBurned(address indexed from, address indexed to, uint256 amount);\r\n\r\n    // Track Share minted\r\n    event ShareMinted(address indexed from, address indexed to, uint256 amount);\r\n}\r\n",
  "sourcePath": "C:/Users/PaulMuller/Documents/projects/project_AGO/contracts/CNUSD.sol",
  "compiler": {
    "name": "solc",
    "version": "0.8.4+commit.c7e474f2.Emscripten.clang"
  },
  "schemaVersion": "3.4.1",
  "updatedAt": "2021-05-16T20:22:07.269Z",
  "networkType": "ethereum",
  "devdoc": {
    "kind": "dev",
    "methods": {},
    "version": 1
  },
  "userdoc": {
    "kind": "user",
    "methods": {},
    "version": 1
  }
}