{
  "contractName": "DollarOracle",
  "abi": [
    {
      "inputs": [
        {
          "internalType": "address",
          "name": "_dollar",
          "type": "address"
        },
        {
          "internalType": "address",
          "name": "_oracleDollarBusd",
          "type": "address"
        },
        {
          "internalType": "address",
          "name": "_oracleBusdUsd",
          "type": "address"
        }
      ],
      "stateMutability": "nonpayable",
      "type": "constructor"
    },
    {
      "anonymous": false,
      "inputs": [
        {
          "indexed": true,
          "internalType": "address",
          "name": "previousOperator",
          "type": "address"
        },
        {
          "indexed": true,
          "internalType": "address",
          "name": "newOperator",
          "type": "address"
        }
      ],
      "name": "OperatorTransferred",
      "type": "event"
    },
    {
      "anonymous": false,
      "inputs": [
        {
          "indexed": true,
          "internalType": "address",
          "name": "previousOwner",
          "type": "address"
        },
        {
          "indexed": true,
          "internalType": "address",
          "name": "newOwner",
          "type": "address"
        }
      ],
      "name": "OwnershipTransferred",
      "type": "event"
    },
    {
      "inputs": [],
      "name": "dollar",
      "outputs": [
        {
          "internalType": "address",
          "name": "",
          "type": "address"
        }
      ],
      "stateMutability": "view",
      "type": "function",
      "constant": true
    },
    {
      "inputs": [],
      "name": "isOperator",
      "outputs": [
        {
          "internalType": "bool",
          "name": "",
          "type": "bool"
        }
      ],
      "stateMutability": "view",
      "type": "function",
      "constant": true
    },
    {
      "inputs": [],
      "name": "operator",
      "outputs": [
        {
          "internalType": "address",
          "name": "",
          "type": "address"
        }
      ],
      "stateMutability": "view",
      "type": "function",
      "constant": true
    },
    {
      "inputs": [],
      "name": "oracleBusdUsd",
      "outputs": [
        {
          "internalType": "address",
          "name": "",
          "type": "address"
        }
      ],
      "stateMutability": "view",
      "type": "function",
      "constant": true
    },
    {
      "inputs": [],
      "name": "oracleDollarBusd",
      "outputs": [
        {
          "internalType": "address",
          "name": "",
          "type": "address"
        }
      ],
      "stateMutability": "view",
      "type": "function",
      "constant": true
    },
    {
      "inputs": [],
      "name": "owner",
      "outputs": [
        {
          "internalType": "address",
          "name": "",
          "type": "address"
        }
      ],
      "stateMutability": "view",
      "type": "function",
      "constant": true
    },
    {
      "inputs": [],
      "name": "renounceOwnership",
      "outputs": [],
      "stateMutability": "nonpayable",
      "type": "function"
    },
    {
      "inputs": [
        {
          "internalType": "address",
          "name": "newOperator_",
          "type": "address"
        }
      ],
      "name": "transferOperator",
      "outputs": [],
      "stateMutability": "nonpayable",
      "type": "function"
    },
    {
      "inputs": [
        {
          "internalType": "address",
          "name": "newOwner",
          "type": "address"
        }
      ],
      "name": "transferOwnership",
      "outputs": [],
      "stateMutability": "nonpayable",
      "type": "function"
    },
    {
      "inputs": [],
      "name": "consult",
      "outputs": [
        {
          "internalType": "uint256",
          "name": "",
          "type": "uint256"
        }
      ],
      "stateMutability": "view",
      "type": "function",
      "constant": true
    },
    {
      "inputs": [
        {
          "internalType": "address",
          "name": "_oracleBusdUsd",
          "type": "address"
        }
      ],
      "name": "setOracleBusdUsd",
      "outputs": [],
      "stateMutability": "nonpayable",
      "type": "function"
    },
    {
      "inputs": [
        {
          "internalType": "address",
          "name": "_oracleDollarBusd",
          "type": "address"
        }
      ],
      "name": "setOracleDollarBusd",
      "outputs": [],
      "stateMutability": "nonpayable",
      "type": "function"
    }
  ],
  "bytecode": "0x608060405234801561001057600080fd5b506040516109cc3803806109cc83398101604081905261002f9161010e565b600080546001600160a01b031916339081178255604051909182917f8be0079c531659141344cd1fd0a4f28419497f9722a3daafe3b4186f6b6457e0908290a350600180546001600160a01b031916339081179091556040516000907f74da04524d50c64947f5dd5381ef1a4dca5cba8ed1d816243f9e48aa0b5617ed908290a3600480546001600160a01b039485166001600160a01b031991821617909155600380549285169282169290921790915560028054929093169116179055610150565b80516001600160a01b038116811461010957600080fd5b919050565b600080600060608486031215610122578283fd5b61012b846100f2565b9250610139602085016100f2565b9150610147604085016100f2565b90509250925092565b61086d8061015f6000396000f3fe608060405234801561001057600080fd5b50600436106100d45760003560e01c80637eeda70311610081578063a77dbbf91161005b578063a77dbbf9146101a2578063c86fac79146101b5578063f2fde38b146101c8576100d4565b80637eeda70314610168578063893641a11461017e5780638da5cb5b14610191576100d4565b806351adeb57116100b257806351adeb571461013c578063570ca7351461014f578063715018a614610160576100d4565b806329605e77146100d9578063296c9770146100ee5780634456eda21461011e575b600080fd5b6100ec6100e73660046107ad565b6101db565b005b600354610101906001600160a01b031681565b6040516001600160a01b0390911681526020015b60405180910390f35b6001546001600160a01b031633146040519015158152602001610115565b600454610101906001600160a01b031681565b6001546001600160a01b0316610101565b6100ec610246565b6101706102ea565b604051908152602001610115565b6100ec61018c3660046107ad565b61043e565b6000546001600160a01b0316610101565b6100ec6101b03660046107ad565b6104c6565b600254610101906001600160a01b031681565b6100ec6101d63660046107ad565b61054e565b6000546001600160a01b0316331461023a5760405162461bcd60e51b815260206004820181905260248201527f4f776e61626c653a2063616c6c6572206973206e6f7420746865206f776e657260448201526064015b60405180910390fd5b6102438161067f565b50565b6000546001600160a01b031633146102a05760405162461bcd60e51b815260206004820181905260248201527f4f776e61626c653a2063616c6c6572206973206e6f7420746865206f776e65726044820152606401610231565b600080546040516001600160a01b03909116907f8be0079c531659141344cd1fd0a4f28419497f9722a3daafe3b4186f6b6457e0908390a3600080546001600160a01b0319169055565b600080600360009054906101000a90046001600160a01b03166001600160a01b0316637eeda7036040518163ffffffff1660e01b815260040160206040518083038186803b15801561033b57600080fd5b505afa15801561034f573d6000803e3d6000fd5b505050506040513d601f19601f8201168201806040525081019061037391906107d4565b600254600480546040517f3ddac9530000000000000000000000000000000000000000000000000000000081526001600160a01b0391821692810192909252620f4240602483015292935060009290911690633ddac9539060440160206040518083038186803b1580156103e657600080fd5b505afa1580156103fa573d6000803e3d6000fd5b505050506040513d601f19601f8201168201806040525081019061041e91906107d4565b9050610437620f42406104318484610753565b9061079a565b9250505090565b6001546001600160a01b031633146104a45760405162461bcd60e51b8152602060048201526024808201527f6f70657261746f723a2063616c6c6572206973206e6f7420746865206f70657260448201526330ba37b960e11b6064820152608401610231565b600280546001600160a01b0319166001600160a01b0392909216919091179055565b6001546001600160a01b0316331461052c5760405162461bcd60e51b8152602060048201526024808201527f6f70657261746f723a2063616c6c6572206973206e6f7420746865206f70657260448201526330ba37b960e11b6064820152608401610231565b600380546001600160a01b0319166001600160a01b0392909216919091179055565b6000546001600160a01b031633146105a85760405162461bcd60e51b815260206004820181905260248201527f4f776e61626c653a2063616c6c6572206973206e6f7420746865206f776e65726044820152606401610231565b6001600160a01b0381166106245760405162461bcd60e51b815260206004820152602660248201527f4f776e61626c653a206e6577206f776e657220697320746865207a65726f206160448201527f64647265737300000000000000000000000000000000000000000000000000006064820152608401610231565b600080546040516001600160a01b03808516939216917f8be0079c531659141344cd1fd0a4f28419497f9722a3daafe3b4186f6b6457e091a3600080546001600160a01b0319166001600160a01b0392909216919091179055565b6001600160a01b0381166106fb5760405162461bcd60e51b815260206004820152602d60248201527f6f70657261746f723a207a65726f206164647265737320676976656e20666f7260448201527f206e6577206f70657261746f72000000000000000000000000000000000000006064820152608401610231565b6040516001600160a01b038216906000907f74da04524d50c64947f5dd5381ef1a4dca5cba8ed1d816243f9e48aa0b5617ed908290a3600180546001600160a01b0319166001600160a01b0392909216919091179055565b60008261076257506000610794565b61076c828461080c565b90508161077984836107ec565b1461079457634e487b7160e01b600052600160045260246000fd5b92915050565b60006107a682846107ec565b9392505050565b6000602082840312156107be578081fd5b81356001600160a01b03811681146107a6578182fd5b6000602082840312156107e5578081fd5b5051919050565b60008261080757634e487b7160e01b81526012600452602481fd5b500490565b600081600019048311821515161561083257634e487b7160e01b81526011600452602481fd5b50029056fea26469706673582212206a17c6d8e0615e1edc8c2bd5d039b3c72c15bce9219d99bdd53bcb4e5eebf17264736f6c63430008030033",
  "immutableReferences": {},
  "source": "// SPDX-License-Identifier: MIT\r\n\r\npragma solidity ^0.8.0;\r\npragma experimental ABIEncoderV2;\r\n\r\nimport \"../chainLink/AggregatorV3Interface.sol\";\r\nimport \"../openZeppelin/SafeMath.sol\";\r\nimport \"../Operator.sol\";\r\nimport \"../interfaces/IOracle.sol\";\r\nimport \"../interfaces/IPairOracle.sol\";\r\n\r\ncontract DollarOracle is Operator, IOracle {\r\n    using SafeMath for uint256;\r\n    address public oracleDollarBusd;\r\n    address public oracleBusdUsd;\r\n    address public dollar;\r\n\r\n    uint256 private constant PRICE_PRECISION = 1e6;\r\n\r\n    constructor(\r\n        address _dollar,\r\n        address _oracleDollarBusd,\r\n        address _oracleBusdUsd\r\n    ){\r\n        dollar = _dollar;\r\n        oracleBusdUsd = _oracleBusdUsd;\r\n        oracleDollarBusd = _oracleDollarBusd;\r\n    }\r\n\r\n    function consult() external view override returns (uint256) {\r\n        uint256 _priceBusdUsd = IOracle(oracleBusdUsd).consult();\r\n        uint256 _priceDollarBusd = IPairOracle(oracleDollarBusd).consult(dollar, PRICE_PRECISION);\r\n        return _priceBusdUsd.mul(_priceDollarBusd).div(PRICE_PRECISION);\r\n    }\r\n\r\n    function setOracleBusdUsd(address _oracleBusdUsd) external onlyOperator {\r\n        oracleBusdUsd = _oracleBusdUsd;\r\n    }\r\n\r\n    function setOracleDollarBusd(address _oracleDollarBusd) external onlyOperator {\r\n        oracleDollarBusd = _oracleDollarBusd;\r\n    }\r\n}\r\n",
  "sourcePath": "C:/Users/PaulMuller/Documents/projects/project_AGO/contracts/oracle/DollarOracle.sol",
  "compiler": {
    "name": "solc",
    "version": "0.8.3+commit.8d00100c.Emscripten.clang"
  },
  "schemaVersion": "3.3.4",
  "updatedAt": "2021-04-20T19:02:36.037Z",
  "networkType": "ethereum",
  "devdoc": {
    "kind": "dev",
    "methods": {},
    "version": 1
  },
  "userdoc": {
    "kind": "user",
    "methods": {},
    "version": 1
  }
}