{
  "contractName": "Foundry",
  "abi": [
    {
      "anonymous": false,
      "inputs": [
        {
          "indexed": true,
          "internalType": "address",
          "name": "executor",
          "type": "address"
        },
        {
          "indexed": false,
          "internalType": "uint256",
          "name": "at",
          "type": "uint256"
        }
      ],
      "name": "Initialized",
      "type": "event"
    },
    {
      "anonymous": false,
      "inputs": [
        {
          "indexed": true,
          "internalType": "address",
          "name": "previousOperator",
          "type": "address"
        },
        {
          "indexed": true,
          "internalType": "address",
          "name": "newOperator",
          "type": "address"
        }
      ],
      "name": "OperatorTransferred",
      "type": "event"
    },
    {
      "anonymous": false,
      "inputs": [
        {
          "indexed": true,
          "internalType": "address",
          "name": "previousOwner",
          "type": "address"
        },
        {
          "indexed": true,
          "internalType": "address",
          "name": "newOwner",
          "type": "address"
        }
      ],
      "name": "OwnershipTransferred",
      "type": "event"
    },
    {
      "anonymous": false,
      "inputs": [
        {
          "indexed": true,
          "internalType": "address",
          "name": "user",
          "type": "address"
        },
        {
          "indexed": false,
          "internalType": "uint256",
          "name": "reward",
          "type": "uint256"
        }
      ],
      "name": "RewardAdded",
      "type": "event"
    },
    {
      "anonymous": false,
      "inputs": [
        {
          "indexed": true,
          "internalType": "address",
          "name": "user",
          "type": "address"
        },
        {
          "indexed": false,
          "internalType": "uint256",
          "name": "reward",
          "type": "uint256"
        }
      ],
      "name": "RewardPaid",
      "type": "event"
    },
    {
      "anonymous": false,
      "inputs": [
        {
          "indexed": true,
          "internalType": "address",
          "name": "user",
          "type": "address"
        },
        {
          "indexed": false,
          "internalType": "uint256",
          "name": "amount",
          "type": "uint256"
        }
      ],
      "name": "Staked",
      "type": "event"
    },
    {
      "anonymous": false,
      "inputs": [
        {
          "indexed": true,
          "internalType": "address",
          "name": "user",
          "type": "address"
        },
        {
          "indexed": false,
          "internalType": "uint256",
          "name": "amount",
          "type": "uint256"
        }
      ],
      "name": "Withdrawn",
      "type": "event"
    },
    {
      "inputs": [
        {
          "internalType": "address",
          "name": "account",
          "type": "address"
        }
      ],
      "name": "balanceOf",
      "outputs": [
        {
          "internalType": "uint256",
          "name": "",
          "type": "uint256"
        }
      ],
      "stateMutability": "view",
      "type": "function"
    },
    {
      "inputs": [
        {
          "internalType": "address",
          "name": "",
          "type": "address"
        }
      ],
      "name": "blacksmiths",
      "outputs": [
        {
          "internalType": "uint256",
          "name": "lastSnapshotIndex",
          "type": "uint256"
        },
        {
          "internalType": "uint256",
          "name": "rewardEarned",
          "type": "uint256"
        },
        {
          "internalType": "uint256",
          "name": "epochTimerStart",
          "type": "uint256"
        }
      ],
      "stateMutability": "view",
      "type": "function"
    },
    {
      "inputs": [],
      "name": "collateral",
      "outputs": [
        {
          "internalType": "address",
          "name": "",
          "type": "address"
        }
      ],
      "stateMutability": "view",
      "type": "function"
    },
    {
      "inputs": [
        {
          "internalType": "uint256",
          "name": "",
          "type": "uint256"
        }
      ],
      "name": "foundryHistory",
      "outputs": [
        {
          "internalType": "uint256",
          "name": "time",
          "type": "uint256"
        },
        {
          "internalType": "uint256",
          "name": "rewardReceived",
          "type": "uint256"
        },
        {
          "internalType": "uint256",
          "name": "rewardPerShare",
          "type": "uint256"
        }
      ],
      "stateMutability": "view",
      "type": "function"
    },
    {
      "inputs": [],
      "name": "initialized",
      "outputs": [
        {
          "internalType": "bool",
          "name": "",
          "type": "bool"
        }
      ],
      "stateMutability": "view",
      "type": "function"
    },
    {
      "inputs": [],
      "name": "isOperator",
      "outputs": [
        {
          "internalType": "bool",
          "name": "",
          "type": "bool"
        }
      ],
      "stateMutability": "view",
      "type": "function"
    },
    {
      "inputs": [],
      "name": "operator",
      "outputs": [
        {
          "internalType": "address",
          "name": "",
          "type": "address"
        }
      ],
      "stateMutability": "view",
      "type": "function"
    },
    {
      "inputs": [],
      "name": "oracle",
      "outputs": [
        {
          "internalType": "address",
          "name": "",
          "type": "address"
        }
      ],
      "stateMutability": "view",
      "type": "function"
    },
    {
      "inputs": [],
      "name": "owner",
      "outputs": [
        {
          "internalType": "address",
          "name": "",
          "type": "address"
        }
      ],
      "stateMutability": "view",
      "type": "function"
    },
    {
      "inputs": [],
      "name": "renounceOwnership",
      "outputs": [],
      "stateMutability": "nonpayable",
      "type": "function"
    },
    {
      "inputs": [],
      "name": "share",
      "outputs": [
        {
          "internalType": "address",
          "name": "",
          "type": "address"
        }
      ],
      "stateMutability": "view",
      "type": "function"
    },
    {
      "inputs": [],
      "name": "totalSupply",
      "outputs": [
        {
          "internalType": "uint256",
          "name": "",
          "type": "uint256"
        }
      ],
      "stateMutability": "view",
      "type": "function"
    },
    {
      "inputs": [
        {
          "internalType": "address",
          "name": "newOperator_",
          "type": "address"
        }
      ],
      "name": "transferOperator",
      "outputs": [],
      "stateMutability": "nonpayable",
      "type": "function"
    },
    {
      "inputs": [
        {
          "internalType": "address",
          "name": "newOwner",
          "type": "address"
        }
      ],
      "name": "transferOwnership",
      "outputs": [],
      "stateMutability": "nonpayable",
      "type": "function"
    },
    {
      "inputs": [],
      "name": "treasury",
      "outputs": [
        {
          "internalType": "address",
          "name": "",
          "type": "address"
        }
      ],
      "stateMutability": "view",
      "type": "function"
    },
    {
      "inputs": [],
      "name": "withdrawLockupEpochs",
      "outputs": [
        {
          "internalType": "uint256",
          "name": "",
          "type": "uint256"
        }
      ],
      "stateMutability": "view",
      "type": "function"
    },
    {
      "inputs": [
        {
          "internalType": "address",
          "name": "_collateral",
          "type": "address"
        },
        {
          "internalType": "address",
          "name": "_share",
          "type": "address"
        },
        {
          "internalType": "address",
          "name": "_treasury",
          "type": "address"
        }
      ],
      "name": "initialize",
      "outputs": [],
      "stateMutability": "nonpayable",
      "type": "function"
    },
    {
      "inputs": [
        {
          "internalType": "uint256",
          "name": "_withdrawLockupEpochs",
          "type": "uint256"
        }
      ],
      "name": "setLockUp",
      "outputs": [],
      "stateMutability": "nonpayable",
      "type": "function"
    },
    {
      "inputs": [
        {
          "internalType": "address",
          "name": "_oracle",
          "type": "address"
        }
      ],
      "name": "setOracle",
      "outputs": [],
      "stateMutability": "nonpayable",
      "type": "function"
    },
    {
      "inputs": [],
      "name": "info",
      "outputs": [
        {
          "internalType": "uint256",
          "name": "",
          "type": "uint256"
        },
        {
          "internalType": "uint256",
          "name": "",
          "type": "uint256"
        },
        {
          "internalType": "uint256",
          "name": "",
          "type": "uint256"
        },
        {
          "internalType": "uint256",
          "name": "",
          "type": "uint256"
        },
        {
          "internalType": "uint256",
          "name": "",
          "type": "uint256"
        },
        {
          "internalType": "uint256",
          "name": "",
          "type": "uint256"
        }
      ],
      "stateMutability": "view",
      "type": "function"
    },
    {
      "inputs": [],
      "name": "latestSnapshotIndex",
      "outputs": [
        {
          "internalType": "uint256",
          "name": "",
          "type": "uint256"
        }
      ],
      "stateMutability": "view",
      "type": "function"
    },
    {
      "inputs": [
        {
          "internalType": "address",
          "name": "blacksmith",
          "type": "address"
        }
      ],
      "name": "getLastSnapshotIndexOf",
      "outputs": [
        {
          "internalType": "uint256",
          "name": "",
          "type": "uint256"
        }
      ],
      "stateMutability": "view",
      "type": "function"
    },
    {
      "inputs": [
        {
          "internalType": "address",
          "name": "blacksmith",
          "type": "address"
        }
      ],
      "name": "canWithdraw",
      "outputs": [
        {
          "internalType": "bool",
          "name": "",
          "type": "bool"
        }
      ],
      "stateMutability": "view",
      "type": "function"
    },
    {
      "inputs": [],
      "name": "epoch",
      "outputs": [
        {
          "internalType": "uint256",
          "name": "",
          "type": "uint256"
        }
      ],
      "stateMutability": "view",
      "type": "function"
    },
    {
      "inputs": [],
      "name": "nextEpochPoint",
      "outputs": [
        {
          "internalType": "uint256",
          "name": "",
          "type": "uint256"
        }
      ],
      "stateMutability": "view",
      "type": "function"
    },
    {
      "inputs": [],
      "name": "rewardPerShare",
      "outputs": [
        {
          "internalType": "uint256",
          "name": "",
          "type": "uint256"
        }
      ],
      "stateMutability": "view",
      "type": "function"
    },
    {
      "inputs": [
        {
          "internalType": "address",
          "name": "blacksmith",
          "type": "address"
        }
      ],
      "name": "earned",
      "outputs": [
        {
          "internalType": "uint256",
          "name": "",
          "type": "uint256"
        }
      ],
      "stateMutability": "view",
      "type": "function"
    },
    {
      "inputs": [
        {
          "internalType": "uint256",
          "name": "amount",
          "type": "uint256"
        }
      ],
      "name": "stake",
      "outputs": [],
      "stateMutability": "nonpayable",
      "type": "function"
    },
    {
      "inputs": [
        {
          "internalType": "uint256",
          "name": "amount",
          "type": "uint256"
        }
      ],
      "name": "withdraw",
      "outputs": [],
      "stateMutability": "nonpayable",
      "type": "function"
    },
    {
      "inputs": [],
      "name": "exit",
      "outputs": [],
      "stateMutability": "nonpayable",
      "type": "function"
    },
    {
      "inputs": [],
      "name": "claimReward",
      "outputs": [],
      "stateMutability": "nonpayable",
      "type": "function"
    },
    {
      "inputs": [
        {
          "internalType": "uint256",
          "name": "amount",
          "type": "uint256"
        }
      ],
      "name": "allocateSeigniorage",
      "outputs": [],
      "stateMutability": "nonpayable",
      "type": "function"
    }
  ],
  "bytecode": "0x608060405260016003556005805460ff60a01b1916905534801561002257600080fd5b50600480546001600160a01b0319163390811790915560405181906000907f8be0079c531659141344cd1fd0a4f28419497f9722a3daafe3b4186f6b6457e0908290a350600580546001600160a01b031916339081179091556040516000907f74da04524d50c64947f5dd5381ef1a4dca5cba8ed1d816243f9e48aa0b5617ed908290a3611da6806100b56000396000f3fe608060405234801561001057600080fd5b50600436106101ef5760003560e01c8063715018a61161010f578063a694fc3a116100a2578063c5967c2611610071578063c5967c2614610477578063d8dfeb451461047f578063e9fad8ee14610492578063f2fde38b1461049a57600080fd5b8063a694fc3a14610436578063a8d5fd6514610449578063b88a802f1461045c578063c0c53b8b1461046457600080fd5b80638ab775e2116100de5780638ab775e2146103f75780638da5cb5b1461040a578063900cf0cf1461041b57806397ffe1d71461042357600080fd5b8063715018a6146103b65780637adbf973146103be5780637dc0d1d0146103d15780637e0a883c146103e457600080fd5b8063370158ea11610187578063570ca73511610156578063570ca7351461032c57806361d027b31461035157806370a0823114610364578063714b46581461038d57600080fd5b8063370158ea146102d45780633f9e3f04146103095780634456eda214610311578063446a2ec81461032457600080fd5b80631e85cd65116101c35780631e85cd651461025957806329605e77146102625780632df6b92e146102775780632e1a7d4d146102c157600080fd5b80628cc262146101f4578063158ef93e1461021a57806318160ddd1461023e57806319262d3014610246575b600080fd5b610207610202366004611c04565b6104ad565b6040519081526020015b60405180910390f35b60055461022e90600160a01b900460ff1681565b6040519015158152602001610211565b600154610207565b61022e610254366004611c04565b61053e565b610207600b5481565b610275610270366004611c04565b6105eb565b005b6102a6610285366004611c04565b60096020526000908152604090208054600182015460029092015490919083565b60408051938452602084019290925290820152606001610211565b6102756102cf366004611c87565b610656565b6102dc610948565b604080519687526020870195909552938501929092526060840152608083015260a082015260c001610211565b610207610a8f565b6005546001600160a01b0316331461022e565b610207610aa5565b6005546001600160a01b03165b6040516001600160a01b039091168152602001610211565b600754610339906001600160a01b031681565b610207610372366004611c04565b6001600160a01b031660009081526002602052604090205490565b61020761039b366004611c04565b6001600160a01b031660009081526009602052604090205490565b610275610ab8565b6102756103cc366004611c04565b610b5c565b600854610339906001600160a01b031681565b6102a66103f2366004611c87565b610be4565b610275610405366004611c87565b610c17565b6004546001600160a01b0316610339565b610207610cf9565b610275610431366004611c87565b610d76565b610275610444366004611c87565b610ffa565b600054610339906001600160a01b031681565b6102756111ce565b610275610472366004611c1e565b611370565b610207611518565b600654610339906001600160a01b031681565b610275611576565b6102756104a8366004611c04565b611591565b6000806104b86116c3565b60400151905060006104c98461174b565b6040908101516001600160a01b03861660009081526009602052919091206001015490915061053690610530670de0b6b3a764000061052a61050b87876117ec565b6001600160a01b038a166000908152600260205260409020549061181f565b90611860565b9061186c565b949350505050565b6007546040805163900cf0cf60e01b815290516000926001600160a01b03169163900cf0cf916004808301926020929190829003018186803b15801561058357600080fd5b505afa158015610597573d6000803e3d6000fd5b505050506040513d601f19601f820116820180604052508101906105bb9190611c9f565b600b546001600160a01b0384166000908152600960205260409020600201546105e39161186c565b111592915050565b6004546001600160a01b0316331461064a5760405162461bcd60e51b815260206004820181905260248201527f4f776e61626c653a2063616c6c6572206973206e6f7420746865206f776e657260448201526064015b60405180910390fd5b61065381611898565b50565b6001600360008282546106699190611cec565b909155505060035433600090815260026020526040812054116106f45760405162461bcd60e51b815260206004820152602660248201527f466f756e6472793a2054686520626c61636b736d69746820646f6573206e6f7460448201527f20657869737400000000000000000000000000000000000000000000000000006064820152608401610641565b338015610785576001600160a01b0381166000908152600960209081526040918290208251606081018452815481526001820154928101929092526002015491810191909152610743826104ad565b6020820152610750610a8f565b81526001600160a01b038216600090815260096020908152604091829020835181559083015160018201559101516002909101555b600083116107d55760405162461bcd60e51b815260206004820152601a60248201527f466f756e6472793a2043616e6e6f7420776974686472617720300000000000006044820152606401610641565b600760009054906101000a90046001600160a01b03166001600160a01b031663900cf0cf6040518163ffffffff1660e01b815260040160206040518083038186803b15801561082357600080fd5b505afa158015610837573d6000803e3d6000fd5b505050506040513d601f19601f8201168201806040525081019061085b9190611c9f565b600b543360009081526009602052604090206002015461087a9161186c565b11156108ee5760405162461bcd60e51b815260206004820152602160248201527f466f756e6472793a207374696c6c20696e207769746864726177206c6f636b7560448201527f70000000000000000000000000000000000000000000000000000000000000006064820152608401610641565b6108f66111ce565b6108ff8361196c565b60405183815233907f7084f5476618d8e60b11ef0d7d3f06914655adb8793e28ff7f018d4c76d505d5906020015b60405180910390a250600354811461094457600080fd5b5050565b600080600080600080600080600080600760009054906101000a90046001600160a01b03166001600160a01b0316631f1b8a8c6040518163ffffffff1660e01b815260040160806040518083038186803b1580156109a557600080fd5b505afa1580156109b9573d6000803e3d6000fd5b505050506040513d601f19601f820116820180604052508101906109dd9190611cb7565b9350935093509350838383836109f260015490565b600860009054906101000a90046001600160a01b03166001600160a01b0316637eeda7036040518163ffffffff1660e01b815260040160206040518083038186803b158015610a4057600080fd5b505afa158015610a54573d6000803e3d6000fd5b505050506040513d601f19601f82011682018060405250810190610a789190611c9f565b949f939e50919c509a509850909650945050505050565b600a54600090610aa09060016117ec565b905090565b6000610aaf6116c3565b60400151905090565b6004546001600160a01b03163314610b125760405162461bcd60e51b815260206004820181905260248201527f4f776e61626c653a2063616c6c6572206973206e6f7420746865206f776e65726044820152606401610641565b6004546040516000916001600160a01b0316907f8be0079c531659141344cd1fd0a4f28419497f9722a3daafe3b4186f6b6457e0908390a3600480546001600160a01b0319169055565b6005546001600160a01b03163314610bc25760405162461bcd60e51b8152602060048201526024808201527f6f70657261746f723a2063616c6c6572206973206e6f7420746865206f70657260448201526330ba37b960e11b6064820152608401610641565b600880546001600160a01b0319166001600160a01b0392909216919091179055565b600a8181548110610bf457600080fd5b600091825260209091206003909102018054600182015460029092015490925083565b6005546001600160a01b03163314610c7d5760405162461bcd60e51b8152602060048201526024808201527f6f70657261746f723a2063616c6c6572206973206e6f7420746865206f70657260448201526330ba37b960e11b6064820152608401610641565b6038811115610cf45760405162461bcd60e51b815260206004820152602360248201527f5f77697468647261774c6f636b757045706f6368733a206f7574206f6620726160448201527f6e676500000000000000000000000000000000000000000000000000000000006064820152608401610641565b600b55565b6007546040805163900cf0cf60e01b815290516000926001600160a01b03169163900cf0cf916004808301926020929190829003018186803b158015610d3e57600080fd5b505afa158015610d52573d6000803e3d6000fd5b505050506040513d601f19601f82011682018060405250810190610aa09190611c9f565b600160036000828254610d899190611cec565b90915550506003546007546001600160a01b03163314610deb5760405162461bcd60e51b815260206004820152600960248201527f21747265617375727900000000000000000000000000000000000000000000006044820152606401610641565b60008211610e3b5760405162461bcd60e51b815260206004820152601a60248201527f466f756e6472793a2043616e6e6f7420616c6c6f6361746520300000000000006044820152606401610641565b6000610e4660015490565b11610eb95760405162461bcd60e51b815260206004820152602e60248201527f466f756e6472793a2043616e6e6f7420616c6c6f63617465207768656e20746f60448201527f74616c537570706c7920697320300000000000000000000000000000000000006064820152608401610641565b6000610ec36116c3565b6040015190506000610ef3610eec610eda60015490565b61052a87670de0b6b3a764000061181f565b839061186c565b6040805160608101825243815260208101878152918101838152600a805460018101825560009190915282517fc65a7bb8d6351c1cf70c95a316cc6a92839c986682d98bc35f958f4883f9d2a860039092029182015592517fc65a7bb8d6351c1cf70c95a316cc6a92839c986682d98bc35f958f4883f9d2a9840155517fc65a7bb8d6351c1cf70c95a316cc6a92839c986682d98bc35f958f4883f9d2aa9092019190915560065491925090610fb4906001600160a01b0316333088611a37565b60405185815233907fac24935fd910bc682b5ccb1a07b718cadf8cf2f6d1404c4f3ddc3662dae40e299060200160405180910390a2505050600354811461094457600080fd5b60016003600082825461100d9190611cec565b90915550506003543380156110a6576001600160a01b0381166000908152600960209081526040918290208251606081018452815481526001820154928101929092526002015491810191909152611064826104ad565b6020820152611071610a8f565b81526001600160a01b038216600090815260096020908152604091829020835181559083015160018201559101516002909101555b600083116110f65760405162461bcd60e51b815260206004820152601760248201527f466f756e6472793a2043616e6e6f74207374616b6520300000000000000000006044820152606401610641565b6110ff83611ae9565b600760009054906101000a90046001600160a01b03166001600160a01b031663900cf0cf6040518163ffffffff1660e01b815260040160206040518083038186803b15801561114d57600080fd5b505afa158015611161573d6000803e3d6000fd5b505050506040513d601f19601f820116820180604052508101906111859190611c9f565b33600081815260096020526040908190206002019290925590517f9e71bc8eea02a63969f509818f2dafb9254532904319f9dbda79b67bd34a5f3d9061092d9086815260200190565b33801561125f576001600160a01b038116600090815260096020908152604091829020825160608101845281548152600182015492810192909252600201549181019190915261121d826104ad565b602082015261122a610a8f565b81526001600160a01b038216600090815260096020908152604091829020835181559083015160018201559101516002909101555b33600090815260096020526040902060010154801561094457600760009054906101000a90046001600160a01b03166001600160a01b031663900cf0cf6040518163ffffffff1660e01b815260040160206040518083038186803b1580156112c657600080fd5b505afa1580156112da573d6000803e3d6000fd5b505050506040513d601f19601f820116820180604052508101906112fe9190611c9f565b3360008181526009602052604081206002810193909355600190920191909155600654611337916001600160a01b039091169083611b3f565b60405181815233907fe2403640ba68fed3a2f88b7557551d1993f84b99bb10ff833f0cf8db0c5e04869060200160405180910390a25050565b600554600160a01b900460ff16156113ca5760405162461bcd60e51b815260206004820152601c60248201527f466f756e6472793a20616c726561647920696e697469616c697a6564000000006044820152606401610641565b600680546001600160a01b038581166001600160a01b03199283161790925560008054858416908316178155600780549385169390921692909217905560408051606081018252438082526020808301858152838501868152600a80546001810182559752845160039097027fc65a7bb8d6351c1cf70c95a316cc6a92839c986682d98bc35f958f4883f9d2a881019790975590517fc65a7bb8d6351c1cf70c95a316cc6a92839c986682d98bc35f958f4883f9d2a9870155517fc65a7bb8d6351c1cf70c95a316cc6a92839c986682d98bc35f958f4883f9d2aa909501949094556008600b55600580547fffffffffffffffffffffff00ffffffffffffffffffffffffffffffffffffffff16600160a01b17905591519182529133917f25ff68dd81b34665b5ba7e553ee5511bf6812e12adb4a7e2c0d9e26b3099ce79910160405180910390a250505050565b600754604080517fc5967c2600000000000000000000000000000000000000000000000000000000815290516000926001600160a01b03169163c5967c26916004808301926020929190829003018186803b158015610d3e57600080fd5b3360009081526002602052604090205461158f90610656565b565b6004546001600160a01b031633146115eb5760405162461bcd60e51b815260206004820181905260248201527f4f776e61626c653a2063616c6c6572206973206e6f7420746865206f776e65726044820152606401610641565b6001600160a01b0381166116675760405162461bcd60e51b815260206004820152602660248201527f4f776e61626c653a206e6577206f776e657220697320746865207a65726f206160448201527f64647265737300000000000000000000000000000000000000000000000000006064820152608401610641565b6004546040516001600160a01b038084169216907f8be0079c531659141344cd1fd0a4f28419497f9722a3daafe3b4186f6b6457e090600090a3600480546001600160a01b0319166001600160a01b0392909216919091179055565b6116e760405180606001604052806000815260200160008152602001600081525090565b600a6116f1610a8f565b8154811061170f57634e487b7160e01b600052603260045260246000fd5b90600052602060002090600302016040518060600160405290816000820154815260200160018201548152602001600282015481525050905090565b61176f60405180606001604052806000815260200160008152602001600081525090565b600a611790836001600160a01b031660009081526009602052604090205490565b815481106117ae57634e487b7160e01b600052603260045260246000fd5b906000526020600020906003020160405180606001604052908160008201548152602001600182015481526020016002820154815250509050919050565b60008282111561180c57634e487b7160e01b600052600160045260246000fd5b6118168284611d43565b90505b92915050565b60008261182e57506000611819565b6118388284611d24565b9050816118458483611d04565b1461181957634e487b7160e01b600052600160045260246000fd5b60006118168284611d04565b60006118788284611cec565b90508281101561181957634e487b7160e01b600052600160045260246000fd5b6001600160a01b0381166119145760405162461bcd60e51b815260206004820152602d60248201527f6f70657261746f723a207a65726f206164647265737320676976656e20666f7260448201527f206e6577206f70657261746f72000000000000000000000000000000000000006064820152608401610641565b6040516001600160a01b038216906000907f74da04524d50c64947f5dd5381ef1a4dca5cba8ed1d816243f9e48aa0b5617ed908290a3600580546001600160a01b0319166001600160a01b0392909216919091179055565b33600090815260026020526040902054818110156119f25760405162461bcd60e51b815260206004820152603660248201527f426f617264726f6f6d3a2077697468647261772072657175657374206772656160448201527f746572207468616e207374616b656420616d6f756e74000000000000000000006064820152608401610641565b6001546119ff90836117ec565b600155611a0c81836117ec565b336000818152600260205260408120929092559054610944916001600160a01b039091169084611b3f565b6040517f23b872dd0000000000000000000000000000000000000000000000000000000081526001600160a01b0384811660048301528381166024830152604482018390528516906323b872dd90606401602060405180830381600087803b158015611aa257600080fd5b505af1158015611ab6573d6000803e3d6000fd5b505050506040513d601f19601f82011682018060405250810190611ada9190611c60565b611ae357600080fd5b50505050565b600154611af6908261186c565b60015533600090815260026020526040902054611b13908261186c565b336000818152600260205260408120929092559054610653916001600160a01b03909116903084611a37565b6040517fa9059cbb0000000000000000000000000000000000000000000000000000000081526001600160a01b0383811660048301526024820183905284169063a9059cbb90604401602060405180830381600087803b158015611ba257600080fd5b505af1158015611bb6573d6000803e3d6000fd5b505050506040513d601f19601f82011682018060405250810190611bda9190611c60565b611be357600080fd5b505050565b80356001600160a01b0381168114611bff57600080fd5b919050565b600060208284031215611c15578081fd5b61181682611be8565b600080600060608486031215611c32578182fd5b611c3b84611be8565b9250611c4960208501611be8565b9150611c5760408501611be8565b90509250925092565b600060208284031215611c71578081fd5b81518015158114611c80578182fd5b9392505050565b600060208284031215611c98578081fd5b5035919050565b600060208284031215611cb0578081fd5b5051919050565b60008060008060808587031215611ccc578081fd5b505082516020840151604085015160609095015191969095509092509050565b60008219821115611cff57611cff611d5a565b500190565b600082611d1f57634e487b7160e01b81526012600452602481fd5b500490565b6000816000190483118215151615611d3e57611d3e611d5a565b500290565b600082821015611d5557611d55611d5a565b500390565b634e487b7160e01b600052601160045260246000fdfea264697066735822122044fa9e9bec3c86e428fd3ac6e4015825d95f0db7f27ec9015748cb06dabf4fc964736f6c63430008040033",
  "immutableReferences": {},
  "source": "// SPDX-License-Identifier: MIT\r\n\r\npragma solidity ^0.8.0;\r\npragma experimental ABIEncoderV2;\r\n\r\nimport \"./openZeppelin/IERC20.sol\";\r\nimport \"./openZeppelin/SafeERC20.sol\";\r\nimport \"./openZeppelin/ReentrancyGuard.sol\";\r\nimport \"./openZeppelin/Address.sol\";\r\n\r\n\r\nimport \"./interfaces/ITreasury.sol\";\r\nimport \"./interfaces/IOracle.sol\";\r\nimport \"./Operator.sol\";\r\n\r\ncontract ShareWrapper {\r\n    using SafeMath for uint256;\r\n    using SafeERC20 for IERC20;\r\n\r\n    address public share;\r\n\r\n    uint256 private _totalSupply;\r\n    mapping(address => uint256) private _balances;\r\n\r\n    function totalSupply() public view returns (uint256) {\r\n        return _totalSupply;\r\n    }\r\n\r\n    function balanceOf(address account) public view returns (uint256) {\r\n        return _balances[account];\r\n    }\r\n\r\n    function stake(uint256 amount) public virtual {\r\n        _totalSupply = _totalSupply.add(amount);\r\n        _balances[msg.sender] = _balances[msg.sender].add(amount);\r\n        IERC20(share).safeTransferFrom(msg.sender, address(this), amount);\r\n    }\r\n\r\n    function withdraw(uint256 amount) public virtual {\r\n        uint256 blacksmithShare = _balances[msg.sender];\r\n        require(blacksmithShare >= amount, \"Boardroom: withdraw request greater than staked amount\");\r\n        _totalSupply = _totalSupply.sub(amount);\r\n        _balances[msg.sender] = blacksmithShare.sub(amount);\r\n        IERC20(share).safeTransfer(msg.sender, amount);\r\n    }\r\n}\r\n\r\ncontract Foundry is ShareWrapper, ReentrancyGuard, Operator {\r\n    using SafeERC20 for IERC20;\r\n    using Address for address;\r\n    using SafeMath for uint256;\r\n\r\n    /* ========== DATA STRUCTURES ========== */\r\n\r\n    struct FoundryPosition {\r\n        uint256 lastSnapshotIndex;\r\n        uint256 rewardEarned;\r\n        uint256 epochTimerStart;\r\n    }\r\n\r\n    struct FoundrySnapshot {\r\n        uint256 time;\r\n        uint256 rewardReceived;\r\n        uint256 rewardPerShare;\r\n    }\r\n\r\n    /* ========== STATE VARIABLES ========== */\r\n\r\n    // flags\r\n    bool public initialized = false;\r\n\r\n    address public collateral;\r\n    address public treasury;\r\n    address public oracle; // oracle to get price of collateral\r\n\r\n    mapping(address => FoundryPosition) public blacksmiths;\r\n    FoundrySnapshot[] public foundryHistory;\r\n\r\n    uint256 public withdrawLockupEpochs;\r\n\r\n    /* ========== EVENTS ========== */\r\n\r\n    event Initialized(address indexed executor, uint256 at);\r\n    event Staked(address indexed user, uint256 amount);\r\n    event Withdrawn(address indexed user, uint256 amount);\r\n    event RewardPaid(address indexed user, uint256 reward);\r\n    event RewardAdded(address indexed user, uint256 reward);\r\n\r\n    /* ========== Modifiers =============== */\r\n    modifier blacksmithExists {\r\n        require(balanceOf(msg.sender) > 0, \"Foundry: The blacksmith does not exist\");\r\n        _;\r\n    }\r\n\r\n    modifier updateReward(address blacksmith) {\r\n        if (blacksmith != address(0)) {\r\n            FoundryPosition memory position = blacksmiths[blacksmith];\r\n            position.rewardEarned = earned(blacksmith);\r\n            position.lastSnapshotIndex = latestSnapshotIndex();\r\n            blacksmiths[blacksmith] = position;\r\n        }\r\n        _;\r\n    }\r\n\r\n    modifier notInitialized {\r\n        require(!initialized, \"Foundry: already initialized\");\r\n        _;\r\n    }\r\n\r\n    modifier onlyTreasury() {\r\n        require(msg.sender == address(treasury), \"!treasury\");\r\n        _;\r\n    }\r\n\r\n    /* ========== GOVERNANCE ========== */\r\n\r\n    function initialize(address _collateral, address _share, address _treasury) public notInitialized {\r\n        collateral = _collateral;\r\n        share = _share;\r\n        treasury = _treasury;\r\n\r\n        FoundrySnapshot memory genesisSnapshot = FoundrySnapshot({time: block.number, rewardReceived: 0, rewardPerShare: 0});\r\n        foundryHistory.push(genesisSnapshot);\r\n        withdrawLockupEpochs = 8; // Lock for 8 epochs before release withdraw\r\n        initialized = true;\r\n        emit Initialized(msg.sender, block.number);\r\n    }\r\n\r\n    function setLockUp(uint256 _withdrawLockupEpochs) external onlyOperator {\r\n        require(_withdrawLockupEpochs <= 56, \"_withdrawLockupEpochs: out of range\"); // <= 2 week\r\n        withdrawLockupEpochs = _withdrawLockupEpochs;\r\n    }\r\n\r\n    function setOracle(address _oracle) external onlyOperator {\r\n        oracle = _oracle;\r\n    }\r\n\r\n    /* ========== VIEW FUNCTIONS ========== */\r\n\r\n    function info() public view returns (uint256,uint256,uint256,uint256, uint256,uint256){\r\n        (uint256 _epoch, uint256 _nextEpochPoint, uint256 _epoch_length, uint256 _utilizationRatio) = ITreasury(treasury).epochInfo();\r\n        return (\r\n            _epoch, // current epoch\r\n            _nextEpochPoint, // next epoch point\r\n            _epoch_length, // epoch duration\r\n            _utilizationRatio, // utilization ratio\r\n            totalSupply(),\r\n            IOracle(oracle).consult() // collateral price\r\n        );\r\n    }\r\n\r\n    // =========== Snapshot getters\r\n\r\n    function latestSnapshotIndex() public view returns (uint256) {\r\n        return foundryHistory.length.sub(1);\r\n    }\r\n\r\n    function getLatestSnapshot() internal view returns (FoundrySnapshot memory) {\r\n        return foundryHistory[latestSnapshotIndex()];\r\n    }\r\n\r\n    function getLastSnapshotIndexOf(address blacksmith) public view returns (uint256) {\r\n        return blacksmiths[blacksmith].lastSnapshotIndex;\r\n    }\r\n\r\n    function getLastSnapshotOf(address blacksmith) internal view returns (FoundrySnapshot memory) {\r\n        return foundryHistory[getLastSnapshotIndexOf(blacksmith)];\r\n    }\r\n\r\n    function canWithdraw(address blacksmith) external view returns (bool) {\r\n        return blacksmiths[blacksmith].epochTimerStart.add(withdrawLockupEpochs) <= ITreasury(treasury).epoch();\r\n    }\r\n\r\n    function epoch() external view returns (uint256) {\r\n        return ITreasury(treasury).epoch();\r\n    }\r\n\r\n    function nextEpochPoint() external view returns (uint256) {\r\n        return ITreasury(treasury).nextEpochPoint();\r\n    }\r\n\r\n    // =========== blacksmith getters\r\n\r\n    function rewardPerShare() public view returns (uint256) {\r\n        return getLatestSnapshot().rewardPerShare;\r\n    }\r\n\r\n    function earned(address blacksmith) public view returns (uint256) {\r\n        uint256 latestRPS = getLatestSnapshot().rewardPerShare;\r\n        uint256 storedRPS = getLastSnapshotOf(blacksmith).rewardPerShare;\r\n\r\n        return balanceOf(blacksmith).mul(latestRPS.sub(storedRPS)).div(1e18).add(blacksmiths[blacksmith].rewardEarned);\r\n    }\r\n\r\n    /* ========== MUTATIVE FUNCTIONS ========== */\r\n\r\n    function stake(uint256 amount) public override nonReentrant updateReward(msg.sender) {\r\n        require(amount > 0, \"Foundry: Cannot stake 0\");\r\n        super.stake(amount);\r\n        blacksmiths[msg.sender].epochTimerStart = ITreasury(treasury).epoch(); // reset timer\r\n        emit Staked(msg.sender, amount);\r\n    }\r\n\r\n    function withdraw(uint256 amount) public override nonReentrant blacksmithExists updateReward(msg.sender) {\r\n        require(amount > 0, \"Foundry: Cannot withdraw 0\");\r\n        require(blacksmiths[msg.sender].epochTimerStart.add(withdrawLockupEpochs) <= ITreasury(treasury).epoch(), \"Foundry: still in withdraw lockup\");\r\n        claimReward();\r\n        super.withdraw(amount);\r\n        emit Withdrawn(msg.sender, amount);\r\n    }\r\n\r\n    function exit() external {\r\n        withdraw(balanceOf(msg.sender));\r\n    }\r\n\r\n    function claimReward() public updateReward(msg.sender) {\r\n        uint256 reward = blacksmiths[msg.sender].rewardEarned;\r\n        if (reward > 0) {\r\n            blacksmiths[msg.sender].epochTimerStart = ITreasury(treasury).epoch(); // reset timer\r\n            blacksmiths[msg.sender].rewardEarned = 0;\r\n            IERC20(collateral).safeTransfer(msg.sender, reward);\r\n            emit RewardPaid(msg.sender, reward);\r\n        }\r\n    }\r\n\r\n    function allocateSeigniorage(uint256 amount) external nonReentrant onlyTreasury {\r\n        require(amount > 0, \"Foundry: Cannot allocate 0\");\r\n        require(totalSupply() > 0, \"Foundry: Cannot allocate when totalSupply is 0\");\r\n\r\n        // Create & add new snapshot\r\n        uint256 prevRPS = getLatestSnapshot().rewardPerShare;\r\n        uint256 nextRPS = prevRPS.add(amount.mul(1e18).div(totalSupply()));\r\n\r\n        FoundrySnapshot memory newSnapshot = FoundrySnapshot({time: block.number, rewardReceived: amount, rewardPerShare: nextRPS});\r\n        foundryHistory.push(newSnapshot);\r\n\r\n        IERC20(collateral).safeTransferFrom(msg.sender, address(this), amount);\r\n        emit RewardAdded(msg.sender, amount);\r\n    }\r\n}\r\n",
  "sourcePath": "C:/Users/PaulMuller/Documents/projects/project_AGO/contracts/Foundry.sol",
  "compiler": {
    "name": "solc",
    "version": "0.8.4+commit.c7e474f2.Emscripten.clang"
  },
  "schemaVersion": "3.4.1",
  "updatedAt": "2021-05-16T17:07:50.751Z",
  "devdoc": {
    "kind": "dev",
    "methods": {},
    "version": 1
  },
  "userdoc": {
    "kind": "user",
    "methods": {},
    "version": 1
  }
}