{
  "contractName": "MigrationHelper",
  "abi": [
    {
      "inputs": [
        {
          "internalType": "address",
          "name": "_owner",
          "type": "address"
        }
      ],
      "stateMutability": "nonpayable",
      "type": "constructor"
    },
    {
      "inputs": [],
      "name": "gov_to_timelock_eta",
      "outputs": [
        {
          "internalType": "uint256",
          "name": "",
          "type": "uint256"
        }
      ],
      "stateMutability": "view",
      "type": "function"
    },
    {
      "inputs": [],
      "name": "owner",
      "outputs": [
        {
          "internalType": "address",
          "name": "",
          "type": "address"
        }
      ],
      "stateMutability": "view",
      "type": "function"
    },
    {
      "inputs": [
        {
          "internalType": "uint256",
          "name": "_eta",
          "type": "uint256"
        }
      ],
      "name": "setGovToTimeLockETA",
      "outputs": [],
      "stateMutability": "nonpayable",
      "type": "function"
    }
  ],
  "bytecode": "0x608060405234801561001057600080fd5b5060405161018e38038061018e83398101604081905261002f91610054565b600080546001600160a01b0319166001600160a01b0392909216919091179055610082565b600060208284031215610065578081fd5b81516001600160a01b038116811461007b578182fd5b9392505050565b60fe806100906000396000f3fe6080604052348015600f57600080fd5b5060043610603c5760003560e01c806324403c991460415780638da5cb5b146052578063b179bafc146081575b600080fd5b6050604c36600460b1565b6096565b005b6000546064906001600160a01b031681565b6040516001600160a01b0390911681526020015b60405180910390f35b608960015481565b6040519081526020016078565b6000546001600160a01b031633141560ae5760018190555b50565b60006020828403121560c1578081fd5b503591905056fea26469706673582212204d67ed0cc2d49f95ab1b12f792cf58e04ab63d364adb677521ecbe22146cffde64736f6c63430008040033",
  "immutableReferences": {},
  "source": "// SPDX-License-Identifier: MIT\r\n\r\npragma solidity ^0.8.0;\r\n\r\ncontract MigrationHelper {\r\n  address public owner;\r\n  uint256 public gov_to_timelock_eta;\r\n\r\n  modifier restricted() {\r\n    if (msg.sender == owner) _;\r\n  }\r\n\r\n  constructor(address _owner){\r\n    owner = _owner;\r\n  }\r\n\r\n  function setGovToTimeLockETA(uint256 _eta) public restricted {\r\n    gov_to_timelock_eta = _eta;\r\n  }\r\n}\r\n",
  "sourcePath": "C:/Users/PaulMuller/Documents/projects/project_AGO/contracts/utils/MigrationHelper.sol",
  "compiler": {
    "name": "solc",
    "version": "0.8.4+commit.c7e474f2.Emscripten.clang"
  },
  "schemaVersion": "3.4.1",
  "updatedAt": "2021-06-04T01:28:33.267Z",
  "devdoc": {
    "kind": "dev",
    "methods": {},
    "version": 1
  },
  "userdoc": {
    "kind": "user",
    "methods": {},
    "version": 1
  }
}