{
  "contractName": "MigrationHelper",
  "abi": [
    {
      "inputs": [
        {
          "internalType": "address",
          "name": "_owner",
          "type": "address"
        }
      ],
      "stateMutability": "nonpayable",
      "type": "constructor"
    },
    {
      "inputs": [],
      "name": "gov_to_timelock_eta",
      "outputs": [
        {
          "internalType": "uint256",
          "name": "",
          "type": "uint256"
        }
      ],
      "stateMutability": "view",
      "type": "function"
    },
    {
      "inputs": [],
      "name": "owner",
      "outputs": [
        {
          "internalType": "address",
          "name": "",
          "type": "address"
        }
      ],
      "stateMutability": "view",
      "type": "function"
    },
    {
      "inputs": [
        {
          "internalType": "uint256",
          "name": "_eta",
          "type": "uint256"
        }
      ],
      "name": "setGovToTimeLockETA",
      "outputs": [],
      "stateMutability": "nonpayable",
      "type": "function"
    }
  ],
  "bytecode": "0x608060405234801561001057600080fd5b506040516101b63803806101b683398101604081905261002f91610054565b600080546001600160a01b0319166001600160a01b0392909216919091179055610082565b600060208284031215610065578081fd5b81516001600160a01b038116811461007b578182fd5b9392505050565b610125806100916000396000f3fe6080604052348015600f57600080fd5b5060043610603c5760003560e01c806324403c991460415780638da5cb5b146052578063b179bafc14609b575b600080fd5b6050604c36600460d8565b60b0565b005b60005460719073ffffffffffffffffffffffffffffffffffffffff1681565b60405173ffffffffffffffffffffffffffffffffffffffff90911681526020015b60405180910390f35b60a360015481565b6040519081526020016092565b60005473ffffffffffffffffffffffffffffffffffffffff1633141560d55760018190555b50565b60006020828403121560e8578081fd5b503591905056fea26469706673582212204f234c1d9095841af6be32778755880f61f1ef709b8020f412a19a7da4986e4264736f6c63430008030033",
  "immutableReferences": {},
  "source": "// SPDX-License-Identifier: MIT\n\npragma solidity ^0.8.0;\n\ncontract MigrationHelper {\n  address public owner;\n  uint256 public gov_to_timelock_eta;\n\n  modifier restricted() {\n    if (msg.sender == owner) _;\n  }\n\n  constructor(address _owner){\n    owner = _owner;\n  }\n\n  function setGovToTimeLockETA(uint256 _eta) public restricted {\n    gov_to_timelock_eta = _eta;\n  }\n}\n",
  "sourcePath": "/home/kali/Documents/project_AGO/contracts/utils/MigrationHelper.sol",
  "compiler": {
    "name": "solc",
    "version": "0.8.3+commit.8d00100c.Emscripten.clang"
  },
  "schemaVersion": "3.3.4",
  "updatedAt": "2021-04-14T15:10:14.001Z",
  "devdoc": {
    "kind": "dev",
    "methods": {},
    "version": 1
  },
  "userdoc": {
    "kind": "user",
    "methods": {},
    "version": 1
  }
}