{
  "contractName": "Mock_USDT",
  "abi": [
    {
      "inputs": [
        {
          "internalType": "string",
          "name": "name_",
          "type": "string"
        },
        {
          "internalType": "string",
          "name": "symbol_",
          "type": "string"
        },
        {
          "internalType": "uint8",
          "name": "decimals_",
          "type": "uint8"
        }
      ],
      "stateMutability": "nonpayable",
      "type": "constructor"
    },
    {
      "anonymous": false,
      "inputs": [
        {
          "indexed": true,
          "internalType": "address",
          "name": "src",
          "type": "address"
        },
        {
          "indexed": true,
          "internalType": "address",
          "name": "dst",
          "type": "address"
        },
        {
          "indexed": false,
          "internalType": "uint256",
          "name": "amt",
          "type": "uint256"
        }
      ],
      "name": "Approval",
      "type": "event"
    },
    {
      "anonymous": false,
      "inputs": [
        {
          "indexed": true,
          "internalType": "address",
          "name": "src",
          "type": "address"
        },
        {
          "indexed": true,
          "internalType": "address",
          "name": "dst",
          "type": "address"
        },
        {
          "indexed": false,
          "internalType": "uint256",
          "name": "amt",
          "type": "uint256"
        }
      ],
      "name": "Transfer",
      "type": "event"
    },
    {
      "inputs": [
        {
          "internalType": "address",
          "name": "",
          "type": "address"
        },
        {
          "internalType": "address",
          "name": "",
          "type": "address"
        }
      ],
      "name": "_allowance",
      "outputs": [
        {
          "internalType": "uint256",
          "name": "",
          "type": "uint256"
        }
      ],
      "stateMutability": "view",
      "type": "function",
      "constant": true
    },
    {
      "inputs": [
        {
          "internalType": "address",
          "name": "",
          "type": "address"
        }
      ],
      "name": "_balance",
      "outputs": [
        {
          "internalType": "uint256",
          "name": "",
          "type": "uint256"
        }
      ],
      "stateMutability": "view",
      "type": "function",
      "constant": true
    },
    {
      "inputs": [],
      "name": "_decimals",
      "outputs": [
        {
          "internalType": "uint8",
          "name": "",
          "type": "uint8"
        }
      ],
      "stateMutability": "view",
      "type": "function",
      "constant": true
    },
    {
      "inputs": [],
      "name": "_name",
      "outputs": [
        {
          "internalType": "string",
          "name": "",
          "type": "string"
        }
      ],
      "stateMutability": "view",
      "type": "function",
      "constant": true
    },
    {
      "inputs": [],
      "name": "_owner",
      "outputs": [
        {
          "internalType": "address",
          "name": "",
          "type": "address"
        }
      ],
      "stateMutability": "view",
      "type": "function",
      "constant": true
    },
    {
      "inputs": [],
      "name": "_symbol",
      "outputs": [
        {
          "internalType": "string",
          "name": "",
          "type": "string"
        }
      ],
      "stateMutability": "view",
      "type": "function",
      "constant": true
    },
    {
      "inputs": [],
      "name": "_totalSupply",
      "outputs": [
        {
          "internalType": "uint256",
          "name": "",
          "type": "uint256"
        }
      ],
      "stateMutability": "view",
      "type": "function",
      "constant": true
    },
    {
      "inputs": [],
      "name": "name",
      "outputs": [
        {
          "internalType": "string",
          "name": "",
          "type": "string"
        }
      ],
      "stateMutability": "view",
      "type": "function",
      "constant": true
    },
    {
      "inputs": [],
      "name": "symbol",
      "outputs": [
        {
          "internalType": "string",
          "name": "",
          "type": "string"
        }
      ],
      "stateMutability": "view",
      "type": "function",
      "constant": true
    },
    {
      "inputs": [],
      "name": "decimals",
      "outputs": [
        {
          "internalType": "uint8",
          "name": "",
          "type": "uint8"
        }
      ],
      "stateMutability": "view",
      "type": "function",
      "constant": true
    },
    {
      "inputs": [
        {
          "internalType": "address",
          "name": "src",
          "type": "address"
        },
        {
          "internalType": "address",
          "name": "dst",
          "type": "address"
        }
      ],
      "name": "allowance",
      "outputs": [
        {
          "internalType": "uint256",
          "name": "",
          "type": "uint256"
        }
      ],
      "stateMutability": "view",
      "type": "function",
      "constant": true
    },
    {
      "inputs": [
        {
          "internalType": "address",
          "name": "whom",
          "type": "address"
        }
      ],
      "name": "balanceOf",
      "outputs": [
        {
          "internalType": "uint256",
          "name": "",
          "type": "uint256"
        }
      ],
      "stateMutability": "view",
      "type": "function",
      "constant": true
    },
    {
      "inputs": [],
      "name": "totalSupply",
      "outputs": [
        {
          "internalType": "uint256",
          "name": "",
          "type": "uint256"
        }
      ],
      "stateMutability": "view",
      "type": "function",
      "constant": true
    },
    {
      "inputs": [
        {
          "internalType": "address",
          "name": "dst",
          "type": "address"
        },
        {
          "internalType": "uint256",
          "name": "amt",
          "type": "uint256"
        }
      ],
      "name": "approve",
      "outputs": [
        {
          "internalType": "bool",
          "name": "",
          "type": "bool"
        }
      ],
      "stateMutability": "nonpayable",
      "type": "function"
    },
    {
      "inputs": [
        {
          "internalType": "address",
          "name": "dst",
          "type": "address"
        },
        {
          "internalType": "uint256",
          "name": "amt",
          "type": "uint256"
        }
      ],
      "name": "mint",
      "outputs": [
        {
          "internalType": "bool",
          "name": "",
          "type": "bool"
        }
      ],
      "stateMutability": "nonpayable",
      "type": "function"
    },
    {
      "inputs": [
        {
          "internalType": "uint256",
          "name": "amt",
          "type": "uint256"
        }
      ],
      "name": "burn",
      "outputs": [
        {
          "internalType": "bool",
          "name": "",
          "type": "bool"
        }
      ],
      "stateMutability": "nonpayable",
      "type": "function"
    },
    {
      "inputs": [
        {
          "internalType": "address",
          "name": "dst",
          "type": "address"
        },
        {
          "internalType": "uint256",
          "name": "amt",
          "type": "uint256"
        }
      ],
      "name": "transfer",
      "outputs": [
        {
          "internalType": "bool",
          "name": "",
          "type": "bool"
        }
      ],
      "stateMutability": "nonpayable",
      "type": "function"
    },
    {
      "inputs": [
        {
          "internalType": "address",
          "name": "src",
          "type": "address"
        },
        {
          "internalType": "address",
          "name": "dst",
          "type": "address"
        },
        {
          "internalType": "uint256",
          "name": "amt",
          "type": "uint256"
        }
      ],
      "name": "transferFrom",
      "outputs": [
        {
          "internalType": "bool",
          "name": "",
          "type": "bool"
        }
      ],
      "stateMutability": "nonpayable",
      "type": "function"
    }
  ],
  "bytecode": "0x60806040523480156200001157600080fd5b5060405162000dbf38038062000dbf8339810160408190526200003491620001e4565b8251620000499060009060208601906200008b565b5081516200005f9060019060208501906200008b565b506002805460ff929092166001600160a81b031990921691909117610100330217905550620002b89050565b828054620000999062000265565b90600052602060002090601f016020900481019282620000bd576000855562000108565b82601f10620000d857805160ff191683800117855562000108565b8280016001018555821562000108579182015b8281111562000108578251825591602001919060010190620000eb565b50620001169291506200011a565b5090565b5b808211156200011657600081556001016200011b565b600082601f83011262000142578081fd5b81516001600160401b03808211156200015f576200015f620002a2565b604051601f8301601f19908116603f011681019082821181831017156200018a576200018a620002a2565b81604052838152602092508683858801011115620001a6578485fd5b8491505b83821015620001c95785820183015181830184015290820190620001aa565b83821115620001da57848385830101525b9695505050505050565b600080600060608486031215620001f9578283fd5b83516001600160401b038082111562000210578485fd5b6200021e8783880162000131565b9450602086015191508082111562000234578384fd5b50620002438682870162000131565b925050604084015160ff811681146200025a578182fd5b809150509250925092565b600181811c908216806200027a57607f821691505b602082108114156200029c57634e487b7160e01b600052602260045260246000fd5b50919050565b634e487b7160e01b600052604160045260246000fd5b610af780620002c86000396000f3fe608060405234801561001057600080fd5b50600436106101365760003560e01c806370a08231116100b2578063b2bdfa7b11610081578063d3aceae211610066578063d3aceae21461027a578063dd336c121461029a578063dd62ed3e146102c557600080fd5b8063b2bdfa7b14610242578063d28d88521461027257600080fd5b806370a08231146101f657806395d89b411461021f578063a9059cbb14610227578063b09f12661461023a57600080fd5b8063313ce567116101095780633eaaf86b116100ee5780633eaaf86b146101c757806340c10f19146101d057806342966c68146101e357600080fd5b8063313ce567146101a157806332424aa3146101ba57600080fd5b806306fdde031461013b578063095ea7b31461015957806318160ddd1461017c57806323b872dd1461018e575b600080fd5b6101436102fe565b60405161015091906109ee565b60405180910390f35b61016c6101673660046109ad565b610390565b6040519015158152602001610150565b6003545b604051908152602001610150565b61016c61019c366004610972565b6103fd565b60025460ff165b60405160ff9091168152602001610150565b6002546101a89060ff1681565b61018060035481565b61016c6101de3660046109ad565b610570565b61016c6101f13660046109d6565b610585565b61018061020436600461091f565b6001600160a01b031660009081526004602052604090205490565b610143610647565b61016c6102353660046109ad565b610656565b610143610663565b60025461025a9061010090046001600160a01b031681565b6040516001600160a01b039091168152602001610150565b6101436106f1565b61018061028836600461091f565b60046020526000908152604090205481565b6101806102a8366004610940565b600560209081526000928352604080842090915290825290205481565b6101806102d3366004610940565b6001600160a01b03918216600090815260056020908152604080832093909416825291909152205490565b60606000805461030d90610a70565b80601f016020809104026020016040519081016040528092919081815260200182805461033990610a70565b80156103865780601f1061035b57610100808354040283529160200191610386565b820191906000526020600020905b81548152906001019060200180831161036957829003601f168201915b5050505050905090565b3360008181526005602090815260408083206001600160a01b038716808552925280832085905551919290917f8c5be1e5ebec7d5bd14f71427d1e84f3dd0314c0f7b2291e5b200ac8c7c3b925906103eb9086815260200190565b60405180910390a35060015b92915050565b6000336001600160a01b038516148061043957506001600160a01b03841660009081526005602090815260408083203384529091529020548211155b61048a5760405162461bcd60e51b815260206004820152600860248201527f217370656e64657200000000000000000000000000000000000000000000000060448201526064015b60405180910390fd5b6104958484846106fe565b336001600160a01b038516148015906104d357506001600160a01b038416600090815260056020908152604080832033845290915290205460001914155b15610566576001600160a01b03841660009081526005602090815260408083203384529091529020546105069083610802565b6001600160a01b0385811660009081526005602090815260408083203380855290835292819020859055519384529186169290917f8c5be1e5ebec7d5bd14f71427d1e84f3dd0314c0f7b2291e5b200ac8c7c3b925910160405180910390a35b5060019392505050565b600061057c838361083a565b50600192915050565b306000908152600460205260408120548211156105cd5760405162461bcd60e51b8152600401610481906020808252600490820152630858985b60e21b604082015260600190565b306000908152600460205260409020546105e79083610802565b306000908152600460205260409020556003546106049083610802565b60035560405182815260009030907fddf252ad1be2c89b69c2b068fc378daa952ba7f163c4a11628f55a4df523b3ef9060200160405180910390a3506001919050565b60606001805461030d90610a70565b600061057c3384846106fe565b6001805461067090610a70565b80601f016020809104026020016040519081016040528092919081815260200182805461069c90610a70565b80156106e95780601f106106be576101008083540402835291602001916106e9565b820191906000526020600020905b8154815290600101906020018083116106cc57829003601f168201915b505050505081565b6000805461067090610a70565b6001600160a01b03831660009081526004602052604090205481111561074f5760405162461bcd60e51b8152600401610481906020808252600490820152630858985b60e21b604082015260600190565b6001600160a01b0383166000908152600460205260409020546107729082610802565b6001600160a01b0380851660009081526004602052604080822093909355908416815220546107a190826108cb565b6001600160a01b0380841660008181526004602052604090819020939093559151908516907fddf252ad1be2c89b69c2b068fc378daa952ba7f163c4a11628f55a4df523b3ef906107f59085815260200190565b60405180910390a3505050565b60008261080f8382610a59565b91508111156103f75760405162461bcd60e51b81526020600482015260006024820152604401610481565b6001600160a01b03821660009081526004602052604090205461085d90826108cb565b6001600160a01b03831660009081526004602052604090205560035461088390826108cb565b6003556040518181526001600160a01b038316906000907fddf252ad1be2c89b69c2b068fc378daa952ba7f163c4a11628f55a4df523b3ef9060200160405180910390a35050565b6000826108d88382610a41565b91508110156103f75760405162461bcd60e51b81526020600482015260006024820152604401610481565b80356001600160a01b038116811461091a57600080fd5b919050565b600060208284031215610930578081fd5b61093982610903565b9392505050565b60008060408385031215610952578081fd5b61095b83610903565b915061096960208401610903565b90509250929050565b600080600060608486031215610986578081fd5b61098f84610903565b925061099d60208501610903565b9150604084013590509250925092565b600080604083850312156109bf578182fd5b6109c883610903565b946020939093013593505050565b6000602082840312156109e7578081fd5b5035919050565b6000602080835283518082850152825b81811015610a1a578581018301518582016040015282016109fe565b81811115610a2b5783604083870101525b50601f01601f1916929092016040019392505050565b60008219821115610a5457610a54610aab565b500190565b600082821015610a6b57610a6b610aab565b500390565b600181811c90821680610a8457607f821691505b60208210811415610aa557634e487b7160e01b600052602260045260246000fd5b50919050565b634e487b7160e01b600052601160045260246000fdfea26469706673582212206df639050e9aad2858cfc7ed62b6a854d4a235a2b0d16d5700043d6b6b92379964736f6c63430008040033",
  "immutableReferences": {},
  "source": "// SPDX-License-Identifier: MIT\r\n\r\npragma solidity ^0.8.0;\r\n\r\ncontract Mock_USDT {\r\n    string public _name;\r\n    string public _symbol;\r\n    uint8 public _decimals;\r\n\r\n    address public _owner;\r\n\r\n    uint256 public _totalSupply;\r\n\r\n    mapping(address => uint256) public _balance;\r\n    mapping(address => mapping(address => uint256)) public _allowance;\r\n\r\n    modifier _onlyOwner_() {\r\n        require(msg.sender == _owner, \"ERR_NOT_OWNER\");\r\n        _;\r\n    }\r\n\r\n    event Approval(address indexed src, address indexed dst, uint256 amt);\r\n    event Transfer(address indexed src, address indexed dst, uint256 amt);\r\n\r\n    // Math\r\n    function add(uint256 a, uint256 b) internal pure returns (uint256 c) {\r\n        require((c = a + b) >= a, \"\");\r\n    }\r\n\r\n    function sub(uint256 a, uint256 b) internal pure returns (uint256 c) {\r\n        require((c = a - b) <= a, \"\");\r\n    }\r\n\r\n    constructor(\r\n        string memory name_,\r\n        string memory symbol_,\r\n        uint8 decimals_\r\n    ){\r\n        _name = name_;\r\n        _symbol = symbol_;\r\n        _decimals = decimals_;\r\n        _owner = msg.sender;\r\n    }\r\n\r\n    function name() public view returns (string memory) {\r\n        return _name;\r\n    }\r\n\r\n    function symbol() public view returns (string memory) {\r\n        return _symbol;\r\n    }\r\n\r\n    function decimals() public view returns (uint8) {\r\n        return _decimals;\r\n    }\r\n\r\n    function _move(\r\n        address src,\r\n        address dst,\r\n        uint256 amt\r\n    ) internal {\r\n        require(_balance[src] >= amt, \"!bal\");\r\n        _balance[src] = sub(_balance[src], amt);\r\n        _balance[dst] = add(_balance[dst], amt);\r\n        emit Transfer(src, dst, amt);\r\n    }\r\n\r\n    function _push(address to, uint256 amt) internal {\r\n        _move(address(this), to, amt);\r\n    }\r\n\r\n    function _pull(address from, uint256 amt) internal {\r\n        _move(from, address(this), amt);\r\n    }\r\n\r\n    function _mint(address dst, uint256 amt) internal {\r\n        _balance[dst] = add(_balance[dst], amt);\r\n        _totalSupply = add(_totalSupply, amt);\r\n        emit Transfer(address(0), dst, amt);\r\n    }\r\n\r\n    function allowance(address src, address dst) external view returns (uint256) {\r\n        return _allowance[src][dst];\r\n    }\r\n\r\n    function balanceOf(address whom) external view returns (uint256) {\r\n        return _balance[whom];\r\n    }\r\n\r\n    function totalSupply() public view returns (uint256) {\r\n        return _totalSupply;\r\n    }\r\n\r\n    function approve(address dst, uint256 amt) external returns (bool) {\r\n        _allowance[msg.sender][dst] = amt;\r\n        emit Approval(msg.sender, dst, amt);\r\n        return true;\r\n    }\r\n\r\n    function mint(address dst, uint256 amt) public returns (bool) {\r\n        _mint(dst, amt);\r\n        return true;\r\n    }\r\n\r\n    function burn(uint256 amt) public returns (bool) {\r\n        require(_balance[address(this)] >= amt, \"!bal\");\r\n        _balance[address(this)] = sub(_balance[address(this)], amt);\r\n        _totalSupply = sub(_totalSupply, amt);\r\n        emit Transfer(address(this), address(0), amt);\r\n        return true;\r\n    }\r\n\r\n    function transfer(address dst, uint256 amt) external returns (bool) {\r\n        _move(msg.sender, dst, amt);\r\n        return true;\r\n    }\r\n\r\n    function transferFrom(\r\n        address src,\r\n        address dst,\r\n        uint256 amt\r\n    ) external returns (bool) {\r\n        require(msg.sender == src || amt <= _allowance[src][msg.sender], \"!spender\");\r\n        _move(src, dst, amt);\r\n        if (msg.sender != src && _allowance[src][msg.sender] != type(uint256).max) {\r\n            _allowance[src][msg.sender] = sub(_allowance[src][msg.sender], amt);\r\n            emit Approval(msg.sender, dst, _allowance[src][msg.sender]);\r\n        }\r\n        return true;\r\n    }\r\n}\r\n",
  "sourcePath": "C:/Users/PaulMuller/Documents/projects/project_AGO/contracts/_mock/collateral/Mock_USDT.sol",
  "compiler": {
    "name": "solc",
    "version": "0.8.4+commit.c7e474f2.Emscripten.clang"
  },
  "schemaVersion": "3.3.4",
  "updatedAt": "2021-04-24T19:45:45.855Z",
  "networkType": "ethereum",
  "devdoc": {
    "kind": "dev",
    "methods": {},
    "version": 1
  },
  "userdoc": {
    "kind": "user",
    "methods": {},
    "version": 1
  }
}