{
  "contractName": "MockChainlinkAggregator",
  "abi": [
    {
      "inputs": [
        {
          "internalType": "uint256",
          "name": "_mock_price",
          "type": "uint256"
        },
        {
          "internalType": "uint8",
          "name": "_decimals",
          "type": "uint8"
        }
      ],
      "stateMutability": "nonpayable",
      "type": "constructor"
    },
    {
      "inputs": [],
      "name": "mock_decimals",
      "outputs": [
        {
          "internalType": "uint8",
          "name": "",
          "type": "uint8"
        }
      ],
      "stateMutability": "view",
      "type": "function",
      "constant": true
    },
    {
      "inputs": [],
      "name": "mock_price",
      "outputs": [
        {
          "internalType": "uint256",
          "name": "",
          "type": "uint256"
        }
      ],
      "stateMutability": "view",
      "type": "function",
      "constant": true
    },
    {
      "inputs": [],
      "name": "decimals",
      "outputs": [
        {
          "internalType": "uint8",
          "name": "",
          "type": "uint8"
        }
      ],
      "stateMutability": "view",
      "type": "function",
      "constant": true
    },
    {
      "inputs": [],
      "name": "latestRoundData",
      "outputs": [
        {
          "internalType": "uint80",
          "name": "roundId",
          "type": "uint80"
        },
        {
          "internalType": "uint256",
          "name": "answer",
          "type": "uint256"
        },
        {
          "internalType": "uint256",
          "name": "startedAt",
          "type": "uint256"
        },
        {
          "internalType": "uint256",
          "name": "updatedAt",
          "type": "uint256"
        },
        {
          "internalType": "uint80",
          "name": "answeredInRound",
          "type": "uint80"
        }
      ],
      "stateMutability": "view",
      "type": "function",
      "constant": true
    },
    {
      "inputs": [
        {
          "internalType": "uint256",
          "name": "_mock_price",
          "type": "uint256"
        }
      ],
      "name": "setLatestPrice",
      "outputs": [],
      "stateMutability": "nonpayable",
      "type": "function"
    },
    {
      "inputs": [
        {
          "internalType": "uint8",
          "name": "_decimals",
          "type": "uint8"
        }
      ],
      "name": "setDecimals",
      "outputs": [],
      "stateMutability": "nonpayable",
      "type": "function"
    }
  ],
  "bytecode": "0x608060405234801561001057600080fd5b5060405161022738038061022783398101604081905261002f9161004d565b6000919091556001805460ff191660ff909216919091179055610081565b6000806040838503121561005f578182fd5b82519150602083015160ff81168114610076578182fd5b809150509250929050565b610197806100906000396000f3fe608060405234801561001057600080fd5b50600436106100725760003560e01c8063c3a995f911610050578063c3a995f9146100d2578063fc9bb7fe146100df578063feaf968c146100f257610072565b8063313ce567146100775780635161b898146100955780637a1395aa146100ac575b600080fd5b60015460ff165b60405160ff90911681526020015b60405180910390f35b61009e60005481565b60405190815260200161008c565b6100d06100ba366004610139565b6001805460ff191660ff92909216919091179055565b005b60015461007e9060ff1681565b6100d06100ed366004610121565b600055565b60008054604080518381526020810192909252810182905260608101829052608081019190915260a00161008c565b600060208284031215610132578081fd5b5035919050565b60006020828403121561014a578081fd5b813560ff8116811461015a578182fd5b939250505056fea26469706673582212206653ce786b24d9ec9a5423d04c77653befe34ce2ffc7fae1aa6fb7e632a6ed7e64736f6c63430008030033",
  "immutableReferences": {},
  "source": "// SPDX-License-Identifier: MIT\n\npragma solidity ^0.8.0;\npragma experimental ABIEncoderV2;\n\ncontract MockChainlinkAggregator {\n    uint256 public mock_price;\n    uint8 public mock_decimals;\n\n    constructor(uint256 _mock_price, uint8 _decimals){\n        mock_price = _mock_price;\n        mock_decimals = _decimals;\n    }\n\n    function decimals() external view returns (uint8) {\n        return mock_decimals;\n    }\n\n    function latestRoundData() external view\n        returns (\n            uint80 roundId,\n            uint256 answer,\n            uint256 startedAt,\n            uint256 updatedAt,\n            uint80 answeredInRound\n        )\n    {\n        roundId =0;\n        answer = mock_price;\n        startedAt = 0;\n        updatedAt=0;\n        answeredInRound=0;\n    }\n\n    function setLatestPrice(uint256 _mock_price) public {\n        mock_price = _mock_price;\n    }\n\n    function setDecimals(uint8 _decimals) public {\n        mock_decimals = _decimals;\n    }\n}\n",
  "sourcePath": "/home/kali/Documents/project_AGO/contracts/_mock/oracle/MockChainlinkAggregator.sol",
  "compiler": {
    "name": "solc",
    "version": "0.8.3+commit.8d00100c.Emscripten.clang"
  },
  "schemaVersion": "3.3.4",
  "updatedAt": "2021-04-15T14:54:58.599Z",
  "networkType": "ethereum",
  "devdoc": {
    "kind": "dev",
    "methods": {},
    "version": 1
  },
  "userdoc": {
    "kind": "user",
    "methods": {},
    "version": 1
  }
}