{
  "contractName": "MockPairOracle",
  "abi": [
    {
      "inputs": [
        {
          "internalType": "uint256",
          "name": "_mockPrice",
          "type": "uint256"
        }
      ],
      "stateMutability": "nonpayable",
      "type": "constructor"
    },
    {
      "anonymous": false,
      "inputs": [
        {
          "indexed": true,
          "internalType": "address",
          "name": "previousOperator",
          "type": "address"
        },
        {
          "indexed": true,
          "internalType": "address",
          "name": "newOperator",
          "type": "address"
        }
      ],
      "name": "OperatorTransferred",
      "type": "event"
    },
    {
      "anonymous": false,
      "inputs": [
        {
          "indexed": true,
          "internalType": "address",
          "name": "previousOwner",
          "type": "address"
        },
        {
          "indexed": true,
          "internalType": "address",
          "name": "newOwner",
          "type": "address"
        }
      ],
      "name": "OwnershipTransferred",
      "type": "event"
    },
    {
      "inputs": [],
      "name": "PERIOD",
      "outputs": [
        {
          "internalType": "uint256",
          "name": "",
          "type": "uint256"
        }
      ],
      "stateMutability": "view",
      "type": "function"
    },
    {
      "inputs": [],
      "name": "isOperator",
      "outputs": [
        {
          "internalType": "bool",
          "name": "",
          "type": "bool"
        }
      ],
      "stateMutability": "view",
      "type": "function"
    },
    {
      "inputs": [],
      "name": "mockPrice",
      "outputs": [
        {
          "internalType": "uint256",
          "name": "",
          "type": "uint256"
        }
      ],
      "stateMutability": "view",
      "type": "function"
    },
    {
      "inputs": [],
      "name": "operator",
      "outputs": [
        {
          "internalType": "address",
          "name": "",
          "type": "address"
        }
      ],
      "stateMutability": "view",
      "type": "function"
    },
    {
      "inputs": [],
      "name": "owner",
      "outputs": [
        {
          "internalType": "address",
          "name": "",
          "type": "address"
        }
      ],
      "stateMutability": "view",
      "type": "function"
    },
    {
      "inputs": [],
      "name": "renounceOwnership",
      "outputs": [],
      "stateMutability": "nonpayable",
      "type": "function"
    },
    {
      "inputs": [
        {
          "internalType": "address",
          "name": "newOperator_",
          "type": "address"
        }
      ],
      "name": "transferOperator",
      "outputs": [],
      "stateMutability": "nonpayable",
      "type": "function"
    },
    {
      "inputs": [
        {
          "internalType": "address",
          "name": "newOwner",
          "type": "address"
        }
      ],
      "name": "transferOwnership",
      "outputs": [],
      "stateMutability": "nonpayable",
      "type": "function"
    },
    {
      "inputs": [
        {
          "internalType": "address",
          "name": "token",
          "type": "address"
        },
        {
          "internalType": "uint256",
          "name": "amountIn",
          "type": "uint256"
        }
      ],
      "name": "consult",
      "outputs": [
        {
          "internalType": "uint256",
          "name": "amountOut",
          "type": "uint256"
        }
      ],
      "stateMutability": "view",
      "type": "function"
    },
    {
      "inputs": [],
      "name": "update",
      "outputs": [],
      "stateMutability": "nonpayable",
      "type": "function"
    },
    {
      "inputs": [
        {
          "internalType": "uint256",
          "name": "_period",
          "type": "uint256"
        }
      ],
      "name": "setPeriod",
      "outputs": [],
      "stateMutability": "nonpayable",
      "type": "function"
    },
    {
      "inputs": [
        {
          "internalType": "uint256",
          "name": "_mockPrice",
          "type": "uint256"
        }
      ],
      "name": "mock",
      "outputs": [],
      "stateMutability": "nonpayable",
      "type": "function"
    }
  ],
  "bytecode": "0x6080604052610e1060035534801561001657600080fd5b506040516107d13803806107d1833981016040819052610035916100be565b600080546001600160a01b031916339081178255604051909182917f8be0079c531659141344cd1fd0a4f28419497f9722a3daafe3b4186f6b6457e0908290a350600180546001600160a01b031916339081179091556040516000907f74da04524d50c64947f5dd5381ef1a4dca5cba8ed1d816243f9e48aa0b5617ed908290a36002556100d6565b6000602082840312156100cf578081fd5b5051919050565b6106ec806100e56000396000f3fe608060405234801561001057600080fd5b50600436106100d45760003560e01c8063715018a611610081578063b4d1d7951161005b578063b4d1d79514610196578063c7207e741461019f578063f2fde38b146101a857600080fd5b8063715018a61461017d5780638da5cb5b14610185578063a2e62045146100ec57600080fd5b80633de377ec116100b25780633de377ec146101275780634456eda21461013a578063570ca7351461015857600080fd5b80630f3a9f65146100d957806329605e77146100ee5780633ddac95314610101575b600080fd5b6100ec6100e7366004610653565b6101bb565b005b6100ec6100fc366004610610565b610244565b61011461010f36600461062a565b6102aa565b6040519081526020015b60405180910390f35b6100ec610135366004610653565b600255565b6001546001600160a01b03163314604051901515815260200161011e565b6001546001600160a01b03165b6040516001600160a01b03909116815260200161011e565b6100ec6102d7565b6000546001600160a01b0316610165565b61011460035481565b61011460025481565b6100ec6101b6366004610610565b610388565b6001546001600160a01b0316331461023f5760405162461bcd60e51b8152602060048201526024808201527f6f70657261746f723a2063616c6c6572206973206e6f7420746865206f70657260448201527f61746f720000000000000000000000000000000000000000000000000000000060648201526084015b60405180910390fd5b600355565b6000546001600160a01b0316331461029e5760405162461bcd60e51b815260206004820181905260248201527f4f776e61626c653a2063616c6c6572206973206e6f7420746865206f776e65726044820152606401610236565b6102a7816104c6565b50565b60006102ce620f42406102c8846002546105a790919063ffffffff16565b906105e8565b90505b92915050565b6000546001600160a01b031633146103315760405162461bcd60e51b815260206004820181905260248201527f4f776e61626c653a2063616c6c6572206973206e6f7420746865206f776e65726044820152606401610236565b600080546040516001600160a01b03909116907f8be0079c531659141344cd1fd0a4f28419497f9722a3daafe3b4186f6b6457e0908390a36000805473ffffffffffffffffffffffffffffffffffffffff19169055565b6000546001600160a01b031633146103e25760405162461bcd60e51b815260206004820181905260248201527f4f776e61626c653a2063616c6c6572206973206e6f7420746865206f776e65726044820152606401610236565b6001600160a01b03811661045e5760405162461bcd60e51b815260206004820152602660248201527f4f776e61626c653a206e6577206f776e657220697320746865207a65726f206160448201527f64647265737300000000000000000000000000000000000000000000000000006064820152608401610236565b600080546040516001600160a01b03808516939216917f8be0079c531659141344cd1fd0a4f28419497f9722a3daafe3b4186f6b6457e091a36000805473ffffffffffffffffffffffffffffffffffffffff19166001600160a01b0392909216919091179055565b6001600160a01b0381166105425760405162461bcd60e51b815260206004820152602d60248201527f6f70657261746f723a207a65726f206164647265737320676976656e20666f7260448201527f206e6577206f70657261746f72000000000000000000000000000000000000006064820152608401610236565b6040516001600160a01b038216906000907f74da04524d50c64947f5dd5381ef1a4dca5cba8ed1d816243f9e48aa0b5617ed908290a36001805473ffffffffffffffffffffffffffffffffffffffff19166001600160a01b0392909216919091179055565b6000826105b6575060006102d1565b6105c0828461068b565b9050816105cd848361066b565b146102d157634e487b7160e01b600052600160045260246000fd5b60006102ce828461066b565b80356001600160a01b038116811461060b57600080fd5b919050565b600060208284031215610621578081fd5b6102ce826105f4565b6000806040838503121561063c578081fd5b610645836105f4565b946020939093013593505050565b600060208284031215610664578081fd5b5035919050565b60008261068657634e487b7160e01b81526012600452602481fd5b500490565b60008160001904831182151516156106b157634e487b7160e01b81526011600452602481fd5b50029056fea2646970667358221220c528022646d4e537d3250361dea4fe5be329f8f42132c56f16c8f964b5c8bf7864736f6c63430008040033",
  "immutableReferences": {},
  "source": "// SPDX-License-Identifier: MIT\r\n\r\npragma solidity ^0.8.0;\r\n\r\nimport \"../../openZeppelin/SafeMath.sol\";\r\nimport \"../../interfaces/IPairOracle.sol\";\r\nimport \"../../Operator.sol\";\r\n\r\ncontract MockPairOracle is IPairOracle, Operator {\r\n    using SafeMath for uint256;\r\n\r\n    uint256 public mockPrice;\r\n    uint256 constant PRICE_PRECISION = 1e6;\r\n    uint256 public PERIOD = 3600; // 1 hour TWAP (time-weighted average price)\r\n\r\n    constructor(uint256 _mockPrice){\r\n        mockPrice = _mockPrice;\r\n    }\r\n\r\n    function consult(address token, uint256 amountIn) external view override returns (uint256 amountOut) {\r\n        return mockPrice.mul(amountIn).div(PRICE_PRECISION);\r\n    }\r\n\r\n    function update() external override {}\r\n\r\n    function setPeriod(uint256 _period) external onlyOperator {\r\n        PERIOD = _period;\r\n    }\r\n\r\n    function mock(uint256 _mockPrice) external {\r\n        mockPrice = _mockPrice;\r\n    }\r\n}\r\n",
  "sourcePath": "C:/Users/PaulMuller/Documents/projects/project_AGO/contracts/_mock/oracle/MockPairOracle.sol",
  "compiler": {
    "name": "solc",
    "version": "0.8.4+commit.c7e474f2.Emscripten.clang"
  },
  "schemaVersion": "3.3.4",
  "updatedAt": "2021-04-26T15:17:49.585Z",
  "devdoc": {
    "kind": "dev",
    "methods": {},
    "version": 1
  },
  "userdoc": {
    "kind": "user",
    "methods": {},
    "version": 1
  }
}