{
  "contractName": "PoolAGOUSD",
  "abi": [
    {
      "inputs": [
        {
          "internalType": "address",
          "name": "_dollar",
          "type": "address"
        },
        {
          "internalType": "address",
          "name": "_share",
          "type": "address"
        },
        {
          "internalType": "address",
          "name": "_collateral",
          "type": "address"
        },
        {
          "internalType": "address",
          "name": "_treasury",
          "type": "address"
        },
        {
          "internalType": "uint256",
          "name": "_pool_ceiling",
          "type": "uint256"
        }
      ],
      "stateMutability": "nonpayable",
      "type": "constructor"
    },
    {
      "anonymous": false,
      "inputs": [
        {
          "indexed": true,
          "internalType": "address",
          "name": "previousOperator",
          "type": "address"
        },
        {
          "indexed": true,
          "internalType": "address",
          "name": "newOperator",
          "type": "address"
        }
      ],
      "name": "OperatorTransferred",
      "type": "event"
    },
    {
      "anonymous": false,
      "inputs": [
        {
          "indexed": true,
          "internalType": "address",
          "name": "previousOwner",
          "type": "address"
        },
        {
          "indexed": true,
          "internalType": "address",
          "name": "newOwner",
          "type": "address"
        }
      ],
      "name": "OwnershipTransferred",
      "type": "event"
    },
    {
      "anonymous": false,
      "inputs": [
        {
          "indexed": true,
          "internalType": "address",
          "name": "previousTreasury",
          "type": "address"
        },
        {
          "indexed": true,
          "internalType": "address",
          "name": "newTreasury",
          "type": "address"
        }
      ],
      "name": "TreasuryTransferred",
      "type": "event"
    },
    {
      "inputs": [],
      "name": "collateral",
      "outputs": [
        {
          "internalType": "address",
          "name": "",
          "type": "address"
        }
      ],
      "stateMutability": "view",
      "type": "function",
      "constant": true
    },
    {
      "inputs": [],
      "name": "dollar",
      "outputs": [
        {
          "internalType": "address",
          "name": "",
          "type": "address"
        }
      ],
      "stateMutability": "view",
      "type": "function",
      "constant": true
    },
    {
      "inputs": [],
      "name": "isOperator",
      "outputs": [
        {
          "internalType": "bool",
          "name": "",
          "type": "bool"
        }
      ],
      "stateMutability": "view",
      "type": "function",
      "constant": true
    },
    {
      "inputs": [
        {
          "internalType": "address",
          "name": "",
          "type": "address"
        }
      ],
      "name": "last_redeemed",
      "outputs": [
        {
          "internalType": "uint256",
          "name": "",
          "type": "uint256"
        }
      ],
      "stateMutability": "view",
      "type": "function",
      "constant": true
    },
    {
      "inputs": [],
      "name": "migrated",
      "outputs": [
        {
          "internalType": "bool",
          "name": "",
          "type": "bool"
        }
      ],
      "stateMutability": "view",
      "type": "function",
      "constant": true
    },
    {
      "inputs": [],
      "name": "mint_paused",
      "outputs": [
        {
          "internalType": "bool",
          "name": "",
          "type": "bool"
        }
      ],
      "stateMutability": "view",
      "type": "function",
      "constant": true
    },
    {
      "inputs": [],
      "name": "operator",
      "outputs": [
        {
          "internalType": "address",
          "name": "",
          "type": "address"
        }
      ],
      "stateMutability": "view",
      "type": "function",
      "constant": true
    },
    {
      "inputs": [],
      "name": "oracle",
      "outputs": [
        {
          "internalType": "address",
          "name": "",
          "type": "address"
        }
      ],
      "stateMutability": "view",
      "type": "function",
      "constant": true
    },
    {
      "inputs": [],
      "name": "owner",
      "outputs": [
        {
          "internalType": "address",
          "name": "",
          "type": "address"
        }
      ],
      "stateMutability": "view",
      "type": "function",
      "constant": true
    },
    {
      "inputs": [],
      "name": "pool_ceiling",
      "outputs": [
        {
          "internalType": "uint256",
          "name": "",
          "type": "uint256"
        }
      ],
      "stateMutability": "view",
      "type": "function",
      "constant": true
    },
    {
      "inputs": [
        {
          "internalType": "address",
          "name": "",
          "type": "address"
        }
      ],
      "name": "redeem_collateral_balances",
      "outputs": [
        {
          "internalType": "uint256",
          "name": "",
          "type": "uint256"
        }
      ],
      "stateMutability": "view",
      "type": "function",
      "constant": true
    },
    {
      "inputs": [],
      "name": "redeem_paused",
      "outputs": [
        {
          "internalType": "bool",
          "name": "",
          "type": "bool"
        }
      ],
      "stateMutability": "view",
      "type": "function",
      "constant": true
    },
    {
      "inputs": [
        {
          "internalType": "address",
          "name": "",
          "type": "address"
        }
      ],
      "name": "redeem_share_balances",
      "outputs": [
        {
          "internalType": "uint256",
          "name": "",
          "type": "uint256"
        }
      ],
      "stateMutability": "view",
      "type": "function",
      "constant": true
    },
    {
      "inputs": [],
      "name": "redemption_delay",
      "outputs": [
        {
          "internalType": "uint256",
          "name": "",
          "type": "uint256"
        }
      ],
      "stateMutability": "view",
      "type": "function",
      "constant": true
    },
    {
      "inputs": [],
      "name": "renounceOwnership",
      "outputs": [],
      "stateMutability": "nonpayable",
      "type": "function"
    },
    {
      "inputs": [],
      "name": "share",
      "outputs": [
        {
          "internalType": "address",
          "name": "",
          "type": "address"
        }
      ],
      "stateMutability": "view",
      "type": "function",
      "constant": true
    },
    {
      "inputs": [
        {
          "internalType": "address",
          "name": "newOperator_",
          "type": "address"
        }
      ],
      "name": "transferOperator",
      "outputs": [],
      "stateMutability": "nonpayable",
      "type": "function"
    },
    {
      "inputs": [
        {
          "internalType": "address",
          "name": "newOwner",
          "type": "address"
        }
      ],
      "name": "transferOwnership",
      "outputs": [],
      "stateMutability": "nonpayable",
      "type": "function"
    },
    {
      "inputs": [],
      "name": "treasury",
      "outputs": [
        {
          "internalType": "address",
          "name": "",
          "type": "address"
        }
      ],
      "stateMutability": "view",
      "type": "function",
      "constant": true
    },
    {
      "inputs": [],
      "name": "unclaimed_pool_collateral",
      "outputs": [
        {
          "internalType": "uint256",
          "name": "",
          "type": "uint256"
        }
      ],
      "stateMutability": "view",
      "type": "function",
      "constant": true
    },
    {
      "inputs": [],
      "name": "unclaimed_pool_share",
      "outputs": [
        {
          "internalType": "uint256",
          "name": "",
          "type": "uint256"
        }
      ],
      "stateMutability": "view",
      "type": "function",
      "constant": true
    },
    {
      "inputs": [],
      "name": "collateralDollarBalance",
      "outputs": [
        {
          "internalType": "uint256",
          "name": "",
          "type": "uint256"
        }
      ],
      "stateMutability": "view",
      "type": "function",
      "constant": true
    },
    {
      "inputs": [],
      "name": "info",
      "outputs": [
        {
          "internalType": "uint256",
          "name": "",
          "type": "uint256"
        },
        {
          "internalType": "uint256",
          "name": "",
          "type": "uint256"
        },
        {
          "internalType": "uint256",
          "name": "",
          "type": "uint256"
        },
        {
          "internalType": "uint256",
          "name": "",
          "type": "uint256"
        },
        {
          "internalType": "uint256",
          "name": "",
          "type": "uint256"
        },
        {
          "internalType": "bool",
          "name": "",
          "type": "bool"
        },
        {
          "internalType": "bool",
          "name": "",
          "type": "bool"
        }
      ],
      "stateMutability": "view",
      "type": "function",
      "constant": true
    },
    {
      "inputs": [],
      "name": "getCollateralPrice",
      "outputs": [
        {
          "internalType": "uint256",
          "name": "",
          "type": "uint256"
        }
      ],
      "stateMutability": "view",
      "type": "function",
      "constant": true
    },
    {
      "inputs": [],
      "name": "getCollateralToken",
      "outputs": [
        {
          "internalType": "address",
          "name": "",
          "type": "address"
        }
      ],
      "stateMutability": "view",
      "type": "function",
      "constant": true
    },
    {
      "inputs": [
        {
          "internalType": "uint256",
          "name": "_collateral_amount",
          "type": "uint256"
        },
        {
          "internalType": "uint256",
          "name": "_share_amount",
          "type": "uint256"
        },
        {
          "internalType": "uint256",
          "name": "_dollar_out_min",
          "type": "uint256"
        }
      ],
      "name": "mint",
      "outputs": [],
      "stateMutability": "nonpayable",
      "type": "function"
    },
    {
      "inputs": [
        {
          "internalType": "uint256",
          "name": "_dollar_amount",
          "type": "uint256"
        },
        {
          "internalType": "uint256",
          "name": "_share_out_min",
          "type": "uint256"
        },
        {
          "internalType": "uint256",
          "name": "_collateral_out_min",
          "type": "uint256"
        }
      ],
      "name": "redeem",
      "outputs": [],
      "stateMutability": "nonpayable",
      "type": "function"
    },
    {
      "inputs": [],
      "name": "collectRedemption",
      "outputs": [],
      "stateMutability": "nonpayable",
      "type": "function"
    },
    {
      "inputs": [
        {
          "internalType": "address",
          "name": "_new_pool",
          "type": "address"
        }
      ],
      "name": "migrate",
      "outputs": [],
      "stateMutability": "nonpayable",
      "type": "function"
    },
    {
      "inputs": [],
      "name": "toggleMinting",
      "outputs": [],
      "stateMutability": "nonpayable",
      "type": "function"
    },
    {
      "inputs": [],
      "name": "toggleRedeeming",
      "outputs": [],
      "stateMutability": "nonpayable",
      "type": "function"
    },
    {
      "inputs": [
        {
          "internalType": "address",
          "name": "_oracle",
          "type": "address"
        }
      ],
      "name": "setOracle",
      "outputs": [],
      "stateMutability": "nonpayable",
      "type": "function"
    },
    {
      "inputs": [
        {
          "internalType": "uint256",
          "name": "_pool_ceiling",
          "type": "uint256"
        }
      ],
      "name": "setPoolCeiling",
      "outputs": [],
      "stateMutability": "nonpayable",
      "type": "function"
    },
    {
      "inputs": [
        {
          "internalType": "uint256",
          "name": "_redemption_delay",
          "type": "uint256"
        }
      ],
      "name": "setRedemptionDelay",
      "outputs": [],
      "stateMutability": "nonpayable",
      "type": "function"
    },
    {
      "inputs": [
        {
          "internalType": "address",
          "name": "_treasury",
          "type": "address"
        }
      ],
      "name": "setTreasury",
      "outputs": [],
      "stateMutability": "nonpayable",
      "type": "function"
    },
    {
      "inputs": [
        {
          "internalType": "uint256",
          "name": "amount",
          "type": "uint256"
        }
      ],
      "name": "transferCollateralToTreasury",
      "outputs": [],
      "stateMutability": "nonpayable",
      "type": "function"
    }
  ],
  "bytecode": "0x6080604052600160028190556000600e55600f556010805462ffffff191690553480156200002c57600080fd5b5060405162002153380380620021538339810160408190526200004f916200020f565b600080546001600160a01b031916339081178255604051909182917f8be0079c531659141344cd1fd0a4f28419497f9722a3daafe3b4186f6b6457e0908290a350600180546001600160a01b031916339081179091556040516000907f74da04524d50c64947f5dd5381ef1a4dca5cba8ed1d816243f9e48aa0b5617ed908290a3600580546001600160a01b038088166001600160a01b031992831617909255600780548784169083161790556004805486841690831681178255600680549487169490931693909317909155600e8390556040805163313ce56760e01b81529051620001af939263313ce56792808201926020929091829003018186803b1580156200015b57600080fd5b505afa15801562000170573d6000803e3d6000fd5b505050506040513d601f19601f8201168201806040525081019062000196919062000275565b60ff166012620001be60201b620019a41790919060201c565b600d5550620002bc9350505050565b600082821115620001df57634e487b7160e01b600052600160045260246000fd5b620001eb828462000298565b9392505050565b80516001600160a01b03811681146200020a57600080fd5b919050565b600080600080600060a0868803121562000227578081fd5b6200023286620001f2565b94506200024260208701620001f2565b93506200025260408701620001f2565b92506200026260608701620001f2565b9150608086015190509295509295909350565b60006020828403121562000287578081fd5b815160ff81168114620001eb578182fd5b600082821015620002b757634e487b7160e01b81526011600452602481fd5b500390565b611e8780620002cc6000396000f3fe608060405234801561001057600080fd5b506004361061025c5760003560e01c80638da5cb5b11610145578063d8dfeb45116100bd578063f0f442601161008c578063f2fde38b11610071578063f2fde38b14610504578063f7683bbc14610517578063ff626c5f1461051f5761025c565b8063f0f44260146104de578063f1a9ee03146104f15761025c565b8063d8dfeb4514610490578063daa50485146104a3578063dc0d2a98146104ab578063e86bc619146104cb5761025c565b8063b819220511610114578063c82c4d0e116100f9578063c82c4d0e14610454578063ce5494bb1461045d578063d0d132f3146104705761025c565b8063b819220514610434578063c7d27228146104475761025c565b80638da5cb5b146103f757806396423663146104085780639c84d0f514610419578063a8d5fd65146104215761025c565b806354367135116101d8578063715018a6116101a75780637d55094d1161018c5780637d55094d146103ca5780637dc0d1d0146103d257806380a66d05146103e55761025c565b8063715018a6146103af5780637adbf973146103b75761025c565b80635436713514610362578063570ca7351461038257806361d027b3146103935780636526a12a146103a65761025c565b80632c678c641161022f578063378f357611610214578063378f3576146103115780634456eda21461032457806351adeb57146103375761025c565b80632c678c64146102ad578063370158ea146102d05761025c565b806302acc94b1461026157806312ace5a214610276578063151284251461027e57806329605e771461029a575b600080fd5b61027461026f366004611c32565b610528565b005b610274610a17565b610287600f5481565b6040519081526020015b60405180910390f35b6102746102a8366004611bb4565b610c29565b6010546102c09062010000900460ff1681565b6040519015158152602001610291565b6102d8610c8f565b6040805197885260208801969096529486019390935260608501919091526080840152151560a0830152151560c082015260e001610291565b61027461031f366004611c02565b610d53565b6001546001600160a01b031633146102c0565b60055461034a906001600160a01b031681565b6040516001600160a01b039091168152602001610291565b610287610370366004611bb4565b60086020526000908152604090205481565b6001546001600160a01b031661034a565b60065461034a906001600160a01b031681565b610287600e5481565b610274610e72565b6102746103c5366004611bb4565b610f16565b610274610f9e565b60035461034a906001600160a01b031681565b6010546102c090610100900460ff1681565b6000546001600160a01b031661034a565b6004546001600160a01b031661034a565b610287611018565b60075461034a906001600160a01b031681565b610274610442366004611c32565b611083565b6010546102c09060ff1681565b610287600b5481565b61027461046b366004611bb4565b61147d565b61028761047e366004611bb4565b60096020526000908152604090205481565b60045461034a906001600160a01b031681565b6102746115bd565b6102876104b9366004611bb4565b600c6020526000908152604090205481565b6102746104d9366004611c02565b611640565b6102746104ec366004611bb4565b6116ab565b6102746104ff366004611c02565b61176d565b610274610512366004611bb4565b6117d8565b610287611909565b610287600a5481565b60105462010000900460ff16156105715760405162461bcd60e51b81526020600482015260086024820152671b5a59dc985d195960c21b60448201526064015b60405180910390fd5b60105460ff16156105c45760405162461bcd60e51b815260206004820152601160248201527f4d696e74696e67206973207061757365640000000000000000000000000000006044820152606401610568565b6000806000600660009054906101000a90046001600160a01b03166001600160a01b031663370158ea6040518163ffffffff1660e01b81526004016101006040518083038186803b15801561061857600080fd5b505afa15801561062c573d6000803e3d6000fd5b505050506040513d601f19601f820116820180604052508101906106509190611c5d565b50600e54600a54600480546040516370a0823160e01b81523092810192909252989c50959a5091985096506106fa958d95506106f4949193506001600160a01b031691506370a08231906024015b60206040518083038186803b1580156106b657600080fd5b505afa1580156106ca573d6000803e3d6000fd5b505050506040513d601f19601f820116820180604052508101906106ee9190611c1a565b906119a4565b906119d7565b11156107485760405162461bcd60e51b815260206004820152600c60248201527f3e706f6f6c4365696c696e6700000000000000000000000000000000000000006044820152606401610568565b6000610752611909565b905060008084156107cd57600061078f620f424061078986600d54600a6107799190611d37565b610783908f611e05565b90611a03565b90611a44565b90506107a28661078983620f4240611a03565b9250620f42408610156107c7576107c487610789620f424061078387866119a4565b91505b506107e4565b6107de620f42406107898a89611a03565b91508790505b60006108016107fa620f42406107898689611a03565b84906119a4565b90508088111561083f5760405162461bcd60e51b81526020600482015260096024820152683e736c69707061676560b81b6044820152606401610568565b81156108fa57888211156108955760405162461bcd60e51b815260206004820152600d60248201527f3c736861726542616c616e6365000000000000000000000000000000000000006044820152606401610568565b6007546040516305060b2d60e11b8152336004820152602481018490526001600160a01b0390911690630a0c165a90604401600060405180830381600087803b1580156108e157600080fd5b505af11580156108f5573d6000803e3d6000fd5b505050505b89156109a657600480546040517f23b872dd0000000000000000000000000000000000000000000000000000000081523392810192909252306024830152604482018c90526001600160a01b0316906323b872dd90606401602060405180830381600087803b15801561096c57600080fd5b505af1158015610980573d6000803e3d6000fd5b505050506040513d601f19601f820116820180604052508101906109a49190611be2565b505b6005546040516306203eab60e11b8152336004820152602481018390526001600160a01b0390911690630c407d56906044015b600060405180830381600087803b1580156109f357600080fd5b505af1158015610a07573d6000803e3d6000fd5b5050505050505050505050505050565b600f54336000908152600c60205260409020544391610a3691906119d7565b1115610a845760405162461bcd60e51b815260206004820152601160248201527f3c726564656d7074696f6e5f64656c61790000000000000000000000000000006044820152606401610568565b3360009081526008602052604081205481908190819015610acb573360009081526008602052604081208054919055600b54909250610ac390836119a4565b600b55600193505b3360009081526009602052604090205415610b0a57503360009081526009602052604081208054919055600a54610b0290826119a4565b600a55600192505b8315610b965760075460405163a9059cbb60e01b8152336004820152602481018490526001600160a01b039091169063a9059cbb90604401602060405180830381600087803b158015610b5c57600080fd5b505af1158015610b70573d6000803e3d6000fd5b505050506040513d601f19601f82011682018060405250810190610b949190611be2565b505b8215610c23576004805460405163a9059cbb60e01b81523392810192909252602482018390526001600160a01b03169063a9059cbb90604401602060405180830381600087803b158015610be957600080fd5b505af1158015610bfd573d6000803e3d6000fd5b505050506040513d601f19601f82011682018060405250810190610c219190611be2565b505b50505050565b6000546001600160a01b03163314610c835760405162461bcd60e51b815260206004820181905260248201527f4f776e61626c653a2063616c6c6572206973206e6f7420746865206f776e65726044820152606401610568565b610c8c81611a50565b50565b600e54600480546040516370a0823160e01b81523092810192909252600092839283928392839283928392916001600160a01b03909116906370a082319060240160206040518083038186803b158015610ce857600080fd5b505afa158015610cfc573d6000803e3d6000fd5b505050506040513d601f19601f82011682018060405250810190610d209190611c1a565b600a54600b54610d2e611909565b601054949c939b509199509750955060ff808316955061010090920490911692509050565b6006546001600160a01b03163314610dad5760405162461bcd60e51b815260206004820152600960248201527f21747265617375727900000000000000000000000000000000000000000000006044820152606401610568565b60008111610dfd5760405162461bcd60e51b815260206004820152600a60248201527f7a65726f416d6f756e74000000000000000000000000000000000000000000006044820152606401610568565b6006546001600160a01b0316610e555760405162461bcd60e51b815260206004820152600f60248201527f696e76616c6964547265617375727900000000000000000000000000000000006044820152606401610568565b600654600454610c8c916001600160a01b03918216911683611b24565b6000546001600160a01b03163314610ecc5760405162461bcd60e51b815260206004820181905260248201527f4f776e61626c653a2063616c6c6572206973206e6f7420746865206f776e65726044820152606401610568565b600080546040516001600160a01b03909116907f8be0079c531659141344cd1fd0a4f28419497f9722a3daafe3b4186f6b6457e0908390a3600080546001600160a01b0319169055565b6001546001600160a01b03163314610f7c5760405162461bcd60e51b8152602060048201526024808201527f6f70657261746f723a2063616c6c6572206973206e6f7420746865206f70657260448201526330ba37b960e11b6064820152608401610568565b600380546001600160a01b0319166001600160a01b0392909216919091179055565b6001546001600160a01b031633146110045760405162461bcd60e51b8152602060048201526024808201527f6f70657261746f723a2063616c6c6572206973206e6f7420746865206f70657260448201526330ba37b960e11b6064820152608401610568565b6010805460ff19811660ff90911615179055565b600080611023611909565b905061107d620f424061078983610783600d54600a6110429190611d37565b600a54600480546040516370a0823160e01b8152309281019290925261078392916001600160a01b03909116906370a082319060240161069e565b91505090565b60105462010000900460ff16156110c75760405162461bcd60e51b81526020600482015260086024820152671b5a59dc985d195960c21b6044820152606401610568565b601054610100900460ff161561111f5760405162461bcd60e51b815260206004820152601360248201527f52656465656d696e6720697320706175736564000000000000000000000000006044820152606401610568565b6000806000600660009054906101000a90046001600160a01b03166001600160a01b031663370158ea6040518163ffffffff1660e01b81526004016101006040518083038186803b15801561117357600080fd5b505afa158015611187573d6000803e3d6000fd5b505050506040513d601f19601f820116820180604052508101906111ab9190611c5d565b975050509550505093505060006111c0611909565b905060006111df6111d8620f42406107898b87611a03565b89906119a4565b9050600080620f424086101561122357600061120c611205620f4240610789878b611a03565b85906119a4565b905061121f8861078983620f4240611a03565b9150505b851561126657600061124f620f424061078989610783600d54600a6112489190611d37565b8990611a44565b90506112628561078983620f4240611a03565b9250505b600a54600480546040516370a0823160e01b815230928101929092526112a192916001600160a01b03909116906370a082319060240161069e565b8211156112f05760405162461bcd60e51b815260206004820152601260248201527f3c636f6c6c61746572616c426c616e61636500000000000000000000000000006044820152606401610568565b8188111580156113005750808911155b6113385760405162461bcd60e51b81526020600482015260096024820152683e736c69707061676560b81b6044820152606401610568565b8115611379573360009081526009602052604090205461135890836119d7565b33600090815260096020526040902055600a5461137590836119d7565b600a555b80156113ba573360009081526008602052604090205461139990826119d7565b33600090815260086020526040902055600b546113b690826119d7565b600b555b336000818152600c60205260409081902043905560055490516305060b2d60e11b81526004810192909252602482018c90526001600160a01b031690630a0c165a90604401600060405180830381600087803b15801561141957600080fd5b505af115801561142d573d6000803e3d6000fd5b505050506000811115611471576007546040516306203eab60e11b8152306004820152602481018390526001600160a01b0390911690630c407d56906044016109d9565b50505050505050505050565b6001600260008282546114909190611cb9565b90915550506002546001546001600160a01b031633146114fe5760405162461bcd60e51b8152602060048201526024808201527f6f70657261746f723a2063616c6c6572206973206e6f7420746865206f70657260448201526330ba37b960e11b6064820152608401610568565b60105462010000900460ff16156115425760405162461bcd60e51b81526020600482015260086024820152671b5a59dc985d195960c21b6044820152606401610568565b6010805462ff0000191662010000179055600a54600480546040516370a0823160e01b815230928101929092526000926115909290916001600160a01b0316906370a082319060240161069e565b6004549091506115aa906001600160a01b03168483611b24565b5060025481146115b957600080fd5b5050565b6001546001600160a01b031633146116235760405162461bcd60e51b8152602060048201526024808201527f6f70657261746f723a2063616c6c6572206973206e6f7420746865206f70657260448201526330ba37b960e11b6064820152608401610568565b6010805461ff001981166101009182900460ff1615909102179055565b6001546001600160a01b031633146116a65760405162461bcd60e51b8152602060048201526024808201527f6f70657261746f723a2063616c6c6572206973206e6f7420746865206f70657260448201526330ba37b960e11b6064820152608401610568565b600e55565b6001546001600160a01b031633146117115760405162461bcd60e51b8152602060048201526024808201527f6f70657261746f723a2063616c6c6572206973206e6f7420746865206f70657260448201526330ba37b960e11b6064820152608401610568565b6006546040516001600160a01b038084169216907febebcc22237fa047dcfebf54b185ec126c9b24d45f4bd2a18e4fa02e07308c4090600090a3600680546001600160a01b0319166001600160a01b0392909216919091179055565b6001546001600160a01b031633146117d35760405162461bcd60e51b8152602060048201526024808201527f6f70657261746f723a2063616c6c6572206973206e6f7420746865206f70657260448201526330ba37b960e11b6064820152608401610568565b600f55565b6000546001600160a01b031633146118325760405162461bcd60e51b815260206004820181905260248201527f4f776e61626c653a2063616c6c6572206973206e6f7420746865206f776e65726044820152606401610568565b6001600160a01b0381166118ae5760405162461bcd60e51b815260206004820152602660248201527f4f776e61626c653a206e6577206f776e657220697320746865207a65726f206160448201527f64647265737300000000000000000000000000000000000000000000000000006064820152608401610568565b600080546040516001600160a01b03808516939216917f8be0079c531659141344cd1fd0a4f28419497f9722a3daafe3b4186f6b6457e091a3600080546001600160a01b0319166001600160a01b0392909216919091179055565b600354604080517f7eeda70300000000000000000000000000000000000000000000000000000000815290516000926001600160a01b031691637eeda703916004808301926020929190829003018186803b15801561196757600080fd5b505afa15801561197b573d6000803e3d6000fd5b505050506040513d601f19601f8201168201806040525081019061199f9190611c1a565b905090565b6000828211156119c457634e487b7160e01b600052600160045260246000fd5b6119ce8284611e24565b90505b92915050565b60006119e38284611cb9565b9050828110156119d157634e487b7160e01b600052600160045260246000fd5b600082611a12575060006119d1565b611a1c8284611e05565b905081611a298483611cd1565b146119d157634e487b7160e01b600052600160045260246000fd5b60006119ce8284611cd1565b6001600160a01b038116611acc5760405162461bcd60e51b815260206004820152602d60248201527f6f70657261746f723a207a65726f206164647265737320676976656e20666f7260448201527f206e6577206f70657261746f72000000000000000000000000000000000000006064820152608401610568565b6040516001600160a01b038216906000907f74da04524d50c64947f5dd5381ef1a4dca5cba8ed1d816243f9e48aa0b5617ed908290a3600180546001600160a01b0319166001600160a01b0392909216919091179055565b60405163a9059cbb60e01b81526001600160a01b0383811660048301526024820183905284169063a9059cbb90604401602060405180830381600087803b158015611b6e57600080fd5b505af1158015611b82573d6000803e3d6000fd5b505050506040513d601f19601f82011682018060405250810190611ba69190611be2565b611baf57600080fd5b505050565b600060208284031215611bc5578081fd5b81356001600160a01b0381168114611bdb578182fd5b9392505050565b600060208284031215611bf3578081fd5b81518015158114611bdb578182fd5b600060208284031215611c13578081fd5b5035919050565b600060208284031215611c2b578081fd5b5051919050565b600080600060608486031215611c46578182fd5b505081359360208301359350604090920135919050565b600080600080600080600080610100898b031215611c79578384fd5b505086516020880151604089015160608a015160808b015160a08c015160c08d015160e0909d0151959e949d50929b919a50985090965094509092509050565b60008219821115611ccc57611ccc611e3b565b500190565b600082611cec57634e487b7160e01b81526012600452602481fd5b500490565b80825b6001808611611d035750611d2e565b818704821115611d1557611d15611e3b565b80861615611d2257918102915b9490941c938002611cf4565b94509492505050565b60006119ce6000198484600082611d5057506001611bdb565b81611d5d57506000611bdb565b8160018114611d735760028114611d7d57611daa565b6001915050611bdb565b60ff841115611d8e57611d8e611e3b565b6001841b915084821115611da457611da4611e3b565b50611bdb565b5060208310610133831016604e8410600b8410161715611ddd575081810a83811115611dd857611dd8611e3b565b611bdb565b611dea8484846001611cf1565b808604821115611dfc57611dfc611e3b565b02949350505050565b6000816000190483118215151615611e1f57611e1f611e3b565b500290565b600082821015611e3657611e36611e3b565b500390565b634e487b7160e01b600052601160045260246000fdfea26469706673582212209e8e8ce4f55ee679332bcb4b49fde999759ab5aa94e044d393084ec16b5b421964736f6c63430008030033",
  "immutableReferences": {},
  "source": "// SPDX-License-Identifier: MIT\r\n\r\npragma solidity ^0.8.0;\r\npragma experimental ABIEncoderV2;\r\n\r\nimport \"./openZeppelin/SafeMath.sol\";\r\nimport \"./openZeppelin/ERC20.sol\";\r\nimport \"./openZeppelin/SafeERC20.sol\";\r\nimport \"./openZeppelin/ReentrancyGuard.sol\";\r\n\r\nimport \"./interfaces/IShare.sol\";\r\nimport \"./interfaces/IDollar.sol\";\r\nimport \"./interfaces/ITreasury.sol\";\r\nimport \"./interfaces/IOracle.sol\";\r\nimport \"./interfaces/IPool.sol\";\r\nimport \"./Operator.sol\";\r\n\r\ncontract PoolAGOUSD is Operator, ReentrancyGuard, IPool {\r\n    using SafeMath for uint256;\r\n    using SafeERC20 for ERC20;\r\n\r\n    /* ========== STATE VARIABLES ========== */\r\n\r\n    address public oracle; // oracle to get price of collateral\r\n    address public collateral;\r\n    address public dollar;\r\n    address public treasury;\r\n    address public share;\r\n\r\n    mapping(address => uint256) public redeem_share_balances;\r\n    mapping(address => uint256) public redeem_collateral_balances;\r\n\r\n    uint256 public unclaimed_pool_collateral;\r\n    uint256 public unclaimed_pool_share;\r\n\r\n    mapping(address => uint256) public last_redeemed;\r\n\r\n    // Constants for various precisions\r\n    uint256 private constant PRICE_PRECISION = 1e6;\r\n    uint256 private constant COLLATERAL_RATIO_PRECISION = 1e6;\r\n    uint256 private constant COLLATERAL_RATIO_MAX = 1e6;\r\n\r\n    // Number of decimals needed to get to 18\r\n    uint256 private missing_decimals;\r\n\r\n    // Pool_ceiling is the total units of collateral that a pool contract can hold\r\n    uint256 public pool_ceiling = 0;\r\n\r\n    // Number of blocks to wait before being able to collectRedemption()\r\n    uint256 public redemption_delay = 1;\r\n\r\n    // AccessControl state variables\r\n    bool public mint_paused = false;\r\n    bool public redeem_paused = false;\r\n    bool public migrated = false;\r\n\r\n    /* ========== MODIFIERS ========== */\r\n\r\n    modifier notMigrated() {\r\n        require(!migrated, \"migrated\");\r\n        _;\r\n    }\r\n\r\n    modifier onlyTreasury() {\r\n        require(msg.sender == treasury, \"!treasury\");\r\n        _;\r\n    }\r\n\r\n    /* ========== CONSTRUCTOR ========== */\r\n\r\n    constructor(\r\n        address _dollar,\r\n        address _share,\r\n        address _collateral,\r\n        address _treasury,\r\n        uint256 _pool_ceiling\r\n    ){\r\n        dollar = _dollar;\r\n        share = _share;\r\n        collateral = _collateral;\r\n        treasury = _treasury;\r\n        pool_ceiling = _pool_ceiling;\r\n        missing_decimals = uint256(18).sub(ERC20(_collateral).decimals());\r\n    }\r\n\r\n    /* ========== VIEWS ========== */\r\n\r\n    // Returns dollar value of collateral held in this pool\r\n    function collateralDollarBalance() external view override returns (uint256) {\r\n        uint256 collateral_usd_price = getCollateralPrice();\r\n        return (ERC20(collateral).balanceOf(address(this)).sub(unclaimed_pool_collateral)).mul(10**missing_decimals).mul(collateral_usd_price).div(PRICE_PRECISION);\r\n    }\r\n\r\n    function info()\r\n        external\r\n        view\r\n        returns (\r\n            uint256,\r\n            uint256,\r\n            uint256,\r\n            uint256,\r\n            uint256,\r\n            bool,\r\n            bool\r\n        )\r\n    {\r\n        return (\r\n            pool_ceiling, // Ceiling of pool - collateral-amount\r\n            ERC20(collateral).balanceOf(address(this)), // amount of COLLATERAL locked in this contract\r\n            unclaimed_pool_collateral, // unclaimed amount of COLLATERAL\r\n            unclaimed_pool_share, // unclaimed amount of SHARE\r\n            getCollateralPrice(), // collateral price\r\n            mint_paused,\r\n            redeem_paused\r\n        );\r\n    }\r\n\r\n    /* ========== PUBLIC FUNCTIONS ========== */\r\n\r\n    function getCollateralPrice() public view override returns (uint256) {\r\n        return IOracle(oracle).consult();\r\n    }\r\n\r\n    function getCollateralToken() external view override returns (address) {\r\n        return collateral;\r\n    }\r\n\r\n    function mint(\r\n        uint256 _collateral_amount,\r\n        uint256 _share_amount,\r\n        uint256 _dollar_out_min\r\n    ) external notMigrated {\r\n        require(mint_paused == false, \"Minting is paused\");\r\n        (, uint256 _share_price, , uint256 _target_collateral_ratio, , , uint256 _minting_fee, ) = ITreasury(treasury).info();\r\n        require(ERC20(collateral).balanceOf(address(this)).sub(unclaimed_pool_collateral).add(_collateral_amount) <= pool_ceiling, \">poolCeiling\");\r\n        uint256 _price_collateral = getCollateralPrice();\r\n        uint256 _total_dollar_value = 0;\r\n        uint256 _required_share_amount = 0;\r\n        if (_target_collateral_ratio > 0) {\r\n            uint256 _collateral_value = (_collateral_amount * (10**missing_decimals)).mul(_price_collateral).div(PRICE_PRECISION);\r\n            _total_dollar_value = _collateral_value.mul(COLLATERAL_RATIO_PRECISION).div(_target_collateral_ratio);\r\n            if (_target_collateral_ratio < COLLATERAL_RATIO_MAX) {\r\n                _required_share_amount = _total_dollar_value.sub(_collateral_value).mul(PRICE_PRECISION).div(_share_price);\r\n            }\r\n        } else {\r\n            _total_dollar_value = _share_amount.mul(_share_price).div(PRICE_PRECISION);\r\n            _required_share_amount = _share_amount;\r\n        }\r\n        uint256 _actual_dollar_amount = _total_dollar_value.sub((_total_dollar_value.mul(_minting_fee)).div(PRICE_PRECISION));\r\n        require(_dollar_out_min <= _actual_dollar_amount, \">slippage\");\r\n\r\n        if (_required_share_amount > 0) {\r\n            require(_required_share_amount <= _share_amount, \"<shareBalance\");\r\n            IShare(share).poolBurnFrom(msg.sender, _required_share_amount);\r\n        }\r\n        if (_collateral_amount > 0) {\r\n            ERC20(collateral).transferFrom(msg.sender, address(this), _collateral_amount);\r\n        }\r\n        IDollar(dollar).poolMint(msg.sender, _actual_dollar_amount);\r\n    }\r\n\r\n    function redeem(\r\n        uint256 _dollar_amount,\r\n        uint256 _share_out_min,\r\n        uint256 _collateral_out_min\r\n    ) external notMigrated {\r\n        require(redeem_paused == false, \"Redeeming is paused\");\r\n        (, uint256 _share_price, , , uint256 _effective_collateral_ratio, , , uint256 _redemption_fee) = ITreasury(treasury).info();\r\n        uint256 _collateral_price = getCollateralPrice();\r\n        uint256 _dollar_amount_post_fee = _dollar_amount.sub((_dollar_amount.mul(_redemption_fee)).div(PRICE_PRECISION));\r\n        uint256 _collateral_output_amount = 0;\r\n        uint256 _share_output_amount = 0;\r\n\r\n        if (_effective_collateral_ratio < COLLATERAL_RATIO_MAX) {\r\n            uint256 _share_output_value = _dollar_amount_post_fee.sub(_dollar_amount_post_fee.mul(_effective_collateral_ratio).div(PRICE_PRECISION));\r\n            _share_output_amount = _share_output_value.mul(PRICE_PRECISION).div(_share_price);\r\n        }\r\n\r\n        if (_effective_collateral_ratio > 0) {\r\n            uint256 _collateral_output_value = _dollar_amount_post_fee.div(10**missing_decimals).mul(_effective_collateral_ratio).div(PRICE_PRECISION);\r\n            _collateral_output_amount = _collateral_output_value.mul(PRICE_PRECISION).div(_collateral_price);\r\n        }\r\n\r\n        // Check if collateral balance meets and meet output expectation\r\n        require(_collateral_output_amount <= ERC20(collateral).balanceOf(address(this)).sub(unclaimed_pool_collateral), \"<collateralBlanace\");\r\n        require(_collateral_out_min <= _collateral_output_amount && _share_out_min <= _share_output_amount, \">slippage\");\r\n\r\n        if (_collateral_output_amount > 0) {\r\n            redeem_collateral_balances[msg.sender] = redeem_collateral_balances[msg.sender].add(_collateral_output_amount);\r\n            unclaimed_pool_collateral = unclaimed_pool_collateral.add(_collateral_output_amount);\r\n        }\r\n\r\n        if (_share_output_amount > 0) {\r\n            redeem_share_balances[msg.sender] = redeem_share_balances[msg.sender].add(_share_output_amount);\r\n            unclaimed_pool_share = unclaimed_pool_share.add(_share_output_amount);\r\n        }\r\n\r\n        last_redeemed[msg.sender] = block.number;\r\n\r\n        // Move all external functions to the end\r\n        IDollar(dollar).poolBurnFrom(msg.sender, _dollar_amount);\r\n        if (_share_output_amount > 0) {\r\n            IShare(share).poolMint(address(this), _share_output_amount);\r\n        }\r\n    }\r\n\r\n    function collectRedemption() external {\r\n        // Redeem and Collect cannot happen in the same transaction to avoid flash loan attack\r\n        require((last_redeemed[msg.sender].add(redemption_delay)) <= block.number, \"<redemption_delay\");\r\n\r\n        bool _send_share = false;\r\n        bool _send_collateral = false;\r\n        uint256 _share_amount;\r\n        uint256 _collateral_amount;\r\n\r\n        // Use Checks-Effects-Interactions pattern\r\n        if (redeem_share_balances[msg.sender] > 0) {\r\n            _share_amount = redeem_share_balances[msg.sender];\r\n            redeem_share_balances[msg.sender] = 0;\r\n            unclaimed_pool_share = unclaimed_pool_share.sub(_share_amount);\r\n            _send_share = true;\r\n        }\r\n\r\n        if (redeem_collateral_balances[msg.sender] > 0) {\r\n            _collateral_amount = redeem_collateral_balances[msg.sender];\r\n            redeem_collateral_balances[msg.sender] = 0;\r\n            unclaimed_pool_collateral = unclaimed_pool_collateral.sub(_collateral_amount);\r\n            _send_collateral = true;\r\n        }\r\n\r\n        if (_send_share) {\r\n            ERC20(share).transfer(msg.sender, _share_amount);\r\n        }\r\n\r\n        if (_send_collateral) {\r\n            ERC20(collateral).transfer(msg.sender, _collateral_amount);\r\n        }\r\n    }\r\n\r\n    /* ========== RESTRICTED FUNCTIONS ========== */\r\n\r\n    // move collateral to new pool address\r\n    function migrate(address _new_pool) external override nonReentrant onlyOperator notMigrated {\r\n        migrated = true;\r\n        uint256 availableCollateral = ERC20(collateral).balanceOf(address(this)).sub(unclaimed_pool_collateral);\r\n        ERC20(collateral).safeTransfer(_new_pool, availableCollateral);\r\n    }\r\n\r\n    function toggleMinting() external onlyOperator {\r\n        mint_paused = !mint_paused;\r\n    }\r\n\r\n    function toggleRedeeming() external onlyOperator {\r\n        redeem_paused = !redeem_paused;\r\n    }\r\n\r\n    function setOracle(address _oracle) external onlyOperator {\r\n        oracle = _oracle;\r\n    }\r\n\r\n    function setPoolCeiling(uint256 _pool_ceiling) external onlyOperator {\r\n        pool_ceiling = _pool_ceiling;\r\n    }\r\n\r\n    function setRedemptionDelay(uint256 _redemption_delay) external onlyOperator {\r\n        redemption_delay = _redemption_delay;\r\n    }\r\n\r\n    function setTreasury(address _treasury) external onlyOperator {\r\n        emit TreasuryTransferred(treasury, _treasury);\r\n        treasury = _treasury;\r\n    }\r\n\r\n    // Transfer collateral to Treasury to execute strategies\r\n    function transferCollateralToTreasury(uint256 amount) external override onlyTreasury {\r\n        require(amount > 0, \"zeroAmount\");\r\n        require(treasury != address(0), \"invalidTreasury\");\r\n        ERC20(collateral).safeTransfer(treasury, amount);\r\n    }\r\n\r\n    // EVENTS\r\n\r\n    event TreasuryTransferred(address indexed previousTreasury, address indexed newTreasury);\r\n}\r\n",
  "sourcePath": "C:/Users/PaulMuller/Documents/projects/project_AGO/contracts/PoolAGOUSD.sol",
  "compiler": {
    "name": "solc",
    "version": "0.8.3+commit.8d00100c.Emscripten.clang"
  },
  "schemaVersion": "3.3.4",
  "updatedAt": "2021-04-20T19:02:36.003Z",
  "networkType": "ethereum",
  "devdoc": {
    "kind": "dev",
    "methods": {},
    "version": 1
  },
  "userdoc": {
    "kind": "user",
    "methods": {},
    "version": 1
  }
}