{
  "contractName": "PoolAGOUSD",
  "abi": [
    {
      "inputs": [
        {
          "internalType": "address",
          "name": "_dollar",
          "type": "address"
        },
        {
          "internalType": "address",
          "name": "_share",
          "type": "address"
        },
        {
          "internalType": "address",
          "name": "_collateral",
          "type": "address"
        },
        {
          "internalType": "address",
          "name": "_treasury",
          "type": "address"
        },
        {
          "internalType": "uint256",
          "name": "_pool_ceiling",
          "type": "uint256"
        }
      ],
      "stateMutability": "nonpayable",
      "type": "constructor"
    },
    {
      "anonymous": false,
      "inputs": [
        {
          "indexed": true,
          "internalType": "address",
          "name": "previousOperator",
          "type": "address"
        },
        {
          "indexed": true,
          "internalType": "address",
          "name": "newOperator",
          "type": "address"
        }
      ],
      "name": "OperatorTransferred",
      "type": "event"
    },
    {
      "anonymous": false,
      "inputs": [
        {
          "indexed": true,
          "internalType": "address",
          "name": "previousOwner",
          "type": "address"
        },
        {
          "indexed": true,
          "internalType": "address",
          "name": "newOwner",
          "type": "address"
        }
      ],
      "name": "OwnershipTransferred",
      "type": "event"
    },
    {
      "anonymous": false,
      "inputs": [
        {
          "indexed": true,
          "internalType": "address",
          "name": "previousTreasury",
          "type": "address"
        },
        {
          "indexed": true,
          "internalType": "address",
          "name": "newTreasury",
          "type": "address"
        }
      ],
      "name": "TreasuryTransferred",
      "type": "event"
    },
    {
      "inputs": [],
      "name": "collateral",
      "outputs": [
        {
          "internalType": "address",
          "name": "",
          "type": "address"
        }
      ],
      "stateMutability": "view",
      "type": "function",
      "constant": true
    },
    {
      "inputs": [],
      "name": "dollar",
      "outputs": [
        {
          "internalType": "address",
          "name": "",
          "type": "address"
        }
      ],
      "stateMutability": "view",
      "type": "function",
      "constant": true
    },
    {
      "inputs": [],
      "name": "isOperator",
      "outputs": [
        {
          "internalType": "bool",
          "name": "",
          "type": "bool"
        }
      ],
      "stateMutability": "view",
      "type": "function",
      "constant": true
    },
    {
      "inputs": [
        {
          "internalType": "address",
          "name": "",
          "type": "address"
        }
      ],
      "name": "last_redeemed",
      "outputs": [
        {
          "internalType": "uint256",
          "name": "",
          "type": "uint256"
        }
      ],
      "stateMutability": "view",
      "type": "function",
      "constant": true
    },
    {
      "inputs": [],
      "name": "migrated",
      "outputs": [
        {
          "internalType": "bool",
          "name": "",
          "type": "bool"
        }
      ],
      "stateMutability": "view",
      "type": "function",
      "constant": true
    },
    {
      "inputs": [],
      "name": "mint_paused",
      "outputs": [
        {
          "internalType": "bool",
          "name": "",
          "type": "bool"
        }
      ],
      "stateMutability": "view",
      "type": "function",
      "constant": true
    },
    {
      "inputs": [],
      "name": "operator",
      "outputs": [
        {
          "internalType": "address",
          "name": "",
          "type": "address"
        }
      ],
      "stateMutability": "view",
      "type": "function",
      "constant": true
    },
    {
      "inputs": [],
      "name": "oracle",
      "outputs": [
        {
          "internalType": "address",
          "name": "",
          "type": "address"
        }
      ],
      "stateMutability": "view",
      "type": "function",
      "constant": true
    },
    {
      "inputs": [],
      "name": "owner",
      "outputs": [
        {
          "internalType": "address",
          "name": "",
          "type": "address"
        }
      ],
      "stateMutability": "view",
      "type": "function",
      "constant": true
    },
    {
      "inputs": [],
      "name": "pool_ceiling",
      "outputs": [
        {
          "internalType": "uint256",
          "name": "",
          "type": "uint256"
        }
      ],
      "stateMutability": "view",
      "type": "function",
      "constant": true
    },
    {
      "inputs": [
        {
          "internalType": "address",
          "name": "",
          "type": "address"
        }
      ],
      "name": "redeem_collateral_balances",
      "outputs": [
        {
          "internalType": "uint256",
          "name": "",
          "type": "uint256"
        }
      ],
      "stateMutability": "view",
      "type": "function",
      "constant": true
    },
    {
      "inputs": [],
      "name": "redeem_paused",
      "outputs": [
        {
          "internalType": "bool",
          "name": "",
          "type": "bool"
        }
      ],
      "stateMutability": "view",
      "type": "function",
      "constant": true
    },
    {
      "inputs": [
        {
          "internalType": "address",
          "name": "",
          "type": "address"
        }
      ],
      "name": "redeem_share_balances",
      "outputs": [
        {
          "internalType": "uint256",
          "name": "",
          "type": "uint256"
        }
      ],
      "stateMutability": "view",
      "type": "function",
      "constant": true
    },
    {
      "inputs": [],
      "name": "redemption_delay",
      "outputs": [
        {
          "internalType": "uint256",
          "name": "",
          "type": "uint256"
        }
      ],
      "stateMutability": "view",
      "type": "function",
      "constant": true
    },
    {
      "inputs": [],
      "name": "renounceOwnership",
      "outputs": [],
      "stateMutability": "nonpayable",
      "type": "function"
    },
    {
      "inputs": [],
      "name": "share",
      "outputs": [
        {
          "internalType": "address",
          "name": "",
          "type": "address"
        }
      ],
      "stateMutability": "view",
      "type": "function",
      "constant": true
    },
    {
      "inputs": [
        {
          "internalType": "address",
          "name": "newOperator_",
          "type": "address"
        }
      ],
      "name": "transferOperator",
      "outputs": [],
      "stateMutability": "nonpayable",
      "type": "function"
    },
    {
      "inputs": [
        {
          "internalType": "address",
          "name": "newOwner",
          "type": "address"
        }
      ],
      "name": "transferOwnership",
      "outputs": [],
      "stateMutability": "nonpayable",
      "type": "function"
    },
    {
      "inputs": [],
      "name": "treasury",
      "outputs": [
        {
          "internalType": "address",
          "name": "",
          "type": "address"
        }
      ],
      "stateMutability": "view",
      "type": "function",
      "constant": true
    },
    {
      "inputs": [],
      "name": "unclaimed_pool_collateral",
      "outputs": [
        {
          "internalType": "uint256",
          "name": "",
          "type": "uint256"
        }
      ],
      "stateMutability": "view",
      "type": "function",
      "constant": true
    },
    {
      "inputs": [],
      "name": "unclaimed_pool_share",
      "outputs": [
        {
          "internalType": "uint256",
          "name": "",
          "type": "uint256"
        }
      ],
      "stateMutability": "view",
      "type": "function",
      "constant": true
    },
    {
      "inputs": [],
      "name": "collateralDollarBalance",
      "outputs": [
        {
          "internalType": "uint256",
          "name": "",
          "type": "uint256"
        }
      ],
      "stateMutability": "view",
      "type": "function",
      "constant": true
    },
    {
      "inputs": [],
      "name": "info",
      "outputs": [
        {
          "internalType": "uint256",
          "name": "",
          "type": "uint256"
        },
        {
          "internalType": "uint256",
          "name": "",
          "type": "uint256"
        },
        {
          "internalType": "uint256",
          "name": "",
          "type": "uint256"
        },
        {
          "internalType": "uint256",
          "name": "",
          "type": "uint256"
        },
        {
          "internalType": "uint256",
          "name": "",
          "type": "uint256"
        },
        {
          "internalType": "bool",
          "name": "",
          "type": "bool"
        },
        {
          "internalType": "bool",
          "name": "",
          "type": "bool"
        }
      ],
      "stateMutability": "view",
      "type": "function",
      "constant": true
    },
    {
      "inputs": [],
      "name": "getCollateralPrice",
      "outputs": [
        {
          "internalType": "uint256",
          "name": "",
          "type": "uint256"
        }
      ],
      "stateMutability": "view",
      "type": "function",
      "constant": true
    },
    {
      "inputs": [],
      "name": "getCollateralToken",
      "outputs": [
        {
          "internalType": "address",
          "name": "",
          "type": "address"
        }
      ],
      "stateMutability": "view",
      "type": "function",
      "constant": true
    },
    {
      "inputs": [
        {
          "internalType": "uint256",
          "name": "_collateral_amount",
          "type": "uint256"
        },
        {
          "internalType": "uint256",
          "name": "_share_amount",
          "type": "uint256"
        },
        {
          "internalType": "uint256",
          "name": "_dollar_out_min",
          "type": "uint256"
        }
      ],
      "name": "mint",
      "outputs": [],
      "stateMutability": "nonpayable",
      "type": "function"
    },
    {
      "inputs": [
        {
          "internalType": "uint256",
          "name": "_dollar_amount",
          "type": "uint256"
        },
        {
          "internalType": "uint256",
          "name": "_share_out_min",
          "type": "uint256"
        },
        {
          "internalType": "uint256",
          "name": "_collateral_out_min",
          "type": "uint256"
        }
      ],
      "name": "redeem",
      "outputs": [],
      "stateMutability": "nonpayable",
      "type": "function"
    },
    {
      "inputs": [],
      "name": "collectRedemption",
      "outputs": [],
      "stateMutability": "nonpayable",
      "type": "function"
    },
    {
      "inputs": [
        {
          "internalType": "address",
          "name": "_new_pool",
          "type": "address"
        }
      ],
      "name": "migrate",
      "outputs": [],
      "stateMutability": "nonpayable",
      "type": "function"
    },
    {
      "inputs": [],
      "name": "toggleMinting",
      "outputs": [],
      "stateMutability": "nonpayable",
      "type": "function"
    },
    {
      "inputs": [],
      "name": "toggleRedeeming",
      "outputs": [],
      "stateMutability": "nonpayable",
      "type": "function"
    },
    {
      "inputs": [
        {
          "internalType": "address",
          "name": "_oracle",
          "type": "address"
        }
      ],
      "name": "setOracle",
      "outputs": [],
      "stateMutability": "nonpayable",
      "type": "function"
    },
    {
      "inputs": [
        {
          "internalType": "uint256",
          "name": "_pool_ceiling",
          "type": "uint256"
        }
      ],
      "name": "setPoolCeiling",
      "outputs": [],
      "stateMutability": "nonpayable",
      "type": "function"
    },
    {
      "inputs": [
        {
          "internalType": "uint256",
          "name": "_redemption_delay",
          "type": "uint256"
        }
      ],
      "name": "setRedemptionDelay",
      "outputs": [],
      "stateMutability": "nonpayable",
      "type": "function"
    },
    {
      "inputs": [
        {
          "internalType": "address",
          "name": "_treasury",
          "type": "address"
        }
      ],
      "name": "setTreasury",
      "outputs": [],
      "stateMutability": "nonpayable",
      "type": "function"
    },
    {
      "inputs": [
        {
          "internalType": "uint256",
          "name": "amount",
          "type": "uint256"
        }
      ],
      "name": "transferCollateralToTreasury",
      "outputs": [],
      "stateMutability": "nonpayable",
      "type": "function"
    }
  ],
  "bytecode": "0x6080604052600160028190556000600e55600f556010805462ffffff191690553480156200002c57600080fd5b5060405162001e2838038062001e288339810160408190526200004f916200020f565b600080546001600160a01b031916339081178255604051909182917f8be0079c531659141344cd1fd0a4f28419497f9722a3daafe3b4186f6b6457e0908290a350600180546001600160a01b031916339081179091556040516000907f74da04524d50c64947f5dd5381ef1a4dca5cba8ed1d816243f9e48aa0b5617ed908290a3600580546001600160a01b038088166001600160a01b031992831617909255600780548784169083161790556004805486841690831681178255600680549487169490931693909317909155600e8390556040805163313ce56760e01b81529051620001af939263313ce56792808201926020929091829003018186803b1580156200015b57600080fd5b505afa15801562000170573d6000803e3d6000fd5b505050506040513d601f19601f8201168201806040525081019062000196919062000275565b60ff166012620001be60201b620016171790919060201c565b600d5550620002bc9350505050565b600082821115620001df57634e487b7160e01b600052600160045260246000fd5b620001eb828462000298565b9392505050565b80516001600160a01b03811681146200020a57600080fd5b919050565b600080600080600060a0868803121562000227578081fd5b6200023286620001f2565b94506200024260208701620001f2565b93506200025260408701620001f2565b92506200026260608701620001f2565b9150608086015190509295509295909350565b60006020828403121562000287578081fd5b815160ff81168114620001eb578182fd5b600082821015620002b757634e487b7160e01b81526011600452602481fd5b500390565b611b5c80620002cc6000396000f3fe608060405234801561001057600080fd5b506004361061021c5760003560e01c80638da5cb5b11610125578063d8dfeb45116100ad578063f0f442601161007c578063f0f442601461049e578063f1a9ee03146104b1578063f2fde38b146104c4578063f7683bbc146104d7578063ff626c5f146104df57600080fd5b8063d8dfeb4514610450578063daa5048514610463578063dc0d2a981461046b578063e86bc6191461048b57600080fd5b8063b8192205116100f4578063b8192205146103f4578063c7d2722814610407578063c82c4d0e14610414578063ce5494bb1461041d578063d0d132f31461043057600080fd5b80638da5cb5b146103b757806396423663146103c85780639c84d0f5146103d9578063a8d5fd65146103e157600080fd5b806354367135116101a8578063715018a611610177578063715018a61461036f5780637adbf973146103775780637d55094d1461038a5780637dc0d1d01461039257806380a66d05146103a557600080fd5b80635436713514610322578063570ca7351461034257806361d027b3146103535780636526a12a1461036657600080fd5b80632c678c64116101ef5780632c678c641461026d578063370158ea14610290578063378f3576146102d15780634456eda2146102e457806351adeb57146102f757600080fd5b806302acc94b1461022157806312ace5a214610236578063151284251461023e57806329605e771461025a575b600080fd5b61023461022f366004611895565b6104e8565b005b61023461097a565b610247600f5481565b6040519081526020015b60405180910390f35b610234610268366004611817565b610b80565b6010546102809062010000900460ff1681565b6040519015158152602001610251565b610298610bb6565b6040805197885260208801969096529486019390935260608501919091526080840152151560a0830152151560c082015260e001610251565b6102346102df366004611865565b610c7a565b6001546001600160a01b03163314610280565b60055461030a906001600160a01b031681565b6040516001600160a01b039091168152602001610251565b610247610330366004611817565b60086020526000908152604090205481565b6001546001600160a01b031661030a565b60065461030a906001600160a01b031681565b610247600e5481565b610234610d64565b610234610385366004611817565b610dd8565b610234610e24565b60035461030a906001600160a01b031681565b60105461028090610100900460ff1681565b6000546001600160a01b031661030a565b6004546001600160a01b031661030a565b610247610e62565b60075461030a906001600160a01b031681565b610234610402366004611895565b610ecd565b6010546102809060ff1681565b610247600b5481565b61023461042b366004611817565b611297565b61024761043e366004611817565b60096020526000908152604090205481565b60045461030a906001600160a01b031681565b610234611380565b610247610479366004611817565b600c6020526000908152604090205481565b610234610499366004611865565b6113c7565b6102346104ac366004611817565b6113f6565b6102346104bf366004611865565b61147c565b6102346104d2366004611817565b6114ab565b610247611595565b610247600a5481565b60105462010000900460ff161561051a5760405162461bcd60e51b81526004016105119061191c565b60405180910390fd5b60105460ff16156105615760405162461bcd60e51b8152602060048201526011602482015270135a5b9d1a5b99c81a5cc81c185d5cd959607a1b6044820152606401610511565b6000806000600660009054906101000a90046001600160a01b03166001600160a01b031663370158ea6040518163ffffffff1660e01b81526004016101006040518083038186803b1580156105b557600080fd5b505afa1580156105c9573d6000803e3d6000fd5b505050506040513d601f19601f820116820180604052508101906105ed91906118c0565b50600e54600a54600480546040516370a0823160e01b81523092810192909252989c50959a509198509650610697958d9550610691949193506001600160a01b031691506370a08231906024015b60206040518083038186803b15801561065357600080fd5b505afa158015610667573d6000803e3d6000fd5b505050506040513d601f19601f8201168201806040525081019061068b919061187d565b90611617565b9061164a565b11156106d45760405162461bcd60e51b815260206004820152600c60248201526b3e706f6f6c4365696c696e6760a01b6044820152606401610511565b60006106de611595565b9050600080841561075957600061071b620f424061071586600d54600a6107059190611a32565b61070f908f611ada565b90611676565b906116b7565b905061072e8661071583620f4240611676565b9250620f42408610156107535761075087610715620f424061070f8786611617565b91505b50610770565b61076a620f42406107158a89611676565b91508790505b600061078d610786620f42406107158689611676565b8490611617565b9050808811156107cb5760405162461bcd60e51b81526020600482015260096024820152683e736c69707061676560b81b6044820152606401610511565b811561087657888211156108115760405162461bcd60e51b815260206004820152600d60248201526c3c736861726542616c616e636560981b6044820152606401610511565b6007546040516305060b2d60e11b8152336004820152602481018490526001600160a01b0390911690630a0c165a90604401600060405180830381600087803b15801561085d57600080fd5b505af1158015610871573d6000803e3d6000fd5b505050505b891561090957600480546040516323b872dd60e01b81523392810192909252306024830152604482018c90526001600160a01b0316906323b872dd90606401602060405180830381600087803b1580156108cf57600080fd5b505af11580156108e3573d6000803e3d6000fd5b505050506040513d601f19601f820116820180604052508101906109079190611845565b505b6005546040516306203eab60e11b8152336004820152602481018390526001600160a01b0390911690630c407d56906044015b600060405180830381600087803b15801561095657600080fd5b505af115801561096a573d6000803e3d6000fd5b5050505050505050505050505050565b600f54336000908152600c60205260409020544391610999919061164a565b11156109db5760405162461bcd60e51b81526020600482015260116024820152703c726564656d7074696f6e5f64656c617960781b6044820152606401610511565b3360009081526008602052604081205481908190819015610a22573360009081526008602052604081208054919055600b54909250610a1a9083611617565b600b55600193505b3360009081526009602052604090205415610a6157503360009081526009602052604081208054919055600a54610a599082611617565b600a55600192505b8315610aed5760075460405163a9059cbb60e01b8152336004820152602481018490526001600160a01b039091169063a9059cbb90604401602060405180830381600087803b158015610ab357600080fd5b505af1158015610ac7573d6000803e3d6000fd5b505050506040513d601f19601f82011682018060405250810190610aeb9190611845565b505b8215610b7a576004805460405163a9059cbb60e01b81523392810192909252602482018390526001600160a01b03169063a9059cbb90604401602060405180830381600087803b158015610b4057600080fd5b505af1158015610b54573d6000803e3d6000fd5b505050506040513d601f19601f82011682018060405250810190610b789190611845565b505b50505050565b6000546001600160a01b03163314610baa5760405162461bcd60e51b81526004016105119061193e565b610bb3816116c3565b50565b600e54600480546040516370a0823160e01b81523092810192909252600092839283928392839283928392916001600160a01b03909116906370a082319060240160206040518083038186803b158015610c0f57600080fd5b505afa158015610c23573d6000803e3d6000fd5b505050506040513d601f19601f82011682018060405250810190610c47919061187d565b600a54600b54610c55611595565b601054949c939b509199509750955060ff808316955061010090920490911692509050565b6006546001600160a01b03163314610cc05760405162461bcd60e51b815260206004820152600960248201526821747265617375727960b81b6044820152606401610511565b60008111610cfd5760405162461bcd60e51b815260206004820152600a6024820152691e995c9bd05b5bdd5b9d60b21b6044820152606401610511565b6006546001600160a01b0316610d475760405162461bcd60e51b815260206004820152600f60248201526e696e76616c6964547265617375727960881b6044820152606401610511565b600654600454610bb3916001600160a01b03918216911683611787565b6000546001600160a01b03163314610d8e5760405162461bcd60e51b81526004016105119061193e565b600080546040516001600160a01b03909116907f8be0079c531659141344cd1fd0a4f28419497f9722a3daafe3b4186f6b6457e0908390a3600080546001600160a01b0319169055565b6001546001600160a01b03163314610e025760405162461bcd60e51b815260040161051190611973565b600380546001600160a01b0319166001600160a01b0392909216919091179055565b6001546001600160a01b03163314610e4e5760405162461bcd60e51b815260040161051190611973565b6010805460ff19811660ff90911615179055565b600080610e6d611595565b9050610ec7620f42406107158361070f600d54600a610e8c9190611a32565b600a54600480546040516370a0823160e01b8152309281019290925261070f92916001600160a01b03909116906370a082319060240161063b565b91505090565b60105462010000900460ff1615610ef65760405162461bcd60e51b81526004016105119061191c565b601054610100900460ff1615610f445760405162461bcd60e51b815260206004820152601360248201527214995919595b5a5b99c81a5cc81c185d5cd959606a1b6044820152606401610511565b6000806000600660009054906101000a90046001600160a01b03166001600160a01b031663370158ea6040518163ffffffff1660e01b81526004016101006040518083038186803b158015610f9857600080fd5b505afa158015610fac573d6000803e3d6000fd5b505050506040513d601f19601f82011682018060405250810190610fd091906118c0565b97505050955050509350506000610fe5611595565b90506000611004610ffd620f42406107158b87611676565b8990611617565b9050600080620f424086101561104857600061103161102a620f4240610715878b611676565b8590611617565b90506110448861071583620f4240611676565b9150505b851561108b576000611074620f42406107158961070f600d54600a61106d9190611a32565b89906116b7565b90506110878561071583620f4240611676565b9250505b600a54600480546040516370a0823160e01b815230928101929092526110c692916001600160a01b03909116906370a082319060240161063b565b82111561110a5760405162461bcd60e51b81526020600482015260126024820152713c636f6c6c61746572616c426c616e61636560701b6044820152606401610511565b81881115801561111a5750808911155b6111525760405162461bcd60e51b81526020600482015260096024820152683e736c69707061676560b81b6044820152606401610511565b81156111935733600090815260096020526040902054611172908361164a565b33600090815260096020526040902055600a5461118f908361164a565b600a555b80156111d457336000908152600860205260409020546111b3908261164a565b33600090815260086020526040902055600b546111d0908261164a565b600b555b336000818152600c60205260409081902043905560055490516305060b2d60e11b81526004810192909252602482018c90526001600160a01b031690630a0c165a90604401600060405180830381600087803b15801561123357600080fd5b505af1158015611247573d6000803e3d6000fd5b50505050600081111561128b576007546040516306203eab60e11b8152306004820152602481018390526001600160a01b0390911690630c407d569060440161093c565b50505050505050505050565b6001600260008282546112aa91906119b7565b90915550506002546001546001600160a01b031633146112dc5760405162461bcd60e51b815260040161051190611973565b60105462010000900460ff16156113055760405162461bcd60e51b81526004016105119061191c565b6010805462ff0000191662010000179055600a54600480546040516370a0823160e01b815230928101929092526000926113539290916001600160a01b0316906370a082319060240161063b565b60045490915061136d906001600160a01b03168483611787565b50600254811461137c57600080fd5b5050565b6001546001600160a01b031633146113aa5760405162461bcd60e51b815260040161051190611973565b6010805461ff001981166101009182900460ff1615909102179055565b6001546001600160a01b031633146113f15760405162461bcd60e51b815260040161051190611973565b600e55565b6001546001600160a01b031633146114205760405162461bcd60e51b815260040161051190611973565b6006546040516001600160a01b038084169216907febebcc22237fa047dcfebf54b185ec126c9b24d45f4bd2a18e4fa02e07308c4090600090a3600680546001600160a01b0319166001600160a01b0392909216919091179055565b6001546001600160a01b031633146114a65760405162461bcd60e51b815260040161051190611973565b600f55565b6000546001600160a01b031633146114d55760405162461bcd60e51b81526004016105119061193e565b6001600160a01b03811661153a5760405162461bcd60e51b815260206004820152602660248201527f4f776e61626c653a206e6577206f776e657220697320746865207a65726f206160448201526564647265737360d01b6064820152608401610511565b600080546040516001600160a01b03808516939216917f8be0079c531659141344cd1fd0a4f28419497f9722a3daafe3b4186f6b6457e091a3600080546001600160a01b0319166001600160a01b0392909216919091179055565b60035460408051637eeda70360e01b815290516000926001600160a01b031691637eeda703916004808301926020929190829003018186803b1580156115da57600080fd5b505afa1580156115ee573d6000803e3d6000fd5b505050506040513d601f19601f82011682018060405250810190611612919061187d565b905090565b60008282111561163757634e487b7160e01b600052600160045260246000fd5b6116418284611af9565b90505b92915050565b600061165682846119b7565b90508281101561164457634e487b7160e01b600052600160045260246000fd5b60008261168557506000611644565b61168f8284611ada565b90508161169c84836119cf565b1461164457634e487b7160e01b600052600160045260246000fd5b600061164182846119cf565b6001600160a01b03811661172f5760405162461bcd60e51b815260206004820152602d60248201527f6f70657261746f723a207a65726f206164647265737320676976656e20666f7260448201526c103732bb9037b832b930ba37b960991b6064820152608401610511565b6040516001600160a01b038216906000907f74da04524d50c64947f5dd5381ef1a4dca5cba8ed1d816243f9e48aa0b5617ed908290a3600180546001600160a01b0319166001600160a01b0392909216919091179055565b60405163a9059cbb60e01b81526001600160a01b0383811660048301526024820183905284169063a9059cbb90604401602060405180830381600087803b1580156117d157600080fd5b505af11580156117e5573d6000803e3d6000fd5b505050506040513d601f19601f820116820180604052508101906118099190611845565b61181257600080fd5b505050565b600060208284031215611828578081fd5b81356001600160a01b038116811461183e578182fd5b9392505050565b600060208284031215611856578081fd5b8151801515811461183e578182fd5b600060208284031215611876578081fd5b5035919050565b60006020828403121561188e578081fd5b5051919050565b6000806000606084860312156118a9578182fd5b505081359360208301359350604090920135919050565b600080600080600080600080610100898b0312156118dc578384fd5b505086516020880151604089015160608a015160808b015160a08c015160c08d015160e0909d0151959e949d50929b919a50985090965094509092509050565b6020808252600890820152671b5a59dc985d195960c21b604082015260600190565b6020808252818101527f4f776e61626c653a2063616c6c6572206973206e6f7420746865206f776e6572604082015260600190565b60208082526024908201527f6f70657261746f723a2063616c6c6572206973206e6f7420746865206f70657260408201526330ba37b960e11b606082015260800190565b600082198211156119ca576119ca611b10565b500190565b6000826119ea57634e487b7160e01b81526012600452602481fd5b500490565b600181815b80851115611a2a578160001904821115611a1057611a10611b10565b80851615611a1d57918102915b93841c93908002906119f4565b509250929050565b60006116418383600082611a4857506001611644565b81611a5557506000611644565b8160018114611a6b5760028114611a7557611a91565b6001915050611644565b60ff841115611a8657611a86611b10565b50506001821b611644565b5060208310610133831016604e8410600b8410161715611ab4575081810a611644565b611abe83836119ef565b8060001904821115611ad257611ad2611b10565b029392505050565b6000816000190483118215151615611af457611af4611b10565b500290565b600082821015611b0b57611b0b611b10565b500390565b634e487b7160e01b600052601160045260246000fdfea26469706673582212209e331b323af674292a7a2a03af3ff39983c956510549f7e914851d7402a3e97564736f6c63430008040033",
  "immutableReferences": {},
  "source": "// SPDX-License-Identifier: MIT\r\npragma solidity 0.8.4;\r\npragma experimental ABIEncoderV2;\r\n\r\nlibrary SafeMath {\r\n  function mul(uint256 a, uint256 b) internal pure returns (uint256 c) {\r\n    if (a == 0) {return 0;}\r\n    c = a * b;\r\n    assert(c / a == b);\r\n    return c;\r\n  }\r\n\r\n  function div(uint256 a, uint256 b) internal pure returns (uint256) {\r\n    return a / b;\r\n  }\r\n\r\n  function sub(uint256 a, uint256 b) internal pure returns (uint256) {\r\n    assert(b <= a);\r\n    return a - b;\r\n  }\r\n\r\n  function add(uint256 a, uint256 b) internal pure returns (uint256 c) {\r\n    c = a + b;\r\n    assert(c >= a);\r\n    return c;\r\n  }\r\n}\r\n\r\nlibrary SafeERC20 {\r\n  function safeTransfer(IERC20 token, address to, uint256 value) internal{\r\n    require(token.transfer(to, value));\r\n  }\r\n\r\n  function safeTransferFrom(IERC20 token, address from, address to, uint256 value) internal{\r\n    require(token.transferFrom(from, to, value));\r\n  }\r\n\r\n  function safeApprove( IERC20 token, address spender, uint256 value) internal{\r\n    require(token.approve(spender, value));\r\n  }\r\n}\r\n\r\ninterface IPool {\r\n    function collateralDollarBalance() external view returns (uint256);\r\n\r\n    function migrate(address _new_pool) external;\r\n\r\n    function transferCollateralToTreasury(uint256 amount) external;\r\n\r\n    function getCollateralPrice() external view returns (uint256);\r\n\r\n    function getCollateralToken() external view returns (address);\r\n}\r\n\r\ninterface IOracle {\r\n    function consult() external view returns (uint256);\r\n}\r\n\r\ninterface IEpoch {\r\n    function epoch() external view returns (uint256);\r\n\r\n    function nextEpochPoint() external view returns (uint256);\r\n}\r\n\r\ninterface ITreasury is IEpoch {\r\n    function hasPool(address _address) external view returns (bool);\r\n\r\n    function info()\r\n        external\r\n        view\r\n        returns (\r\n            uint256,\r\n            uint256,\r\n            uint256,\r\n            uint256,\r\n            uint256,\r\n            uint256,\r\n            uint256,\r\n            uint256\r\n        );\r\n\r\n    function epochInfo()\r\n        external\r\n        view\r\n        returns (\r\n            uint256,\r\n            uint256,\r\n            uint256,\r\n            uint256\r\n        );\r\n}\r\n\r\ninterface IDollar {\r\n    function poolBurnFrom(address _address, uint256 _amount) external;\r\n\r\n    function poolMint(address _address, uint256 m_amount) external;\r\n}\r\n\r\ninterface IShare {\r\n    function poolBurnFrom(address _address, uint256 _amount) external;\r\n\r\n    function poolMint(address _address, uint256 m_amount) external;\r\n}\r\n\r\ninterface IERC20 {\r\n    function totalSupply() external view returns (uint256);\r\n    function balanceOf(address account) external view returns (uint256);\r\n    function transfer(address recipient, uint256 amount) external returns (bool);\r\n    function allowance(address owner, address spender) external view returns (uint256);\r\n    function approve(address spender, uint256 amount) external returns (bool);\r\n    function transferFrom(address sender, address recipient, uint256 amount) external returns (bool);\r\n    event Transfer(address indexed from, address indexed to, uint256 value);\r\n    event Approval(address indexed owner, address indexed spender, uint256 value);\r\n    \r\n    function name() external view returns (string memory);\r\n    function symbol() external view returns (string memory);\r\n    function decimals() external view returns (uint8);\r\n}\r\n\r\nabstract contract ERC20 is IERC20 {\r\n    using SafeMath for uint256;\r\n    \r\n    mapping (address => uint256) private _balances;\r\n    mapping (address => mapping (address => uint256)) private _allowed;\r\n    uint256 private _totalSupply;\r\n\r\n    function totalSupply() public view override returns (uint256) {\r\n        return _totalSupply;\r\n    }\r\n\r\n    function balanceOf(address owner) public view override returns (uint256) {\r\n        return _balances[owner];\r\n    }\r\n\r\n    function allowance(address owner, address spender) public view override returns (uint256){\r\n        return _allowed[owner][spender];\r\n    }\r\n\r\n    function transfer(address to, uint256 value) public override returns (bool) {\r\n        require(value <= _balances[msg.sender]);\r\n        require(to != address(0));\r\n        _balances[msg.sender] = _balances[msg.sender].sub(value);\r\n        _balances[to] = _balances[to].add(value);\r\n        emit Transfer(msg.sender, to, value);\r\n        return true;\r\n    }\r\n\r\n    function approve(address spender, uint256 value) public override returns (bool) {\r\n        require(spender != address(0));\r\n        _allowed[msg.sender][spender] = value;\r\n        emit Approval(msg.sender, spender, value);\r\n        return true;\r\n    }\r\n\r\n    function transferFrom(address from, address to, uint256 value) public override returns (bool){\r\n        require(value <= _balances[from]);\r\n        require(value <= _allowed[from][msg.sender]);\r\n        require(to != address(0));\r\n        _balances[from] = _balances[from].sub(value);\r\n        _balances[to] = _balances[to].add(value);\r\n        _allowed[from][msg.sender] = _allowed[from][msg.sender].sub(value);\r\n        emit Transfer(from, to, value);\r\n        return true;\r\n    }\r\n\r\n    function increaseAllowance(address spender, uint256 addedValue) public returns (bool){\r\n        require(spender != address(0));\r\n        _allowed[msg.sender][spender] = (\r\n        _allowed[msg.sender][spender].add(addedValue));\r\n        emit Approval(msg.sender, spender, _allowed[msg.sender][spender]);\r\n        return true;\r\n    }\r\n\r\n    function decreaseAllowance(address spender, uint256 subtractedValue) public returns (bool){\r\n        require(spender != address(0));\r\n        _allowed[msg.sender][spender] = (_allowed[msg.sender][spender].sub(subtractedValue));\r\n        emit Approval(msg.sender, spender, _allowed[msg.sender][spender]);\r\n        return true;\r\n    }\r\n\r\n    function _mint(address account, uint256 amount) internal {\r\n        require(account != address(0));\r\n        _totalSupply = _totalSupply.add(amount);\r\n        _balances[account] = _balances[account].add(amount);\r\n        emit Transfer(address(0), account, amount);\r\n    }\r\n\r\n    function _burn(address account, uint256 amount) internal {\r\n        require(account != address(0));\r\n        require(amount <= _balances[account]);\r\n        _totalSupply = _totalSupply.sub(amount);\r\n        _balances[account] = _balances[account].sub(amount);\r\n        emit Transfer(account, address(0), amount);\r\n    }\r\n\r\n    function _burnFrom(address account, uint256 amount) internal {\r\n        require(amount <= _allowed[account][msg.sender]);\r\n        _allowed[account][msg.sender] = _allowed[account][msg.sender].sub(amount);\r\n        _burn(account, amount);\r\n    }\r\n}\r\n\r\nabstract contract Context {\r\n    function _msgSender() internal view virtual returns (address) {\r\n        return msg.sender;\r\n    }\r\n\r\n    function _msgData() internal view virtual returns (bytes calldata) {\r\n        this;\r\n        return msg.data;\r\n    }\r\n}\r\n\r\nabstract contract Ownable is Context {\r\n    address private _owner;\r\n    event OwnershipTransferred(address indexed previousOwner, address indexed newOwner);\r\n\r\n    constructor () {\r\n        address msgSender = _msgSender();\r\n        _owner = msgSender;\r\n        emit OwnershipTransferred(address(0), msgSender);\r\n    }\r\n\r\n    function owner() public view virtual returns (address) {\r\n        return _owner;\r\n    }\r\n\r\n    modifier onlyOwner() {\r\n        require(owner() == _msgSender(), \"Ownable: caller is not the owner\");\r\n        _;\r\n    }\r\n\r\n    function renounceOwnership() public virtual onlyOwner {\r\n        emit OwnershipTransferred(_owner, address(0));\r\n        _owner = address(0);\r\n    }\r\n\r\n    function transferOwnership(address newOwner) public virtual onlyOwner {\r\n        require(newOwner != address(0), \"Ownable: new owner is the zero address\");\r\n        emit OwnershipTransferred(_owner, newOwner);\r\n        _owner = newOwner;\r\n    }\r\n}\r\n\r\nabstract contract Operator is Context, Ownable {\r\n    address private _operator;\r\n\r\n    event OperatorTransferred(address indexed previousOperator, address indexed newOperator);\r\n\r\n    constructor(){\r\n        _operator = _msgSender();\r\n        emit OperatorTransferred(address(0), _operator);\r\n    }\r\n\r\n    function operator() public view returns (address) {\r\n        return _operator;\r\n    }\r\n\r\n    modifier onlyOperator() {\r\n        require(_operator == msg.sender, \"operator: caller is not the operator\");\r\n        _;\r\n    }\r\n\r\n    function isOperator() public view returns (bool) {\r\n        return _msgSender() == _operator;\r\n    }\r\n\r\n    function transferOperator(address newOperator_) public onlyOwner {\r\n        _transferOperator(newOperator_);\r\n    }\r\n\r\n    function _transferOperator(address newOperator_) internal {\r\n        require(newOperator_ != address(0), \"operator: zero address given for new operator\");\r\n        emit OperatorTransferred(address(0), newOperator_);\r\n        _operator = newOperator_;\r\n    }\r\n}\r\n\r\ncontract ReentrancyGuard {\r\n  uint256 private _guardCounter = 1;\r\n\r\n  modifier nonReentrant() {\r\n    _guardCounter += 1;\r\n    uint256 localCounter = _guardCounter;\r\n    _;\r\n    require(localCounter == _guardCounter);\r\n  }\r\n}\r\n\r\n\r\ncontract PoolAGOUSD is Operator, ReentrancyGuard, IPool {\r\n    using SafeMath for uint256;\r\n    using SafeERC20 for ERC20;\r\n\r\n    /* ========== STATE VARIABLES ========== */\r\n\r\n    address public oracle; // oracle to get price of collateral\r\n    address public collateral;\r\n    address public dollar;\r\n    address public treasury;\r\n    address public share;\r\n\r\n    mapping(address => uint256) public redeem_share_balances;\r\n    mapping(address => uint256) public redeem_collateral_balances;\r\n\r\n    uint256 public unclaimed_pool_collateral;\r\n    uint256 public unclaimed_pool_share;\r\n\r\n    mapping(address => uint256) public last_redeemed;\r\n\r\n    // Constants for various precisions\r\n    uint256 private constant PRICE_PRECISION = 1e6;\r\n    uint256 private constant COLLATERAL_RATIO_PRECISION = 1e6;\r\n    uint256 private constant COLLATERAL_RATIO_MAX = 1e6;\r\n\r\n    // Number of decimals needed to get to 18\r\n    uint256 private missing_decimals;\r\n\r\n    // Pool_ceiling is the total units of collateral that a pool contract can hold\r\n    uint256 public pool_ceiling = 0;\r\n\r\n    // Number of blocks to wait before being able to collectRedemption()\r\n    uint256 public redemption_delay = 1;\r\n\r\n    // AccessControl state variables\r\n    bool public mint_paused = false;\r\n    bool public redeem_paused = false;\r\n    bool public migrated = false;\r\n\r\n    /* ========== MODIFIERS ========== */\r\n\r\n    modifier notMigrated() {\r\n        require(!migrated, \"migrated\");\r\n        _;\r\n    }\r\n\r\n    modifier onlyTreasury() {\r\n        require(msg.sender == treasury, \"!treasury\");\r\n        _;\r\n    }\r\n\r\n    /* ========== CONSTRUCTOR ========== */\r\n\r\n    constructor(\r\n        address _dollar,\r\n        address _share,\r\n        address _collateral,\r\n        address _treasury,\r\n        uint256 _pool_ceiling\r\n    ){\r\n        dollar = _dollar;\r\n        share = _share;\r\n        collateral = _collateral;\r\n        treasury = _treasury;\r\n        pool_ceiling = _pool_ceiling;\r\n        missing_decimals = uint256(18).sub(ERC20(_collateral).decimals());\r\n    }\r\n\r\n    /* ========== VIEWS ========== */\r\n\r\n    // Returns dollar value of collateral held in this pool\r\n    function collateralDollarBalance() external view override returns (uint256) {\r\n        uint256 collateral_usd_price = getCollateralPrice();\r\n        return (ERC20(collateral).balanceOf(address(this)).sub(unclaimed_pool_collateral)).mul(10**missing_decimals).mul(collateral_usd_price).div(PRICE_PRECISION);\r\n    }\r\n\r\n    function info()\r\n        external\r\n        view\r\n        returns (\r\n            uint256,\r\n            uint256,\r\n            uint256,\r\n            uint256,\r\n            uint256,\r\n            bool,\r\n            bool\r\n        )\r\n    {\r\n        return (\r\n            pool_ceiling, // Ceiling of pool - collateral-amount\r\n            ERC20(collateral).balanceOf(address(this)), // amount of COLLATERAL locked in this contract\r\n            unclaimed_pool_collateral, // unclaimed amount of COLLATERAL\r\n            unclaimed_pool_share, // unclaimed amount of SHARE\r\n            getCollateralPrice(), // collateral price\r\n            mint_paused,\r\n            redeem_paused\r\n        );\r\n    }\r\n\r\n    /* ========== PUBLIC FUNCTIONS ========== */\r\n\r\n    function getCollateralPrice() public view override returns (uint256) {\r\n        return IOracle(oracle).consult();\r\n    }\r\n\r\n    function getCollateralToken() external view override returns (address) {\r\n        return collateral;\r\n    }\r\n\r\n    function mint(\r\n        uint256 _collateral_amount,\r\n        uint256 _share_amount,\r\n        uint256 _dollar_out_min\r\n    ) external notMigrated {\r\n        require(mint_paused == false, \"Minting is paused\");\r\n        (, uint256 _share_price, , uint256 _target_collateral_ratio, , , uint256 _minting_fee, ) = ITreasury(treasury).info();\r\n        require(ERC20(collateral).balanceOf(address(this)).sub(unclaimed_pool_collateral).add(_collateral_amount) <= pool_ceiling, \">poolCeiling\");\r\n        uint256 _price_collateral = getCollateralPrice();\r\n        uint256 _total_dollar_value = 0;\r\n        uint256 _required_share_amount = 0;\r\n        if (_target_collateral_ratio > 0) {\r\n            uint256 _collateral_value = (_collateral_amount * (10**missing_decimals)).mul(_price_collateral).div(PRICE_PRECISION);\r\n            _total_dollar_value = _collateral_value.mul(COLLATERAL_RATIO_PRECISION).div(_target_collateral_ratio);\r\n            if (_target_collateral_ratio < COLLATERAL_RATIO_MAX) {\r\n                _required_share_amount = _total_dollar_value.sub(_collateral_value).mul(PRICE_PRECISION).div(_share_price);\r\n            }\r\n        } else {\r\n            _total_dollar_value = _share_amount.mul(_share_price).div(PRICE_PRECISION);\r\n            _required_share_amount = _share_amount;\r\n        }\r\n        uint256 _actual_dollar_amount = _total_dollar_value.sub((_total_dollar_value.mul(_minting_fee)).div(PRICE_PRECISION));\r\n        require(_dollar_out_min <= _actual_dollar_amount, \">slippage\");\r\n\r\n        if (_required_share_amount > 0) {\r\n            require(_required_share_amount <= _share_amount, \"<shareBalance\");\r\n            IShare(share).poolBurnFrom(msg.sender, _required_share_amount);\r\n        }\r\n        if (_collateral_amount > 0) {\r\n            ERC20(collateral).transferFrom(msg.sender, address(this), _collateral_amount);\r\n        }\r\n        IDollar(dollar).poolMint(msg.sender, _actual_dollar_amount);\r\n    }\r\n\r\n    function redeem(\r\n        uint256 _dollar_amount,\r\n        uint256 _share_out_min,\r\n        uint256 _collateral_out_min\r\n    ) external notMigrated {\r\n        require(redeem_paused == false, \"Redeeming is paused\");\r\n        (, uint256 _share_price, , , uint256 _effective_collateral_ratio, , , uint256 _redemption_fee) = ITreasury(treasury).info();\r\n        uint256 _collateral_price = getCollateralPrice();\r\n        uint256 _dollar_amount_post_fee = _dollar_amount.sub((_dollar_amount.mul(_redemption_fee)).div(PRICE_PRECISION));\r\n        uint256 _collateral_output_amount = 0;\r\n        uint256 _share_output_amount = 0;\r\n\r\n        if (_effective_collateral_ratio < COLLATERAL_RATIO_MAX) {\r\n            uint256 _share_output_value = _dollar_amount_post_fee.sub(_dollar_amount_post_fee.mul(_effective_collateral_ratio).div(PRICE_PRECISION));\r\n            _share_output_amount = _share_output_value.mul(PRICE_PRECISION).div(_share_price);\r\n        }\r\n\r\n        if (_effective_collateral_ratio > 0) {\r\n            uint256 _collateral_output_value = _dollar_amount_post_fee.div(10**missing_decimals).mul(_effective_collateral_ratio).div(PRICE_PRECISION);\r\n            _collateral_output_amount = _collateral_output_value.mul(PRICE_PRECISION).div(_collateral_price);\r\n        }\r\n\r\n        // Check if collateral balance meets and meet output expectation\r\n        require(_collateral_output_amount <= ERC20(collateral).balanceOf(address(this)).sub(unclaimed_pool_collateral), \"<collateralBlanace\");\r\n        require(_collateral_out_min <= _collateral_output_amount && _share_out_min <= _share_output_amount, \">slippage\");\r\n\r\n        if (_collateral_output_amount > 0) {\r\n            redeem_collateral_balances[msg.sender] = redeem_collateral_balances[msg.sender].add(_collateral_output_amount);\r\n            unclaimed_pool_collateral = unclaimed_pool_collateral.add(_collateral_output_amount);\r\n        }\r\n\r\n        if (_share_output_amount > 0) {\r\n            redeem_share_balances[msg.sender] = redeem_share_balances[msg.sender].add(_share_output_amount);\r\n            unclaimed_pool_share = unclaimed_pool_share.add(_share_output_amount);\r\n        }\r\n\r\n        last_redeemed[msg.sender] = block.number;\r\n\r\n        // Move all external functions to the end\r\n        IDollar(dollar).poolBurnFrom(msg.sender, _dollar_amount);\r\n        if (_share_output_amount > 0) {\r\n            IShare(share).poolMint(address(this), _share_output_amount);\r\n        }\r\n    }\r\n\r\n    function collectRedemption() external {\r\n        // Redeem and Collect cannot happen in the same transaction to avoid flash loan attack\r\n        require((last_redeemed[msg.sender].add(redemption_delay)) <= block.number, \"<redemption_delay\");\r\n\r\n        bool _send_share = false;\r\n        bool _send_collateral = false;\r\n        uint256 _share_amount;\r\n        uint256 _collateral_amount;\r\n\r\n        // Use Checks-Effects-Interactions pattern\r\n        if (redeem_share_balances[msg.sender] > 0) {\r\n            _share_amount = redeem_share_balances[msg.sender];\r\n            redeem_share_balances[msg.sender] = 0;\r\n            unclaimed_pool_share = unclaimed_pool_share.sub(_share_amount);\r\n            _send_share = true;\r\n        }\r\n\r\n        if (redeem_collateral_balances[msg.sender] > 0) {\r\n            _collateral_amount = redeem_collateral_balances[msg.sender];\r\n            redeem_collateral_balances[msg.sender] = 0;\r\n            unclaimed_pool_collateral = unclaimed_pool_collateral.sub(_collateral_amount);\r\n            _send_collateral = true;\r\n        }\r\n\r\n        if (_send_share) {\r\n            ERC20(share).transfer(msg.sender, _share_amount);\r\n        }\r\n\r\n        if (_send_collateral) {\r\n            ERC20(collateral).transfer(msg.sender, _collateral_amount);\r\n        }\r\n    }\r\n\r\n    /* ========== RESTRICTED FUNCTIONS ========== */\r\n\r\n    // move collateral to new pool address\r\n    function migrate(address _new_pool) external override nonReentrant onlyOperator notMigrated {\r\n        migrated = true;\r\n        uint256 availableCollateral = ERC20(collateral).balanceOf(address(this)).sub(unclaimed_pool_collateral);\r\n        ERC20(collateral).safeTransfer(_new_pool, availableCollateral);\r\n    }\r\n\r\n    function toggleMinting() external onlyOperator {\r\n        mint_paused = !mint_paused;\r\n    }\r\n\r\n    function toggleRedeeming() external onlyOperator {\r\n        redeem_paused = !redeem_paused;\r\n    }\r\n\r\n    function setOracle(address _oracle) external onlyOperator {\r\n        oracle = _oracle;\r\n    }\r\n\r\n    function setPoolCeiling(uint256 _pool_ceiling) external onlyOperator {\r\n        pool_ceiling = _pool_ceiling;\r\n    }\r\n\r\n    function setRedemptionDelay(uint256 _redemption_delay) external onlyOperator {\r\n        redemption_delay = _redemption_delay;\r\n    }\r\n\r\n    function setTreasury(address _treasury) external onlyOperator {\r\n        emit TreasuryTransferred(treasury, _treasury);\r\n        treasury = _treasury;\r\n    }\r\n\r\n    // Transfer collateral to Treasury to execute strategies\r\n    function transferCollateralToTreasury(uint256 amount) external override onlyTreasury {\r\n        require(amount > 0, \"zeroAmount\");\r\n        require(treasury != address(0), \"invalidTreasury\");\r\n        ERC20(collateral).safeTransfer(treasury, amount);\r\n    }\r\n\r\n    // EVENTS\r\n    event TreasuryTransferred(address indexed previousTreasury, address indexed newTreasury);\r\n}\r\n",
  "sourcePath": "C:/Users/PaulMuller/Documents/projects/project_AGO/contracts/PoolAGOUSD.sol",
  "compiler": {
    "name": "solc",
    "version": "0.8.4+commit.c7e474f2.Emscripten.clang"
  },
  "schemaVersion": "3.4.1",
  "updatedAt": "2021-06-04T01:37:04.933Z",
  "networkType": "ethereum",
  "devdoc": {
    "kind": "dev",
    "methods": {},
    "version": 1
  },
  "userdoc": {
    "kind": "user",
    "methods": {},
    "version": 1
  }
}