{
  "contractName": "ShareWrapper",
  "abi": [
    {
      "inputs": [],
      "name": "share",
      "outputs": [
        {
          "internalType": "address",
          "name": "",
          "type": "address"
        }
      ],
      "stateMutability": "view",
      "type": "function"
    },
    {
      "inputs": [],
      "name": "totalSupply",
      "outputs": [
        {
          "internalType": "uint256",
          "name": "",
          "type": "uint256"
        }
      ],
      "stateMutability": "view",
      "type": "function"
    },
    {
      "inputs": [
        {
          "internalType": "address",
          "name": "account",
          "type": "address"
        }
      ],
      "name": "balanceOf",
      "outputs": [
        {
          "internalType": "uint256",
          "name": "",
          "type": "uint256"
        }
      ],
      "stateMutability": "view",
      "type": "function"
    },
    {
      "inputs": [
        {
          "internalType": "uint256",
          "name": "amount",
          "type": "uint256"
        }
      ],
      "name": "stake",
      "outputs": [],
      "stateMutability": "nonpayable",
      "type": "function"
    },
    {
      "inputs": [
        {
          "internalType": "uint256",
          "name": "amount",
          "type": "uint256"
        }
      ],
      "name": "withdraw",
      "outputs": [],
      "stateMutability": "nonpayable",
      "type": "function"
    }
  ],
  "bytecode": "0x608060405234801561001057600080fd5b506104e0806100206000396000f3fe608060405234801561001057600080fd5b50600436106100675760003560e01c806370a082311161005057806370a0823114610098578063a694fc3a146100c1578063a8d5fd65146100d457610067565b806318160ddd1461006c5780632e1a7d4d14610083575b600080fd5b6001545b6040519081526020015b60405180910390f35b61009661009136600461044d565b6100ff565b005b6100706100a63660046103ff565b6001600160a01b031660009081526002602052604090205490565b6100966100cf36600461044d565b6101ec565b6000546100e7906001600160a01b031681565b6040516001600160a01b03909116815260200161007a565b33600090815260026020526040902054818110156101a3576040517f08c379a000000000000000000000000000000000000000000000000000000000815260206004820152603660248201527f426f617264726f6f6d3a2077697468647261772072657175657374206772656160448201527f746572207468616e207374616b656420616d6f756e7400000000000000000000606482015260840160405180910390fd5b6001546101b09083610245565b6001556101bd8183610245565b3360008181526002602052604081209290925590546101e8916001600160a01b039091169084610278565b5050565b6001546101f99082610321565b600155336000908152600260205260409020546102169082610321565b336000818152600260205260408120929092559054610242916001600160a01b0390911690308461034d565b50565b60008282111561026557634e487b7160e01b600052600160045260246000fd5b61026f828461047d565b90505b92915050565b6040517fa9059cbb0000000000000000000000000000000000000000000000000000000081526001600160a01b0383811660048301526024820183905284169063a9059cbb90604401602060405180830381600087803b1580156102db57600080fd5b505af11580156102ef573d6000803e3d6000fd5b505050506040513d601f19601f82011682018060405250810190610313919061042d565b61031c57600080fd5b505050565b600061032d8284610465565b90508281101561027257634e487b7160e01b600052600160045260246000fd5b6040517f23b872dd0000000000000000000000000000000000000000000000000000000081526001600160a01b0384811660048301528381166024830152604482018390528516906323b872dd90606401602060405180830381600087803b1580156103b857600080fd5b505af11580156103cc573d6000803e3d6000fd5b505050506040513d601f19601f820116820180604052508101906103f0919061042d565b6103f957600080fd5b50505050565b600060208284031215610410578081fd5b81356001600160a01b0381168114610426578182fd5b9392505050565b60006020828403121561043e578081fd5b81518015158114610426578182fd5b60006020828403121561045e578081fd5b5035919050565b6000821982111561047857610478610494565b500190565b60008282101561048f5761048f610494565b500390565b634e487b7160e01b600052601160045260246000fdfea2646970667358221220a0e9a6609827ba03e23f208f6ee0b4240681a16d302e651fe35c4d1df73c91ef64736f6c63430008030033",
  "immutableReferences": {},
  "source": "// SPDX-License-Identifier: MIT\n\npragma solidity ^0.8.0;\npragma experimental ABIEncoderV2;\n\nimport \"./openZeppelin/IERC20.sol\";\nimport \"./openZeppelin/SafeERC20.sol\";\nimport \"./openZeppelin/ReentrancyGuard.sol\";\nimport \"./openZeppelin/Address.sol\";\n\n\nimport \"./interfaces/ITreasury.sol\";\nimport \"./interfaces/IOracle.sol\";\nimport \"./Operator.sol\";\n\ncontract ShareWrapper {\n    using SafeMath for uint256;\n    using SafeERC20 for IERC20;\n\n    address public share;\n\n    uint256 private _totalSupply;\n    mapping(address => uint256) private _balances;\n\n    function totalSupply() public view returns (uint256) {\n        return _totalSupply;\n    }\n\n    function balanceOf(address account) public view returns (uint256) {\n        return _balances[account];\n    }\n\n    function stake(uint256 amount) public virtual {\n        _totalSupply = _totalSupply.add(amount);\n        _balances[msg.sender] = _balances[msg.sender].add(amount);\n        IERC20(share).safeTransferFrom(msg.sender, address(this), amount);\n    }\n\n    function withdraw(uint256 amount) public virtual {\n        uint256 blacksmithShare = _balances[msg.sender];\n        require(blacksmithShare >= amount, \"Boardroom: withdraw request greater than staked amount\");\n        _totalSupply = _totalSupply.sub(amount);\n        _balances[msg.sender] = blacksmithShare.sub(amount);\n        IERC20(share).safeTransfer(msg.sender, amount);\n    }\n}\n\ncontract Foundry is ShareWrapper, ReentrancyGuard, Operator {\n    using SafeERC20 for IERC20;\n    using Address for address;\n    using SafeMath for uint256;\n\n    /* ========== DATA STRUCTURES ========== */\n\n    struct FoundryPosition {\n        uint256 lastSnapshotIndex;\n        uint256 rewardEarned;\n        uint256 epochTimerStart;\n    }\n\n    struct FoundrySnapshot {\n        uint256 time;\n        uint256 rewardReceived;\n        uint256 rewardPerShare;\n    }\n\n    /* ========== STATE VARIABLES ========== */\n\n    // flags\n    bool public initialized = false;\n\n    address public collateral;\n    address public treasury;\n    address public oracle; // oracle to get price of collateral\n\n    mapping(address => FoundryPosition) public blacksmiths;\n    FoundrySnapshot[] public foundryHistory;\n\n    uint256 public withdrawLockupEpochs;\n\n    /* ========== EVENTS ========== */\n\n    event Initialized(address indexed executor, uint256 at);\n    event Staked(address indexed user, uint256 amount);\n    event Withdrawn(address indexed user, uint256 amount);\n    event RewardPaid(address indexed user, uint256 reward);\n    event RewardAdded(address indexed user, uint256 reward);\n\n    /* ========== Modifiers =============== */\n    modifier blacksmithExists {\n        require(balanceOf(msg.sender) > 0, \"Foundry: The blacksmith does not exist\");\n        _;\n    }\n\n    modifier updateReward(address blacksmith) {\n        if (blacksmith != address(0)) {\n            FoundryPosition memory position = blacksmiths[blacksmith];\n            position.rewardEarned = earned(blacksmith);\n            position.lastSnapshotIndex = latestSnapshotIndex();\n            blacksmiths[blacksmith] = position;\n        }\n        _;\n    }\n\n    modifier notInitialized {\n        require(!initialized, \"Foundry: already initialized\");\n        _;\n    }\n\n    modifier onlyTreasury() {\n        require(msg.sender == address(treasury), \"!treasury\");\n        _;\n    }\n\n    /* ========== GOVERNANCE ========== */\n\n    function initialize(\n        address _collateral,\n        address _share,\n        address _treasury\n    ) public notInitialized {\n        collateral = _collateral;\n        share = _share;\n        treasury = _treasury;\n\n        FoundrySnapshot memory genesisSnapshot = FoundrySnapshot({time: block.number, rewardReceived: 0, rewardPerShare: 0});\n        foundryHistory.push(genesisSnapshot);\n        withdrawLockupEpochs = 8; // Lock for 8 epochs before release withdraw\n        initialized = true;\n        emit Initialized(msg.sender, block.number);\n    }\n\n    function setLockUp(uint256 _withdrawLockupEpochs) external onlyOperator {\n        require(_withdrawLockupEpochs <= 56, \"_withdrawLockupEpochs: out of range\"); // <= 2 week\n        withdrawLockupEpochs = _withdrawLockupEpochs;\n    }\n\n    function setOracle(address _oracle) external onlyOperator {\n        oracle = _oracle;\n    }\n\n    /* ========== VIEW FUNCTIONS ========== */\n\n    function info()\n        public\n        view\n        returns (\n            uint256,\n            uint256,\n            uint256,\n            uint256,\n            uint256,\n            uint256\n        )\n    {\n        (uint256 _epoch, uint256 _nextEpochPoint, uint256 _epoch_length, uint256 _utilizationRatio) = ITreasury(treasury).epochInfo();\n        return (\n            _epoch, // current epoch\n            _nextEpochPoint, // next epoch point\n            _epoch_length, // epoch duration\n            _utilizationRatio, // utilization ratio\n            totalSupply(),\n            IOracle(oracle).consult() // collateral price\n        );\n    }\n\n    // =========== Snapshot getters\n\n    function latestSnapshotIndex() public view returns (uint256) {\n        return foundryHistory.length.sub(1);\n    }\n\n    function getLatestSnapshot() internal view returns (FoundrySnapshot memory) {\n        return foundryHistory[latestSnapshotIndex()];\n    }\n\n    function getLastSnapshotIndexOf(address blacksmith) public view returns (uint256) {\n        return blacksmiths[blacksmith].lastSnapshotIndex;\n    }\n\n    function getLastSnapshotOf(address blacksmith) internal view returns (FoundrySnapshot memory) {\n        return foundryHistory[getLastSnapshotIndexOf(blacksmith)];\n    }\n\n    function canWithdraw(address blacksmith) external view returns (bool) {\n        return blacksmiths[blacksmith].epochTimerStart.add(withdrawLockupEpochs) <= ITreasury(treasury).epoch();\n    }\n\n    function epoch() external view returns (uint256) {\n        return ITreasury(treasury).epoch();\n    }\n\n    function nextEpochPoint() external view returns (uint256) {\n        return ITreasury(treasury).nextEpochPoint();\n    }\n\n    // =========== blacksmith getters\n\n    function rewardPerShare() public view returns (uint256) {\n        return getLatestSnapshot().rewardPerShare;\n    }\n\n    function earned(address blacksmith) public view returns (uint256) {\n        uint256 latestRPS = getLatestSnapshot().rewardPerShare;\n        uint256 storedRPS = getLastSnapshotOf(blacksmith).rewardPerShare;\n\n        return balanceOf(blacksmith).mul(latestRPS.sub(storedRPS)).div(1e18).add(blacksmiths[blacksmith].rewardEarned);\n    }\n\n    /* ========== MUTATIVE FUNCTIONS ========== */\n\n    function stake(uint256 amount) public override nonReentrant updateReward(msg.sender) {\n        require(amount > 0, \"Foundry: Cannot stake 0\");\n        super.stake(amount);\n        blacksmiths[msg.sender].epochTimerStart = ITreasury(treasury).epoch(); // reset timer\n        emit Staked(msg.sender, amount);\n    }\n\n    function withdraw(uint256 amount) public override nonReentrant blacksmithExists updateReward(msg.sender) {\n        require(amount > 0, \"Foundry: Cannot withdraw 0\");\n        require(blacksmiths[msg.sender].epochTimerStart.add(withdrawLockupEpochs) <= ITreasury(treasury).epoch(), \"Foundry: still in withdraw lockup\");\n        claimReward();\n        super.withdraw(amount);\n        emit Withdrawn(msg.sender, amount);\n    }\n\n    function exit() external {\n        withdraw(balanceOf(msg.sender));\n    }\n\n    function claimReward() public updateReward(msg.sender) {\n        uint256 reward = blacksmiths[msg.sender].rewardEarned;\n        if (reward > 0) {\n            blacksmiths[msg.sender].epochTimerStart = ITreasury(treasury).epoch(); // reset timer\n            blacksmiths[msg.sender].rewardEarned = 0;\n            IERC20(collateral).safeTransfer(msg.sender, reward);\n            emit RewardPaid(msg.sender, reward);\n        }\n    }\n\n    function allocateSeigniorage(uint256 amount) external nonReentrant onlyTreasury {\n        require(amount > 0, \"Foundry: Cannot allocate 0\");\n        require(totalSupply() > 0, \"Foundry: Cannot allocate when totalSupply is 0\");\n\n        // Create & add new snapshot\n        uint256 prevRPS = getLatestSnapshot().rewardPerShare;\n        uint256 nextRPS = prevRPS.add(amount.mul(1e18).div(totalSupply()));\n\n        FoundrySnapshot memory newSnapshot = FoundrySnapshot({time: block.number, rewardReceived: amount, rewardPerShare: nextRPS});\n        foundryHistory.push(newSnapshot);\n\n        IERC20(collateral).safeTransferFrom(msg.sender, address(this), amount);\n        emit RewardAdded(msg.sender, amount);\n    }\n}\n",
  "sourcePath": "/home/kali/Documents/project_AGO/contracts/Foundry.sol",
  "compiler": {
    "name": "solc",
    "version": "0.8.3+commit.8d00100c.Emscripten.clang"
  },
  "schemaVersion": "3.3.4",
  "updatedAt": "2021-04-14T15:10:13.777Z",
  "devdoc": {
    "kind": "dev",
    "methods": {},
    "version": 1
  },
  "userdoc": {
    "kind": "user",
    "methods": {},
    "version": 1
  }
}