{
  "contractName": "Timelock",
  "abi": [
    {
      "inputs": [
        {
          "internalType": "address",
          "name": "admin_",
          "type": "address"
        },
        {
          "internalType": "uint256",
          "name": "delay_",
          "type": "uint256"
        }
      ],
      "stateMutability": "nonpayable",
      "type": "constructor"
    },
    {
      "anonymous": false,
      "inputs": [
        {
          "indexed": true,
          "internalType": "bytes32",
          "name": "txHash",
          "type": "bytes32"
        },
        {
          "indexed": true,
          "internalType": "address",
          "name": "target",
          "type": "address"
        },
        {
          "indexed": false,
          "internalType": "uint256",
          "name": "value",
          "type": "uint256"
        },
        {
          "indexed": false,
          "internalType": "string",
          "name": "signature",
          "type": "string"
        },
        {
          "indexed": false,
          "internalType": "bytes",
          "name": "data",
          "type": "bytes"
        },
        {
          "indexed": false,
          "internalType": "uint256",
          "name": "eta",
          "type": "uint256"
        }
      ],
      "name": "CancelTransaction",
      "type": "event"
    },
    {
      "anonymous": false,
      "inputs": [
        {
          "indexed": true,
          "internalType": "bytes32",
          "name": "txHash",
          "type": "bytes32"
        },
        {
          "indexed": true,
          "internalType": "address",
          "name": "target",
          "type": "address"
        },
        {
          "indexed": false,
          "internalType": "uint256",
          "name": "value",
          "type": "uint256"
        },
        {
          "indexed": false,
          "internalType": "string",
          "name": "signature",
          "type": "string"
        },
        {
          "indexed": false,
          "internalType": "bytes",
          "name": "data",
          "type": "bytes"
        },
        {
          "indexed": false,
          "internalType": "uint256",
          "name": "eta",
          "type": "uint256"
        }
      ],
      "name": "ExecuteTransaction",
      "type": "event"
    },
    {
      "anonymous": false,
      "inputs": [
        {
          "indexed": true,
          "internalType": "address",
          "name": "newAdmin",
          "type": "address"
        }
      ],
      "name": "NewAdmin",
      "type": "event"
    },
    {
      "anonymous": false,
      "inputs": [
        {
          "indexed": true,
          "internalType": "uint256",
          "name": "newDelay",
          "type": "uint256"
        }
      ],
      "name": "NewDelay",
      "type": "event"
    },
    {
      "anonymous": false,
      "inputs": [
        {
          "indexed": true,
          "internalType": "address",
          "name": "newPendingAdmin",
          "type": "address"
        }
      ],
      "name": "NewPendingAdmin",
      "type": "event"
    },
    {
      "anonymous": false,
      "inputs": [
        {
          "indexed": true,
          "internalType": "bytes32",
          "name": "txHash",
          "type": "bytes32"
        },
        {
          "indexed": true,
          "internalType": "address",
          "name": "target",
          "type": "address"
        },
        {
          "indexed": false,
          "internalType": "uint256",
          "name": "value",
          "type": "uint256"
        },
        {
          "indexed": false,
          "internalType": "string",
          "name": "signature",
          "type": "string"
        },
        {
          "indexed": false,
          "internalType": "bytes",
          "name": "data",
          "type": "bytes"
        },
        {
          "indexed": false,
          "internalType": "uint256",
          "name": "eta",
          "type": "uint256"
        }
      ],
      "name": "QueueTransaction",
      "type": "event"
    },
    {
      "inputs": [],
      "name": "GRACE_PERIOD",
      "outputs": [
        {
          "internalType": "uint256",
          "name": "",
          "type": "uint256"
        }
      ],
      "stateMutability": "view",
      "type": "function"
    },
    {
      "inputs": [],
      "name": "MAXIMUM_DELAY",
      "outputs": [
        {
          "internalType": "uint256",
          "name": "",
          "type": "uint256"
        }
      ],
      "stateMutability": "view",
      "type": "function"
    },
    {
      "inputs": [],
      "name": "MINIMUM_DELAY",
      "outputs": [
        {
          "internalType": "uint256",
          "name": "",
          "type": "uint256"
        }
      ],
      "stateMutability": "view",
      "type": "function"
    },
    {
      "inputs": [],
      "name": "admin",
      "outputs": [
        {
          "internalType": "address",
          "name": "",
          "type": "address"
        }
      ],
      "stateMutability": "view",
      "type": "function"
    },
    {
      "inputs": [],
      "name": "delay",
      "outputs": [
        {
          "internalType": "uint256",
          "name": "",
          "type": "uint256"
        }
      ],
      "stateMutability": "view",
      "type": "function"
    },
    {
      "inputs": [],
      "name": "pendingAdmin",
      "outputs": [
        {
          "internalType": "address",
          "name": "",
          "type": "address"
        }
      ],
      "stateMutability": "view",
      "type": "function"
    },
    {
      "inputs": [
        {
          "internalType": "bytes32",
          "name": "",
          "type": "bytes32"
        }
      ],
      "name": "queuedTransactions",
      "outputs": [
        {
          "internalType": "bool",
          "name": "",
          "type": "bool"
        }
      ],
      "stateMutability": "view",
      "type": "function"
    },
    {
      "inputs": [
        {
          "internalType": "uint256",
          "name": "delay_",
          "type": "uint256"
        }
      ],
      "name": "setDelay",
      "outputs": [],
      "stateMutability": "nonpayable",
      "type": "function"
    },
    {
      "inputs": [],
      "name": "acceptAdmin",
      "outputs": [],
      "stateMutability": "nonpayable",
      "type": "function"
    },
    {
      "inputs": [
        {
          "internalType": "address",
          "name": "pendingAdmin_",
          "type": "address"
        }
      ],
      "name": "setPendingAdmin",
      "outputs": [],
      "stateMutability": "nonpayable",
      "type": "function"
    },
    {
      "inputs": [
        {
          "internalType": "address",
          "name": "target",
          "type": "address"
        },
        {
          "internalType": "uint256",
          "name": "value",
          "type": "uint256"
        },
        {
          "internalType": "string",
          "name": "signature",
          "type": "string"
        },
        {
          "internalType": "bytes",
          "name": "data",
          "type": "bytes"
        },
        {
          "internalType": "uint256",
          "name": "eta",
          "type": "uint256"
        }
      ],
      "name": "queueTransaction",
      "outputs": [
        {
          "internalType": "bytes32",
          "name": "",
          "type": "bytes32"
        }
      ],
      "stateMutability": "nonpayable",
      "type": "function"
    },
    {
      "inputs": [
        {
          "internalType": "address",
          "name": "target",
          "type": "address"
        },
        {
          "internalType": "uint256",
          "name": "value",
          "type": "uint256"
        },
        {
          "internalType": "string",
          "name": "signature",
          "type": "string"
        },
        {
          "internalType": "bytes",
          "name": "data",
          "type": "bytes"
        },
        {
          "internalType": "uint256",
          "name": "eta",
          "type": "uint256"
        }
      ],
      "name": "cancelTransaction",
      "outputs": [],
      "stateMutability": "nonpayable",
      "type": "function"
    },
    {
      "inputs": [
        {
          "internalType": "address",
          "name": "target",
          "type": "address"
        },
        {
          "internalType": "uint256",
          "name": "value",
          "type": "uint256"
        },
        {
          "internalType": "string",
          "name": "signature",
          "type": "string"
        },
        {
          "internalType": "bytes",
          "name": "data",
          "type": "bytes"
        },
        {
          "internalType": "uint256",
          "name": "eta",
          "type": "uint256"
        }
      ],
      "name": "executeTransaction",
      "outputs": [
        {
          "internalType": "bytes",
          "name": "",
          "type": "bytes"
        }
      ],
      "stateMutability": "payable",
      "type": "function"
    }
  ],
  "bytecode": "0x608060405234801561001057600080fd5b506040516110e43803806110e483398101604081905261002f9161014e565b61a8c08110156100ac5760405162461bcd60e51b815260206004820152603760248201527f54696d656c6f636b3a3a636f6e7374727563746f723a2044656c6179206d757360448201527f7420657863656564206d696e696d756d2064656c61792e00000000000000000060648201526084015b60405180910390fd5b62278d008111156101255760405162461bcd60e51b815260206004820152603860248201527f54696d656c6f636b3a3a73657444656c61793a2044656c6179206d757374206e60448201527f6f7420657863656564206d6178696d756d2064656c61792e000000000000000060648201526084016100a3565b600080546001600160a01b0319166001600160a01b039390931692909217909155600255610186565b60008060408385031215610160578182fd5b82516001600160a01b0381168114610176578283fd5b6020939093015192949293505050565b610f4f806101956000396000f3fe6080604052600436106100c25760003560e01c80636a42b8f81161007f578063c1a287e211610059578063c1a287e2146101f0578063e177246e14610207578063f2b0653714610227578063f851a4401461026757600080fd5b80636a42b8f8146101ad5780637d645fab146101c3578063b1b43ae5146101da57600080fd5b80630825f38f146100c75780630e18b681146100f057806326782247146101075780633a66f9011461013f5780634dd18bf51461016d578063591fcdfe1461018d575b600080fd5b6100da6100d5366004610cb6565b610287565b6040516100e79190610e3f565b60405180910390f35b3480156100fc57600080fd5b506101056105f8565b005b34801561011357600080fd5b50600154610127906001600160a01b031681565b6040516001600160a01b0390911681526020016100e7565b34801561014b57600080fd5b5061015f61015a366004610cb6565b6106c1565b6040519081526020016100e7565b34801561017957600080fd5b50610105610188366004610c95565b610874565b34801561019957600080fd5b506101056101a8366004610cb6565b610933565b3480156101b957600080fd5b5061015f60025481565b3480156101cf57600080fd5b5061015f62278d0081565b3480156101e657600080fd5b5061015f61a8c081565b3480156101fc57600080fd5b5061015f6212750081565b34801561021357600080fd5b50610105610222366004610d62565b610a4d565b34801561023357600080fd5b50610257610242366004610d62565b60036020526000908152604090205460ff1681565b60405190151581526020016100e7565b34801561027357600080fd5b50600054610127906001600160a01b031681565b6000546060906001600160a01b0316331461030f5760405162461bcd60e51b815260206004820152603860248201527f54696d656c6f636b3a3a657865637574655472616e73616374696f6e3a20436160448201527f6c6c206d75737420636f6d652066726f6d2061646d696e2e000000000000000060648201526084015b60405180910390fd5b6000868686868660405160200161032a959493929190610df3565b60408051601f1981840301815291815281516020928301206000818152600390935291205490915060ff166103b55760405162461bcd60e51b815260206004820152603d6024820152600080516020610efa83398151915260448201527f616e73616374696f6e206861736e2774206265656e207175657565642e0000006064820152608401610306565b824210156104275760405162461bcd60e51b81526020600482015260456024820152600080516020610efa83398151915260448201527f616e73616374696f6e206861736e2774207375727061737365642074696d65206064820152643637b1b59760d91b608482015260a401610306565b6104348362127500610bd1565b42111561048d5760405162461bcd60e51b81526020600482015260336024820152600080516020610efa83398151915260448201527230b739b0b1ba34b7b71034b99039ba30b6329760691b6064820152608401610306565b6000818152600360205260409020805460ff1916905584516060906104b35750836104df565b8580519060200120856040516020016104cd929190610da6565b60405160208183030381529060405290505b600080896001600160a01b031689846040516104fb9190610dd7565b60006040518083038185875af1925050503d8060008114610538576040519150601f19603f3d011682016040523d82523d6000602084013e61053d565b606091505b5091509150816105a35760405162461bcd60e51b815260206004820152603d6024820152600080516020610efa83398151915260448201527f616e73616374696f6e20657865637574696f6e2072657665727465642e0000006064820152608401610306565b896001600160a01b0316847fa560e3198060a2f10670c1ec5b403077ea6ae93ca8de1c32b451dc1a943cd6e78b8b8b8b6040516105e39493929190610e52565b60405180910390a39998505050505050505050565b6001546001600160a01b031633146106785760405162461bcd60e51b815260206004820152603860248201527f54696d656c6f636b3a3a61636365707441646d696e3a2043616c6c206d75737460448201527f20636f6d652066726f6d2070656e64696e6741646d696e2e00000000000000006064820152608401610306565b60008054336001600160a01b0319918216811783556001805490921690915560405190917f71614071b88dee5e0b2ae578a9dd7b2ebbe9ae832ba419dc0242cd065a290b6c91a2565b600080546001600160a01b0316331461073b5760405162461bcd60e51b815260206004820152603660248201527f54696d656c6f636b3a3a71756575655472616e73616374696f6e3a2043616c6c6044820152751036bab9ba1031b7b6b290333937b69030b236b4b71760511b6064820152608401610306565b61074e6002546107484290565b90610bd1565b8210156107d55760405162461bcd60e51b815260206004820152604960248201527f54696d656c6f636b3a3a71756575655472616e73616374696f6e3a204573746960448201527f6d6174656420657865637574696f6e20626c6f636b206d757374207361746973606482015268333c903232b630bc9760b91b608482015260a401610306565b600086868686866040516020016107f0959493929190610df3565b60408051601f19818403018152828252805160209182012060008181526003909252919020805460ff1916600117905591506001600160a01b0388169082907f76e2796dc3a81d57b0e8504b647febcbeeb5f4af818e164f11eef8131a6a763f90610862908a908a908a908a90610e52565b60405180910390a39695505050505050565b3330146108e95760405162461bcd60e51b815260206004820152603860248201527f54696d656c6f636b3a3a73657450656e64696e6741646d696e3a2043616c6c2060448201527f6d75737420636f6d652066726f6d2054696d656c6f636b2e00000000000000006064820152608401610306565b600180546001600160a01b0319166001600160a01b0383169081179091556040517f69d78e38a01985fbb1462961809b4b2d65531bc93b2b94037f3334b82ca4a75690600090a250565b6000546001600160a01b031633146109b35760405162461bcd60e51b815260206004820152603760248201527f54696d656c6f636b3a3a63616e63656c5472616e73616374696f6e3a2043616c60448201527f6c206d75737420636f6d652066726f6d2061646d696e2e0000000000000000006064820152608401610306565b600085858585856040516020016109ce959493929190610df3565b60408051601f19818403018152828252805160209182012060008181526003909252919020805460ff1916905591506001600160a01b0387169082907f2fffc091a501fd91bfbff27141450d3acb40fb8e6d8382b243ec7a812a3aaf8790610a3d908990899089908990610e52565b60405180910390a3505050505050565b333014610ab65760405162461bcd60e51b815260206004820152603160248201527f54696d656c6f636b3a3a73657444656c61793a2043616c6c206d75737420636f60448201527036b290333937b6902a34b6b2b637b1b59760791b6064820152608401610306565b61a8c0811015610b255760405162461bcd60e51b815260206004820152603460248201527f54696d656c6f636b3a3a73657444656c61793a2044656c6179206d75737420656044820152733c31b2b2b21036b4b734b6bab6903232b630bc9760611b6064820152608401610306565b62278d00811115610b9e5760405162461bcd60e51b815260206004820152603860248201527f54696d656c6f636b3a3a73657444656c61793a2044656c6179206d757374206e60448201527f6f7420657863656564206d6178696d756d2064656c61792e00000000000000006064820152608401610306565b600281905560405181907f948b1f6a42ee138b7e34058ba85a37f716d55ff25ff05a763f15bed6a04c8d2c90600090a250565b6000610bdd8284610e8f565b905082811015610bfd57634e487b7160e01b600052600160045260246000fd5b92915050565b600067ffffffffffffffff80841115610c1e57610c1e610ee3565b604051601f8501601f19908116603f01168101908282118183101715610c4657610c46610ee3565b81604052809350858152868686011115610c5f57600080fd5b858560208301376000602087830101525050509392505050565b80356001600160a01b0381168114610c9057600080fd5b919050565b600060208284031215610ca6578081fd5b610caf82610c79565b9392505050565b600080600080600060a08688031215610ccd578081fd5b610cd686610c79565b945060208601359350604086013567ffffffffffffffff80821115610cf9578283fd5b818801915088601f830112610d0c578283fd5b610d1b89833560208501610c03565b94506060880135915080821115610d30578283fd5b508601601f81018813610d41578182fd5b610d5088823560208401610c03565b95989497509295608001359392505050565b600060208284031215610d73578081fd5b5035919050565b60008151808452610d92816020860160208601610eb3565b601f01601f19169290920160200192915050565b6001600160e01b0319831681528151600090610dc9816004850160208701610eb3565b919091016004019392505050565b60008251610de9818460208701610eb3565b9190910192915050565b60018060a01b038616815284602082015260a060408201526000610e1a60a0830186610d7a565b8281036060840152610e2c8186610d7a565b9150508260808301529695505050505050565b602081526000610caf6020830184610d7a565b848152608060208201526000610e6b6080830186610d7a565b8281036040840152610e7d8186610d7a565b91505082606083015295945050505050565b60008219821115610eae57634e487b7160e01b81526011600452602481fd5b500190565b60005b83811015610ece578181015183820152602001610eb6565b83811115610edd576000848401525b50505050565b634e487b7160e01b600052604160045260246000fdfe54696d656c6f636b3a3a657865637574655472616e73616374696f6e3a205472a2646970667358221220143fc3cdff64e111b043a46fda7878e8b0b027e084075aee689150476a10241164736f6c63430008040033",
  "immutableReferences": {},
  "source": "// SPDX-License-Identifier: MIT\r\n\r\npragma solidity ^0.8.0;\r\n\r\nimport \"./openZeppelin/SafeMath.sol\";\r\n\r\ncontract Timelock {\r\n    using SafeMath for uint256;\r\n\r\n    event NewAdmin(address indexed newAdmin);\r\n    event NewPendingAdmin(address indexed newPendingAdmin);\r\n    event NewDelay(uint256 indexed newDelay);\r\n    event CancelTransaction(bytes32 indexed txHash, address indexed target, uint256 value, string signature, bytes data, uint256 eta);\r\n    event ExecuteTransaction(bytes32 indexed txHash, address indexed target, uint256 value, string signature, bytes data, uint256 eta);\r\n    event QueueTransaction(bytes32 indexed txHash, address indexed target, uint256 value, string signature, bytes data, uint256 eta);\r\n\r\n    uint256 public constant GRACE_PERIOD = 14 days;\r\n    uint256 public constant MINIMUM_DELAY = 12 hours;\r\n    uint256 public constant MAXIMUM_DELAY = 30 days;\r\n\r\n    address public admin;\r\n    address public pendingAdmin;\r\n    uint256 public delay;\r\n\r\n    mapping(bytes32 => bool) public queuedTransactions;\r\n\r\n    constructor(address admin_, uint256 delay_){\r\n        require(delay_ >= MINIMUM_DELAY, \"Timelock::constructor: Delay must exceed minimum delay.\");\r\n        require(delay_ <= MAXIMUM_DELAY, \"Timelock::setDelay: Delay must not exceed maximum delay.\");\r\n\r\n        admin = admin_;\r\n        delay = delay_;\r\n    }\r\n\r\n    function setDelay(uint256 delay_) public {\r\n        require(msg.sender == address(this), \"Timelock::setDelay: Call must come from Timelock.\");\r\n        require(delay_ >= MINIMUM_DELAY, \"Timelock::setDelay: Delay must exceed minimum delay.\");\r\n        require(delay_ <= MAXIMUM_DELAY, \"Timelock::setDelay: Delay must not exceed maximum delay.\");\r\n        delay = delay_;\r\n\r\n        emit NewDelay(delay);\r\n    }\r\n\r\n    function acceptAdmin() public {\r\n        require(msg.sender == pendingAdmin, \"Timelock::acceptAdmin: Call must come from pendingAdmin.\");\r\n        admin = msg.sender;\r\n        pendingAdmin = address(0);\r\n\r\n        emit NewAdmin(admin);\r\n    }\r\n\r\n    function setPendingAdmin(address pendingAdmin_) public {\r\n        require(msg.sender == address(this), \"Timelock::setPendingAdmin: Call must come from Timelock.\");\r\n        pendingAdmin = pendingAdmin_;\r\n\r\n        emit NewPendingAdmin(pendingAdmin);\r\n    }\r\n\r\n    function queueTransaction(\r\n        address target,\r\n        uint256 value,\r\n        string memory signature,\r\n        bytes memory data,\r\n        uint256 eta\r\n    ) public returns (bytes32) {\r\n        require(msg.sender == admin, \"Timelock::queueTransaction: Call must come from admin.\");\r\n        require(eta >= getBlockTimestamp().add(delay), \"Timelock::queueTransaction: Estimated execution block must satisfy delay.\");\r\n\r\n        bytes32 txHash = keccak256(abi.encode(target, value, signature, data, eta));\r\n        queuedTransactions[txHash] = true;\r\n\r\n        emit QueueTransaction(txHash, target, value, signature, data, eta);\r\n        return txHash;\r\n    }\r\n\r\n    function cancelTransaction(\r\n        address target,\r\n        uint256 value,\r\n        string memory signature,\r\n        bytes memory data,\r\n        uint256 eta\r\n    ) public {\r\n        require(msg.sender == admin, \"Timelock::cancelTransaction: Call must come from admin.\");\r\n\r\n        bytes32 txHash = keccak256(abi.encode(target, value, signature, data, eta));\r\n        queuedTransactions[txHash] = false;\r\n\r\n        emit CancelTransaction(txHash, target, value, signature, data, eta);\r\n    }\r\n\r\n    function executeTransaction(\r\n        address target,\r\n        uint256 value,\r\n        string memory signature,\r\n        bytes memory data,\r\n        uint256 eta\r\n    ) public payable returns (bytes memory) {\r\n        require(msg.sender == admin, \"Timelock::executeTransaction: Call must come from admin.\");\r\n\r\n        bytes32 txHash = keccak256(abi.encode(target, value, signature, data, eta));\r\n        require(queuedTransactions[txHash], \"Timelock::executeTransaction: Transaction hasn't been queued.\");\r\n        require(getBlockTimestamp() >= eta, \"Timelock::executeTransaction: Transaction hasn't surpassed time lock.\");\r\n        require(getBlockTimestamp() <= eta.add(GRACE_PERIOD), \"Timelock::executeTransaction: Transaction is stale.\");\r\n\r\n        queuedTransactions[txHash] = false;\r\n\r\n        bytes memory callData;\r\n\r\n        if (bytes(signature).length == 0) {\r\n            callData = data;\r\n        } else {\r\n            callData = abi.encodePacked(bytes4(keccak256(bytes(signature))), data);\r\n        }\r\n\r\n        // Execute the call\r\n        (bool success, bytes memory returnData) = target.call{value: value}(callData);\r\n        require(success, \"Timelock::executeTransaction: Transaction execution reverted.\");\r\n\r\n        emit ExecuteTransaction(txHash, target, value, signature, data, eta);\r\n\r\n        return returnData;\r\n    }\r\n\r\n    function getBlockTimestamp() internal view returns (uint256) {\r\n        return block.timestamp;\r\n    }\r\n}\r\n",
  "sourcePath": "C:/Users/PaulMuller/Documents/projects/project_AGO/contracts/Timelock.sol",
  "compiler": {
    "name": "solc",
    "version": "0.8.4+commit.c7e474f2.Emscripten.clang"
  },
  "schemaVersion": "3.4.1",
  "updatedAt": "2021-06-04T01:28:33.087Z",
  "devdoc": {
    "kind": "dev",
    "methods": {},
    "version": 1
  },
  "userdoc": {
    "kind": "user",
    "methods": {},
    "version": 1
  }
}