{
  "contractName": "TreasuryAGOUSD",
  "abi": [
    {
      "inputs": [],
      "stateMutability": "nonpayable",
      "type": "constructor"
    },
    {
      "anonymous": false,
      "inputs": [
        {
          "indexed": false,
          "internalType": "uint256",
          "name": "collateral_value",
          "type": "uint256"
        },
        {
          "indexed": false,
          "internalType": "uint256",
          "name": "collateral_amount",
          "type": "uint256"
        },
        {
          "indexed": false,
          "internalType": "uint256",
          "name": "output_share_amount",
          "type": "uint256"
        }
      ],
      "name": "BoughtBack",
      "type": "event"
    },
    {
      "anonymous": false,
      "inputs": [
        {
          "indexed": true,
          "internalType": "address",
          "name": "previousOperator",
          "type": "address"
        },
        {
          "indexed": true,
          "internalType": "address",
          "name": "newOperator",
          "type": "address"
        }
      ],
      "name": "OperatorTransferred",
      "type": "event"
    },
    {
      "anonymous": false,
      "inputs": [
        {
          "indexed": true,
          "internalType": "address",
          "name": "previousOwner",
          "type": "address"
        },
        {
          "indexed": true,
          "internalType": "address",
          "name": "newOwner",
          "type": "address"
        }
      ],
      "name": "OwnershipTransferred",
      "type": "event"
    },
    {
      "anonymous": false,
      "inputs": [
        {
          "indexed": false,
          "internalType": "uint256",
          "name": "share_amount",
          "type": "uint256"
        },
        {
          "indexed": false,
          "internalType": "uint256",
          "name": "output_collateral_amount",
          "type": "uint256"
        },
        {
          "indexed": false,
          "internalType": "uint256",
          "name": "output_collateral_value",
          "type": "uint256"
        }
      ],
      "name": "Recollateralized",
      "type": "event"
    },
    {
      "anonymous": false,
      "inputs": [
        {
          "indexed": true,
          "internalType": "address",
          "name": "target",
          "type": "address"
        },
        {
          "indexed": false,
          "internalType": "uint256",
          "name": "value",
          "type": "uint256"
        },
        {
          "indexed": false,
          "internalType": "string",
          "name": "signature",
          "type": "string"
        },
        {
          "indexed": false,
          "internalType": "bytes",
          "name": "data",
          "type": "bytes"
        }
      ],
      "name": "TransactionExecuted",
      "type": "event"
    },
    {
      "inputs": [],
      "name": "AGOUSD",
      "outputs": [
        {
          "internalType": "address",
          "name": "",
          "type": "address"
        }
      ],
      "stateMutability": "view",
      "type": "function",
      "constant": true
    },
    {
      "inputs": [],
      "name": "CNUSD",
      "outputs": [
        {
          "internalType": "address",
          "name": "",
          "type": "address"
        }
      ],
      "stateMutability": "view",
      "type": "function",
      "constant": true
    },
    {
      "inputs": [],
      "name": "collateral_ratio_paused",
      "outputs": [
        {
          "internalType": "bool",
          "name": "",
          "type": "bool"
        }
      ],
      "stateMutability": "view",
      "type": "function",
      "constant": true
    },
    {
      "inputs": [],
      "name": "effective_collateral_ratio",
      "outputs": [
        {
          "internalType": "uint256",
          "name": "",
          "type": "uint256"
        }
      ],
      "stateMutability": "view",
      "type": "function",
      "constant": true
    },
    {
      "inputs": [],
      "name": "epoch_length",
      "outputs": [
        {
          "internalType": "uint256",
          "name": "",
          "type": "uint256"
        }
      ],
      "stateMutability": "view",
      "type": "function",
      "constant": true
    },
    {
      "inputs": [],
      "name": "excess_collateral_distributed_ratio",
      "outputs": [
        {
          "internalType": "uint256",
          "name": "",
          "type": "uint256"
        }
      ],
      "stateMutability": "view",
      "type": "function",
      "constant": true
    },
    {
      "inputs": [],
      "name": "foundry",
      "outputs": [
        {
          "internalType": "address",
          "name": "",
          "type": "address"
        }
      ],
      "stateMutability": "view",
      "type": "function",
      "constant": true
    },
    {
      "inputs": [],
      "name": "initialized",
      "outputs": [
        {
          "internalType": "bool",
          "name": "",
          "type": "bool"
        }
      ],
      "stateMutability": "view",
      "type": "function",
      "constant": true
    },
    {
      "inputs": [],
      "name": "isOperator",
      "outputs": [
        {
          "internalType": "bool",
          "name": "",
          "type": "bool"
        }
      ],
      "stateMutability": "view",
      "type": "function",
      "constant": true
    },
    {
      "inputs": [],
      "name": "lastEpochTime",
      "outputs": [
        {
          "internalType": "uint256",
          "name": "",
          "type": "uint256"
        }
      ],
      "stateMutability": "view",
      "type": "function",
      "constant": true
    },
    {
      "inputs": [],
      "name": "last_rebalance_timestamp",
      "outputs": [
        {
          "internalType": "uint256",
          "name": "",
          "type": "uint256"
        }
      ],
      "stateMutability": "view",
      "type": "function",
      "constant": true
    },
    {
      "inputs": [],
      "name": "last_refresh_cr_timestamp",
      "outputs": [
        {
          "internalType": "uint256",
          "name": "",
          "type": "uint256"
        }
      ],
      "stateMutability": "view",
      "type": "function",
      "constant": true
    },
    {
      "inputs": [],
      "name": "migrated",
      "outputs": [
        {
          "internalType": "bool",
          "name": "",
          "type": "bool"
        }
      ],
      "stateMutability": "view",
      "type": "function",
      "constant": true
    },
    {
      "inputs": [],
      "name": "minting_fee",
      "outputs": [
        {
          "internalType": "uint256",
          "name": "",
          "type": "uint256"
        }
      ],
      "stateMutability": "view",
      "type": "function",
      "constant": true
    },
    {
      "inputs": [],
      "name": "operator",
      "outputs": [
        {
          "internalType": "address",
          "name": "",
          "type": "address"
        }
      ],
      "stateMutability": "view",
      "type": "function",
      "constant": true
    },
    {
      "inputs": [],
      "name": "oracleDollar",
      "outputs": [
        {
          "internalType": "address",
          "name": "",
          "type": "address"
        }
      ],
      "stateMutability": "view",
      "type": "function",
      "constant": true
    },
    {
      "inputs": [],
      "name": "oracleShare",
      "outputs": [
        {
          "internalType": "address",
          "name": "",
          "type": "address"
        }
      ],
      "stateMutability": "view",
      "type": "function",
      "constant": true
    },
    {
      "inputs": [],
      "name": "owner",
      "outputs": [
        {
          "internalType": "address",
          "name": "",
          "type": "address"
        }
      ],
      "stateMutability": "view",
      "type": "function",
      "constant": true
    },
    {
      "inputs": [
        {
          "internalType": "address",
          "name": "",
          "type": "address"
        }
      ],
      "name": "pools",
      "outputs": [
        {
          "internalType": "bool",
          "name": "",
          "type": "bool"
        }
      ],
      "stateMutability": "view",
      "type": "function",
      "constant": true
    },
    {
      "inputs": [
        {
          "internalType": "uint256",
          "name": "",
          "type": "uint256"
        }
      ],
      "name": "pools_array",
      "outputs": [
        {
          "internalType": "address",
          "name": "",
          "type": "address"
        }
      ],
      "stateMutability": "view",
      "type": "function",
      "constant": true
    },
    {
      "inputs": [],
      "name": "price_band",
      "outputs": [
        {
          "internalType": "uint256",
          "name": "",
          "type": "uint256"
        }
      ],
      "stateMutability": "view",
      "type": "function",
      "constant": true
    },
    {
      "inputs": [],
      "name": "price_target",
      "outputs": [
        {
          "internalType": "uint256",
          "name": "",
          "type": "uint256"
        }
      ],
      "stateMutability": "view",
      "type": "function",
      "constant": true
    },
    {
      "inputs": [],
      "name": "ratio_step",
      "outputs": [
        {
          "internalType": "uint256",
          "name": "",
          "type": "uint256"
        }
      ],
      "stateMutability": "view",
      "type": "function",
      "constant": true
    },
    {
      "inputs": [],
      "name": "rebalance_cooldown",
      "outputs": [
        {
          "internalType": "uint256",
          "name": "",
          "type": "uint256"
        }
      ],
      "stateMutability": "view",
      "type": "function",
      "constant": true
    },
    {
      "inputs": [],
      "name": "rebalancing_pool",
      "outputs": [
        {
          "internalType": "address",
          "name": "",
          "type": "address"
        }
      ],
      "stateMutability": "view",
      "type": "function",
      "constant": true
    },
    {
      "inputs": [],
      "name": "rebalancing_pool_collateral",
      "outputs": [
        {
          "internalType": "address",
          "name": "",
          "type": "address"
        }
      ],
      "stateMutability": "view",
      "type": "function",
      "constant": true
    },
    {
      "inputs": [],
      "name": "redemption_fee",
      "outputs": [
        {
          "internalType": "uint256",
          "name": "",
          "type": "uint256"
        }
      ],
      "stateMutability": "view",
      "type": "function",
      "constant": true
    },
    {
      "inputs": [],
      "name": "refresh_cooldown",
      "outputs": [
        {
          "internalType": "uint256",
          "name": "",
          "type": "uint256"
        }
      ],
      "stateMutability": "view",
      "type": "function",
      "constant": true
    },
    {
      "inputs": [],
      "name": "renounceOwnership",
      "outputs": [],
      "stateMutability": "nonpayable",
      "type": "function"
    },
    {
      "inputs": [],
      "name": "startTime",
      "outputs": [
        {
          "internalType": "uint256",
          "name": "",
          "type": "uint256"
        }
      ],
      "stateMutability": "view",
      "type": "function",
      "constant": true
    },
    {
      "inputs": [],
      "name": "strategist",
      "outputs": [
        {
          "internalType": "address",
          "name": "",
          "type": "address"
        }
      ],
      "stateMutability": "view",
      "type": "function",
      "constant": true
    },
    {
      "inputs": [],
      "name": "target_collateral_ratio",
      "outputs": [
        {
          "internalType": "uint256",
          "name": "",
          "type": "uint256"
        }
      ],
      "stateMutability": "view",
      "type": "function",
      "constant": true
    },
    {
      "inputs": [
        {
          "internalType": "address",
          "name": "newOperator_",
          "type": "address"
        }
      ],
      "name": "transferOperator",
      "outputs": [],
      "stateMutability": "nonpayable",
      "type": "function"
    },
    {
      "inputs": [
        {
          "internalType": "address",
          "name": "newOwner",
          "type": "address"
        }
      ],
      "name": "transferOwnership",
      "outputs": [],
      "stateMutability": "nonpayable",
      "type": "function"
    },
    {
      "inputs": [],
      "name": "uniswap_pair_CNUSD_WETH",
      "outputs": [
        {
          "internalType": "address",
          "name": "",
          "type": "address"
        }
      ],
      "stateMutability": "view",
      "type": "function",
      "constant": true
    },
    {
      "inputs": [],
      "name": "uniswap_pair_WETH_USDT",
      "outputs": [
        {
          "internalType": "address",
          "name": "",
          "type": "address"
        }
      ],
      "stateMutability": "view",
      "type": "function",
      "constant": true
    },
    {
      "inputs": [],
      "name": "uniswap_router",
      "outputs": [
        {
          "internalType": "address",
          "name": "",
          "type": "address"
        }
      ],
      "stateMutability": "view",
      "type": "function",
      "constant": true
    },
    {
      "inputs": [],
      "name": "using_effective_collateral_ratio",
      "outputs": [
        {
          "internalType": "bool",
          "name": "",
          "type": "bool"
        }
      ],
      "stateMutability": "view",
      "type": "function",
      "constant": true
    },
    {
      "stateMutability": "payable",
      "type": "receive",
      "payable": true
    },
    {
      "inputs": [
        {
          "internalType": "uint256",
          "name": "_startTime",
          "type": "uint256"
        },
        {
          "internalType": "uint256",
          "name": "_epoch_length",
          "type": "uint256"
        }
      ],
      "name": "initialize",
      "outputs": [],
      "stateMutability": "nonpayable",
      "type": "function"
    },
    {
      "inputs": [],
      "name": "dollarPrice",
      "outputs": [
        {
          "internalType": "uint256",
          "name": "",
          "type": "uint256"
        }
      ],
      "stateMutability": "view",
      "type": "function",
      "constant": true
    },
    {
      "inputs": [],
      "name": "sharePrice",
      "outputs": [
        {
          "internalType": "uint256",
          "name": "",
          "type": "uint256"
        }
      ],
      "stateMutability": "view",
      "type": "function",
      "constant": true
    },
    {
      "inputs": [
        {
          "internalType": "address",
          "name": "_address",
          "type": "address"
        }
      ],
      "name": "hasPool",
      "outputs": [
        {
          "internalType": "bool",
          "name": "",
          "type": "bool"
        }
      ],
      "stateMutability": "view",
      "type": "function",
      "constant": true
    },
    {
      "inputs": [],
      "name": "nextEpochPoint",
      "outputs": [
        {
          "internalType": "uint256",
          "name": "",
          "type": "uint256"
        }
      ],
      "stateMutability": "view",
      "type": "function",
      "constant": true
    },
    {
      "inputs": [],
      "name": "epoch",
      "outputs": [
        {
          "internalType": "uint256",
          "name": "",
          "type": "uint256"
        }
      ],
      "stateMutability": "view",
      "type": "function",
      "constant": true
    },
    {
      "inputs": [],
      "name": "info",
      "outputs": [
        {
          "internalType": "uint256",
          "name": "",
          "type": "uint256"
        },
        {
          "internalType": "uint256",
          "name": "",
          "type": "uint256"
        },
        {
          "internalType": "uint256",
          "name": "",
          "type": "uint256"
        },
        {
          "internalType": "uint256",
          "name": "",
          "type": "uint256"
        },
        {
          "internalType": "uint256",
          "name": "",
          "type": "uint256"
        },
        {
          "internalType": "uint256",
          "name": "",
          "type": "uint256"
        },
        {
          "internalType": "uint256",
          "name": "",
          "type": "uint256"
        },
        {
          "internalType": "uint256",
          "name": "",
          "type": "uint256"
        }
      ],
      "stateMutability": "view",
      "type": "function",
      "constant": true
    },
    {
      "inputs": [],
      "name": "epochInfo",
      "outputs": [
        {
          "internalType": "uint256",
          "name": "",
          "type": "uint256"
        },
        {
          "internalType": "uint256",
          "name": "",
          "type": "uint256"
        },
        {
          "internalType": "uint256",
          "name": "",
          "type": "uint256"
        },
        {
          "internalType": "uint256",
          "name": "",
          "type": "uint256"
        }
      ],
      "stateMutability": "view",
      "type": "function",
      "constant": true
    },
    {
      "inputs": [],
      "name": "globalCollateralValue",
      "outputs": [
        {
          "internalType": "uint256",
          "name": "",
          "type": "uint256"
        }
      ],
      "stateMutability": "view",
      "type": "function",
      "constant": true
    },
    {
      "inputs": [],
      "name": "calcEffectiveCollateralRatio",
      "outputs": [
        {
          "internalType": "uint256",
          "name": "",
          "type": "uint256"
        }
      ],
      "stateMutability": "view",
      "type": "function",
      "constant": true
    },
    {
      "inputs": [],
      "name": "refreshCollateralRatio",
      "outputs": [],
      "stateMutability": "nonpayable",
      "type": "function"
    },
    {
      "inputs": [],
      "name": "calcCollateralBalance",
      "outputs": [
        {
          "internalType": "uint256",
          "name": "_collateral_value",
          "type": "uint256"
        },
        {
          "internalType": "bool",
          "name": "_exceeded",
          "type": "bool"
        }
      ],
      "stateMutability": "view",
      "type": "function",
      "constant": true
    },
    {
      "inputs": [
        {
          "internalType": "address",
          "name": "pool_address",
          "type": "address"
        }
      ],
      "name": "addPool",
      "outputs": [],
      "stateMutability": "nonpayable",
      "type": "function"
    },
    {
      "inputs": [
        {
          "internalType": "address",
          "name": "pool_address",
          "type": "address"
        }
      ],
      "name": "removePool",
      "outputs": [],
      "stateMutability": "nonpayable",
      "type": "function"
    },
    {
      "inputs": [
        {
          "internalType": "uint256",
          "name": "_collateral_value",
          "type": "uint256"
        },
        {
          "internalType": "uint256",
          "name": "_min_share_amount",
          "type": "uint256"
        }
      ],
      "name": "buyback",
      "outputs": [],
      "stateMutability": "nonpayable",
      "type": "function"
    },
    {
      "inputs": [
        {
          "internalType": "uint256",
          "name": "_share_amount",
          "type": "uint256"
        },
        {
          "internalType": "uint256",
          "name": "_min_collateral_amount",
          "type": "uint256"
        }
      ],
      "name": "recollateralize",
      "outputs": [],
      "stateMutability": "nonpayable",
      "type": "function"
    },
    {
      "inputs": [],
      "name": "allocateSeigniorage",
      "outputs": [],
      "stateMutability": "nonpayable",
      "type": "function"
    },
    {
      "inputs": [
        {
          "internalType": "address",
          "name": "_new_treasury",
          "type": "address"
        }
      ],
      "name": "migrate",
      "outputs": [],
      "stateMutability": "nonpayable",
      "type": "function"
    },
    {
      "inputs": [
        {
          "internalType": "uint256",
          "name": "_redemption_fee",
          "type": "uint256"
        }
      ],
      "name": "setRedemptionFee",
      "outputs": [],
      "stateMutability": "nonpayable",
      "type": "function"
    },
    {
      "inputs": [
        {
          "internalType": "uint256",
          "name": "_minting_fee",
          "type": "uint256"
        }
      ],
      "name": "setMintingFee",
      "outputs": [],
      "stateMutability": "nonpayable",
      "type": "function"
    },
    {
      "inputs": [
        {
          "internalType": "uint256",
          "name": "_ratio_step",
          "type": "uint256"
        }
      ],
      "name": "setRatioStep",
      "outputs": [],
      "stateMutability": "nonpayable",
      "type": "function"
    },
    {
      "inputs": [
        {
          "internalType": "uint256",
          "name": "_price_target",
          "type": "uint256"
        }
      ],
      "name": "setPriceTarget",
      "outputs": [],
      "stateMutability": "nonpayable",
      "type": "function"
    },
    {
      "inputs": [
        {
          "internalType": "uint256",
          "name": "_refresh_cooldown",
          "type": "uint256"
        }
      ],
      "name": "setRefreshCooldown",
      "outputs": [],
      "stateMutability": "nonpayable",
      "type": "function"
    },
    {
      "inputs": [
        {
          "internalType": "uint256",
          "name": "_price_band",
          "type": "uint256"
        }
      ],
      "name": "setPriceBand",
      "outputs": [],
      "stateMutability": "nonpayable",
      "type": "function"
    },
    {
      "inputs": [],
      "name": "toggleCollateralRatio",
      "outputs": [],
      "stateMutability": "nonpayable",
      "type": "function"
    },
    {
      "inputs": [],
      "name": "toggleEffectiveCollateralRatio",
      "outputs": [],
      "stateMutability": "nonpayable",
      "type": "function"
    },
    {
      "inputs": [
        {
          "internalType": "address",
          "name": "_oracleDollar",
          "type": "address"
        }
      ],
      "name": "setOracleDollar",
      "outputs": [],
      "stateMutability": "nonpayable",
      "type": "function"
    },
    {
      "inputs": [
        {
          "internalType": "address",
          "name": "_oracleShare",
          "type": "address"
        }
      ],
      "name": "setOracleShare",
      "outputs": [],
      "stateMutability": "nonpayable",
      "type": "function"
    },
    {
      "inputs": [
        {
          "internalType": "address",
          "name": "_AGOUSD",
          "type": "address"
        }
      ],
      "name": "setDollarAddress",
      "outputs": [],
      "stateMutability": "nonpayable",
      "type": "function"
    },
    {
      "inputs": [
        {
          "internalType": "address",
          "name": "_CNUSD",
          "type": "address"
        }
      ],
      "name": "setShareAddress",
      "outputs": [],
      "stateMutability": "nonpayable",
      "type": "function"
    },
    {
      "inputs": [
        {
          "internalType": "address",
          "name": "_strategist",
          "type": "address"
        }
      ],
      "name": "setStrategist",
      "outputs": [],
      "stateMutability": "nonpayable",
      "type": "function"
    },
    {
      "inputs": [
        {
          "internalType": "address",
          "name": "_uniswap_router",
          "type": "address"
        },
        {
          "internalType": "address",
          "name": "_uniswap_pair_CNUSD_WETH",
          "type": "address"
        },
        {
          "internalType": "address",
          "name": "_uniswap_pair_WETH_USDT",
          "type": "address"
        }
      ],
      "name": "setUniswapParams",
      "outputs": [],
      "stateMutability": "nonpayable",
      "type": "function"
    },
    {
      "inputs": [
        {
          "internalType": "address",
          "name": "_rebalance_pool",
          "type": "address"
        }
      ],
      "name": "setRebalancePool",
      "outputs": [],
      "stateMutability": "nonpayable",
      "type": "function"
    },
    {
      "inputs": [
        {
          "internalType": "uint256",
          "name": "_rebalance_cooldown",
          "type": "uint256"
        }
      ],
      "name": "setRebalanceCooldown",
      "outputs": [],
      "stateMutability": "nonpayable",
      "type": "function"
    },
    {
      "inputs": [
        {
          "internalType": "uint256",
          "name": "_startTime",
          "type": "uint256"
        }
      ],
      "name": "resetStartTime",
      "outputs": [],
      "stateMutability": "nonpayable",
      "type": "function"
    },
    {
      "inputs": [
        {
          "internalType": "address",
          "name": "_foundry",
          "type": "address"
        }
      ],
      "name": "setFoundry",
      "outputs": [],
      "stateMutability": "nonpayable",
      "type": "function"
    },
    {
      "inputs": [
        {
          "internalType": "uint256",
          "name": "_epoch_length",
          "type": "uint256"
        }
      ],
      "name": "setEpochLength",
      "outputs": [],
      "stateMutability": "nonpayable",
      "type": "function"
    },
    {
      "inputs": [
        {
          "internalType": "uint256",
          "name": "_excess_collateral_distributed_ratio",
          "type": "uint256"
        }
      ],
      "name": "setExcessDistributionRatio",
      "outputs": [],
      "stateMutability": "nonpayable",
      "type": "function"
    },
    {
      "inputs": [
        {
          "internalType": "address",
          "name": "target",
          "type": "address"
        },
        {
          "internalType": "uint256",
          "name": "value",
          "type": "uint256"
        },
        {
          "internalType": "string",
          "name": "signature",
          "type": "string"
        },
        {
          "internalType": "bytes",
          "name": "data",
          "type": "bytes"
        }
      ],
      "name": "executeTransaction",
      "outputs": [
        {
          "internalType": "bytes",
          "name": "",
          "type": "bytes"
        }
      ],
      "stateMutability": "nonpayable",
      "type": "function"
    }
  ],
  "bytecode": "0x6080604052600160028190556007805460ff60a01b199081169091556013805461ffff191690921790915561a8c060155560198054909116905561c350601c556000601f5534801561005057600080fd5b50600080546001600160a01b031916339081178255604051909182917f8be0079c531659141344cd1fd0a4f28419497f9722a3daafe3b4186f6b6457e0908290a350600180546001600160a01b031916339081179091556040516000907f74da04524d50c64947f5dd5381ef1a4dca5cba8ed1d816243f9e48aa0b5617ed908290a36109c4601055620f4240600d819055600e819055610e10600f55601155611388601255610fa0600a55610bb8600b55614196806101106000396000f3fe6080604052600436106105265760003560e01c8063695ccb0b116102af578063af2d373911610179578063ce5494bb116100d6578063dc57df471161008a578063e708b4ae1161006f578063e708b4ae14610e31578063f2fde38b14610e47578063fc1e0c0014610e6757600080fd5b8063dc57df4714610df1578063e4a3011614610e1157600080fd5b8063d74d1a0e116100bb578063d74d1a0e14610d91578063d914cd4b14610db1578063db18157114610dd157600080fd5b8063ce5494bb14610d5c578063d2d97b0614610d7c57600080fd5b8063c08f076e1161012d578063c5967c2611610112578063c5967c2614610d11578063c7b9d53014610d26578063cb73999f14610d4657600080fd5b8063c08f076e14610cdb578063c3355b8d14610cfb57600080fd5b8063b16ce4601161015e578063b16ce46014610c90578063bef40ec814610cb0578063c03f7be314610cc557600080fd5b8063af2d373914610c5a578063af83136e14610c7a57600080fd5b8063894ba4b9116102275780639052be61116101db578063a445c445116101c0578063a445c44514610c0f578063a5d7abac14610c24578063ac4f843e14610c4457600080fd5b80639052be6114610bbf578063a4063dbc14610bdf57600080fd5b80638da5cb5b1161020c5780638da5cb5b14610b6c5780638de4011e14610b8a578063900cf0cf14610baa57600080fd5b8063894ba4b914610b3057806389c614b814610b5657600080fd5b80637cd27ca61161027e57806381ca52cf1161026357806381ca52cf14610ae15780638726972914610b0157806387a140c314610b1657600080fd5b80637cd27ca614610aa15780637dbc1df014610ac157600080fd5b8063695ccb0b14610a405780636ae7448814610a60578063715018a614610a7657806378e9792514610a8b57600080fd5b80632988b66d116103f057806340d7b7b81161036857806353ed67fe1161031c578063570ca73511610301578063570ca735146109ed5780635b75617914610a0b5780636140133b14610a2057600080fd5b806353ed67fe146109b757806354eea796146109cd57600080fd5b80634456eda21161034d5780634456eda214610957578063460ddf8d1461097757806346ec64a51461099757600080fd5b806340d7b7b81461092c5780634231bfe11461094157600080fd5b8063370158ea116103bf5780634006311b116103a45780634006311b146108e15780634013124a146108f7578063408ab10f1461090c57600080fd5b8063370158ea146108715780633b7d0946146108c157600080fd5b80632988b66d146107fb5780632c678c641461081a5780632cb4f63e1461083b5780632f64fb8e1461085157600080fd5b80631c5df1e51161049e578063238a47091161045257806328596aba1161043757806328596aba146107a6578063291878a8146107c657806329605e77146107db57600080fd5b8063238a4709146107705780632853fb101461079057600080fd5b80631fe4a686116104835780631fe4a686146106ff5780631ff41bfa1461071f5780632224fa251461074357600080fd5b80631c5df1e5146106aa5780631f1b8a8c146106ca57600080fd5b80631246dbf5116104f5578063186d9b2e116104da578063186d9b2e146106405780631a1f1934146106605780631c5b6e8d1461068a57600080fd5b80631246dbf5146105d1578063158ef93e1461061f57600080fd5b80630375da59146105325780630ca687dc146105545780630eef424d146105745780631189ebea1461059457600080fd5b3661052d57005b600080fd5b34801561053e57600080fd5b5061055261054d366004613c30565b610e87565b005b34801561056057600080fd5b5061055261056f366004613c30565b610f02565b34801561058057600080fd5b5061055261058f366004613c30565b610f78565b3480156105a057600080fd5b506105b46105af366004613e20565b6111aa565b6040516001600160a01b0390911681526020015b60405180910390f35b3480156105dd57600080fd5b5061060f6105ec366004613c30565b6001600160a01b031660009081526009602052604090205460ff16151560011490565b60405190151581526020016105c8565b34801561062b57600080fd5b5060195461060f90600160a01b900460ff1681565b34801561064c57600080fd5b5061055261065b366004613e20565b6111d4565b34801561066c57600080fd5b5061067561122d565b604080519283529015156020830152016105c8565b34801561069657600080fd5b506105526106a5366004613c30565b611312565b3480156106b657600080fd5b506105526106c5366004613e20565b611388565b3480156106d657600080fd5b506106df6113e1565b6040805194855260208501939093529183015260608201526080016105c8565b34801561070b57600080fd5b506007546105b4906001600160a01b031681565b34801561072b57600080fd5b50610735601c5481565b6040519081526020016105c8565b34801561074f57600080fd5b5061076361075e366004613cb2565b61140c565b6040516105c89190613f90565b34801561077c57600080fd5b5061055261078b366004613e20565b611590565b34801561079c57600080fd5b5061073560125481565b3480156107b257600080fd5b506105526107c1366004613c30565b6115e9565b3480156107d257600080fd5b5061055261165f565b3480156107e757600080fd5b506105526107f6366004613c30565b6116d0565b34801561080757600080fd5b5060135461060f90610100900460ff1681565b34801561082657600080fd5b5060075461060f90600160a01b900460ff1681565b34801561084757600080fd5b5061073560115481565b34801561085d57600080fd5b506014546105b4906001600160a01b031681565b34801561087d57600080fd5b50610886611736565b604080519889526020890197909752958701949094526060860192909252608085015260a084015260c083015260e0820152610100016105c8565b3480156108cd57600080fd5b506105526108dc366004613c30565b611804565b3480156108ed57600080fd5b50610735600d5481565b34801561090357600080fd5b506105526119ce565b34801561091857600080fd5b50610552610927366004613e20565b611b7e565b34801561093857600080fd5b50610735611bd7565b34801561094d57600080fd5b50610735601e5481565b34801561096357600080fd5b506001546001600160a01b0316331461060f565b34801561098357600080fd5b50610552610992366004613e50565b611c72565b3480156109a357600080fd5b506006546105b4906001600160a01b031681565b3480156109c357600080fd5b5061073560165481565b3480156109d957600080fd5b506105526109e8366004613e20565b612124565b3480156109f957600080fd5b506001546001600160a01b03166105b4565b348015610a1757600080fd5b5061055261217d565b348015610a2c57600080fd5b50610552610a3b366004613e20565b6124b4565b348015610a4c57600080fd5b506018546105b4906001600160a01b031681565b348015610a6c57600080fd5b50610735600c5481565b348015610a8257600080fd5b5061055261250d565b348015610a9757600080fd5b50610735601a5481565b348015610aad57600080fd5b50601b546105b4906001600160a01b031681565b348015610acd57600080fd5b50610552610adc366004613e20565b6125b1565b348015610aed57600080fd5b50610552610afc366004613e20565b61260a565b348015610b0d57600080fd5b50610735612663565b348015610b2257600080fd5b5060135461060f9060ff1681565b348015610b3c57600080fd5b506013546105b4906201000090046001600160a01b031681565b348015610b6257600080fd5b50610735601d5481565b348015610b7857600080fd5b506000546001600160a01b03166105b4565b348015610b9657600080fd5b50610552610ba5366004613c30565b6126b3565b348015610bb657600080fd5b50601f54610735565b348015610bcb57600080fd5b506017546105b4906001600160a01b031681565b348015610beb57600080fd5b5061060f610bfa366004613c30565b60096020526000908152604090205460ff1681565b348015610c1b57600080fd5b50610735612729565b348015610c3057600080fd5b50610552610c3f366004613e20565b61280b565b348015610c5057600080fd5b5061073560105481565b348015610c6657600080fd5b50610552610c75366004613e50565b61288e565b348015610c8657600080fd5b50610735600e5481565b348015610c9c57600080fd5b506003546105b4906001600160a01b031681565b348015610cbc57600080fd5b50610552612d79565b348015610cd157600080fd5b50610735600f5481565b348015610ce757600080fd5b50610552610cf6366004613e20565b612de1565b348015610d0757600080fd5b50610735600b5481565b348015610d1d57600080fd5b50610735612e9c565b348015610d3257600080fd5b50610552610d41366004613c30565b612eb5565b348015610d5257600080fd5b50610735600a5481565b348015610d6857600080fd5b50610552610d77366004613c30565b612f2b565b348015610d8857600080fd5b50610735613123565b348015610d9d57600080fd5b506004546105b4906001600160a01b031681565b348015610dbd57600080fd5b50610552610dcc366004613c30565b613258565b348015610ddd57600080fd5b506019546105b4906001600160a01b031681565b348015610dfd57600080fd5b50610552610e0c366004613c68565b6133c0565b348015610e1d57600080fd5b50610552610e2c366004613e50565b613453565b348015610e3d57600080fd5b5061073560155481565b348015610e5357600080fd5b50610552610e62366004613c30565b61352f565b348015610e7357600080fd5b506005546105b4906001600160a01b031681565b6001546001600160a01b03163314610ee05760405162461bcd60e51b81526020600482015260248082015260008051602061410483398151915260448201526330ba37b960e11b60648201526084015b60405180910390fd5b601b80546001600160a01b0319166001600160a01b0392909216919091179055565b6001546001600160a01b03163314610f565760405162461bcd60e51b81526020600482015260248082015260008051602061410483398151915260448201526330ba37b960e11b6064820152608401610ed7565b600380546001600160a01b0319166001600160a01b0392909216919091179055565b6001546001600160a01b03163314610fcc5760405162461bcd60e51b81526020600482015260248082015260008051602061410483398151915260448201526330ba37b960e11b6064820152608401610ed7565b6001600160a01b03811660009081526009602052604090205460ff1661101c5760405162461bcd60e51b8152602060048201526005602482015264085c1bdbdb60da1b6044820152606401610ed7565b60006001600160a01b0316816001600160a01b031663964236636040518163ffffffff1660e01b815260040160206040518083038186803b15801561106057600080fd5b505afa158015611074573d6000803e3d6000fd5b505050506040513d601f19601f820116820180604052508101906110989190613c4c565b6001600160a01b031614156110ef5760405162461bcd60e51b815260206004820152601460248201527f21706f6f6c436f6c6c61746572616c546f6b656e0000000000000000000000006044820152606401610ed7565b80601360026101000a8154816001600160a01b0302191690836001600160a01b03160217905550806001600160a01b031663964236636040518163ffffffff1660e01b815260040160206040518083038186803b15801561114f57600080fd5b505afa158015611163573d6000803e3d6000fd5b505050506040513d601f19601f820116820180604052508101906111879190613c4c565b601480546001600160a01b0319166001600160a01b039290921691909117905550565b600881815481106111ba57600080fd5b6000918252602090912001546001600160a01b0316905081565b6001546001600160a01b031633146112285760405162461bcd60e51b81526020600482015260248082015260008051602061410483398151915260448201526330ba37b960e11b6064820152608401610ed7565b601055565b600080600061123a613123565b905060006112dd620f42406112d7600d54600560009054906101000a90046001600160a01b03166001600160a01b03166318160ddd6040518163ffffffff1660e01b815260040160206040518083038186803b15801561129957600080fd5b505afa1580156112ad573d6000803e3d6000fd5b505050506040513d601f19601f820116820180604052508101906112d19190613e38565b90613660565b906136a7565b90508082106112fb576112f082826136b3565b93506001925061130c565b61130581836136b3565b9350600092505b50509091565b6001546001600160a01b031633146113665760405162461bcd60e51b81526020600482015260248082015260008051602061410483398151915260448201526330ba37b960e11b6064820152608401610ed7565b600680546001600160a01b0319166001600160a01b0392909216919091179055565b6001546001600160a01b031633146113dc5760405162461bcd60e51b81526020600482015260248082015260008051602061410483398151915260448201526330ba37b960e11b6064820152608401610ed7565b600f55565b6000806000806113f0601f5490565b6113f8612e9c565b601e54601c54935093509350935090919293565b6001546060906001600160a01b031633146114635760405162461bcd60e51b81526020600482015260248082015260008051602061410483398151915260448201526330ba37b960e11b6064820152608401610ed7565b60608351600014156114765750816114a2565b838051906020012083604051602001611490929190613e9d565b60405160208183030381529060405290505b600080876001600160a01b031687846040516114be9190613ee5565b60006040518083038185875af1925050503d80600081146114fb576040519150601f19603f3d011682016040523d82523d6000602084013e611500565b606091505b5091509150816040518060600160405280603d8152602001614124603d91399061153d5760405162461bcd60e51b8152600401610ed79190613f90565b50876001600160a01b03167f02351f450e2fc766dda692922cd0e080a07d702d68757f2154bf686ee052be6e88888860405161157b93929190613fa3565b60405180910390a2925050505b949350505050565b6001546001600160a01b031633146115e45760405162461bcd60e51b81526020600482015260248082015260008051602061410483398151915260448201526330ba37b960e11b6064820152608401610ed7565b600b55565b6001546001600160a01b0316331461163d5760405162461bcd60e51b81526020600482015260248082015260008051602061410483398151915260448201526330ba37b960e11b6064820152608401610ed7565b600480546001600160a01b0319166001600160a01b0392909216919091179055565b6001546001600160a01b031633146116b35760405162461bcd60e51b81526020600482015260248082015260008051602061410483398151915260448201526330ba37b960e11b6064820152608401610ed7565b6013805461ff001981166101009182900460ff1615909102179055565b6000546001600160a01b0316331461172a5760405162461bcd60e51b815260206004820181905260248201527f4f776e61626c653a2063616c6c6572206973206e6f7420746865206f776e65726044820152606401610ed7565b611733816136dd565b50565b60008060008060008060008061174a611bd7565b611752612663565b600560009054906101000a90046001600160a01b03166001600160a01b03166318160ddd6040518163ffffffff1660e01b815260040160206040518083038186803b1580156117a057600080fd5b505afa1580156117b4573d6000803e3d6000fd5b505050506040513d601f19601f820116820180604052508101906117d89190613e38565b600d54600e546117e6613123565b600b54600a54969f959e50939c50919a509850965094509092509050565b6001546001600160a01b031633146118585760405162461bcd60e51b81526020600482015260248082015260008051602061410483398151915260448201526330ba37b960e11b6064820152608401610ed7565b600754600160a01b900460ff161561189d5760405162461bcd60e51b81526020600482015260086024820152671b5a59dc985d195960c21b6044820152606401610ed7565b6001600160a01b03811660009081526009602052604090205460ff1615156001146118f25760405162461bcd60e51b8152602060048201526005602482015264085c1bdbdb60da1b6044820152606401610ed7565b6001600160a01b0381166000908152600960205260408120805460ff191690555b6008548110156119ca57816001600160a01b03166008828154811061194857634e487b7160e01b600052603260045260246000fd5b6000918252602090912001546001600160a01b031614156119b85760006008828154811061198657634e487b7160e01b600052603260045260246000fd5b9060005260206000200160006101000a8154816001600160a01b0302191690836001600160a01b031602179055505050565b806119c2816140a7565b915050611913565b5050565b60135460ff1615611a215760405162461bcd60e51b815260206004820181905260248201527f436f6c6c61746572616c20526174696f20686173206265656e207061757365646044820152606401610ed7565b600f54600c54611a319042614060565b1015611aa55760405162461bcd60e51b815260206004820152603560248201527f4d757374207761697420666f7220746865207265667265736820636f6f6c646f60448201527f776e2073696e6365206c617374207265667265736800000000000000000000006064820152608401610ed7565b6000611aaf611bd7565b9050611ac86012546011546137b190919063ffffffff16565b811115611afb57601054600d5411611ae4576000600d55611b50565b601054600d54611af3916136b3565b600d55611b50565b601254601154611b0a916136b3565b811015611b5057620f4240611b2c601054600d546137b190919063ffffffff16565b10611b3d57620f4240600d55611b50565b601054600d54611b4c916137b1565b600d555b601354610100900460ff1615611b7057611b68612729565b600e55611b77565b600d54600e555b5042600c55565b6001546001600160a01b03163314611bd25760405162461bcd60e51b81526020600482015260248082015260008051602061410483398151915260448201526330ba37b960e11b6064820152608401610ed7565b601155565b600354604080517f7eeda70300000000000000000000000000000000000000000000000000000000815290516000926001600160a01b031691637eeda703916004808301926020929190829003018186803b158015611c3557600080fd5b505afa158015611c49573d6000803e3d6000fd5b505050506040513d601f19601f82011682018060405250810190611c6d9190613e38565b905090565b6007546001600160a01b03163314611cba5760405162461bcd60e51b815260206004820152600b60248201526a085cdd1c985d1959da5cdd60aa1b6044820152606401610ed7565b600754600160a01b900460ff1615611cff5760405162461bcd60e51b81526020600482015260086024820152671b5a59dc985d195960c21b6044820152606401610ed7565b6013546201000090046001600160a01b0316611d5d5760405162461bcd60e51b815260206004820152601060248201527f21726562616c616e63696e67506f6f6c000000000000000000000000000000006044820152606401610ed7565b6014546001600160a01b0316611db55760405162461bcd60e51b815260206004820152601a60248201527f21726562616c616e63696e67506f6f6c436f6c6c61746572616c0000000000006044820152606401610ed7565b601554601654429190611dc89083614060565b1015611e165760405162461bcd60e51b815260206004820152601360248201527f3c726562616c616e63655f636f6f6c646f776e000000000000000000000000006044820152606401610ed7565b600080611e2161122d565b91509150808015611e325750600082115b611e7e5760405162461bcd60e51b815260206004820152600960248201527f21657863656564656400000000000000000000000000000000000000000000006044820152606401610ed7565b600085118015611e8d57508185105b611ed95760405162461bcd60e51b815260206004820152601760248201527f696e76616c6964436f6c6c61746572616c416d6f756e740000000000000000006044820152606401610ed7565b6000601360029054906101000a90046001600160a01b03166001600160a01b031663f7683bbc6040518163ffffffff1660e01b815260040160206040518083038186803b158015611f2957600080fd5b505afa158015611f3d573d6000803e3d6000fd5b505050506040513d601f19601f82011682018060405250810190611f619190613e38565b90506000611f76826112d789620f4240613660565b6014546013546040516370a0823160e01b81526001600160a01b03620100009092048216600482015292935083929116906370a082319060240160206040518083038186803b158015611fc857600080fd5b505afa158015611fdc573d6000803e3d6000fd5b505050506040513d601f19601f820116820180604052508101906120009190613e38565b1161204d5760405162461bcd60e51b815260206004820152601660248201527f696e737566666963656e74506f6f6c42616c616e6365000000000000000000006044820152606401610ed7565b601354604051631bc79abb60e11b815260048101839052620100009091046001600160a01b03169063378f357690602401600060405180830381600087803b15801561209857600080fd5b505af11580156120ac573d6000803e3d6000fd5b5050601454600654600093506120d192506001600160a01b039182169116848a6137dd565b604080518a8152602081018590529081018290529091507f08a6192ba3cf7155035aa0abade6c318265a34f2950e84eaff743d1231888f959060600160405180910390a150505060169290925550505050565b6001546001600160a01b031633146121785760405162461bcd60e51b81526020600482015260248082015260008051602061410483398151915260448201526330ba37b960e11b6064820152608401610ed7565b601e55565b6001600260008282546121909190614009565b9091555050600254600754600160a01b900460ff16156121f25760405162461bcd60e51b815260206004820152601260248201527f54726561737572793a206d6967726174656400000000000000000000000000006044820152606401610ed7565b601a544210156122445760405162461bcd60e51b815260206004820152601960248201527f54726561737572793a206e6f74207374617274656420796574000000000000006044820152606401610ed7565b600061224e612e9c565b9050804210156122a05760405162461bcd60e51b815260206004820152601860248201527f54726561737572793a206e6f74206f70656e65642079657400000000000000006044820152606401610ed7565b6000806122ab61122d565b915091506000811561248c576122d3620f42406112d7601c548661366090919063ffffffff16565b90506000601360029054906101000a90046001600160a01b03166001600160a01b031663f7683bbc6040518163ffffffff1660e01b815260040160206040518083038186803b15801561232557600080fd5b505afa158015612339573d6000803e3d6000fd5b505050506040513d601f19601f8201168201806040525081019061235d9190613e38565b90506000612372826112d785620f4240613660565b601354604051631bc79abb60e11b8152600481018390529192506201000090046001600160a01b03169063378f357690602401600060405180830381600087803b1580156123bf57600080fd5b505af11580156123d3573d6000803e3d6000fd5b5050601b546014546123f593506001600160a01b039081169250166000613ae5565b601b54601454612412916001600160a01b03918216911683613ae5565b601b546040517f97ffe1d7000000000000000000000000000000000000000000000000000000008152600481018390526001600160a01b03909116906397ffe1d790602401600060405180830381600087803b15801561247157600080fd5b505af1158015612485573d6000803e3d6000fd5b5050505050505b505050601d819055601f546124a29060016137b1565b601f5550600254811461173357600080fd5b6001546001600160a01b031633146125085760405162461bcd60e51b81526020600482015260248082015260008051602061410483398151915260448201526330ba37b960e11b6064820152608401610ed7565b601255565b6000546001600160a01b031633146125675760405162461bcd60e51b815260206004820181905260248201527f4f776e61626c653a2063616c6c6572206973206e6f7420746865206f776e65726044820152606401610ed7565b600080546040516001600160a01b03909116907f8be0079c531659141344cd1fd0a4f28419497f9722a3daafe3b4186f6b6457e0908390a3600080546001600160a01b0319169055565b6001546001600160a01b031633146126055760405162461bcd60e51b81526020600482015260248082015260008051602061410483398151915260448201526330ba37b960e11b6064820152608401610ed7565b600a55565b6001546001600160a01b0316331461265e5760405162461bcd60e51b81526020600482015260248082015260008051602061410483398151915260448201526330ba37b960e11b6064820152608401610ed7565b601555565b6000600460009054906101000a90046001600160a01b03166001600160a01b0316637eeda7036040518163ffffffff1660e01b815260040160206040518083038186803b158015611c3557600080fd5b6001546001600160a01b031633146127075760405162461bcd60e51b81526020600482015260248082015260008051602061410483398151915260448201526330ba37b960e11b6064820152608401610ed7565b600580546001600160a01b0319166001600160a01b0392909216919091179055565b601354600090610100900460ff166127425750600d5490565b600061274c613123565b90506000600560009054906101000a90046001600160a01b03166001600160a01b03166318160ddd6040518163ffffffff1660e01b815260040160206040518083038186803b15801561279e57600080fd5b505afa1580156127b2573d6000803e3d6000fd5b505050506040513d601f19601f820116820180604052508101906127d69190613e38565b905060006127eb826112d785620f4240613660565b9050620f424081111561280457620f4240935050505090565b9392505050565b6007546001600160a01b031633148061283d5750336128326001546001600160a01b031690565b6001600160a01b0316145b6128895760405162461bcd60e51b815260206004820152601660248201527f21737472617465676973742626216f70657261746f72000000000000000000006044820152606401610ed7565b601c55565b6007546001600160a01b031633146128d65760405162461bcd60e51b815260206004820152600b60248201526a085cdd1c985d1959da5cdd60aa1b6044820152606401610ed7565b600754600160a01b900460ff161561291b5760405162461bcd60e51b81526020600482015260086024820152671b5a59dc985d195960c21b6044820152606401610ed7565b6013546201000090046001600160a01b03166129795760405162461bcd60e51b815260206004820152601060248201527f21726562616c616e63696e67506f6f6c000000000000000000000000000000006044820152606401610ed7565b6014546001600160a01b03166129d15760405162461bcd60e51b815260206004820152601a60248201527f21726562616c616e63696e67506f6f6c436f6c6c61746572616c0000000000006044820152606401610ed7565b6015546016544291906129e49083614060565b1015612a325760405162461bcd60e51b815260206004820152601360248201527f3c726562616c616e63655f636f6f6c646f776e000000000000000000000000006044820152606401610ed7565b600080612a3d61122d565b9150915080158015612a4f5750600082115b612a9b5760405162461bcd60e51b815260206004820152600860248201527f65786365656465640000000000000000000000000000000000000000000000006044820152606401610ed7565b81841115612aeb5760405162461bcd60e51b815260206004820152600860248201527f3e646566696369740000000000000000000000000000000000000000000000006044820152606401610ed7565b6006546040516370a0823160e01b81523060048201526000916001600160a01b0316906370a082319060240160206040518083038186803b158015612b2f57600080fd5b505afa158015612b43573d6000803e3d6000fd5b505050506040513d601f19601f82011682018060405250810190612b679190613e38565b905080861115612bb95760405162461bcd60e51b815260206004820152600d60248201527f3e736861726542616c616e6365000000000000000000000000000000000000006044820152606401610ed7565b600654601454600091612bda916001600160a01b03918216911689896137dd565b6014546040516370a0823160e01b81523060048201529192506000916001600160a01b03909116906370a082319060240160206040518083038186803b158015612c2357600080fd5b505afa158015612c37573d6000803e3d6000fd5b505050506040513d601f19601f82011682018060405250810190612c5b9190613e38565b90508015612c8757601354601454612c87916001600160a01b0391821691620100009091041683613b8a565b6000601360029054906101000a90046001600160a01b03166001600160a01b031663f7683bbc6040518163ffffffff1660e01b815260040160206040518083038186803b158015612cd757600080fd5b505afa158015612ceb573d6000803e3d6000fd5b505050506040513d601f19601f82011682018060405250810190612d0f9190613e38565b90506000612d24620f42406112d78685613660565b604080518c8152602081018790529081018290529091507fa2f547fe4fa01671ec43d126d393c239e285ccfc633822b6413c5f474a73c1ac9060600160405180910390a1505050601694909455505050505050565b6001546001600160a01b03163314612dcd5760405162461bcd60e51b81526020600482015260248082015260008051602061410483398151915260448201526330ba37b960e11b6064820152608401610ed7565b6013805460ff19811660ff90911615179055565b6001546001600160a01b03163314612e355760405162461bcd60e51b81526020600482015260248082015260008051602061410483398151915260448201526330ba37b960e11b6064820152608401610ed7565b601f5415612e855760405162461bcd60e51b815260206004820152600f60248201527f616c7265616479207374617274656400000000000000000000000000000000006044820152606401610ed7565b601a819055612e96816170806136b3565b601d5550565b6000611c6d601e54601d546137b190919063ffffffff16565b6001546001600160a01b03163314612f095760405162461bcd60e51b81526020600482015260248082015260008051602061410483398151915260448201526330ba37b960e11b6064820152608401610ed7565b600780546001600160a01b0319166001600160a01b0392909216919091179055565b6001546001600160a01b03163314612f7f5760405162461bcd60e51b81526020600482015260248082015260008051602061410483398151915260448201526330ba37b960e11b6064820152608401610ed7565b600754600160a01b900460ff1615612fc45760405162461bcd60e51b81526020600482015260086024820152671b5a59dc985d195960c21b6044820152606401610ed7565b6007805460ff60a01b1916600160a01b1790556006546040516370a0823160e01b81523060048201526000916001600160a01b0316906370a082319060240160206040518083038186803b15801561301b57600080fd5b505afa15801561302f573d6000803e3d6000fd5b505050506040513d601f19601f820116820180604052508101906130539190613e38565b9050801561307257600654613072906001600160a01b03168383613b8a565b6014546001600160a01b0316156119ca576014546040516370a0823160e01b81523060048201526000916001600160a01b0316906370a082319060240160206040518083038186803b1580156130c757600080fd5b505afa1580156130db573d6000803e3d6000fd5b505050506040513d601f19601f820116820180604052508101906130ff9190613e38565b9050801561311e5760145461311e906001600160a01b03168483613b8a565b505050565b600080805b6008548110156132525760006001600160a01b03166008828154811061315e57634e487b7160e01b600052603260045260246000fd5b6000918252602090912001546001600160a01b0316146132405761323d6008828154811061319c57634e487b7160e01b600052603260045260246000fd5b60009182526020918290200154604080517f9c84d0f500000000000000000000000000000000000000000000000000000000815290516001600160a01b0390921692639c84d0f592600480840193829003018186803b1580156131fe57600080fd5b505afa158015613212573d6000803e3d6000fd5b505050506040513d601f19601f820116820180604052508101906132369190613e38565b83906137b1565b91505b8061324a816140a7565b915050613128565b50919050565b6001546001600160a01b031633146132ac5760405162461bcd60e51b81526020600482015260248082015260008051602061410483398151915260448201526330ba37b960e11b6064820152608401610ed7565b600754600160a01b900460ff16156132f15760405162461bcd60e51b81526020600482015260086024820152671b5a59dc985d195960c21b6044820152606401610ed7565b6001600160a01b03811660009081526009602052604090205460ff161561335a5760405162461bcd60e51b815260206004820152600b60248201527f706f6f6c457869737465640000000000000000000000000000000000000000006044820152606401610ed7565b6001600160a01b03166000818152600960205260408120805460ff191660019081179091556008805491820181559091527ff3f7a9fe364faab93b216da50a3214154f22a0a2b415b23a84c8169e8b636ee30180546001600160a01b0319169091179055565b6001546001600160a01b031633146134145760405162461bcd60e51b81526020600482015260248082015260008051602061410483398151915260448201526330ba37b960e11b6064820152608401610ed7565b601780546001600160a01b039485166001600160a01b031991821617909155601980549385169382169390931790925560188054919093169116179055565b6001546001600160a01b031633146134a75760405162461bcd60e51b81526020600482015260248082015260008051602061410483398151915260448201526330ba37b960e11b6064820152608401610ed7565b601954600160a01b900460ff16156135015760405162461bcd60e51b815260206004820152601260248201527f616c7265616479496e697469616c697a656400000000000000000000000000006044820152606401610ed7565b601a829055601e81905561351582826136b3565b601d5550506019805460ff60a01b1916600160a01b179055565b6000546001600160a01b031633146135895760405162461bcd60e51b815260206004820181905260248201527f4f776e61626c653a2063616c6c6572206973206e6f7420746865206f776e65726044820152606401610ed7565b6001600160a01b0381166136055760405162461bcd60e51b815260206004820152602660248201527f4f776e61626c653a206e6577206f776e657220697320746865207a65726f206160448201527f64647265737300000000000000000000000000000000000000000000000000006064820152608401610ed7565b600080546040516001600160a01b03808516939216917f8be0079c531659141344cd1fd0a4f28419497f9722a3daafe3b4186f6b6457e091a3600080546001600160a01b0319166001600160a01b0392909216919091179055565b60008261366f575060006136a1565b6136798284614041565b9050816136868483614021565b146136a157634e487b7160e01b600052600160045260246000fd5b92915050565b60006128048284614021565b6000828211156136d357634e487b7160e01b600052600160045260246000fd5b6128048284614060565b6001600160a01b0381166137595760405162461bcd60e51b815260206004820152602d60248201527f6f70657261746f723a207a65726f206164647265737320676976656e20666f7260448201527f206e6577206f70657261746f72000000000000000000000000000000000000006064820152608401610ed7565b6040516001600160a01b038216906000907f74da04524d50c64947f5dd5381ef1a4dca5cba8ed1d816243f9e48aa0b5617ed908290a3600180546001600160a01b0319166001600160a01b0392909216919091179055565b60006137bd8284614009565b9050828110156136a157634e487b7160e01b600052600160045260246000fd5b6017546000906001600160a01b03161580159061380457506019546001600160a01b031615155b801561381a57506018546001600160a01b031615155b6138665760405162461bcd60e51b815260206004820152600860248201527f21756e69737761700000000000000000000000000000000000000000000000006044820152606401610ed7565b8261387357506000611588565b604080516002808252606082018352600092602083019080368337019050506006549091506001600160a01b038781169116141561393f5760195481516001600160a01b039091169082906000906138db57634e487b7160e01b600052603260045260246000fd5b6001600160a01b03928316602091820292909201015260185482519116908290600190811061391a57634e487b7160e01b600052603260045260246000fd5b60200260200101906001600160a01b031690816001600160a01b0316815250506139cf565b60185481516001600160a01b0390911690829060009061396f57634e487b7160e01b600052603260045260246000fd5b6001600160a01b0392831660209182029290920101526019548251911690829060019081106139ae57634e487b7160e01b600052603260045260246000fd5b60200260200101906001600160a01b031690816001600160a01b0316815250505b6017546139ea906001600160a01b0388811691166000613ae5565b601754613a04906001600160a01b03888116911686613ae5565b6017546000906001600160a01b031663bff51d71888888888730613a2a426107086137b1565b6040518863ffffffff1660e01b8152600401613a4c9796959493929190613f01565b600060405180830381600087803b158015613a6657600080fd5b505af1158015613a7a573d6000803e3d6000fd5b505050506040513d6000823e601f3d908101601f19168201604052613aa29190810190613d58565b90508060018251613ab39190614060565b81518110613ad157634e487b7160e01b600052603260045260246000fd5b602002602001015192505050949350505050565b6040517f095ea7b30000000000000000000000000000000000000000000000000000000081526001600160a01b0383811660048301526024820183905284169063095ea7b3906044015b602060405180830381600087803b158015613b4957600080fd5b505af1158015613b5d573d6000803e3d6000fd5b505050506040513d601f19601f82011682018060405250810190613b819190613e00565b61311e57600080fd5b6040517fa9059cbb0000000000000000000000000000000000000000000000000000000081526001600160a01b0383811660048301526024820183905284169063a9059cbb90604401613b2f565b600067ffffffffffffffff831115613bf257613bf26140d8565b613c05601f8401601f1916602001613fd8565b9050828152838383011115613c1957600080fd5b828260208301376000602084830101529392505050565b600060208284031215613c41578081fd5b8135612804816140ee565b600060208284031215613c5d578081fd5b8151612804816140ee565b600080600060608486031215613c7c578182fd5b8335613c87816140ee565b92506020840135613c97816140ee565b91506040840135613ca7816140ee565b809150509250925092565b60008060008060808587031215613cc7578081fd5b8435613cd2816140ee565b935060208501359250604085013567ffffffffffffffff80821115613cf5578283fd5b818701915087601f830112613d08578283fd5b613d1788833560208501613bd8565b93506060870135915080821115613d2c578283fd5b508501601f81018713613d3d578182fd5b613d4c87823560208401613bd8565b91505092959194509250565b60006020808385031215613d6a578182fd5b825167ffffffffffffffff80821115613d81578384fd5b818501915085601f830112613d94578384fd5b815181811115613da657613da66140d8565b8060051b9150613db7848301613fd8565b8181528481019084860184860187018a1015613dd1578788fd5b8795505b83861015613df3578051835260019590950194918601918601613dd5565b5098975050505050505050565b600060208284031215613e11578081fd5b81518015158114612804578182fd5b600060208284031215613e31578081fd5b5035919050565b600060208284031215613e49578081fd5b5051919050565b60008060408385031215613e62578182fd5b50508035926020909101359150565b60008151808452613e89816020860160208601614077565b601f01601f19169290920160200192915050565b7fffffffff000000000000000000000000000000000000000000000000000000008316815260008251613ed7816004850160208701614077565b919091016004019392505050565b60008251613ef7818460208701614077565b9190910192915050565b600060e082016001600160a01b03808b1684526020818b168186015289604086015288606086015260e0608086015282885180855261010087019150828a019450855b81811015613f62578551851683529483019491830191600101613f44565b50506001600160a01b03881660a08701529350613f7e92505050565b8260c083015298975050505050505050565b6020815260006128046020830184613e71565b838152606060208201526000613fbc6060830185613e71565b8281036040840152613fce8185613e71565b9695505050505050565b604051601f8201601f1916810167ffffffffffffffff81118282101715614001576140016140d8565b604052919050565b6000821982111561401c5761401c6140c2565b500190565b60008261403c57634e487b7160e01b81526012600452602481fd5b500490565b600081600019048311821515161561405b5761405b6140c2565b500290565b600082821015614072576140726140c2565b500390565b60005b8381101561409257818101518382015260200161407a565b838111156140a1576000848401525b50505050565b60006000198214156140bb576140bb6140c2565b5060010190565b634e487b7160e01b600052601160045260246000fd5b634e487b7160e01b600052604160045260246000fd5b6001600160a01b038116811461173357600080fdfe6f70657261746f723a2063616c6c6572206973206e6f7420746865206f70657254726561737572793a3a657865637574655472616e73616374696f6e3a205472616e73616374696f6e20657865637574696f6e2072657665727465642ea2646970667358221220f0ffe449d6abb27a29363c5839f794e8f6569608c29e84dfe3724ef87a7b2ffb64736f6c63430008040033",
  "immutableReferences": {},
  "source": "// SPDX-License-Identifier: MIT\r\n\r\npragma solidity ^0.8.0;\r\npragma experimental ABIEncoderV2;\r\n\r\nimport \"./openZeppelin/SafeMath.sol\";\r\nimport \"./openZeppelin/IERC20.sol\";\r\nimport \"./openZeppelin/SafeERC20.sol\";\r\nimport \"./openZeppelin/Context.sol\";\r\nimport \"./openZeppelin/ReentrancyGuard.sol\";\r\n\r\n// import \"./ERC20Custom.sol\";\r\nimport \"./interfaces/ITreasury.sol\";\r\nimport \"./interfaces/IOracle.sol\";\r\nimport \"./interfaces/IPool.sol\";\r\nimport \"./interfaces/IFoundry.sol\";\r\nimport \"./interfaces/IValueLiquidRouter.sol\";\r\nimport \"./Operator.sol\";\r\n\r\ncontract TreasuryAGOUSD is ITreasury, Operator, ReentrancyGuard {\r\n    using SafeMath for uint256;\r\n    using SafeERC20 for IERC20;\r\n\r\n    address public oracleDollar;\r\n    address public oracleShare;\r\n\r\n    address public AGOUSD;\r\n    address public CNUSD;\r\n    address public strategist;\r\n\r\n    bool public migrated = false;\r\n\r\n    // pools\r\n    address[] public pools_array;\r\n    mapping(address => bool) public pools;\r\n\r\n    // Constants for various precisions\r\n    uint256 private constant PRICE_PRECISION = 1e6;\r\n    uint256 private constant RATIO_PRECISION = 1e6;\r\n\r\n    // fees\r\n    uint256 public redemption_fee; // 6 decimals of precision\r\n    uint256 public minting_fee; // 6 decimals of precision\r\n\r\n    // collateral_ratio\r\n    uint256 public last_refresh_cr_timestamp;\r\n    uint256 public target_collateral_ratio; // 6 decimals of precision\r\n    uint256 public effective_collateral_ratio; // 6 decimals of precision\r\n    uint256 public refresh_cooldown; // Seconds to wait before being able to run refreshCollateralRatio() again\r\n    uint256 public ratio_step; // Amount to change the collateralization ratio by upon refreshCollateralRatio()\r\n    uint256 public price_target; // The price of AGOUSD at which the collateral ratio will respond to; this value is only used for the collateral ratio mechanism and not for minting and redeeming which are hardcoded at $1\r\n    uint256 public price_band; // The bound above and below the price target at which the Collateral ratio is allowed to drop\r\n    bool public collateral_ratio_paused = true; // during bootstraping phase, collateral_ratio will be fixed at 100%\r\n    bool public using_effective_collateral_ratio = false; // toggle the effective collateral ratio usage\r\n    uint256 private constant COLLATERAL_RATIO_MAX = 1e6;\r\n\r\n    // rebalance\r\n    address public rebalancing_pool;\r\n    address public rebalancing_pool_collateral;\r\n    uint256 public rebalance_cooldown = 12 hours;\r\n    uint256 public last_rebalance_timestamp;\r\n\r\n    // uniswap\r\n    address public uniswap_router;\r\n    address public uniswap_pair_WETH_USDT;\r\n    address public uniswap_pair_CNUSD_WETH;\r\n\r\n    // foundry\r\n    bool public initialized = false;\r\n    uint256 public startTime;\r\n    address public foundry;\r\n    uint256 public excess_collateral_distributed_ratio = 50000; // 5% per epoch\r\n    uint256 public lastEpochTime;\r\n    uint256 public epoch_length;\r\n    uint256 private _epoch = 0;\r\n\r\n    /* ========== MODIFIERS ========== */\r\n\r\n    modifier onlyStrategist() {\r\n        require(strategist == msg.sender, \"!strategist\");\r\n        _;\r\n    }\r\n\r\n    modifier onlyStrategistOrOperator() {\r\n        require(strategist == msg.sender || operator() == msg.sender, \"!strategist&&!operator\");\r\n        _;\r\n    }\r\n\r\n    modifier notMigrated() {\r\n        require(migrated == false, \"migrated\");\r\n        _;\r\n    }\r\n\r\n    modifier hasRebalancePool() {\r\n        require(rebalancing_pool != address(0), \"!rebalancingPool\");\r\n        require(rebalancing_pool_collateral != address(0), \"!rebalancingPoolCollateral\");\r\n        _;\r\n    }\r\n\r\n    modifier checkCondition {\r\n        require(!migrated, \"Treasury: migrated\");\r\n        require(block.timestamp >= startTime, \"Treasury: not started yet\");\r\n        _;\r\n    }\r\n\r\n    modifier checkRebalanceCooldown() {\r\n        uint256 _blockTimestamp = block.timestamp;\r\n        require(_blockTimestamp - last_rebalance_timestamp >= rebalance_cooldown, \"<rebalance_cooldown\");\r\n        _;\r\n        last_rebalance_timestamp = _blockTimestamp;\r\n    }\r\n\r\n    modifier checkEpoch {\r\n        uint256 _nextEpochPoint = nextEpochPoint();\r\n        require(block.timestamp >= _nextEpochPoint, \"Treasury: not opened yet\");\r\n        _;\r\n        lastEpochTime = _nextEpochPoint;\r\n        _epoch = _epoch.add(1);\r\n    }\r\n\r\n    /* ========== EVENTS ============= */\r\n    event TransactionExecuted(address indexed target, uint256 value, string signature, bytes data);\r\n    event BoughtBack(uint256 collateral_value, uint256 collateral_amount, uint256 output_share_amount);\r\n    event Recollateralized(uint256 share_amount, uint256 output_collateral_amount, uint256 output_collateral_value);\r\n\r\n    /* ========== CONSTRUCTOR ========== */\r\n\r\n    constructor(){\r\n        ratio_step = 2500; // = 0.25% at 6 decimals of precision\r\n        target_collateral_ratio = 1000000; // = 100% - fully collateralized at start\r\n        effective_collateral_ratio = 1000000; // = 100% - fully collateralized at start\r\n        refresh_cooldown = 3600; // Refresh cooldown period is set to 1 hour (3600 seconds) at genesis\r\n        price_target = 1000000; // = $1. (6 decimals of precision). Collateral ratio will adjust according to the $1 price target at genesis\r\n        price_band = 5000;\r\n        redemption_fee = 4000;\r\n        minting_fee = 3000;\r\n    }\r\n\r\n    function initialize(uint256 _startTime, uint256 _epoch_length) external onlyOperator {\r\n        require(initialized == false, \"alreadyInitialized\");\r\n        startTime = _startTime;\r\n        epoch_length = _epoch_length;\r\n        lastEpochTime = _startTime.sub(epoch_length);\r\n        initialized = true;\r\n    }\r\n\r\n    /* ========== VIEWS ========== */\r\n\r\n    function dollarPrice() public view returns (uint256) {\r\n        return IOracle(oracleDollar).consult();\r\n    }\r\n\r\n    function sharePrice() public view returns (uint256) {\r\n        return IOracle(oracleShare).consult();\r\n    }\r\n\r\n    function hasPool(address _address) external view override returns (bool) {\r\n        return pools[_address] == true;\r\n    }\r\n\r\n    function nextEpochPoint() public view override returns (uint256) {\r\n        return lastEpochTime.add(epoch_length);\r\n    }\r\n\r\n    function epoch() public view override returns (uint256) {\r\n        return _epoch;\r\n    }\r\n\r\n    function info()\r\n        external\r\n        view\r\n        override\r\n        returns (\r\n            uint256,\r\n            uint256,\r\n            uint256,\r\n            uint256,\r\n            uint256,\r\n            uint256,\r\n            uint256,\r\n            uint256\r\n        )\r\n    {\r\n        return (dollarPrice(), sharePrice(), IERC20(AGOUSD).totalSupply(), target_collateral_ratio, effective_collateral_ratio, globalCollateralValue(), minting_fee, redemption_fee);\r\n    }\r\n\r\n    function epochInfo()\r\n        external\r\n        view\r\n        override\r\n        returns (\r\n            uint256,\r\n            uint256,\r\n            uint256,\r\n            uint256\r\n        )\r\n    {\r\n        return (epoch(), nextEpochPoint(), epoch_length, excess_collateral_distributed_ratio);\r\n    }\r\n\r\n    // Iterate through all pools and calculate all value of collateral in all pools globally\r\n    function globalCollateralValue() public view returns (uint256) {\r\n        uint256 total_collateral_value = 0;\r\n        for (uint256 i = 0; i < pools_array.length; i++) {\r\n            // Exclude null addresses\r\n            if (pools_array[i] != address(0)) {\r\n                total_collateral_value = total_collateral_value.add(IPool(pools_array[i]).collateralDollarBalance());\r\n            }\r\n        }\r\n        return total_collateral_value;\r\n    }\r\n\r\n    function calcEffectiveCollateralRatio() public view returns (uint256) {\r\n        if (!using_effective_collateral_ratio) {\r\n            return target_collateral_ratio;\r\n        }\r\n        uint256 total_collateral_value = globalCollateralValue();\r\n        uint256 total_supply_dollar = IERC20(AGOUSD).totalSupply();\r\n        uint256 ecr = total_collateral_value.mul(PRICE_PRECISION).div(total_supply_dollar);\r\n        if (ecr > COLLATERAL_RATIO_MAX) {\r\n            return COLLATERAL_RATIO_MAX;\r\n        }\r\n        return ecr;\r\n    }\r\n\r\n    /* ========== PUBLIC FUNCTIONS ========== */\r\n\r\n    function refreshCollateralRatio() public {\r\n        require(collateral_ratio_paused == false, \"Collateral Ratio has been paused\");\r\n        require(block.timestamp - last_refresh_cr_timestamp >= refresh_cooldown, \"Must wait for the refresh cooldown since last refresh\");\r\n\r\n        uint256 current_dollar_price = dollarPrice();\r\n\r\n        // Step increments are 0.25% (upon genesis, changable by setRatioStep())\r\n        if (current_dollar_price > price_target.add(price_band)) {\r\n            // decrease collateral ratio\r\n            if (target_collateral_ratio <= ratio_step) {\r\n                // if within a step of 0, go to 0\r\n                target_collateral_ratio = 0;\r\n            } else {\r\n                target_collateral_ratio = target_collateral_ratio.sub(ratio_step);\r\n            }\r\n        }\r\n        // IRON price is below $1 - `price_band`. Need to increase `collateral_ratio`\r\n        else if (current_dollar_price < price_target.sub(price_band)) {\r\n            // increase collateral ratio\r\n            if (target_collateral_ratio.add(ratio_step) >= COLLATERAL_RATIO_MAX) {\r\n                target_collateral_ratio = COLLATERAL_RATIO_MAX; // cap collateral ratio at 1.000000\r\n            } else {\r\n                target_collateral_ratio = target_collateral_ratio.add(ratio_step);\r\n            }\r\n        }\r\n\r\n        // If using ECR, then calcECR. If not, update ECR = TCR\r\n        if (using_effective_collateral_ratio) {\r\n            effective_collateral_ratio = calcEffectiveCollateralRatio();\r\n        } else {\r\n            effective_collateral_ratio = target_collateral_ratio;\r\n        }\r\n\r\n        last_refresh_cr_timestamp = block.timestamp;\r\n    }\r\n\r\n    // Check if the protocol is over- or under-collateralized, by how much\r\n    function calcCollateralBalance() public view returns (uint256 _collateral_value, bool _exceeded) {\r\n        uint256 total_collateral_value = globalCollateralValue();\r\n        uint256 target_collateral_value = IERC20(AGOUSD).totalSupply().mul(target_collateral_ratio).div(PRICE_PRECISION);\r\n        if (total_collateral_value >= target_collateral_value) {\r\n            _collateral_value = total_collateral_value.sub(target_collateral_value);\r\n            _exceeded = true;\r\n        } else {\r\n            _collateral_value = target_collateral_value.sub(total_collateral_value);\r\n            _exceeded = false;\r\n        }\r\n    }\r\n\r\n    /* -========= INTERNAL FUNCTIONS ============ */\r\n\r\n    // SWAP tokens using uniswap\r\n    function _swap(\r\n        address _input_token,\r\n        address _output_token,\r\n        uint256 _input_amount,\r\n        uint256 _min_output_amount\r\n    ) internal returns (uint256) {\r\n        require(uniswap_router != address(0) && uniswap_pair_CNUSD_WETH != address(0) && uniswap_pair_WETH_USDT != address(0), \"!uniswap\");\r\n        if (_input_amount == 0) return 0;\r\n        address[] memory _path = new address[](2);\r\n        if (_input_token == CNUSD) {\r\n            _path[0] = uniswap_pair_CNUSD_WETH;\r\n            _path[1] = uniswap_pair_WETH_USDT;\r\n        } else {\r\n            _path[0] = uniswap_pair_WETH_USDT;\r\n            _path[1] = uniswap_pair_CNUSD_WETH;\r\n        }\r\n        IERC20(_input_token).safeApprove(uniswap_router, 0);\r\n        IERC20(_input_token).safeApprove(uniswap_router, _input_amount);\r\n        uint256[] memory out_amounts = IValueLiquidRouter(uniswap_router).swapExactTokensForTokens(_input_token, _output_token, _input_amount, _min_output_amount, _path, address(this), block.timestamp.add(1800));\r\n        return out_amounts[out_amounts.length - 1];\r\n    }\r\n\r\n    /* ========== RESTRICTED FUNCTIONS ========== */\r\n\r\n    // Add new Pool\r\n    function addPool(address pool_address) public onlyOperator notMigrated {\r\n        require(pools[pool_address] == false, \"poolExisted\");\r\n        pools[pool_address] = true;\r\n        pools_array.push(pool_address);\r\n    }\r\n\r\n    // Remove a pool\r\n    function removePool(address pool_address) public onlyOperator notMigrated {\r\n        require(pools[pool_address] == true, \"!pool\");\r\n        // Delete from the mapping\r\n        delete pools[pool_address];\r\n        // 'Delete' from the array by setting the address to 0x0\r\n        for (uint256 i = 0; i < pools_array.length; i++) {\r\n            if (pools_array[i] == pool_address) {\r\n                pools_array[i] = address(0); // This will leave a null in the array and keep the indices the same\r\n                break;\r\n            }\r\n        }\r\n    }\r\n\r\n    // SINGLE POOL STRATEGY\r\n    // With Treasury v1, we will only utilize collateral from a single pool to do rebalancing\r\n    function buyback(uint256 _collateral_value, uint256 _min_share_amount) external onlyStrategist notMigrated hasRebalancePool checkRebalanceCooldown {\r\n        (uint256 _excess_collateral_value, bool _exceeded) = calcCollateralBalance();\r\n        require(_exceeded && _excess_collateral_value > 0, \"!exceeded\");\r\n        require(_collateral_value > 0 && _collateral_value < _excess_collateral_value, \"invalidCollateralAmount\");\r\n        uint256 _collateral_price = IPool(rebalancing_pool).getCollateralPrice();\r\n        uint256 _collateral_amount_sell = _collateral_value.mul(PRICE_PRECISION).div(_collateral_price);\r\n        require(IERC20(rebalancing_pool_collateral).balanceOf(rebalancing_pool) > _collateral_amount_sell, \"insufficentPoolBalance\");\r\n        IPool(rebalancing_pool).transferCollateralToTreasury(_collateral_amount_sell); // Transfer collateral from pool to treasury\r\n        uint256 out_share_amount = _swap(rebalancing_pool_collateral, CNUSD, _collateral_amount_sell, _min_share_amount);\r\n        emit BoughtBack(_collateral_value, _collateral_amount_sell, out_share_amount);\r\n    }\r\n\r\n    // SINGLE POOL STRATEGY\r\n    // With Treasury v1, we will only utilize collateral from a single pool to do rebalancing\r\n    function recollateralize(uint256 _share_amount, uint256 _min_collateral_amount) external onlyStrategist notMigrated hasRebalancePool checkRebalanceCooldown {\r\n        (uint256 _deficit_collateral_value, bool _exceeded) = calcCollateralBalance();\r\n        require(!_exceeded && _deficit_collateral_value > 0, \"exceeded\");\r\n        require(_min_collateral_amount <= _deficit_collateral_value, \">deficit\");\r\n        uint256 _share_balance = IERC20(CNUSD).balanceOf(address(this));\r\n        require(_share_amount <= _share_balance, \">shareBalance\");\r\n        uint256 out_collateral_amount = _swap(CNUSD, rebalancing_pool_collateral, _share_amount, _min_collateral_amount);\r\n        uint256 _collateral_balance = IERC20(rebalancing_pool_collateral).balanceOf(address(this));\r\n        if (_collateral_balance > 0) {\r\n            IERC20(rebalancing_pool_collateral).safeTransfer(rebalancing_pool, _collateral_balance); // Transfer collateral from Treasury to Pool\r\n        }\r\n        uint256 collateral_price = IPool(rebalancing_pool).getCollateralPrice();\r\n        uint256 out_collateral_value = out_collateral_amount.mul(collateral_price).div(PRICE_PRECISION);\r\n        emit Recollateralized(_share_amount, out_collateral_amount, out_collateral_value);\r\n    }\r\n\r\n    function allocateSeigniorage() external nonReentrant checkCondition checkEpoch {\r\n        (uint256 _excess_collateral_value, bool _exceeded) = calcCollateralBalance();\r\n        uint256 _allocation_value = 0;\r\n        if (_exceeded) {\r\n            _allocation_value = _excess_collateral_value.mul(excess_collateral_distributed_ratio).div(RATIO_PRECISION);\r\n            uint256 collateral_price = IPool(rebalancing_pool).getCollateralPrice();\r\n            uint256 _allocation_amount = _allocation_value.mul(PRICE_PRECISION).div(collateral_price);\r\n            IPool(rebalancing_pool).transferCollateralToTreasury(_allocation_amount); // Transfer collateral from pool to treasury\r\n            IERC20(rebalancing_pool_collateral).safeApprove(foundry, 0);\r\n            IERC20(rebalancing_pool_collateral).safeApprove(foundry, _allocation_amount);\r\n            IFoundry(foundry).allocateSeigniorage(_allocation_amount);\r\n        }\r\n    }\r\n\r\n    function migrate(address _new_treasury) external onlyOperator notMigrated {\r\n        migrated = true;\r\n        uint256 _share_balance = IERC20(CNUSD).balanceOf(address(this));\r\n        if (_share_balance > 0) {\r\n            IERC20(CNUSD).safeTransfer(_new_treasury, _share_balance);\r\n        }\r\n        if (rebalancing_pool_collateral != address(0)) {\r\n            uint256 _collateral_balance = IERC20(rebalancing_pool_collateral).balanceOf(address(this));\r\n            if (_collateral_balance > 0) {\r\n                IERC20(rebalancing_pool_collateral).safeTransfer(_new_treasury, _collateral_balance);\r\n            }\r\n        }\r\n    }\r\n\r\n    function setRedemptionFee(uint256 _redemption_fee) public onlyOperator {\r\n        redemption_fee = _redemption_fee;\r\n    }\r\n\r\n    function setMintingFee(uint256 _minting_fee) public onlyOperator {\r\n        minting_fee = _minting_fee;\r\n    }\r\n\r\n    function setRatioStep(uint256 _ratio_step) public onlyOperator {\r\n        ratio_step = _ratio_step;\r\n    }\r\n\r\n    function setPriceTarget(uint256 _price_target) public onlyOperator {\r\n        price_target = _price_target;\r\n    }\r\n\r\n    function setRefreshCooldown(uint256 _refresh_cooldown) public onlyOperator {\r\n        refresh_cooldown = _refresh_cooldown;\r\n    }\r\n\r\n    function setPriceBand(uint256 _price_band) external onlyOperator {\r\n        price_band = _price_band;\r\n    }\r\n\r\n    function toggleCollateralRatio() public onlyOperator {\r\n        collateral_ratio_paused = !collateral_ratio_paused;\r\n    }\r\n\r\n    function toggleEffectiveCollateralRatio() public onlyOperator {\r\n        using_effective_collateral_ratio = !using_effective_collateral_ratio;\r\n    }\r\n\r\n    function setOracleDollar(address _oracleDollar) public onlyOperator {\r\n        oracleDollar = _oracleDollar;\r\n    }\r\n\r\n    function setOracleShare(address _oracleShare) public onlyOperator {\r\n        oracleShare = _oracleShare;\r\n    }\r\n\r\n    function setDollarAddress(address _AGOUSD) public onlyOperator {\r\n        AGOUSD = _AGOUSD;\r\n    }\r\n\r\n    function setShareAddress(address _CNUSD) public onlyOperator {\r\n        CNUSD = _CNUSD;\r\n    }\r\n\r\n    function setStrategist(address _strategist) external onlyOperator {\r\n        strategist = _strategist;\r\n    }\r\n\r\n    function setUniswapParams(\r\n        address _uniswap_router,\r\n        address _uniswap_pair_CNUSD_WETH,\r\n        address _uniswap_pair_WETH_USDT\r\n    ) public onlyOperator {\r\n        uniswap_router = _uniswap_router;\r\n        uniswap_pair_CNUSD_WETH = _uniswap_pair_CNUSD_WETH;\r\n        uniswap_pair_WETH_USDT = _uniswap_pair_WETH_USDT;\r\n    }\r\n\r\n    function setRebalancePool(address _rebalance_pool) public onlyOperator {\r\n        require(pools[_rebalance_pool], \"!pool\");\r\n        require(IPool(_rebalance_pool).getCollateralToken() != address(0), \"!poolCollateralToken\");\r\n        rebalancing_pool = _rebalance_pool;\r\n        rebalancing_pool_collateral = IPool(_rebalance_pool).getCollateralToken();\r\n    }\r\n\r\n    function setRebalanceCooldown(uint256 _rebalance_cooldown) public onlyOperator {\r\n        rebalance_cooldown = _rebalance_cooldown;\r\n    }\r\n\r\n    function resetStartTime(uint256 _startTime) external onlyOperator {\r\n        require(_epoch == 0, \"already started\");\r\n        startTime = _startTime;\r\n        lastEpochTime = _startTime.sub(8 hours);\r\n    }\r\n\r\n    function setFoundry(address _foundry) public onlyOperator {\r\n        foundry = _foundry;\r\n    }\r\n\r\n    function setEpochLength(uint256 _epoch_length) public onlyOperator {\r\n        epoch_length = _epoch_length;\r\n    }\r\n\r\n    function setExcessDistributionRatio(uint256 _excess_collateral_distributed_ratio) public onlyStrategistOrOperator {\r\n        excess_collateral_distributed_ratio = _excess_collateral_distributed_ratio;\r\n    }\r\n\r\n    /* ========== EMERGENCY ========== */\r\n\r\n    function executeTransaction(\r\n        address target,\r\n        uint256 value,\r\n        string memory signature,\r\n        bytes memory data\r\n    ) public onlyOperator returns (bytes memory) {\r\n        bytes memory callData;\r\n\r\n        if (bytes(signature).length == 0) {\r\n            callData = data;\r\n        } else {\r\n            callData = abi.encodePacked(bytes4(keccak256(bytes(signature))), data);\r\n        }\r\n\r\n        // solium-disable-next-line security/no-call-value\r\n        \r\n        (bool success, bytes memory returnData) = target.call{value: value}(callData);\r\n        require(success, string(\"Treasury::executeTransaction: Transaction execution reverted.\"));\r\n        emit TransactionExecuted(target, value, signature, data);\r\n        return returnData;\r\n    }\r\n\r\n    receive() external payable {}\r\n}\r\n",
  "sourcePath": "C:/Users/PaulMuller/Documents/projects/project_AGO/contracts/TreasuryAGOUSD.sol",
  "compiler": {
    "name": "solc",
    "version": "0.8.4+commit.c7e474f2.Emscripten.clang"
  },
  "schemaVersion": "3.3.4",
  "updatedAt": "2021-04-24T19:45:45.782Z",
  "networkType": "ethereum",
  "devdoc": {
    "kind": "dev",
    "methods": {},
    "version": 1
  },
  "userdoc": {
    "kind": "user",
    "methods": {},
    "version": 1
  }
}