{
  "contractName": "TreasuryAGOUSD",
  "abi": [
    {
      "inputs": [],
      "stateMutability": "nonpayable",
      "type": "constructor"
    },
    {
      "anonymous": false,
      "inputs": [
        {
          "indexed": false,
          "internalType": "uint256",
          "name": "collateral_value",
          "type": "uint256"
        },
        {
          "indexed": false,
          "internalType": "uint256",
          "name": "collateral_amount",
          "type": "uint256"
        },
        {
          "indexed": false,
          "internalType": "uint256",
          "name": "output_share_amount",
          "type": "uint256"
        }
      ],
      "name": "BoughtBack",
      "type": "event"
    },
    {
      "anonymous": false,
      "inputs": [
        {
          "indexed": true,
          "internalType": "address",
          "name": "previousOperator",
          "type": "address"
        },
        {
          "indexed": true,
          "internalType": "address",
          "name": "newOperator",
          "type": "address"
        }
      ],
      "name": "OperatorTransferred",
      "type": "event"
    },
    {
      "anonymous": false,
      "inputs": [
        {
          "indexed": true,
          "internalType": "address",
          "name": "previousOwner",
          "type": "address"
        },
        {
          "indexed": true,
          "internalType": "address",
          "name": "newOwner",
          "type": "address"
        }
      ],
      "name": "OwnershipTransferred",
      "type": "event"
    },
    {
      "anonymous": false,
      "inputs": [
        {
          "indexed": false,
          "internalType": "uint256",
          "name": "share_amount",
          "type": "uint256"
        },
        {
          "indexed": false,
          "internalType": "uint256",
          "name": "output_collateral_amount",
          "type": "uint256"
        },
        {
          "indexed": false,
          "internalType": "uint256",
          "name": "output_collateral_value",
          "type": "uint256"
        }
      ],
      "name": "Recollateralized",
      "type": "event"
    },
    {
      "anonymous": false,
      "inputs": [
        {
          "indexed": true,
          "internalType": "address",
          "name": "target",
          "type": "address"
        },
        {
          "indexed": false,
          "internalType": "uint256",
          "name": "value",
          "type": "uint256"
        },
        {
          "indexed": false,
          "internalType": "string",
          "name": "signature",
          "type": "string"
        },
        {
          "indexed": false,
          "internalType": "bytes",
          "name": "data",
          "type": "bytes"
        }
      ],
      "name": "TransactionExecuted",
      "type": "event"
    },
    {
      "inputs": [],
      "name": "AGOUSD",
      "outputs": [
        {
          "internalType": "address",
          "name": "",
          "type": "address"
        }
      ],
      "stateMutability": "view",
      "type": "function",
      "constant": true
    },
    {
      "inputs": [],
      "name": "CNUSD",
      "outputs": [
        {
          "internalType": "address",
          "name": "",
          "type": "address"
        }
      ],
      "stateMutability": "view",
      "type": "function",
      "constant": true
    },
    {
      "inputs": [],
      "name": "collateral_ratio_paused",
      "outputs": [
        {
          "internalType": "bool",
          "name": "",
          "type": "bool"
        }
      ],
      "stateMutability": "view",
      "type": "function",
      "constant": true
    },
    {
      "inputs": [],
      "name": "effective_collateral_ratio",
      "outputs": [
        {
          "internalType": "uint256",
          "name": "",
          "type": "uint256"
        }
      ],
      "stateMutability": "view",
      "type": "function",
      "constant": true
    },
    {
      "inputs": [],
      "name": "epoch_length",
      "outputs": [
        {
          "internalType": "uint256",
          "name": "",
          "type": "uint256"
        }
      ],
      "stateMutability": "view",
      "type": "function",
      "constant": true
    },
    {
      "inputs": [],
      "name": "excess_collateral_distributed_ratio",
      "outputs": [
        {
          "internalType": "uint256",
          "name": "",
          "type": "uint256"
        }
      ],
      "stateMutability": "view",
      "type": "function",
      "constant": true
    },
    {
      "inputs": [],
      "name": "foundry",
      "outputs": [
        {
          "internalType": "address",
          "name": "",
          "type": "address"
        }
      ],
      "stateMutability": "view",
      "type": "function",
      "constant": true
    },
    {
      "inputs": [],
      "name": "initialized",
      "outputs": [
        {
          "internalType": "bool",
          "name": "",
          "type": "bool"
        }
      ],
      "stateMutability": "view",
      "type": "function",
      "constant": true
    },
    {
      "inputs": [],
      "name": "isOperator",
      "outputs": [
        {
          "internalType": "bool",
          "name": "",
          "type": "bool"
        }
      ],
      "stateMutability": "view",
      "type": "function",
      "constant": true
    },
    {
      "inputs": [],
      "name": "lastEpochTime",
      "outputs": [
        {
          "internalType": "uint256",
          "name": "",
          "type": "uint256"
        }
      ],
      "stateMutability": "view",
      "type": "function",
      "constant": true
    },
    {
      "inputs": [],
      "name": "last_rebalance_timestamp",
      "outputs": [
        {
          "internalType": "uint256",
          "name": "",
          "type": "uint256"
        }
      ],
      "stateMutability": "view",
      "type": "function",
      "constant": true
    },
    {
      "inputs": [],
      "name": "last_refresh_cr_timestamp",
      "outputs": [
        {
          "internalType": "uint256",
          "name": "",
          "type": "uint256"
        }
      ],
      "stateMutability": "view",
      "type": "function",
      "constant": true
    },
    {
      "inputs": [],
      "name": "migrated",
      "outputs": [
        {
          "internalType": "bool",
          "name": "",
          "type": "bool"
        }
      ],
      "stateMutability": "view",
      "type": "function",
      "constant": true
    },
    {
      "inputs": [],
      "name": "minting_fee",
      "outputs": [
        {
          "internalType": "uint256",
          "name": "",
          "type": "uint256"
        }
      ],
      "stateMutability": "view",
      "type": "function",
      "constant": true
    },
    {
      "inputs": [],
      "name": "operator",
      "outputs": [
        {
          "internalType": "address",
          "name": "",
          "type": "address"
        }
      ],
      "stateMutability": "view",
      "type": "function",
      "constant": true
    },
    {
      "inputs": [],
      "name": "oracleDollar",
      "outputs": [
        {
          "internalType": "address",
          "name": "",
          "type": "address"
        }
      ],
      "stateMutability": "view",
      "type": "function",
      "constant": true
    },
    {
      "inputs": [],
      "name": "oracleShare",
      "outputs": [
        {
          "internalType": "address",
          "name": "",
          "type": "address"
        }
      ],
      "stateMutability": "view",
      "type": "function",
      "constant": true
    },
    {
      "inputs": [],
      "name": "owner",
      "outputs": [
        {
          "internalType": "address",
          "name": "",
          "type": "address"
        }
      ],
      "stateMutability": "view",
      "type": "function",
      "constant": true
    },
    {
      "inputs": [
        {
          "internalType": "address",
          "name": "",
          "type": "address"
        }
      ],
      "name": "pools",
      "outputs": [
        {
          "internalType": "bool",
          "name": "",
          "type": "bool"
        }
      ],
      "stateMutability": "view",
      "type": "function",
      "constant": true
    },
    {
      "inputs": [
        {
          "internalType": "uint256",
          "name": "",
          "type": "uint256"
        }
      ],
      "name": "pools_array",
      "outputs": [
        {
          "internalType": "address",
          "name": "",
          "type": "address"
        }
      ],
      "stateMutability": "view",
      "type": "function",
      "constant": true
    },
    {
      "inputs": [],
      "name": "price_band",
      "outputs": [
        {
          "internalType": "uint256",
          "name": "",
          "type": "uint256"
        }
      ],
      "stateMutability": "view",
      "type": "function",
      "constant": true
    },
    {
      "inputs": [],
      "name": "price_target",
      "outputs": [
        {
          "internalType": "uint256",
          "name": "",
          "type": "uint256"
        }
      ],
      "stateMutability": "view",
      "type": "function",
      "constant": true
    },
    {
      "inputs": [],
      "name": "ratio_step",
      "outputs": [
        {
          "internalType": "uint256",
          "name": "",
          "type": "uint256"
        }
      ],
      "stateMutability": "view",
      "type": "function",
      "constant": true
    },
    {
      "inputs": [],
      "name": "rebalance_cooldown",
      "outputs": [
        {
          "internalType": "uint256",
          "name": "",
          "type": "uint256"
        }
      ],
      "stateMutability": "view",
      "type": "function",
      "constant": true
    },
    {
      "inputs": [],
      "name": "rebalancing_pool",
      "outputs": [
        {
          "internalType": "address",
          "name": "",
          "type": "address"
        }
      ],
      "stateMutability": "view",
      "type": "function",
      "constant": true
    },
    {
      "inputs": [],
      "name": "rebalancing_pool_collateral",
      "outputs": [
        {
          "internalType": "address",
          "name": "",
          "type": "address"
        }
      ],
      "stateMutability": "view",
      "type": "function",
      "constant": true
    },
    {
      "inputs": [],
      "name": "redemption_fee",
      "outputs": [
        {
          "internalType": "uint256",
          "name": "",
          "type": "uint256"
        }
      ],
      "stateMutability": "view",
      "type": "function",
      "constant": true
    },
    {
      "inputs": [],
      "name": "refresh_cooldown",
      "outputs": [
        {
          "internalType": "uint256",
          "name": "",
          "type": "uint256"
        }
      ],
      "stateMutability": "view",
      "type": "function",
      "constant": true
    },
    {
      "inputs": [],
      "name": "renounceOwnership",
      "outputs": [],
      "stateMutability": "nonpayable",
      "type": "function"
    },
    {
      "inputs": [],
      "name": "startTime",
      "outputs": [
        {
          "internalType": "uint256",
          "name": "",
          "type": "uint256"
        }
      ],
      "stateMutability": "view",
      "type": "function",
      "constant": true
    },
    {
      "inputs": [],
      "name": "strategist",
      "outputs": [
        {
          "internalType": "address",
          "name": "",
          "type": "address"
        }
      ],
      "stateMutability": "view",
      "type": "function",
      "constant": true
    },
    {
      "inputs": [],
      "name": "target_collateral_ratio",
      "outputs": [
        {
          "internalType": "uint256",
          "name": "",
          "type": "uint256"
        }
      ],
      "stateMutability": "view",
      "type": "function",
      "constant": true
    },
    {
      "inputs": [
        {
          "internalType": "address",
          "name": "newOperator_",
          "type": "address"
        }
      ],
      "name": "transferOperator",
      "outputs": [],
      "stateMutability": "nonpayable",
      "type": "function"
    },
    {
      "inputs": [
        {
          "internalType": "address",
          "name": "newOwner",
          "type": "address"
        }
      ],
      "name": "transferOwnership",
      "outputs": [],
      "stateMutability": "nonpayable",
      "type": "function"
    },
    {
      "inputs": [],
      "name": "uniswap_pair_CNUSD_WMATIC",
      "outputs": [
        {
          "internalType": "address",
          "name": "",
          "type": "address"
        }
      ],
      "stateMutability": "view",
      "type": "function",
      "constant": true
    },
    {
      "inputs": [],
      "name": "uniswap_pair_WMATIC_USDT",
      "outputs": [
        {
          "internalType": "address",
          "name": "",
          "type": "address"
        }
      ],
      "stateMutability": "view",
      "type": "function",
      "constant": true
    },
    {
      "inputs": [],
      "name": "uniswap_router",
      "outputs": [
        {
          "internalType": "address",
          "name": "",
          "type": "address"
        }
      ],
      "stateMutability": "view",
      "type": "function",
      "constant": true
    },
    {
      "inputs": [],
      "name": "using_effective_collateral_ratio",
      "outputs": [
        {
          "internalType": "bool",
          "name": "",
          "type": "bool"
        }
      ],
      "stateMutability": "view",
      "type": "function",
      "constant": true
    },
    {
      "stateMutability": "payable",
      "type": "receive",
      "payable": true
    },
    {
      "inputs": [
        {
          "internalType": "uint256",
          "name": "_startTime",
          "type": "uint256"
        },
        {
          "internalType": "uint256",
          "name": "_epoch_length",
          "type": "uint256"
        }
      ],
      "name": "initialize",
      "outputs": [],
      "stateMutability": "nonpayable",
      "type": "function"
    },
    {
      "inputs": [],
      "name": "dollarPrice",
      "outputs": [
        {
          "internalType": "uint256",
          "name": "",
          "type": "uint256"
        }
      ],
      "stateMutability": "view",
      "type": "function",
      "constant": true
    },
    {
      "inputs": [],
      "name": "sharePrice",
      "outputs": [
        {
          "internalType": "uint256",
          "name": "",
          "type": "uint256"
        }
      ],
      "stateMutability": "view",
      "type": "function",
      "constant": true
    },
    {
      "inputs": [
        {
          "internalType": "address",
          "name": "_address",
          "type": "address"
        }
      ],
      "name": "hasPool",
      "outputs": [
        {
          "internalType": "bool",
          "name": "",
          "type": "bool"
        }
      ],
      "stateMutability": "view",
      "type": "function",
      "constant": true
    },
    {
      "inputs": [],
      "name": "nextEpochPoint",
      "outputs": [
        {
          "internalType": "uint256",
          "name": "",
          "type": "uint256"
        }
      ],
      "stateMutability": "view",
      "type": "function",
      "constant": true
    },
    {
      "inputs": [],
      "name": "epoch",
      "outputs": [
        {
          "internalType": "uint256",
          "name": "",
          "type": "uint256"
        }
      ],
      "stateMutability": "view",
      "type": "function",
      "constant": true
    },
    {
      "inputs": [],
      "name": "info",
      "outputs": [
        {
          "internalType": "uint256",
          "name": "",
          "type": "uint256"
        },
        {
          "internalType": "uint256",
          "name": "",
          "type": "uint256"
        },
        {
          "internalType": "uint256",
          "name": "",
          "type": "uint256"
        },
        {
          "internalType": "uint256",
          "name": "",
          "type": "uint256"
        },
        {
          "internalType": "uint256",
          "name": "",
          "type": "uint256"
        },
        {
          "internalType": "uint256",
          "name": "",
          "type": "uint256"
        },
        {
          "internalType": "uint256",
          "name": "",
          "type": "uint256"
        },
        {
          "internalType": "uint256",
          "name": "",
          "type": "uint256"
        }
      ],
      "stateMutability": "view",
      "type": "function",
      "constant": true
    },
    {
      "inputs": [],
      "name": "epochInfo",
      "outputs": [
        {
          "internalType": "uint256",
          "name": "",
          "type": "uint256"
        },
        {
          "internalType": "uint256",
          "name": "",
          "type": "uint256"
        },
        {
          "internalType": "uint256",
          "name": "",
          "type": "uint256"
        },
        {
          "internalType": "uint256",
          "name": "",
          "type": "uint256"
        }
      ],
      "stateMutability": "view",
      "type": "function",
      "constant": true
    },
    {
      "inputs": [],
      "name": "globalCollateralValue",
      "outputs": [
        {
          "internalType": "uint256",
          "name": "",
          "type": "uint256"
        }
      ],
      "stateMutability": "view",
      "type": "function",
      "constant": true
    },
    {
      "inputs": [],
      "name": "calcEffectiveCollateralRatio",
      "outputs": [
        {
          "internalType": "uint256",
          "name": "",
          "type": "uint256"
        }
      ],
      "stateMutability": "view",
      "type": "function",
      "constant": true
    },
    {
      "inputs": [],
      "name": "refreshCollateralRatio",
      "outputs": [],
      "stateMutability": "nonpayable",
      "type": "function"
    },
    {
      "inputs": [],
      "name": "calcCollateralBalance",
      "outputs": [
        {
          "internalType": "uint256",
          "name": "_collateral_value",
          "type": "uint256"
        },
        {
          "internalType": "bool",
          "name": "_exceeded",
          "type": "bool"
        }
      ],
      "stateMutability": "view",
      "type": "function",
      "constant": true
    },
    {
      "inputs": [
        {
          "internalType": "address",
          "name": "pool_address",
          "type": "address"
        }
      ],
      "name": "addPool",
      "outputs": [],
      "stateMutability": "nonpayable",
      "type": "function"
    },
    {
      "inputs": [
        {
          "internalType": "address",
          "name": "pool_address",
          "type": "address"
        }
      ],
      "name": "removePool",
      "outputs": [],
      "stateMutability": "nonpayable",
      "type": "function"
    },
    {
      "inputs": [
        {
          "internalType": "uint256",
          "name": "_collateral_value",
          "type": "uint256"
        },
        {
          "internalType": "uint256",
          "name": "_min_share_amount",
          "type": "uint256"
        }
      ],
      "name": "buyback",
      "outputs": [],
      "stateMutability": "nonpayable",
      "type": "function"
    },
    {
      "inputs": [
        {
          "internalType": "uint256",
          "name": "_share_amount",
          "type": "uint256"
        },
        {
          "internalType": "uint256",
          "name": "_min_collateral_amount",
          "type": "uint256"
        }
      ],
      "name": "recollateralize",
      "outputs": [],
      "stateMutability": "nonpayable",
      "type": "function"
    },
    {
      "inputs": [],
      "name": "allocateSeigniorage",
      "outputs": [],
      "stateMutability": "nonpayable",
      "type": "function"
    },
    {
      "inputs": [
        {
          "internalType": "address",
          "name": "_new_treasury",
          "type": "address"
        }
      ],
      "name": "migrate",
      "outputs": [],
      "stateMutability": "nonpayable",
      "type": "function"
    },
    {
      "inputs": [
        {
          "internalType": "uint256",
          "name": "_redemption_fee",
          "type": "uint256"
        }
      ],
      "name": "setRedemptionFee",
      "outputs": [],
      "stateMutability": "nonpayable",
      "type": "function"
    },
    {
      "inputs": [
        {
          "internalType": "uint256",
          "name": "_minting_fee",
          "type": "uint256"
        }
      ],
      "name": "setMintingFee",
      "outputs": [],
      "stateMutability": "nonpayable",
      "type": "function"
    },
    {
      "inputs": [
        {
          "internalType": "uint256",
          "name": "_ratio_step",
          "type": "uint256"
        }
      ],
      "name": "setRatioStep",
      "outputs": [],
      "stateMutability": "nonpayable",
      "type": "function"
    },
    {
      "inputs": [
        {
          "internalType": "uint256",
          "name": "_price_target",
          "type": "uint256"
        }
      ],
      "name": "setPriceTarget",
      "outputs": [],
      "stateMutability": "nonpayable",
      "type": "function"
    },
    {
      "inputs": [
        {
          "internalType": "uint256",
          "name": "_refresh_cooldown",
          "type": "uint256"
        }
      ],
      "name": "setRefreshCooldown",
      "outputs": [],
      "stateMutability": "nonpayable",
      "type": "function"
    },
    {
      "inputs": [
        {
          "internalType": "uint256",
          "name": "_price_band",
          "type": "uint256"
        }
      ],
      "name": "setPriceBand",
      "outputs": [],
      "stateMutability": "nonpayable",
      "type": "function"
    },
    {
      "inputs": [],
      "name": "toggleCollateralRatio",
      "outputs": [],
      "stateMutability": "nonpayable",
      "type": "function"
    },
    {
      "inputs": [],
      "name": "toggleEffectiveCollateralRatio",
      "outputs": [],
      "stateMutability": "nonpayable",
      "type": "function"
    },
    {
      "inputs": [
        {
          "internalType": "address",
          "name": "_oracleDollar",
          "type": "address"
        }
      ],
      "name": "setOracleDollar",
      "outputs": [],
      "stateMutability": "nonpayable",
      "type": "function"
    },
    {
      "inputs": [
        {
          "internalType": "address",
          "name": "_oracleShare",
          "type": "address"
        }
      ],
      "name": "setOracleShare",
      "outputs": [],
      "stateMutability": "nonpayable",
      "type": "function"
    },
    {
      "inputs": [
        {
          "internalType": "address",
          "name": "_AGOUSD",
          "type": "address"
        }
      ],
      "name": "setDollarAddress",
      "outputs": [],
      "stateMutability": "nonpayable",
      "type": "function"
    },
    {
      "inputs": [
        {
          "internalType": "address",
          "name": "_CNUSD",
          "type": "address"
        }
      ],
      "name": "setShareAddress",
      "outputs": [],
      "stateMutability": "nonpayable",
      "type": "function"
    },
    {
      "inputs": [
        {
          "internalType": "address",
          "name": "_strategist",
          "type": "address"
        }
      ],
      "name": "setStrategist",
      "outputs": [],
      "stateMutability": "nonpayable",
      "type": "function"
    },
    {
      "inputs": [
        {
          "internalType": "address",
          "name": "_uniswap_router",
          "type": "address"
        },
        {
          "internalType": "address",
          "name": "_uniswap_pair_CNUSD_WMATIC",
          "type": "address"
        },
        {
          "internalType": "address",
          "name": "_uniswap_pair_WMATIC_USDT",
          "type": "address"
        }
      ],
      "name": "setUniswapParams",
      "outputs": [],
      "stateMutability": "nonpayable",
      "type": "function"
    },
    {
      "inputs": [
        {
          "internalType": "address",
          "name": "_rebalance_pool",
          "type": "address"
        }
      ],
      "name": "setRebalancePool",
      "outputs": [],
      "stateMutability": "nonpayable",
      "type": "function"
    },
    {
      "inputs": [
        {
          "internalType": "uint256",
          "name": "_rebalance_cooldown",
          "type": "uint256"
        }
      ],
      "name": "setRebalanceCooldown",
      "outputs": [],
      "stateMutability": "nonpayable",
      "type": "function"
    },
    {
      "inputs": [
        {
          "internalType": "uint256",
          "name": "_startTime",
          "type": "uint256"
        }
      ],
      "name": "resetStartTime",
      "outputs": [],
      "stateMutability": "nonpayable",
      "type": "function"
    },
    {
      "inputs": [
        {
          "internalType": "address",
          "name": "_foundry",
          "type": "address"
        }
      ],
      "name": "setFoundry",
      "outputs": [],
      "stateMutability": "nonpayable",
      "type": "function"
    },
    {
      "inputs": [
        {
          "internalType": "uint256",
          "name": "_epoch_length",
          "type": "uint256"
        }
      ],
      "name": "setEpochLength",
      "outputs": [],
      "stateMutability": "nonpayable",
      "type": "function"
    },
    {
      "inputs": [
        {
          "internalType": "uint256",
          "name": "_excess_collateral_distributed_ratio",
          "type": "uint256"
        }
      ],
      "name": "setExcessDistributionRatio",
      "outputs": [],
      "stateMutability": "nonpayable",
      "type": "function"
    },
    {
      "inputs": [
        {
          "internalType": "address",
          "name": "target",
          "type": "address"
        },
        {
          "internalType": "uint256",
          "name": "value",
          "type": "uint256"
        },
        {
          "internalType": "string",
          "name": "signature",
          "type": "string"
        },
        {
          "internalType": "bytes",
          "name": "data",
          "type": "bytes"
        }
      ],
      "name": "executeTransaction",
      "outputs": [
        {
          "internalType": "bytes",
          "name": "",
          "type": "bytes"
        }
      ],
      "stateMutability": "nonpayable",
      "type": "function"
    }
  ],
  "bytecode": "0x6080604052600160028190556007805460ff60a01b199081169091556013805461ffff191690921790915561a8c060155560198054909116905561c350601c556000601f5534801561005057600080fd5b50600080546001600160a01b031916339081178255604051909182917f8be0079c531659141344cd1fd0a4f28419497f9722a3daafe3b4186f6b6457e0908290a350600180546001600160a01b031916339081179091556040516000907f74da04524d50c64947f5dd5381ef1a4dca5cba8ed1d816243f9e48aa0b5617ed908290a36109c4601055620f4240600d819055600e819055610e10600f55601155611388601255610fa0600a55610bb8600b55613a69806101106000396000f3fe6080604052600436106104565760003560e01c80635b7561791161023f578063ac4f843e11610139578063cb73999f116100b6578063dc57df471161007a578063dc57df4714610d21578063e4a3011614610d41578063e708b4ae14610d61578063f2fde38b14610d77578063fc1e0c0014610d9757600080fd5b8063cb73999f14610c96578063ce5494bb14610cac578063d2d97b0614610ccc578063d74d1a0e14610ce1578063d914cd4b14610d0157600080fd5b8063c03f7be3116100fd578063c03f7be314610c15578063c08f076e14610c2b578063c3355b8d14610c4b578063c5967c2614610c61578063c7b9d53014610c7657600080fd5b8063ac4f843e14610b94578063af2d373914610baa578063af83136e14610bca578063b16ce46014610be0578063bef40ec814610c0057600080fd5b806387a140c3116101c7578063900cf0cf1161018b578063900cf0cf14610afa5780639052be6114610b0f578063a4063dbc14610b2f578063a445c44514610b5f578063a5d7abac14610b7457600080fd5b806387a140c314610a66578063894ba4b914610a8057806389c614b814610aa65780638da5cb5b14610abc5780638de4011e14610ada57600080fd5b806378e979251161020e57806378e97925146109db5780637cd27ca6146109f15780637dbc1df014610a1157806381ca52cf14610a315780638726972914610a5157600080fd5b80635b7561791461097b5780636140133b146109905780636ae74488146109b0578063715018a6146109c657600080fd5b806329605e77116103505780634013124a116102d8578063460ddf8d1161029c578063460ddf8d146108e757806346ec64a51461090757806353ed67fe1461092757806354eea7961461093d578063570ca7351461095d57600080fd5b80634013124a14610867578063408ab10f1461087c57806340d7b7b81461089c5780634231bfe1146108b15780634456eda2146108c757600080fd5b80632f64fb8e1161031f5780632f64fb8e146107a1578063370158ea146107c15780633b7d0946146108115780633fd902e4146108315780634006311b1461085157600080fd5b806329605e771461072b5780632988b66d1461074b5780632c678c641461076a5780632cb4f63e1461078b57600080fd5b80631c5b6e8d116103de5780632224fa25116103a25780632224fa2514610693578063238a4709146106c05780632853fb10146106e057806328596aba146106f6578063291878a81461071657600080fd5b80631c5b6e8d146105da5780631c5df1e5146105fa5780631f1b8a8c1461061a5780631fe4a6861461064f5780631ff41bfa1461066f57600080fd5b80631189ebea116104255780631189ebea146105015780631246dbf514610521578063158ef93e1461056f578063186d9b2e146105905780631a1f1934146105b057600080fd5b80630375da59146104625780630ca687dc146104845780630eef424d146104a45780630f355dc2146104c457600080fd5b3661045d57005b600080fd5b34801561046e57600080fd5b5061048261047d3660046134be565b610db7565b005b34801561049057600080fd5b5061048261049f3660046134be565b610e0c565b3480156104b057600080fd5b506104826104bf3660046134be565b610e58565b3480156104d057600080fd5b506018546104e4906001600160a01b031681565b6040516001600160a01b0390911681526020015b60405180910390f35b34801561050d57600080fd5b506104e461051c3660046136ae565b611057565b34801561052d57600080fd5b5061055f61053c3660046134be565b6001600160a01b031660009081526009602052604090205460ff16151560011490565b60405190151581526020016104f8565b34801561057b57600080fd5b5060195461055f90600160a01b900460ff1681565b34801561059c57600080fd5b506104826105ab3660046136ae565b611081565b3480156105bc57600080fd5b506105c56110b0565b604080519283529015156020830152016104f8565b3480156105e657600080fd5b506104826105f53660046134be565b611195565b34801561060657600080fd5b506104826106153660046136ae565b6111e1565b34801561062657600080fd5b5061062f611210565b6040805194855260208501939093529183015260608201526080016104f8565b34801561065b57600080fd5b506007546104e4906001600160a01b031681565b34801561067b57600080fd5b50610685601c5481565b6040519081526020016104f8565b34801561069f57600080fd5b506106b36106ae366004613540565b61123b565b6040516104f89190613778565b3480156106cc57600080fd5b506104826106db3660046136ae565b611393565b3480156106ec57600080fd5b5061068560125481565b34801561070257600080fd5b506104826107113660046134be565b6113c2565b34801561072257600080fd5b5061048261140e565b34801561073757600080fd5b506104826107463660046134be565b611455565b34801561075757600080fd5b5060135461055f90610100900460ff1681565b34801561077657600080fd5b5060075461055f90600160a01b900460ff1681565b34801561079757600080fd5b5061068560115481565b3480156107ad57600080fd5b506014546104e4906001600160a01b031681565b3480156107cd57600080fd5b506107d661148b565b604080519889526020890197909752958701949094526060860192909252608085015260a084015260c083015260e0820152610100016104f8565b34801561081d57600080fd5b5061048261082c3660046134be565b611559565b34801561083d57600080fd5b506019546104e4906001600160a01b031681565b34801561085d57600080fd5b50610685600d5481565b34801561087357600080fd5b506104826116de565b34801561088857600080fd5b506104826108973660046136ae565b611886565b3480156108a857600080fd5b506106856118b5565b3480156108bd57600080fd5b50610685601e5481565b3480156108d357600080fd5b506001546001600160a01b0316331461055f565b3480156108f357600080fd5b506104826109023660046136de565b611937565b34801561091357600080fd5b506006546104e4906001600160a01b031681565b34801561093357600080fd5b5061068560165481565b34801561094957600080fd5b506104826109583660046136ae565b611d95565b34801561096957600080fd5b506001546001600160a01b03166104e4565b34801561098757600080fd5b50610482611dc4565b34801561099c57600080fd5b506104826109ab3660046136ae565b6120d7565b3480156109bc57600080fd5b50610685600c5481565b3480156109d257600080fd5b50610482612106565b3480156109e757600080fd5b50610685601a5481565b3480156109fd57600080fd5b50601b546104e4906001600160a01b031681565b348015610a1d57600080fd5b50610482610a2c3660046136ae565b61217a565b348015610a3d57600080fd5b50610482610a4c3660046136ae565b6121a9565b348015610a5d57600080fd5b506106856121d8565b348015610a7257600080fd5b5060135461055f9060ff1681565b348015610a8c57600080fd5b506013546104e4906201000090046001600160a01b031681565b348015610ab257600080fd5b50610685601d5481565b348015610ac857600080fd5b506000546001600160a01b03166104e4565b348015610ae657600080fd5b50610482610af53660046134be565b612228565b348015610b0657600080fd5b50601f54610685565b348015610b1b57600080fd5b506017546104e4906001600160a01b031681565b348015610b3b57600080fd5b5061055f610b4a3660046134be565b60096020526000908152604090205460ff1681565b348015610b6b57600080fd5b50610685612274565b348015610b8057600080fd5b50610482610b8f3660046136ae565b612356565b348015610ba057600080fd5b5061068560105481565b348015610bb657600080fd5b50610482610bc53660046136de565b6123d2565b348015610bd657600080fd5b50610685600e5481565b348015610bec57600080fd5b506003546104e4906001600160a01b031681565b348015610c0c57600080fd5b5061048261284a565b348015610c2157600080fd5b50610685600f5481565b348015610c3757600080fd5b50610482610c463660046136ae565b612888565b348015610c5757600080fd5b50610685600b5481565b348015610c6d57600080fd5b5061068561290b565b348015610c8257600080fd5b50610482610c913660046134be565b612924565b348015610ca257600080fd5b50610685600a5481565b348015610cb857600080fd5b50610482610cc73660046134be565b612970565b348015610cd857600080fd5b50610685612b23565b348015610ced57600080fd5b506004546104e4906001600160a01b031681565b348015610d0d57600080fd5b50610482610d1c3660046134be565b612c3f565b348015610d2d57600080fd5b50610482610d3c3660046134f6565b612d50565b348015610d4d57600080fd5b50610482610d5c3660046136de565b612db9565b348015610d6d57600080fd5b5061068560155481565b348015610d8357600080fd5b50610482610d923660046134be565b612e60565b348015610da357600080fd5b506005546104e4906001600160a01b031681565b6001546001600160a01b03163314610dea5760405162461bcd60e51b8152600401610de1906137e2565b60405180910390fd5b601b80546001600160a01b0319166001600160a01b0392909216919091179055565b6001546001600160a01b03163314610e365760405162461bcd60e51b8152600401610de1906137e2565b600380546001600160a01b0319166001600160a01b0392909216919091179055565b6001546001600160a01b03163314610e825760405162461bcd60e51b8152600401610de1906137e2565b6001600160a01b03811660009081526009602052604090205460ff16610ed25760405162461bcd60e51b8152602060048201526005602482015264085c1bdbdb60da1b6044820152606401610de1565b60006001600160a01b0316816001600160a01b031663964236636040518163ffffffff1660e01b815260040160206040518083038186803b158015610f1657600080fd5b505afa158015610f2a573d6000803e3d6000fd5b505050506040513d601f19601f82011682018060405250810190610f4e91906134da565b6001600160a01b03161415610f9c5760405162461bcd60e51b815260206004820152601460248201527310b837b7b621b7b63630ba32b930b62a37b5b2b760611b6044820152606401610de1565b80601360026101000a8154816001600160a01b0302191690836001600160a01b03160217905550806001600160a01b031663964236636040518163ffffffff1660e01b815260040160206040518083038186803b158015610ffc57600080fd5b505afa158015611010573d6000803e3d6000fd5b505050506040513d601f19601f8201168201806040525081019061103491906134da565b601480546001600160a01b0319166001600160a01b039290921691909117905550565b6008818154811061106757600080fd5b6000918252602090912001546001600160a01b0316905081565b6001546001600160a01b031633146110ab5760405162461bcd60e51b8152600401610de1906137e2565b601055565b60008060006110bd612b23565b90506000611160620f424061115a600d54600560009054906101000a90046001600160a01b03166001600160a01b03166318160ddd6040518163ffffffff1660e01b815260040160206040518083038186803b15801561111c57600080fd5b505afa158015611130573d6000803e3d6000fd5b505050506040513d601f19601f8201168201806040525081019061115491906136c6565b90612f4a565b90612f91565b905080821061117e576111738282612f9d565b93506001925061118f565b6111888183612f9d565b9350600092505b50509091565b6001546001600160a01b031633146111bf5760405162461bcd60e51b8152600401610de1906137e2565b600680546001600160a01b0319166001600160a01b0392909216919091179055565b6001546001600160a01b0316331461120b5760405162461bcd60e51b8152600401610de1906137e2565b600f55565b60008060008061121f601f5490565b61122761290b565b601e54601c54935093509350935090919293565b6001546060906001600160a01b031633146112685760405162461bcd60e51b8152600401610de1906137e2565b606083516000141561127b5750816112a7565b83805190602001208360405160200161129592919061372b565b60405160208183030381529060405290505b600080876001600160a01b031687846040516112c3919061375c565b60006040518083038185875af1925050503d8060008114611300576040519150601f19603f3d011682016040523d82523d6000602084013e611305565b606091505b5091509150816040518060600160405280603d81526020016139f7603d9139906113425760405162461bcd60e51b8152600401610de19190613778565b50876001600160a01b03167f02351f450e2fc766dda692922cd0e080a07d702d68757f2154bf686ee052be6e88888860405161138093929190613826565b60405180910390a2979650505050505050565b6001546001600160a01b031633146113bd5760405162461bcd60e51b8152600401610de1906137e2565b600b55565b6001546001600160a01b031633146113ec5760405162461bcd60e51b8152600401610de1906137e2565b600480546001600160a01b0319166001600160a01b0392909216919091179055565b6001546001600160a01b031633146114385760405162461bcd60e51b8152600401610de1906137e2565b6013805461ff001981166101009182900460ff1615909102179055565b6000546001600160a01b0316331461147f5760405162461bcd60e51b8152600401610de1906137ad565b61148881612fc7565b50565b60008060008060008060008061149f6118b5565b6114a76121d8565b600560009054906101000a90046001600160a01b03166001600160a01b03166318160ddd6040518163ffffffff1660e01b815260040160206040518083038186803b1580156114f557600080fd5b505afa158015611509573d6000803e3d6000fd5b505050506040513d601f19601f8201168201806040525081019061152d91906136c6565b600d54600e5461153b612b23565b600b54600a54969f959e50939c50919a509850965094509092509050565b6001546001600160a01b031633146115835760405162461bcd60e51b8152600401610de1906137e2565b600754600160a01b900460ff16156115ad5760405162461bcd60e51b8152600401610de19061378b565b6001600160a01b03811660009081526009602052604090205460ff1615156001146116025760405162461bcd60e51b8152602060048201526005602482015264085c1bdbdb60da1b6044820152606401610de1565b6001600160a01b0381166000908152600960205260408120805460ff191690555b6008548110156116da57816001600160a01b03166008828154811061165857634e487b7160e01b600052603260045260246000fd5b6000918252602090912001546001600160a01b031614156116c85760006008828154811061169657634e487b7160e01b600052603260045260246000fd5b9060005260206000200160006101000a8154816001600160a01b0302191690836001600160a01b031602179055505050565b806116d28161399a565b915050611623565b5050565b60135460ff16156117315760405162461bcd60e51b815260206004820181905260248201527f436f6c6c61746572616c20526174696f20686173206265656e207061757365646044820152606401610de1565b600f54600c546117419042613953565b10156117ad5760405162461bcd60e51b815260206004820152603560248201527f4d757374207761697420666f7220746865207265667265736820636f6f6c646f6044820152740eedc40e6d2dcc6ca40d8c2e6e840e4cacce4cae6d605b1b6064820152608401610de1565b60006117b76118b5565b90506117d060125460115461308b90919063ffffffff16565b81111561180357601054600d54116117ec576000600d55611858565b601054600d546117fb91612f9d565b600d55611858565b60125460115461181291612f9d565b81101561185857620f4240611834601054600d5461308b90919063ffffffff16565b1061184557620f4240600d55611858565b601054600d546118549161308b565b600d555b601354610100900460ff161561187857611870612274565b600e5561187f565b600d54600e555b5042600c55565b6001546001600160a01b031633146118b05760405162461bcd60e51b8152600401610de1906137e2565b601155565b60035460408051637eeda70360e01b815290516000926001600160a01b031691637eeda703916004808301926020929190829003018186803b1580156118fa57600080fd5b505afa15801561190e573d6000803e3d6000fd5b505050506040513d601f19601f8201168201806040525081019061193291906136c6565b905090565b6007546001600160a01b0316331461197f5760405162461bcd60e51b815260206004820152600b60248201526a085cdd1c985d1959da5cdd60aa1b6044820152606401610de1565b600754600160a01b900460ff16156119a95760405162461bcd60e51b8152600401610de19061378b565b6013546201000090046001600160a01b03166119fa5760405162461bcd60e51b815260206004820152601060248201526f085c9958985b185b98da5b99d41bdbdb60821b6044820152606401610de1565b6014546001600160a01b0316611a525760405162461bcd60e51b815260206004820152601a60248201527f21726562616c616e63696e67506f6f6c436f6c6c61746572616c0000000000006044820152606401610de1565b601554601654429190611a659083613953565b1015611aa95760405162461bcd60e51b81526020600482015260136024820152721e3932b130b630b731b2afb1b7b7b63237bbb760691b6044820152606401610de1565b600080611ab46110b0565b91509150808015611ac55750600082115b611afd5760405162461bcd60e51b815260206004820152600960248201526808595e18d95959195960ba1b6044820152606401610de1565b600085118015611b0c57508185105b611b585760405162461bcd60e51b815260206004820152601760248201527f696e76616c6964436f6c6c61746572616c416d6f756e740000000000000000006044820152606401610de1565b6000601360029054906101000a90046001600160a01b03166001600160a01b031663f7683bbc6040518163ffffffff1660e01b815260040160206040518083038186803b158015611ba857600080fd5b505afa158015611bbc573d6000803e3d6000fd5b505050506040513d601f19601f82011682018060405250810190611be091906136c6565b90506000611bf58261115a89620f4240612f4a565b6014546013546040516370a0823160e01b81526001600160a01b03620100009092048216600482015292935083929116906370a082319060240160206040518083038186803b158015611c4757600080fd5b505afa158015611c5b573d6000803e3d6000fd5b505050506040513d601f19601f82011682018060405250810190611c7f91906136c6565b11611cc55760405162461bcd60e51b8152602060048201526016602482015275696e737566666963656e74506f6f6c42616c616e636560501b6044820152606401610de1565b601354604051631bc79abb60e11b815260048101839052620100009091046001600160a01b03169063378f357690602401600060405180830381600087803b158015611d1057600080fd5b505af1158015611d24573d6000803e3d6000fd5b505060145460009250611d4291506001600160a01b031683896130b7565b604080518a8152602081018590529081018290529091507f08a6192ba3cf7155035aa0abade6c318265a34f2950e84eaff743d1231888f959060600160405180910390a150505060169290925550505050565b6001546001600160a01b03163314611dbf5760405162461bcd60e51b8152600401610de1906137e2565b601e55565b600160026000828254611dd791906138fc565b9091555050600254600754600160a01b900460ff1615611e2e5760405162461bcd60e51b8152602060048201526012602482015271151c99585cdd5c9e4e881b5a59dc985d195960721b6044820152606401610de1565b601a54421015611e805760405162461bcd60e51b815260206004820152601960248201527f54726561737572793a206e6f74207374617274656420796574000000000000006044820152606401610de1565b6000611e8a61290b565b905080421015611edc5760405162461bcd60e51b815260206004820152601860248201527f54726561737572793a206e6f74206f70656e65642079657400000000000000006044820152606401610de1565b600080611ee76110b0565b91509150600081156120af57611f0f620f424061115a601c5486612f4a90919063ffffffff16565b90506000601360029054906101000a90046001600160a01b03166001600160a01b031663f7683bbc6040518163ffffffff1660e01b815260040160206040518083038186803b158015611f6157600080fd5b505afa158015611f75573d6000803e3d6000fd5b505050506040513d601f19601f82011682018060405250810190611f9991906136c6565b90506000611fae8261115a85620f4240612f4a565b601354604051631bc79abb60e11b8152600481018390529192506201000090046001600160a01b03169063378f357690602401600060405180830381600087803b158015611ffb57600080fd5b505af115801561200f573d6000803e3d6000fd5b5050601b5460145461203193506001600160a01b0390811692501660006133a5565b601b5460145461204e916001600160a01b039182169116836133a5565b601b546040516397ffe1d760e01b8152600481018390526001600160a01b03909116906397ffe1d790602401600060405180830381600087803b15801561209457600080fd5b505af11580156120a8573d6000803e3d6000fd5b5050505050505b505050601d819055601f546120c590600161308b565b601f5550600254811461148857600080fd5b6001546001600160a01b031633146121015760405162461bcd60e51b8152600401610de1906137e2565b601255565b6000546001600160a01b031633146121305760405162461bcd60e51b8152600401610de1906137ad565b600080546040516001600160a01b03909116907f8be0079c531659141344cd1fd0a4f28419497f9722a3daafe3b4186f6b6457e0908390a3600080546001600160a01b0319169055565b6001546001600160a01b031633146121a45760405162461bcd60e51b8152600401610de1906137e2565b600a55565b6001546001600160a01b031633146121d35760405162461bcd60e51b8152600401610de1906137e2565b601555565b6000600460009054906101000a90046001600160a01b03166001600160a01b0316637eeda7036040518163ffffffff1660e01b815260040160206040518083038186803b1580156118fa57600080fd5b6001546001600160a01b031633146122525760405162461bcd60e51b8152600401610de1906137e2565b600580546001600160a01b0319166001600160a01b0392909216919091179055565b601354600090610100900460ff1661228d5750600d5490565b6000612297612b23565b90506000600560009054906101000a90046001600160a01b03166001600160a01b03166318160ddd6040518163ffffffff1660e01b815260040160206040518083038186803b1580156122e957600080fd5b505afa1580156122fd573d6000803e3d6000fd5b505050506040513d601f19601f8201168201806040525081019061232191906136c6565b905060006123368261115a85620f4240612f4a565b9050620f424081111561234f57620f4240935050505090565b9392505050565b6007546001600160a01b031633148061238857503361237d6001546001600160a01b031690565b6001600160a01b0316145b6123cd5760405162461bcd60e51b815260206004820152601660248201527510b9ba3930ba32b3b4b9ba131310b7b832b930ba37b960511b6044820152606401610de1565b601c55565b6007546001600160a01b0316331461241a5760405162461bcd60e51b815260206004820152600b60248201526a085cdd1c985d1959da5cdd60aa1b6044820152606401610de1565b600754600160a01b900460ff16156124445760405162461bcd60e51b8152600401610de19061378b565b6013546201000090046001600160a01b03166124955760405162461bcd60e51b815260206004820152601060248201526f085c9958985b185b98da5b99d41bdbdb60821b6044820152606401610de1565b6014546001600160a01b03166124ed5760405162461bcd60e51b815260206004820152601a60248201527f21726562616c616e63696e67506f6f6c436f6c6c61746572616c0000000000006044820152606401610de1565b6015546016544291906125009083613953565b10156125445760405162461bcd60e51b81526020600482015260136024820152721e3932b130b630b731b2afb1b7b7b63237bbb760691b6044820152606401610de1565b60008061254f6110b0565b91509150801580156125615750600082115b6125985760405162461bcd60e51b8152602060048201526008602482015267195e18d95959195960c21b6044820152606401610de1565b818411156125d35760405162461bcd60e51b81526020600482015260086024820152670f9919599a58da5d60c21b6044820152606401610de1565b6006546040516370a0823160e01b81523060048201526000916001600160a01b0316906370a082319060240160206040518083038186803b15801561261757600080fd5b505afa15801561262b573d6000803e3d6000fd5b505050506040513d601f19601f8201168201806040525081019061264f91906136c6565b9050808611156126915760405162461bcd60e51b815260206004820152600d60248201526c3e736861726542616c616e636560981b6044820152606401610de1565b6006546000906126ab906001600160a01b031688886130b7565b6014546040516370a0823160e01b81523060048201529192506000916001600160a01b03909116906370a082319060240160206040518083038186803b1580156126f457600080fd5b505afa158015612708573d6000803e3d6000fd5b505050506040513d601f19601f8201168201806040525081019061272c91906136c6565b9050801561275857601354601454612758916001600160a01b0391821691620100009091041683613431565b6000601360029054906101000a90046001600160a01b03166001600160a01b031663f7683bbc6040518163ffffffff1660e01b815260040160206040518083038186803b1580156127a857600080fd5b505afa1580156127bc573d6000803e3d6000fd5b505050506040513d601f19601f820116820180604052508101906127e091906136c6565b905060006127f5620f424061115a8685612f4a565b604080518c8152602081018790529081018290529091507fa2f547fe4fa01671ec43d126d393c239e285ccfc633822b6413c5f474a73c1ac9060600160405180910390a1505050601694909455505050505050565b6001546001600160a01b031633146128745760405162461bcd60e51b8152600401610de1906137e2565b6013805460ff19811660ff90911615179055565b6001546001600160a01b031633146128b25760405162461bcd60e51b8152600401610de1906137e2565b601f54156128f45760405162461bcd60e51b815260206004820152600f60248201526e185b1c9958591e481cdd185c9d1959608a1b6044820152606401610de1565b601a81905561290581617080612f9d565b601d5550565b6000611932601e54601d5461308b90919063ffffffff16565b6001546001600160a01b0316331461294e5760405162461bcd60e51b8152600401610de1906137e2565b600780546001600160a01b0319166001600160a01b0392909216919091179055565b6001546001600160a01b0316331461299a5760405162461bcd60e51b8152600401610de1906137e2565b600754600160a01b900460ff16156129c45760405162461bcd60e51b8152600401610de19061378b565b6007805460ff60a01b1916600160a01b1790556006546040516370a0823160e01b81523060048201526000916001600160a01b0316906370a082319060240160206040518083038186803b158015612a1b57600080fd5b505afa158015612a2f573d6000803e3d6000fd5b505050506040513d601f19601f82011682018060405250810190612a5391906136c6565b90508015612a7257600654612a72906001600160a01b03168383613431565b6014546001600160a01b0316156116da576014546040516370a0823160e01b81523060048201526000916001600160a01b0316906370a082319060240160206040518083038186803b158015612ac757600080fd5b505afa158015612adb573d6000803e3d6000fd5b505050506040513d601f19601f82011682018060405250810190612aff91906136c6565b90508015612b1e57601454612b1e906001600160a01b03168483613431565b505050565b600080805b600854811015612c395760006001600160a01b031660088281548110612b5e57634e487b7160e01b600052603260045260246000fd5b6000918252602090912001546001600160a01b031614612c2757612c2460088281548110612b9c57634e487b7160e01b600052603260045260246000fd5b6000918252602091829020015460408051639c84d0f560e01b815290516001600160a01b0390921692639c84d0f592600480840193829003018186803b158015612be557600080fd5b505afa158015612bf9573d6000803e3d6000fd5b505050506040513d601f19601f82011682018060405250810190612c1d91906136c6565b839061308b565b91505b80612c318161399a565b915050612b28565b50919050565b6001546001600160a01b03163314612c695760405162461bcd60e51b8152600401610de1906137e2565b600754600160a01b900460ff1615612c935760405162461bcd60e51b8152600401610de19061378b565b6001600160a01b03811660009081526009602052604090205460ff1615612cea5760405162461bcd60e51b815260206004820152600b60248201526a1c1bdbdb115e1a5cdd195960aa1b6044820152606401610de1565b6001600160a01b03166000818152600960205260408120805460ff191660019081179091556008805491820181559091527ff3f7a9fe364faab93b216da50a3214154f22a0a2b415b23a84c8169e8b636ee30180546001600160a01b0319169091179055565b6001546001600160a01b03163314612d7a5760405162461bcd60e51b8152600401610de1906137e2565b601780546001600160a01b039485166001600160a01b031991821617909155601980549385169382169390931790925560188054919093169116179055565b6001546001600160a01b03163314612de35760405162461bcd60e51b8152600401610de1906137e2565b601954600160a01b900460ff1615612e325760405162461bcd60e51b8152602060048201526012602482015271185b1c9958591e525b9a5d1a585b1a5e995960721b6044820152606401610de1565b601a829055601e819055612e468282612f9d565b601d5550506019805460ff60a01b1916600160a01b179055565b6000546001600160a01b03163314612e8a5760405162461bcd60e51b8152600401610de1906137ad565b6001600160a01b038116612eef5760405162461bcd60e51b815260206004820152602660248201527f4f776e61626c653a206e6577206f776e657220697320746865207a65726f206160448201526564647265737360d01b6064820152608401610de1565b600080546040516001600160a01b03808516939216917f8be0079c531659141344cd1fd0a4f28419497f9722a3daafe3b4186f6b6457e091a3600080546001600160a01b0319166001600160a01b0392909216919091179055565b600082612f5957506000612f8b565b612f638284613934565b905081612f708483613914565b14612f8b57634e487b7160e01b600052600160045260246000fd5b92915050565b600061234f8284613914565b600082821115612fbd57634e487b7160e01b600052600160045260246000fd5b61234f8284613953565b6001600160a01b0381166130335760405162461bcd60e51b815260206004820152602d60248201527f6f70657261746f723a207a65726f206164647265737320676976656e20666f7260448201526c103732bb9037b832b930ba37b960991b6064820152608401610de1565b6040516001600160a01b038216906000907f74da04524d50c64947f5dd5381ef1a4dca5cba8ed1d816243f9e48aa0b5617ed908290a3600180546001600160a01b0319166001600160a01b0392909216919091179055565b600061309782846138fc565b905082811015612f8b57634e487b7160e01b600052600160045260246000fd5b6017546000906001600160a01b0316158015906130de57506019546001600160a01b031615155b80156130f457506018546001600160a01b031615155b61312b5760405162461bcd60e51b8152602060048201526008602482015267021756e69737761760c41b6044820152606401610de1565b826131385750600061234f565b604080516002808252606082018352600092602083019080368337019050506006549091506001600160a01b03868116911614156132045760195481516001600160a01b039091169082906000906131a057634e487b7160e01b600052603260045260246000fd5b6001600160a01b0392831660209182029290920101526018548251911690829060019081106131df57634e487b7160e01b600052603260045260246000fd5b60200260200101906001600160a01b031690816001600160a01b031681525050613294565b60185481516001600160a01b0390911690829060009061323457634e487b7160e01b600052603260045260246000fd5b6001600160a01b03928316602091820292909201015260195482519116908290600190811061327357634e487b7160e01b600052603260045260246000fd5b60200260200101906001600160a01b031690816001600160a01b0316815250505b6017546132af906001600160a01b03878116911660006133a5565b6017546132c9906001600160a01b038781169116866133a5565b6017546000906001600160a01b03166338ed1739868685306132ed4261070861308b565b6040518663ffffffff1660e01b815260040161330d95949392919061385b565b600060405180830381600087803b15801561332757600080fd5b505af115801561333b573d6000803e3d6000fd5b505050506040513d6000823e601f3d908101601f1916820160405261336391908101906135e6565b905080600182516133749190613953565b8151811061339257634e487b7160e01b600052603260045260246000fd5b6020026020010151925050509392505050565b60405163095ea7b360e01b81526001600160a01b0383811660048301526024820183905284169063095ea7b3906044015b602060405180830381600087803b1580156133f057600080fd5b505af1158015613404573d6000803e3d6000fd5b505050506040513d601f19601f82011682018060405250810190613428919061368e565b612b1e57600080fd5b60405163a9059cbb60e01b81526001600160a01b0383811660048301526024820183905284169063a9059cbb906044016133d6565b600067ffffffffffffffff831115613480576134806139cb565b613493601f8401601f19166020016138cb565b90508281528383830111156134a757600080fd5b828260208301376000602084830101529392505050565b6000602082840312156134cf578081fd5b813561234f816139e1565b6000602082840312156134eb578081fd5b815161234f816139e1565b60008060006060848603121561350a578182fd5b8335613515816139e1565b92506020840135613525816139e1565b91506040840135613535816139e1565b809150509250925092565b60008060008060808587031215613555578081fd5b8435613560816139e1565b935060208501359250604085013567ffffffffffffffff80821115613583578283fd5b818701915087601f830112613596578283fd5b6135a588833560208501613466565b935060608701359150808211156135ba578283fd5b508501601f810187136135cb578182fd5b6135da87823560208401613466565b91505092959194509250565b600060208083850312156135f8578182fd5b825167ffffffffffffffff8082111561360f578384fd5b818501915085601f830112613622578384fd5b815181811115613634576136346139cb565b8060051b91506136458483016138cb565b8181528481019084860184860187018a101561365f578788fd5b8795505b83861015613681578051835260019590950194918601918601613663565b5098975050505050505050565b60006020828403121561369f578081fd5b8151801515811461234f578182fd5b6000602082840312156136bf578081fd5b5035919050565b6000602082840312156136d7578081fd5b5051919050565b600080604083850312156136f0578182fd5b50508035926020909101359150565b6000815180845261371781602086016020860161396a565b601f01601f19169290920160200192915050565b6001600160e01b031983168152815160009061374e81600485016020870161396a565b919091016004019392505050565b6000825161376e81846020870161396a565b9190910192915050565b60208152600061234f60208301846136ff565b6020808252600890820152671b5a59dc985d195960c21b604082015260600190565b6020808252818101527f4f776e61626c653a2063616c6c6572206973206e6f7420746865206f776e6572604082015260600190565b60208082526024908201527f6f70657261746f723a2063616c6c6572206973206e6f7420746865206f70657260408201526330ba37b960e11b606082015260800190565b83815260606020820152600061383f60608301856136ff565b828103604084015261385181856136ff565b9695505050505050565b600060a082018783526020878185015260a0604085015281875180845260c0860191508289019350845b818110156138aa5784516001600160a01b031683529383019391830191600101613885565b50506001600160a01b03969096166060850152505050608001529392505050565b604051601f8201601f1916810167ffffffffffffffff811182821017156138f4576138f46139cb565b604052919050565b6000821982111561390f5761390f6139b5565b500190565b60008261392f57634e487b7160e01b81526012600452602481fd5b500490565b600081600019048311821515161561394e5761394e6139b5565b500290565b600082821015613965576139656139b5565b500390565b60005b8381101561398557818101518382015260200161396d565b83811115613994576000848401525b50505050565b60006000198214156139ae576139ae6139b5565b5060010190565b634e487b7160e01b600052601160045260246000fd5b634e487b7160e01b600052604160045260246000fd5b6001600160a01b038116811461148857600080fdfe54726561737572793a3a657865637574655472616e73616374696f6e3a205472616e73616374696f6e20657865637574696f6e2072657665727465642ea2646970667358221220082b93e3124027ebfb13c1e2717c0e36c5099a03764b29cce643635d37a6244c64736f6c63430008040033",
  "immutableReferences": {},
  "source": "// SPDX-License-Identifier: MIT\r\npragma solidity 0.8.4;\r\npragma experimental ABIEncoderV2;\r\n\r\nlibrary SafeERC20 {\r\n  function safeTransfer(IERC20 token, address to, uint256 value) internal{\r\n    require(token.transfer(to, value));\r\n  }\r\n\r\n  function safeTransferFrom(IERC20 token, address from, address to, uint256 value) internal{\r\n    require(token.transferFrom(from, to, value));\r\n  }\r\n\r\n  function safeApprove( IERC20 token, address spender, uint256 value) internal{\r\n    require(token.approve(spender, value));\r\n  }\r\n}\r\n\r\nlibrary SafeMath {\r\n  function mul(uint256 a, uint256 b) internal pure returns (uint256 c) {\r\n    if (a == 0) {return 0;}\r\n    c = a * b;\r\n    assert(c / a == b);\r\n    return c;\r\n  }\r\n\r\n  function div(uint256 a, uint256 b) internal pure returns (uint256) {\r\n    return a / b;\r\n  }\r\n\r\n  function sub(uint256 a, uint256 b) internal pure returns (uint256) {\r\n    assert(b <= a);\r\n    return a - b;\r\n  }\r\n\r\n  function add(uint256 a, uint256 b) internal pure returns (uint256 c) {\r\n    c = a + b;\r\n    assert(c >= a);\r\n    return c;\r\n  }\r\n}\r\n\r\ninterface IUniswapRouter{\r\n    function factory() external pure returns (address);\r\n    function WETH() external pure returns (address);\r\n\r\n    function addLiquidity(\r\n        address tokenA,\r\n        address tokenB,\r\n        uint amountADesired,\r\n        uint amountBDesired,\r\n        uint amountAMin,\r\n        uint amountBMin,\r\n        address to,\r\n        uint deadline\r\n    ) external returns (uint amountA, uint amountB, uint liquidity);\r\n    function addLiquidityETH(\r\n        address token,\r\n        uint amountTokenDesired,\r\n        uint amountTokenMin,\r\n        uint amountETHMin,\r\n        address to,\r\n        uint deadline\r\n    ) external payable returns (uint amountToken, uint amountETH, uint liquidity);\r\n    function removeLiquidity(\r\n        address tokenA,\r\n        address tokenB,\r\n        uint liquidity,\r\n        uint amountAMin,\r\n        uint amountBMin,\r\n        address to,\r\n        uint deadline\r\n    ) external returns (uint amountA, uint amountB);\r\n    function removeLiquidityETH(\r\n        address token,\r\n        uint liquidity,\r\n        uint amountTokenMin,\r\n        uint amountETHMin,\r\n        address to,\r\n        uint deadline\r\n    ) external returns (uint amountToken, uint amountETH);\r\n    function removeLiquidityWithPermit(\r\n        address tokenA,\r\n        address tokenB,\r\n        uint liquidity,\r\n        uint amountAMin,\r\n        uint amountBMin,\r\n        address to,\r\n        uint deadline,\r\n        bool approveMax, uint8 v, bytes32 r, bytes32 s\r\n    ) external returns (uint amountA, uint amountB);\r\n    function removeLiquidityETHWithPermit(\r\n        address token,\r\n        uint liquidity,\r\n        uint amountTokenMin,\r\n        uint amountETHMin,\r\n        address to,\r\n        uint deadline,\r\n        bool approveMax, uint8 v, bytes32 r, bytes32 s\r\n    ) external returns (uint amountToken, uint amountETH);\r\n    function swapExactTokensForTokens(\r\n        uint amountIn,\r\n        uint amountOutMin,\r\n        address[] calldata path,\r\n        address to,\r\n        uint deadline\r\n    ) external returns (uint[] memory amounts);\r\n    function swapTokensForExactTokens(\r\n        uint amountOut,\r\n        uint amountInMax,\r\n        address[] calldata path,\r\n        address to,\r\n        uint deadline\r\n    ) external returns (uint[] memory amounts);\r\n    function swapExactETHForTokens(uint amountOutMin, address[] calldata path, address to, uint deadline)\r\n        external\r\n        payable\r\n        returns (uint[] memory amounts);\r\n    function swapTokensForExactETH(uint amountOut, uint amountInMax, address[] calldata path, address to, uint deadline)\r\n        external\r\n        returns (uint[] memory amounts);\r\n    function swapExactTokensForETH(uint amountIn, uint amountOutMin, address[] calldata path, address to, uint deadline)\r\n        external\r\n        returns (uint[] memory amounts);\r\n    function swapETHForExactTokens(uint amountOut, address[] calldata path, address to, uint deadline)\r\n        external\r\n        payable\r\n        returns (uint[] memory amounts);\r\n\r\n    function quote(uint amountA, uint reserveA, uint reserveB) external pure returns (uint amountB);\r\n    function getAmountOut(uint amountIn, uint reserveIn, uint reserveOut) external pure returns (uint amountOut);\r\n    function getAmountIn(uint amountOut, uint reserveIn, uint reserveOut) external pure returns (uint amountIn);\r\n    function getAmountsOut(uint amountIn, address[] calldata path) external view returns (uint[] memory amounts);\r\n    function getAmountsIn(uint amountOut, address[] calldata path) external view returns (uint[] memory amounts);\r\n    function removeLiquidityETHSupportingFeeOnTransferTokens(\r\n        address token,\r\n        uint liquidity,\r\n        uint amountTokenMin,\r\n        uint amountETHMin,\r\n        address to,\r\n        uint deadline\r\n    ) external returns (uint amountETH);\r\n    function removeLiquidityETHWithPermitSupportingFeeOnTransferTokens(\r\n        address token,\r\n        uint liquidity,\r\n        uint amountTokenMin,\r\n        uint amountETHMin,\r\n        address to,\r\n        uint deadline,\r\n        bool approveMax, uint8 v, bytes32 r, bytes32 s\r\n    ) external returns (uint amountETH);\r\n\r\n    function swapExactTokensForTokensSupportingFeeOnTransferTokens(\r\n        uint amountIn,\r\n        uint amountOutMin,\r\n        address[] calldata path,\r\n        address to,\r\n        uint deadline\r\n    ) external;\r\n    function swapExactETHForTokensSupportingFeeOnTransferTokens(\r\n        uint amountOutMin,\r\n        address[] calldata path,\r\n        address to,\r\n        uint deadline\r\n    ) external payable;\r\n    function swapExactTokensForETHSupportingFeeOnTransferTokens(\r\n        uint amountIn,\r\n        uint amountOutMin,\r\n        address[] calldata path,\r\n        address to,\r\n        uint deadline\r\n    ) external;\r\n}\r\n\r\ninterface IFoundry {\r\n    function balanceOf(address _director) external view returns (uint256);\r\n\r\n    function earned(address _director) external view returns (uint256);\r\n\r\n    function canWithdraw(address _director) external view returns (bool);\r\n\r\n    function canClaimReward(address _director) external view returns (bool);\r\n\r\n    function epoch() external view returns (uint256);\r\n\r\n    function nextEpochPoint() external view returns (uint256);\r\n\r\n    function getDollarPrice() external view returns (uint256);\r\n\r\n    function setOperator(address _operator) external;\r\n\r\n    function setLockUp(uint256 _withdrawLockupEpochs, uint256 _rewardLockupEpochs) external;\r\n\r\n    function stake(uint256 _amount) external;\r\n\r\n    function withdraw(uint256 _amount) external;\r\n\r\n    function exit() external;\r\n\r\n    function claimReward() external;\r\n\r\n    function allocateSeigniorage(uint256 _amount) external;\r\n}\r\n\r\ninterface IPool {\r\n    function collateralDollarBalance() external view returns (uint256);\r\n\r\n    function migrate(address _new_pool) external;\r\n\r\n    function transferCollateralToTreasury(uint256 amount) external;\r\n\r\n    function getCollateralPrice() external view returns (uint256);\r\n\r\n    function getCollateralToken() external view returns (address);\r\n}\r\n\r\ninterface IOracle {\r\n    function consult() external view returns (uint256);\r\n}\r\n\r\ninterface IEpoch {\r\n    function epoch() external view returns (uint256);\r\n\r\n    function nextEpochPoint() external view returns (uint256);\r\n}\r\n\r\ninterface ITreasury is IEpoch {\r\n    function hasPool(address _address) external view returns (bool);\r\n\r\n    function info()\r\n        external\r\n        view\r\n        returns (\r\n            uint256,\r\n            uint256,\r\n            uint256,\r\n            uint256,\r\n            uint256,\r\n            uint256,\r\n            uint256,\r\n            uint256\r\n        );\r\n\r\n    function epochInfo()\r\n        external\r\n        view\r\n        returns (\r\n            uint256,\r\n            uint256,\r\n            uint256,\r\n            uint256\r\n        );\r\n}\r\n\r\ninterface IERC20 {\r\n    function totalSupply() external view returns (uint256);\r\n    function balanceOf(address account) external view returns (uint256);\r\n    function transfer(address recipient, uint256 amount) external returns (bool);\r\n    function allowance(address owner, address spender) external view returns (uint256);\r\n    function approve(address spender, uint256 amount) external returns (bool);\r\n    function transferFrom(address sender, address recipient, uint256 amount) external returns (bool);\r\n    event Transfer(address indexed from, address indexed to, uint256 value);\r\n    event Approval(address indexed owner, address indexed spender, uint256 value);\r\n    \r\n    function name() external view returns (string memory);\r\n    function symbol() external view returns (string memory);\r\n    function decimals() external view returns (uint8);\r\n}\r\n\r\nabstract contract Context {\r\n    function _msgSender() internal view virtual returns (address) {\r\n        return msg.sender;\r\n    }\r\n\r\n    function _msgData() internal view virtual returns (bytes calldata) {\r\n        this;\r\n        return msg.data;\r\n    }\r\n}\r\n\r\nabstract contract Ownable is Context {\r\n    address private _owner;\r\n    event OwnershipTransferred(address indexed previousOwner, address indexed newOwner);\r\n\r\n    constructor () {\r\n        address msgSender = _msgSender();\r\n        _owner = msgSender;\r\n        emit OwnershipTransferred(address(0), msgSender);\r\n    }\r\n\r\n    function owner() public view virtual returns (address) {\r\n        return _owner;\r\n    }\r\n\r\n    modifier onlyOwner() {\r\n        require(owner() == _msgSender(), \"Ownable: caller is not the owner\");\r\n        _;\r\n    }\r\n\r\n    function renounceOwnership() public virtual onlyOwner {\r\n        emit OwnershipTransferred(_owner, address(0));\r\n        _owner = address(0);\r\n    }\r\n\r\n    function transferOwnership(address newOwner) public virtual onlyOwner {\r\n        require(newOwner != address(0), \"Ownable: new owner is the zero address\");\r\n        emit OwnershipTransferred(_owner, newOwner);\r\n        _owner = newOwner;\r\n    }\r\n}\r\n\r\nabstract contract Operator is Context, Ownable {\r\n    address private _operator;\r\n\r\n    event OperatorTransferred(address indexed previousOperator, address indexed newOperator);\r\n\r\n    constructor(){\r\n        _operator = _msgSender();\r\n        emit OperatorTransferred(address(0), _operator);\r\n    }\r\n\r\n    function operator() public view returns (address) {\r\n        return _operator;\r\n    }\r\n\r\n    modifier onlyOperator() {\r\n        require(_operator == msg.sender, \"operator: caller is not the operator\");\r\n        _;\r\n    }\r\n\r\n    function isOperator() public view returns (bool) {\r\n        return _msgSender() == _operator;\r\n    }\r\n\r\n    function transferOperator(address newOperator_) public onlyOwner {\r\n        _transferOperator(newOperator_);\r\n    }\r\n\r\n    function _transferOperator(address newOperator_) internal {\r\n        require(newOperator_ != address(0), \"operator: zero address given for new operator\");\r\n        emit OperatorTransferred(address(0), newOperator_);\r\n        _operator = newOperator_;\r\n    }\r\n}\r\n\r\ncontract ReentrancyGuard {\r\n  uint256 private _guardCounter = 1;\r\n\r\n  modifier nonReentrant() {\r\n    _guardCounter += 1;\r\n    uint256 localCounter = _guardCounter;\r\n    _;\r\n    require(localCounter == _guardCounter);\r\n  }\r\n}\r\n\r\nabstract contract ERC20 is IERC20 {\r\n    using SafeMath for uint256;\r\n    \r\n    mapping (address => uint256) private _balances;\r\n    mapping (address => mapping (address => uint256)) private _allowed;\r\n    uint256 private _totalSupply;\r\n\r\n    function totalSupply() public view override returns (uint256) {\r\n        return _totalSupply;\r\n    }\r\n\r\n    function balanceOf(address owner) public view override returns (uint256) {\r\n        return _balances[owner];\r\n    }\r\n\r\n    function allowance(address owner, address spender) public view override returns (uint256){\r\n        return _allowed[owner][spender];\r\n    }\r\n\r\n    function transfer(address to, uint256 value) public override returns (bool) {\r\n        require(value <= _balances[msg.sender]);\r\n        require(to != address(0));\r\n        _balances[msg.sender] = _balances[msg.sender].sub(value);\r\n        _balances[to] = _balances[to].add(value);\r\n        emit Transfer(msg.sender, to, value);\r\n        return true;\r\n    }\r\n\r\n    function approve(address spender, uint256 value) public override returns (bool) {\r\n        require(spender != address(0));\r\n        _allowed[msg.sender][spender] = value;\r\n        emit Approval(msg.sender, spender, value);\r\n        return true;\r\n    }\r\n\r\n    function transferFrom(address from, address to, uint256 value) public override returns (bool){\r\n        require(value <= _balances[from]);\r\n        require(value <= _allowed[from][msg.sender]);\r\n        require(to != address(0));\r\n        _balances[from] = _balances[from].sub(value);\r\n        _balances[to] = _balances[to].add(value);\r\n        _allowed[from][msg.sender] = _allowed[from][msg.sender].sub(value);\r\n        emit Transfer(from, to, value);\r\n        return true;\r\n    }\r\n\r\n    function increaseAllowance(address spender, uint256 addedValue) public returns (bool){\r\n        require(spender != address(0));\r\n        _allowed[msg.sender][spender] = (\r\n        _allowed[msg.sender][spender].add(addedValue));\r\n        emit Approval(msg.sender, spender, _allowed[msg.sender][spender]);\r\n        return true;\r\n    }\r\n\r\n    function decreaseAllowance(address spender, uint256 subtractedValue) public returns (bool){\r\n        require(spender != address(0));\r\n        _allowed[msg.sender][spender] = (_allowed[msg.sender][spender].sub(subtractedValue));\r\n        emit Approval(msg.sender, spender, _allowed[msg.sender][spender]);\r\n        return true;\r\n    }\r\n\r\n    function _mint(address account, uint256 amount) internal {\r\n        require(account != address(0));\r\n        _totalSupply = _totalSupply.add(amount);\r\n        _balances[account] = _balances[account].add(amount);\r\n        emit Transfer(address(0), account, amount);\r\n    }\r\n\r\n    function _burn(address account, uint256 amount) internal {\r\n        require(account != address(0));\r\n        require(amount <= _balances[account]);\r\n        _totalSupply = _totalSupply.sub(amount);\r\n        _balances[account] = _balances[account].sub(amount);\r\n        emit Transfer(account, address(0), amount);\r\n    }\r\n\r\n    function _burnFrom(address account, uint256 amount) internal {\r\n        require(amount <= _allowed[account][msg.sender]);\r\n        _allowed[account][msg.sender] = _allowed[account][msg.sender].sub(amount);\r\n        _burn(account, amount);\r\n    }\r\n}\r\n\r\n\r\ncontract TreasuryAGOUSD is ITreasury, Operator, ReentrancyGuard {\r\n    using SafeMath for uint256;\r\n    using SafeERC20 for IERC20;\r\n\r\n    address public oracleDollar;\r\n    address public oracleShare;\r\n\r\n    address public AGOUSD;\r\n    address public CNUSD;\r\n    address public strategist;\r\n\r\n    bool public migrated = false;\r\n\r\n    // pools\r\n    address[] public pools_array;\r\n    mapping(address => bool) public pools;\r\n\r\n    // Constants for various precisions\r\n    uint256 private constant PRICE_PRECISION = 1e6;\r\n    uint256 private constant RATIO_PRECISION = 1e6;\r\n\r\n    // fees\r\n    uint256 public redemption_fee; // 6 decimals of precision\r\n    uint256 public minting_fee; // 6 decimals of precision\r\n\r\n    // collateral_ratio\r\n    uint256 public last_refresh_cr_timestamp;\r\n    uint256 public target_collateral_ratio; // 6 decimals of precision\r\n    uint256 public effective_collateral_ratio; // 6 decimals of precision\r\n    uint256 public refresh_cooldown; // Seconds to wait before being able to run refreshCollateralRatio() again\r\n    uint256 public ratio_step; // Amount to change the collateralization ratio by upon refreshCollateralRatio()\r\n    uint256 public price_target; // The price of AGOUSD at which the collateral ratio will respond to; this value is only used for the collateral ratio mechanism and not for minting and redeeming which are hardcoded at $1\r\n    uint256 public price_band; // The bound above and below the price target at which the Collateral ratio is allowed to drop\r\n    bool public collateral_ratio_paused = true; // during bootstraping phase, collateral_ratio will be fixed at 100%\r\n    bool public using_effective_collateral_ratio = false; // toggle the effective collateral ratio usage\r\n    uint256 private constant COLLATERAL_RATIO_MAX = 1e6;\r\n\r\n    // rebalance\r\n    address public rebalancing_pool;\r\n    address public rebalancing_pool_collateral;\r\n    uint256 public rebalance_cooldown = 12 hours;\r\n    uint256 public last_rebalance_timestamp;\r\n\r\n    // uniswap\r\n    address public uniswap_router;\r\n    address public uniswap_pair_WMATIC_USDT;\r\n    address public uniswap_pair_CNUSD_WMATIC;\r\n\r\n    // foundry\r\n    bool public initialized = false;\r\n    uint256 public startTime;\r\n    address public foundry;\r\n    uint256 public excess_collateral_distributed_ratio = 50000; // 5% per epoch\r\n    uint256 public lastEpochTime;\r\n    uint256 public epoch_length;\r\n    uint256 private _epoch = 0;\r\n\r\n    /* ========== MODIFIERS ========== */\r\n\r\n    modifier onlyStrategist() {\r\n        require(strategist == msg.sender, \"!strategist\");\r\n        _;\r\n    }\r\n\r\n    modifier onlyStrategistOrOperator() {\r\n        require(strategist == msg.sender || operator() == msg.sender, \"!strategist&&!operator\");\r\n        _;\r\n    }\r\n\r\n    modifier notMigrated() {\r\n        require(migrated == false, \"migrated\");\r\n        _;\r\n    }\r\n\r\n    modifier hasRebalancePool() {\r\n        require(rebalancing_pool != address(0), \"!rebalancingPool\");\r\n        require(rebalancing_pool_collateral != address(0), \"!rebalancingPoolCollateral\");\r\n        _;\r\n    }\r\n\r\n    modifier checkCondition {\r\n        require(!migrated, \"Treasury: migrated\");\r\n        require(block.timestamp >= startTime, \"Treasury: not started yet\");\r\n        _;\r\n    }\r\n\r\n    modifier checkRebalanceCooldown() {\r\n        uint256 _blockTimestamp = block.timestamp;\r\n        require(_blockTimestamp - last_rebalance_timestamp >= rebalance_cooldown, \"<rebalance_cooldown\");\r\n        _;\r\n        last_rebalance_timestamp = _blockTimestamp;\r\n    }\r\n\r\n    modifier checkEpoch {\r\n        uint256 _nextEpochPoint = nextEpochPoint();\r\n        require(block.timestamp >= _nextEpochPoint, \"Treasury: not opened yet\");\r\n        _;\r\n        lastEpochTime = _nextEpochPoint;\r\n        _epoch = _epoch.add(1);\r\n    }\r\n\r\n    /* ========== EVENTS ============= */\r\n    event TransactionExecuted(address indexed target, uint256 value, string signature, bytes data);\r\n    event BoughtBack(uint256 collateral_value, uint256 collateral_amount, uint256 output_share_amount);\r\n    event Recollateralized(uint256 share_amount, uint256 output_collateral_amount, uint256 output_collateral_value);\r\n\r\n    /* ========== CONSTRUCTOR ========== */\r\n\r\n    constructor(){\r\n        ratio_step = 2500; // = 0.25% at 6 decimals of precision\r\n        target_collateral_ratio = 1000000; // = 100% - fully collateralized at start\r\n        effective_collateral_ratio = 1000000; // = 100% - fully collateralized at start\r\n        refresh_cooldown = 3600; // Refresh cooldown period is set to 1 hour (3600 seconds) at genesis\r\n        price_target = 1000000; // = $1. (6 decimals of precision). Collateral ratio will adjust according to the $1 price target at genesis\r\n        price_band = 5000;\r\n        redemption_fee = 4000;\r\n        minting_fee = 3000;\r\n    }\r\n\r\n    function initialize(uint256 _startTime, uint256 _epoch_length) external onlyOperator {\r\n        require(initialized == false, \"alreadyInitialized\");\r\n        startTime = _startTime;\r\n        epoch_length = _epoch_length;\r\n        lastEpochTime = _startTime.sub(epoch_length);\r\n        initialized = true;\r\n    }\r\n\r\n    /* ========== VIEWS ========== */\r\n\r\n    function dollarPrice() public view returns (uint256) {\r\n        return IOracle(oracleDollar).consult();\r\n    }\r\n\r\n    function sharePrice() public view returns (uint256) {\r\n        return IOracle(oracleShare).consult();\r\n    }\r\n\r\n    function hasPool(address _address) external view override returns (bool) {\r\n        return pools[_address] == true;\r\n    }\r\n\r\n    function nextEpochPoint() public view override returns (uint256) {\r\n        return lastEpochTime.add(epoch_length);\r\n    }\r\n\r\n    function epoch() public view override returns (uint256) {\r\n        return _epoch;\r\n    }\r\n\r\n    function info()\r\n        external\r\n        view\r\n        override\r\n        returns (\r\n            uint256,\r\n            uint256,\r\n            uint256,\r\n            uint256,\r\n            uint256,\r\n            uint256,\r\n            uint256,\r\n            uint256\r\n        )\r\n    {\r\n        return (dollarPrice(), sharePrice(), IERC20(AGOUSD).totalSupply(), target_collateral_ratio, effective_collateral_ratio, globalCollateralValue(), minting_fee, redemption_fee);\r\n    }\r\n\r\n    function epochInfo()\r\n        external\r\n        view\r\n        override\r\n        returns (\r\n            uint256,\r\n            uint256,\r\n            uint256,\r\n            uint256\r\n        )\r\n    {\r\n        return (epoch(), nextEpochPoint(), epoch_length, excess_collateral_distributed_ratio);\r\n    }\r\n\r\n    // Iterate through all pools and calculate all value of collateral in all pools globally\r\n    function globalCollateralValue() public view returns (uint256) {\r\n        uint256 total_collateral_value = 0;\r\n        for (uint256 i = 0; i < pools_array.length; i++) {\r\n            // Exclude null addresses\r\n            if (pools_array[i] != address(0)) {\r\n                total_collateral_value = total_collateral_value.add(IPool(pools_array[i]).collateralDollarBalance());\r\n            }\r\n        }\r\n        return total_collateral_value;\r\n    }\r\n\r\n    function calcEffectiveCollateralRatio() public view returns (uint256) {\r\n        if (!using_effective_collateral_ratio) {\r\n            return target_collateral_ratio;\r\n        }\r\n        uint256 total_collateral_value = globalCollateralValue();\r\n        uint256 total_supply_dollar = IERC20(AGOUSD).totalSupply();\r\n        uint256 ecr = total_collateral_value.mul(PRICE_PRECISION).div(total_supply_dollar);\r\n        if (ecr > COLLATERAL_RATIO_MAX) {\r\n            return COLLATERAL_RATIO_MAX;\r\n        }\r\n        return ecr;\r\n    }\r\n\r\n    /* ========== PUBLIC FUNCTIONS ========== */\r\n\r\n    function refreshCollateralRatio() public {\r\n        require(collateral_ratio_paused == false, \"Collateral Ratio has been paused\");\r\n        require(block.timestamp - last_refresh_cr_timestamp >= refresh_cooldown, \"Must wait for the refresh cooldown since last refresh\");\r\n\r\n        uint256 current_dollar_price = dollarPrice();\r\n\r\n        // Step increments are 0.25% (upon genesis, changable by setRatioStep())\r\n        if (current_dollar_price > price_target.add(price_band)) {\r\n            // decrease collateral ratio\r\n            if (target_collateral_ratio <= ratio_step) {\r\n                // if within a step of 0, go to 0\r\n                target_collateral_ratio = 0;\r\n            } else {\r\n                target_collateral_ratio = target_collateral_ratio.sub(ratio_step);\r\n            }\r\n        }\r\n        // IRON price is below $1 - `price_band`. Need to increase `collateral_ratio`\r\n        else if (current_dollar_price < price_target.sub(price_band)) {\r\n            // increase collateral ratio\r\n            if (target_collateral_ratio.add(ratio_step) >= COLLATERAL_RATIO_MAX) {\r\n                target_collateral_ratio = COLLATERAL_RATIO_MAX; // cap collateral ratio at 1.000000\r\n            } else {\r\n                target_collateral_ratio = target_collateral_ratio.add(ratio_step);\r\n            }\r\n        }\r\n\r\n        // If using ECR, then calcECR. If not, update ECR = TCR\r\n        if (using_effective_collateral_ratio) {\r\n            effective_collateral_ratio = calcEffectiveCollateralRatio();\r\n        } else {\r\n            effective_collateral_ratio = target_collateral_ratio;\r\n        }\r\n\r\n        last_refresh_cr_timestamp = block.timestamp;\r\n    }\r\n\r\n    // Check if the protocol is over- or under-collateralized, by how much\r\n    function calcCollateralBalance() public view returns (uint256 _collateral_value, bool _exceeded) {\r\n        uint256 total_collateral_value = globalCollateralValue();\r\n        uint256 target_collateral_value = IERC20(AGOUSD).totalSupply().mul(target_collateral_ratio).div(PRICE_PRECISION);\r\n        if (total_collateral_value >= target_collateral_value) {\r\n            _collateral_value = total_collateral_value.sub(target_collateral_value);\r\n            _exceeded = true;\r\n        } else {\r\n            _collateral_value = target_collateral_value.sub(total_collateral_value);\r\n            _exceeded = false;\r\n        }\r\n    }\r\n\r\n    /* -========= INTERNAL FUNCTIONS ============ */\r\n\r\n    // SWAP tokens using uniswap\r\n    function _swap(\r\n        address _input_token,\r\n        uint256 _input_amount,\r\n        uint256 _min_output_amount\r\n    ) internal returns (uint256) {\r\n        require(uniswap_router != address(0) && uniswap_pair_CNUSD_WMATIC != address(0) && uniswap_pair_WMATIC_USDT != address(0), \"!uniswap\");\r\n        if (_input_amount == 0) return 0;\r\n        address[] memory _path = new address[](2);\r\n        if (_input_token == CNUSD) {\r\n            _path[0] = uniswap_pair_CNUSD_WMATIC;\r\n            _path[1] = uniswap_pair_WMATIC_USDT;\r\n        } else {\r\n            _path[0] = uniswap_pair_WMATIC_USDT;\r\n            _path[1] = uniswap_pair_CNUSD_WMATIC;\r\n        }\r\n        IERC20(_input_token).safeApprove(uniswap_router, 0);\r\n        IERC20(_input_token).safeApprove(uniswap_router, _input_amount);\r\n        uint256[] memory out_amounts = IUniswapRouter(uniswap_router).swapExactTokensForTokens(_input_amount, _min_output_amount, _path, address(this), block.timestamp.add(1800));\r\n        return out_amounts[out_amounts.length - 1];\r\n    }\r\n    /* ========== RESTRICTED FUNCTIONS ========== */\r\n\r\n    // Add new Pool\r\n    function addPool(address pool_address) public onlyOperator notMigrated {\r\n        require(pools[pool_address] == false, \"poolExisted\");\r\n        pools[pool_address] = true;\r\n        pools_array.push(pool_address);\r\n    }\r\n\r\n    // Remove a pool\r\n    function removePool(address pool_address) public onlyOperator notMigrated {\r\n        require(pools[pool_address] == true, \"!pool\");\r\n        // Delete from the mapping\r\n        delete pools[pool_address];\r\n        // 'Delete' from the array by setting the address to 0x0\r\n        for (uint256 i = 0; i < pools_array.length; i++) {\r\n            if (pools_array[i] == pool_address) {\r\n                pools_array[i] = address(0); // This will leave a null in the array and keep the indices the same\r\n                break;\r\n            }\r\n        }\r\n    }\r\n\r\n    // SINGLE POOL STRATEGY\r\n    // With Treasury v1, we will only utilize collateral from a single pool to do rebalancing\r\n    function buyback(uint256 _collateral_value, uint256 _min_share_amount) external onlyStrategist notMigrated hasRebalancePool checkRebalanceCooldown {\r\n        (uint256 _excess_collateral_value, bool _exceeded) = calcCollateralBalance();\r\n        require(_exceeded && _excess_collateral_value > 0, \"!exceeded\");\r\n        require(_collateral_value > 0 && _collateral_value < _excess_collateral_value, \"invalidCollateralAmount\");\r\n        uint256 _collateral_price = IPool(rebalancing_pool).getCollateralPrice();\r\n        uint256 _collateral_amount_sell = _collateral_value.mul(PRICE_PRECISION).div(_collateral_price);\r\n        require(IERC20(rebalancing_pool_collateral).balanceOf(rebalancing_pool) > _collateral_amount_sell, \"insufficentPoolBalance\");\r\n        IPool(rebalancing_pool).transferCollateralToTreasury(_collateral_amount_sell); // Transfer collateral from pool to treasury\r\n        uint256 out_share_amount = _swap(rebalancing_pool_collateral, _collateral_amount_sell, _min_share_amount);\r\n        emit BoughtBack(_collateral_value, _collateral_amount_sell, out_share_amount);\r\n    }\r\n\r\n    // SINGLE POOL STRATEGY\r\n    // With Treasury v1, we will only utilize collateral from a single pool to do rebalancing\r\n    function recollateralize(uint256 _share_amount, uint256 _min_collateral_amount) external onlyStrategist notMigrated hasRebalancePool checkRebalanceCooldown {\r\n        (uint256 _deficit_collateral_value, bool _exceeded) = calcCollateralBalance();\r\n        require(!_exceeded && _deficit_collateral_value > 0, \"exceeded\");\r\n        require(_min_collateral_amount <= _deficit_collateral_value, \">deficit\");\r\n        uint256 _share_balance = IERC20(CNUSD).balanceOf(address(this));\r\n        require(_share_amount <= _share_balance, \">shareBalance\");\r\n        uint256 out_collateral_amount = _swap(CNUSD, _share_amount, _min_collateral_amount);\r\n        uint256 _collateral_balance = IERC20(rebalancing_pool_collateral).balanceOf(address(this));\r\n        if (_collateral_balance > 0) {\r\n            IERC20(rebalancing_pool_collateral).safeTransfer(rebalancing_pool, _collateral_balance); // Transfer collateral from Treasury to Pool\r\n        }\r\n        uint256 collateral_price = IPool(rebalancing_pool).getCollateralPrice();\r\n        uint256 out_collateral_value = out_collateral_amount.mul(collateral_price).div(PRICE_PRECISION);\r\n        emit Recollateralized(_share_amount, out_collateral_amount, out_collateral_value);\r\n    }\r\n\r\n    function allocateSeigniorage() external nonReentrant checkCondition checkEpoch {\r\n        (uint256 _excess_collateral_value, bool _exceeded) = calcCollateralBalance();\r\n        uint256 _allocation_value = 0;\r\n        if (_exceeded) {\r\n            _allocation_value = _excess_collateral_value.mul(excess_collateral_distributed_ratio).div(RATIO_PRECISION);\r\n            uint256 collateral_price = IPool(rebalancing_pool).getCollateralPrice();\r\n            uint256 _allocation_amount = _allocation_value.mul(PRICE_PRECISION).div(collateral_price);\r\n            IPool(rebalancing_pool).transferCollateralToTreasury(_allocation_amount); // Transfer collateral from pool to treasury\r\n            IERC20(rebalancing_pool_collateral).safeApprove(foundry, 0);\r\n            IERC20(rebalancing_pool_collateral).safeApprove(foundry, _allocation_amount);\r\n            IFoundry(foundry).allocateSeigniorage(_allocation_amount);\r\n        }\r\n    }\r\n\r\n    function migrate(address _new_treasury) external onlyOperator notMigrated {\r\n        migrated = true;\r\n        uint256 _share_balance = IERC20(CNUSD).balanceOf(address(this));\r\n        if (_share_balance > 0) {\r\n            IERC20(CNUSD).safeTransfer(_new_treasury, _share_balance);\r\n        }\r\n        if (rebalancing_pool_collateral != address(0)) {\r\n            uint256 _collateral_balance = IERC20(rebalancing_pool_collateral).balanceOf(address(this));\r\n            if (_collateral_balance > 0) {\r\n                IERC20(rebalancing_pool_collateral).safeTransfer(_new_treasury, _collateral_balance);\r\n            }\r\n        }\r\n    }\r\n\r\n    function setRedemptionFee(uint256 _redemption_fee) public onlyOperator {\r\n        redemption_fee = _redemption_fee;\r\n    }\r\n\r\n    function setMintingFee(uint256 _minting_fee) public onlyOperator {\r\n        minting_fee = _minting_fee;\r\n    }\r\n\r\n    function setRatioStep(uint256 _ratio_step) public onlyOperator {\r\n        ratio_step = _ratio_step;\r\n    }\r\n\r\n    function setPriceTarget(uint256 _price_target) public onlyOperator {\r\n        price_target = _price_target;\r\n    }\r\n\r\n    function setRefreshCooldown(uint256 _refresh_cooldown) public onlyOperator {\r\n        refresh_cooldown = _refresh_cooldown;\r\n    }\r\n\r\n    function setPriceBand(uint256 _price_band) external onlyOperator {\r\n        price_band = _price_band;\r\n    }\r\n\r\n    function toggleCollateralRatio() public onlyOperator {\r\n        collateral_ratio_paused = !collateral_ratio_paused;\r\n    }\r\n\r\n    function toggleEffectiveCollateralRatio() public onlyOperator {\r\n        using_effective_collateral_ratio = !using_effective_collateral_ratio;\r\n    }\r\n\r\n    function setOracleDollar(address _oracleDollar) public onlyOperator {\r\n        oracleDollar = _oracleDollar;\r\n    }\r\n\r\n    function setOracleShare(address _oracleShare) public onlyOperator {\r\n        oracleShare = _oracleShare;\r\n    }\r\n\r\n    function setDollarAddress(address _AGOUSD) public onlyOperator {\r\n        AGOUSD = _AGOUSD;\r\n    }\r\n\r\n    function setShareAddress(address _CNUSD) public onlyOperator {\r\n        CNUSD = _CNUSD;\r\n    }\r\n\r\n    function setStrategist(address _strategist) external onlyOperator {\r\n        strategist = _strategist;\r\n    }\r\n\r\n    function setUniswapParams(\r\n        address _uniswap_router,\r\n        address _uniswap_pair_CNUSD_WMATIC,\r\n        address _uniswap_pair_WMATIC_USDT\r\n    ) public onlyOperator {\r\n        uniswap_router = _uniswap_router;\r\n        uniswap_pair_CNUSD_WMATIC = _uniswap_pair_CNUSD_WMATIC;\r\n        uniswap_pair_WMATIC_USDT = _uniswap_pair_WMATIC_USDT;\r\n    }\r\n\r\n    function setRebalancePool(address _rebalance_pool) public onlyOperator {\r\n        require(pools[_rebalance_pool], \"!pool\");\r\n        require(IPool(_rebalance_pool).getCollateralToken() != address(0), \"!poolCollateralToken\");\r\n        rebalancing_pool = _rebalance_pool;\r\n        rebalancing_pool_collateral = IPool(_rebalance_pool).getCollateralToken();\r\n    }\r\n\r\n    function setRebalanceCooldown(uint256 _rebalance_cooldown) public onlyOperator {\r\n        rebalance_cooldown = _rebalance_cooldown;\r\n    }\r\n\r\n    function resetStartTime(uint256 _startTime) external onlyOperator {\r\n        require(_epoch == 0, \"already started\");\r\n        startTime = _startTime;\r\n        lastEpochTime = _startTime.sub(8 hours);\r\n    }\r\n\r\n    function setFoundry(address _foundry) public onlyOperator {\r\n        foundry = _foundry;\r\n    }\r\n\r\n    function setEpochLength(uint256 _epoch_length) public onlyOperator {\r\n        epoch_length = _epoch_length;\r\n    }\r\n\r\n    function setExcessDistributionRatio(uint256 _excess_collateral_distributed_ratio) public onlyStrategistOrOperator {\r\n        excess_collateral_distributed_ratio = _excess_collateral_distributed_ratio;\r\n    }\r\n\r\n    /* ========== EMERGENCY ========== */\r\n\r\n    function executeTransaction(\r\n        address target,\r\n        uint256 value,\r\n        string memory signature,\r\n        bytes memory data\r\n    ) public onlyOperator returns (bytes memory) {\r\n        bytes memory callData;\r\n\r\n        if (bytes(signature).length == 0) {\r\n            callData = data;\r\n        } else {\r\n            callData = abi.encodePacked(bytes4(keccak256(bytes(signature))), data);\r\n        }\r\n\r\n        // solium-disable-next-line security/no-call-value\r\n        \r\n        (bool success, bytes memory returnData) = target.call{value: value}(callData);\r\n        require(success, string(\"Treasury::executeTransaction: Transaction execution reverted.\"));\r\n        emit TransactionExecuted(target, value, signature, data);\r\n        return returnData;\r\n    }\r\n\r\n    receive() external payable {}\r\n}\r\n",
  "sourcePath": "C:/Users/PaulMuller/Documents/projects/project_AGO/contracts/TreasuryAGOUSD.sol",
  "compiler": {
    "name": "solc",
    "version": "0.8.4+commit.c7e474f2.Emscripten.clang"
  },
  "schemaVersion": "3.4.1",
  "updatedAt": "2021-06-04T01:37:04.970Z",
  "networkType": "ethereum",
  "devdoc": {
    "kind": "dev",
    "methods": {},
    "version": 1
  },
  "userdoc": {
    "kind": "user",
    "methods": {},
    "version": 1
  }
}