{
  "contractName": "TreasuryAGOUSD",
  "abi": [
    {
      "inputs": [],
      "stateMutability": "nonpayable",
      "type": "constructor"
    },
    {
      "anonymous": false,
      "inputs": [
        {
          "indexed": false,
          "internalType": "uint256",
          "name": "collateral_value",
          "type": "uint256"
        },
        {
          "indexed": false,
          "internalType": "uint256",
          "name": "collateral_amount",
          "type": "uint256"
        },
        {
          "indexed": false,
          "internalType": "uint256",
          "name": "output_share_amount",
          "type": "uint256"
        }
      ],
      "name": "BoughtBack",
      "type": "event"
    },
    {
      "anonymous": false,
      "inputs": [
        {
          "indexed": true,
          "internalType": "address",
          "name": "previousOperator",
          "type": "address"
        },
        {
          "indexed": true,
          "internalType": "address",
          "name": "newOperator",
          "type": "address"
        }
      ],
      "name": "OperatorTransferred",
      "type": "event"
    },
    {
      "anonymous": false,
      "inputs": [
        {
          "indexed": true,
          "internalType": "address",
          "name": "previousOwner",
          "type": "address"
        },
        {
          "indexed": true,
          "internalType": "address",
          "name": "newOwner",
          "type": "address"
        }
      ],
      "name": "OwnershipTransferred",
      "type": "event"
    },
    {
      "anonymous": false,
      "inputs": [
        {
          "indexed": false,
          "internalType": "uint256",
          "name": "share_amount",
          "type": "uint256"
        },
        {
          "indexed": false,
          "internalType": "uint256",
          "name": "output_collateral_amount",
          "type": "uint256"
        },
        {
          "indexed": false,
          "internalType": "uint256",
          "name": "output_collateral_value",
          "type": "uint256"
        }
      ],
      "name": "Recollateralized",
      "type": "event"
    },
    {
      "anonymous": false,
      "inputs": [
        {
          "indexed": true,
          "internalType": "address",
          "name": "target",
          "type": "address"
        },
        {
          "indexed": false,
          "internalType": "uint256",
          "name": "value",
          "type": "uint256"
        },
        {
          "indexed": false,
          "internalType": "string",
          "name": "signature",
          "type": "string"
        },
        {
          "indexed": false,
          "internalType": "bytes",
          "name": "data",
          "type": "bytes"
        }
      ],
      "name": "TransactionExecuted",
      "type": "event"
    },
    {
      "inputs": [],
      "name": "AGOUSD",
      "outputs": [
        {
          "internalType": "address",
          "name": "",
          "type": "address"
        }
      ],
      "stateMutability": "view",
      "type": "function",
      "constant": true
    },
    {
      "inputs": [],
      "name": "CNUSD",
      "outputs": [
        {
          "internalType": "address",
          "name": "",
          "type": "address"
        }
      ],
      "stateMutability": "view",
      "type": "function",
      "constant": true
    },
    {
      "inputs": [],
      "name": "collateral_ratio_paused",
      "outputs": [
        {
          "internalType": "bool",
          "name": "",
          "type": "bool"
        }
      ],
      "stateMutability": "view",
      "type": "function",
      "constant": true
    },
    {
      "inputs": [],
      "name": "effective_collateral_ratio",
      "outputs": [
        {
          "internalType": "uint256",
          "name": "",
          "type": "uint256"
        }
      ],
      "stateMutability": "view",
      "type": "function",
      "constant": true
    },
    {
      "inputs": [],
      "name": "epoch_length",
      "outputs": [
        {
          "internalType": "uint256",
          "name": "",
          "type": "uint256"
        }
      ],
      "stateMutability": "view",
      "type": "function",
      "constant": true
    },
    {
      "inputs": [],
      "name": "excess_collateral_distributed_ratio",
      "outputs": [
        {
          "internalType": "uint256",
          "name": "",
          "type": "uint256"
        }
      ],
      "stateMutability": "view",
      "type": "function",
      "constant": true
    },
    {
      "inputs": [],
      "name": "foundry",
      "outputs": [
        {
          "internalType": "address",
          "name": "",
          "type": "address"
        }
      ],
      "stateMutability": "view",
      "type": "function",
      "constant": true
    },
    {
      "inputs": [],
      "name": "initialized",
      "outputs": [
        {
          "internalType": "bool",
          "name": "",
          "type": "bool"
        }
      ],
      "stateMutability": "view",
      "type": "function",
      "constant": true
    },
    {
      "inputs": [],
      "name": "isOperator",
      "outputs": [
        {
          "internalType": "bool",
          "name": "",
          "type": "bool"
        }
      ],
      "stateMutability": "view",
      "type": "function",
      "constant": true
    },
    {
      "inputs": [],
      "name": "lastEpochTime",
      "outputs": [
        {
          "internalType": "uint256",
          "name": "",
          "type": "uint256"
        }
      ],
      "stateMutability": "view",
      "type": "function",
      "constant": true
    },
    {
      "inputs": [],
      "name": "last_rebalance_timestamp",
      "outputs": [
        {
          "internalType": "uint256",
          "name": "",
          "type": "uint256"
        }
      ],
      "stateMutability": "view",
      "type": "function",
      "constant": true
    },
    {
      "inputs": [],
      "name": "last_refresh_cr_timestamp",
      "outputs": [
        {
          "internalType": "uint256",
          "name": "",
          "type": "uint256"
        }
      ],
      "stateMutability": "view",
      "type": "function",
      "constant": true
    },
    {
      "inputs": [],
      "name": "migrated",
      "outputs": [
        {
          "internalType": "bool",
          "name": "",
          "type": "bool"
        }
      ],
      "stateMutability": "view",
      "type": "function",
      "constant": true
    },
    {
      "inputs": [],
      "name": "minting_fee",
      "outputs": [
        {
          "internalType": "uint256",
          "name": "",
          "type": "uint256"
        }
      ],
      "stateMutability": "view",
      "type": "function",
      "constant": true
    },
    {
      "inputs": [],
      "name": "operator",
      "outputs": [
        {
          "internalType": "address",
          "name": "",
          "type": "address"
        }
      ],
      "stateMutability": "view",
      "type": "function",
      "constant": true
    },
    {
      "inputs": [],
      "name": "oracleDollar",
      "outputs": [
        {
          "internalType": "address",
          "name": "",
          "type": "address"
        }
      ],
      "stateMutability": "view",
      "type": "function",
      "constant": true
    },
    {
      "inputs": [],
      "name": "oracleShare",
      "outputs": [
        {
          "internalType": "address",
          "name": "",
          "type": "address"
        }
      ],
      "stateMutability": "view",
      "type": "function",
      "constant": true
    },
    {
      "inputs": [],
      "name": "owner",
      "outputs": [
        {
          "internalType": "address",
          "name": "",
          "type": "address"
        }
      ],
      "stateMutability": "view",
      "type": "function",
      "constant": true
    },
    {
      "inputs": [
        {
          "internalType": "address",
          "name": "",
          "type": "address"
        }
      ],
      "name": "pools",
      "outputs": [
        {
          "internalType": "bool",
          "name": "",
          "type": "bool"
        }
      ],
      "stateMutability": "view",
      "type": "function",
      "constant": true
    },
    {
      "inputs": [
        {
          "internalType": "uint256",
          "name": "",
          "type": "uint256"
        }
      ],
      "name": "pools_array",
      "outputs": [
        {
          "internalType": "address",
          "name": "",
          "type": "address"
        }
      ],
      "stateMutability": "view",
      "type": "function",
      "constant": true
    },
    {
      "inputs": [],
      "name": "price_band",
      "outputs": [
        {
          "internalType": "uint256",
          "name": "",
          "type": "uint256"
        }
      ],
      "stateMutability": "view",
      "type": "function",
      "constant": true
    },
    {
      "inputs": [],
      "name": "price_target",
      "outputs": [
        {
          "internalType": "uint256",
          "name": "",
          "type": "uint256"
        }
      ],
      "stateMutability": "view",
      "type": "function",
      "constant": true
    },
    {
      "inputs": [],
      "name": "ratio_step",
      "outputs": [
        {
          "internalType": "uint256",
          "name": "",
          "type": "uint256"
        }
      ],
      "stateMutability": "view",
      "type": "function",
      "constant": true
    },
    {
      "inputs": [],
      "name": "rebalance_cooldown",
      "outputs": [
        {
          "internalType": "uint256",
          "name": "",
          "type": "uint256"
        }
      ],
      "stateMutability": "view",
      "type": "function",
      "constant": true
    },
    {
      "inputs": [],
      "name": "rebalancing_pool",
      "outputs": [
        {
          "internalType": "address",
          "name": "",
          "type": "address"
        }
      ],
      "stateMutability": "view",
      "type": "function",
      "constant": true
    },
    {
      "inputs": [],
      "name": "rebalancing_pool_collateral",
      "outputs": [
        {
          "internalType": "address",
          "name": "",
          "type": "address"
        }
      ],
      "stateMutability": "view",
      "type": "function",
      "constant": true
    },
    {
      "inputs": [],
      "name": "redemption_fee",
      "outputs": [
        {
          "internalType": "uint256",
          "name": "",
          "type": "uint256"
        }
      ],
      "stateMutability": "view",
      "type": "function",
      "constant": true
    },
    {
      "inputs": [],
      "name": "refresh_cooldown",
      "outputs": [
        {
          "internalType": "uint256",
          "name": "",
          "type": "uint256"
        }
      ],
      "stateMutability": "view",
      "type": "function",
      "constant": true
    },
    {
      "inputs": [],
      "name": "renounceOwnership",
      "outputs": [],
      "stateMutability": "nonpayable",
      "type": "function"
    },
    {
      "inputs": [],
      "name": "startTime",
      "outputs": [
        {
          "internalType": "uint256",
          "name": "",
          "type": "uint256"
        }
      ],
      "stateMutability": "view",
      "type": "function",
      "constant": true
    },
    {
      "inputs": [],
      "name": "strategist",
      "outputs": [
        {
          "internalType": "address",
          "name": "",
          "type": "address"
        }
      ],
      "stateMutability": "view",
      "type": "function",
      "constant": true
    },
    {
      "inputs": [],
      "name": "target_collateral_ratio",
      "outputs": [
        {
          "internalType": "uint256",
          "name": "",
          "type": "uint256"
        }
      ],
      "stateMutability": "view",
      "type": "function",
      "constant": true
    },
    {
      "inputs": [
        {
          "internalType": "address",
          "name": "newOperator_",
          "type": "address"
        }
      ],
      "name": "transferOperator",
      "outputs": [],
      "stateMutability": "nonpayable",
      "type": "function"
    },
    {
      "inputs": [
        {
          "internalType": "address",
          "name": "newOwner",
          "type": "address"
        }
      ],
      "name": "transferOwnership",
      "outputs": [],
      "stateMutability": "nonpayable",
      "type": "function"
    },
    {
      "inputs": [],
      "name": "using_effective_collateral_ratio",
      "outputs": [
        {
          "internalType": "bool",
          "name": "",
          "type": "bool"
        }
      ],
      "stateMutability": "view",
      "type": "function",
      "constant": true
    },
    {
      "inputs": [],
      "name": "vswap_pair_bnb_busd",
      "outputs": [
        {
          "internalType": "address",
          "name": "",
          "type": "address"
        }
      ],
      "stateMutability": "view",
      "type": "function",
      "constant": true
    },
    {
      "inputs": [],
      "name": "vswap_pair_share_bnb",
      "outputs": [
        {
          "internalType": "address",
          "name": "",
          "type": "address"
        }
      ],
      "stateMutability": "view",
      "type": "function",
      "constant": true
    },
    {
      "inputs": [],
      "name": "vswap_router",
      "outputs": [
        {
          "internalType": "address",
          "name": "",
          "type": "address"
        }
      ],
      "stateMutability": "view",
      "type": "function",
      "constant": true
    },
    {
      "stateMutability": "payable",
      "type": "receive",
      "payable": true
    },
    {
      "inputs": [
        {
          "internalType": "uint256",
          "name": "_startTime",
          "type": "uint256"
        },
        {
          "internalType": "uint256",
          "name": "_epoch_length",
          "type": "uint256"
        }
      ],
      "name": "initialize",
      "outputs": [],
      "stateMutability": "nonpayable",
      "type": "function"
    },
    {
      "inputs": [],
      "name": "dollarPrice",
      "outputs": [
        {
          "internalType": "uint256",
          "name": "",
          "type": "uint256"
        }
      ],
      "stateMutability": "view",
      "type": "function",
      "constant": true
    },
    {
      "inputs": [],
      "name": "sharePrice",
      "outputs": [
        {
          "internalType": "uint256",
          "name": "",
          "type": "uint256"
        }
      ],
      "stateMutability": "view",
      "type": "function",
      "constant": true
    },
    {
      "inputs": [
        {
          "internalType": "address",
          "name": "_address",
          "type": "address"
        }
      ],
      "name": "hasPool",
      "outputs": [
        {
          "internalType": "bool",
          "name": "",
          "type": "bool"
        }
      ],
      "stateMutability": "view",
      "type": "function",
      "constant": true
    },
    {
      "inputs": [],
      "name": "nextEpochPoint",
      "outputs": [
        {
          "internalType": "uint256",
          "name": "",
          "type": "uint256"
        }
      ],
      "stateMutability": "view",
      "type": "function",
      "constant": true
    },
    {
      "inputs": [],
      "name": "epoch",
      "outputs": [
        {
          "internalType": "uint256",
          "name": "",
          "type": "uint256"
        }
      ],
      "stateMutability": "view",
      "type": "function",
      "constant": true
    },
    {
      "inputs": [],
      "name": "info",
      "outputs": [
        {
          "internalType": "uint256",
          "name": "",
          "type": "uint256"
        },
        {
          "internalType": "uint256",
          "name": "",
          "type": "uint256"
        },
        {
          "internalType": "uint256",
          "name": "",
          "type": "uint256"
        },
        {
          "internalType": "uint256",
          "name": "",
          "type": "uint256"
        },
        {
          "internalType": "uint256",
          "name": "",
          "type": "uint256"
        },
        {
          "internalType": "uint256",
          "name": "",
          "type": "uint256"
        },
        {
          "internalType": "uint256",
          "name": "",
          "type": "uint256"
        },
        {
          "internalType": "uint256",
          "name": "",
          "type": "uint256"
        }
      ],
      "stateMutability": "view",
      "type": "function",
      "constant": true
    },
    {
      "inputs": [],
      "name": "epochInfo",
      "outputs": [
        {
          "internalType": "uint256",
          "name": "",
          "type": "uint256"
        },
        {
          "internalType": "uint256",
          "name": "",
          "type": "uint256"
        },
        {
          "internalType": "uint256",
          "name": "",
          "type": "uint256"
        },
        {
          "internalType": "uint256",
          "name": "",
          "type": "uint256"
        }
      ],
      "stateMutability": "view",
      "type": "function",
      "constant": true
    },
    {
      "inputs": [],
      "name": "globalCollateralValue",
      "outputs": [
        {
          "internalType": "uint256",
          "name": "",
          "type": "uint256"
        }
      ],
      "stateMutability": "view",
      "type": "function",
      "constant": true
    },
    {
      "inputs": [],
      "name": "calcEffectiveCollateralRatio",
      "outputs": [
        {
          "internalType": "uint256",
          "name": "",
          "type": "uint256"
        }
      ],
      "stateMutability": "view",
      "type": "function",
      "constant": true
    },
    {
      "inputs": [],
      "name": "refreshCollateralRatio",
      "outputs": [],
      "stateMutability": "nonpayable",
      "type": "function"
    },
    {
      "inputs": [],
      "name": "calcCollateralBalance",
      "outputs": [
        {
          "internalType": "uint256",
          "name": "_collateral_value",
          "type": "uint256"
        },
        {
          "internalType": "bool",
          "name": "_exceeded",
          "type": "bool"
        }
      ],
      "stateMutability": "view",
      "type": "function",
      "constant": true
    },
    {
      "inputs": [
        {
          "internalType": "address",
          "name": "pool_address",
          "type": "address"
        }
      ],
      "name": "addPool",
      "outputs": [],
      "stateMutability": "nonpayable",
      "type": "function"
    },
    {
      "inputs": [
        {
          "internalType": "address",
          "name": "pool_address",
          "type": "address"
        }
      ],
      "name": "removePool",
      "outputs": [],
      "stateMutability": "nonpayable",
      "type": "function"
    },
    {
      "inputs": [
        {
          "internalType": "uint256",
          "name": "_collateral_value",
          "type": "uint256"
        },
        {
          "internalType": "uint256",
          "name": "_min_share_amount",
          "type": "uint256"
        }
      ],
      "name": "buyback",
      "outputs": [],
      "stateMutability": "nonpayable",
      "type": "function"
    },
    {
      "inputs": [
        {
          "internalType": "uint256",
          "name": "_share_amount",
          "type": "uint256"
        },
        {
          "internalType": "uint256",
          "name": "_min_collateral_amount",
          "type": "uint256"
        }
      ],
      "name": "recollateralize",
      "outputs": [],
      "stateMutability": "nonpayable",
      "type": "function"
    },
    {
      "inputs": [],
      "name": "allocateSeigniorage",
      "outputs": [],
      "stateMutability": "nonpayable",
      "type": "function"
    },
    {
      "inputs": [
        {
          "internalType": "address",
          "name": "_new_treasury",
          "type": "address"
        }
      ],
      "name": "migrate",
      "outputs": [],
      "stateMutability": "nonpayable",
      "type": "function"
    },
    {
      "inputs": [
        {
          "internalType": "uint256",
          "name": "_redemption_fee",
          "type": "uint256"
        }
      ],
      "name": "setRedemptionFee",
      "outputs": [],
      "stateMutability": "nonpayable",
      "type": "function"
    },
    {
      "inputs": [
        {
          "internalType": "uint256",
          "name": "_minting_fee",
          "type": "uint256"
        }
      ],
      "name": "setMintingFee",
      "outputs": [],
      "stateMutability": "nonpayable",
      "type": "function"
    },
    {
      "inputs": [
        {
          "internalType": "uint256",
          "name": "_ratio_step",
          "type": "uint256"
        }
      ],
      "name": "setRatioStep",
      "outputs": [],
      "stateMutability": "nonpayable",
      "type": "function"
    },
    {
      "inputs": [
        {
          "internalType": "uint256",
          "name": "_price_target",
          "type": "uint256"
        }
      ],
      "name": "setPriceTarget",
      "outputs": [],
      "stateMutability": "nonpayable",
      "type": "function"
    },
    {
      "inputs": [
        {
          "internalType": "uint256",
          "name": "_refresh_cooldown",
          "type": "uint256"
        }
      ],
      "name": "setRefreshCooldown",
      "outputs": [],
      "stateMutability": "nonpayable",
      "type": "function"
    },
    {
      "inputs": [
        {
          "internalType": "uint256",
          "name": "_price_band",
          "type": "uint256"
        }
      ],
      "name": "setPriceBand",
      "outputs": [],
      "stateMutability": "nonpayable",
      "type": "function"
    },
    {
      "inputs": [],
      "name": "toggleCollateralRatio",
      "outputs": [],
      "stateMutability": "nonpayable",
      "type": "function"
    },
    {
      "inputs": [],
      "name": "toggleEffectiveCollateralRatio",
      "outputs": [],
      "stateMutability": "nonpayable",
      "type": "function"
    },
    {
      "inputs": [
        {
          "internalType": "address",
          "name": "_oracleDollar",
          "type": "address"
        }
      ],
      "name": "setOracleDollar",
      "outputs": [],
      "stateMutability": "nonpayable",
      "type": "function"
    },
    {
      "inputs": [
        {
          "internalType": "address",
          "name": "_oracleShare",
          "type": "address"
        }
      ],
      "name": "setOracleShare",
      "outputs": [],
      "stateMutability": "nonpayable",
      "type": "function"
    },
    {
      "inputs": [
        {
          "internalType": "address",
          "name": "_AGOUSD",
          "type": "address"
        }
      ],
      "name": "setDollarAddress",
      "outputs": [],
      "stateMutability": "nonpayable",
      "type": "function"
    },
    {
      "inputs": [
        {
          "internalType": "address",
          "name": "_CNUSD",
          "type": "address"
        }
      ],
      "name": "setShareAddress",
      "outputs": [],
      "stateMutability": "nonpayable",
      "type": "function"
    },
    {
      "inputs": [
        {
          "internalType": "address",
          "name": "_strategist",
          "type": "address"
        }
      ],
      "name": "setStrategist",
      "outputs": [],
      "stateMutability": "nonpayable",
      "type": "function"
    },
    {
      "inputs": [
        {
          "internalType": "address",
          "name": "_vswap_router",
          "type": "address"
        },
        {
          "internalType": "address",
          "name": "_vswap_pair_share_bnb",
          "type": "address"
        },
        {
          "internalType": "address",
          "name": "_vswap_pair_bnb_busd",
          "type": "address"
        }
      ],
      "name": "setVSwapParams",
      "outputs": [],
      "stateMutability": "nonpayable",
      "type": "function"
    },
    {
      "inputs": [
        {
          "internalType": "address",
          "name": "_rebalance_pool",
          "type": "address"
        }
      ],
      "name": "setRebalancePool",
      "outputs": [],
      "stateMutability": "nonpayable",
      "type": "function"
    },
    {
      "inputs": [
        {
          "internalType": "uint256",
          "name": "_rebalance_cooldown",
          "type": "uint256"
        }
      ],
      "name": "setRebalanceCooldown",
      "outputs": [],
      "stateMutability": "nonpayable",
      "type": "function"
    },
    {
      "inputs": [
        {
          "internalType": "uint256",
          "name": "_startTime",
          "type": "uint256"
        }
      ],
      "name": "resetStartTime",
      "outputs": [],
      "stateMutability": "nonpayable",
      "type": "function"
    },
    {
      "inputs": [
        {
          "internalType": "address",
          "name": "_foundry",
          "type": "address"
        }
      ],
      "name": "setFoundry",
      "outputs": [],
      "stateMutability": "nonpayable",
      "type": "function"
    },
    {
      "inputs": [
        {
          "internalType": "uint256",
          "name": "_epoch_length",
          "type": "uint256"
        }
      ],
      "name": "setEpochLength",
      "outputs": [],
      "stateMutability": "nonpayable",
      "type": "function"
    },
    {
      "inputs": [
        {
          "internalType": "uint256",
          "name": "_excess_collateral_distributed_ratio",
          "type": "uint256"
        }
      ],
      "name": "setExcessDistributionRatio",
      "outputs": [],
      "stateMutability": "nonpayable",
      "type": "function"
    },
    {
      "inputs": [
        {
          "internalType": "address",
          "name": "target",
          "type": "address"
        },
        {
          "internalType": "uint256",
          "name": "value",
          "type": "uint256"
        },
        {
          "internalType": "string",
          "name": "signature",
          "type": "string"
        },
        {
          "internalType": "bytes",
          "name": "data",
          "type": "bytes"
        }
      ],
      "name": "executeTransaction",
      "outputs": [
        {
          "internalType": "bytes",
          "name": "",
          "type": "bytes"
        }
      ],
      "stateMutability": "nonpayable",
      "type": "function"
    }
  ],
  "bytecode": "0x6080604052600160028190556007805460ff60a01b199081169091556013805461ffff191690921790915561a8c060155560198054909116905561c350601c556000601f5534801561005057600080fd5b50600080546001600160a01b031916339081178255604051909182917f8be0079c531659141344cd1fd0a4f28419497f9722a3daafe3b4186f6b6457e0908290a350600180546001600160a01b031916339081179091556040516000907f74da04524d50c64947f5dd5381ef1a4dca5cba8ed1d816243f9e48aa0b5617ed908290a36109c4601055620f4240600d819055600e819055610e10600f55601155611388601255610fa0600a55610bb8600b556141a4806101106000396000f3fe6080604052600436106105265760003560e01c80636ae74488116102af578063af83136e11610179578063ce5494bb116100d6578063e4a301161161008a578063e9b8e0741161006f578063e9b8e07414610e27578063f2fde38b14610e47578063fc1e0c0014610e675761052d565b8063e4a3011614610df1578063e708b4ae14610e115761052d565b8063d2d97b06116100bb578063d2d97b0614610d9c578063d74d1a0e14610db1578063d914cd4b14610dd15761052d565b8063ce5494bb14610d5c578063d100e60414610d7c5761052d565b8063c094fc5b1161012d578063c5967c2611610112578063c5967c2614610d11578063c7b9d53014610d26578063cb73999f14610d465761052d565b8063c094fc5b14610cdb578063c3355b8d14610cfb5761052d565b8063bef40ec81161015e578063bef40ec814610c90578063c03f7be314610ca5578063c08f076e14610cbb5761052d565b8063af83136e14610c5a578063b16ce46014610c705761052d565b806389c614b811610227578063a4063dbc116101db578063a5d7abac116101c0578063a5d7abac14610c04578063ac4f843e14610c24578063af2d373914610c3a5761052d565b8063a4063dbc14610bbf578063a445c44514610bef5761052d565b80638de4011e1161020c5780638de4011e14610b6a578063900cf0cf14610b8a57806399af164814610b9f5761052d565b806389c614b814610b365780638da5cb5b14610b4c5761052d565b80637dbc1df01161027e57806387269729116102635780638726972914610ae157806387a140c314610af6578063894ba4b914610b105761052d565b80637dbc1df014610aa157806381ca52cf14610ac15761052d565b80636ae7448814610a40578063715018a614610a5657806378e9792514610a6b5780637cd27ca614610a815761052d565b80632988b66d116103f057806340d7b7b81161036857806353ed67fe1161031c578063570ca73511610301578063570ca735146109ed5780635b75617914610a0b5780636140133b14610a205761052d565b806353ed67fe146109b757806354eea796146109cd5761052d565b80634456eda21161034d5780634456eda214610957578063460ddf8d1461097757806346ec64a5146109975761052d565b806340d7b7b81461092c5780634231bfe1146109415761052d565b8063370158ea116103bf5780634006311b116103a45780634006311b146108e15780634013124a146108f7578063408ab10f1461090c5761052d565b8063370158ea146108715780633b7d0946146108c15761052d565b80632988b66d146107fb5780632c678c641461081a5780632cb4f63e1461083b5780632f64fb8e146108515761052d565b80631c5df1e51161049e578063238a47091161045257806328596aba1161043757806328596aba146107a6578063291878a8146107c657806329605e77146107db5761052d565b8063238a4709146107705780632853fb10146107905761052d565b80631fe4a686116104835780631fe4a686146106ff5780631ff41bfa1461071f5780632224fa25146107435761052d565b80631c5df1e5146106aa5780631f1b8a8c146106ca5761052d565b80631246dbf5116104f5578063186d9b2e116104da578063186d9b2e146106405780631a1f1934146106605780631c5b6e8d1461068a5761052d565b80631246dbf5146105d1578063158ef93e1461061f5761052d565b80630375da59146105325780630ca687dc146105545780630eef424d146105745780631189ebea146105945761052d565b3661052d57005b600080fd5b34801561053e57600080fd5b5061055261054d366004613c3e565b610e87565b005b34801561056057600080fd5b5061055261056f366004613c3e565b610f02565b34801561058057600080fd5b5061055261058f366004613c3e565b610f78565b3480156105a057600080fd5b506105b46105af366004613e2e565b6111aa565b6040516001600160a01b0390911681526020015b60405180910390f35b3480156105dd57600080fd5b5061060f6105ec366004613c3e565b6001600160a01b031660009081526009602052604090205460ff16151560011490565b60405190151581526020016105c8565b34801561062b57600080fd5b5060195461060f90600160a01b900460ff1681565b34801561064c57600080fd5b5061055261065b366004613e2e565b6111d4565b34801561066c57600080fd5b5061067561122d565b604080519283529015156020830152016105c8565b34801561069657600080fd5b506105526106a5366004613c3e565b611312565b3480156106b657600080fd5b506105526106c5366004613e2e565b611388565b3480156106d657600080fd5b506106df6113e1565b6040805194855260208501939093529183015260608201526080016105c8565b34801561070b57600080fd5b506007546105b4906001600160a01b031681565b34801561072b57600080fd5b50610735601c5481565b6040519081526020016105c8565b34801561074f57600080fd5b5061076361075e366004613cc0565b61140c565b6040516105c89190613f9e565b34801561077c57600080fd5b5061055261078b366004613e2e565b611590565b34801561079c57600080fd5b5061073560125481565b3480156107b257600080fd5b506105526107c1366004613c3e565b6115e9565b3480156107d257600080fd5b5061055261165f565b3480156107e757600080fd5b506105526107f6366004613c3e565b6116d0565b34801561080757600080fd5b5060135461060f90610100900460ff1681565b34801561082657600080fd5b5060075461060f90600160a01b900460ff1681565b34801561084757600080fd5b5061073560115481565b34801561085d57600080fd5b506014546105b4906001600160a01b031681565b34801561087d57600080fd5b50610886611736565b604080519889526020890197909752958701949094526060860192909252608085015260a084015260c083015260e0820152610100016105c8565b3480156108cd57600080fd5b506105526108dc366004613c3e565b611804565b3480156108ed57600080fd5b50610735600d5481565b34801561090357600080fd5b506105526119cf565b34801561091857600080fd5b50610552610927366004613e2e565b611b80565b34801561093857600080fd5b50610735611bd9565b34801561094d57600080fd5b50610735601e5481565b34801561096357600080fd5b506001546001600160a01b0316331461060f565b34801561098357600080fd5b50610552610992366004613e5e565b611c75565b3480156109a357600080fd5b506006546105b4906001600160a01b031681565b3480156109c357600080fd5b5061073560165481565b3480156109d957600080fd5b506105526109e8366004613e2e565b612127565b3480156109f957600080fd5b506001546001600160a01b03166105b4565b348015610a1757600080fd5b50610552612180565b348015610a2c57600080fd5b50610552610a3b366004613e2e565b6124b7565b348015610a4c57600080fd5b50610735600c5481565b348015610a6257600080fd5b50610552612510565b348015610a7757600080fd5b50610735601a5481565b348015610a8d57600080fd5b50601b546105b4906001600160a01b031681565b348015610aad57600080fd5b50610552610abc366004613e2e565b6125b4565b348015610acd57600080fd5b50610552610adc366004613e2e565b61260d565b348015610aed57600080fd5b50610735612666565b348015610b0257600080fd5b5060135461060f9060ff1681565b348015610b1c57600080fd5b506013546105b4906201000090046001600160a01b031681565b348015610b4257600080fd5b50610735601d5481565b348015610b5857600080fd5b506000546001600160a01b03166105b4565b348015610b7657600080fd5b50610552610b85366004613c3e565b6126b6565b348015610b9657600080fd5b50601f54610735565b348015610bab57600080fd5b506018546105b4906001600160a01b031681565b348015610bcb57600080fd5b5061060f610bda366004613c3e565b60096020526000908152604090205460ff1681565b348015610bfb57600080fd5b5061073561272c565b348015610c1057600080fd5b50610552610c1f366004613e2e565b612812565b348015610c3057600080fd5b5061073560105481565b348015610c4657600080fd5b50610552610c55366004613e5e565b612895565b348015610c6657600080fd5b50610735600e5481565b348015610c7c57600080fd5b506003546105b4906001600160a01b031681565b348015610c9c57600080fd5b50610552612d80565b348015610cb157600080fd5b50610735600f5481565b348015610cc757600080fd5b50610552610cd6366004613e2e565b612de8565b348015610ce757600080fd5b50610552610cf6366004613c76565b612ea3565b348015610d0757600080fd5b50610735600b5481565b348015610d1d57600080fd5b50610735612f36565b348015610d3257600080fd5b50610552610d41366004613c3e565b612f4f565b348015610d5257600080fd5b50610735600a5481565b348015610d6857600080fd5b50610552610d77366004613c3e565b612fc5565b348015610d8857600080fd5b506017546105b4906001600160a01b031681565b348015610da857600080fd5b506107356131bd565b348015610dbd57600080fd5b506004546105b4906001600160a01b031681565b348015610ddd57600080fd5b50610552610dec366004613c3e565b6132f2565b348015610dfd57600080fd5b50610552610e0c366004613e5e565b61345a565b348015610e1d57600080fd5b5061073560155481565b348015610e3357600080fd5b506019546105b4906001600160a01b031681565b348015610e5357600080fd5b50610552610e62366004613c3e565b613536565b348015610e7357600080fd5b506005546105b4906001600160a01b031681565b6001546001600160a01b03163314610ee05760405162461bcd60e51b81526020600482015260248082015260008051602061411283398151915260448201526330ba37b960e11b60648201526084015b60405180910390fd5b601b80546001600160a01b0319166001600160a01b0392909216919091179055565b6001546001600160a01b03163314610f565760405162461bcd60e51b81526020600482015260248082015260008051602061411283398151915260448201526330ba37b960e11b6064820152608401610ed7565b600380546001600160a01b0319166001600160a01b0392909216919091179055565b6001546001600160a01b03163314610fcc5760405162461bcd60e51b81526020600482015260248082015260008051602061411283398151915260448201526330ba37b960e11b6064820152608401610ed7565b6001600160a01b03811660009081526009602052604090205460ff1661101c5760405162461bcd60e51b8152602060048201526005602482015264085c1bdbdb60da1b6044820152606401610ed7565b60006001600160a01b0316816001600160a01b031663964236636040518163ffffffff1660e01b815260040160206040518083038186803b15801561106057600080fd5b505afa158015611074573d6000803e3d6000fd5b505050506040513d601f19601f820116820180604052508101906110989190613c5a565b6001600160a01b031614156110ef5760405162461bcd60e51b815260206004820152601460248201527f21706f6f6c436f6c6c61746572616c546f6b656e0000000000000000000000006044820152606401610ed7565b80601360026101000a8154816001600160a01b0302191690836001600160a01b03160217905550806001600160a01b031663964236636040518163ffffffff1660e01b815260040160206040518083038186803b15801561114f57600080fd5b505afa158015611163573d6000803e3d6000fd5b505050506040513d601f19601f820116820180604052508101906111879190613c5a565b601480546001600160a01b0319166001600160a01b039290921691909117905550565b600881815481106111ba57600080fd5b6000918252602090912001546001600160a01b0316905081565b6001546001600160a01b031633146112285760405162461bcd60e51b81526020600482015260248082015260008051602061411283398151915260448201526330ba37b960e11b6064820152608401610ed7565b601055565b600080600061123a6131bd565b905060006112dd620f42406112d7600d54600560009054906101000a90046001600160a01b03166001600160a01b03166318160ddd6040518163ffffffff1660e01b815260040160206040518083038186803b15801561129957600080fd5b505afa1580156112ad573d6000803e3d6000fd5b505050506040513d601f19601f820116820180604052508101906112d19190613e46565b90613667565b906136ae565b90508082106112fb576112f082826136c1565b93506001925061130c565b61130581836136c1565b9350600092505b50509091565b6001546001600160a01b031633146113665760405162461bcd60e51b81526020600482015260248082015260008051602061411283398151915260448201526330ba37b960e11b6064820152608401610ed7565b600680546001600160a01b0319166001600160a01b0392909216919091179055565b6001546001600160a01b031633146113dc5760405162461bcd60e51b81526020600482015260248082015260008051602061411283398151915260448201526330ba37b960e11b6064820152608401610ed7565b600f55565b6000806000806113f0601f5490565b6113f8612f36565b601e54601c54935093509350935090919293565b6001546060906001600160a01b031633146114635760405162461bcd60e51b81526020600482015260248082015260008051602061411283398151915260448201526330ba37b960e11b6064820152608401610ed7565b60608351600014156114765750816114a2565b838051906020012083604051602001611490929190613eab565b60405160208183030381529060405290505b600080876001600160a01b031687846040516114be9190613ef3565b60006040518083038185875af1925050503d80600081146114fb576040519150601f19603f3d011682016040523d82523d6000602084013e611500565b606091505b5091509150816040518060600160405280603d8152602001614132603d91399061153d5760405162461bcd60e51b8152600401610ed79190613f9e565b50876001600160a01b03167f02351f450e2fc766dda692922cd0e080a07d702d68757f2154bf686ee052be6e88888860405161157b93929190613fb1565b60405180910390a2925050505b949350505050565b6001546001600160a01b031633146115e45760405162461bcd60e51b81526020600482015260248082015260008051602061411283398151915260448201526330ba37b960e11b6064820152608401610ed7565b600b55565b6001546001600160a01b0316331461163d5760405162461bcd60e51b81526020600482015260248082015260008051602061411283398151915260448201526330ba37b960e11b6064820152608401610ed7565b600480546001600160a01b0319166001600160a01b0392909216919091179055565b6001546001600160a01b031633146116b35760405162461bcd60e51b81526020600482015260248082015260008051602061411283398151915260448201526330ba37b960e11b6064820152608401610ed7565b6013805461ff001981166101009182900460ff1615909102179055565b6000546001600160a01b0316331461172a5760405162461bcd60e51b815260206004820181905260248201527f4f776e61626c653a2063616c6c6572206973206e6f7420746865206f776e65726044820152606401610ed7565b611733816136eb565b50565b60008060008060008060008061174a611bd9565b611752612666565b600560009054906101000a90046001600160a01b03166001600160a01b03166318160ddd6040518163ffffffff1660e01b815260040160206040518083038186803b1580156117a057600080fd5b505afa1580156117b4573d6000803e3d6000fd5b505050506040513d601f19601f820116820180604052508101906117d89190613e46565b600d54600e546117e66131bd565b600b54600a54969f959e50939c50919a509850965094509092509050565b6001546001600160a01b031633146118585760405162461bcd60e51b81526020600482015260248082015260008051602061411283398151915260448201526330ba37b960e11b6064820152608401610ed7565b600754600160a01b900460ff161561189d5760405162461bcd60e51b81526020600482015260086024820152671b5a59dc985d195960c21b6044820152606401610ed7565b6001600160a01b03811660009081526009602052604090205460ff1615156001146118f25760405162461bcd60e51b8152602060048201526005602482015264085c1bdbdb60da1b6044820152606401610ed7565b6001600160a01b0381166000908152600960205260408120805460ff191690555b6008548110156119cb57816001600160a01b03166008828154811061194857634e487b7160e01b600052603260045260246000fd5b6000918252602090912001546001600160a01b031614156119b95760006008828154811061198657634e487b7160e01b600052603260045260246000fd5b9060005260206000200160006101000a8154816001600160a01b0302191690836001600160a01b031602179055506119cb565b806119c3816140b5565b915050611913565b5050565b60135460ff1615611a225760405162461bcd60e51b815260206004820181905260248201527f436f6c6c61746572616c20526174696f20686173206265656e207061757365646044820152606401610ed7565b600f54600c54611a32904261406e565b1015611aa65760405162461bcd60e51b815260206004820152603560248201527f4d757374207761697420666f7220746865207265667265736820636f6f6c646f60448201527f776e2073696e6365206c617374207265667265736800000000000000000000006064820152608401610ed7565b6000611ab0611bd9565b9050611ac96012546011546137bf90919063ffffffff16565b811115611afd57601054600d5411611ae5576000600d55611af8565b601054600d54611af4916136c1565b600d555b611b52565b601254601154611b0c916136c1565b811015611b5257620f4240611b2e601054600d546137bf90919063ffffffff16565b10611b3f57620f4240600d55611b52565b601054600d54611b4e916137bf565b600d555b601354610100900460ff1615611b7257611b6a61272c565b600e55611b79565b600d54600e555b5042600c55565b6001546001600160a01b03163314611bd45760405162461bcd60e51b81526020600482015260248082015260008051602061411283398151915260448201526330ba37b960e11b6064820152608401610ed7565b601155565b600354604080517f7eeda70300000000000000000000000000000000000000000000000000000000815290516000926001600160a01b031691637eeda703916004808301926020929190829003018186803b158015611c3757600080fd5b505afa158015611c4b573d6000803e3d6000fd5b505050506040513d601f19601f82011682018060405250810190611c6f9190613e46565b90505b90565b6007546001600160a01b03163314611cbd5760405162461bcd60e51b815260206004820152600b60248201526a085cdd1c985d1959da5cdd60aa1b6044820152606401610ed7565b600754600160a01b900460ff1615611d025760405162461bcd60e51b81526020600482015260086024820152671b5a59dc985d195960c21b6044820152606401610ed7565b6013546201000090046001600160a01b0316611d605760405162461bcd60e51b815260206004820152601060248201527f21726562616c616e63696e67506f6f6c000000000000000000000000000000006044820152606401610ed7565b6014546001600160a01b0316611db85760405162461bcd60e51b815260206004820152601a60248201527f21726562616c616e63696e67506f6f6c436f6c6c61746572616c0000000000006044820152606401610ed7565b601554601654429190611dcb908361406e565b1015611e195760405162461bcd60e51b815260206004820152601360248201527f3c726562616c616e63655f636f6f6c646f776e000000000000000000000000006044820152606401610ed7565b600080611e2461122d565b91509150808015611e355750600082115b611e815760405162461bcd60e51b815260206004820152600960248201527f21657863656564656400000000000000000000000000000000000000000000006044820152606401610ed7565b600085118015611e9057508185105b611edc5760405162461bcd60e51b815260206004820152601760248201527f696e76616c6964436f6c6c61746572616c416d6f756e740000000000000000006044820152606401610ed7565b6000601360029054906101000a90046001600160a01b03166001600160a01b031663f7683bbc6040518163ffffffff1660e01b815260040160206040518083038186803b158015611f2c57600080fd5b505afa158015611f40573d6000803e3d6000fd5b505050506040513d601f19601f82011682018060405250810190611f649190613e46565b90506000611f79826112d789620f4240613667565b6014546013546040516370a0823160e01b81526001600160a01b03620100009092048216600482015292935083929116906370a082319060240160206040518083038186803b158015611fcb57600080fd5b505afa158015611fdf573d6000803e3d6000fd5b505050506040513d601f19601f820116820180604052508101906120039190613e46565b116120505760405162461bcd60e51b815260206004820152601660248201527f696e737566666963656e74506f6f6c42616c616e6365000000000000000000006044820152606401610ed7565b601354604051631bc79abb60e11b815260048101839052620100009091046001600160a01b03169063378f357690602401600060405180830381600087803b15801561209b57600080fd5b505af11580156120af573d6000803e3d6000fd5b5050601454600654600093506120d492506001600160a01b039182169116848a6137eb565b604080518a8152602081018590529081018290529091507f08a6192ba3cf7155035aa0abade6c318265a34f2950e84eaff743d1231888f959060600160405180910390a150505060169290925550505050565b6001546001600160a01b0316331461217b5760405162461bcd60e51b81526020600482015260248082015260008051602061411283398151915260448201526330ba37b960e11b6064820152608401610ed7565b601e55565b6001600260008282546121939190614017565b9091555050600254600754600160a01b900460ff16156121f55760405162461bcd60e51b815260206004820152601260248201527f54726561737572793a206d6967726174656400000000000000000000000000006044820152606401610ed7565b601a544210156122475760405162461bcd60e51b815260206004820152601960248201527f54726561737572793a206e6f74207374617274656420796574000000000000006044820152606401610ed7565b6000612251612f36565b9050804210156122a35760405162461bcd60e51b815260206004820152601860248201527f54726561737572793a206e6f74206f70656e65642079657400000000000000006044820152606401610ed7565b6000806122ae61122d565b915091506000811561248f576122d6620f42406112d7601c548661366790919063ffffffff16565b90506000601360029054906101000a90046001600160a01b03166001600160a01b031663f7683bbc6040518163ffffffff1660e01b815260040160206040518083038186803b15801561232857600080fd5b505afa15801561233c573d6000803e3d6000fd5b505050506040513d601f19601f820116820180604052508101906123609190613e46565b90506000612375826112d785620f4240613667565b601354604051631bc79abb60e11b8152600481018390529192506201000090046001600160a01b03169063378f357690602401600060405180830381600087803b1580156123c257600080fd5b505af11580156123d6573d6000803e3d6000fd5b5050601b546014546123f893506001600160a01b039081169250166000613af3565b601b54601454612415916001600160a01b03918216911683613af3565b601b546040517f97ffe1d7000000000000000000000000000000000000000000000000000000008152600481018390526001600160a01b03909116906397ffe1d790602401600060405180830381600087803b15801561247457600080fd5b505af1158015612488573d6000803e3d6000fd5b5050505050505b505050601d819055601f546124a59060016137bf565b601f5550600254811461173357600080fd5b6001546001600160a01b0316331461250b5760405162461bcd60e51b81526020600482015260248082015260008051602061411283398151915260448201526330ba37b960e11b6064820152608401610ed7565b601255565b6000546001600160a01b0316331461256a5760405162461bcd60e51b815260206004820181905260248201527f4f776e61626c653a2063616c6c6572206973206e6f7420746865206f776e65726044820152606401610ed7565b600080546040516001600160a01b03909116907f8be0079c531659141344cd1fd0a4f28419497f9722a3daafe3b4186f6b6457e0908390a3600080546001600160a01b0319169055565b6001546001600160a01b031633146126085760405162461bcd60e51b81526020600482015260248082015260008051602061411283398151915260448201526330ba37b960e11b6064820152608401610ed7565b600a55565b6001546001600160a01b031633146126615760405162461bcd60e51b81526020600482015260248082015260008051602061411283398151915260448201526330ba37b960e11b6064820152608401610ed7565b601555565b6000600460009054906101000a90046001600160a01b03166001600160a01b0316637eeda7036040518163ffffffff1660e01b815260040160206040518083038186803b158015611c3757600080fd5b6001546001600160a01b0316331461270a5760405162461bcd60e51b81526020600482015260248082015260008051602061411283398151915260448201526330ba37b960e11b6064820152608401610ed7565b600580546001600160a01b0319166001600160a01b0392909216919091179055565b601354600090610100900460ff166127475750600d54611c72565b60006127516131bd565b90506000600560009054906101000a90046001600160a01b03166001600160a01b03166318160ddd6040518163ffffffff1660e01b815260040160206040518083038186803b1580156127a357600080fd5b505afa1580156127b7573d6000803e3d6000fd5b505050506040513d601f19601f820116820180604052508101906127db9190613e46565b905060006127f0826112d785620f4240613667565b9050620f424081111561280b57620f42409350505050611c72565b9250505090565b6007546001600160a01b03163314806128445750336128396001546001600160a01b031690565b6001600160a01b0316145b6128905760405162461bcd60e51b815260206004820152601660248201527f21737472617465676973742626216f70657261746f72000000000000000000006044820152606401610ed7565b601c55565b6007546001600160a01b031633146128dd5760405162461bcd60e51b815260206004820152600b60248201526a085cdd1c985d1959da5cdd60aa1b6044820152606401610ed7565b600754600160a01b900460ff16156129225760405162461bcd60e51b81526020600482015260086024820152671b5a59dc985d195960c21b6044820152606401610ed7565b6013546201000090046001600160a01b03166129805760405162461bcd60e51b815260206004820152601060248201527f21726562616c616e63696e67506f6f6c000000000000000000000000000000006044820152606401610ed7565b6014546001600160a01b03166129d85760405162461bcd60e51b815260206004820152601a60248201527f21726562616c616e63696e67506f6f6c436f6c6c61746572616c0000000000006044820152606401610ed7565b6015546016544291906129eb908361406e565b1015612a395760405162461bcd60e51b815260206004820152601360248201527f3c726562616c616e63655f636f6f6c646f776e000000000000000000000000006044820152606401610ed7565b600080612a4461122d565b9150915080158015612a565750600082115b612aa25760405162461bcd60e51b815260206004820152600860248201527f65786365656465640000000000000000000000000000000000000000000000006044820152606401610ed7565b81841115612af25760405162461bcd60e51b815260206004820152600860248201527f3e646566696369740000000000000000000000000000000000000000000000006044820152606401610ed7565b6006546040516370a0823160e01b81523060048201526000916001600160a01b0316906370a082319060240160206040518083038186803b158015612b3657600080fd5b505afa158015612b4a573d6000803e3d6000fd5b505050506040513d601f19601f82011682018060405250810190612b6e9190613e46565b905080861115612bc05760405162461bcd60e51b815260206004820152600d60248201527f3e736861726542616c616e6365000000000000000000000000000000000000006044820152606401610ed7565b600654601454600091612be1916001600160a01b03918216911689896137eb565b6014546040516370a0823160e01b81523060048201529192506000916001600160a01b03909116906370a082319060240160206040518083038186803b158015612c2a57600080fd5b505afa158015612c3e573d6000803e3d6000fd5b505050506040513d601f19601f82011682018060405250810190612c629190613e46565b90508015612c8e57601354601454612c8e916001600160a01b0391821691620100009091041683613b98565b6000601360029054906101000a90046001600160a01b03166001600160a01b031663f7683bbc6040518163ffffffff1660e01b815260040160206040518083038186803b158015612cde57600080fd5b505afa158015612cf2573d6000803e3d6000fd5b505050506040513d601f19601f82011682018060405250810190612d169190613e46565b90506000612d2b620f42406112d78685613667565b604080518c8152602081018790529081018290529091507fa2f547fe4fa01671ec43d126d393c239e285ccfc633822b6413c5f474a73c1ac9060600160405180910390a1505050601694909455505050505050565b6001546001600160a01b03163314612dd45760405162461bcd60e51b81526020600482015260248082015260008051602061411283398151915260448201526330ba37b960e11b6064820152608401610ed7565b6013805460ff19811660ff90911615179055565b6001546001600160a01b03163314612e3c5760405162461bcd60e51b81526020600482015260248082015260008051602061411283398151915260448201526330ba37b960e11b6064820152608401610ed7565b601f5415612e8c5760405162461bcd60e51b815260206004820152600f60248201527f616c7265616479207374617274656400000000000000000000000000000000006044820152606401610ed7565b601a819055612e9d816170806136c1565b601d5550565b6001546001600160a01b03163314612ef75760405162461bcd60e51b81526020600482015260248082015260008051602061411283398151915260448201526330ba37b960e11b6064820152608401610ed7565b601780546001600160a01b039485166001600160a01b031991821617909155601980549385169382169390931790925560188054919093169116179055565b6000611c6f601e54601d546137bf90919063ffffffff16565b6001546001600160a01b03163314612fa35760405162461bcd60e51b81526020600482015260248082015260008051602061411283398151915260448201526330ba37b960e11b6064820152608401610ed7565b600780546001600160a01b0319166001600160a01b0392909216919091179055565b6001546001600160a01b031633146130195760405162461bcd60e51b81526020600482015260248082015260008051602061411283398151915260448201526330ba37b960e11b6064820152608401610ed7565b600754600160a01b900460ff161561305e5760405162461bcd60e51b81526020600482015260086024820152671b5a59dc985d195960c21b6044820152606401610ed7565b6007805460ff60a01b1916600160a01b1790556006546040516370a0823160e01b81523060048201526000916001600160a01b0316906370a082319060240160206040518083038186803b1580156130b557600080fd5b505afa1580156130c9573d6000803e3d6000fd5b505050506040513d601f19601f820116820180604052508101906130ed9190613e46565b9050801561310c5760065461310c906001600160a01b03168383613b98565b6014546001600160a01b0316156119cb576014546040516370a0823160e01b81523060048201526000916001600160a01b0316906370a082319060240160206040518083038186803b15801561316157600080fd5b505afa158015613175573d6000803e3d6000fd5b505050506040513d601f19601f820116820180604052508101906131999190613e46565b905080156131b8576014546131b8906001600160a01b03168483613b98565b505050565b600080805b6008548110156132ec5760006001600160a01b0316600882815481106131f857634e487b7160e01b600052603260045260246000fd5b6000918252602090912001546001600160a01b0316146132da576132d76008828154811061323657634e487b7160e01b600052603260045260246000fd5b60009182526020918290200154604080517f9c84d0f500000000000000000000000000000000000000000000000000000000815290516001600160a01b0390921692639c84d0f592600480840193829003018186803b15801561329857600080fd5b505afa1580156132ac573d6000803e3d6000fd5b505050506040513d601f19601f820116820180604052508101906132d09190613e46565b83906137bf565b91505b806132e4816140b5565b9150506131c2565b50905090565b6001546001600160a01b031633146133465760405162461bcd60e51b81526020600482015260248082015260008051602061411283398151915260448201526330ba37b960e11b6064820152608401610ed7565b600754600160a01b900460ff161561338b5760405162461bcd60e51b81526020600482015260086024820152671b5a59dc985d195960c21b6044820152606401610ed7565b6001600160a01b03811660009081526009602052604090205460ff16156133f45760405162461bcd60e51b815260206004820152600b60248201527f706f6f6c457869737465640000000000000000000000000000000000000000006044820152606401610ed7565b6001600160a01b03166000818152600960205260408120805460ff191660019081179091556008805491820181559091527ff3f7a9fe364faab93b216da50a3214154f22a0a2b415b23a84c8169e8b636ee30180546001600160a01b0319169091179055565b6001546001600160a01b031633146134ae5760405162461bcd60e51b81526020600482015260248082015260008051602061411283398151915260448201526330ba37b960e11b6064820152608401610ed7565b601954600160a01b900460ff16156135085760405162461bcd60e51b815260206004820152601260248201527f616c7265616479496e697469616c697a656400000000000000000000000000006044820152606401610ed7565b601a829055601e81905561351c82826136c1565b601d5550506019805460ff60a01b1916600160a01b179055565b6000546001600160a01b031633146135905760405162461bcd60e51b815260206004820181905260248201527f4f776e61626c653a2063616c6c6572206973206e6f7420746865206f776e65726044820152606401610ed7565b6001600160a01b03811661360c5760405162461bcd60e51b815260206004820152602660248201527f4f776e61626c653a206e6577206f776e657220697320746865207a65726f206160448201527f64647265737300000000000000000000000000000000000000000000000000006064820152608401610ed7565b600080546040516001600160a01b03808516939216917f8be0079c531659141344cd1fd0a4f28419497f9722a3daafe3b4186f6b6457e091a3600080546001600160a01b0319166001600160a01b0392909216919091179055565b600082613676575060006136a8565b613680828461404f565b90508161368d848361402f565b146136a857634e487b7160e01b600052600160045260246000fd5b92915050565b60006136ba828461402f565b9392505050565b6000828211156136e157634e487b7160e01b600052600160045260246000fd5b6136ba828461406e565b6001600160a01b0381166137675760405162461bcd60e51b815260206004820152602d60248201527f6f70657261746f723a207a65726f206164647265737320676976656e20666f7260448201527f206e6577206f70657261746f72000000000000000000000000000000000000006064820152608401610ed7565b6040516001600160a01b038216906000907f74da04524d50c64947f5dd5381ef1a4dca5cba8ed1d816243f9e48aa0b5617ed908290a3600180546001600160a01b0319166001600160a01b0392909216919091179055565b60006137cb8284614017565b9050828110156136a857634e487b7160e01b600052600160045260246000fd5b6017546000906001600160a01b03161580159061381257506019546001600160a01b031615155b801561382857506018546001600160a01b031615155b6138745760405162461bcd60e51b815260206004820152600660248201527f21767377617000000000000000000000000000000000000000000000000000006044820152606401610ed7565b8261388157506000611588565b604080516002808252606082018352600092602083019080368337019050506006549091506001600160a01b038781169116141561394d5760195481516001600160a01b039091169082906000906138e957634e487b7160e01b600052603260045260246000fd5b6001600160a01b03928316602091820292909201015260185482519116908290600190811061392857634e487b7160e01b600052603260045260246000fd5b60200260200101906001600160a01b031690816001600160a01b0316815250506139dd565b60185481516001600160a01b0390911690829060009061397d57634e487b7160e01b600052603260045260246000fd5b6001600160a01b0392831660209182029290920101526019548251911690829060019081106139bc57634e487b7160e01b600052603260045260246000fd5b60200260200101906001600160a01b031690816001600160a01b0316815250505b6017546139f8906001600160a01b0388811691166000613af3565b601754613a12906001600160a01b03888116911686613af3565b6017546000906001600160a01b031663bff51d71888888888730613a38426107086137bf565b6040518863ffffffff1660e01b8152600401613a5a9796959493929190613f0f565b600060405180830381600087803b158015613a7457600080fd5b505af1158015613a88573d6000803e3d6000fd5b505050506040513d6000823e601f3d908101601f19168201604052613ab09190810190613d66565b90508060018251613ac1919061406e565b81518110613adf57634e487b7160e01b600052603260045260246000fd5b602002602001015192505050949350505050565b6040517f095ea7b30000000000000000000000000000000000000000000000000000000081526001600160a01b0383811660048301526024820183905284169063095ea7b3906044015b602060405180830381600087803b158015613b5757600080fd5b505af1158015613b6b573d6000803e3d6000fd5b505050506040513d601f19601f82011682018060405250810190613b8f9190613e0e565b6131b857600080fd5b6040517fa9059cbb0000000000000000000000000000000000000000000000000000000081526001600160a01b0383811660048301526024820183905284169063a9059cbb90604401613b3d565b600067ffffffffffffffff831115613c0057613c006140e6565b613c13601f8401601f1916602001613fe6565b9050828152838383011115613c2757600080fd5b828260208301376000602084830101529392505050565b600060208284031215613c4f578081fd5b81356136ba816140fc565b600060208284031215613c6b578081fd5b81516136ba816140fc565b600080600060608486031215613c8a578182fd5b8335613c95816140fc565b92506020840135613ca5816140fc565b91506040840135613cb5816140fc565b809150509250925092565b60008060008060808587031215613cd5578081fd5b8435613ce0816140fc565b935060208501359250604085013567ffffffffffffffff80821115613d03578283fd5b818701915087601f830112613d16578283fd5b613d2588833560208501613be6565b93506060870135915080821115613d3a578283fd5b508501601f81018713613d4b578182fd5b613d5a87823560208401613be6565b91505092959194509250565b60006020808385031215613d78578182fd5b825167ffffffffffffffff80821115613d8f578384fd5b818501915085601f830112613da2578384fd5b815181811115613db457613db46140e6565b8060051b9150613dc5848301613fe6565b8181528481019084860184860187018a1015613ddf578788fd5b8795505b83861015613e01578051835260019590950194918601918601613de3565b5098975050505050505050565b600060208284031215613e1f578081fd5b815180151581146136ba578182fd5b600060208284031215613e3f578081fd5b5035919050565b600060208284031215613e57578081fd5b5051919050565b60008060408385031215613e70578182fd5b50508035926020909101359150565b60008151808452613e97816020860160208601614085565b601f01601f19169290920160200192915050565b60007fffffffff00000000000000000000000000000000000000000000000000000000841682528251613ee5816004850160208701614085565b919091016004019392505050565b60008251613f05818460208701614085565b9190910192915050565b600060e082016001600160a01b03808b1684526020818b168186015289604086015288606086015260e0608086015282885180855261010087019150828a019450855b81811015613f70578551851683529483019491830191600101613f52565b50506001600160a01b03881660a08701529350613f8c92505050565b8260c083015298975050505050505050565b6000602082526136ba6020830184613e7f565b600084825260606020830152613fca6060830185613e7f565b8281036040840152613fdc8185613e7f565b9695505050505050565b604051601f8201601f1916810167ffffffffffffffff8111828210171561400f5761400f6140e6565b604052919050565b6000821982111561402a5761402a6140d0565b500190565b60008261404a57634e487b7160e01b81526012600452602481fd5b500490565b6000816000190483118215151615614069576140696140d0565b500290565b600082821015614080576140806140d0565b500390565b60005b838110156140a0578181015183820152602001614088565b838111156140af576000848401525b50505050565b60006000198214156140c9576140c96140d0565b5060010190565b634e487b7160e01b600052601160045260246000fd5b634e487b7160e01b600052604160045260246000fd5b6001600160a01b038116811461173357600080fdfe6f70657261746f723a2063616c6c6572206973206e6f7420746865206f70657254726561737572793a3a657865637574655472616e73616374696f6e3a205472616e73616374696f6e20657865637574696f6e2072657665727465642ea26469706673582212208bf5a853d2cbfc7b711d1601e36fa40f178d765871c665b1fbfe3897927a3e5d64736f6c63430008030033",
  "immutableReferences": {},
  "source": "// SPDX-License-Identifier: MIT\r\n\r\npragma solidity ^0.8.0;\r\npragma experimental ABIEncoderV2;\r\n\r\nimport \"./openZeppelin/SafeMath.sol\";\r\nimport \"./openZeppelin/IERC20.sol\";\r\nimport \"./openZeppelin/SafeERC20.sol\";\r\nimport \"./openZeppelin/Context.sol\";\r\nimport \"./openZeppelin/ReentrancyGuard.sol\";\r\n\r\n// import \"./ERC20Custom.sol\";\r\nimport \"./interfaces/ITreasury.sol\";\r\nimport \"./interfaces/IOracle.sol\";\r\nimport \"./interfaces/IPool.sol\";\r\nimport \"./interfaces/IFoundry.sol\";\r\nimport \"./interfaces/IValueLiquidRouter.sol\";\r\nimport \"./Operator.sol\";\r\n\r\ncontract TreasuryAGOUSD is ITreasury, Operator, ReentrancyGuard {\r\n    using SafeMath for uint256;\r\n    using SafeERC20 for IERC20;\r\n\r\n    address public oracleDollar;\r\n    address public oracleShare;\r\n\r\n    address public AGOUSD;\r\n    address public CNUSD;\r\n    address public strategist;\r\n\r\n    bool public migrated = false;\r\n\r\n    // pools\r\n    address[] public pools_array;\r\n    mapping(address => bool) public pools;\r\n\r\n    // Constants for various precisions\r\n    uint256 private constant PRICE_PRECISION = 1e6;\r\n    uint256 private constant RATIO_PRECISION = 1e6;\r\n\r\n    // fees\r\n    uint256 public redemption_fee; // 6 decimals of precision\r\n    uint256 public minting_fee; // 6 decimals of precision\r\n\r\n    // collateral_ratio\r\n    uint256 public last_refresh_cr_timestamp;\r\n    uint256 public target_collateral_ratio; // 6 decimals of precision\r\n    uint256 public effective_collateral_ratio; // 6 decimals of precision\r\n    uint256 public refresh_cooldown; // Seconds to wait before being able to run refreshCollateralRatio() again\r\n    uint256 public ratio_step; // Amount to change the collateralization ratio by upon refreshCollateralRatio()\r\n    uint256 public price_target; // The price of AGOUSD at which the collateral ratio will respond to; this value is only used for the collateral ratio mechanism and not for minting and redeeming which are hardcoded at $1\r\n    uint256 public price_band; // The bound above and below the price target at which the Collateral ratio is allowed to drop\r\n    bool public collateral_ratio_paused = true; // during bootstraping phase, collateral_ratio will be fixed at 100%\r\n    bool public using_effective_collateral_ratio = false; // toggle the effective collateral ratio usage\r\n    uint256 private constant COLLATERAL_RATIO_MAX = 1e6;\r\n\r\n    // rebalance\r\n    address public rebalancing_pool;\r\n    address public rebalancing_pool_collateral;\r\n    uint256 public rebalance_cooldown = 12 hours;\r\n    uint256 public last_rebalance_timestamp;\r\n\r\n    // vswap\r\n    address public vswap_router;\r\n    address public vswap_pair_bnb_busd;\r\n    address public vswap_pair_share_bnb;\r\n\r\n    // foundry\r\n    bool public initialized = false;\r\n    uint256 public startTime;\r\n    address public foundry;\r\n    uint256 public excess_collateral_distributed_ratio = 50000; // 5% per epoch\r\n    uint256 public lastEpochTime;\r\n    uint256 public epoch_length;\r\n    uint256 private _epoch = 0;\r\n\r\n    /* ========== MODIFIERS ========== */\r\n\r\n    modifier onlyStrategist() {\r\n        require(strategist == msg.sender, \"!strategist\");\r\n        _;\r\n    }\r\n\r\n    modifier onlyStrategistOrOperator() {\r\n        require(strategist == msg.sender || operator() == msg.sender, \"!strategist&&!operator\");\r\n        _;\r\n    }\r\n\r\n    modifier notMigrated() {\r\n        require(migrated == false, \"migrated\");\r\n        _;\r\n    }\r\n\r\n    modifier hasRebalancePool() {\r\n        require(rebalancing_pool != address(0), \"!rebalancingPool\");\r\n        require(rebalancing_pool_collateral != address(0), \"!rebalancingPoolCollateral\");\r\n        _;\r\n    }\r\n\r\n    modifier checkCondition {\r\n        require(!migrated, \"Treasury: migrated\");\r\n        require(block.timestamp >= startTime, \"Treasury: not started yet\");\r\n        _;\r\n    }\r\n\r\n    modifier checkRebalanceCooldown() {\r\n        uint256 _blockTimestamp = block.timestamp;\r\n        require(_blockTimestamp - last_rebalance_timestamp >= rebalance_cooldown, \"<rebalance_cooldown\");\r\n        _;\r\n        last_rebalance_timestamp = _blockTimestamp;\r\n    }\r\n\r\n    modifier checkEpoch {\r\n        uint256 _nextEpochPoint = nextEpochPoint();\r\n        require(block.timestamp >= _nextEpochPoint, \"Treasury: not opened yet\");\r\n        _;\r\n        lastEpochTime = _nextEpochPoint;\r\n        _epoch = _epoch.add(1);\r\n    }\r\n\r\n    /* ========== EVENTS ============= */\r\n    event TransactionExecuted(address indexed target, uint256 value, string signature, bytes data);\r\n    event BoughtBack(uint256 collateral_value, uint256 collateral_amount, uint256 output_share_amount);\r\n    event Recollateralized(uint256 share_amount, uint256 output_collateral_amount, uint256 output_collateral_value);\r\n\r\n    /* ========== CONSTRUCTOR ========== */\r\n\r\n    constructor(){\r\n        ratio_step = 2500; // = 0.25% at 6 decimals of precision\r\n        target_collateral_ratio = 1000000; // = 100% - fully collateralized at start\r\n        effective_collateral_ratio = 1000000; // = 100% - fully collateralized at start\r\n        refresh_cooldown = 3600; // Refresh cooldown period is set to 1 hour (3600 seconds) at genesis\r\n        price_target = 1000000; // = $1. (6 decimals of precision). Collateral ratio will adjust according to the $1 price target at genesis\r\n        price_band = 5000;\r\n        redemption_fee = 4000;\r\n        minting_fee = 3000;\r\n    }\r\n\r\n    function initialize(uint256 _startTime, uint256 _epoch_length) external onlyOperator {\r\n        require(initialized == false, \"alreadyInitialized\");\r\n        startTime = _startTime;\r\n        epoch_length = _epoch_length;\r\n        lastEpochTime = _startTime.sub(epoch_length);\r\n        initialized = true;\r\n    }\r\n\r\n    /* ========== VIEWS ========== */\r\n\r\n    function dollarPrice() public view returns (uint256) {\r\n        return IOracle(oracleDollar).consult();\r\n    }\r\n\r\n    function sharePrice() public view returns (uint256) {\r\n        return IOracle(oracleShare).consult();\r\n    }\r\n\r\n    function hasPool(address _address) external view override returns (bool) {\r\n        return pools[_address] == true;\r\n    }\r\n\r\n    function nextEpochPoint() public view override returns (uint256) {\r\n        return lastEpochTime.add(epoch_length);\r\n    }\r\n\r\n    function epoch() public view override returns (uint256) {\r\n        return _epoch;\r\n    }\r\n\r\n    function info()\r\n        external\r\n        view\r\n        override\r\n        returns (\r\n            uint256,\r\n            uint256,\r\n            uint256,\r\n            uint256,\r\n            uint256,\r\n            uint256,\r\n            uint256,\r\n            uint256\r\n        )\r\n    {\r\n        return (dollarPrice(), sharePrice(), IERC20(AGOUSD).totalSupply(), target_collateral_ratio, effective_collateral_ratio, globalCollateralValue(), minting_fee, redemption_fee);\r\n    }\r\n\r\n    function epochInfo()\r\n        external\r\n        view\r\n        override\r\n        returns (\r\n            uint256,\r\n            uint256,\r\n            uint256,\r\n            uint256\r\n        )\r\n    {\r\n        return (epoch(), nextEpochPoint(), epoch_length, excess_collateral_distributed_ratio);\r\n    }\r\n\r\n    // Iterate through all pools and calculate all value of collateral in all pools globally\r\n    function globalCollateralValue() public view returns (uint256) {\r\n        uint256 total_collateral_value = 0;\r\n        for (uint256 i = 0; i < pools_array.length; i++) {\r\n            // Exclude null addresses\r\n            if (pools_array[i] != address(0)) {\r\n                total_collateral_value = total_collateral_value.add(IPool(pools_array[i]).collateralDollarBalance());\r\n            }\r\n        }\r\n        return total_collateral_value;\r\n    }\r\n\r\n    function calcEffectiveCollateralRatio() public view returns (uint256) {\r\n        if (!using_effective_collateral_ratio) {\r\n            return target_collateral_ratio;\r\n        }\r\n        uint256 total_collateral_value = globalCollateralValue();\r\n        uint256 total_supply_dollar = IERC20(AGOUSD).totalSupply();\r\n        uint256 ecr = total_collateral_value.mul(PRICE_PRECISION).div(total_supply_dollar);\r\n        if (ecr > COLLATERAL_RATIO_MAX) {\r\n            return COLLATERAL_RATIO_MAX;\r\n        }\r\n        return ecr;\r\n    }\r\n\r\n    /* ========== PUBLIC FUNCTIONS ========== */\r\n\r\n    function refreshCollateralRatio() public {\r\n        require(collateral_ratio_paused == false, \"Collateral Ratio has been paused\");\r\n        require(block.timestamp - last_refresh_cr_timestamp >= refresh_cooldown, \"Must wait for the refresh cooldown since last refresh\");\r\n\r\n        uint256 current_dollar_price = dollarPrice();\r\n\r\n        // Step increments are 0.25% (upon genesis, changable by setRatioStep())\r\n        if (current_dollar_price > price_target.add(price_band)) {\r\n            // decrease collateral ratio\r\n            if (target_collateral_ratio <= ratio_step) {\r\n                // if within a step of 0, go to 0\r\n                target_collateral_ratio = 0;\r\n            } else {\r\n                target_collateral_ratio = target_collateral_ratio.sub(ratio_step);\r\n            }\r\n        }\r\n        // IRON price is below $1 - `price_band`. Need to increase `collateral_ratio`\r\n        else if (current_dollar_price < price_target.sub(price_band)) {\r\n            // increase collateral ratio\r\n            if (target_collateral_ratio.add(ratio_step) >= COLLATERAL_RATIO_MAX) {\r\n                target_collateral_ratio = COLLATERAL_RATIO_MAX; // cap collateral ratio at 1.000000\r\n            } else {\r\n                target_collateral_ratio = target_collateral_ratio.add(ratio_step);\r\n            }\r\n        }\r\n\r\n        // If using ECR, then calcECR. If not, update ECR = TCR\r\n        if (using_effective_collateral_ratio) {\r\n            effective_collateral_ratio = calcEffectiveCollateralRatio();\r\n        } else {\r\n            effective_collateral_ratio = target_collateral_ratio;\r\n        }\r\n\r\n        last_refresh_cr_timestamp = block.timestamp;\r\n    }\r\n\r\n    // Check if the protocol is over- or under-collateralized, by how much\r\n    function calcCollateralBalance() public view returns (uint256 _collateral_value, bool _exceeded) {\r\n        uint256 total_collateral_value = globalCollateralValue();\r\n        uint256 target_collateral_value = IERC20(AGOUSD).totalSupply().mul(target_collateral_ratio).div(PRICE_PRECISION);\r\n        if (total_collateral_value >= target_collateral_value) {\r\n            _collateral_value = total_collateral_value.sub(target_collateral_value);\r\n            _exceeded = true;\r\n        } else {\r\n            _collateral_value = target_collateral_value.sub(total_collateral_value);\r\n            _exceeded = false;\r\n        }\r\n    }\r\n\r\n    /* -========= INTERNAL FUNCTIONS ============ */\r\n\r\n    // SWAP tokens using vSwap\r\n    function _swap(\r\n        address _input_token,\r\n        address _output_token,\r\n        uint256 _input_amount,\r\n        uint256 _min_output_amount\r\n    ) internal returns (uint256) {\r\n        require(vswap_router != address(0) && vswap_pair_share_bnb != address(0) && vswap_pair_bnb_busd != address(0), \"!vswap\");\r\n        if (_input_amount == 0) return 0;\r\n        address[] memory _path = new address[](2);\r\n        if (_input_token == CNUSD) {\r\n            _path[0] = vswap_pair_share_bnb;\r\n            _path[1] = vswap_pair_bnb_busd;\r\n        } else {\r\n            _path[0] = vswap_pair_bnb_busd;\r\n            _path[1] = vswap_pair_share_bnb;\r\n        }\r\n        IERC20(_input_token).safeApprove(vswap_router, 0);\r\n        IERC20(_input_token).safeApprove(vswap_router, _input_amount);\r\n        uint256[] memory out_amounts = IValueLiquidRouter(vswap_router).swapExactTokensForTokens(_input_token, _output_token, _input_amount, _min_output_amount, _path, address(this), block.timestamp.add(1800));\r\n        return out_amounts[out_amounts.length - 1];\r\n    }\r\n\r\n    /* ========== RESTRICTED FUNCTIONS ========== */\r\n\r\n    // Add new Pool\r\n    function addPool(address pool_address) public onlyOperator notMigrated {\r\n        require(pools[pool_address] == false, \"poolExisted\");\r\n        pools[pool_address] = true;\r\n        pools_array.push(pool_address);\r\n    }\r\n\r\n    // Remove a pool\r\n    function removePool(address pool_address) public onlyOperator notMigrated {\r\n        require(pools[pool_address] == true, \"!pool\");\r\n        // Delete from the mapping\r\n        delete pools[pool_address];\r\n        // 'Delete' from the array by setting the address to 0x0\r\n        for (uint256 i = 0; i < pools_array.length; i++) {\r\n            if (pools_array[i] == pool_address) {\r\n                pools_array[i] = address(0); // This will leave a null in the array and keep the indices the same\r\n                break;\r\n            }\r\n        }\r\n    }\r\n\r\n    // SINGLE POOL STRATEGY\r\n    // With Treasury v1, we will only utilize collateral from a single pool to do rebalancing\r\n    function buyback(uint256 _collateral_value, uint256 _min_share_amount) external onlyStrategist notMigrated hasRebalancePool checkRebalanceCooldown {\r\n        (uint256 _excess_collateral_value, bool _exceeded) = calcCollateralBalance();\r\n        require(_exceeded && _excess_collateral_value > 0, \"!exceeded\");\r\n        require(_collateral_value > 0 && _collateral_value < _excess_collateral_value, \"invalidCollateralAmount\");\r\n        uint256 _collateral_price = IPool(rebalancing_pool).getCollateralPrice();\r\n        uint256 _collateral_amount_sell = _collateral_value.mul(PRICE_PRECISION).div(_collateral_price);\r\n        require(IERC20(rebalancing_pool_collateral).balanceOf(rebalancing_pool) > _collateral_amount_sell, \"insufficentPoolBalance\");\r\n        IPool(rebalancing_pool).transferCollateralToTreasury(_collateral_amount_sell); // Transfer collateral from pool to treasury\r\n        uint256 out_share_amount = _swap(rebalancing_pool_collateral, CNUSD, _collateral_amount_sell, _min_share_amount);\r\n        emit BoughtBack(_collateral_value, _collateral_amount_sell, out_share_amount);\r\n    }\r\n\r\n    // SINGLE POOL STRATEGY\r\n    // With Treasury v1, we will only utilize collateral from a single pool to do rebalancing\r\n    function recollateralize(uint256 _share_amount, uint256 _min_collateral_amount) external onlyStrategist notMigrated hasRebalancePool checkRebalanceCooldown {\r\n        (uint256 _deficit_collateral_value, bool _exceeded) = calcCollateralBalance();\r\n        require(!_exceeded && _deficit_collateral_value > 0, \"exceeded\");\r\n        require(_min_collateral_amount <= _deficit_collateral_value, \">deficit\");\r\n        uint256 _share_balance = IERC20(CNUSD).balanceOf(address(this));\r\n        require(_share_amount <= _share_balance, \">shareBalance\");\r\n        uint256 out_collateral_amount = _swap(CNUSD, rebalancing_pool_collateral, _share_amount, _min_collateral_amount);\r\n        uint256 _collateral_balance = IERC20(rebalancing_pool_collateral).balanceOf(address(this));\r\n        if (_collateral_balance > 0) {\r\n            IERC20(rebalancing_pool_collateral).safeTransfer(rebalancing_pool, _collateral_balance); // Transfer collateral from Treasury to Pool\r\n        }\r\n        uint256 collateral_price = IPool(rebalancing_pool).getCollateralPrice();\r\n        uint256 out_collateral_value = out_collateral_amount.mul(collateral_price).div(PRICE_PRECISION);\r\n        emit Recollateralized(_share_amount, out_collateral_amount, out_collateral_value);\r\n    }\r\n\r\n    function allocateSeigniorage() external nonReentrant checkCondition checkEpoch {\r\n        (uint256 _excess_collateral_value, bool _exceeded) = calcCollateralBalance();\r\n        uint256 _allocation_value = 0;\r\n        if (_exceeded) {\r\n            _allocation_value = _excess_collateral_value.mul(excess_collateral_distributed_ratio).div(RATIO_PRECISION);\r\n            uint256 collateral_price = IPool(rebalancing_pool).getCollateralPrice();\r\n            uint256 _allocation_amount = _allocation_value.mul(PRICE_PRECISION).div(collateral_price);\r\n            IPool(rebalancing_pool).transferCollateralToTreasury(_allocation_amount); // Transfer collateral from pool to treasury\r\n            IERC20(rebalancing_pool_collateral).safeApprove(foundry, 0);\r\n            IERC20(rebalancing_pool_collateral).safeApprove(foundry, _allocation_amount);\r\n            IFoundry(foundry).allocateSeigniorage(_allocation_amount);\r\n        }\r\n    }\r\n\r\n    function migrate(address _new_treasury) external onlyOperator notMigrated {\r\n        migrated = true;\r\n        uint256 _share_balance = IERC20(CNUSD).balanceOf(address(this));\r\n        if (_share_balance > 0) {\r\n            IERC20(CNUSD).safeTransfer(_new_treasury, _share_balance);\r\n        }\r\n        if (rebalancing_pool_collateral != address(0)) {\r\n            uint256 _collateral_balance = IERC20(rebalancing_pool_collateral).balanceOf(address(this));\r\n            if (_collateral_balance > 0) {\r\n                IERC20(rebalancing_pool_collateral).safeTransfer(_new_treasury, _collateral_balance);\r\n            }\r\n        }\r\n    }\r\n\r\n    function setRedemptionFee(uint256 _redemption_fee) public onlyOperator {\r\n        redemption_fee = _redemption_fee;\r\n    }\r\n\r\n    function setMintingFee(uint256 _minting_fee) public onlyOperator {\r\n        minting_fee = _minting_fee;\r\n    }\r\n\r\n    function setRatioStep(uint256 _ratio_step) public onlyOperator {\r\n        ratio_step = _ratio_step;\r\n    }\r\n\r\n    function setPriceTarget(uint256 _price_target) public onlyOperator {\r\n        price_target = _price_target;\r\n    }\r\n\r\n    function setRefreshCooldown(uint256 _refresh_cooldown) public onlyOperator {\r\n        refresh_cooldown = _refresh_cooldown;\r\n    }\r\n\r\n    function setPriceBand(uint256 _price_band) external onlyOperator {\r\n        price_band = _price_band;\r\n    }\r\n\r\n    function toggleCollateralRatio() public onlyOperator {\r\n        collateral_ratio_paused = !collateral_ratio_paused;\r\n    }\r\n\r\n    function toggleEffectiveCollateralRatio() public onlyOperator {\r\n        using_effective_collateral_ratio = !using_effective_collateral_ratio;\r\n    }\r\n\r\n    function setOracleDollar(address _oracleDollar) public onlyOperator {\r\n        oracleDollar = _oracleDollar;\r\n    }\r\n\r\n    function setOracleShare(address _oracleShare) public onlyOperator {\r\n        oracleShare = _oracleShare;\r\n    }\r\n\r\n    function setDollarAddress(address _AGOUSD) public onlyOperator {\r\n        AGOUSD = _AGOUSD;\r\n    }\r\n\r\n    function setShareAddress(address _CNUSD) public onlyOperator {\r\n        CNUSD = _CNUSD;\r\n    }\r\n\r\n    function setStrategist(address _strategist) external onlyOperator {\r\n        strategist = _strategist;\r\n    }\r\n\r\n    function setVSwapParams(\r\n        address _vswap_router,\r\n        address _vswap_pair_share_bnb,\r\n        address _vswap_pair_bnb_busd\r\n    ) public onlyOperator {\r\n        vswap_router = _vswap_router;\r\n        vswap_pair_share_bnb = _vswap_pair_share_bnb;\r\n        vswap_pair_bnb_busd = _vswap_pair_bnb_busd;\r\n    }\r\n\r\n    function setRebalancePool(address _rebalance_pool) public onlyOperator {\r\n        require(pools[_rebalance_pool], \"!pool\");\r\n        require(IPool(_rebalance_pool).getCollateralToken() != address(0), \"!poolCollateralToken\");\r\n        rebalancing_pool = _rebalance_pool;\r\n        rebalancing_pool_collateral = IPool(_rebalance_pool).getCollateralToken();\r\n    }\r\n\r\n    function setRebalanceCooldown(uint256 _rebalance_cooldown) public onlyOperator {\r\n        rebalance_cooldown = _rebalance_cooldown;\r\n    }\r\n\r\n    function resetStartTime(uint256 _startTime) external onlyOperator {\r\n        require(_epoch == 0, \"already started\");\r\n        startTime = _startTime;\r\n        lastEpochTime = _startTime.sub(8 hours);\r\n    }\r\n\r\n    function setFoundry(address _foundry) public onlyOperator {\r\n        foundry = _foundry;\r\n    }\r\n\r\n    function setEpochLength(uint256 _epoch_length) public onlyOperator {\r\n        epoch_length = _epoch_length;\r\n    }\r\n\r\n    function setExcessDistributionRatio(uint256 _excess_collateral_distributed_ratio) public onlyStrategistOrOperator {\r\n        excess_collateral_distributed_ratio = _excess_collateral_distributed_ratio;\r\n    }\r\n\r\n    /* ========== EMERGENCY ========== */\r\n\r\n    function executeTransaction(\r\n        address target,\r\n        uint256 value,\r\n        string memory signature,\r\n        bytes memory data\r\n    ) public onlyOperator returns (bytes memory) {\r\n        bytes memory callData;\r\n\r\n        if (bytes(signature).length == 0) {\r\n            callData = data;\r\n        } else {\r\n            callData = abi.encodePacked(bytes4(keccak256(bytes(signature))), data);\r\n        }\r\n\r\n        // solium-disable-next-line security/no-call-value\r\n        \r\n        (bool success, bytes memory returnData) = target.call{value: value}(callData);\r\n        require(success, string(\"Treasury::executeTransaction: Transaction execution reverted.\"));\r\n        emit TransactionExecuted(target, value, signature, data);\r\n        return returnData;\r\n    }\r\n\r\n    receive() external payable {}\r\n}\r\n",
  "sourcePath": "C:/Users/PaulMuller/Documents/projects/project_AGO/contracts/TreasuryAGOUSD.sol",
  "compiler": {
    "name": "solc",
    "version": "0.8.3+commit.8d00100c.Emscripten.clang"
  },
  "schemaVersion": "3.3.4",
  "updatedAt": "2021-04-20T19:02:35.909Z",
  "networkType": "ethereum",
  "devdoc": {
    "kind": "dev",
    "methods": {},
    "version": 1
  },
  "userdoc": {
    "kind": "user",
    "methods": {},
    "version": 1
  }
}