{
  "contractName": "USDTOracle",
  "abi": [
    {
      "inputs": [
        {
          "internalType": "address",
          "name": "_chainlinkBusdUsd",
          "type": "address"
        }
      ],
      "stateMutability": "nonpayable",
      "type": "constructor"
    },
    {
      "anonymous": false,
      "inputs": [
        {
          "indexed": true,
          "internalType": "address",
          "name": "previousOperator",
          "type": "address"
        },
        {
          "indexed": true,
          "internalType": "address",
          "name": "newOperator",
          "type": "address"
        }
      ],
      "name": "OperatorTransferred",
      "type": "event"
    },
    {
      "anonymous": false,
      "inputs": [
        {
          "indexed": true,
          "internalType": "address",
          "name": "previousOwner",
          "type": "address"
        },
        {
          "indexed": true,
          "internalType": "address",
          "name": "newOwner",
          "type": "address"
        }
      ],
      "name": "OwnershipTransferred",
      "type": "event"
    },
    {
      "inputs": [],
      "name": "chainlinkBusdUsd",
      "outputs": [
        {
          "internalType": "address",
          "name": "",
          "type": "address"
        }
      ],
      "stateMutability": "view",
      "type": "function"
    },
    {
      "inputs": [],
      "name": "isOperator",
      "outputs": [
        {
          "internalType": "bool",
          "name": "",
          "type": "bool"
        }
      ],
      "stateMutability": "view",
      "type": "function"
    },
    {
      "inputs": [],
      "name": "operator",
      "outputs": [
        {
          "internalType": "address",
          "name": "",
          "type": "address"
        }
      ],
      "stateMutability": "view",
      "type": "function"
    },
    {
      "inputs": [],
      "name": "owner",
      "outputs": [
        {
          "internalType": "address",
          "name": "",
          "type": "address"
        }
      ],
      "stateMutability": "view",
      "type": "function"
    },
    {
      "inputs": [],
      "name": "renounceOwnership",
      "outputs": [],
      "stateMutability": "nonpayable",
      "type": "function"
    },
    {
      "inputs": [
        {
          "internalType": "address",
          "name": "newOperator_",
          "type": "address"
        }
      ],
      "name": "transferOperator",
      "outputs": [],
      "stateMutability": "nonpayable",
      "type": "function"
    },
    {
      "inputs": [
        {
          "internalType": "address",
          "name": "newOwner",
          "type": "address"
        }
      ],
      "name": "transferOwnership",
      "outputs": [],
      "stateMutability": "nonpayable",
      "type": "function"
    },
    {
      "inputs": [],
      "name": "consult",
      "outputs": [
        {
          "internalType": "uint256",
          "name": "",
          "type": "uint256"
        }
      ],
      "stateMutability": "view",
      "type": "function"
    },
    {
      "inputs": [
        {
          "internalType": "address",
          "name": "_chainlinkBusdUsd",
          "type": "address"
        }
      ],
      "name": "setChainlinkBusdUsd",
      "outputs": [],
      "stateMutability": "nonpayable",
      "type": "function"
    }
  ],
  "bytecode": "0x608060405234801561001057600080fd5b50604051610a2f380380610a2f83398101604081905261002f916100d5565b600080546001600160a01b031916339081178255604051909182917f8be0079c531659141344cd1fd0a4f28419497f9722a3daafe3b4186f6b6457e0908290a350600180546001600160a01b031916339081179091556040516000907f74da04524d50c64947f5dd5381ef1a4dca5cba8ed1d816243f9e48aa0b5617ed908290a3600280546001600160a01b0319166001600160a01b0392909216919091179055610103565b6000602082840312156100e6578081fd5b81516001600160a01b03811681146100fc578182fd5b9392505050565b61091d806101126000396000f3fe608060405234801561001057600080fd5b50600436106100a35760003560e01c80637eeda703116100765780638da5cb5b1161005b5780638da5cb5b14610136578063c9b13ac914610147578063f2fde38b1461015a57600080fd5b80637eeda7031461010d5780638877f5921461012357600080fd5b806329605e77146100a85780634456eda2146100bd578063570ca735146100e0578063715018a614610105575b600080fd5b6100bb6100b636600461070d565b61016d565b005b6001546001600160a01b0316331460405190151581526020015b60405180910390f35b6001546001600160a01b03165b6040516001600160a01b0390911681526020016100d7565b6100bb6101d8565b610115610289565b6040519081526020016100d7565b6100bb61013136600461070d565b6103c7565b6000546001600160a01b03166100ed565b6002546100ed906001600160a01b031681565b6100bb61016836600461070d565b610475565b6000546001600160a01b031633146101cc5760405162461bcd60e51b815260206004820181905260248201527f4f776e61626c653a2063616c6c6572206973206e6f7420746865206f776e657260448201526064015b60405180910390fd5b6101d5816105b3565b50565b6000546001600160a01b031633146102325760405162461bcd60e51b815260206004820181905260248201527f4f776e61626c653a2063616c6c6572206973206e6f7420746865206f776e657260448201526064016101c3565b600080546040516001600160a01b03909116907f8be0079c531659141344cd1fd0a4f28419497f9722a3daafe3b4186f6b6457e0908390a36000805473ffffffffffffffffffffffffffffffffffffffff19169055565b600254604080517ffeaf968c00000000000000000000000000000000000000000000000000000000815290516000926001600160a01b0316918391839163feaf968c9160048083019260a0929190829003018186803b1580156102eb57600080fd5b505afa1580156102ff573d6000803e3d6000fd5b505050506040513d601f19601f820116820180604052508101906103239190610734565b5050509150506000826001600160a01b031663313ce5676040518163ffffffff1660e01b815260040160206040518083038186803b15801561036457600080fd5b505afa158015610378573d6000803e3d6000fd5b505050506040513d601f19601f8201168201806040525081019061039c9190610783565b90506103bf6103ac82600a610807565b6103b984620f4240610694565b906106db565b935050505090565b6001546001600160a01b031633146104465760405162461bcd60e51b8152602060048201526024808201527f6f70657261746f723a2063616c6c6572206973206e6f7420746865206f70657260448201527f61746f720000000000000000000000000000000000000000000000000000000060648201526084016101c3565b6002805473ffffffffffffffffffffffffffffffffffffffff19166001600160a01b0392909216919091179055565b6000546001600160a01b031633146104cf5760405162461bcd60e51b815260206004820181905260248201527f4f776e61626c653a2063616c6c6572206973206e6f7420746865206f776e657260448201526064016101c3565b6001600160a01b03811661054b5760405162461bcd60e51b815260206004820152602660248201527f4f776e61626c653a206e6577206f776e657220697320746865207a65726f206160448201527f646472657373000000000000000000000000000000000000000000000000000060648201526084016101c3565b600080546040516001600160a01b03808516939216917f8be0079c531659141344cd1fd0a4f28419497f9722a3daafe3b4186f6b6457e091a36000805473ffffffffffffffffffffffffffffffffffffffff19166001600160a01b0392909216919091179055565b6001600160a01b03811661062f5760405162461bcd60e51b815260206004820152602d60248201527f6f70657261746f723a207a65726f206164647265737320676976656e20666f7260448201527f206e6577206f70657261746f720000000000000000000000000000000000000060648201526084016101c3565b6040516001600160a01b038216906000907f74da04524d50c64947f5dd5381ef1a4dca5cba8ed1d816243f9e48aa0b5617ed908290a36001805473ffffffffffffffffffffffffffffffffffffffff19166001600160a01b0392909216919091179055565b6000826106a3575060006106d5565b6106ad82846108b2565b9050816106ba84836107a4565b146106d557634e487b7160e01b600052600160045260246000fd5b92915050565b60006106e782846107a4565b9392505050565b805169ffffffffffffffffffff8116811461070857600080fd5b919050565b60006020828403121561071e578081fd5b81356001600160a01b03811681146106e7578182fd5b600080600080600060a0868803121561074b578081fd5b610754866106ee565b9450602086015193506040860151925060608601519150610777608087016106ee565b90509295509295909350565b600060208284031215610794578081fd5b815160ff811681146106e7578182fd5b6000826107bf57634e487b7160e01b81526012600452602481fd5b500490565b600181815b808511156107ff5781600019048211156107e5576107e56108d1565b808516156107f257918102915b93841c93908002906107c9565b509250929050565b60006106e760ff841683600082610820575060016106d5565b8161082d575060006106d5565b8160018114610843576002811461084d57610869565b60019150506106d5565b60ff84111561085e5761085e6108d1565b50506001821b6106d5565b5060208310610133831016604e8410600b841016171561088c575081810a6106d5565b61089683836107c4565b80600019048211156108aa576108aa6108d1565b029392505050565b60008160001904831182151516156108cc576108cc6108d1565b500290565b634e487b7160e01b600052601160045260246000fdfea264697066735822122062265ae2634273137f24468493edd1c1440b35365feae1050edfab61715ef9d264736f6c63430008040033",
  "immutableReferences": {},
  "source": "// SPDX-License-Identifier: MIT\r\n\r\npragma solidity ^0.8.0;\r\npragma experimental ABIEncoderV2;\r\n\r\nimport \"../chainLink/AggregatorV3Interface.sol\";\r\nimport \"../openZeppelin/SafeMath.sol\";\r\nimport \"../Operator.sol\";\r\nimport \"../interfaces/IOracle.sol\";\r\n\r\ncontract USDTOracle is Operator, IOracle {\r\n    using SafeMath for uint256;\r\n    address public chainlinkBusdUsd;\r\n\r\n    uint256 private constant PRICE_PRECISION = 1e6;\r\n\r\n    constructor(address _chainlinkBusdUsd){\r\n        chainlinkBusdUsd = _chainlinkBusdUsd;\r\n    }\r\n\r\n    function consult() external view override returns (uint256) {\r\n        AggregatorV3Interface _priceFeed = AggregatorV3Interface(chainlinkBusdUsd);\r\n        (, int256 _price, , , ) = _priceFeed.latestRoundData();\r\n        uint8 _decimals = _priceFeed.decimals();\r\n        return uint256(_price).mul(PRICE_PRECISION).div(uint256(10)**_decimals);\r\n    }\r\n\r\n    function setChainlinkBusdUsd(address _chainlinkBusdUsd) external onlyOperator {\r\n        chainlinkBusdUsd = _chainlinkBusdUsd;\r\n    }\r\n}\r\n",
  "sourcePath": "C:/Users/PaulMuller/Documents/projects/project_AGO/contracts/oracle/USDTOracle.sol",
  "compiler": {
    "name": "solc",
    "version": "0.8.4+commit.c7e474f2.Emscripten.clang"
  },
  "schemaVersion": "3.3.4",
  "updatedAt": "2021-04-26T15:17:49.660Z",
  "devdoc": {
    "kind": "dev",
    "methods": {},
    "version": 1
  },
  "userdoc": {
    "kind": "user",
    "methods": {},
    "version": 1
  }
}