{
  "contractName": "ARGANO",
  "abi": [
    {
      "inputs": [],
      "stateMutability": "nonpayable",
      "type": "constructor"
    },
    {
      "anonymous": false,
      "inputs": [
        {
          "indexed": true,
          "internalType": "address",
          "name": "owner",
          "type": "address"
        },
        {
          "indexed": true,
          "internalType": "address",
          "name": "spender",
          "type": "address"
        },
        {
          "indexed": false,
          "internalType": "uint256",
          "name": "value",
          "type": "uint256"
        }
      ],
      "name": "Approval",
      "type": "event"
    },
    {
      "anonymous": false,
      "inputs": [
        {
          "indexed": true,
          "internalType": "address",
          "name": "from",
          "type": "address"
        },
        {
          "indexed": true,
          "internalType": "address",
          "name": "to",
          "type": "address"
        },
        {
          "indexed": false,
          "internalType": "uint256",
          "name": "value",
          "type": "uint256"
        }
      ],
      "name": "Transfer",
      "type": "event"
    },
    {
      "inputs": [
        {
          "internalType": "address",
          "name": "owner",
          "type": "address"
        },
        {
          "internalType": "address",
          "name": "spender",
          "type": "address"
        }
      ],
      "name": "allowance",
      "outputs": [
        {
          "internalType": "uint256",
          "name": "",
          "type": "uint256"
        }
      ],
      "stateMutability": "view",
      "type": "function",
      "constant": true
    },
    {
      "inputs": [
        {
          "internalType": "address",
          "name": "spender",
          "type": "address"
        },
        {
          "internalType": "uint256",
          "name": "amount",
          "type": "uint256"
        }
      ],
      "name": "approve",
      "outputs": [
        {
          "internalType": "bool",
          "name": "",
          "type": "bool"
        }
      ],
      "stateMutability": "nonpayable",
      "type": "function"
    },
    {
      "inputs": [
        {
          "internalType": "address",
          "name": "account",
          "type": "address"
        }
      ],
      "name": "balanceOf",
      "outputs": [
        {
          "internalType": "uint256",
          "name": "",
          "type": "uint256"
        }
      ],
      "stateMutability": "view",
      "type": "function",
      "constant": true
    },
    {
      "inputs": [],
      "name": "decimals",
      "outputs": [
        {
          "internalType": "uint8",
          "name": "",
          "type": "uint8"
        }
      ],
      "stateMutability": "view",
      "type": "function",
      "constant": true
    },
    {
      "inputs": [
        {
          "internalType": "address",
          "name": "spender",
          "type": "address"
        },
        {
          "internalType": "uint256",
          "name": "subtractedValue",
          "type": "uint256"
        }
      ],
      "name": "decreaseAllowance",
      "outputs": [
        {
          "internalType": "bool",
          "name": "",
          "type": "bool"
        }
      ],
      "stateMutability": "nonpayable",
      "type": "function"
    },
    {
      "inputs": [
        {
          "internalType": "address",
          "name": "spender",
          "type": "address"
        },
        {
          "internalType": "uint256",
          "name": "addedValue",
          "type": "uint256"
        }
      ],
      "name": "increaseAllowance",
      "outputs": [
        {
          "internalType": "bool",
          "name": "",
          "type": "bool"
        }
      ],
      "stateMutability": "nonpayable",
      "type": "function"
    },
    {
      "inputs": [],
      "name": "name",
      "outputs": [
        {
          "internalType": "string",
          "name": "",
          "type": "string"
        }
      ],
      "stateMutability": "view",
      "type": "function",
      "constant": true
    },
    {
      "inputs": [],
      "name": "owner",
      "outputs": [
        {
          "internalType": "address",
          "name": "",
          "type": "address"
        }
      ],
      "stateMutability": "view",
      "type": "function",
      "constant": true
    },
    {
      "inputs": [],
      "name": "symbol",
      "outputs": [
        {
          "internalType": "string",
          "name": "",
          "type": "string"
        }
      ],
      "stateMutability": "view",
      "type": "function",
      "constant": true
    },
    {
      "inputs": [],
      "name": "totalSupply",
      "outputs": [
        {
          "internalType": "uint256",
          "name": "",
          "type": "uint256"
        }
      ],
      "stateMutability": "view",
      "type": "function",
      "constant": true
    },
    {
      "inputs": [
        {
          "internalType": "address",
          "name": "recipient",
          "type": "address"
        },
        {
          "internalType": "uint256",
          "name": "amount",
          "type": "uint256"
        }
      ],
      "name": "transfer",
      "outputs": [
        {
          "internalType": "bool",
          "name": "",
          "type": "bool"
        }
      ],
      "stateMutability": "nonpayable",
      "type": "function"
    },
    {
      "inputs": [
        {
          "internalType": "address",
          "name": "sender",
          "type": "address"
        },
        {
          "internalType": "address",
          "name": "recipient",
          "type": "address"
        },
        {
          "internalType": "uint256",
          "name": "amount",
          "type": "uint256"
        }
      ],
      "name": "transferFrom",
      "outputs": [
        {
          "internalType": "bool",
          "name": "",
          "type": "bool"
        }
      ],
      "stateMutability": "nonpayable",
      "type": "function"
    },
    {
      "inputs": [
        {
          "internalType": "address",
          "name": "newOwner",
          "type": "address"
        }
      ],
      "name": "transferOwnership",
      "outputs": [],
      "stateMutability": "nonpayable",
      "type": "function"
    }
  ],
  "bytecode": "0x60806040523480156200001157600080fd5b5060405180604001604052806006815260200165417267616e6f60d01b8152506040518060400160405280600381526020016241474f60e81b8152506012826003908051906020019062000067929190620000dc565b5081516200007d906004906020850190620000dc565b506005805460ff929092166001600160a81b031990921691909117610100330217905550620000b190506012600a620001cb565b620000c1906303dfd24062000296565b6002819055336000908152602081905260409020556200030b565b828054620000ea90620002b8565b90600052602060002090601f0160209004810192826200010e576000855562000159565b82601f106200012957805160ff191683800117855562000159565b8280016001018555821562000159579182015b82811115620001595782518255916020019190600101906200013c565b50620001679291506200016b565b5090565b5b808211156200016757600081556001016200016c565b600181815b80851115620001c3578160001904821115620001a757620001a7620002f5565b80851615620001b557918102915b93841c939080029062000187565b509250929050565b6000620001d98383620001e0565b9392505050565b600082620001f15750600162000290565b81620002005750600062000290565b8160018114620002195760028114620002245762000244565b600191505062000290565b60ff841115620002385762000238620002f5565b50506001821b62000290565b5060208310610133831016604e8410600b841016171562000269575081810a62000290565b62000275838362000182565b80600019048211156200028c576200028c620002f5565b0290505b92915050565b6000816000190483118215151615620002b357620002b3620002f5565b500290565b600181811c90821680620002cd57607f821691505b60208210811415620002ef57634e487b7160e01b600052602260045260246000fd5b50919050565b634e487b7160e01b600052601160045260246000fd5b6109cd806200031b6000396000f3fe608060405234801561001057600080fd5b50600436106100cf5760003560e01c806370a082311161008c578063a457c2d711610066578063a457c2d7146101c3578063a9059cbb146101d6578063dd62ed3e146101e9578063f2fde38b1461022257600080fd5b806370a08231146101625780638da5cb5b1461018b57806395d89b41146101bb57600080fd5b806306fdde03146100d4578063095ea7b3146100f257806318160ddd1461011557806323b872dd14610127578063313ce5671461013a578063395093511461014f575b600080fd5b6100dc610237565b6040516100e99190610851565b60405180910390f35b610105610100366004610828565b6102c9565b60405190151581526020016100e9565b6002545b6040519081526020016100e9565b6101056101353660046107ed565b6102df565b60055460405160ff90911681526020016100e9565b61010561015d366004610828565b610348565b6101196101703660046107a1565b6001600160a01b031660009081526020819052604090205490565b6005546101a39061010090046001600160a01b031681565b6040516001600160a01b0390911681526020016100e9565b6100dc61037e565b6101056101d1366004610828565b61038d565b6101056101e4366004610828565b6103dc565b6101196101f73660046107bb565b6001600160a01b03918216600090815260016020908152604080832093909416825291909152205490565b6102356102303660046107a1565b6103e9565b005b606060038054610246906108d3565b80601f0160208091040260200160405190810160405280929190818152602001828054610272906108d3565b80156102bf5780601f10610294576101008083540402835291602001916102bf565b820191906000526020600020905b8154815290600101906020018083116102a257829003601f168201915b5050505050905090565b60006102d6338484610438565b50600192915050565b60006102ec848484610562565b61033e84336103398560405180606001604052806028815260200161094b602891396001600160a01b038a16600090815260016020908152604080832033845290915290205491906106e5565b610438565b5060019392505050565b3360008181526001602090815260408083206001600160a01b038716845290915281205490916102d6918590610339908661071f565b606060048054610246906108d3565b60006102d6338461033985604051806060016040528060258152602001610973602591393360009081526001602090815260408083206001600160a01b038d16845290915290205491906106e5565b60006102d6338484610562565b60055461010090046001600160a01b0316331461040557600080fd5b6001600160a01b038116156104355760058054610100600160a81b0319166101006001600160a01b038416021790555b50565b6001600160a01b03831661049f5760405162461bcd60e51b8152602060048201526024808201527f45524332303a20617070726f76652066726f6d20746865207a65726f206164646044820152637265737360e01b60648201526084015b60405180910390fd5b6001600160a01b0382166105005760405162461bcd60e51b815260206004820152602260248201527f45524332303a20617070726f766520746f20746865207a65726f206164647265604482015261737360f01b6064820152608401610496565b6001600160a01b0383811660008181526001602090815260408083209487168084529482529182902085905590518481527f8c5be1e5ebec7d5bd14f71427d1e84f3dd0314c0f7b2291e5b200ac8c7c3b92591015b60405180910390a3505050565b6001600160a01b0383166105c65760405162461bcd60e51b815260206004820152602560248201527f45524332303a207472616e736665722066726f6d20746865207a65726f206164604482015264647265737360d81b6064820152608401610496565b6001600160a01b0382166106285760405162461bcd60e51b815260206004820152602360248201527f45524332303a207472616e7366657220746f20746865207a65726f206164647260448201526265737360e81b6064820152608401610496565b61066581604051806060016040528060268152602001610925602691396001600160a01b03861660009081526020819052604090205491906106e5565b6001600160a01b038085166000908152602081905260408082209390935590841681522054610694908261071f565b6001600160a01b038381166000818152602081815260409182902094909455518481529092918616917fddf252ad1be2c89b69c2b068fc378daa952ba7f163c4a11628f55a4df523b3ef9101610555565b600081848411156107095760405162461bcd60e51b81526004016104969190610851565b50600061071684866108bc565b95945050505050565b60008061072c83856108a4565b90508381101561077e5760405162461bcd60e51b815260206004820152601b60248201527f536166654d6174683a206164646974696f6e206f766572666c6f7700000000006044820152606401610496565b9392505050565b80356001600160a01b038116811461079c57600080fd5b919050565b6000602082840312156107b2578081fd5b61077e82610785565b600080604083850312156107cd578081fd5b6107d683610785565b91506107e460208401610785565b90509250929050565b600080600060608486031215610801578081fd5b61080a84610785565b925061081860208501610785565b9150604084013590509250925092565b6000806040838503121561083a578182fd5b61084383610785565b946020939093013593505050565b6000602080835283518082850152825b8181101561087d57858101830151858201604001528201610861565b8181111561088e5783604083870101525b50601f01601f1916929092016040019392505050565b600082198211156108b7576108b761090e565b500190565b6000828210156108ce576108ce61090e565b500390565b600181811c908216806108e757607f821691505b6020821081141561090857634e487b7160e01b600052602260045260246000fd5b50919050565b634e487b7160e01b600052601160045260246000fdfe45524332303a207472616e7366657220616d6f756e7420657863656564732062616c616e636545524332303a207472616e7366657220616d6f756e74206578636565647320616c6c6f77616e636545524332303a2064656372656173656420616c6c6f77616e63652062656c6f77207a65726fa2646970667358221220545cbbd867f01b6c7949ba18ae63ff613679a2d1f9ec0dbf78b1e837a9f6603664736f6c63430008040033",
  "immutableReferences": {},
  "source": "//SPDX-License-Identifier: MIT\r\npragma solidity 0.8.4;\r\n\r\nimport \"./interfaces/IERC20.sol\";\r\nimport \"./libraries/SafeMath.sol\";\r\nimport \"./utilityContracts/Context.sol\";\r\nimport \"./utilityContracts/ERC20.sol\";\r\nimport \"./libraries/Address.sol\";\r\nimport \"./libraries/SafeERC20.sol\";\r\nimport \"./utilityContracts/Ownable.sol\";\r\nimport \"./utilityContracts/ERC20Detailed.sol\";\r\n\r\ncontract ARGANO is ERC20, ERC20Detailed, Ownable {\r\n    using SafeERC20 for IERC20;\r\n    using Address for address;\r\n    using SafeMath for uint256;\r\n\r\n    constructor() ERC20Detailed(\"Argano\", \"AGO\", 18) {\r\n        _totalSupply = 65000000 * (10**uint256(18));\r\n        _balances[msg.sender] = _totalSupply;\r\n    }\r\n}\r\n",
  "sourcePath": "C:/Users/PaulMuller/Documents/projects/project_AGO/contracts/ARGANO.sol",
  "compiler": {
    "name": "solc",
    "version": "0.8.4+commit.c7e474f2.Emscripten.clang"
  },
  "schemaVersion": "3.4.1",
  "updatedAt": "2021-07-01T01:05:23.477Z",
  "networkType": "ethereum",
  "devdoc": {
    "kind": "dev",
    "methods": {
      "transferOwnership(address)": {
        "details": "Allows the current owner to transfer control of the contract to a newOwner.",
        "params": {
          "newOwner": "The address to transfer ownership to."
        }
      }
    },
    "version": 1
  },
  "userdoc": {
    "kind": "user",
    "methods": {},
    "version": 1
  }
}