{
  "contractName": "CNUSD",
  "abi": [
    {
      "inputs": [
        {
          "internalType": "string",
          "name": "_name",
          "type": "string"
        },
        {
          "internalType": "string",
          "name": "_symbol",
          "type": "string"
        },
        {
          "internalType": "address",
          "name": "_treasury",
          "type": "address"
        }
      ],
      "stateMutability": "nonpayable",
      "type": "constructor"
    },
    {
      "anonymous": false,
      "inputs": [
        {
          "indexed": true,
          "internalType": "address",
          "name": "owner",
          "type": "address"
        },
        {
          "indexed": true,
          "internalType": "address",
          "name": "spender",
          "type": "address"
        },
        {
          "indexed": false,
          "internalType": "uint256",
          "name": "value",
          "type": "uint256"
        }
      ],
      "name": "Approval",
      "type": "event"
    },
    {
      "anonymous": false,
      "inputs": [
        {
          "indexed": true,
          "internalType": "address",
          "name": "from",
          "type": "address"
        },
        {
          "indexed": true,
          "internalType": "address",
          "name": "to",
          "type": "address"
        },
        {
          "indexed": false,
          "internalType": "uint256",
          "name": "amount",
          "type": "uint256"
        }
      ],
      "name": "ShareBurned",
      "type": "event"
    },
    {
      "anonymous": false,
      "inputs": [
        {
          "indexed": true,
          "internalType": "address",
          "name": "from",
          "type": "address"
        },
        {
          "indexed": true,
          "internalType": "address",
          "name": "to",
          "type": "address"
        },
        {
          "indexed": false,
          "internalType": "uint256",
          "name": "amount",
          "type": "uint256"
        }
      ],
      "name": "ShareMinted",
      "type": "event"
    },
    {
      "anonymous": false,
      "inputs": [
        {
          "indexed": true,
          "internalType": "address",
          "name": "from",
          "type": "address"
        },
        {
          "indexed": true,
          "internalType": "address",
          "name": "to",
          "type": "address"
        },
        {
          "indexed": false,
          "internalType": "uint256",
          "name": "value",
          "type": "uint256"
        }
      ],
      "name": "Transfer",
      "type": "event"
    },
    {
      "inputs": [],
      "name": "COMMUNITY_REWARD_ALLOCATION",
      "outputs": [
        {
          "internalType": "uint256",
          "name": "",
          "type": "uint256"
        }
      ],
      "stateMutability": "view",
      "type": "function"
    },
    {
      "inputs": [],
      "name": "DEV_FUND_ALLOCATION",
      "outputs": [
        {
          "internalType": "uint256",
          "name": "",
          "type": "uint256"
        }
      ],
      "stateMutability": "view",
      "type": "function"
    },
    {
      "inputs": [],
      "name": "VESTING_DURATION",
      "outputs": [
        {
          "internalType": "uint256",
          "name": "",
          "type": "uint256"
        }
      ],
      "stateMutability": "view",
      "type": "function"
    },
    {
      "inputs": [
        {
          "internalType": "address",
          "name": "owner",
          "type": "address"
        },
        {
          "internalType": "address",
          "name": "spender",
          "type": "address"
        }
      ],
      "name": "allowance",
      "outputs": [
        {
          "internalType": "uint256",
          "name": "",
          "type": "uint256"
        }
      ],
      "stateMutability": "view",
      "type": "function"
    },
    {
      "inputs": [
        {
          "internalType": "address",
          "name": "spender",
          "type": "address"
        },
        {
          "internalType": "uint256",
          "name": "amount",
          "type": "uint256"
        }
      ],
      "name": "approve",
      "outputs": [
        {
          "internalType": "bool",
          "name": "",
          "type": "bool"
        }
      ],
      "stateMutability": "nonpayable",
      "type": "function"
    },
    {
      "inputs": [
        {
          "internalType": "address",
          "name": "account",
          "type": "address"
        }
      ],
      "name": "balanceOf",
      "outputs": [
        {
          "internalType": "uint256",
          "name": "",
          "type": "uint256"
        }
      ],
      "stateMutability": "view",
      "type": "function"
    },
    {
      "inputs": [
        {
          "internalType": "uint256",
          "name": "amount",
          "type": "uint256"
        }
      ],
      "name": "burn",
      "outputs": [],
      "stateMutability": "nonpayable",
      "type": "function"
    },
    {
      "inputs": [
        {
          "internalType": "address",
          "name": "account",
          "type": "address"
        },
        {
          "internalType": "uint256",
          "name": "amount",
          "type": "uint256"
        }
      ],
      "name": "burnFrom",
      "outputs": [],
      "stateMutability": "nonpayable",
      "type": "function"
    },
    {
      "inputs": [],
      "name": "communityRewardClaimed",
      "outputs": [
        {
          "internalType": "uint256",
          "name": "",
          "type": "uint256"
        }
      ],
      "stateMutability": "view",
      "type": "function"
    },
    {
      "inputs": [],
      "name": "decimals",
      "outputs": [
        {
          "internalType": "uint8",
          "name": "",
          "type": "uint8"
        }
      ],
      "stateMutability": "view",
      "type": "function"
    },
    {
      "inputs": [
        {
          "internalType": "address",
          "name": "spender",
          "type": "address"
        },
        {
          "internalType": "uint256",
          "name": "subtractedValue",
          "type": "uint256"
        }
      ],
      "name": "decreaseAllowance",
      "outputs": [
        {
          "internalType": "bool",
          "name": "",
          "type": "bool"
        }
      ],
      "stateMutability": "nonpayable",
      "type": "function"
    },
    {
      "inputs": [],
      "name": "devFund",
      "outputs": [
        {
          "internalType": "address",
          "name": "",
          "type": "address"
        }
      ],
      "stateMutability": "view",
      "type": "function"
    },
    {
      "inputs": [],
      "name": "devFundEmissionRate",
      "outputs": [
        {
          "internalType": "uint256",
          "name": "",
          "type": "uint256"
        }
      ],
      "stateMutability": "view",
      "type": "function"
    },
    {
      "inputs": [],
      "name": "devFundLastClaimed",
      "outputs": [
        {
          "internalType": "uint256",
          "name": "",
          "type": "uint256"
        }
      ],
      "stateMutability": "view",
      "type": "function"
    },
    {
      "inputs": [],
      "name": "endTime",
      "outputs": [
        {
          "internalType": "uint256",
          "name": "",
          "type": "uint256"
        }
      ],
      "stateMutability": "view",
      "type": "function"
    },
    {
      "inputs": [
        {
          "internalType": "address",
          "name": "spender",
          "type": "address"
        },
        {
          "internalType": "uint256",
          "name": "addedValue",
          "type": "uint256"
        }
      ],
      "name": "increaseAllowance",
      "outputs": [
        {
          "internalType": "bool",
          "name": "",
          "type": "bool"
        }
      ],
      "stateMutability": "nonpayable",
      "type": "function"
    },
    {
      "inputs": [],
      "name": "initialized",
      "outputs": [
        {
          "internalType": "bool",
          "name": "",
          "type": "bool"
        }
      ],
      "stateMutability": "view",
      "type": "function"
    },
    {
      "inputs": [],
      "name": "name",
      "outputs": [
        {
          "internalType": "string",
          "name": "",
          "type": "string"
        }
      ],
      "stateMutability": "view",
      "type": "function"
    },
    {
      "inputs": [],
      "name": "owner",
      "outputs": [
        {
          "internalType": "address",
          "name": "",
          "type": "address"
        }
      ],
      "stateMutability": "view",
      "type": "function"
    },
    {
      "inputs": [],
      "name": "rewardController",
      "outputs": [
        {
          "internalType": "address",
          "name": "",
          "type": "address"
        }
      ],
      "stateMutability": "view",
      "type": "function"
    },
    {
      "inputs": [],
      "name": "startTime",
      "outputs": [
        {
          "internalType": "uint256",
          "name": "",
          "type": "uint256"
        }
      ],
      "stateMutability": "view",
      "type": "function"
    },
    {
      "inputs": [],
      "name": "symbol",
      "outputs": [
        {
          "internalType": "string",
          "name": "",
          "type": "string"
        }
      ],
      "stateMutability": "view",
      "type": "function"
    },
    {
      "inputs": [],
      "name": "totalSupply",
      "outputs": [
        {
          "internalType": "uint256",
          "name": "",
          "type": "uint256"
        }
      ],
      "stateMutability": "view",
      "type": "function"
    },
    {
      "inputs": [
        {
          "internalType": "address",
          "name": "recipient",
          "type": "address"
        },
        {
          "internalType": "uint256",
          "name": "amount",
          "type": "uint256"
        }
      ],
      "name": "transfer",
      "outputs": [
        {
          "internalType": "bool",
          "name": "",
          "type": "bool"
        }
      ],
      "stateMutability": "nonpayable",
      "type": "function"
    },
    {
      "inputs": [
        {
          "internalType": "address",
          "name": "sender",
          "type": "address"
        },
        {
          "internalType": "address",
          "name": "recipient",
          "type": "address"
        },
        {
          "internalType": "uint256",
          "name": "amount",
          "type": "uint256"
        }
      ],
      "name": "transferFrom",
      "outputs": [
        {
          "internalType": "bool",
          "name": "",
          "type": "bool"
        }
      ],
      "stateMutability": "nonpayable",
      "type": "function"
    },
    {
      "inputs": [
        {
          "internalType": "address",
          "name": "newOwner",
          "type": "address"
        }
      ],
      "name": "transferOwnership",
      "outputs": [],
      "stateMutability": "nonpayable",
      "type": "function"
    },
    {
      "inputs": [],
      "name": "treasury",
      "outputs": [
        {
          "internalType": "address",
          "name": "",
          "type": "address"
        }
      ],
      "stateMutability": "view",
      "type": "function"
    },
    {
      "inputs": [
        {
          "internalType": "address",
          "name": "_devFund",
          "type": "address"
        },
        {
          "internalType": "address",
          "name": "_rewardController",
          "type": "address"
        },
        {
          "internalType": "uint256",
          "name": "_startTime",
          "type": "uint256"
        }
      ],
      "name": "initialize",
      "outputs": [],
      "stateMutability": "nonpayable",
      "type": "function"
    },
    {
      "inputs": [
        {
          "internalType": "uint256",
          "name": "amount",
          "type": "uint256"
        }
      ],
      "name": "claimCommunityRewards",
      "outputs": [],
      "stateMutability": "nonpayable",
      "type": "function"
    },
    {
      "inputs": [
        {
          "internalType": "address",
          "name": "_treasury",
          "type": "address"
        }
      ],
      "name": "setTreasuryAddress",
      "outputs": [],
      "stateMutability": "nonpayable",
      "type": "function"
    },
    {
      "inputs": [
        {
          "internalType": "address",
          "name": "_devFund",
          "type": "address"
        }
      ],
      "name": "setDevFund",
      "outputs": [],
      "stateMutability": "nonpayable",
      "type": "function"
    },
    {
      "inputs": [
        {
          "internalType": "address",
          "name": "m_address",
          "type": "address"
        },
        {
          "internalType": "uint256",
          "name": "m_amount",
          "type": "uint256"
        }
      ],
      "name": "poolMint",
      "outputs": [],
      "stateMutability": "nonpayable",
      "type": "function"
    },
    {
      "inputs": [
        {
          "internalType": "address",
          "name": "b_address",
          "type": "address"
        },
        {
          "internalType": "uint256",
          "name": "b_amount",
          "type": "uint256"
        }
      ],
      "name": "poolBurnFrom",
      "outputs": [],
      "stateMutability": "nonpayable",
      "type": "function"
    },
    {
      "inputs": [],
      "name": "unclaimedDevFund",
      "outputs": [
        {
          "internalType": "uint256",
          "name": "_pending",
          "type": "uint256"
        }
      ],
      "stateMutability": "view",
      "type": "function"
    },
    {
      "inputs": [],
      "name": "claimDevFundRewards",
      "outputs": [],
      "stateMutability": "nonpayable",
      "type": "function"
    }
  ],
  "bytecode": "0x60806040526200001e620151806a108b2a2c280290940000006200029a565b600c553480156200002e57600080fd5b506040516200187038038062001870833981016040819052620000519162000211565b600380546001600160a01b03191633179055825162000078906005906020860190620000b8565b5081516200008e906004906020850190620000b8565b50600680546001600160a01b0319166001600160a01b0392909216919091179055506200030e9050565b828054620000c690620002bb565b90600052602060002090601f016020900481019282620000ea576000855562000135565b82601f106200010557805160ff191683800117855562000135565b8280016001018555821562000135579182015b828111156200013557825182559160200191906001019062000118565b506200014392915062000147565b5090565b5b8082111562000143576000815560010162000148565b600082601f8301126200016f578081fd5b81516001600160401b03808211156200018c576200018c620002f8565b604051601f8301601f19908116603f01168101908282118183101715620001b757620001b7620002f8565b81604052838152602092508683858801011115620001d3578485fd5b8491505b83821015620001f65785820183015181830184015290820190620001d7565b838211156200020757848385830101525b9695505050505050565b60008060006060848603121562000226578283fd5b83516001600160401b03808211156200023d578485fd5b6200024b878388016200015e565b9450602086015191508082111562000261578384fd5b5062000270868287016200015e565b604086015190935090506001600160a01b03811681146200028f578182fd5b809150509250925092565b600082620002b657634e487b7160e01b81526012600452602481fd5b500490565b600181811c90821680620002d057607f821691505b60208210811415620002f257634e487b7160e01b600052602260045260246000fd5b50919050565b634e487b7160e01b600052604160045260246000fd5b611552806200031e6000396000f3fe608060405234801561001057600080fd5b50600436106102115760003560e01c80634cfc4d301161012557806395d89b41116100ad578063ae4db9191161007c578063ae4db9191461044f578063b59c2e4114610462578063dd62ed3e1461046b578063f25f8cb3146104a4578063f2fde38b146104b657600080fd5b806395d89b4114610418578063a457c2d714610420578063a790b5ca14610433578063a9059cbb1461043c57600080fd5b806378e97925116100f457806378e97925146103c457806379cc6790146103cd57806384e09fd6146103e05780638cc5ce99146103f25780638da5cb5b1461040557600080fd5b80634cfc4d301461036b57806361d027b3146103755780636605bfda1461038857806370a082311461039b57600080fd5b806318160ddd116101a85780633197cbb6116101775780633197cbb6146102fe578063395093511461030757806342966c681461031a5780634390d2a81461032d5780634744aa7f1461035857600080fd5b806318160ddd146102c157806323b872dd146102c95780632c07a624146102dc578063313ce567146102e457600080fd5b80630ba2f93e116101e45780630ba2f93e1461027f5780630c407d5614610287578063158ef93e1461029a5780631794bb3c146102ae57600080fd5b8063040173151461021657806306fdde0314610232578063095ea7b3146102475780630a0c165a1461026a575b600080fd5b61021f600b5481565b6040519081526020015b60405180910390f35b61023a6104c9565b604051610229919061140a565b61025a6102553660046113a9565b610557565b6040519015158152602001610229565b61027d6102783660046113a9565b61056e565b005b61027d610672565b61027d6102953660046113a9565b6106fe565b60065461025a90600160a01b900460ff1681565b61027d6102bc36600461136e565b6107f5565b60025461021f565b61025a6102d736600461136e565b61091b565b61021f61097d565b6102ec601281565b60405160ff9091168152602001610229565b61021f60085481565b61025a6103153660046113a9565b6109c9565b61027d6103283660046113f2565b6109ff565b600954610340906001600160a01b031681565b6040516001600160a01b039091168152602001610229565b61027d6103663660046113f2565b610a09565b61021f6201518081565b600654610340906001600160a01b031681565b61027d610396366004611322565b610b82565b61021f6103a9366004611322565b6001600160a01b031660009081526020819052604090205490565b61021f60075481565b61027d6103db3660046113a9565b610bbb565b61021f6a108b2a2c2802909400000081565b600a54610340906001600160a01b031681565b600354610340906001600160a01b031681565b61023a610be8565b61025a61042e3660046113a9565b610bf5565b61021f600d5481565b61025a61044a3660046113a9565b610c2b565b61027d61045d366004611322565b610c38565b61021f600c5481565b61021f61047936600461133c565b6001600160a01b03918216600090815260016020908152604080832093909416825291909152205490565b61021f6a422ca8b0a00a425000000081565b61027d6104c4366004611322565b610cdc565b600580546104d6906114cb565b80601f0160208091040260200160405190810160405280929190818152602001828054610502906114cb565b801561054f5780601f106105245761010080835404028352916020019161054f565b820191906000526020600020905b81548152906001019060200180831161053257829003601f168201915b505050505081565b6000610564338484610d22565b5060015b92915050565b600654604051631246dbf560e01b81523360048201526001600160a01b0390911690631246dbf59060240160206040518083038186803b1580156105b157600080fd5b505afa1580156105c5573d6000803e3d6000fd5b505050506040513d601f19601f820116820180604052508101906105e991906113d2565b6106235760405162461bcd60e51b815260206004820152600660248201526521706f6f6c7360d01b60448201526064015b60405180910390fd5b61062d8282610e47565b60405181815230906001600160a01b038416907fdf05d6cb804e48c3130d5f7811e55947769ccdecf499faea489170f17df227cf906020015b60405180910390a35050565b6009546001600160a01b031633146106b55760405162461bcd60e51b815260040161061a9060208082526004908201526310b232bb60e11b604082015260600190565b60006106bf61097d565b90506000811180156106db57506009546001600160a01b031615155b156106fb576009546106f6906001600160a01b031682610e7b565b42600b555b50565b600654604051631246dbf560e01b81523360048201526001600160a01b0390911690631246dbf59060240160206040518083038186803b15801561074157600080fd5b505afa158015610755573d6000803e3d6000fd5b505050506040513d601f19601f8201168201806040525081019061077991906113d2565b6107ae5760405162461bcd60e51b815260206004820152600660248201526521706f6f6c7360d01b604482015260640161061a565b6107b88282610e7b565b6040518181526001600160a01b0383169030907ff4d2b66b63836b39ffec28f88533e0f50c9136ab7d8d9b9976f93d3880e8020590602001610666565b6003546001600160a01b0316331461080c57600080fd5b600654600160a01b900460ff161561085b5760405162461bcd60e51b8152602060048201526012602482015271185b1c9958591e525b9a5d1a585b1a5e995960721b604482015260640161061a565b6001600160a01b0382166108a55760405162461bcd60e51b815260206004820152601160248201527010b932bbb0b93221b7b73a3937b63632b960791b604482015260640161061a565b6006805460ff60a01b1916600160a01b179055600980546001600160a01b038086166001600160a01b031992831617909255600a80549285169290911691909117905560078190556108fa620151808261145d565b600855600b8190556109163369010f0cf064dd59200000610e7b565b505050565b6000610928848484610f52565b61097384336001600160a01b038716600090815260016020526040812061096e91879190335b6001600160a01b03168152602081019190915260400160002054906110bb565b610d22565b5060019392505050565b600854600090429081111561099157506008545b80600b54106109a257600091505090565b6109c3600c546109bd600b54846110bb90919063ffffffff16565b90611104565b91505090565b3360008181526001602090815260408083206001600160a01b0387168452909152812054909161056491859061096e9086611183565b6106fb33826111e2565b6003546001600160a01b03163314610a2057600080fd5b60008111610a605760405162461bcd60e51b815260206004820152600d60248201526c1a5b9d985b1a59105b5bdd5b9d609a1b604482015260640161061a565b600654600160a01b900460ff16610aa85760405162461bcd60e51b815260206004820152600c60248201526b085a5b9a5d1a585b1a5e995960a21b604482015260640161061a565b600a546001600160a01b0316610af45760405162461bcd60e51b815260206004820152601160248201527010b932bbb0b93221b7b73a3937b63632b960791b604482015260640161061a565b6000610b16600d546a422ca8b0a00a42500000006110bb90919063ffffffff16565b905080821115610b585760405162461bcd60e51b815260206004820152600d60248201526c6578636565645265776172647360981b604482015260640161061a565b600d54610b659083611183565b600d55600a54610b7e906001600160a01b031683610e7b565b5050565b6003546001600160a01b03163314610b9957600080fd5b600680546001600160a01b0319166001600160a01b0392909216919091179055565b6000610bd182610bcb8533610479565b906110bb565b9050610bde833383610d22565b61091683836111e2565b600480546104d6906114cb565b3360008181526001602090815260408083206001600160a01b0387168452909152812054909161056491859061096e90866110bb565b6000610564338484610f52565b6009546001600160a01b03163314610c7b5760405162461bcd60e51b815260040161061a9060208082526004908201526310b232bb60e11b604082015260600190565b6001600160a01b038116610cba5760405162461bcd60e51b815260040161061a906020808252600490820152637a65726f60e01b604082015260600190565b600980546001600160a01b0319166001600160a01b0392909216919091179055565b6003546001600160a01b03163314610cf357600080fd5b6001600160a01b038116156106fb57600380546001600160a01b0383166001600160a01b031990911617905550565b6001600160a01b038316610d845760405162461bcd60e51b8152602060048201526024808201527f45524332303a20617070726f76652066726f6d20746865207a65726f206164646044820152637265737360e01b606482015260840161061a565b6001600160a01b038216610de55760405162461bcd60e51b815260206004820152602260248201527f45524332303a20617070726f766520746f20746865207a65726f206164647265604482015261737360f01b606482015260840161061a565b6001600160a01b0383811660008181526001602090815260408083209487168084529482529182902085905590518481527f8c5be1e5ebec7d5bd14f71427d1e84f3dd0314c0f7b2291e5b200ac8c7c3b92591015b60405180910390a3505050565b610e5182826111e2565b610b7e82336001600160a01b038516600090815260016020526040812061096e918691903361094e565b6001600160a01b038216610ed15760405162461bcd60e51b815260206004820152601f60248201527f45524332303a206d696e7420746f20746865207a65726f206164647265737300604482015260640161061a565b600254610ede9082611183565b6002556001600160a01b038216600090815260208190526040902054610f049082611183565b6001600160a01b038316600081815260208181526040808320949094559251848152919290917fddf252ad1be2c89b69c2b068fc378daa952ba7f163c4a11628f55a4df523b3ef9101610666565b6001600160a01b038316610fb65760405162461bcd60e51b815260206004820152602560248201527f45524332303a207472616e736665722066726f6d20746865207a65726f206164604482015264647265737360d81b606482015260840161061a565b6001600160a01b0382166110185760405162461bcd60e51b815260206004820152602360248201527f45524332303a207472616e7366657220746f20746865207a65726f206164647260448201526265737360e81b606482015260840161061a565b6001600160a01b03831660009081526020819052604090205461103b90826110bb565b6001600160a01b03808516600090815260208190526040808220939093559084168152205461106a9082611183565b6001600160a01b038381166000818152602081815260409182902094909455518481529092918616917fddf252ad1be2c89b69c2b068fc378daa952ba7f163c4a11628f55a4df523b3ef9101610e3a565b60006110fd83836040518060400160405280601e81526020017f536166654d6174683a207375627472616374696f6e206f766572666c6f7700008152506112cc565b9392505050565b60008261111357506000610568565b600061111f8385611495565b90508261112c8583611475565b146110fd5760405162461bcd60e51b815260206004820152602160248201527f536166654d6174683a206d756c7469706c69636174696f6e206f766572666c6f6044820152607760f81b606482015260840161061a565b600080611190838561145d565b9050838110156110fd5760405162461bcd60e51b815260206004820152601b60248201527f536166654d6174683a206164646974696f6e206f766572666c6f770000000000604482015260640161061a565b6001600160a01b0382166112425760405162461bcd60e51b815260206004820152602160248201527f45524332303a206275726e2066726f6d20746865207a65726f206164647265736044820152607360f81b606482015260840161061a565b6001600160a01b03821660009081526020819052604090205461126590826110bb565b6001600160a01b03831660009081526020819052604090205560025461128b90826110bb565b6002556040518181526000906001600160a01b038416907fddf252ad1be2c89b69c2b068fc378daa952ba7f163c4a11628f55a4df523b3ef90602001610666565b600081848411156112f05760405162461bcd60e51b815260040161061a919061140a565b5060006112fd84866114b4565b95945050505050565b80356001600160a01b038116811461131d57600080fd5b919050565b600060208284031215611333578081fd5b6110fd82611306565b6000806040838503121561134e578081fd5b61135783611306565b915061136560208401611306565b90509250929050565b600080600060608486031215611382578081fd5b61138b84611306565b925061139960208501611306565b9150604084013590509250925092565b600080604083850312156113bb578182fd5b6113c483611306565b946020939093013593505050565b6000602082840312156113e3578081fd5b815180151581146110fd578182fd5b600060208284031215611403578081fd5b5035919050565b6000602080835283518082850152825b818110156114365785810183015185820160400152820161141a565b818111156114475783604083870101525b50601f01601f1916929092016040019392505050565b6000821982111561147057611470611506565b500190565b60008261149057634e487b7160e01b81526012600452602481fd5b500490565b60008160001904831182151516156114af576114af611506565b500290565b6000828210156114c6576114c6611506565b500390565b600181811c908216806114df57607f821691505b6020821081141561150057634e487b7160e01b600052602260045260246000fd5b50919050565b634e487b7160e01b600052601160045260246000fdfea26469706673582212209fccb1dbc63edc5f0e0f2ea2c3875b281b12ff5d53691fdeaa223bf12283592c64736f6c63430008040033",
  "immutableReferences": {},
  "source": "// SPDX-License-Identifier: MIT\r\npragma solidity 0.8.4;\r\npragma experimental ABIEncoderV2;\r\n\r\n\r\nimport \"./libraries/SafeMath.sol\";\r\nimport \"./interfaces/IDollar.sol\";\r\nimport \"./interfaces/IEpoch.sol\";\r\nimport \"./interfaces/ITreasury.sol\";\r\nimport \"./interfaces/IERC20.sol\";\r\nimport \"./utilityContracts/Context.sol\";\r\nimport \"./utilityContracts/ERC20Custom.sol\";\r\nimport \"./utilityContracts/Ownable.sol\";\r\n\r\n\r\ncontract CNUSD is ERC20Custom, Ownable {\r\n    using SafeMath for uint256;\r\n\r\n    /* ========== STATE VARIABLES ========== */\r\n\r\n    // ERC20 - Token\r\n    string public symbol;\r\n    string public name;\r\n    uint8 public constant decimals = 18;\r\n\r\n    // CONTRACTS\r\n    address public treasury;\r\n\r\n    // FLAGS\r\n    bool public initialized;\r\n\r\n    // DISTRIBUTION\r\n    uint256 public constant COMMUNITY_REWARD_ALLOCATION = 80000000 ether; // 80M\r\n    uint256 public constant DEV_FUND_ALLOCATION = 20000000 ether; // 20M\r\n    uint256 public constant VESTING_DURATION = 1 days;//365 days; // 12 months\r\n    uint256 public startTime; // Start time of vesting duration\r\n    uint256 public endTime; // End of vesting duration\r\n    address public devFund;\r\n    address public rewardController; // Holding SHARE tokens to distribute into Liquiditiy Mining Pools\r\n    uint256 public devFundLastClaimed;\r\n    uint256 public devFundEmissionRate = DEV_FUND_ALLOCATION / VESTING_DURATION;\r\n    uint256 public communityRewardClaimed;\r\n\r\n    /* ========== MODIFIERS ========== */\r\n\r\n    modifier onlyPools() {\r\n        require(ITreasury(treasury).hasPool(msg.sender), \"!pools\");\r\n        _;\r\n    }\r\n\r\n    /* ========== CONSTRUCTOR ========== */\r\n\r\n    constructor(string memory _name, string memory _symbol,  address _treasury){\r\n        name = _name;\r\n        symbol = _symbol;\r\n        treasury = _treasury;\r\n    }\r\n\r\n    function initialize(\r\n        address _devFund,\r\n        address _rewardController,\r\n        uint256 _startTime\r\n    ) external onlyOwner {\r\n        require(!initialized, \"alreadyInitialized\");\r\n        require(_rewardController != address(0), \"!rewardController\");\r\n        initialized = true;\r\n        devFund = _devFund;\r\n        rewardController = _rewardController;\r\n        startTime = _startTime;\r\n        endTime = _startTime + VESTING_DURATION;\r\n        devFundLastClaimed = _startTime;\r\n\r\n        _mint(msg.sender, 5000 ether);\r\n    }\r\n\r\n    function claimCommunityRewards(uint256 amount) external onlyOwner {\r\n        require(amount > 0, \"invalidAmount\");\r\n        require(initialized, \"!initialized\");\r\n        require(rewardController != address(0), \"!rewardController\");\r\n        uint256 _remainingRewards = COMMUNITY_REWARD_ALLOCATION.sub(communityRewardClaimed);\r\n        require(amount <= _remainingRewards, \"exceedRewards\");\r\n        communityRewardClaimed = communityRewardClaimed.add(amount);\r\n        _mint(rewardController, amount);\r\n    }\r\n\r\n    /* ========== RESTRICTED FUNCTIONS ========== */\r\n\r\n    function setTreasuryAddress(address _treasury) external onlyOwner {\r\n        treasury = _treasury;\r\n    }\r\n\r\n    function setDevFund(address _devFund) external {\r\n        require(msg.sender == devFund, \"!dev\");\r\n        require(_devFund != address(0), \"zero\");\r\n        devFund = _devFund;\r\n    }\r\n\r\n    // This function is what other Pools will call to mint new SHARE\r\n    function poolMint(address m_address, uint256 m_amount) external onlyPools {\r\n        super._mint(m_address, m_amount);\r\n        emit ShareMinted(address(this), m_address, m_amount);\r\n    }\r\n\r\n    // This function is what other pools will call to burn SHARE\r\n    function poolBurnFrom(address b_address, uint256 b_amount) external onlyPools {\r\n        super._burnFrom(b_address, b_amount);\r\n        emit ShareBurned(b_address, address(this), b_amount);\r\n    }\r\n\r\n    function unclaimedDevFund() public view returns (uint256 _pending) {\r\n        uint256 _now = block.timestamp;\r\n        if (_now > endTime) _now = endTime;\r\n        if (devFundLastClaimed >= _now) return 0;\r\n        _pending = _now.sub(devFundLastClaimed).mul(devFundEmissionRate);\r\n    }\r\n\r\n    function claimDevFundRewards() external {\r\n        require(msg.sender == devFund, \"!dev\");\r\n        uint256 _pending = unclaimedDevFund();\r\n        if (_pending > 0 && devFund != address(0)) {\r\n            _mint(devFund, _pending);\r\n            devFundLastClaimed = block.timestamp;\r\n        }\r\n    }\r\n\r\n    /* ========== EVENTS ========== */\r\n\r\n    // Track Share burned\r\n    event ShareBurned(address indexed from, address indexed to, uint256 amount);\r\n\r\n    // Track Share minted\r\n    event ShareMinted(address indexed from, address indexed to, uint256 amount);\r\n}\r\n\r\ncontract Dollar is ERC20Custom, IDollar, Ownable {\r\n    using SafeMath for uint256;\r\n\r\n    // ERC20\r\n    string public  symbol;\r\n    string public  name;\r\n    uint8 public constant  decimals = 18;\r\n    uint256 public constant genesis_supply = 5000 ether; // 5000 will be mited at genesis for liq pool seeding\r\n\r\n    // CONTRACTS\r\n    address public treasury;\r\n\r\n    // FLAGS\r\n    bool public initialized;\r\n\r\n    /* ========== MODIFIERS ========== */\r\n\r\n    modifier onlyPools() {\r\n        require(ITreasury(treasury).hasPool(msg.sender), \"!pools\");\r\n        _;\r\n    }\r\n\r\n    /* ========== CONSTRUCTOR ========== */\r\n\r\n    constructor(string memory _name,  string memory _symbol, address _treasury){\r\n        name = _name;\r\n        symbol = _symbol;\r\n        treasury = _treasury;\r\n    }\r\n\r\n    function initialize() external onlyOwner {\r\n        require(!initialized, \"alreadyInitialized\");\r\n        initialized = true;\r\n        _mint(_msgSender(), genesis_supply);\r\n    }\r\n\r\n    /* ========== RESTRICTED FUNCTIONS ========== */\r\n\r\n    // Burn DOLLAR. Can be used by Pool only\r\n    function poolBurnFrom(address _address, uint256 _amount) external override onlyPools {\r\n        super._burnFrom(_address, _amount);\r\n        emit DollarBurned(_address, msg.sender, _amount);\r\n    }\r\n\r\n    // Mint DOLLAR. Can be used by Pool only\r\n    function poolMint(address _address, uint256 _amount) external override onlyPools {\r\n        super._mint(_address, _amount);\r\n        emit DollarMinted(msg.sender, _address, _amount);\r\n    }\r\n\r\n    function setTreasuryAddress(address _treasury) public onlyOwner {\r\n        treasury = _treasury;\r\n    }\r\n\r\n    /* ========== EVENTS ========== */\r\n    event DollarBurned(address indexed from, address indexed to, uint256 amount);// Track DOLLAR burned\r\n    event DollarMinted(address indexed from, address indexed to, uint256 amount);// Track DOLLAR minted\r\n}\r\n",
  "sourcePath": "C:/Users/PaulMuller/Documents/projects/project_AGO/contracts/Dollar.sol",
  "compiler": {
    "name": "solc",
    "version": "0.8.4+commit.c7e474f2.Emscripten.clang"
  },
  "schemaVersion": "3.4.1",
  "updatedAt": "2021-06-23T14:42:39.868Z",
  "devdoc": {
    "kind": "dev",
    "methods": {
      "transferOwnership(address)": {
        "details": "Allows the current owner to transfer control of the contract to a newOwner.",
        "params": {
          "newOwner": "The address to transfer ownership to."
        }
      }
    },
    "version": 1
  },
  "userdoc": {
    "kind": "user",
    "methods": {},
    "version": 1
  }
}