{
  "contractName": "Dollar",
  "abi": [
    {
      "inputs": [
        {
          "internalType": "string",
          "name": "_name",
          "type": "string"
        },
        {
          "internalType": "string",
          "name": "_symbol",
          "type": "string"
        },
        {
          "internalType": "address",
          "name": "_treasury",
          "type": "address"
        },
        {
          "internalType": "uint256",
          "name": "_genesisSupply",
          "type": "uint256"
        }
      ],
      "stateMutability": "nonpayable",
      "type": "constructor"
    },
    {
      "anonymous": false,
      "inputs": [
        {
          "indexed": true,
          "internalType": "address",
          "name": "owner",
          "type": "address"
        },
        {
          "indexed": true,
          "internalType": "address",
          "name": "spender",
          "type": "address"
        },
        {
          "indexed": false,
          "internalType": "uint256",
          "name": "value",
          "type": "uint256"
        }
      ],
      "name": "Approval",
      "type": "event"
    },
    {
      "anonymous": false,
      "inputs": [
        {
          "indexed": true,
          "internalType": "address",
          "name": "from",
          "type": "address"
        },
        {
          "indexed": true,
          "internalType": "address",
          "name": "to",
          "type": "address"
        },
        {
          "indexed": false,
          "internalType": "uint256",
          "name": "amount",
          "type": "uint256"
        }
      ],
      "name": "DollarBurned",
      "type": "event"
    },
    {
      "anonymous": false,
      "inputs": [
        {
          "indexed": true,
          "internalType": "address",
          "name": "from",
          "type": "address"
        },
        {
          "indexed": true,
          "internalType": "address",
          "name": "to",
          "type": "address"
        },
        {
          "indexed": false,
          "internalType": "uint256",
          "name": "amount",
          "type": "uint256"
        }
      ],
      "name": "DollarMinted",
      "type": "event"
    },
    {
      "anonymous": false,
      "inputs": [
        {
          "indexed": false,
          "internalType": "address",
          "name": "treasury",
          "type": "address"
        }
      ],
      "name": "NewTreasuryAddress",
      "type": "event"
    },
    {
      "anonymous": false,
      "inputs": [
        {
          "indexed": true,
          "internalType": "address",
          "name": "previousOwner",
          "type": "address"
        },
        {
          "indexed": true,
          "internalType": "address",
          "name": "newOwner",
          "type": "address"
        }
      ],
      "name": "OwnershipTransferred",
      "type": "event"
    },
    {
      "anonymous": false,
      "inputs": [
        {
          "indexed": true,
          "internalType": "address",
          "name": "from",
          "type": "address"
        },
        {
          "indexed": true,
          "internalType": "address",
          "name": "to",
          "type": "address"
        },
        {
          "indexed": false,
          "internalType": "uint256",
          "name": "value",
          "type": "uint256"
        }
      ],
      "name": "Transfer",
      "type": "event"
    },
    {
      "inputs": [
        {
          "internalType": "address",
          "name": "owner",
          "type": "address"
        },
        {
          "internalType": "address",
          "name": "spender",
          "type": "address"
        }
      ],
      "name": "allowance",
      "outputs": [
        {
          "internalType": "uint256",
          "name": "",
          "type": "uint256"
        }
      ],
      "stateMutability": "view",
      "type": "function"
    },
    {
      "inputs": [
        {
          "internalType": "address",
          "name": "spender",
          "type": "address"
        },
        {
          "internalType": "uint256",
          "name": "amount",
          "type": "uint256"
        }
      ],
      "name": "approve",
      "outputs": [
        {
          "internalType": "bool",
          "name": "",
          "type": "bool"
        }
      ],
      "stateMutability": "nonpayable",
      "type": "function"
    },
    {
      "inputs": [
        {
          "internalType": "address",
          "name": "account",
          "type": "address"
        }
      ],
      "name": "balanceOf",
      "outputs": [
        {
          "internalType": "uint256",
          "name": "",
          "type": "uint256"
        }
      ],
      "stateMutability": "view",
      "type": "function"
    },
    {
      "inputs": [],
      "name": "decimals",
      "outputs": [
        {
          "internalType": "uint8",
          "name": "",
          "type": "uint8"
        }
      ],
      "stateMutability": "view",
      "type": "function"
    },
    {
      "inputs": [
        {
          "internalType": "address",
          "name": "spender",
          "type": "address"
        },
        {
          "internalType": "uint256",
          "name": "subtractedValue",
          "type": "uint256"
        }
      ],
      "name": "decreaseAllowance",
      "outputs": [
        {
          "internalType": "bool",
          "name": "",
          "type": "bool"
        }
      ],
      "stateMutability": "nonpayable",
      "type": "function"
    },
    {
      "inputs": [],
      "name": "genesisSupply",
      "outputs": [
        {
          "internalType": "uint256",
          "name": "",
          "type": "uint256"
        }
      ],
      "stateMutability": "view",
      "type": "function"
    },
    {
      "inputs": [
        {
          "internalType": "address",
          "name": "spender",
          "type": "address"
        },
        {
          "internalType": "uint256",
          "name": "addedValue",
          "type": "uint256"
        }
      ],
      "name": "increaseAllowance",
      "outputs": [
        {
          "internalType": "bool",
          "name": "",
          "type": "bool"
        }
      ],
      "stateMutability": "nonpayable",
      "type": "function"
    },
    {
      "inputs": [],
      "name": "name",
      "outputs": [
        {
          "internalType": "string",
          "name": "",
          "type": "string"
        }
      ],
      "stateMutability": "view",
      "type": "function"
    },
    {
      "inputs": [],
      "name": "owner",
      "outputs": [
        {
          "internalType": "address",
          "name": "",
          "type": "address"
        }
      ],
      "stateMutability": "view",
      "type": "function"
    },
    {
      "inputs": [],
      "name": "renounceOwnership",
      "outputs": [],
      "stateMutability": "nonpayable",
      "type": "function"
    },
    {
      "inputs": [],
      "name": "symbol",
      "outputs": [
        {
          "internalType": "string",
          "name": "",
          "type": "string"
        }
      ],
      "stateMutability": "view",
      "type": "function"
    },
    {
      "inputs": [],
      "name": "totalSupply",
      "outputs": [
        {
          "internalType": "uint256",
          "name": "",
          "type": "uint256"
        }
      ],
      "stateMutability": "view",
      "type": "function"
    },
    {
      "inputs": [
        {
          "internalType": "address",
          "name": "recipient",
          "type": "address"
        },
        {
          "internalType": "uint256",
          "name": "amount",
          "type": "uint256"
        }
      ],
      "name": "transfer",
      "outputs": [
        {
          "internalType": "bool",
          "name": "",
          "type": "bool"
        }
      ],
      "stateMutability": "nonpayable",
      "type": "function"
    },
    {
      "inputs": [
        {
          "internalType": "address",
          "name": "sender",
          "type": "address"
        },
        {
          "internalType": "address",
          "name": "recipient",
          "type": "address"
        },
        {
          "internalType": "uint256",
          "name": "amount",
          "type": "uint256"
        }
      ],
      "name": "transferFrom",
      "outputs": [
        {
          "internalType": "bool",
          "name": "",
          "type": "bool"
        }
      ],
      "stateMutability": "nonpayable",
      "type": "function"
    },
    {
      "inputs": [
        {
          "internalType": "address",
          "name": "newOwner",
          "type": "address"
        }
      ],
      "name": "transferOwnership",
      "outputs": [],
      "stateMutability": "nonpayable",
      "type": "function"
    },
    {
      "inputs": [],
      "name": "treasury",
      "outputs": [
        {
          "internalType": "address",
          "name": "",
          "type": "address"
        }
      ],
      "stateMutability": "view",
      "type": "function"
    },
    {
      "inputs": [],
      "name": "mintGenesisSupply",
      "outputs": [],
      "stateMutability": "nonpayable",
      "type": "function"
    },
    {
      "inputs": [
        {
          "internalType": "address",
          "name": "_treasury",
          "type": "address"
        }
      ],
      "name": "setTreasuryAddress",
      "outputs": [],
      "stateMutability": "nonpayable",
      "type": "function"
    },
    {
      "inputs": [
        {
          "internalType": "address",
          "name": "_address",
          "type": "address"
        },
        {
          "internalType": "uint256",
          "name": "_amount",
          "type": "uint256"
        }
      ],
      "name": "poolBurnFrom",
      "outputs": [],
      "stateMutability": "nonpayable",
      "type": "function"
    },
    {
      "inputs": [
        {
          "internalType": "address",
          "name": "_address",
          "type": "address"
        },
        {
          "internalType": "uint256",
          "name": "_amount",
          "type": "uint256"
        }
      ],
      "name": "poolMint",
      "outputs": [],
      "stateMutability": "nonpayable",
      "type": "function"
    }
  ],
  "bytecode": "0x60806040526006805460ff60a01b191690553480156200001e57600080fd5b506040516200158d3803806200158d833981016040819052620000419162000360565b8351849084906200005a90600390602085019062000207565b5080516200007090600490602084019062000207565b5050506200008d62000087620000a560201b60201c565b620000a9565b6200009882620000fb565b6007555062000442915050565b3390565b600580546001600160a01b038381166001600160a01b0319831681179093556040519116919082907f8be0079c531659141344cd1fd0a4f28419497f9722a3daafe3b4186f6b6457e090600090a35050565b6005546001600160a01b031633146200015b5760405162461bcd60e51b815260206004820181905260248201527f4f776e61626c653a2063616c6c6572206973206e6f7420746865206f776e657260448201526064015b60405180910390fd5b6001600160a01b038116620001b35760405162461bcd60e51b815260206004820152601360248201527f5a65726f20616464726573732070617373656400000000000000000000000000604482015260640162000152565b600680546001600160a01b0319166001600160a01b0383169081179091556040519081527f8b4531436af204a864adc47c345e10cb5c4df79165aa0cb85fc45ac5b551517b9060200160405180910390a150565b8280546200021590620003ef565b90600052602060002090601f01602090048101928262000239576000855562000284565b82601f106200025457805160ff191683800117855562000284565b8280016001018555821562000284579182015b828111156200028457825182559160200191906001019062000267565b506200029292915062000296565b5090565b5b8082111562000292576000815560010162000297565b600082601f830112620002be578081fd5b81516001600160401b0380821115620002db57620002db6200042c565b604051601f8301601f19908116603f011681019082821181831017156200030657620003066200042c565b8160405283815260209250868385880101111562000322578485fd5b8491505b8382101562000345578582018301518183018401529082019062000326565b838211156200035657848385830101525b9695505050505050565b6000806000806080858703121562000376578384fd5b84516001600160401b03808211156200038d578586fd5b6200039b88838901620002ad565b95506020870151915080821115620003b1578485fd5b50620003c087828801620002ad565b604087015190945090506001600160a01b0381168114620003df578283fd5b6060959095015193969295505050565b600181811c908216806200040457607f821691505b602082108114156200042657634e487b7160e01b600052602260045260246000fd5b50919050565b634e487b7160e01b600052604160045260246000fd5b61113b80620004526000396000f3fe608060405234801561001057600080fd5b506004361061012c5760003560e01c80636605bfda116100ad57806395d89b411161007157806395d89b4114610272578063a457c2d71461027a578063a9059cbb1461028d578063dd62ed3e146102a0578063f2fde38b146102d957600080fd5b80636605bfda1461021557806370a0823114610228578063715018a6146102515780638da5cb5b146102595780638f83d3aa1461026a57600080fd5b806323b872dd116100f457806323b872dd146101ac578063313ce567146101bf57806339509351146101ce5780634bbf179b146101e157806361d027b3146101ea57600080fd5b806306fdde0314610131578063095ea7b31461014f5780630a0c165a146101725780630c407d561461018757806318160ddd1461019a575b600080fd5b6101396102ec565b6040516101469190610ffd565b60405180910390f35b61016261015d366004610fb4565b61037e565b6040519015158152602001610146565b610185610180366004610fb4565b610394565b005b610185610195366004610fb4565b610498565b6002545b604051908152602001610146565b6101626101ba366004610f79565b61058f565b60405160128152602001610146565b6101626101dc366004610fb4565b610639565b61019e60075481565b6006546101fd906001600160a01b031681565b6040516001600160a01b039091168152602001610146565b610185610223366004610f26565b610675565b61019e610236366004610f26565b6001600160a01b031660009081526020819052604090205490565b61018561073f565b6005546001600160a01b03166101fd565b610185610775565b610139610856565b610162610288366004610fb4565b610865565b61016261029b366004610fb4565b6108fe565b61019e6102ae366004610f47565b6001600160a01b03918216600090815260016020908152604080832093909416825291909152205490565b6101856102e7366004610f26565b61090b565b6060600380546102fb906110b4565b80601f0160208091040260200160405190810160405280929190818152602001828054610327906110b4565b80156103745780601f1061034957610100808354040283529160200191610374565b820191906000526020600020905b81548152906001019060200180831161035757829003601f168201915b5050505050905090565b600061038b3384846109a6565b50600192915050565b600654604051631246dbf560e01b81523360048201526001600160a01b0390911690631246dbf59060240160206040518083038186803b1580156103d757600080fd5b505afa1580156103eb573d6000803e3d6000fd5b505050506040513d601f19601f8201168201806040525081019061040f9190610fdd565b6104495760405162461bcd60e51b815260206004820152600660248201526521706f6f6c7360d01b60448201526064015b60405180910390fd5b6104538282610acb565b60405181815233906001600160a01b038416907fb53a8a5aa66e96b4627a60632ff728cd6991e142988ea8f28215fae565fe8ad0906020015b60405180910390a35050565b600654604051631246dbf560e01b81523360048201526001600160a01b0390911690631246dbf59060240160206040518083038186803b1580156104db57600080fd5b505afa1580156104ef573d6000803e3d6000fd5b505050506040513d601f19601f820116820180604052508101906105139190610fdd565b6105485760405162461bcd60e51b815260206004820152600660248201526521706f6f6c7360d01b6044820152606401610440565b6105528282610c11565b6040518181526001600160a01b0383169033907f0c0f5df55f02a0601bce877b4f87152a1e95aa77aa55a08f16a8852fcf1f2bf99060200161048c565b600061059c848484610ce9565b6001600160a01b0384166000908152600160209081526040808320338452909152902054828110156106215760405162461bcd60e51b815260206004820152602860248201527f45524332303a207472616e7366657220616d6f756e74206578636565647320616044820152676c6c6f77616e636560c01b6064820152608401610440565b61062e85338584036109a6565b506001949350505050565b3360008181526001602090815260408083206001600160a01b0387168452909152812054909161038b918590610670908690611085565b6109a6565b6005546001600160a01b0316331461069f5760405162461bcd60e51b815260040161044090611050565b6001600160a01b0381166106eb5760405162461bcd60e51b815260206004820152601360248201527216995c9bc81859191c995cdcc81c185cdcd959606a1b6044820152606401610440565b600680546001600160a01b0319166001600160a01b0383169081179091556040519081527f8b4531436af204a864adc47c345e10cb5c4df79165aa0cb85fc45ac5b551517b9060200160405180910390a150565b6005546001600160a01b031633146107695760405162461bcd60e51b815260040161044090611050565b6107736000610eb8565b565b6005546001600160a01b0316331461079f5760405162461bcd60e51b815260040161044090611050565b600654600160a01b900460ff16156107f95760405162461bcd60e51b815260206004820152601a60248201527f67656e65736973537570706c79416c72656164794d696e7465640000000000006044820152606401610440565b6006805460ff60a01b1916600160a01b17905560075461081a903390610c11565b600754604051908152339030907f0c0f5df55f02a0601bce877b4f87152a1e95aa77aa55a08f16a8852fcf1f2bf99060200160405180910390a3565b6060600480546102fb906110b4565b3360009081526001602090815260408083206001600160a01b0386168452909152812054828110156108e75760405162461bcd60e51b815260206004820152602560248201527f45524332303a2064656372656173656420616c6c6f77616e63652062656c6f77604482015264207a65726f60d81b6064820152608401610440565b6108f433858584036109a6565b5060019392505050565b600061038b338484610ce9565b6005546001600160a01b031633146109355760405162461bcd60e51b815260040161044090611050565b6001600160a01b03811661099a5760405162461bcd60e51b815260206004820152602660248201527f4f776e61626c653a206e6577206f776e657220697320746865207a65726f206160448201526564647265737360d01b6064820152608401610440565b6109a381610eb8565b50565b6001600160a01b038316610a085760405162461bcd60e51b8152602060048201526024808201527f45524332303a20617070726f76652066726f6d20746865207a65726f206164646044820152637265737360e01b6064820152608401610440565b6001600160a01b038216610a695760405162461bcd60e51b815260206004820152602260248201527f45524332303a20617070726f766520746f20746865207a65726f206164647265604482015261737360f01b6064820152608401610440565b6001600160a01b0383811660008181526001602090815260408083209487168084529482529182902085905590518481527f8c5be1e5ebec7d5bd14f71427d1e84f3dd0314c0f7b2291e5b200ac8c7c3b92591015b60405180910390a3505050565b6001600160a01b038216610b2b5760405162461bcd60e51b815260206004820152602160248201527f45524332303a206275726e2066726f6d20746865207a65726f206164647265736044820152607360f81b6064820152608401610440565b6001600160a01b03821660009081526020819052604090205481811015610b9f5760405162461bcd60e51b815260206004820152602260248201527f45524332303a206275726e20616d6f756e7420657863656564732062616c616e604482015261636560f01b6064820152608401610440565b6001600160a01b0383166000908152602081905260408120838303905560028054849290610bce90849061109d565b90915550506040518281526000906001600160a01b038516907fddf252ad1be2c89b69c2b068fc378daa952ba7f163c4a11628f55a4df523b3ef90602001610abe565b6001600160a01b038216610c675760405162461bcd60e51b815260206004820152601f60248201527f45524332303a206d696e7420746f20746865207a65726f2061646472657373006044820152606401610440565b8060026000828254610c799190611085565b90915550506001600160a01b03821660009081526020819052604081208054839290610ca6908490611085565b90915550506040518181526001600160a01b038316906000907fddf252ad1be2c89b69c2b068fc378daa952ba7f163c4a11628f55a4df523b3ef9060200161048c565b6001600160a01b038316610d4d5760405162461bcd60e51b815260206004820152602560248201527f45524332303a207472616e736665722066726f6d20746865207a65726f206164604482015264647265737360d81b6064820152608401610440565b6001600160a01b038216610daf5760405162461bcd60e51b815260206004820152602360248201527f45524332303a207472616e7366657220746f20746865207a65726f206164647260448201526265737360e81b6064820152608401610440565b6001600160a01b03831660009081526020819052604090205481811015610e275760405162461bcd60e51b815260206004820152602660248201527f45524332303a207472616e7366657220616d6f756e7420657863656564732062604482015265616c616e636560d01b6064820152608401610440565b6001600160a01b03808516600090815260208190526040808220858503905591851681529081208054849290610e5e908490611085565b92505081905550826001600160a01b0316846001600160a01b03167fddf252ad1be2c89b69c2b068fc378daa952ba7f163c4a11628f55a4df523b3ef84604051610eaa91815260200190565b60405180910390a350505050565b600580546001600160a01b038381166001600160a01b0319831681179093556040519116919082907f8be0079c531659141344cd1fd0a4f28419497f9722a3daafe3b4186f6b6457e090600090a35050565b80356001600160a01b0381168114610f2157600080fd5b919050565b600060208284031215610f37578081fd5b610f4082610f0a565b9392505050565b60008060408385031215610f59578081fd5b610f6283610f0a565b9150610f7060208401610f0a565b90509250929050565b600080600060608486031215610f8d578081fd5b610f9684610f0a565b9250610fa460208501610f0a565b9150604084013590509250925092565b60008060408385031215610fc6578182fd5b610fcf83610f0a565b946020939093013593505050565b600060208284031215610fee578081fd5b81518015158114610f40578182fd5b6000602080835283518082850152825b818110156110295785810183015185820160400152820161100d565b8181111561103a5783604083870101525b50601f01601f1916929092016040019392505050565b6020808252818101527f4f776e61626c653a2063616c6c6572206973206e6f7420746865206f776e6572604082015260600190565b60008219821115611098576110986110ef565b500190565b6000828210156110af576110af6110ef565b500390565b600181811c908216806110c857607f821691505b602082108114156110e957634e487b7160e01b600052602260045260246000fd5b50919050565b634e487b7160e01b600052601160045260246000fdfea26469706673582212208998810b4ff35d92e87b46cc4a650b9e2aa7734d5e8e85f022974d422a7f303b64736f6c63430008040033",
  "immutableReferences": {},
  "source": "// SPDX-License-Identifier: MIT\r\npragma solidity 0.8.4;\r\n\r\nimport \"@openzeppelin/contracts/access/Ownable.sol\";\r\nimport \"@openzeppelin/contracts/token/ERC20/ERC20.sol\";\r\nimport \"./interfaces/IDollar.sol\";\r\nimport \"./interfaces/ITreasury.sol\";\r\n\r\ncontract Dollar is ERC20, IDollar, Ownable {\r\n    address public treasury;\r\n    bool private genesisSupplyMinted = false;\r\n    uint256 public genesisSupply;\r\n\r\n    modifier onlyPools() {\r\n        require(ITreasury(treasury).hasPool(msg.sender), \"!pools\");\r\n        _;\r\n    }\r\n\r\n    event DollarBurned(address indexed from, address indexed to, uint256 amount);\r\n    event DollarMinted(address indexed from, address indexed to, uint256 amount);\r\n    event NewTreasuryAddress(address treasury);\r\n\r\n    constructor(\r\n        string memory _name,  \r\n        string memory _symbol, \r\n        address _treasury,\r\n        uint256 _genesisSupply\r\n    )\r\n        ERC20(_name, _symbol)\r\n    {\r\n        setTreasuryAddress(_treasury);\r\n        genesisSupply = _genesisSupply;\r\n    }\r\n       \r\n    function mintGenesisSupply() external onlyOwner {\r\n        require(!genesisSupplyMinted, \"genesisSupplyAlreadyMinted\");\r\n        genesisSupplyMinted = true;\r\n        _mint(msg.sender, genesisSupply);\r\n        emit DollarMinted(address(this), msg.sender, genesisSupply);\r\n    }\r\n\r\n    function setTreasuryAddress(address _treasury) public onlyOwner {\r\n        require(_treasury != address(0), 'Zero address passed');\r\n        treasury = _treasury;\r\n        emit NewTreasuryAddress(treasury);\r\n    }\r\n\r\n    function poolBurnFrom(address _address, uint256 _amount) external override onlyPools {\r\n        _burn(_address, _amount);\r\n        emit DollarBurned(_address, msg.sender, _amount);\r\n    }\r\n\r\n    // Mint DOLLAR. Can be used by Pool only\r\n    function poolMint(address _address, uint256 _amount) external override onlyPools {\r\n        _mint(_address, _amount);\r\n        emit DollarMinted(msg.sender, _address, _amount);\r\n    }\r\n}\r\n",
  "sourcePath": "C:/Users/PaulMuller/Documents/projects/project_AGO/contracts/Dollar.sol",
  "compiler": {
    "name": "solc",
    "version": "0.8.4+commit.c7e474f2.Emscripten.clang"
  },
  "schemaVersion": "3.4.1",
  "updatedAt": "2021-08-08T11:17:19.623Z",
  "devdoc": {
    "kind": "dev",
    "methods": {
      "allowance(address,address)": {
        "details": "See {IERC20-allowance}."
      },
      "approve(address,uint256)": {
        "details": "See {IERC20-approve}. Requirements: - `spender` cannot be the zero address."
      },
      "balanceOf(address)": {
        "details": "See {IERC20-balanceOf}."
      },
      "decimals()": {
        "details": "Returns the number of decimals used to get its user representation. For example, if `decimals` equals `2`, a balance of `505` tokens should be displayed to a user as `5,05` (`505 / 10 ** 2`). Tokens usually opt for a value of 18, imitating the relationship between Ether and Wei. This is the value {ERC20} uses, unless this function is overridden; NOTE: This information is only used for _display_ purposes: it in no way affects any of the arithmetic of the contract, including {IERC20-balanceOf} and {IERC20-transfer}."
      },
      "decreaseAllowance(address,uint256)": {
        "details": "Atomically decreases the allowance granted to `spender` by the caller. This is an alternative to {approve} that can be used as a mitigation for problems described in {IERC20-approve}. Emits an {Approval} event indicating the updated allowance. Requirements: - `spender` cannot be the zero address. - `spender` must have allowance for the caller of at least `subtractedValue`."
      },
      "increaseAllowance(address,uint256)": {
        "details": "Atomically increases the allowance granted to `spender` by the caller. This is an alternative to {approve} that can be used as a mitigation for problems described in {IERC20-approve}. Emits an {Approval} event indicating the updated allowance. Requirements: - `spender` cannot be the zero address."
      },
      "name()": {
        "details": "Returns the name of the token."
      },
      "owner()": {
        "details": "Returns the address of the current owner."
      },
      "renounceOwnership()": {
        "details": "Leaves the contract without owner. It will not be possible to call `onlyOwner` functions anymore. Can only be called by the current owner. NOTE: Renouncing ownership will leave the contract without an owner, thereby removing any functionality that is only available to the owner."
      },
      "symbol()": {
        "details": "Returns the symbol of the token, usually a shorter version of the name."
      },
      "totalSupply()": {
        "details": "See {IERC20-totalSupply}."
      },
      "transfer(address,uint256)": {
        "details": "See {IERC20-transfer}. Requirements: - `recipient` cannot be the zero address. - the caller must have a balance of at least `amount`."
      },
      "transferFrom(address,address,uint256)": {
        "details": "See {IERC20-transferFrom}. Emits an {Approval} event indicating the updated allowance. This is not required by the EIP. See the note at the beginning of {ERC20}. Requirements: - `sender` and `recipient` cannot be the zero address. - `sender` must have a balance of at least `amount`. - the caller must have allowance for ``sender``'s tokens of at least `amount`."
      },
      "transferOwnership(address)": {
        "details": "Transfers ownership of the contract to a new account (`newOwner`). Can only be called by the current owner."
      }
    },
    "version": 1
  },
  "userdoc": {
    "kind": "user",
    "methods": {},
    "version": 1
  }
}