{
  "contractName": "DollarOracle",
  "abi": [
    {
      "inputs": [
        {
          "internalType": "address",
          "name": "_dollar",
          "type": "address"
        },
        {
          "internalType": "address",
          "name": "_oracleAGOUSDUSDT",
          "type": "address"
        },
        {
          "internalType": "address",
          "name": "_chainlinkUsdtUsd",
          "type": "address"
        }
      ],
      "stateMutability": "nonpayable",
      "type": "constructor"
    },
    {
      "anonymous": false,
      "inputs": [
        {
          "indexed": true,
          "internalType": "address",
          "name": "previousOperator",
          "type": "address"
        },
        {
          "indexed": true,
          "internalType": "address",
          "name": "newOperator",
          "type": "address"
        }
      ],
      "name": "OperatorTransferred",
      "type": "event"
    },
    {
      "anonymous": false,
      "inputs": [
        {
          "indexed": true,
          "internalType": "address",
          "name": "previousOwner",
          "type": "address"
        },
        {
          "indexed": true,
          "internalType": "address",
          "name": "newOwner",
          "type": "address"
        }
      ],
      "name": "OwnershipTransferred",
      "type": "event"
    },
    {
      "inputs": [],
      "name": "chainlinkUsdtUsd",
      "outputs": [
        {
          "internalType": "address",
          "name": "",
          "type": "address"
        }
      ],
      "stateMutability": "view",
      "type": "function"
    },
    {
      "inputs": [],
      "name": "dollar",
      "outputs": [
        {
          "internalType": "address",
          "name": "",
          "type": "address"
        }
      ],
      "stateMutability": "view",
      "type": "function"
    },
    {
      "inputs": [],
      "name": "isOperator",
      "outputs": [
        {
          "internalType": "bool",
          "name": "",
          "type": "bool"
        }
      ],
      "stateMutability": "view",
      "type": "function"
    },
    {
      "inputs": [],
      "name": "operator",
      "outputs": [
        {
          "internalType": "address",
          "name": "",
          "type": "address"
        }
      ],
      "stateMutability": "view",
      "type": "function"
    },
    {
      "inputs": [],
      "name": "oracleAGOUSDUSDT",
      "outputs": [
        {
          "internalType": "address",
          "name": "",
          "type": "address"
        }
      ],
      "stateMutability": "view",
      "type": "function"
    },
    {
      "inputs": [],
      "name": "owner",
      "outputs": [
        {
          "internalType": "address",
          "name": "",
          "type": "address"
        }
      ],
      "stateMutability": "view",
      "type": "function"
    },
    {
      "inputs": [],
      "name": "renounceOwnership",
      "outputs": [],
      "stateMutability": "nonpayable",
      "type": "function"
    },
    {
      "inputs": [
        {
          "internalType": "address",
          "name": "newOperator_",
          "type": "address"
        }
      ],
      "name": "transferOperator",
      "outputs": [],
      "stateMutability": "nonpayable",
      "type": "function"
    },
    {
      "inputs": [
        {
          "internalType": "address",
          "name": "newOwner",
          "type": "address"
        }
      ],
      "name": "transferOwnership",
      "outputs": [],
      "stateMutability": "nonpayable",
      "type": "function"
    },
    {
      "inputs": [],
      "name": "consult",
      "outputs": [
        {
          "internalType": "uint256",
          "name": "",
          "type": "uint256"
        }
      ],
      "stateMutability": "view",
      "type": "function"
    },
    {
      "inputs": [
        {
          "internalType": "address",
          "name": "_chainlinkUsdtUsd",
          "type": "address"
        }
      ],
      "name": "setchainlinkUsdtUsd",
      "outputs": [],
      "stateMutability": "nonpayable",
      "type": "function"
    },
    {
      "inputs": [
        {
          "internalType": "address",
          "name": "_oracleAGOUSDUSDT",
          "type": "address"
        }
      ],
      "name": "setOracleAGOUSDUSDT",
      "outputs": [],
      "stateMutability": "nonpayable",
      "type": "function"
    }
  ],
  "bytecode": "0x6080604052730a6513e40db6eb1b165753ad52e80663aea50545600460006101000a81548173ffffffffffffffffffffffffffffffffffffffff021916908373ffffffffffffffffffffffffffffffffffffffff1602179055503480156200006657600080fd5b50604051620017c1380380620017c183398181016040528101906200008c9190620002f4565b60006200009e620002d560201b60201c565b9050806000806101000a81548173ffffffffffffffffffffffffffffffffffffffff021916908373ffffffffffffffffffffffffffffffffffffffff1602179055508073ffffffffffffffffffffffffffffffffffffffff16600073ffffffffffffffffffffffffffffffffffffffff167f8be0079c531659141344cd1fd0a4f28419497f9722a3daafe3b4186f6b6457e060405160405180910390a3506200014c620002d560201b60201c565b600160006101000a81548173ffffffffffffffffffffffffffffffffffffffff021916908373ffffffffffffffffffffffffffffffffffffffff160217905550600160009054906101000a900473ffffffffffffffffffffffffffffffffffffffff1673ffffffffffffffffffffffffffffffffffffffff16600073ffffffffffffffffffffffffffffffffffffffff167f74da04524d50c64947f5dd5381ef1a4dca5cba8ed1d816243f9e48aa0b5617ed60405160405180910390a382600260006101000a81548173ffffffffffffffffffffffffffffffffffffffff021916908373ffffffffffffffffffffffffffffffffffffffff16021790555081600360006101000a81548173ffffffffffffffffffffffffffffffffffffffff021916908373ffffffffffffffffffffffffffffffffffffffff16021790555080600460006101000a81548173ffffffffffffffffffffffffffffffffffffffff021916908373ffffffffffffffffffffffffffffffffffffffff16021790555050505062000398565b600033905090565b600081519050620002ee816200037e565b92915050565b6000806000606084860312156200030a57600080fd5b60006200031a86828701620002dd565b93505060206200032d86828701620002dd565b92505060406200034086828701620002dd565b9150509250925092565b600062000357826200035e565b9050919050565b600073ffffffffffffffffffffffffffffffffffffffff82169050919050565b62000389816200034a565b81146200039557600080fd5b50565b61141980620003a86000396000f3fe608060405234801561001057600080fd5b50600436106100b45760003560e01c8063715018a611610071578063715018a6146101675780637eeda703146101715780638a80420c1461018f5780638da5cb5b146101ad578063e7207f2c146101cb578063f2fde38b146101e9576100b4565b806329605e77146100b95780633b1377c4146100d55780634456eda2146100f1578063504a34421461010f57806351adeb571461012b578063570ca73514610149575b600080fd5b6100d360048036038101906100ce9190610cc8565b610205565b005b6100ef60048036038101906100ea9190610cc8565b61028d565b005b6100f9610361565b6040516101069190610eb7565b60405180910390f35b61012960048036038101906101249190610cc8565b6103c0565b005b610133610494565b6040516101409190610e73565b60405180910390f35b6101516104ba565b60405161015e9190610e73565b60405180910390f35b61016f6104e4565b005b61017961061e565b6040516101869190610f52565b60405180910390f35b61019761073a565b6040516101a49190610e73565b60405180910390f35b6101b5610760565b6040516101c29190610e73565b60405180910390f35b6101d3610789565b6040516101e09190610e73565b60405180910390f35b61020360048036038101906101fe9190610cc8565b6107af565b005b61020d610958565b73ffffffffffffffffffffffffffffffffffffffff1661022b610760565b73ffffffffffffffffffffffffffffffffffffffff1614610281576040517f08c379a000000000000000000000000000000000000000000000000000000000815260040161027890610f12565b60405180910390fd5b61028a81610960565b50565b3373ffffffffffffffffffffffffffffffffffffffff16600160009054906101000a900473ffffffffffffffffffffffffffffffffffffffff1673ffffffffffffffffffffffffffffffffffffffff161461031d576040517f08c379a000000000000000000000000000000000000000000000000000000000815260040161031490610f32565b60405180910390fd5b80600360006101000a81548173ffffffffffffffffffffffffffffffffffffffff021916908373ffffffffffffffffffffffffffffffffffffffff16021790555050565b6000600160009054906101000a900473ffffffffffffffffffffffffffffffffffffffff1673ffffffffffffffffffffffffffffffffffffffff166103a4610958565b73ffffffffffffffffffffffffffffffffffffffff1614905090565b3373ffffffffffffffffffffffffffffffffffffffff16600160009054906101000a900473ffffffffffffffffffffffffffffffffffffffff1673ffffffffffffffffffffffffffffffffffffffff1614610450576040517f08c379a000000000000000000000000000000000000000000000000000000000815260040161044790610f32565b60405180910390fd5b80600460006101000a81548173ffffffffffffffffffffffffffffffffffffffff021916908373ffffffffffffffffffffffffffffffffffffffff16021790555050565b600260009054906101000a900473ffffffffffffffffffffffffffffffffffffffff1681565b6000600160009054906101000a900473ffffffffffffffffffffffffffffffffffffffff16905090565b6104ec610958565b73ffffffffffffffffffffffffffffffffffffffff1661050a610760565b73ffffffffffffffffffffffffffffffffffffffff1614610560576040517f08c379a000000000000000000000000000000000000000000000000000000000815260040161055790610f12565b60405180910390fd5b600073ffffffffffffffffffffffffffffffffffffffff1660008054906101000a900473ffffffffffffffffffffffffffffffffffffffff1673ffffffffffffffffffffffffffffffffffffffff167f8be0079c531659141344cd1fd0a4f28419497f9722a3daafe3b4186f6b6457e060405160405180910390a360008060006101000a81548173ffffffffffffffffffffffffffffffffffffffff021916908373ffffffffffffffffffffffffffffffffffffffff160217905550565b600080610629610a6f565b90506000600360009054906101000a900473ffffffffffffffffffffffffffffffffffffffff1673ffffffffffffffffffffffffffffffffffffffff16633ddac953600260009054906101000a900473ffffffffffffffffffffffffffffffffffffffff16670de0b6b3a76400006040518363ffffffff1660e01b81526004016106b4929190610e8e565b60206040518083038186803b1580156106cc57600080fd5b505afa1580156106e0573d6000803e3d6000fd5b505050506040513d601f19601f820116820180604052508101906107049190610cf1565b9050610733670de0b6b3a76400006107258385610be090919063ffffffff16565b610c4990919063ffffffff16565b9250505090565b600460009054906101000a900473ffffffffffffffffffffffffffffffffffffffff1681565b60008060009054906101000a900473ffffffffffffffffffffffffffffffffffffffff16905090565b600360009054906101000a900473ffffffffffffffffffffffffffffffffffffffff1681565b6107b7610958565b73ffffffffffffffffffffffffffffffffffffffff166107d5610760565b73ffffffffffffffffffffffffffffffffffffffff161461082b576040517f08c379a000000000000000000000000000000000000000000000000000000000815260040161082290610f12565b60405180910390fd5b600073ffffffffffffffffffffffffffffffffffffffff168173ffffffffffffffffffffffffffffffffffffffff16141561089b576040517f08c379a000000000000000000000000000000000000000000000000000000000815260040161089290610ed2565b60405180910390fd5b8073ffffffffffffffffffffffffffffffffffffffff1660008054906101000a900473ffffffffffffffffffffffffffffffffffffffff1673ffffffffffffffffffffffffffffffffffffffff167f8be0079c531659141344cd1fd0a4f28419497f9722a3daafe3b4186f6b6457e060405160405180910390a3806000806101000a81548173ffffffffffffffffffffffffffffffffffffffff021916908373ffffffffffffffffffffffffffffffffffffffff16021790555050565b600033905090565b600073ffffffffffffffffffffffffffffffffffffffff168173ffffffffffffffffffffffffffffffffffffffff1614156109d0576040517f08c379a00000000000000000000000000000000000000000000000000000000081526004016109c790610ef2565b60405180910390fd5b8073ffffffffffffffffffffffffffffffffffffffff16600073ffffffffffffffffffffffffffffffffffffffff167f74da04524d50c64947f5dd5381ef1a4dca5cba8ed1d816243f9e48aa0b5617ed60405160405180910390a380600160006101000a81548173ffffffffffffffffffffffffffffffffffffffff021916908373ffffffffffffffffffffffffffffffffffffffff16021790555050565b600080600460009054906101000a900473ffffffffffffffffffffffffffffffffffffffff16905060008173ffffffffffffffffffffffffffffffffffffffff1663feaf968c6040518163ffffffff1660e01b815260040160a06040518083038186803b158015610adf57600080fd5b505afa158015610af3573d6000803e3d6000fd5b505050506040513d601f19601f82011682018060405250810190610b179190610d1a565b50505091505060008273ffffffffffffffffffffffffffffffffffffffff1663313ce5676040518163ffffffff1660e01b815260040160206040518083038186803b158015610b6557600080fd5b505afa158015610b79573d6000803e3d6000fd5b505050506040513d601f19601f82011682018060405250810190610b9d9190610d91565b9050610bd881600a610baf9190611002565b610bca670de0b6b3a764000085610be090919063ffffffff16565b610c4990919063ffffffff16565b935050505090565b600080831415610bf35760009050610c43565b8183610bff9190611120565b9050818382610c0e9190610f7e565b14610c42577f4e487b7100000000000000000000000000000000000000000000000000000000600052600160045260246000fd5b5b92915050565b60008183610c579190610f7e565b905092915050565b600081359050610c6e81611370565b92915050565b600081519050610c8381611387565b92915050565b600081519050610c988161139e565b92915050565b600081519050610cad816113cc565b92915050565b600081519050610cc2816113b5565b92915050565b600060208284031215610cda57600080fd5b6000610ce884828501610c5f565b91505092915050565b600060208284031215610d0357600080fd5b6000610d1184828501610c89565b91505092915050565b600080600080600060a08688031215610d3257600080fd5b6000610d4088828901610c9e565b9550506020610d5188828901610c74565b9450506040610d6288828901610c89565b9350506060610d7388828901610c89565b9250506080610d8488828901610c9e565b9150509295509295909350565b600060208284031215610da357600080fd5b6000610db184828501610cb3565b91505092915050565b610dc38161117a565b82525050565b610dd28161118c565b82525050565b6000610de5602683610f6d565b9150610df08261125a565b604082019050919050565b6000610e08602d83610f6d565b9150610e13826112a9565b604082019050919050565b6000610e2b602083610f6d565b9150610e36826112f8565b602082019050919050565b6000610e4e602483610f6d565b9150610e5982611321565b604082019050919050565b610e6d816111c2565b82525050565b6000602082019050610e886000830184610dba565b92915050565b6000604082019050610ea36000830185610dba565b610eb06020830184610e64565b9392505050565b6000602082019050610ecc6000830184610dc9565b92915050565b60006020820190508181036000830152610eeb81610dd8565b9050919050565b60006020820190508181036000830152610f0b81610dfb565b9050919050565b60006020820190508181036000830152610f2b81610e1e565b9050919050565b60006020820190508181036000830152610f4b81610e41565b9050919050565b6000602082019050610f676000830184610e64565b92915050565b600082825260208201905092915050565b6000610f89826111c2565b9150610f94836111c2565b925082610fa457610fa361121e565b5b828204905092915050565b6000808291508390505b6001851115610ff957808604811115610fd557610fd46111ef565b5b6001851615610fe45780820291505b8081029050610ff28561124d565b9450610fb9565b94509492505050565b600061100d826111c2565b9150611018836111cc565b92506110457fffffffffffffffffffffffffffffffffffffffffffffffffffffffffffffffff848461104d565b905092915050565b60008261105d5760019050611119565b8161106b5760009050611119565b8160018114611081576002811461108b576110ba565b6001915050611119565b60ff84111561109d5761109c6111ef565b5b8360020a9150848211156110b4576110b36111ef565b5b50611119565b5060208310610133831016604e8410600b84101617156110ef5782820a9050838111156110ea576110e96111ef565b5b611119565b6110fc8484846001610faf565b92509050818404811115611113576111126111ef565b5b81810290505b9392505050565b600061112b826111c2565b9150611136836111c2565b9250817fffffffffffffffffffffffffffffffffffffffffffffffffffffffffffffffff048311821515161561116f5761116e6111ef565b5b828202905092915050565b6000611185826111a2565b9050919050565b60008115159050919050565b6000819050919050565b600073ffffffffffffffffffffffffffffffffffffffff82169050919050565b6000819050919050565b600060ff82169050919050565b600069ffffffffffffffffffff82169050919050565b7f4e487b7100000000000000000000000000000000000000000000000000000000600052601160045260246000fd5b7f4e487b7100000000000000000000000000000000000000000000000000000000600052601260045260246000fd5b60008160011c9050919050565b7f4f776e61626c653a206e6577206f776e657220697320746865207a65726f206160008201527f6464726573730000000000000000000000000000000000000000000000000000602082015250565b7f6f70657261746f723a207a65726f206164647265737320676976656e20666f7260008201527f206e6577206f70657261746f7200000000000000000000000000000000000000602082015250565b7f4f776e61626c653a2063616c6c6572206973206e6f7420746865206f776e6572600082015250565b7f6f70657261746f723a2063616c6c6572206973206e6f7420746865206f70657260008201527f61746f7200000000000000000000000000000000000000000000000000000000602082015250565b6113798161117a565b811461138457600080fd5b50565b61139081611198565b811461139b57600080fd5b50565b6113a7816111c2565b81146113b257600080fd5b50565b6113be816111cc565b81146113c957600080fd5b50565b6113d5816111d9565b81146113e057600080fd5b5056fea26469706673582212206ced8435f4479aff7d3c1188ea894a8621517a864677f0e2fe20c4887d54100264736f6c63430008040033",
  "immutableReferences": {},
  "source": "// SPDX-License-Identifier: MIT\npragma solidity 0.8.4;\npragma experimental ABIEncoderV2;\n\n\nlibrary SafeMath {\n  function mul(uint256 a, uint256 b) internal pure returns (uint256 c) {\n    if (a == 0) {return 0;}\n    c = a * b;\n    assert(c / a == b);\n    return c;\n  }\n\n  function div(uint256 a, uint256 b) internal pure returns (uint256) {\n    return a / b;\n  }\n\n  function sub(uint256 a, uint256 b) internal pure returns (uint256) {\n    assert(b <= a);\n    return a - b;\n  }\n\n  function add(uint256 a, uint256 b) internal pure returns (uint256 c) {\n    c = a + b;\n    assert(c >= a);\n    return c;\n  }\n}\n\ninterface AggregatorV3Interface {\n    function decimals() external view returns (uint8);\n    function description() external view returns (string memory);\n    function version() external view returns (uint256);\n    function latestAnswer() external view returns(int256);\n    function getRoundData(uint80 _roundId) external view returns (\n        uint80 roundId,\n        int256 answer,\n        uint256 startedAt,\n        uint256 updatedAt,\n        uint80 answeredInRound\n    );\n    function latestRoundData() external view returns (\n        uint80 roundId,\n        int256 answer,\n        uint256 startedAt,\n        uint256 updatedAt,\n        uint80 answeredInRound\n    );\n}\n\ninterface IOracle {\n    function consult() external view returns (uint256);\n}\n\ninterface IPairOracle {\n    function consult(address token, uint256 amountIn) external view returns (uint256 amountOut);\n    function update() external;\n}\n\nabstract contract Context {\n    function _msgSender() internal view virtual returns (address) {\n        return msg.sender;\n    }\n\n    function _msgData() internal view virtual returns (bytes calldata) {\n        this;\n        return msg.data;\n    }\n}\n\nabstract contract Ownable is Context {\n    address private _owner;\n    event OwnershipTransferred(address indexed previousOwner, address indexed newOwner);\n\n    constructor () {\n        address msgSender = _msgSender();\n        _owner = msgSender;\n        emit OwnershipTransferred(address(0), msgSender);\n    }\n\n    function owner() public view virtual returns (address) {\n        return _owner;\n    }\n\n    modifier onlyOwner() {\n        require(owner() == _msgSender(), \"Ownable: caller is not the owner\");\n        _;\n    }\n\n    function renounceOwnership() public virtual onlyOwner {\n        emit OwnershipTransferred(_owner, address(0));\n        _owner = address(0);\n    }\n\n    function transferOwnership(address newOwner) public virtual onlyOwner {\n        require(newOwner != address(0), \"Ownable: new owner is the zero address\");\n        emit OwnershipTransferred(_owner, newOwner);\n        _owner = newOwner;\n    }\n}\n\nabstract contract Operator is Context, Ownable {\n    address private _operator;\n\n    event OperatorTransferred(address indexed previousOperator, address indexed newOperator);\n\n    constructor(){\n        _operator = _msgSender();\n        emit OperatorTransferred(address(0), _operator);\n    }\n\n    function operator() public view returns (address) {\n        return _operator;\n    }\n\n    modifier onlyOperator() {\n        require(_operator == msg.sender, \"operator: caller is not the operator\");\n        _;\n    }\n\n    function isOperator() public view returns (bool) {\n        return _msgSender() == _operator;\n    }\n\n    function transferOperator(address newOperator_) public onlyOwner {\n        _transferOperator(newOperator_);\n    }\n\n    function _transferOperator(address newOperator_) internal {\n        require(newOperator_ != address(0), \"operator: zero address given for new operator\");\n        emit OperatorTransferred(address(0), newOperator_);\n        _operator = newOperator_;\n    }\n}\n\ncontract DollarOracle is Operator, IOracle {\n    using SafeMath for uint256;\n    address public dollar;\n    address public oracleAGOUSDUSDT;\n    address public chainlinkUsdtUsd = 0x0A6513e40db6EB1b165753AD52E80663aeA50545;\n\n    uint256 private constant PRICE_PRECISION = 1e18;\n\n    constructor(\n        address _dollar,\n        address _oracleAGOUSDUSDT,\n        address _chainlinkUsdtUsd\n    ){\n        dollar = _dollar;\n        oracleAGOUSDUSDT = _oracleAGOUSDUSDT;\n        chainlinkUsdtUsd = _chainlinkUsdtUsd;\n    }\n\n    function consult() external view override returns (uint256) {\n        uint256 _priceUsdtUsd = priceUsdtUsd();\n        uint256 _priceAGOUSDUSDT = IPairOracle(oracleAGOUSDUSDT).consult(dollar, PRICE_PRECISION);\n        return _priceUsdtUsd.mul(_priceAGOUSDUSDT).div(PRICE_PRECISION);\n    }\n\n    function priceUsdtUsd() internal view returns (uint256) {\n        AggregatorV3Interface _priceFeed = AggregatorV3Interface(chainlinkUsdtUsd);\n        (, int256 _price, , , ) = _priceFeed.latestRoundData();\n        uint8 _decimals = _priceFeed.decimals();\n        return uint256(_price).mul(PRICE_PRECISION).div(uint256(10)**_decimals);\n    }\n\n    function setchainlinkUsdtUsd(address _chainlinkUsdtUsd) external onlyOperator {\n        chainlinkUsdtUsd = _chainlinkUsdtUsd;\n    }\n\n    function setOracleAGOUSDUSDT(address _oracleAGOUSDUSDT) external onlyOperator {\n        oracleAGOUSDUSDT = _oracleAGOUSDUSDT;\n    }\n}\n",
  "sourcePath": "/home/kali/Documents/project_AGO/contracts/oracle/DollarOracle.sol",
  "compiler": {
    "name": "solc",
    "version": "0.8.4+commit.c7e474f2.Emscripten.clang"
  },
  "schemaVersion": "3.3.4",
  "updatedAt": "2021-06-23T02:20:51.118Z",
  "devdoc": {
    "kind": "dev",
    "methods": {},
    "version": 1
  },
  "userdoc": {
    "kind": "user",
    "methods": {},
    "version": 1
  }
}