{
  "contractName": "DollarOracle",
  "abi": [
    {
      "inputs": [
        {
          "internalType": "address",
          "name": "_dollar",
          "type": "address"
        },
        {
          "internalType": "address",
          "name": "_oracleAGOUSDUSDT",
          "type": "address"
        },
        {
          "internalType": "address",
          "name": "_chainlinkUsdtUsd",
          "type": "address"
        }
      ],
      "stateMutability": "nonpayable",
      "type": "constructor"
    },
    {
      "anonymous": false,
      "inputs": [
        {
          "indexed": true,
          "internalType": "address",
          "name": "previousOperator",
          "type": "address"
        },
        {
          "indexed": true,
          "internalType": "address",
          "name": "newOperator",
          "type": "address"
        }
      ],
      "name": "OperatorTransferred",
      "type": "event"
    },
    {
      "anonymous": false,
      "inputs": [
        {
          "indexed": true,
          "internalType": "address",
          "name": "previousOwner",
          "type": "address"
        },
        {
          "indexed": true,
          "internalType": "address",
          "name": "newOwner",
          "type": "address"
        }
      ],
      "name": "OwnershipTransferred",
      "type": "event"
    },
    {
      "inputs": [],
      "name": "chainlinkUsdtUsd",
      "outputs": [
        {
          "internalType": "address",
          "name": "",
          "type": "address"
        }
      ],
      "stateMutability": "view",
      "type": "function",
      "constant": true
    },
    {
      "inputs": [],
      "name": "dollar",
      "outputs": [
        {
          "internalType": "address",
          "name": "",
          "type": "address"
        }
      ],
      "stateMutability": "view",
      "type": "function",
      "constant": true
    },
    {
      "inputs": [],
      "name": "isOperator",
      "outputs": [
        {
          "internalType": "bool",
          "name": "",
          "type": "bool"
        }
      ],
      "stateMutability": "view",
      "type": "function",
      "constant": true
    },
    {
      "inputs": [],
      "name": "operator",
      "outputs": [
        {
          "internalType": "address",
          "name": "",
          "type": "address"
        }
      ],
      "stateMutability": "view",
      "type": "function",
      "constant": true
    },
    {
      "inputs": [],
      "name": "oracleAGOUSDUSDT",
      "outputs": [
        {
          "internalType": "address",
          "name": "",
          "type": "address"
        }
      ],
      "stateMutability": "view",
      "type": "function",
      "constant": true
    },
    {
      "inputs": [],
      "name": "owner",
      "outputs": [
        {
          "internalType": "address",
          "name": "",
          "type": "address"
        }
      ],
      "stateMutability": "view",
      "type": "function",
      "constant": true
    },
    {
      "inputs": [],
      "name": "renounceOwnership",
      "outputs": [],
      "stateMutability": "nonpayable",
      "type": "function"
    },
    {
      "inputs": [
        {
          "internalType": "address",
          "name": "newOperator_",
          "type": "address"
        }
      ],
      "name": "transferOperator",
      "outputs": [],
      "stateMutability": "nonpayable",
      "type": "function"
    },
    {
      "inputs": [
        {
          "internalType": "address",
          "name": "newOwner",
          "type": "address"
        }
      ],
      "name": "transferOwnership",
      "outputs": [],
      "stateMutability": "nonpayable",
      "type": "function"
    },
    {
      "inputs": [],
      "name": "consult",
      "outputs": [
        {
          "internalType": "uint256",
          "name": "",
          "type": "uint256"
        }
      ],
      "stateMutability": "view",
      "type": "function",
      "constant": true
    },
    {
      "inputs": [
        {
          "internalType": "address",
          "name": "_chainlinkUsdtUsd",
          "type": "address"
        }
      ],
      "name": "setchainlinkUsdtUsd",
      "outputs": [],
      "stateMutability": "nonpayable",
      "type": "function"
    },
    {
      "inputs": [
        {
          "internalType": "address",
          "name": "_oracleAGOUSDUSDT",
          "type": "address"
        }
      ],
      "name": "setOracleAGOUSDUSDT",
      "outputs": [],
      "stateMutability": "nonpayable",
      "type": "function"
    }
  ],
  "bytecode": "0x6080604052600480546001600160a01b031916730a6513e40db6eb1b165753ad52e80663aea5054517905534801561003657600080fd5b50604051610b3b380380610b3b83398101604081905261005591610134565b600080546001600160a01b031916339081178255604051909182917f8be0079c531659141344cd1fd0a4f28419497f9722a3daafe3b4186f6b6457e0908290a350600180546001600160a01b031916339081179091556040516000907f74da04524d50c64947f5dd5381ef1a4dca5cba8ed1d816243f9e48aa0b5617ed908290a3600280546001600160a01b039485166001600160a01b031991821617909155600380549385169382169390931790925560048054919093169116179055610176565b80516001600160a01b038116811461012f57600080fd5b919050565b600080600060608486031215610148578283fd5b61015184610118565b925061015f60208501610118565b915061016d60408501610118565b90509250925092565b6109b6806101856000396000f3fe608060405234801561001057600080fd5b50600436106100b45760003560e01c8063715018a611610071578063715018a6146101535780637eeda7031461015b5780638a80420c146101715780638da5cb5b14610184578063e7207f2c14610195578063f2fde38b146101a857600080fd5b806329605e77146100b95780633b1377c4146100ce5780634456eda2146100e1578063504a34421461010457806351adeb5714610117578063570ca73514610142575b600080fd5b6100cc6100c7366004610715565b6101bb565b005b6100cc6100dc366004610715565b6101fa565b6001546001600160a01b0316331460405190151581526020015b60405180910390f35b6100cc610112366004610715565b610246565b60025461012a906001600160a01b031681565b6040516001600160a01b0390911681526020016100fb565b6001546001600160a01b031661012a565b6100cc610292565b610163610306565b6040519081526020016100fb565b60045461012a906001600160a01b031681565b6000546001600160a01b031661012a565b60035461012a906001600160a01b031681565b6100cc6101b6366004610715565b6103c9565b6000546001600160a01b031633146101ee5760405162461bcd60e51b81526004016101e5906107c4565b60405180910390fd5b6101f7816104b3565b50565b6001546001600160a01b031633146102245760405162461bcd60e51b81526004016101e5906107f9565b600380546001600160a01b0319166001600160a01b0392909216919091179055565b6001546001600160a01b031633146102705760405162461bcd60e51b81526004016101e5906107f9565b600480546001600160a01b0319166001600160a01b0392909216919091179055565b6000546001600160a01b031633146102bc5760405162461bcd60e51b81526004016101e5906107c4565b600080546040516001600160a01b03909116907f8be0079c531659141344cd1fd0a4f28419497f9722a3daafe3b4186f6b6457e0908390a3600080546001600160a01b0319169055565b600080610311610577565b600354600254604051633ddac95360e01b81526001600160a01b039182166004820152670de0b6b3a76400006024820152929350600092911690633ddac9539060440160206040518083038186803b15801561036c57600080fd5b505afa158015610380573d6000803e3d6000fd5b505050506040513d601f19601f820116820180604052508101906103a4919061073c565b90506103c2670de0b6b3a76400006103bc848461069c565b906106e3565b9250505090565b6000546001600160a01b031633146103f35760405162461bcd60e51b81526004016101e5906107c4565b6001600160a01b0381166104585760405162461bcd60e51b815260206004820152602660248201527f4f776e61626c653a206e6577206f776e657220697320746865207a65726f206160448201526564647265737360d01b60648201526084016101e5565b600080546040516001600160a01b03808516939216917f8be0079c531659141344cd1fd0a4f28419497f9722a3daafe3b4186f6b6457e091a3600080546001600160a01b0319166001600160a01b0392909216919091179055565b6001600160a01b03811661051f5760405162461bcd60e51b815260206004820152602d60248201527f6f70657261746f723a207a65726f206164647265737320676976656e20666f7260448201526c103732bb9037b832b930ba37b960991b60648201526084016101e5565b6040516001600160a01b038216906000907f74da04524d50c64947f5dd5381ef1a4dca5cba8ed1d816243f9e48aa0b5617ed908290a3600180546001600160a01b0319166001600160a01b0392909216919091179055565b6004805460408051633fabe5a360e21b815290516000936001600160a01b03909316928492849263feaf968c928281019260a0929190829003018186803b1580156105c157600080fd5b505afa1580156105d5573d6000803e3d6000fd5b505050506040513d601f19601f820116820180604052508101906105f99190610754565b5050509150506000826001600160a01b031663313ce5676040518163ffffffff1660e01b815260040160206040518083038186803b15801561063a57600080fd5b505afa15801561064e573d6000803e3d6000fd5b505050506040513d601f19601f8201168201806040525081019061067291906107a3565b905061069461068282600a6108a0565b6103bc84670de0b6b3a764000061069c565b935050505090565b6000826106ab575060006106dd565b6106b5828461094b565b9050816106c2848361083d565b146106dd57634e487b7160e01b600052600160045260246000fd5b92915050565b60006106ef828461083d565b9392505050565b805169ffffffffffffffffffff8116811461071057600080fd5b919050565b600060208284031215610726578081fd5b81356001600160a01b03811681146106ef578182fd5b60006020828403121561074d578081fd5b5051919050565b600080600080600060a0868803121561076b578081fd5b610774866106f6565b9450602086015193506040860151925060608601519150610797608087016106f6565b90509295509295909350565b6000602082840312156107b4578081fd5b815160ff811681146106ef578182fd5b6020808252818101527f4f776e61626c653a2063616c6c6572206973206e6f7420746865206f776e6572604082015260600190565b60208082526024908201527f6f70657261746f723a2063616c6c6572206973206e6f7420746865206f70657260408201526330ba37b960e11b606082015260800190565b60008261085857634e487b7160e01b81526012600452602481fd5b500490565b600181815b8085111561089857816000190482111561087e5761087e61096a565b8085161561088b57918102915b93841c9390800290610862565b509250929050565b60006106ef60ff8416836000826108b9575060016106dd565b816108c6575060006106dd565b81600181146108dc57600281146108e657610902565b60019150506106dd565b60ff8411156108f7576108f761096a565b50506001821b6106dd565b5060208310610133831016604e8410600b8410161715610925575081810a6106dd565b61092f838361085d565b80600019048211156109435761094361096a565b029392505050565b60008160001904831182151516156109655761096561096a565b500290565b634e487b7160e01b600052601160045260246000fdfea2646970667358221220be27309b2ab367f7938953dd4585146e3315e749e3e9e82984d70c92614f90fe64736f6c63430008040033",
  "immutableReferences": {},
  "source": "// SPDX-License-Identifier: MIT\r\npragma solidity 0.8.4;\r\npragma experimental ABIEncoderV2;\r\n\r\n\r\nlibrary SafeMath {\r\n  function mul(uint256 a, uint256 b) internal pure returns (uint256 c) {\r\n    if (a == 0) {return 0;}\r\n    c = a * b;\r\n    assert(c / a == b);\r\n    return c;\r\n  }\r\n\r\n  function div(uint256 a, uint256 b) internal pure returns (uint256) {\r\n    return a / b;\r\n  }\r\n\r\n  function sub(uint256 a, uint256 b) internal pure returns (uint256) {\r\n    assert(b <= a);\r\n    return a - b;\r\n  }\r\n\r\n  function add(uint256 a, uint256 b) internal pure returns (uint256 c) {\r\n    c = a + b;\r\n    assert(c >= a);\r\n    return c;\r\n  }\r\n}\r\n\r\ninterface AggregatorV3Interface {\r\n    function decimals() external view returns (uint8);\r\n    function description() external view returns (string memory);\r\n    function version() external view returns (uint256);\r\n    function latestAnswer() external view returns(int256);\r\n    function getRoundData(uint80 _roundId) external view returns (\r\n        uint80 roundId,\r\n        int256 answer,\r\n        uint256 startedAt,\r\n        uint256 updatedAt,\r\n        uint80 answeredInRound\r\n    );\r\n    function latestRoundData() external view returns (\r\n        uint80 roundId,\r\n        int256 answer,\r\n        uint256 startedAt,\r\n        uint256 updatedAt,\r\n        uint80 answeredInRound\r\n    );\r\n}\r\n\r\ninterface IOracle {\r\n    function consult() external view returns (uint256);\r\n}\r\n\r\ninterface IPairOracle {\r\n    function consult(address token, uint256 amountIn) external view returns (uint256 amountOut);\r\n    function update() external;\r\n}\r\n\r\nabstract contract Context {\r\n    function _msgSender() internal view virtual returns (address) {\r\n        return msg.sender;\r\n    }\r\n\r\n    function _msgData() internal view virtual returns (bytes calldata) {\r\n        this;\r\n        return msg.data;\r\n    }\r\n}\r\n\r\nabstract contract Ownable is Context {\r\n    address private _owner;\r\n    event OwnershipTransferred(address indexed previousOwner, address indexed newOwner);\r\n\r\n    constructor () {\r\n        address msgSender = _msgSender();\r\n        _owner = msgSender;\r\n        emit OwnershipTransferred(address(0), msgSender);\r\n    }\r\n\r\n    function owner() public view virtual returns (address) {\r\n        return _owner;\r\n    }\r\n\r\n    modifier onlyOwner() {\r\n        require(owner() == _msgSender(), \"Ownable: caller is not the owner\");\r\n        _;\r\n    }\r\n\r\n    function renounceOwnership() public virtual onlyOwner {\r\n        emit OwnershipTransferred(_owner, address(0));\r\n        _owner = address(0);\r\n    }\r\n\r\n    function transferOwnership(address newOwner) public virtual onlyOwner {\r\n        require(newOwner != address(0), \"Ownable: new owner is the zero address\");\r\n        emit OwnershipTransferred(_owner, newOwner);\r\n        _owner = newOwner;\r\n    }\r\n}\r\n\r\nabstract contract Operator is Context, Ownable {\r\n    address private _operator;\r\n\r\n    event OperatorTransferred(address indexed previousOperator, address indexed newOperator);\r\n\r\n    constructor(){\r\n        _operator = _msgSender();\r\n        emit OperatorTransferred(address(0), _operator);\r\n    }\r\n\r\n    function operator() public view returns (address) {\r\n        return _operator;\r\n    }\r\n\r\n    modifier onlyOperator() {\r\n        require(_operator == msg.sender, \"operator: caller is not the operator\");\r\n        _;\r\n    }\r\n\r\n    function isOperator() public view returns (bool) {\r\n        return _msgSender() == _operator;\r\n    }\r\n\r\n    function transferOperator(address newOperator_) public onlyOwner {\r\n        _transferOperator(newOperator_);\r\n    }\r\n\r\n    function _transferOperator(address newOperator_) internal {\r\n        require(newOperator_ != address(0), \"operator: zero address given for new operator\");\r\n        emit OperatorTransferred(address(0), newOperator_);\r\n        _operator = newOperator_;\r\n    }\r\n}\r\n\r\ncontract DollarOracle is Operator, IOracle {\r\n    using SafeMath for uint256;\r\n    address public dollar;\r\n    address public oracleAGOUSDUSDT;\r\n    address public chainlinkUsdtUsd = 0x0A6513e40db6EB1b165753AD52E80663aeA50545;\r\n\r\n    uint256 private constant PRICE_PRECISION = 1e18;\r\n\r\n    constructor(\r\n        address _dollar,\r\n        address _oracleAGOUSDUSDT,\r\n        address _chainlinkUsdtUsd\r\n    ){\r\n        dollar = _dollar;\r\n        oracleAGOUSDUSDT = _oracleAGOUSDUSDT;\r\n        chainlinkUsdtUsd = _chainlinkUsdtUsd;\r\n    }\r\n\r\n    function consult() external view override returns (uint256) {\r\n        uint256 _priceUsdtUsd = priceUsdtUsd();\r\n        uint256 _priceAGOUSDUSDT = IPairOracle(oracleAGOUSDUSDT).consult(dollar, PRICE_PRECISION);\r\n        return _priceUsdtUsd.mul(_priceAGOUSDUSDT).div(PRICE_PRECISION);\r\n    }\r\n\r\n    function priceUsdtUsd() internal view returns (uint256) {\r\n        AggregatorV3Interface _priceFeed = AggregatorV3Interface(chainlinkUsdtUsd);\r\n        (, int256 _price, , , ) = _priceFeed.latestRoundData();\r\n        uint8 _decimals = _priceFeed.decimals();\r\n        return uint256(_price).mul(PRICE_PRECISION).div(uint256(10)**_decimals);\r\n    }\r\n\r\n    function setchainlinkUsdtUsd(address _chainlinkUsdtUsd) external onlyOperator {\r\n        chainlinkUsdtUsd = _chainlinkUsdtUsd;\r\n    }\r\n\r\n    function setOracleAGOUSDUSDT(address _oracleAGOUSDUSDT) external onlyOperator {\r\n        oracleAGOUSDUSDT = _oracleAGOUSDUSDT;\r\n    }\r\n}\r\n",
  "sourcePath": "C:/Users/PaulMuller/Documents/projects/project_AGO/contracts/oracle/DollarOracle.sol",
  "compiler": {
    "name": "solc",
    "version": "0.8.4+commit.c7e474f2.Emscripten.clang"
  },
  "schemaVersion": "3.4.1",
  "updatedAt": "2021-06-23T10:50:16.922Z",
  "networkType": "ethereum",
  "devdoc": {
    "kind": "dev",
    "methods": {},
    "version": 1
  },
  "userdoc": {
    "kind": "user",
    "methods": {},
    "version": 1
  }
}