{
  "contractName": "Dollar",
  "abi": [
    {
      "inputs": [
        {
          "internalType": "string",
          "name": "_name",
          "type": "string"
        },
        {
          "internalType": "string",
          "name": "_symbol",
          "type": "string"
        },
        {
          "internalType": "address",
          "name": "_treasury",
          "type": "address"
        }
      ],
      "stateMutability": "nonpayable",
      "type": "constructor"
    },
    {
      "anonymous": false,
      "inputs": [
        {
          "indexed": true,
          "internalType": "address",
          "name": "owner",
          "type": "address"
        },
        {
          "indexed": true,
          "internalType": "address",
          "name": "spender",
          "type": "address"
        },
        {
          "indexed": false,
          "internalType": "uint256",
          "name": "value",
          "type": "uint256"
        }
      ],
      "name": "Approval",
      "type": "event"
    },
    {
      "anonymous": false,
      "inputs": [
        {
          "indexed": true,
          "internalType": "address",
          "name": "from",
          "type": "address"
        },
        {
          "indexed": true,
          "internalType": "address",
          "name": "to",
          "type": "address"
        },
        {
          "indexed": false,
          "internalType": "uint256",
          "name": "amount",
          "type": "uint256"
        }
      ],
      "name": "DollarBurned",
      "type": "event"
    },
    {
      "anonymous": false,
      "inputs": [
        {
          "indexed": true,
          "internalType": "address",
          "name": "from",
          "type": "address"
        },
        {
          "indexed": true,
          "internalType": "address",
          "name": "to",
          "type": "address"
        },
        {
          "indexed": false,
          "internalType": "uint256",
          "name": "amount",
          "type": "uint256"
        }
      ],
      "name": "DollarMinted",
      "type": "event"
    },
    {
      "anonymous": false,
      "inputs": [
        {
          "indexed": true,
          "internalType": "address",
          "name": "from",
          "type": "address"
        },
        {
          "indexed": true,
          "internalType": "address",
          "name": "to",
          "type": "address"
        },
        {
          "indexed": false,
          "internalType": "uint256",
          "name": "value",
          "type": "uint256"
        }
      ],
      "name": "Transfer",
      "type": "event"
    },
    {
      "inputs": [
        {
          "internalType": "address",
          "name": "owner",
          "type": "address"
        },
        {
          "internalType": "address",
          "name": "spender",
          "type": "address"
        }
      ],
      "name": "allowance",
      "outputs": [
        {
          "internalType": "uint256",
          "name": "",
          "type": "uint256"
        }
      ],
      "stateMutability": "view",
      "type": "function"
    },
    {
      "inputs": [
        {
          "internalType": "address",
          "name": "spender",
          "type": "address"
        },
        {
          "internalType": "uint256",
          "name": "amount",
          "type": "uint256"
        }
      ],
      "name": "approve",
      "outputs": [
        {
          "internalType": "bool",
          "name": "",
          "type": "bool"
        }
      ],
      "stateMutability": "nonpayable",
      "type": "function"
    },
    {
      "inputs": [
        {
          "internalType": "address",
          "name": "account",
          "type": "address"
        }
      ],
      "name": "balanceOf",
      "outputs": [
        {
          "internalType": "uint256",
          "name": "",
          "type": "uint256"
        }
      ],
      "stateMutability": "view",
      "type": "function"
    },
    {
      "inputs": [
        {
          "internalType": "uint256",
          "name": "amount",
          "type": "uint256"
        }
      ],
      "name": "burn",
      "outputs": [],
      "stateMutability": "nonpayable",
      "type": "function"
    },
    {
      "inputs": [
        {
          "internalType": "address",
          "name": "account",
          "type": "address"
        },
        {
          "internalType": "uint256",
          "name": "amount",
          "type": "uint256"
        }
      ],
      "name": "burnFrom",
      "outputs": [],
      "stateMutability": "nonpayable",
      "type": "function"
    },
    {
      "inputs": [],
      "name": "decimals",
      "outputs": [
        {
          "internalType": "uint8",
          "name": "",
          "type": "uint8"
        }
      ],
      "stateMutability": "view",
      "type": "function"
    },
    {
      "inputs": [
        {
          "internalType": "address",
          "name": "spender",
          "type": "address"
        },
        {
          "internalType": "uint256",
          "name": "subtractedValue",
          "type": "uint256"
        }
      ],
      "name": "decreaseAllowance",
      "outputs": [
        {
          "internalType": "bool",
          "name": "",
          "type": "bool"
        }
      ],
      "stateMutability": "nonpayable",
      "type": "function"
    },
    {
      "inputs": [],
      "name": "genesis_supply",
      "outputs": [
        {
          "internalType": "uint256",
          "name": "",
          "type": "uint256"
        }
      ],
      "stateMutability": "view",
      "type": "function"
    },
    {
      "inputs": [
        {
          "internalType": "address",
          "name": "spender",
          "type": "address"
        },
        {
          "internalType": "uint256",
          "name": "addedValue",
          "type": "uint256"
        }
      ],
      "name": "increaseAllowance",
      "outputs": [
        {
          "internalType": "bool",
          "name": "",
          "type": "bool"
        }
      ],
      "stateMutability": "nonpayable",
      "type": "function"
    },
    {
      "inputs": [],
      "name": "initialized",
      "outputs": [
        {
          "internalType": "bool",
          "name": "",
          "type": "bool"
        }
      ],
      "stateMutability": "view",
      "type": "function"
    },
    {
      "inputs": [],
      "name": "name",
      "outputs": [
        {
          "internalType": "string",
          "name": "",
          "type": "string"
        }
      ],
      "stateMutability": "view",
      "type": "function"
    },
    {
      "inputs": [],
      "name": "owner",
      "outputs": [
        {
          "internalType": "address",
          "name": "",
          "type": "address"
        }
      ],
      "stateMutability": "view",
      "type": "function"
    },
    {
      "inputs": [],
      "name": "symbol",
      "outputs": [
        {
          "internalType": "string",
          "name": "",
          "type": "string"
        }
      ],
      "stateMutability": "view",
      "type": "function"
    },
    {
      "inputs": [],
      "name": "totalSupply",
      "outputs": [
        {
          "internalType": "uint256",
          "name": "",
          "type": "uint256"
        }
      ],
      "stateMutability": "view",
      "type": "function"
    },
    {
      "inputs": [
        {
          "internalType": "address",
          "name": "recipient",
          "type": "address"
        },
        {
          "internalType": "uint256",
          "name": "amount",
          "type": "uint256"
        }
      ],
      "name": "transfer",
      "outputs": [
        {
          "internalType": "bool",
          "name": "",
          "type": "bool"
        }
      ],
      "stateMutability": "nonpayable",
      "type": "function"
    },
    {
      "inputs": [
        {
          "internalType": "address",
          "name": "sender",
          "type": "address"
        },
        {
          "internalType": "address",
          "name": "recipient",
          "type": "address"
        },
        {
          "internalType": "uint256",
          "name": "amount",
          "type": "uint256"
        }
      ],
      "name": "transferFrom",
      "outputs": [
        {
          "internalType": "bool",
          "name": "",
          "type": "bool"
        }
      ],
      "stateMutability": "nonpayable",
      "type": "function"
    },
    {
      "inputs": [
        {
          "internalType": "address",
          "name": "newOwner",
          "type": "address"
        }
      ],
      "name": "transferOwnership",
      "outputs": [],
      "stateMutability": "nonpayable",
      "type": "function"
    },
    {
      "inputs": [],
      "name": "treasury",
      "outputs": [
        {
          "internalType": "address",
          "name": "",
          "type": "address"
        }
      ],
      "stateMutability": "view",
      "type": "function"
    },
    {
      "inputs": [],
      "name": "initialize",
      "outputs": [],
      "stateMutability": "nonpayable",
      "type": "function"
    },
    {
      "inputs": [
        {
          "internalType": "address",
          "name": "_address",
          "type": "address"
        },
        {
          "internalType": "uint256",
          "name": "_amount",
          "type": "uint256"
        }
      ],
      "name": "poolBurnFrom",
      "outputs": [],
      "stateMutability": "nonpayable",
      "type": "function"
    },
    {
      "inputs": [
        {
          "internalType": "address",
          "name": "_address",
          "type": "address"
        },
        {
          "internalType": "uint256",
          "name": "_amount",
          "type": "uint256"
        }
      ],
      "name": "poolMint",
      "outputs": [],
      "stateMutability": "nonpayable",
      "type": "function"
    },
    {
      "inputs": [
        {
          "internalType": "address",
          "name": "_treasury",
          "type": "address"
        }
      ],
      "name": "setTreasuryAddress",
      "outputs": [],
      "stateMutability": "nonpayable",
      "type": "function"
    }
  ],
  "bytecode": "0x60806040523480156200001157600080fd5b5060405162001279380380620012798339810160408190526200003491620001f4565b600380546001600160a01b0319163317905582516200005b9060059060208601906200009b565b508151620000719060049060208501906200009b565b50600680546001600160a01b0319166001600160a01b039290921691909117905550620002d09050565b828054620000a9906200027d565b90600052602060002090601f016020900481019282620000cd576000855562000118565b82601f10620000e857805160ff191683800117855562000118565b8280016001018555821562000118579182015b8281111562000118578251825591602001919060010190620000fb565b50620001269291506200012a565b5090565b5b808211156200012657600081556001016200012b565b600082601f83011262000152578081fd5b81516001600160401b03808211156200016f576200016f620002ba565b604051601f8301601f19908116603f011681019082821181831017156200019a576200019a620002ba565b81604052838152602092508683858801011115620001b6578485fd5b8491505b83821015620001d95785820183015181830184015290820190620001ba565b83821115620001ea57848385830101525b9695505050505050565b60008060006060848603121562000209578283fd5b83516001600160401b038082111562000220578485fd5b6200022e8783880162000141565b9450602086015191508082111562000244578384fd5b50620002538682870162000141565b604086015190935090506001600160a01b038116811462000272578182fd5b809150509250925092565b600181811c908216806200029257607f821691505b60208210811415620002b457634e487b7160e01b600052602260045260246000fd5b50919050565b634e487b7160e01b600052604160045260246000fd5b610f9980620002e06000396000f3fe608060405234801561001057600080fd5b50600436106101425760003560e01c806361d027b3116100b85780638da5cb5b1161007c5780638da5cb5b146102bc57806395d89b41146102cf578063a457c2d7146102d7578063a9059cbb146102ea578063dd62ed3e146102fd578063f2fde38b1461033657600080fd5b806361d027b31461023a5780636605bfda1461026557806370a082311461027857806379cc6790146102a15780638129fc1c146102b457600080fd5b806318160ddd1161010a57806318160ddd146101c457806323b872dd146101d6578063313ce567146101e9578063395093511461020357806342966c681461021657806351e238e31461022957600080fd5b806306fdde0314610147578063095ea7b3146101655780630a0c165a146101885780630c407d561461019d578063158ef93e146101b0575b600080fd5b61014f610349565b60405161015c9190610e90565b60405180910390f35b610178610173366004610e2f565b6103d7565b604051901515815260200161015c565b61019b610196366004610e2f565b6103ed565b005b61019b6101ab366004610e2f565b6104f1565b60065461017890600160a01b900460ff1681565b6002545b60405190815260200161015c565b6101786101e4366004610df4565b6105e8565b6101f1601281565b60405160ff909116815260200161015c565b610178610211366004610e2f565b61064a565b61019b610224366004610e78565b610680565b6101c869010f0cf064dd5920000081565b60065461024d906001600160a01b031681565b6040516001600160a01b03909116815260200161015c565b61019b610273366004610da8565b61068d565b6101c8610286366004610da8565b6001600160a01b031660009081526020819052604090205490565b61019b6102af366004610e2f565b6106c6565b61019b6106f8565b60035461024d906001600160a01b031681565b61014f61078d565b6101786102e5366004610e2f565b61079a565b6101786102f8366004610e2f565b6107d0565b6101c861030b366004610dc2565b6001600160a01b03918216600090815260016020908152604080832093909416825291909152205490565b61019b610344366004610da8565b6107dd565b6005805461035690610f12565b80601f016020809104026020016040519081016040528092919081815260200182805461038290610f12565b80156103cf5780601f106103a4576101008083540402835291602001916103cf565b820191906000526020600020905b8154815290600101906020018083116103b257829003601f168201915b505050505081565b60006103e4338484610823565b50600192915050565b600654604051631246dbf560e01b81523360048201526001600160a01b0390911690631246dbf59060240160206040518083038186803b15801561043057600080fd5b505afa158015610444573d6000803e3d6000fd5b505050506040513d601f19601f820116820180604052508101906104689190610e58565b6104a25760405162461bcd60e51b815260206004820152600660248201526521706f6f6c7360d01b60448201526064015b60405180910390fd5b6104ac8282610948565b60405181815233906001600160a01b038416907fb53a8a5aa66e96b4627a60632ff728cd6991e142988ea8f28215fae565fe8ad0906020015b60405180910390a35050565b600654604051631246dbf560e01b81523360048201526001600160a01b0390911690631246dbf59060240160206040518083038186803b15801561053457600080fd5b505afa158015610548573d6000803e3d6000fd5b505050506040513d601f19601f8201168201806040525081019061056c9190610e58565b6105a15760405162461bcd60e51b815260206004820152600660248201526521706f6f6c7360d01b6044820152606401610499565b6105ab8282610980565b6040518181526001600160a01b0383169033907f0c0f5df55f02a0601bce877b4f87152a1e95aa77aa55a08f16a8852fcf1f2bf9906020016104e5565b60006105f5848484610a57565b61064084336001600160a01b038716600090815260016020526040812061063b91879190335b6001600160a01b0316815260208101919091526040016000205490610bc0565b610823565b5060019392505050565b3360008181526001602090815260408083206001600160a01b038716845290915281205490916103e491859061063b9086610c09565b61068a3382610c68565b50565b6003546001600160a01b031633146106a457600080fd5b600680546001600160a01b0319166001600160a01b0392909216919091179055565b60006106dc826106d6853361030b565b90610bc0565b90506106e9833383610823565b6106f38383610c68565b505050565b6003546001600160a01b0316331461070f57600080fd5b600654600160a01b900460ff161561075e5760405162461bcd60e51b8152602060048201526012602482015271185b1c9958591e525b9a5d1a585b1a5e995960721b6044820152606401610499565b6006805460ff60a01b1916600160a01b17905561078b61077b3390565b69010f0cf064dd59200000610980565b565b6004805461035690610f12565b3360008181526001602090815260408083206001600160a01b038716845290915281205490916103e491859061063b9086610bc0565b60006103e4338484610a57565b6003546001600160a01b031633146107f457600080fd5b6001600160a01b0381161561068a57600380546001600160a01b0383166001600160a01b031990911617905550565b6001600160a01b0383166108855760405162461bcd60e51b8152602060048201526024808201527f45524332303a20617070726f76652066726f6d20746865207a65726f206164646044820152637265737360e01b6064820152608401610499565b6001600160a01b0382166108e65760405162461bcd60e51b815260206004820152602260248201527f45524332303a20617070726f766520746f20746865207a65726f206164647265604482015261737360f01b6064820152608401610499565b6001600160a01b0383811660008181526001602090815260408083209487168084529482529182902085905590518481527f8c5be1e5ebec7d5bd14f71427d1e84f3dd0314c0f7b2291e5b200ac8c7c3b92591015b60405180910390a3505050565b6109528282610c68565b61097c82336001600160a01b038516600090815260016020526040812061063b918691903361061b565b5050565b6001600160a01b0382166109d65760405162461bcd60e51b815260206004820152601f60248201527f45524332303a206d696e7420746f20746865207a65726f2061646472657373006044820152606401610499565b6002546109e39082610c09565b6002556001600160a01b038216600090815260208190526040902054610a099082610c09565b6001600160a01b038316600081815260208181526040808320949094559251848152919290917fddf252ad1be2c89b69c2b068fc378daa952ba7f163c4a11628f55a4df523b3ef91016104e5565b6001600160a01b038316610abb5760405162461bcd60e51b815260206004820152602560248201527f45524332303a207472616e736665722066726f6d20746865207a65726f206164604482015264647265737360d81b6064820152608401610499565b6001600160a01b038216610b1d5760405162461bcd60e51b815260206004820152602360248201527f45524332303a207472616e7366657220746f20746865207a65726f206164647260448201526265737360e81b6064820152608401610499565b6001600160a01b038316600090815260208190526040902054610b409082610bc0565b6001600160a01b038085166000908152602081905260408082209390935590841681522054610b6f9082610c09565b6001600160a01b038381166000818152602081815260409182902094909455518481529092918616917fddf252ad1be2c89b69c2b068fc378daa952ba7f163c4a11628f55a4df523b3ef910161093b565b6000610c0283836040518060400160405280601e81526020017f536166654d6174683a207375627472616374696f6e206f766572666c6f770000815250610d52565b9392505050565b600080610c168385610ee3565b905083811015610c025760405162461bcd60e51b815260206004820152601b60248201527f536166654d6174683a206164646974696f6e206f766572666c6f7700000000006044820152606401610499565b6001600160a01b038216610cc85760405162461bcd60e51b815260206004820152602160248201527f45524332303a206275726e2066726f6d20746865207a65726f206164647265736044820152607360f81b6064820152608401610499565b6001600160a01b038216600090815260208190526040902054610ceb9082610bc0565b6001600160a01b038316600090815260208190526040902055600254610d119082610bc0565b6002556040518181526000906001600160a01b038416907fddf252ad1be2c89b69c2b068fc378daa952ba7f163c4a11628f55a4df523b3ef906020016104e5565b60008184841115610d765760405162461bcd60e51b81526004016104999190610e90565b506000610d838486610efb565b95945050505050565b80356001600160a01b0381168114610da357600080fd5b919050565b600060208284031215610db9578081fd5b610c0282610d8c565b60008060408385031215610dd4578081fd5b610ddd83610d8c565b9150610deb60208401610d8c565b90509250929050565b600080600060608486031215610e08578081fd5b610e1184610d8c565b9250610e1f60208501610d8c565b9150604084013590509250925092565b60008060408385031215610e41578182fd5b610e4a83610d8c565b946020939093013593505050565b600060208284031215610e69578081fd5b81518015158114610c02578182fd5b600060208284031215610e89578081fd5b5035919050565b6000602080835283518082850152825b81811015610ebc57858101830151858201604001528201610ea0565b81811115610ecd5783604083870101525b50601f01601f1916929092016040019392505050565b60008219821115610ef657610ef6610f4d565b500190565b600082821015610f0d57610f0d610f4d565b500390565b600181811c90821680610f2657607f821691505b60208210811415610f4757634e487b7160e01b600052602260045260246000fd5b50919050565b634e487b7160e01b600052601160045260246000fdfea2646970667358221220d9af22c40e1f2e06067bf839b4c311a4b7597cf7a2a8dd3b39f14b848a14457364736f6c63430008040033",
  "immutableReferences": {},
  "source": "// SPDX-License-Identifier: MIT\r\npragma solidity 0.8.4;\r\npragma experimental ABIEncoderV2;\r\n\r\n\r\nimport \"./libraries/SafeMath.sol\";\r\nimport \"./interfaces/IDollar.sol\";\r\nimport \"./interfaces/IEpoch.sol\";\r\nimport \"./interfaces/ITreasury.sol\";\r\nimport \"./interfaces/IERC20.sol\";\r\nimport \"./utilityContracts/Context.sol\";\r\nimport \"./utilityContracts/ERC20Custom.sol\";\r\nimport \"./utilityContracts/Ownable.sol\";\r\n\r\n\r\ncontract CNUSD is ERC20Custom, Ownable {\r\n    using SafeMath for uint256;\r\n\r\n    /* ========== STATE VARIABLES ========== */\r\n\r\n    // ERC20 - Token\r\n    string public symbol;\r\n    string public name;\r\n    uint8 public constant decimals = 18;\r\n\r\n    // CONTRACTS\r\n    address public treasury;\r\n\r\n    // FLAGS\r\n    bool public initialized;\r\n\r\n    // DISTRIBUTION\r\n    uint256 public constant COMMUNITY_REWARD_ALLOCATION = 80000000 ether; // 80M\r\n    uint256 public constant DEV_FUND_ALLOCATION = 20000000 ether; // 20M\r\n    uint256 public constant VESTING_DURATION = 1 days;//365 days; // 12 months\r\n    uint256 public startTime; // Start time of vesting duration\r\n    uint256 public endTime; // End of vesting duration\r\n    address public devFund;\r\n    address public rewardController; // Holding SHARE tokens to distribute into Liquiditiy Mining Pools\r\n    uint256 public devFundLastClaimed;\r\n    uint256 public devFundEmissionRate = DEV_FUND_ALLOCATION / VESTING_DURATION;\r\n    uint256 public communityRewardClaimed;\r\n\r\n    /* ========== MODIFIERS ========== */\r\n\r\n    modifier onlyPools() {\r\n        require(ITreasury(treasury).hasPool(msg.sender), \"!pools\");\r\n        _;\r\n    }\r\n\r\n    /* ========== CONSTRUCTOR ========== */\r\n\r\n    constructor(string memory _name, string memory _symbol,  address _treasury){\r\n        name = _name;\r\n        symbol = _symbol;\r\n        treasury = _treasury;\r\n    }\r\n\r\n    function initialize(\r\n        address _devFund,\r\n        address _rewardController,\r\n        uint256 _startTime\r\n    ) external onlyOwner {\r\n        require(!initialized, \"alreadyInitialized\");\r\n        require(_rewardController != address(0), \"!rewardController\");\r\n        initialized = true;\r\n        devFund = _devFund;\r\n        rewardController = _rewardController;\r\n        startTime = _startTime;\r\n        endTime = _startTime + VESTING_DURATION;\r\n        devFundLastClaimed = _startTime;\r\n\r\n        _mint(msg.sender, 5000 ether);\r\n    }\r\n\r\n    function claimCommunityRewards(uint256 amount) external onlyOwner {\r\n        require(amount > 0, \"invalidAmount\");\r\n        require(initialized, \"!initialized\");\r\n        require(rewardController != address(0), \"!rewardController\");\r\n        uint256 _remainingRewards = COMMUNITY_REWARD_ALLOCATION.sub(communityRewardClaimed);\r\n        require(amount <= _remainingRewards, \"exceedRewards\");\r\n        communityRewardClaimed = communityRewardClaimed.add(amount);\r\n        _mint(rewardController, amount);\r\n    }\r\n\r\n    /* ========== RESTRICTED FUNCTIONS ========== */\r\n\r\n    function setTreasuryAddress(address _treasury) external onlyOwner {\r\n        treasury = _treasury;\r\n    }\r\n\r\n    function setDevFund(address _devFund) external {\r\n        require(msg.sender == devFund, \"!dev\");\r\n        require(_devFund != address(0), \"zero\");\r\n        devFund = _devFund;\r\n    }\r\n\r\n    // This function is what other Pools will call to mint new SHARE\r\n    function poolMint(address m_address, uint256 m_amount) external onlyPools {\r\n        super._mint(m_address, m_amount);\r\n        emit ShareMinted(address(this), m_address, m_amount);\r\n    }\r\n\r\n    // This function is what other pools will call to burn SHARE\r\n    function poolBurnFrom(address b_address, uint256 b_amount) external onlyPools {\r\n        super._burnFrom(b_address, b_amount);\r\n        emit ShareBurned(b_address, address(this), b_amount);\r\n    }\r\n\r\n    function unclaimedDevFund() public view returns (uint256 _pending) {\r\n        uint256 _now = block.timestamp;\r\n        if (_now > endTime) _now = endTime;\r\n        if (devFundLastClaimed >= _now) return 0;\r\n        _pending = _now.sub(devFundLastClaimed).mul(devFundEmissionRate);\r\n    }\r\n\r\n    function claimDevFundRewards() external {\r\n        require(msg.sender == devFund, \"!dev\");\r\n        uint256 _pending = unclaimedDevFund();\r\n        if (_pending > 0 && devFund != address(0)) {\r\n            _mint(devFund, _pending);\r\n            devFundLastClaimed = block.timestamp;\r\n        }\r\n    }\r\n\r\n    /* ========== EVENTS ========== */\r\n\r\n    // Track Share burned\r\n    event ShareBurned(address indexed from, address indexed to, uint256 amount);\r\n\r\n    // Track Share minted\r\n    event ShareMinted(address indexed from, address indexed to, uint256 amount);\r\n}\r\n\r\ncontract Dollar is ERC20Custom, IDollar, Ownable {\r\n    using SafeMath for uint256;\r\n\r\n    // ERC20\r\n    string public  symbol;\r\n    string public  name;\r\n    uint8 public constant  decimals = 18;\r\n    uint256 public constant genesis_supply = 5000 ether; // 5000 will be mited at genesis for liq pool seeding\r\n\r\n    // CONTRACTS\r\n    address public treasury;\r\n\r\n    // FLAGS\r\n    bool public initialized;\r\n\r\n    /* ========== MODIFIERS ========== */\r\n\r\n    modifier onlyPools() {\r\n        require(ITreasury(treasury).hasPool(msg.sender), \"!pools\");\r\n        _;\r\n    }\r\n\r\n    /* ========== CONSTRUCTOR ========== */\r\n\r\n    constructor(string memory _name,  string memory _symbol, address _treasury){\r\n        name = _name;\r\n        symbol = _symbol;\r\n        treasury = _treasury;\r\n    }\r\n\r\n    function initialize() external onlyOwner {\r\n        require(!initialized, \"alreadyInitialized\");\r\n        initialized = true;\r\n        _mint(_msgSender(), genesis_supply);\r\n    }\r\n\r\n    /* ========== RESTRICTED FUNCTIONS ========== */\r\n\r\n    // Burn DOLLAR. Can be used by Pool only\r\n    function poolBurnFrom(address _address, uint256 _amount) external override onlyPools {\r\n        super._burnFrom(_address, _amount);\r\n        emit DollarBurned(_address, msg.sender, _amount);\r\n    }\r\n\r\n    // Mint DOLLAR. Can be used by Pool only\r\n    function poolMint(address _address, uint256 _amount) external override onlyPools {\r\n        super._mint(_address, _amount);\r\n        emit DollarMinted(msg.sender, _address, _amount);\r\n    }\r\n\r\n    function setTreasuryAddress(address _treasury) public onlyOwner {\r\n        treasury = _treasury;\r\n    }\r\n\r\n    /* ========== EVENTS ========== */\r\n    event DollarBurned(address indexed from, address indexed to, uint256 amount);// Track DOLLAR burned\r\n    event DollarMinted(address indexed from, address indexed to, uint256 amount);// Track DOLLAR minted\r\n}\r\n",
  "sourcePath": "C:/Users/PaulMuller/Documents/projects/project_AGO/contracts/Dollar.sol",
  "compiler": {
    "name": "solc",
    "version": "0.8.4+commit.c7e474f2.Emscripten.clang"
  },
  "schemaVersion": "3.4.1",
  "updatedAt": "2021-06-30T14:24:16.345Z",
  "devdoc": {
    "kind": "dev",
    "methods": {
      "transferOwnership(address)": {
        "details": "Allows the current owner to transfer control of the contract to a newOwner.",
        "params": {
          "newOwner": "The address to transfer ownership to."
        }
      }
    },
    "version": 1
  },
  "userdoc": {
    "kind": "user",
    "methods": {},
    "version": 1
  }
}