{
  "contractName": "DollarCollateralPairOracle",
  "abi": [
    {
      "inputs": [
        {
          "internalType": "address",
          "name": "pairAddress",
          "type": "address"
        }
      ],
      "stateMutability": "nonpayable",
      "type": "constructor"
    },
    {
      "anonymous": false,
      "inputs": [
        {
          "indexed": true,
          "internalType": "address",
          "name": "previousOperator",
          "type": "address"
        },
        {
          "indexed": true,
          "internalType": "address",
          "name": "newOperator",
          "type": "address"
        }
      ],
      "name": "OperatorTransferred",
      "type": "event"
    },
    {
      "anonymous": false,
      "inputs": [
        {
          "indexed": true,
          "internalType": "address",
          "name": "previousOwner",
          "type": "address"
        },
        {
          "indexed": true,
          "internalType": "address",
          "name": "newOwner",
          "type": "address"
        }
      ],
      "name": "OwnershipTransferred",
      "type": "event"
    },
    {
      "inputs": [],
      "name": "PERIOD",
      "outputs": [
        {
          "internalType": "uint256",
          "name": "",
          "type": "uint256"
        }
      ],
      "stateMutability": "view",
      "type": "function"
    },
    {
      "inputs": [],
      "name": "blockTimestampLast",
      "outputs": [
        {
          "internalType": "uint32",
          "name": "",
          "type": "uint32"
        }
      ],
      "stateMutability": "view",
      "type": "function"
    },
    {
      "inputs": [],
      "name": "isOperator",
      "outputs": [
        {
          "internalType": "bool",
          "name": "",
          "type": "bool"
        }
      ],
      "stateMutability": "view",
      "type": "function"
    },
    {
      "inputs": [],
      "name": "operator",
      "outputs": [
        {
          "internalType": "address",
          "name": "",
          "type": "address"
        }
      ],
      "stateMutability": "view",
      "type": "function"
    },
    {
      "inputs": [],
      "name": "owner",
      "outputs": [
        {
          "internalType": "address",
          "name": "",
          "type": "address"
        }
      ],
      "stateMutability": "view",
      "type": "function"
    },
    {
      "inputs": [],
      "name": "pair",
      "outputs": [
        {
          "internalType": "contract IUniswapLP",
          "name": "",
          "type": "address"
        }
      ],
      "stateMutability": "view",
      "type": "function"
    },
    {
      "inputs": [],
      "name": "price0Average",
      "outputs": [
        {
          "internalType": "uint224",
          "name": "_x",
          "type": "uint224"
        }
      ],
      "stateMutability": "view",
      "type": "function"
    },
    {
      "inputs": [],
      "name": "price0CumulativeLast",
      "outputs": [
        {
          "internalType": "uint256",
          "name": "",
          "type": "uint256"
        }
      ],
      "stateMutability": "view",
      "type": "function"
    },
    {
      "inputs": [],
      "name": "price1Average",
      "outputs": [
        {
          "internalType": "uint224",
          "name": "_x",
          "type": "uint224"
        }
      ],
      "stateMutability": "view",
      "type": "function"
    },
    {
      "inputs": [],
      "name": "price1CumulativeLast",
      "outputs": [
        {
          "internalType": "uint256",
          "name": "",
          "type": "uint256"
        }
      ],
      "stateMutability": "view",
      "type": "function"
    },
    {
      "inputs": [],
      "name": "renounceOwnership",
      "outputs": [],
      "stateMutability": "nonpayable",
      "type": "function"
    },
    {
      "inputs": [],
      "name": "token0",
      "outputs": [
        {
          "internalType": "address",
          "name": "",
          "type": "address"
        }
      ],
      "stateMutability": "view",
      "type": "function"
    },
    {
      "inputs": [],
      "name": "token1",
      "outputs": [
        {
          "internalType": "address",
          "name": "",
          "type": "address"
        }
      ],
      "stateMutability": "view",
      "type": "function"
    },
    {
      "inputs": [
        {
          "internalType": "address",
          "name": "newOperator_",
          "type": "address"
        }
      ],
      "name": "transferOperator",
      "outputs": [],
      "stateMutability": "nonpayable",
      "type": "function"
    },
    {
      "inputs": [
        {
          "internalType": "address",
          "name": "newOwner",
          "type": "address"
        }
      ],
      "name": "transferOwnership",
      "outputs": [],
      "stateMutability": "nonpayable",
      "type": "function"
    },
    {
      "inputs": [
        {
          "internalType": "uint256",
          "name": "_period",
          "type": "uint256"
        }
      ],
      "name": "setPeriod",
      "outputs": [],
      "stateMutability": "nonpayable",
      "type": "function"
    },
    {
      "inputs": [],
      "name": "update",
      "outputs": [],
      "stateMutability": "nonpayable",
      "type": "function"
    },
    {
      "inputs": [
        {
          "internalType": "address",
          "name": "token",
          "type": "address"
        },
        {
          "internalType": "uint256",
          "name": "amountIn",
          "type": "uint256"
        }
      ],
      "name": "consult",
      "outputs": [
        {
          "internalType": "uint256",
          "name": "amountOut",
          "type": "uint256"
        }
      ],
      "stateMutability": "view",
      "type": "function"
    }
  ],
  "bytecode": "0x60e06040526102586002553480156200001757600080fd5b50604051620024f2380380620024f283398181016040528101906200003d91906200060a565b60006200004f620005a660201b60201c565b9050806000806101000a81548173ffffffffffffffffffffffffffffffffffffffff021916908373ffffffffffffffffffffffffffffffffffffffff1602179055508073ffffffffffffffffffffffffffffffffffffffff16600073ffffffffffffffffffffffffffffffffffffffff167f8be0079c531659141344cd1fd0a4f28419497f9722a3daafe3b4186f6b6457e060405160405180910390a350620000fd620005a660201b60201c565b600160006101000a81548173ffffffffffffffffffffffffffffffffffffffff021916908373ffffffffffffffffffffffffffffffffffffffff160217905550600160009054906101000a900473ffffffffffffffffffffffffffffffffffffffff1673ffffffffffffffffffffffffffffffffffffffff16600073ffffffffffffffffffffffffffffffffffffffff167f74da04524d50c64947f5dd5381ef1a4dca5cba8ed1d816243f9e48aa0b5617ed60405160405180910390a360008190508073ffffffffffffffffffffffffffffffffffffffff1660808173ffffffffffffffffffffffffffffffffffffffff1660601b815250508073ffffffffffffffffffffffffffffffffffffffff16630dfe16816040518163ffffffff1660e01b815260040160206040518083038186803b1580156200023d57600080fd5b505afa15801562000252573d6000803e3d6000fd5b505050506040513d601f19601f820116820180604052508101906200027891906200060a565b73ffffffffffffffffffffffffffffffffffffffff1660a08173ffffffffffffffffffffffffffffffffffffffff1660601b815250508073ffffffffffffffffffffffffffffffffffffffff1663d21220a76040518163ffffffff1660e01b815260040160206040518083038186803b158015620002f557600080fd5b505afa1580156200030a573d6000803e3d6000fd5b505050506040513d601f19601f820116820180604052508101906200033091906200060a565b73ffffffffffffffffffffffffffffffffffffffff1660c08173ffffffffffffffffffffffffffffffffffffffff1660601b815250508073ffffffffffffffffffffffffffffffffffffffff16635909c0d56040518163ffffffff1660e01b815260040160206040518083038186803b158015620003ad57600080fd5b505afa158015620003c2573d6000803e3d6000fd5b505050506040513d601f19601f82011682018060405250810190620003e891906200068c565b6003819055508073ffffffffffffffffffffffffffffffffffffffff16635a3d54936040518163ffffffff1660e01b815260040160206040518083038186803b1580156200043557600080fd5b505afa1580156200044a573d6000803e3d6000fd5b505050506040513d601f19601f820116820180604052508101906200047091906200068c565b6004819055506000808273ffffffffffffffffffffffffffffffffffffffff16630902f1ac6040518163ffffffff1660e01b815260040160606040518083038186803b158015620004c057600080fd5b505afa158015620004d5573d6000803e3d6000fd5b505050506040513d601f19601f82011682018060405250810190620004fb919062000636565b600560008291906101000a81548163ffffffff021916908363ffffffff1602179055508193508294505050506000826dffffffffffffffffffffffffffff16141580156200055a57506000816dffffffffffffffffffffffffffff1614155b6200059c576040517f08c379a00000000000000000000000000000000000000000000000000000000081526004016200059390620006df565b60405180910390fd5b505050506200080b565b600033905090565b600081519050620005bf81620007a3565b92915050565b600081519050620005d681620007bd565b92915050565b600081519050620005ed81620007d7565b92915050565b6000815190506200060481620007f1565b92915050565b6000602082840312156200061d57600080fd5b60006200062d84828501620005ae565b91505092915050565b6000806000606084860312156200064c57600080fd5b60006200065c86828701620005c5565b93505060206200066f86828701620005c5565b92505060406200068286828701620005f3565b9150509250925092565b6000602082840312156200069f57600080fd5b6000620006af84828501620005dc565b91505092915050565b6000620006c760178362000701565b9150620006d4826200077a565b602082019050919050565b60006020820190508181036000830152620006fa81620006b8565b9050919050565b600082825260208201905092915050565b60006200071f8262000740565b9050919050565b60006dffffffffffffffffffffffffffff82169050919050565b600073ffffffffffffffffffffffffffffffffffffffff82169050919050565b6000819050919050565b600063ffffffff82169050919050565b7f506169724f7261636c653a204e4f5f5245534552564553000000000000000000600082015250565b620007ae8162000712565b8114620007ba57600080fd5b50565b620007c88162000726565b8114620007d457600080fd5b50565b620007e28162000760565b8114620007ee57600080fd5b50565b620007fc816200076a565b81146200080857600080fd5b50565b60805160601c60a05160601c60c05160601c611c9962000859600039600081816105690152610b6d01526000818161031d01526104650152600081816108dd0152610b2d0152611c996000f3fe608060405234801561001057600080fd5b50600436106101165760003560e01c8063715018a6116100a2578063a8aa1b3111610071578063a8aa1b3114610287578063b4d1d795146102a5578063c5700a02146102c3578063d21220a7146102e1578063f2fde38b146102ff57610116565b8063715018a6146102375780638da5cb5b14610241578063a2e620451461025f578063a6bb45391461026957610116565b80634456eda2116100e95780634456eda2146101a1578063570ca735146101bf5780635909c0d5146101dd5780635a3d5493146101fb5780635e6aaf2c1461021957610116565b80630dfe16811461011b5780630f3a9f651461013957806329605e77146101555780633ddac95314610171575b600080fd5b61012361031b565b60405161013091906115ad565b60405180910390f35b610153600480360381019061014e91906113e9565b61033f565b005b61016f600480360381019061016a9190611335565b6103d9565b005b61018b6004803603810190610186919061135e565b610461565b6040516101989190611719565b60405180910390f35b6101a96106a7565b6040516101b691906115c8565b60405180910390f35b6101c7610706565b6040516101d491906115ad565b60405180910390f35b6101e5610730565b6040516101f29190611719565b60405180910390f35b610203610736565b6040516102109190611719565b60405180910390f35b61022161073c565b60405161022e91906116fe565b60405180910390f35b61023f610770565b005b6102496108aa565b60405161025691906115ad565b60405180910390f35b6102676108d3565b005b610271610af7565b60405161027e91906116fe565b60405180910390f35b61028f610b2b565b60405161029c91906115e3565b60405180910390f35b6102ad610b4f565b6040516102ba9190611719565b60405180910390f35b6102cb610b55565b6040516102d89190611734565b60405180910390f35b6102e9610b6b565b6040516102f691906115ad565b60405180910390f35b61031960048036038101906103149190611335565b610b8f565b005b7f000000000000000000000000000000000000000000000000000000000000000081565b3373ffffffffffffffffffffffffffffffffffffffff16600160009054906101000a900473ffffffffffffffffffffffffffffffffffffffff1673ffffffffffffffffffffffffffffffffffffffff16146103cf576040517f08c379a00000000000000000000000000000000000000000000000000000000081526004016103c69061167e565b60405180910390fd5b8060028190555050565b6103e1610d38565b73ffffffffffffffffffffffffffffffffffffffff166103ff6108aa565b73ffffffffffffffffffffffffffffffffffffffff1614610455576040517f08c379a000000000000000000000000000000000000000000000000000000000815260040161044c9061165e565b60405180910390fd5b61045e81610d40565b50565b60007f000000000000000000000000000000000000000000000000000000000000000073ffffffffffffffffffffffffffffffffffffffff168373ffffffffffffffffffffffffffffffffffffffff1614156105675761054c6105478360066040518060200160405290816000820160009054906101000a90047bffffffffffffffffffffffffffffffffffffffffffffffffffffffff167bffffffffffffffffffffffffffffffffffffffffffffffffffffffff167bffffffffffffffffffffffffffffffffffffffffffffffffffffffff1681525050610e4f90919063ffffffff16565b610f1a565b71ffffffffffffffffffffffffffffffffffff1690506106a1565b7f000000000000000000000000000000000000000000000000000000000000000073ffffffffffffffffffffffffffffffffffffffff168373ffffffffffffffffffffffffffffffffffffffff16146105f5576040517f08c379a00000000000000000000000000000000000000000000000000000000081526004016105ec906116be565b60405180910390fd5b61068a6106858360076040518060200160405290816000820160009054906101000a90047bffffffffffffffffffffffffffffffffffffffffffffffffffffffff167bffffffffffffffffffffffffffffffffffffffffffffffffffffffff167bffffffffffffffffffffffffffffffffffffffffffffffffffffffff1681525050610e4f90919063ffffffff16565b610f1a565b71ffffffffffffffffffffffffffffffffffff1690505b92915050565b6000600160009054906101000a900473ffffffffffffffffffffffffffffffffffffffff1673ffffffffffffffffffffffffffffffffffffffff166106ea610d38565b73ffffffffffffffffffffffffffffffffffffffff1614905090565b6000600160009054906101000a900473ffffffffffffffffffffffffffffffffffffffff16905090565b60035481565b60045481565b60078060000160009054906101000a90047bffffffffffffffffffffffffffffffffffffffffffffffffffffffff16905081565b610778610d38565b73ffffffffffffffffffffffffffffffffffffffff166107966108aa565b73ffffffffffffffffffffffffffffffffffffffff16146107ec576040517f08c379a00000000000000000000000000000000000000000000000000000000081526004016107e39061165e565b60405180910390fd5b600073ffffffffffffffffffffffffffffffffffffffff1660008054906101000a900473ffffffffffffffffffffffffffffffffffffffff1673ffffffffffffffffffffffffffffffffffffffff167f8be0079c531659141344cd1fd0a4f28419497f9722a3daafe3b4186f6b6457e060405160405180910390a360008060006101000a81548173ffffffffffffffffffffffffffffffffffffffff021916908373ffffffffffffffffffffffffffffffffffffffff160217905550565b60008060009054906101000a900473ffffffffffffffffffffffffffffffffffffffff16905090565b60008060006109017f0000000000000000000000000000000000000000000000000000000000000000610f2f565b9250925092506000600560009054906101000a900463ffffffff168261092791906118a6565b90506002548163ffffffff161015610974576040517f08c379a000000000000000000000000000000000000000000000000000000000815260040161096b9061163e565b60405180910390fd5b60405180602001604052808263ffffffff16600354876109949190611872565b61099e91906117e7565b7bffffffffffffffffffffffffffffffffffffffffffffffffffffffff16815250600660008201518160000160006101000a8154817bffffffffffffffffffffffffffffffffffffffffffffffffffffffff02191690837bffffffffffffffffffffffffffffffffffffffffffffffffffffffff16021790555090505060405180602001604052808263ffffffff1660045486610a3b9190611872565b610a4591906117e7565b7bffffffffffffffffffffffffffffffffffffffffffffffffffffffff16815250600760008201518160000160006101000a8154817bffffffffffffffffffffffffffffffffffffffffffffffffffffffff02191690837bffffffffffffffffffffffffffffffffffffffffffffffffffffffff160217905550905050836003819055508260048190555081600560006101000a81548163ffffffff021916908363ffffffff16021790555050505050565b60068060000160009054906101000a90047bffffffffffffffffffffffffffffffffffffffffffffffffffffffff16905081565b7f000000000000000000000000000000000000000000000000000000000000000081565b60025481565b600560009054906101000a900463ffffffff1681565b7f000000000000000000000000000000000000000000000000000000000000000081565b610b97610d38565b73ffffffffffffffffffffffffffffffffffffffff16610bb56108aa565b73ffffffffffffffffffffffffffffffffffffffff1614610c0b576040517f08c379a0000000000000000000000000000000000000000000000000000000008152600401610c029061165e565b60405180910390fd5b600073ffffffffffffffffffffffffffffffffffffffff168173ffffffffffffffffffffffffffffffffffffffff161415610c7b576040517f08c379a0000000000000000000000000000000000000000000000000000000008152600401610c72906115fe565b60405180910390fd5b8073ffffffffffffffffffffffffffffffffffffffff1660008054906101000a900473ffffffffffffffffffffffffffffffffffffffff1673ffffffffffffffffffffffffffffffffffffffff167f8be0079c531659141344cd1fd0a4f28419497f9722a3daafe3b4186f6b6457e060405160405180910390a3806000806101000a81548173ffffffffffffffffffffffffffffffffffffffff021916908373ffffffffffffffffffffffffffffffffffffffff16021790555050565b600033905090565b600073ffffffffffffffffffffffffffffffffffffffff168173ffffffffffffffffffffffffffffffffffffffff161415610db0576040517f08c379a0000000000000000000000000000000000000000000000000000000008152600401610da79061161e565b60405180910390fd5b8073ffffffffffffffffffffffffffffffffffffffff16600073ffffffffffffffffffffffffffffffffffffffff167f74da04524d50c64947f5dd5381ef1a4dca5cba8ed1d816243f9e48aa0b5617ed60405160405180910390a380600160006101000a81548173ffffffffffffffffffffffffffffffffffffffff021916908373ffffffffffffffffffffffffffffffffffffffff16021790555050565b610e57611288565b600080831480610ec3575083600001517bffffffffffffffffffffffffffffffffffffffffffffffffffffffff16838486600001517bffffffffffffffffffffffffffffffffffffffffffffffffffffffff16610eb49190611818565b925082610ec191906117e7565b145b610f02576040517f08c379a0000000000000000000000000000000000000000000000000000000008152600401610ef99061169e565b60405180910390fd5b60405180602001604052808281525091505092915050565b6000607060ff168260000151901c9050919050565b6000806000610f3c611190565b905060008490508073ffffffffffffffffffffffffffffffffffffffff16635909c0d56040518163ffffffff1660e01b815260040160206040518083038186803b158015610f8957600080fd5b505afa158015610f9d573d6000803e3d6000fd5b505050506040513d601f19601f82011682018060405250810190610fc19190611412565b93508073ffffffffffffffffffffffffffffffffffffffff16635a3d54936040518163ffffffff1660e01b815260040160206040518083038186803b15801561100957600080fd5b505afa15801561101d573d6000803e3d6000fd5b505050506040513d601f19601f820116820180604052508101906110419190611412565b925060008060008373ffffffffffffffffffffffffffffffffffffffff16630902f1ac6040518163ffffffff1660e01b815260040160606040518083038186803b15801561108e57600080fd5b505afa1580156110a2573d6000803e3d6000fd5b505050506040513d601f19601f820116820180604052508101906110c6919061139a565b9250925092508463ffffffff168163ffffffff161461118557600081866110ed91906118a6565b90508063ffffffff1661110084866111a8565b600001517bffffffffffffffffffffffffffffffffffffffffffffffffffffffff1661112c9190611818565b886111379190611760565b97508063ffffffff1661114a85856111a8565b600001517bffffffffffffffffffffffffffffffffffffffffffffffffffffffff166111769190611818565b876111819190611760565b9650505b505050509193909250565b6000640100000000426111a39190611998565b905090565b6111b061129b565b6000826dffffffffffffffffffffffffffff1611611203576040517f08c379a00000000000000000000000000000000000000000000000000000000081526004016111fa906116de565b60405180910390fd5b6040518060200160405280836dffffffffffffffffffffffffffff16607060ff16866dffffffffffffffffffffffffffff167bffffffffffffffffffffffffffffffffffffffffffffffffffffffff16901b61125f91906117b6565b7bffffffffffffffffffffffffffffffffffffffffffffffffffffffff16815250905092915050565b6040518060200160405280600081525090565b604051806020016040528060007bffffffffffffffffffffffffffffffffffffffffffffffffffffffff1681525090565b6000813590506112db81611c07565b92915050565b6000815190506112f081611c1e565b92915050565b60008135905061130581611c35565b92915050565b60008151905061131a81611c35565b92915050565b60008151905061132f81611c4c565b92915050565b60006020828403121561134757600080fd5b6000611355848285016112cc565b91505092915050565b6000806040838503121561137157600080fd5b600061137f858286016112cc565b9250506020611390858286016112f6565b9150509250929050565b6000806000606084860312156113af57600080fd5b60006113bd868287016112e1565b93505060206113ce868287016112e1565b92505060406113df86828701611320565b9150509250925092565b6000602082840312156113fb57600080fd5b6000611409848285016112f6565b91505092915050565b60006020828403121561142457600080fd5b60006114328482850161130b565b91505092915050565b611444816118da565b82525050565b611453816118ec565b82525050565b61146281611974565b82525050565b600061147560268361174f565b915061148082611a27565b604082019050919050565b6000611498602d8361174f565b91506114a382611a76565b604082019050919050565b60006114bb601e8361174f565b91506114c682611ac5565b602082019050919050565b60006114de60208361174f565b91506114e982611aee565b602082019050919050565b600061150160248361174f565b915061150c82611b17565b604082019050919050565b600061152460238361174f565b915061152f82611b66565b604082019050919050565b600061154760198361174f565b915061155282611bb5565b602082019050919050565b600061156a60178361174f565b915061157582611bde565b602082019050919050565b61158981611932565b82525050565b6115988161195a565b82525050565b6115a781611964565b82525050565b60006020820190506115c2600083018461143b565b92915050565b60006020820190506115dd600083018461144a565b92915050565b60006020820190506115f86000830184611459565b92915050565b6000602082019050818103600083015261161781611468565b9050919050565b600060208201905081810360008301526116378161148b565b9050919050565b60006020820190508181036000830152611657816114ae565b9050919050565b60006020820190508181036000830152611677816114d1565b9050919050565b60006020820190508181036000830152611697816114f4565b9050919050565b600060208201905081810360008301526116b781611517565b9050919050565b600060208201905081810360008301526116d78161153a565b9050919050565b600060208201905081810360008301526116f78161155d565b9050919050565b60006020820190506117136000830184611580565b92915050565b600060208201905061172e600083018461158f565b92915050565b6000602082019050611749600083018461159e565b92915050565b600082825260208201905092915050565b600061176b8261195a565b91506117768361195a565b9250827fffffffffffffffffffffffffffffffffffffffffffffffffffffffffffffffff038211156117ab576117aa6119c9565b5b828201905092915050565b60006117c182611932565b91506117cc83611932565b9250826117dc576117db6119f8565b5b828204905092915050565b60006117f28261195a565b91506117fd8361195a565b92508261180d5761180c6119f8565b5b828204905092915050565b60006118238261195a565b915061182e8361195a565b9250817fffffffffffffffffffffffffffffffffffffffffffffffffffffffffffffffff0483118215151615611867576118666119c9565b5b828202905092915050565b600061187d8261195a565b91506118888361195a565b92508282101561189b5761189a6119c9565b5b828203905092915050565b60006118b182611964565b91506118bc83611964565b9250828210156118cf576118ce6119c9565b5b828203905092915050565b60006118e582611912565b9050919050565b60008115159050919050565b60006dffffffffffffffffffffffffffff82169050919050565b600073ffffffffffffffffffffffffffffffffffffffff82169050919050565b60007bffffffffffffffffffffffffffffffffffffffffffffffffffffffff82169050919050565b6000819050919050565b600063ffffffff82169050919050565b600061197f82611986565b9050919050565b600061199182611912565b9050919050565b60006119a38261195a565b91506119ae8361195a565b9250826119be576119bd6119f8565b5b828206905092915050565b7f4e487b7100000000000000000000000000000000000000000000000000000000600052601160045260246000fd5b7f4e487b7100000000000000000000000000000000000000000000000000000000600052601260045260246000fd5b7f4f776e61626c653a206e6577206f776e657220697320746865207a65726f206160008201527f6464726573730000000000000000000000000000000000000000000000000000602082015250565b7f6f70657261746f723a207a65726f206164647265737320676976656e20666f7260008201527f206e6577206f70657261746f7200000000000000000000000000000000000000602082015250565b7f506169724f7261636c653a20504552494f445f4e4f545f454c41505345440000600082015250565b7f4f776e61626c653a2063616c6c6572206973206e6f7420746865206f776e6572600082015250565b7f6f70657261746f723a2063616c6c6572206973206e6f7420746865206f70657260008201527f61746f7200000000000000000000000000000000000000000000000000000000602082015250565b7f4669786564506f696e743a204d554c5449504c49434154494f4e5f4f5645524660008201527f4c4f570000000000000000000000000000000000000000000000000000000000602082015250565b7f506169724f7261636c653a20494e56414c49445f544f4b454e00000000000000600082015250565b7f4669786564506f696e743a204449565f42595f5a45524f000000000000000000600082015250565b611c10816118da565b8114611c1b57600080fd5b50565b611c27816118f8565b8114611c3257600080fd5b50565b611c3e8161195a565b8114611c4957600080fd5b50565b611c5581611964565b8114611c6057600080fd5b5056fea26469706673582212205d3091cd35a7756ebf934d06813ee4571b40c043c7c54e40971edf0cca9c408d64736f6c63430008040033",
  "immutableReferences": {
    "11943": [
      {
        "length": 32,
        "start": 2269
      },
      {
        "length": 32,
        "start": 2861
      }
    ],
    "11945": [
      {
        "length": 32,
        "start": 797
      },
      {
        "length": 32,
        "start": 1125
      }
    ],
    "11947": [
      {
        "length": 32,
        "start": 1385
      },
      {
        "length": 32,
        "start": 2925
      }
    ]
  },
  "source": "// SPDX-License-Identifier: MIT\npragma solidity 0.8.4;\npragma experimental ABIEncoderV2;\n\nlibrary SafeMath {\n  function mul(uint256 a, uint256 b) internal pure returns (uint256 c) {\n    if (a == 0) {return 0;}\n    c = a * b;\n    assert(c / a == b);\n    return c;\n  }\n\n  function div(uint256 a, uint256 b) internal pure returns (uint256) {\n    return a / b;\n  }\n\n  function sub(uint256 a, uint256 b) internal pure returns (uint256) {\n    assert(b <= a);\n    return a - b;\n  }\n\n  function add(uint256 a, uint256 b) internal pure returns (uint256 c) {\n    c = a + b;\n    assert(c >= a);\n    return c;\n  }\n}\n\nlibrary FixedPoint {\n    struct uq112x112 {\n        uint224 _x;\n    }\n\n    struct uq144x112 {\n        uint256 _x;\n    }\n\n    uint8 private constant RESOLUTION = 112;\n    uint256 private constant Q112 = uint256(1) << RESOLUTION;\n    uint256 private constant Q224 = Q112 << RESOLUTION;\n\n    function encode(uint112 x) internal pure returns (uq112x112 memory) {\n        return uq112x112(uint224(x) << RESOLUTION);\n    }\n\n    function encode144(uint144 x) internal pure returns (uq144x112 memory) {\n        return uq144x112(uint256(x) << RESOLUTION);\n    }\n\n    function div(uq112x112 memory self, uint112 x) internal pure returns (uq112x112 memory) {\n        require(x != 0, \"FixedPoint: DIV_BY_ZERO\");\n        return uq112x112(self._x / uint224(x));\n    }\n\n    function mul(uq112x112 memory self, uint256 y) internal pure returns (uq144x112 memory) {\n        uint256 z;\n        require(y == 0 || (z = uint256(self._x) * y) / y == uint256(self._x), \"FixedPoint: MULTIPLICATION_OVERFLOW\");\n        return uq144x112(z);\n    }\n\n    function fraction(uint112 numerator, uint112 denominator) internal pure returns (uq112x112 memory) {\n        require(denominator > 0, \"FixedPoint: DIV_BY_ZERO\");\n        return uq112x112((uint224(numerator) << RESOLUTION) / denominator);\n    }\n\n    function decode(uq112x112 memory self) internal pure returns (uint112) {\n        return uint112(self._x >> RESOLUTION);\n    }\n\n    function decode144(uq144x112 memory self) internal pure returns (uint144) {\n        return uint144(self._x >> RESOLUTION);\n    }\n\n    function reciprocal(uq112x112 memory self) internal pure returns (uq112x112 memory) {\n        require(self._x != 0, \"FixedPoint: ZERO_RECIPROCAL\");\n        return uq112x112(uint224(Q224 / self._x));\n    }\n\n    function sqrt(uq112x112 memory self) internal pure returns (uq112x112 memory) {\n        return uq112x112(uint224(Babylonian.sqrt(uint256(self._x)) << 56));\n    }\n}\n\nlibrary UQ112x112 {\n    uint224 constant Q112 = 2**112;\n\n    // encode a uint112 as a UQ112x112\n    function encode(uint112 y) internal pure returns (uint224 z) {\n        z = uint224(y) * Q112; // never overflows\n    }\n\n    // divide a UQ112x112 by a uint112, returning a UQ112x112\n    function uqdiv(uint224 x, uint112 y) internal pure returns (uint224 z) {\n        z = x / uint224(y);\n    }\n}\n\nlibrary Babylonian {\n    function sqrt(uint y) internal pure returns (uint z) {\n        if (y > 3) {\n            z = y;\n            uint x = y / 2 + 1;\n            while (x < z) {\n                z = x;\n                x = (y / x + x) / 2;\n            }\n        } else if (y != 0) {\n            z = 1;\n        }\n        // else z = 0\n    }\n}\n\nabstract contract Context {\n    function _msgSender() internal view virtual returns (address) {\n        return msg.sender;\n    }\n\n    function _msgData() internal view virtual returns (bytes calldata) {\n        this;\n        return msg.data;\n    }\n}\n\nabstract contract Ownable is Context {\n    address private _owner;\n    event OwnershipTransferred(address indexed previousOwner, address indexed newOwner);\n\n    constructor () {\n        address msgSender = _msgSender();\n        _owner = msgSender;\n        emit OwnershipTransferred(address(0), msgSender);\n    }\n\n    function owner() public view virtual returns (address) {\n        return _owner;\n    }\n\n    modifier onlyOwner() {\n        require(owner() == _msgSender(), \"Ownable: caller is not the owner\");\n        _;\n    }\n\n    function renounceOwnership() public virtual onlyOwner {\n        emit OwnershipTransferred(_owner, address(0));\n        _owner = address(0);\n    }\n\n    function transferOwnership(address newOwner) public virtual onlyOwner {\n        require(newOwner != address(0), \"Ownable: new owner is the zero address\");\n        emit OwnershipTransferred(_owner, newOwner);\n        _owner = newOwner;\n    }\n}\n\nabstract contract Operator is Context, Ownable {\n    address private _operator;\n\n    event OperatorTransferred(address indexed previousOperator, address indexed newOperator);\n\n    constructor(){\n        _operator = _msgSender();\n        emit OperatorTransferred(address(0), _operator);\n    }\n\n    function operator() public view returns (address) {\n        return _operator;\n    }\n\n    modifier onlyOperator() {\n        require(_operator == msg.sender, \"operator: caller is not the operator\");\n        _;\n    }\n\n    function isOperator() public view returns (bool) {\n        return _msgSender() == _operator;\n    }\n\n    function transferOperator(address newOperator_) public onlyOwner {\n        _transferOperator(newOperator_);\n    }\n\n    function _transferOperator(address newOperator_) internal {\n        require(newOperator_ != address(0), \"operator: zero address given for new operator\");\n        emit OperatorTransferred(address(0), newOperator_);\n        _operator = newOperator_;\n    }\n}\n\ninterface IUniswapLP {\n    function token0() external view returns (address);\n    function token1() external view returns (address);\n    function getReserves() external view returns (uint112 reserve0,uint112 reserve1,uint32 blockTimestampLast);\n    function price0CumulativeLast() external view returns (uint256);\n    function price1CumulativeLast() external view returns (uint256);\n    function getTokenWeights() external view returns (uint32 tokenWeight0, uint32 tokenWeight1);\n}\n\ninterface IPairOracle {\n    function consult(address token, uint256 amountIn) external view returns (uint256 amountOut);\n    function update() external;\n}\n\n\ncontract DollarCollateralPairOracle is Operator, IPairOracle {\n    using FixedPoint for *;\n    using SafeMath for uint256;\n\n    uint256 public PERIOD = 600; // 10-minute TWAP (time-weighted average price)\n\n    IUniswapLP public immutable pair;\n    address public immutable token0;\n    address public immutable token1;\n\n    uint256 public price0CumulativeLast;\n    uint256 public price1CumulativeLast;\n    uint32 public blockTimestampLast;\n    FixedPoint.uq112x112 public price0Average;\n    FixedPoint.uq112x112 public price1Average;\n\n    constructor(address pairAddress){\n        IUniswapLP _pair = IUniswapLP(pairAddress);\n        pair = _pair;\n        token0 = _pair.token0();\n        token1 = _pair.token1();\n        price0CumulativeLast = _pair.price0CumulativeLast(); // Fetch the current accumulated price value (1 / 0)\n        price1CumulativeLast = _pair.price1CumulativeLast(); // Fetch the current accumulated price value (0 / 1)\n        uint112 reserve0;\n        uint112 reserve1;\n        (reserve0, reserve1, blockTimestampLast) = _pair.getReserves();\n        require(reserve0 != 0 && reserve1 != 0, \"PairOracle: NO_RESERVES\"); // Ensure that there's liquidity in the pair\n    }\n\n    function setPeriod(uint256 _period) external onlyOperator {\n        PERIOD = _period;\n    }\n\n    function update() external override {\n        (uint256 price0Cumulative, uint256 price1Cumulative, uint32 blockTimestamp) = currentCumulativePrices(address(pair));\n        uint32 timeElapsed = blockTimestamp - blockTimestampLast; // Overflow is desired\n\n        // Ensure that at least one full period has passed since the last update\n        require(timeElapsed >= PERIOD, \"PairOracle: PERIOD_NOT_ELAPSED\");\n\n        // Overflow is desired, casting never truncates\n        // Cumulative price is in (uq112x112 price * seconds) units so we simply wrap it after division by time elapsed\n        price0Average = FixedPoint.uq112x112(uint224((price0Cumulative - price0CumulativeLast) / timeElapsed));\n        price1Average = FixedPoint.uq112x112(uint224((price1Cumulative - price1CumulativeLast) / timeElapsed));\n        price0CumulativeLast = price0Cumulative;\n        price1CumulativeLast = price1Cumulative;\n        blockTimestampLast = blockTimestamp;\n    }\n\n    // Note this will always return 0 before update has been called successfully for the first time.\n    function consult(address token, uint256 amountIn) external view override returns (uint256 amountOut) {\n        if (token == token0) {\n            amountOut = price0Average.mul(amountIn).decode144();\n        } else {\n            require(token == token1, \"PairOracle: INVALID_TOKEN\");\n            amountOut = price1Average.mul(amountIn).decode144();\n        }\n    }\n\n    function currentBlockTimestamp() internal view returns (uint32) {\n        return uint32(block.timestamp % 2**32);\n    }\n\n    // produces the cumulative price using counterfactuals to save gas and avoid a call to sync.\n    function currentCumulativePrices(address _pair) internal view returns (uint256 price0Cumulative,uint256 price1Cumulative,uint32 blockTimestamp){\n        blockTimestamp = currentBlockTimestamp();\n        IUniswapLP uniswapPair = IUniswapLP(_pair);\n        price0Cumulative = uniswapPair.price0CumulativeLast();\n        price1Cumulative = uniswapPair.price1CumulativeLast();\n\n        // if time has elapsed since the last update on the pair, mock the accumulated price values\n        (uint112 reserve0, uint112 reserve1, uint32 _blockTimestampLast) = uniswapPair.getReserves();\n        if (_blockTimestampLast != blockTimestamp) {\n            uint32 timeElapsed = blockTimestamp - _blockTimestampLast;// subtraction overflow is desired\n            price0Cumulative += uint256(FixedPoint.fraction(reserve1, reserve0)._x) * timeElapsed; // addition overflow is desired// counterfactual\n            price1Cumulative += uint256(FixedPoint.fraction(reserve0, reserve1)._x) * timeElapsed;// counterfactual\n        }\n    }\n}\n",
  "sourcePath": "/home/kali/Documents/project_AGO/contracts/oracle/DollarCollateralPairOracle.sol",
  "compiler": {
    "name": "solc",
    "version": "0.8.4+commit.c7e474f2.Emscripten.clang"
  },
  "schemaVersion": "3.3.4",
  "updatedAt": "2021-06-23T02:20:50.961Z",
  "devdoc": {
    "kind": "dev",
    "methods": {},
    "version": 1
  },
  "userdoc": {
    "kind": "user",
    "methods": {},
    "version": 1
  }
}