{
  "contractName": "Foundry",
  "abi": [
    {
      "anonymous": false,
      "inputs": [
        {
          "indexed": true,
          "internalType": "address",
          "name": "executor",
          "type": "address"
        },
        {
          "indexed": false,
          "internalType": "uint256",
          "name": "at",
          "type": "uint256"
        }
      ],
      "name": "Initialized",
      "type": "event"
    },
    {
      "anonymous": false,
      "inputs": [
        {
          "indexed": true,
          "internalType": "address",
          "name": "user",
          "type": "address"
        },
        {
          "indexed": false,
          "internalType": "uint256",
          "name": "reward",
          "type": "uint256"
        }
      ],
      "name": "RewardAdded",
      "type": "event"
    },
    {
      "anonymous": false,
      "inputs": [
        {
          "indexed": true,
          "internalType": "address",
          "name": "user",
          "type": "address"
        },
        {
          "indexed": false,
          "internalType": "uint256",
          "name": "reward",
          "type": "uint256"
        }
      ],
      "name": "RewardPaid",
      "type": "event"
    },
    {
      "anonymous": false,
      "inputs": [
        {
          "indexed": true,
          "internalType": "address",
          "name": "user",
          "type": "address"
        },
        {
          "indexed": false,
          "internalType": "uint256",
          "name": "amount",
          "type": "uint256"
        }
      ],
      "name": "Staked",
      "type": "event"
    },
    {
      "anonymous": false,
      "inputs": [
        {
          "indexed": true,
          "internalType": "address",
          "name": "user",
          "type": "address"
        },
        {
          "indexed": false,
          "internalType": "uint256",
          "name": "amount",
          "type": "uint256"
        }
      ],
      "name": "Withdrawn",
      "type": "event"
    },
    {
      "inputs": [
        {
          "internalType": "address",
          "name": "account",
          "type": "address"
        }
      ],
      "name": "balanceOf",
      "outputs": [
        {
          "internalType": "uint256",
          "name": "",
          "type": "uint256"
        }
      ],
      "stateMutability": "view",
      "type": "function"
    },
    {
      "inputs": [
        {
          "internalType": "address",
          "name": "",
          "type": "address"
        }
      ],
      "name": "blacksmiths",
      "outputs": [
        {
          "internalType": "uint256",
          "name": "lastSnapshotIndex",
          "type": "uint256"
        },
        {
          "internalType": "uint256",
          "name": "rewardEarned",
          "type": "uint256"
        },
        {
          "internalType": "uint256",
          "name": "epochTimerStart",
          "type": "uint256"
        }
      ],
      "stateMutability": "view",
      "type": "function"
    },
    {
      "inputs": [],
      "name": "collateral",
      "outputs": [
        {
          "internalType": "address",
          "name": "",
          "type": "address"
        }
      ],
      "stateMutability": "view",
      "type": "function"
    },
    {
      "inputs": [
        {
          "internalType": "uint256",
          "name": "",
          "type": "uint256"
        }
      ],
      "name": "foundryHistory",
      "outputs": [
        {
          "internalType": "uint256",
          "name": "time",
          "type": "uint256"
        },
        {
          "internalType": "uint256",
          "name": "rewardReceived",
          "type": "uint256"
        },
        {
          "internalType": "uint256",
          "name": "rewardPerShare",
          "type": "uint256"
        }
      ],
      "stateMutability": "view",
      "type": "function"
    },
    {
      "inputs": [],
      "name": "initialized",
      "outputs": [
        {
          "internalType": "bool",
          "name": "",
          "type": "bool"
        }
      ],
      "stateMutability": "view",
      "type": "function"
    },
    {
      "inputs": [],
      "name": "oracle",
      "outputs": [
        {
          "internalType": "address",
          "name": "",
          "type": "address"
        }
      ],
      "stateMutability": "view",
      "type": "function"
    },
    {
      "inputs": [],
      "name": "owner",
      "outputs": [
        {
          "internalType": "address",
          "name": "",
          "type": "address"
        }
      ],
      "stateMutability": "view",
      "type": "function"
    },
    {
      "inputs": [],
      "name": "share",
      "outputs": [
        {
          "internalType": "address",
          "name": "",
          "type": "address"
        }
      ],
      "stateMutability": "view",
      "type": "function"
    },
    {
      "inputs": [],
      "name": "totalSupply",
      "outputs": [
        {
          "internalType": "uint256",
          "name": "",
          "type": "uint256"
        }
      ],
      "stateMutability": "view",
      "type": "function"
    },
    {
      "inputs": [
        {
          "internalType": "address",
          "name": "newOwner",
          "type": "address"
        }
      ],
      "name": "transferOwnership",
      "outputs": [],
      "stateMutability": "nonpayable",
      "type": "function"
    },
    {
      "inputs": [],
      "name": "treasury",
      "outputs": [
        {
          "internalType": "address",
          "name": "",
          "type": "address"
        }
      ],
      "stateMutability": "view",
      "type": "function"
    },
    {
      "inputs": [],
      "name": "withdrawLockupEpochs",
      "outputs": [
        {
          "internalType": "uint256",
          "name": "",
          "type": "uint256"
        }
      ],
      "stateMutability": "view",
      "type": "function"
    },
    {
      "inputs": [
        {
          "internalType": "address",
          "name": "_collateral",
          "type": "address"
        },
        {
          "internalType": "address",
          "name": "_share",
          "type": "address"
        },
        {
          "internalType": "address",
          "name": "_treasury",
          "type": "address"
        }
      ],
      "name": "initialize",
      "outputs": [],
      "stateMutability": "nonpayable",
      "type": "function"
    },
    {
      "inputs": [
        {
          "internalType": "uint256",
          "name": "_withdrawLockupEpochs",
          "type": "uint256"
        }
      ],
      "name": "setLockUp",
      "outputs": [],
      "stateMutability": "nonpayable",
      "type": "function"
    },
    {
      "inputs": [
        {
          "internalType": "address",
          "name": "_oracle",
          "type": "address"
        }
      ],
      "name": "setOracle",
      "outputs": [],
      "stateMutability": "nonpayable",
      "type": "function"
    },
    {
      "inputs": [],
      "name": "info",
      "outputs": [
        {
          "internalType": "uint256",
          "name": "",
          "type": "uint256"
        },
        {
          "internalType": "uint256",
          "name": "",
          "type": "uint256"
        },
        {
          "internalType": "uint256",
          "name": "",
          "type": "uint256"
        },
        {
          "internalType": "uint256",
          "name": "",
          "type": "uint256"
        },
        {
          "internalType": "uint256",
          "name": "",
          "type": "uint256"
        },
        {
          "internalType": "uint256",
          "name": "",
          "type": "uint256"
        }
      ],
      "stateMutability": "view",
      "type": "function"
    },
    {
      "inputs": [],
      "name": "latestSnapshotIndex",
      "outputs": [
        {
          "internalType": "uint256",
          "name": "",
          "type": "uint256"
        }
      ],
      "stateMutability": "view",
      "type": "function"
    },
    {
      "inputs": [
        {
          "internalType": "address",
          "name": "blacksmith",
          "type": "address"
        }
      ],
      "name": "getLastSnapshotIndexOf",
      "outputs": [
        {
          "internalType": "uint256",
          "name": "",
          "type": "uint256"
        }
      ],
      "stateMutability": "view",
      "type": "function"
    },
    {
      "inputs": [
        {
          "internalType": "address",
          "name": "blacksmith",
          "type": "address"
        }
      ],
      "name": "canWithdraw",
      "outputs": [
        {
          "internalType": "bool",
          "name": "",
          "type": "bool"
        }
      ],
      "stateMutability": "view",
      "type": "function"
    },
    {
      "inputs": [],
      "name": "epoch",
      "outputs": [
        {
          "internalType": "uint256",
          "name": "",
          "type": "uint256"
        }
      ],
      "stateMutability": "view",
      "type": "function"
    },
    {
      "inputs": [],
      "name": "nextEpochPoint",
      "outputs": [
        {
          "internalType": "uint256",
          "name": "",
          "type": "uint256"
        }
      ],
      "stateMutability": "view",
      "type": "function"
    },
    {
      "inputs": [],
      "name": "rewardPerShare",
      "outputs": [
        {
          "internalType": "uint256",
          "name": "",
          "type": "uint256"
        }
      ],
      "stateMutability": "view",
      "type": "function"
    },
    {
      "inputs": [
        {
          "internalType": "address",
          "name": "blacksmith",
          "type": "address"
        }
      ],
      "name": "earned",
      "outputs": [
        {
          "internalType": "uint256",
          "name": "",
          "type": "uint256"
        }
      ],
      "stateMutability": "view",
      "type": "function"
    },
    {
      "inputs": [
        {
          "internalType": "uint256",
          "name": "amount",
          "type": "uint256"
        }
      ],
      "name": "stake",
      "outputs": [],
      "stateMutability": "nonpayable",
      "type": "function"
    },
    {
      "inputs": [
        {
          "internalType": "uint256",
          "name": "amount",
          "type": "uint256"
        }
      ],
      "name": "withdraw",
      "outputs": [],
      "stateMutability": "nonpayable",
      "type": "function"
    },
    {
      "inputs": [],
      "name": "exit",
      "outputs": [],
      "stateMutability": "nonpayable",
      "type": "function"
    },
    {
      "inputs": [],
      "name": "claimReward",
      "outputs": [],
      "stateMutability": "nonpayable",
      "type": "function"
    },
    {
      "inputs": [
        {
          "internalType": "uint256",
          "name": "amount",
          "type": "uint256"
        }
      ],
      "name": "allocateSeigniorage",
      "outputs": [],
      "stateMutability": "nonpayable",
      "type": "function"
    }
  ],
  "bytecode": "0x608060405260016003556004805460ff60a01b1916905534801561002257600080fd5b50600480546001600160a01b03191633179055611b93806100446000396000f3fe608060405234801561001057600080fd5b50600436106101c35760003560e01c80637dc0d1d0116100f9578063a8d5fd6511610097578063c5967c2611610071578063c5967c2614610412578063d8dfeb451461041a578063e9fad8ee1461042d578063f2fde38b1461043557600080fd5b8063a8d5fd65146103e4578063b88a802f146103f7578063c0c53b8b146103ff57600080fd5b80638da5cb5b116100d35780638da5cb5b146103a3578063900cf0cf146103b657806397ffe1d7146103be578063a694fc3a146103d157600080fd5b80637dc0d1d01461036a5780637e0a883c1461037d5780638ab775e21461039057600080fd5b8063370158ea1161016657806361d027b31161014057806361d027b3146102da57806370a0823114610305578063714b46581461032e5780637adbf9731461035757600080fd5b8063370158ea146102955780633f9e3f04146102ca578063446a2ec8146102d257600080fd5b806319262d30116101a257806319262d301461021a5780631e85cd651461022d5780632df6b92e146102365780632e1a7d4d1461028057600080fd5b80628cc262146101c8578063158ef93e146101ee57806318160ddd14610212575b600080fd5b6101db6101d636600461197d565b610448565b6040519081526020015b60405180910390f35b60045461020290600160a01b900460ff1681565b60405190151581526020016101e5565b6001546101db565b61020261022836600461197d565b6104d9565b6101db600a5481565b61026561024436600461197d565b60086020526000908152604090208054600182015460029092015490919083565b604080519384526020840192909252908201526060016101e5565b61029361028e3660046119f9565b610586565b005b61029d61084a565b604080519687526020870195909552938501929092526060840152608083015260a082015260c0016101e5565b6101db610991565b6101db6109a7565b6006546102ed906001600160a01b031681565b6040516001600160a01b0390911681526020016101e5565b6101db61031336600461197d565b6001600160a01b031660009081526002602052604090205490565b6101db61033c36600461197d565b6001600160a01b031660009081526008602052604090205490565b61029361036536600461197d565b6109ba565b6007546102ed906001600160a01b031681565b61026561038b3660046119f9565b6109f3565b61029361039e3660046119f9565b610a26565b6004546102ed906001600160a01b031681565b6101db610a9f565b6102936103cc3660046119f9565b610b1c565b6102936103df3660046119f9565b610d7d565b6000546102ed906001600160a01b031681565b610293610f51565b61029361040d366004611997565b6110f3565b6101db611280565b6005546102ed906001600160a01b031681565b6102936112c5565b61029361044336600461197d565b6112e0565b600080610453611325565b6040015190506000610464846113ad565b6040908101516001600160a01b0386166000908152600860205291909120600101549091506104d1906104cb670de0b6b3a76400006104c56104a6878761144e565b6001600160a01b038a1660009081526002602052604090205490611499565b90611518565b9061155a565b949350505050565b6006546040805163900cf0cf60e01b815290516000926001600160a01b03169163900cf0cf916004808301926020929190829003018186803b15801561051e57600080fd5b505afa158015610532573d6000803e3d6000fd5b505050506040513d601f19601f820116820180604052508101906105569190611a11565b600a546001600160a01b03841660009081526008602052604090206002015461057e9161155a565b111592915050565b6001600360008282546105999190611aad565b909155505060035433600090815260026020526040812054116106125760405162461bcd60e51b815260206004820152602660248201527f466f756e6472793a2054686520626c61636b736d69746820646f6573206e6f7460448201526508195e1a5cdd60d21b60648201526084015b60405180910390fd5b3380156106a3576001600160a01b038116600090815260086020908152604091829020825160608101845281548152600182015492810192909252600201549181019190915261066182610448565b602082015261066e610991565b81526001600160a01b038216600090815260086020908152604091829020835181559083015160018201559101516002909101555b600083116106f35760405162461bcd60e51b815260206004820152601a60248201527f466f756e6472793a2043616e6e6f7420776974686472617720300000000000006044820152606401610609565b600660009054906101000a90046001600160a01b03166001600160a01b031663900cf0cf6040518163ffffffff1660e01b815260040160206040518083038186803b15801561074157600080fd5b505afa158015610755573d6000803e3d6000fd5b505050506040513d601f19601f820116820180604052508101906107799190611a11565b600a54336000908152600860205260409020600201546107989161155a565b11156107f05760405162461bcd60e51b815260206004820152602160248201527f466f756e6472793a207374696c6c20696e207769746864726177206c6f636b756044820152600760fc1b6064820152608401610609565b6107f8610f51565b610801836115b9565b60405183815233907f7084f5476618d8e60b11ef0d7d3f06914655adb8793e28ff7f018d4c76d505d5906020015b60405180910390a250600354811461084657600080fd5b5050565b600080600080600080600080600080600660009054906101000a90046001600160a01b03166001600160a01b0316631f1b8a8c6040518163ffffffff1660e01b815260040160806040518083038186803b1580156108a757600080fd5b505afa1580156108bb573d6000803e3d6000fd5b505050506040513d601f19601f820116820180604052508101906108df9190611a29565b9350935093509350838383836108f460015490565b600760009054906101000a90046001600160a01b03166001600160a01b0316637eeda7036040518163ffffffff1660e01b815260040160206040518083038186803b15801561094257600080fd5b505afa158015610956573d6000803e3d6000fd5b505050506040513d601f19601f8201168201806040525081019061097a9190611a11565b949f939e50919c509a509850909650945050505050565b6009546000906109a290600161144e565b905090565b60006109b1611325565b60400151905090565b6004546001600160a01b031633146109d157600080fd5b600780546001600160a01b0319166001600160a01b0392909216919091179055565b60098181548110610a0357600080fd5b600091825260209091206003909102018054600182015460029092015490925083565b6004546001600160a01b03163314610a3d57600080fd5b6038811115610a9a5760405162461bcd60e51b815260206004820152602360248201527f5f77697468647261774c6f636b757045706f6368733a206f7574206f662072616044820152626e676560e81b6064820152608401610609565b600a55565b6006546040805163900cf0cf60e01b815290516000926001600160a01b03169163900cf0cf916004808301926020929190829003018186803b158015610ae457600080fd5b505afa158015610af8573d6000803e3d6000fd5b505050506040513d601f19601f820116820180604052508101906109a29190611a11565b600160036000828254610b2f9190611aad565b90915550506003546006546001600160a01b03163314610b7d5760405162461bcd60e51b815260206004820152600960248201526821747265617375727960b81b6044820152606401610609565b60008211610bcd5760405162461bcd60e51b815260206004820152601a60248201527f466f756e6472793a2043616e6e6f7420616c6c6f6361746520300000000000006044820152606401610609565b6000610bd860015490565b11610c3c5760405162461bcd60e51b815260206004820152602e60248201527f466f756e6472793a2043616e6e6f7420616c6c6f63617465207768656e20746f60448201526d074616c537570706c7920697320360941b6064820152608401610609565b6000610c46611325565b6040015190506000610c76610c6f610c5d60015490565b6104c587670de0b6b3a7640000611499565b839061155a565b60408051606081018252438152602081018781529181018381526009805460018101825560009190915282517f6e1540171b6c0c960b71a7020d9f60077f6af931a8bbf590da0223dacf75c7af60039092029182015592517f6e1540171b6c0c960b71a7020d9f60077f6af931a8bbf590da0223dacf75c7b0840155517f6e1540171b6c0c960b71a7020d9f60077f6af931a8bbf590da0223dacf75c7b19092019190915560055491925090610d37906001600160a01b031633308861167d565b60405185815233907fac24935fd910bc682b5ccb1a07b718cadf8cf2f6d1404c4f3ddc3662dae40e299060200160405180910390a2505050600354811461084657600080fd5b600160036000828254610d909190611aad565b9091555050600354338015610e29576001600160a01b0381166000908152600860209081526040918290208251606081018452815481526001820154928101929092526002015491810191909152610de782610448565b6020820152610df4610991565b81526001600160a01b038216600090815260086020908152604091829020835181559083015160018201559101516002909101555b60008311610e795760405162461bcd60e51b815260206004820152601760248201527f466f756e6472793a2043616e6e6f74207374616b6520300000000000000000006044820152606401610609565b610e82836116ee565b600660009054906101000a90046001600160a01b03166001600160a01b031663900cf0cf6040518163ffffffff1660e01b815260040160206040518083038186803b158015610ed057600080fd5b505afa158015610ee4573d6000803e3d6000fd5b505050506040513d601f19601f82011682018060405250810190610f089190611a11565b33600081815260086020526040908190206002019290925590517f9e71bc8eea02a63969f509818f2dafb9254532904319f9dbda79b67bd34a5f3d9061082f9086815260200190565b338015610fe2576001600160a01b0381166000908152600860209081526040918290208251606081018452815481526001820154928101929092526002015491810191909152610fa082610448565b6020820152610fad610991565b81526001600160a01b038216600090815260086020908152604091829020835181559083015160018201559101516002909101555b33600090815260086020526040902060010154801561084657600660009054906101000a90046001600160a01b03166001600160a01b031663900cf0cf6040518163ffffffff1660e01b815260040160206040518083038186803b15801561104957600080fd5b505afa15801561105d573d6000803e3d6000fd5b505050506040513d601f19601f820116820180604052508101906110819190611a11565b33600081815260086020526040812060028101939093556001909201919091556005546110ba916001600160a01b039091169083611744565b60405181815233907fe2403640ba68fed3a2f88b7557551d1993f84b99bb10ff833f0cf8db0c5e04869060200160405180910390a25050565b600454600160a01b900460ff161561114d5760405162461bcd60e51b815260206004820152601c60248201527f466f756e6472793a20616c726561647920696e697469616c697a6564000000006044820152606401610609565b600580546001600160a01b038581166001600160a01b03199283161790925560008054858416908316178155600680549385169390921692909217905560408051606081018252438082526020808301858152838501868152600980546001810182559752845160039097027f6e1540171b6c0c960b71a7020d9f60077f6af931a8bbf590da0223dacf75c7af81019790975590517f6e1540171b6c0c960b71a7020d9f60077f6af931a8bbf590da0223dacf75c7b0870155517f6e1540171b6c0c960b71a7020d9f60077f6af931a8bbf590da0223dacf75c7b1909501949094556008600a556004805460ff60a01b1916600160a01b17905591519182529133917f25ff68dd81b34665b5ba7e553ee5511bf6812e12adb4a7e2c0d9e26b3099ce79910160405180910390a250505050565b600654604080516362cb3e1360e11b815290516000926001600160a01b03169163c5967c26916004808301926020929190829003018186803b158015610ae457600080fd5b336000908152600260205260409020546112de90610586565b565b6004546001600160a01b031633146112f757600080fd5b6001600160a01b0381161561132257600480546001600160a01b0319166001600160a01b0383161790555b50565b61134960405180606001604052806000815260200160008152602001600081525090565b6009611353610991565b8154811061137157634e487b7160e01b600052603260045260246000fd5b90600052602060002090600302016040518060600160405290816000820154815260200160018201548152602001600282015481525050905090565b6113d160405180606001604052806000815260200160008152602001600081525090565b60096113f2836001600160a01b031660009081526008602052604090205490565b8154811061141057634e487b7160e01b600052603260045260246000fd5b906000526020600020906003020160405180606001604052908160008201548152602001600182015481526020016002820154815250509050919050565b600061149083836040518060400160405280601e81526020017f536166654d6174683a207375627472616374696f6e206f766572666c6f770000815250611779565b90505b92915050565b6000826114a857506000611493565b60006114b48385611ae5565b9050826114c18583611ac5565b146114905760405162461bcd60e51b815260206004820152602160248201527f536166654d6174683a206d756c7469706c69636174696f6e206f766572666c6f6044820152607760f81b6064820152608401610609565b600061149083836040518060400160405280601a81526020017f536166654d6174683a206469766973696f6e206279207a65726f0000000000008152506117b3565b6000806115678385611aad565b9050838110156114905760405162461bcd60e51b815260206004820152601b60248201527f536166654d6174683a206164646974696f6e206f766572666c6f7700000000006044820152606401610609565b33600090815260026020526040902054818110156116385760405162461bcd60e51b815260206004820152603660248201527f426f617264726f6f6d3a207769746864726177207265717565737420677265616044820152751d195c881d1a185b881cdd185ad95908185b5bdd5b9d60521b6064820152608401610609565b600154611645908361144e565b600155611652818361144e565b336000818152600260205260408120929092559054610846916001600160a01b039091169084611744565b6040516001600160a01b03808516602483015283166044820152606481018290526116e89085906323b872dd60e01b906084015b60408051601f198184030181529190526020810180516001600160e01b03166001600160e01b0319909316929092179091526117e1565b50505050565b6001546116fb908261155a565b60015533600090815260026020526040902054611718908261155a565b336000818152600260205260408120929092559054611322916001600160a01b0390911690308461167d565b6040516001600160a01b03831660248201526044810182905261177490849063a9059cbb60e01b906064016116b1565b505050565b6000818484111561179d5760405162461bcd60e51b81526004016106099190611a7a565b5060006117aa8486611b04565b95945050505050565b600081836117d45760405162461bcd60e51b81526004016106099190611a7a565b5060006117aa8486611ac5565b6001600160a01b0382163b6118385760405162461bcd60e51b815260206004820152601f60248201527f5361666545524332303a2063616c6c20746f206e6f6e2d636f6e7472616374006044820152606401610609565b600080836001600160a01b0316836040516118539190611a5e565b6000604051808303816000865af19150503d8060008114611890576040519150601f19603f3d011682016040523d82523d6000602084013e611895565b606091505b5091509150816118e75760405162461bcd60e51b815260206004820181905260248201527f5361666545524332303a206c6f772d6c6576656c2063616c6c206661696c65646044820152606401610609565b8051156116e8578080602001905181019061190291906119d9565b6116e85760405162461bcd60e51b815260206004820152602a60248201527f5361666545524332303a204552433230206f7065726174696f6e20646964206e6044820152691bdd081cdd58d8d9595960b21b6064820152608401610609565b80356001600160a01b038116811461197857600080fd5b919050565b60006020828403121561198e578081fd5b61149082611961565b6000806000606084860312156119ab578182fd5b6119b484611961565b92506119c260208501611961565b91506119d060408501611961565b90509250925092565b6000602082840312156119ea578081fd5b81518015158114611490578182fd5b600060208284031215611a0a578081fd5b5035919050565b600060208284031215611a22578081fd5b5051919050565b60008060008060808587031215611a3e578081fd5b505082516020840151604085015160609095015191969095509092509050565b60008251611a70818460208701611b1b565b9190910192915050565b6020815260008251806020840152611a99816040850160208701611b1b565b601f01601f19169190910160400192915050565b60008219821115611ac057611ac0611b47565b500190565b600082611ae057634e487b7160e01b81526012600452602481fd5b500490565b6000816000190483118215151615611aff57611aff611b47565b500290565b600082821015611b1657611b16611b47565b500390565b60005b83811015611b36578181015183820152602001611b1e565b838111156116e85750506000910152565b634e487b7160e01b600052601160045260246000fdfea26469706673582212206461f0130f64dbccae905fbb8dabd6671cce2d3b9d1441593776852fd9bade6a64736f6c63430008040033",
  "immutableReferences": {},
  "source": "// SPDX-License-Identifier: MIT\r\npragma solidity 0.8.4;\r\npragma experimental ABIEncoderV2;\r\n\r\nimport \"./libraries/Address.sol\";\r\nimport \"./libraries/SafeERC20.sol\";\r\nimport \"./libraries/SafeMath.sol\";\r\nimport \"./interfaces/IOracle.sol\";\r\nimport \"./interfaces/IEpoch.sol\";\r\nimport \"./interfaces/ITreasury.sol\";\r\nimport \"./interfaces/IERC20.sol\";\r\nimport \"./utilityContracts/Context.sol\";\r\nimport \"./utilityContracts/Ownable.sol\";\r\nimport \"./utilityContracts/ERC20.sol\";\r\nimport \"./utilityContracts/ReentrancyGuard.sol\";\r\nimport \"./utilityContracts/ShareWrapper.sol\";\r\n\r\n\r\ncontract Foundry is ShareWrapper, ReentrancyGuard, Ownable {\r\n    using SafeERC20 for IERC20;\r\n    using Address for address;\r\n    using SafeMath for uint256;\r\n\r\n    /* ========== DATA STRUCTURES ========== */\r\n\r\n    struct FoundryPosition {\r\n        uint256 lastSnapshotIndex;\r\n        uint256 rewardEarned;\r\n        uint256 epochTimerStart;\r\n    }\r\n\r\n    struct FoundrySnapshot {\r\n        uint256 time;\r\n        uint256 rewardReceived;\r\n        uint256 rewardPerShare;\r\n    }\r\n\r\n    /* ========== STATE VARIABLES ========== */\r\n\r\n    // flags\r\n    bool public initialized = false;\r\n\r\n    address public collateral;\r\n    address public treasury;\r\n    address public oracle; // oracle to get price of collateral\r\n\r\n    mapping(address => FoundryPosition) public blacksmiths;\r\n    FoundrySnapshot[] public foundryHistory;\r\n\r\n    uint256 public withdrawLockupEpochs;\r\n\r\n    /* ========== EVENTS ========== */\r\n\r\n    event Initialized(address indexed executor, uint256 at);\r\n    event Staked(address indexed user, uint256 amount);\r\n    event Withdrawn(address indexed user, uint256 amount);\r\n    event RewardPaid(address indexed user, uint256 reward);\r\n    event RewardAdded(address indexed user, uint256 reward);\r\n\r\n    /* ========== Modifiers =============== */\r\n    modifier blacksmithExists {\r\n        require(balanceOf(msg.sender) > 0, \"Foundry: The blacksmith does not exist\");\r\n        _;\r\n    }\r\n\r\n    modifier updateReward(address blacksmith) {\r\n        if (blacksmith != address(0)) {\r\n            FoundryPosition memory position = blacksmiths[blacksmith];\r\n            position.rewardEarned = earned(blacksmith);\r\n            position.lastSnapshotIndex = latestSnapshotIndex();\r\n            blacksmiths[blacksmith] = position;\r\n        }\r\n        _;\r\n    }\r\n\r\n    modifier notInitialized {\r\n        require(!initialized, \"Foundry: already initialized\");\r\n        _;\r\n    }\r\n\r\n    modifier onlyTreasury() {\r\n        require(msg.sender == address(treasury), \"!treasury\");\r\n        _;\r\n    }\r\n\r\n    /* ========== GOVERNANCE ========== */\r\n\r\n    function initialize(address _collateral, address _share, address _treasury) public notInitialized {\r\n        collateral = _collateral;\r\n        share = _share;\r\n        treasury = _treasury;\r\n\r\n        FoundrySnapshot memory genesisSnapshot = FoundrySnapshot({time: block.number, rewardReceived: 0, rewardPerShare: 0});\r\n        foundryHistory.push(genesisSnapshot);\r\n        withdrawLockupEpochs = 8; // Lock for 8 epochs before release withdraw\r\n        initialized = true;\r\n        emit Initialized(msg.sender, block.number);\r\n    }\r\n\r\n    function setLockUp(uint256 _withdrawLockupEpochs) external onlyOwner {\r\n        require(_withdrawLockupEpochs <= 56, \"_withdrawLockupEpochs: out of range\"); // <= 2 week\r\n        withdrawLockupEpochs = _withdrawLockupEpochs;\r\n    }\r\n\r\n    function setOracle(address _oracle) external onlyOwner {\r\n        oracle = _oracle;\r\n    }\r\n\r\n    /* ========== VIEW FUNCTIONS ========== */\r\n\r\n    function info() public view returns (uint256,uint256,uint256,uint256, uint256,uint256){\r\n        (uint256 _epoch, uint256 _nextEpochPoint, uint256 _epoch_length, uint256 _utilizationRatio) = ITreasury(treasury).epochInfo();\r\n        return (\r\n            _epoch, // current epoch\r\n            _nextEpochPoint, // next epoch point\r\n            _epoch_length, // epoch duration\r\n            _utilizationRatio, // utilization ratio\r\n            totalSupply(),\r\n            IOracle(oracle).consult() // collateral price\r\n        );\r\n    }\r\n\r\n    // =========== Snapshot getters\r\n\r\n    function latestSnapshotIndex() public view returns (uint256) {\r\n        return foundryHistory.length.sub(1);\r\n    }\r\n\r\n    function getLatestSnapshot() internal view returns (FoundrySnapshot memory) {\r\n        return foundryHistory[latestSnapshotIndex()];\r\n    }\r\n\r\n    function getLastSnapshotIndexOf(address blacksmith) public view returns (uint256) {\r\n        return blacksmiths[blacksmith].lastSnapshotIndex;\r\n    }\r\n\r\n    function getLastSnapshotOf(address blacksmith) internal view returns (FoundrySnapshot memory) {\r\n        return foundryHistory[getLastSnapshotIndexOf(blacksmith)];\r\n    }\r\n\r\n    function canWithdraw(address blacksmith) external view returns (bool) {\r\n        return blacksmiths[blacksmith].epochTimerStart.add(withdrawLockupEpochs) <= ITreasury(treasury).epoch();\r\n    }\r\n\r\n    function epoch() external view returns (uint256) {\r\n        return ITreasury(treasury).epoch();\r\n    }\r\n\r\n    function nextEpochPoint() external view returns (uint256) {\r\n        return ITreasury(treasury).nextEpochPoint();\r\n    }\r\n\r\n    // =========== blacksmith getters\r\n\r\n    function rewardPerShare() public view returns (uint256) {\r\n        return getLatestSnapshot().rewardPerShare;\r\n    }\r\n\r\n    function earned(address blacksmith) public view returns (uint256) {\r\n        uint256 latestRPS = getLatestSnapshot().rewardPerShare;\r\n        uint256 storedRPS = getLastSnapshotOf(blacksmith).rewardPerShare;\r\n\r\n        return balanceOf(blacksmith).mul(latestRPS.sub(storedRPS)).div(1e18).add(blacksmiths[blacksmith].rewardEarned);\r\n    }\r\n\r\n    /* ========== MUTATIVE FUNCTIONS ========== */\r\n\r\n    function stake(uint256 amount) public override nonReentrant updateReward(msg.sender) {\r\n        require(amount > 0, \"Foundry: Cannot stake 0\");\r\n        super.stake(amount);\r\n        blacksmiths[msg.sender].epochTimerStart = ITreasury(treasury).epoch(); // reset timer\r\n        emit Staked(msg.sender, amount);\r\n    }\r\n\r\n    function withdraw(uint256 amount) public override nonReentrant blacksmithExists updateReward(msg.sender) {\r\n        require(amount > 0, \"Foundry: Cannot withdraw 0\");\r\n        require(blacksmiths[msg.sender].epochTimerStart.add(withdrawLockupEpochs) <= ITreasury(treasury).epoch(), \"Foundry: still in withdraw lockup\");\r\n        claimReward();\r\n        super.withdraw(amount);\r\n        emit Withdrawn(msg.sender, amount);\r\n    }\r\n\r\n    function exit() external {\r\n        withdraw(balanceOf(msg.sender));\r\n    }\r\n\r\n    function claimReward() public updateReward(msg.sender) {\r\n        uint256 reward = blacksmiths[msg.sender].rewardEarned;\r\n        if (reward > 0) {\r\n            blacksmiths[msg.sender].epochTimerStart = ITreasury(treasury).epoch(); // reset timer\r\n            blacksmiths[msg.sender].rewardEarned = 0;\r\n            IERC20(collateral).safeTransfer(msg.sender, reward);\r\n            emit RewardPaid(msg.sender, reward);\r\n        }\r\n    }\r\n\r\n    function allocateSeigniorage(uint256 amount) external nonReentrant onlyTreasury {\r\n        require(amount > 0, \"Foundry: Cannot allocate 0\");\r\n        require(totalSupply() > 0, \"Foundry: Cannot allocate when totalSupply is 0\");\r\n\r\n        // Create & add new snapshot\r\n        uint256 prevRPS = getLatestSnapshot().rewardPerShare;\r\n        uint256 nextRPS = prevRPS.add(amount.mul(1e18).div(totalSupply()));\r\n\r\n        FoundrySnapshot memory newSnapshot = FoundrySnapshot({time: block.number, rewardReceived: amount, rewardPerShare: nextRPS});\r\n        foundryHistory.push(newSnapshot);\r\n\r\n        IERC20(collateral).safeTransferFrom(msg.sender, address(this), amount);\r\n        emit RewardAdded(msg.sender, amount);\r\n    }\r\n}\r\n",
  "sourcePath": "C:/Users/PaulMuller/Documents/projects/project_AGO/contracts/Foundry.sol",
  "compiler": {
    "name": "solc",
    "version": "0.8.4+commit.c7e474f2.Emscripten.clang"
  },
  "schemaVersion": "3.4.1",
  "updatedAt": "2021-06-23T13:59:52.727Z",
  "devdoc": {
    "kind": "dev",
    "methods": {
      "transferOwnership(address)": {
        "details": "Allows the current owner to transfer control of the contract to a newOwner.",
        "params": {
          "newOwner": "The address to transfer ownership to."
        }
      }
    },
    "version": 1
  },
  "userdoc": {
    "kind": "user",
    "methods": {},
    "version": 1
  }
}