{
  "contractName": "Foundry",
  "abi": [
    {
      "inputs": [
        {
          "internalType": "address",
          "name": "_collateral",
          "type": "address"
        },
        {
          "internalType": "address",
          "name": "_share",
          "type": "address"
        },
        {
          "internalType": "address",
          "name": "_treasury",
          "type": "address"
        }
      ],
      "stateMutability": "nonpayable",
      "type": "constructor"
    },
    {
      "anonymous": false,
      "inputs": [
        {
          "indexed": true,
          "internalType": "address",
          "name": "executor",
          "type": "address"
        },
        {
          "indexed": false,
          "internalType": "uint256",
          "name": "at",
          "type": "uint256"
        }
      ],
      "name": "Initialized",
      "type": "event"
    },
    {
      "anonymous": false,
      "inputs": [
        {
          "indexed": false,
          "internalType": "address",
          "name": "_oracle",
          "type": "address"
        }
      ],
      "name": "OracleSetted",
      "type": "event"
    },
    {
      "anonymous": false,
      "inputs": [
        {
          "indexed": true,
          "internalType": "address",
          "name": "previousOwner",
          "type": "address"
        },
        {
          "indexed": true,
          "internalType": "address",
          "name": "newOwner",
          "type": "address"
        }
      ],
      "name": "OwnershipTransferred",
      "type": "event"
    },
    {
      "anonymous": false,
      "inputs": [
        {
          "indexed": true,
          "internalType": "address",
          "name": "user",
          "type": "address"
        },
        {
          "indexed": false,
          "internalType": "uint256",
          "name": "reward",
          "type": "uint256"
        }
      ],
      "name": "RewardAdded",
      "type": "event"
    },
    {
      "anonymous": false,
      "inputs": [
        {
          "indexed": true,
          "internalType": "address",
          "name": "user",
          "type": "address"
        },
        {
          "indexed": false,
          "internalType": "uint256",
          "name": "reward",
          "type": "uint256"
        }
      ],
      "name": "RewardPaid",
      "type": "event"
    },
    {
      "anonymous": false,
      "inputs": [
        {
          "indexed": true,
          "internalType": "address",
          "name": "user",
          "type": "address"
        },
        {
          "indexed": false,
          "internalType": "uint256",
          "name": "amount",
          "type": "uint256"
        }
      ],
      "name": "Staked",
      "type": "event"
    },
    {
      "anonymous": false,
      "inputs": [
        {
          "indexed": true,
          "internalType": "address",
          "name": "user",
          "type": "address"
        },
        {
          "indexed": false,
          "internalType": "uint256",
          "name": "amount",
          "type": "uint256"
        }
      ],
      "name": "Withdrawn",
      "type": "event"
    },
    {
      "anonymous": false,
      "inputs": [
        {
          "indexed": false,
          "internalType": "uint256",
          "name": "_withdrawLockupEpochs",
          "type": "uint256"
        }
      ],
      "name": "lockUpSetted",
      "type": "event"
    },
    {
      "inputs": [
        {
          "internalType": "address",
          "name": "account",
          "type": "address"
        }
      ],
      "name": "balanceOf",
      "outputs": [
        {
          "internalType": "uint256",
          "name": "",
          "type": "uint256"
        }
      ],
      "stateMutability": "view",
      "type": "function"
    },
    {
      "inputs": [
        {
          "internalType": "address",
          "name": "",
          "type": "address"
        }
      ],
      "name": "blacksmiths",
      "outputs": [
        {
          "internalType": "uint256",
          "name": "lastSnapshotIndex",
          "type": "uint256"
        },
        {
          "internalType": "uint256",
          "name": "rewardEarned",
          "type": "uint256"
        },
        {
          "internalType": "uint256",
          "name": "epochTimerStart",
          "type": "uint256"
        }
      ],
      "stateMutability": "view",
      "type": "function"
    },
    {
      "inputs": [],
      "name": "collateral",
      "outputs": [
        {
          "internalType": "address",
          "name": "",
          "type": "address"
        }
      ],
      "stateMutability": "view",
      "type": "function"
    },
    {
      "inputs": [
        {
          "internalType": "uint256",
          "name": "",
          "type": "uint256"
        }
      ],
      "name": "foundryHistory",
      "outputs": [
        {
          "internalType": "uint256",
          "name": "time",
          "type": "uint256"
        },
        {
          "internalType": "uint256",
          "name": "rewardReceived",
          "type": "uint256"
        },
        {
          "internalType": "uint256",
          "name": "rewardPerShare",
          "type": "uint256"
        }
      ],
      "stateMutability": "view",
      "type": "function"
    },
    {
      "inputs": [],
      "name": "oracle",
      "outputs": [
        {
          "internalType": "address",
          "name": "",
          "type": "address"
        }
      ],
      "stateMutability": "view",
      "type": "function"
    },
    {
      "inputs": [],
      "name": "owner",
      "outputs": [
        {
          "internalType": "address",
          "name": "",
          "type": "address"
        }
      ],
      "stateMutability": "view",
      "type": "function"
    },
    {
      "inputs": [],
      "name": "renounceOwnership",
      "outputs": [],
      "stateMutability": "nonpayable",
      "type": "function"
    },
    {
      "inputs": [],
      "name": "share",
      "outputs": [
        {
          "internalType": "address",
          "name": "",
          "type": "address"
        }
      ],
      "stateMutability": "view",
      "type": "function"
    },
    {
      "inputs": [],
      "name": "totalSupply",
      "outputs": [
        {
          "internalType": "uint256",
          "name": "",
          "type": "uint256"
        }
      ],
      "stateMutability": "view",
      "type": "function"
    },
    {
      "inputs": [
        {
          "internalType": "address",
          "name": "newOwner",
          "type": "address"
        }
      ],
      "name": "transferOwnership",
      "outputs": [],
      "stateMutability": "nonpayable",
      "type": "function"
    },
    {
      "inputs": [],
      "name": "treasury",
      "outputs": [
        {
          "internalType": "address",
          "name": "",
          "type": "address"
        }
      ],
      "stateMutability": "view",
      "type": "function"
    },
    {
      "inputs": [],
      "name": "withdrawLockupEpochs",
      "outputs": [
        {
          "internalType": "uint256",
          "name": "",
          "type": "uint256"
        }
      ],
      "stateMutability": "view",
      "type": "function"
    },
    {
      "inputs": [
        {
          "internalType": "uint256",
          "name": "_withdrawLockupEpochs",
          "type": "uint256"
        }
      ],
      "name": "setLockUp",
      "outputs": [],
      "stateMutability": "nonpayable",
      "type": "function"
    },
    {
      "inputs": [
        {
          "internalType": "address",
          "name": "_oracle",
          "type": "address"
        }
      ],
      "name": "setOracle",
      "outputs": [],
      "stateMutability": "nonpayable",
      "type": "function"
    },
    {
      "inputs": [],
      "name": "info",
      "outputs": [
        {
          "internalType": "uint256",
          "name": "",
          "type": "uint256"
        },
        {
          "internalType": "uint256",
          "name": "",
          "type": "uint256"
        },
        {
          "internalType": "uint256",
          "name": "",
          "type": "uint256"
        },
        {
          "internalType": "uint256",
          "name": "",
          "type": "uint256"
        },
        {
          "internalType": "uint256",
          "name": "",
          "type": "uint256"
        },
        {
          "internalType": "uint256",
          "name": "",
          "type": "uint256"
        }
      ],
      "stateMutability": "view",
      "type": "function"
    },
    {
      "inputs": [],
      "name": "latestSnapshotIndex",
      "outputs": [
        {
          "internalType": "uint256",
          "name": "",
          "type": "uint256"
        }
      ],
      "stateMutability": "view",
      "type": "function"
    },
    {
      "inputs": [
        {
          "internalType": "address",
          "name": "blacksmith",
          "type": "address"
        }
      ],
      "name": "getLastSnapshotIndexOf",
      "outputs": [
        {
          "internalType": "uint256",
          "name": "",
          "type": "uint256"
        }
      ],
      "stateMutability": "view",
      "type": "function"
    },
    {
      "inputs": [
        {
          "internalType": "address",
          "name": "blacksmith",
          "type": "address"
        }
      ],
      "name": "canWithdraw",
      "outputs": [
        {
          "internalType": "bool",
          "name": "",
          "type": "bool"
        }
      ],
      "stateMutability": "view",
      "type": "function"
    },
    {
      "inputs": [],
      "name": "epoch",
      "outputs": [
        {
          "internalType": "uint256",
          "name": "",
          "type": "uint256"
        }
      ],
      "stateMutability": "view",
      "type": "function"
    },
    {
      "inputs": [],
      "name": "nextEpochPoint",
      "outputs": [
        {
          "internalType": "uint256",
          "name": "",
          "type": "uint256"
        }
      ],
      "stateMutability": "view",
      "type": "function"
    },
    {
      "inputs": [],
      "name": "rewardPerShare",
      "outputs": [
        {
          "internalType": "uint256",
          "name": "",
          "type": "uint256"
        }
      ],
      "stateMutability": "view",
      "type": "function"
    },
    {
      "inputs": [
        {
          "internalType": "address",
          "name": "blacksmith",
          "type": "address"
        }
      ],
      "name": "earned",
      "outputs": [
        {
          "internalType": "uint256",
          "name": "",
          "type": "uint256"
        }
      ],
      "stateMutability": "view",
      "type": "function"
    },
    {
      "inputs": [
        {
          "internalType": "uint256",
          "name": "amount",
          "type": "uint256"
        }
      ],
      "name": "stake",
      "outputs": [],
      "stateMutability": "nonpayable",
      "type": "function"
    },
    {
      "inputs": [
        {
          "internalType": "uint256",
          "name": "amount",
          "type": "uint256"
        }
      ],
      "name": "withdraw",
      "outputs": [],
      "stateMutability": "nonpayable",
      "type": "function"
    },
    {
      "inputs": [],
      "name": "exit",
      "outputs": [],
      "stateMutability": "nonpayable",
      "type": "function"
    },
    {
      "inputs": [],
      "name": "claimReward",
      "outputs": [],
      "stateMutability": "nonpayable",
      "type": "function"
    },
    {
      "inputs": [
        {
          "internalType": "uint256",
          "name": "amount",
          "type": "uint256"
        }
      ],
      "name": "allocateSeigniorage",
      "outputs": [],
      "stateMutability": "nonpayable",
      "type": "function"
    }
  ],
  "bytecode": "0x60806040523480156200001157600080fd5b5060405162001d6138038062001d61833981016040819052620000349162000220565b60016003556200004433620001b1565b6001600160a01b038316158015906200006557506001600160a01b03821615155b80156200007a57506001600160a01b03811615155b620000cb5760405162461bcd60e51b815260206004820152601360248201527f7a65726f20616464726573732070617373656400000000000000000000000000604482015260640160405180910390fd5b600580546001600160a01b03199081166001600160a01b0395861617909155600080548216938516939093178355600680549091169190931617909155604080516060810182524381526020810183815291810183815260098054600181018255945290517f6e1540171b6c0c960b71a7020d9f60077f6af931a8bbf590da0223dacf75c7af60039094029384015590517f6e1540171b6c0c960b71a7020d9f60077f6af931a8bbf590da0223dacf75c7b0830155517f6e1540171b6c0c960b71a7020d9f60077f6af931a8bbf590da0223dacf75c7b1909101556008600a5562000269565b600480546001600160a01b038381166001600160a01b0319831681179093556040519116919082907f8be0079c531659141344cd1fd0a4f28419497f9722a3daafe3b4186f6b6457e090600090a35050565b80516001600160a01b03811681146200021b57600080fd5b919050565b60008060006060848603121562000235578283fd5b620002408462000203565b9250620002506020850162000203565b9150620002606040850162000203565b90509250925092565b611ae880620002796000396000f3fe608060405234801561001057600080fd5b50600436106101a85760003560e01c80637adbf973116100f9578063a694fc3a11610097578063c5967c2611610071578063c5967c26146103d6578063d8dfeb45146103de578063e9fad8ee146103f1578063f2fde38b146103f957600080fd5b8063a694fc3a146103a8578063a8d5fd65146103bb578063b88a802f146103ce57600080fd5b80638ab775e2116100d35780638ab775e2146103695780638da5cb5b1461037c578063900cf0cf1461038d57806397ffe1d71461039557600080fd5b80637adbf973146103305780637dc0d1d0146103435780637e0a883c1461035657600080fd5b8063370158ea1161016657806361d027b31161014057806361d027b3146102ab57806370a08231146102d6578063714b4658146102ff578063715018a61461032857600080fd5b8063370158ea146102665780633f9e3f041461029b578063446a2ec8146102a357600080fd5b80628cc262146101ad57806318160ddd146101d357806319262d30146101db5780631e85cd65146101fe5780632df6b92e146102075780632e1a7d4d14610251575b600080fd5b6101c06101bb36600461189b565b61040c565b6040519081526020015b60405180910390f35b6001546101c0565b6101ee6101e936600461189b565b61049f565b60405190151581526020016101ca565b6101c0600a5481565b61023661021536600461189b565b60086020526000908152604090208054600182015460029092015490919083565b604080519384526020840192909252908201526060016101ca565b61026461025f3660046118e2565b61054d565b005b61026e610819565b604080519687526020870195909552938501929092526060840152608083015260a082015260c0016101ca565b6101c0610960565b6101c0610977565b6006546102be906001600160a01b031681565b6040516001600160a01b0390911681526020016101ca565b6101c06102e436600461189b565b6001600160a01b031660009081526002602052604090205490565b6101c061030d36600461189b565b6001600160a01b031660009081526008602052604090205490565b61026461098a565b61026461033e36600461189b565b6109c0565b6007546102be906001600160a01b031681565b6102366103643660046118e2565b610a3f565b6102646103773660046118e2565b610a72565b6004546001600160a01b03166102be565b6101c0610b2e565b6102646103a33660046118e2565b610bab565b6102646103b63660046118e2565b610e1a565b6000546102be906001600160a01b031681565b610264610ffb565b6101c061119e565b6005546102be906001600160a01b031681565b6102646111e3565b61026461040736600461189b565b6111fc565b600080610417611297565b60400151905060006104288461131f565b6040908101516001600160a01b038616600090815260086020529190912060010154909150670de0b6b3a76400006104608385611a59565b6001600160a01b0387166000908152600260205260409020546104839190611a3a565b61048d9190611a1a565b6104979190611a02565b949350505050565b6006546040805163900cf0cf60e01b815290516000926001600160a01b03169163900cf0cf916004808301926020929190829003018186803b1580156104e457600080fd5b505afa1580156104f8573d6000803e3d6000fd5b505050506040513d601f19601f8201168201806040525081019061051c91906118fa565b600a546001600160a01b0384166000908152600860205260409020600201546105459190611a02565b111592915050565b600260035414156105795760405162461bcd60e51b8152600401610570906119cb565b60405180910390fd5b600260035533801561060f576001600160a01b03811660009081526008602090815260409182902082516060810184528154815260018201549281019290925260020154918101919091526105cd8261040c565b60208201526105da610960565b81526001600160a01b038216600090815260086020908152604091829020835181559083015160018201559101516002909101555b336000908152600260205260408120541161067b5760405162461bcd60e51b815260206004820152602660248201527f466f756e6472793a2054686520626c61636b736d69746820646f6573206e6f7460448201526508195e1a5cdd60d21b6064820152608401610570565b600082116106cb5760405162461bcd60e51b815260206004820152601a60248201527f466f756e6472793a2043616e6e6f7420776974686472617720300000000000006044820152606401610570565b600660009054906101000a90046001600160a01b03166001600160a01b031663900cf0cf6040518163ffffffff1660e01b815260040160206040518083038186803b15801561071957600080fd5b505afa15801561072d573d6000803e3d6000fd5b505050506040513d601f19601f8201168201806040525081019061075191906118fa565b600a54336000908152600860205260409020600201546107719190611a02565b11156107c95760405162461bcd60e51b815260206004820152602160248201527f466f756e6472793a207374696c6c20696e207769746864726177206c6f636b756044820152600760fc1b6064820152608401610570565b6107d1610ffb565b6107da826113c0565b60405182815233907f7084f5476618d8e60b11ef0d7d3f06914655adb8793e28ff7f018d4c76d505d5906020015b60405180910390a250506001600355565b600080600080600080600080600080600660009054906101000a90046001600160a01b03166001600160a01b0316631f1b8a8c6040518163ffffffff1660e01b815260040160806040518083038186803b15801561087657600080fd5b505afa15801561088a573d6000803e3d6000fd5b505050506040513d601f19601f820116820180604052508101906108ae9190611912565b9350935093509350838383836108c360015490565b600760009054906101000a90046001600160a01b03166001600160a01b0316637eeda7036040518163ffffffff1660e01b815260040160206040518083038186803b15801561091157600080fd5b505afa158015610925573d6000803e3d6000fd5b505050506040513d601f19601f8201168201806040525081019061094991906118fa565b949f939e50919c509a509850909650945050505050565b60095460009061097290600190611a59565b905090565b6000610981611297565b60400151905090565b6004546001600160a01b031633146109b45760405162461bcd60e51b815260040161057090611996565b6109be60006114be565b565b6004546001600160a01b031633146109ea5760405162461bcd60e51b815260040161057090611996565b600780546001600160a01b0319166001600160a01b0383169081179091556040519081527f11b44d37b4f8cdea0b49c2c4038eb4aa833048d98aecb94f2842138fc1e82b96906020015b60405180910390a150565b60098181548110610a4f57600080fd5b600091825260209091206003909102018054600182015460029092015490925083565b6004546001600160a01b03163314610a9c5760405162461bcd60e51b815260040161057090611996565b6038811115610af95760405162461bcd60e51b815260206004820152602360248201527f5f77697468647261774c6f636b757045706f6368733a206f7574206f662072616044820152626e676560e81b6064820152608401610570565b600a8190556040518181527f95c5499456ce061c92d91dfb75ba7e05a68eeb7aa3c5479fe9217a33e8e2e4d590602001610a34565b6006546040805163900cf0cf60e01b815290516000926001600160a01b03169163900cf0cf916004808301926020929190829003018186803b158015610b7357600080fd5b505afa158015610b87573d6000803e3d6000fd5b505050506040513d601f19601f8201168201806040525081019061097291906118fa565b60026003541415610bce5760405162461bcd60e51b8152600401610570906119cb565b60026003556006546001600160a01b03163314610c195760405162461bcd60e51b815260206004820152600960248201526821747265617375727960b81b6044820152606401610570565b60008111610c695760405162461bcd60e51b815260206004820152601a60248201527f466f756e6472793a2043616e6e6f7420616c6c6f6361746520300000000000006044820152606401610570565b6000610c7460015490565b11610cd85760405162461bcd60e51b815260206004820152602e60248201527f466f756e6472793a2043616e6e6f7420616c6c6f63617465207768656e20746f60448201526d074616c537570706c7920697320360941b6064820152608401610570565b6000610ce2611297565b6040015190506000610cf360015490565b610d0584670de0b6b3a7640000611a3a565b610d0f9190611a1a565b610d199083611a02565b60408051606081018252438152602081018681529181018381526009805460018101825560009190915282517f6e1540171b6c0c960b71a7020d9f60077f6af931a8bbf590da0223dacf75c7af60039092029182015592517f6e1540171b6c0c960b71a7020d9f60077f6af931a8bbf590da0223dacf75c7b0840155517f6e1540171b6c0c960b71a7020d9f60077f6af931a8bbf590da0223dacf75c7b19092019190915560055491925090610dda906001600160a01b0316333087611510565b60405184815233907fac24935fd910bc682b5ccb1a07b718cadf8cf2f6d1404c4f3ddc3662dae40e299060200160405180910390a2505060016003555050565b60026003541415610e3d5760405162461bcd60e51b8152600401610570906119cb565b6002600355338015610ed3576001600160a01b0381166000908152600860209081526040918290208251606081018452815481526001820154928101929092526002015491810191909152610e918261040c565b6020820152610e9e610960565b81526001600160a01b038216600090815260086020908152604091829020835181559083015160018201559101516002909101555b60008211610f235760405162461bcd60e51b815260206004820152601760248201527f466f756e6472793a2043616e6e6f74207374616b6520300000000000000000006044820152606401610570565b610f2c82611581565b600660009054906101000a90046001600160a01b03166001600160a01b031663900cf0cf6040518163ffffffff1660e01b815260040160206040518083038186803b158015610f7a57600080fd5b505afa158015610f8e573d6000803e3d6000fd5b505050506040513d601f19601f82011682018060405250810190610fb291906118fa565b33600081815260086020526040908190206002019290925590517f9e71bc8eea02a63969f509818f2dafb9254532904319f9dbda79b67bd34a5f3d906108089085815260200190565b33801561108c576001600160a01b038116600090815260086020908152604091829020825160608101845281548152600182015492810192909252600201549181019190915261104a8261040c565b6020820152611057610960565b81526001600160a01b038216600090815260086020908152604091829020835181559083015160018201559101516002909101555b33600090815260086020526040902060010154801561119a57600660009054906101000a90046001600160a01b03166001600160a01b031663900cf0cf6040518163ffffffff1660e01b815260040160206040518083038186803b1580156110f357600080fd5b505afa158015611107573d6000803e3d6000fd5b505050506040513d601f19601f8201168201806040525081019061112b91906118fa565b3360008181526008602052604081206002810193909355600190920191909155600554611164916001600160a01b03909116908361161a565b60405181815233907fe2403640ba68fed3a2f88b7557551d1993f84b99bb10ff833f0cf8db0c5e04869060200160405180910390a25b5050565b600654604080516362cb3e1360e11b815290516000926001600160a01b03169163c5967c26916004808301926020929190829003018186803b158015610b7357600080fd5b336000908152600260205260409020546109be9061054d565b6004546001600160a01b031633146112265760405162461bcd60e51b815260040161057090611996565b6001600160a01b03811661128b5760405162461bcd60e51b815260206004820152602660248201527f4f776e61626c653a206e6577206f776e657220697320746865207a65726f206160448201526564647265737360d01b6064820152608401610570565b611294816114be565b50565b6112bb60405180606001604052806000815260200160008152602001600081525090565b60096112c5610960565b815481106112e357634e487b7160e01b600052603260045260246000fd5b90600052602060002090600302016040518060600160405290816000820154815260200160018201548152602001600282015481525050905090565b61134360405180606001604052806000815260200160008152602001600081525090565b6009611364836001600160a01b031660009081526008602052604090205490565b8154811061138257634e487b7160e01b600052603260045260246000fd5b906000526020600020906003020160405180606001604052908160008201548152602001600182015481526020016002820154815250509050919050565b600081116114045760405162461bcd60e51b8152602060048201526011602482015270043616e6e6f74207769746864726177203607c1b6044820152606401610570565b33600090815260026020526040902054818110156114785760405162461bcd60e51b815260206004820152602b60248201527f576974686472617720726571756573742067726561746572207468616e20737460448201526a185ad95908185b5bdd5b9d60aa1b6064820152608401610570565b816001546114869190611a59565b6001556114938282611a59565b33600081815260026020526040812092909255905461119a916001600160a01b03909116908461161a565b600480546001600160a01b038381166001600160a01b0319831681179093556040519116919082907f8be0079c531659141344cd1fd0a4f28419497f9722a3daafe3b4186f6b6457e090600090a35050565b6040516001600160a01b038085166024830152831660448201526064810182905261157b9085906323b872dd60e01b906084015b60408051601f198184030181529190526020810180516001600160e01b03166001600160e01b03199093169290921790915261164f565b50505050565b600081116115c25760405162461bcd60e51b815260206004820152600e60248201526d043616e6e6f74207374616b6520360941b6044820152606401610570565b806001546115d09190611a02565b600155336000908152600260205260409020546115ee908290611a02565b336000818152600260205260408120929092559054611294916001600160a01b03909116903084611510565b6040516001600160a01b03831660248201526044810182905261164a90849063a9059cbb60e01b90606401611544565b505050565b60006116a4826040518060400160405280602081526020017f5361666545524332303a206c6f772d6c6576656c2063616c6c206661696c6564815250856001600160a01b03166117219092919063ffffffff16565b80519091501561164a57808060200190518101906116c291906118c2565b61164a5760405162461bcd60e51b815260206004820152602a60248201527f5361666545524332303a204552433230206f7065726174696f6e20646964206e6044820152691bdd081cdd58d8d9595960b21b6064820152608401610570565b6060611730848460008561173a565b90505b9392505050565b60608247101561179b5760405162461bcd60e51b815260206004820152602660248201527f416464726573733a20696e73756666696369656e742062616c616e636520666f6044820152651c8818d85b1b60d21b6064820152608401610570565b843b6117e95760405162461bcd60e51b815260206004820152601d60248201527f416464726573733a2063616c6c20746f206e6f6e2d636f6e74726163740000006044820152606401610570565b600080866001600160a01b031685876040516118059190611947565b60006040518083038185875af1925050503d8060008114611842576040519150601f19603f3d011682016040523d82523d6000602084013e611847565b606091505b5091509150611857828286611862565b979650505050505050565b60608315611871575081611733565b8251156118815782518084602001fd5b8160405162461bcd60e51b81526004016105709190611963565b6000602082840312156118ac578081fd5b81356001600160a01b0381168114611733578182fd5b6000602082840312156118d3578081fd5b81518015158114611733578182fd5b6000602082840312156118f3578081fd5b5035919050565b60006020828403121561190b578081fd5b5051919050565b60008060008060808587031215611927578283fd5b505082516020840151604085015160609095015191969095509092509050565b60008251611959818460208701611a70565b9190910192915050565b6020815260008251806020840152611982816040850160208701611a70565b601f01601f19169190910160400192915050565b6020808252818101527f4f776e61626c653a2063616c6c6572206973206e6f7420746865206f776e6572604082015260600190565b6020808252601f908201527f5265656e7472616e637947756172643a207265656e7472616e742063616c6c00604082015260600190565b60008219821115611a1557611a15611a9c565b500190565b600082611a3557634e487b7160e01b81526012600452602481fd5b500490565b6000816000190483118215151615611a5457611a54611a9c565b500290565b600082821015611a6b57611a6b611a9c565b500390565b60005b83811015611a8b578181015183820152602001611a73565b8381111561157b5750506000910152565b634e487b7160e01b600052601160045260246000fdfea26469706673582212200beab2690e60538de979f31c17299536b4b256c6b914c3de4f0ae9f2b175569f64736f6c63430008040033",
  "immutableReferences": {},
  "source": "// SPDX-License-Identifier: MIT\r\npragma solidity 0.8.4;\r\n\r\nimport \"@openzeppelin/contracts/utils/Address.sol\";\r\nimport \"@openzeppelin/contracts/token/ERC20/utils/SafeERC20.sol\";\r\nimport \"@openzeppelin/contracts/token/ERC20/IERC20.sol\";\r\nimport \"@openzeppelin/contracts/access/Ownable.sol\";\r\nimport \"@openzeppelin/contracts/security/ReentrancyGuard.sol\";\r\nimport \"./interfaces/IOracle.sol\";\r\nimport \"./interfaces/ITreasury.sol\";\r\nimport \"./utilityContracts/ShareWrapper.sol\";\r\n\r\n\r\ncontract Foundry is ShareWrapper, ReentrancyGuard, Ownable {\r\n    using SafeERC20 for IERC20;\r\n    using Address for address;\r\n\r\n    struct FoundryPosition {\r\n        uint256 lastSnapshotIndex;\r\n        uint256 rewardEarned;\r\n        uint256 epochTimerStart;\r\n    }\r\n\r\n    struct FoundrySnapshot {\r\n        uint256 time;\r\n        uint256 rewardReceived;\r\n        uint256 rewardPerShare;\r\n    }\r\n\r\n    address public collateral;\r\n    address public treasury;\r\n    address public oracle; // oracle to get price of collateral\r\n\r\n    mapping(address => FoundryPosition) public blacksmiths;\r\n    FoundrySnapshot[] public foundryHistory;\r\n    uint256 public withdrawLockupEpochs;\r\n\r\n    event Initialized(address indexed executor, uint256 at);\r\n    event Staked(address indexed user, uint256 amount);\r\n    event Withdrawn(address indexed user, uint256 amount);\r\n    event RewardPaid(address indexed user, uint256 reward);\r\n    event RewardAdded(address indexed user, uint256 reward);\r\n    event lockUpSetted(uint256 _withdrawLockupEpochs);\r\n    event OracleSetted(address _oracle);\r\n\r\n    modifier updateReward(address blacksmith) {\r\n        if (blacksmith != address(0)) {\r\n            FoundryPosition memory position = blacksmiths[blacksmith];\r\n            position.rewardEarned = earned(blacksmith);\r\n            position.lastSnapshotIndex = latestSnapshotIndex();\r\n            blacksmiths[blacksmith] = position;\r\n        }\r\n        _;\r\n    }\r\n\r\n    modifier onlyTreasury() {\r\n        require(msg.sender == address(treasury), \"!treasury\");\r\n        _;\r\n    }\r\n\r\n    constructor (address _collateral, address _share, address _treasury){\r\n        require(_collateral != address(0) && _share!=address(0) && _treasury!=address(0), 'zero address passed');\r\n        collateral = _collateral;\r\n        share = _share;\r\n        treasury = _treasury;\r\n\r\n        FoundrySnapshot memory genesisSnapshot = FoundrySnapshot({time: block.number, rewardReceived: 0, rewardPerShare: 0});\r\n        foundryHistory.push(genesisSnapshot);\r\n        withdrawLockupEpochs = 8; // Lock for 8 epochs before release withdraw\r\n    }\r\n\r\n    function setLockUp(uint256 _withdrawLockupEpochs) external onlyOwner {\r\n        require(_withdrawLockupEpochs <= 56, \"_withdrawLockupEpochs: out of range\"); // <= 2 week\r\n        withdrawLockupEpochs = _withdrawLockupEpochs;\r\n        emit lockUpSetted(withdrawLockupEpochs);\r\n    }\r\n\r\n    function setOracle(address _oracle) external onlyOwner {\r\n        oracle = _oracle;\r\n        emit OracleSetted(oracle);\r\n    }\r\n\r\n    /*=========== VIEW FUNCTIONS ===========*/\r\n\r\n    function info() public view returns (uint256,uint256,uint256,uint256, uint256,uint256){\r\n        (uint256 _epoch, uint256 _nextEpochPoint, uint256 _epoch_length, uint256 _utilizationRatio) = ITreasury(treasury).epochInfo();\r\n        return (\r\n            _epoch,\r\n            _nextEpochPoint,\r\n            _epoch_length,\r\n            _utilizationRatio,\r\n            totalSupply(),\r\n            IOracle(oracle).consult()\r\n        );\r\n    }\r\n\r\n    function latestSnapshotIndex() public view returns (uint256){\r\n        return foundryHistory.length - 1;\r\n    }\r\n\r\n    function getLatestSnapshot() internal view returns (FoundrySnapshot memory){\r\n        return foundryHistory[latestSnapshotIndex()];\r\n    }\r\n\r\n    function getLastSnapshotIndexOf(address blacksmith) public view returns (uint256){\r\n        return blacksmiths[blacksmith].lastSnapshotIndex;\r\n    }\r\n\r\n    function getLastSnapshotOf(address blacksmith) internal view returns (FoundrySnapshot memory){\r\n        return foundryHistory[getLastSnapshotIndexOf(blacksmith)];\r\n    }\r\n\r\n    function canWithdraw(address blacksmith) external view returns (bool){\r\n        return blacksmiths[blacksmith].epochTimerStart + withdrawLockupEpochs <= ITreasury(treasury).epoch();\r\n    }\r\n\r\n    function epoch() external view returns (uint256){\r\n        return ITreasury(treasury).epoch();\r\n    }\r\n\r\n    function nextEpochPoint() external view returns (uint256){\r\n        return ITreasury(treasury).nextEpochPoint();\r\n    }\r\n\r\n    function rewardPerShare() public view returns (uint256){\r\n        return getLatestSnapshot().rewardPerShare;\r\n    }\r\n\r\n    function earned(address blacksmith) public view returns (uint256) {\r\n        uint256 latestRPS = getLatestSnapshot().rewardPerShare;\r\n        uint256 storedRPS = getLastSnapshotOf(blacksmith).rewardPerShare;\r\n        return balanceOf(blacksmith) * (latestRPS - storedRPS) / 1e18 + (blacksmiths[blacksmith].rewardEarned);\r\n    }\r\n\r\n    /*=========== MUTATIVE FUNCTIONS ===========*/\r\n\r\n    function stake(uint256 amount) public override nonReentrant updateReward(msg.sender) {\r\n        require(amount > 0, \"Foundry: Cannot stake 0\");\r\n        super.stake(amount);\r\n        blacksmiths[msg.sender].epochTimerStart = ITreasury(treasury).epoch(); // reset timer\r\n        emit Staked(msg.sender, amount);\r\n    }\r\n\r\n    function withdraw(uint256 amount) public override nonReentrant updateReward(msg.sender) {\r\n        require(balanceOf(msg.sender) > 0, \"Foundry: The blacksmith does not exist\");\r\n        require(amount > 0, \"Foundry: Cannot withdraw 0\");\r\n        require(blacksmiths[msg.sender].epochTimerStart + withdrawLockupEpochs <= ITreasury(treasury).epoch(), \"Foundry: still in withdraw lockup\");\r\n        claimReward();\r\n        super.withdraw(amount);\r\n        emit Withdrawn(msg.sender, amount);\r\n    }\r\n\r\n    function exit() external {\r\n        withdraw(balanceOf(msg.sender));\r\n    }\r\n\r\n    function claimReward() public updateReward(msg.sender) {\r\n        uint256 reward = blacksmiths[msg.sender].rewardEarned;\r\n        if (reward > 0) {\r\n            blacksmiths[msg.sender].epochTimerStart = ITreasury(treasury).epoch(); // reset timer\r\n            blacksmiths[msg.sender].rewardEarned = 0;\r\n            IERC20(collateral).safeTransfer(msg.sender, reward);\r\n            emit RewardPaid(msg.sender, reward);\r\n        }\r\n    }\r\n\r\n    function allocateSeigniorage(uint256 amount) external nonReentrant onlyTreasury {\r\n        require(amount > 0, \"Foundry: Cannot allocate 0\");\r\n        require(totalSupply() > 0, \"Foundry: Cannot allocate when totalSupply is 0\");\r\n\r\n        // Create & add new snapshot\r\n        uint256 prevRPS = getLatestSnapshot().rewardPerShare;\r\n        uint256 nextRPS = prevRPS + (amount * 1e18 / totalSupply());\r\n\r\n        FoundrySnapshot memory newSnapshot = FoundrySnapshot({\r\n            time: block.number, \r\n            rewardReceived: amount, \r\n            rewardPerShare: nextRPS\r\n        });\r\n        foundryHistory.push(newSnapshot);\r\n\r\n        IERC20(collateral).safeTransferFrom(msg.sender, address(this), amount);\r\n        emit RewardAdded(msg.sender, amount);\r\n    }\r\n}\r\n",
  "sourcePath": "C:/Users/PaulMuller/Documents/projects/project_AGO/contracts/Foundry.sol",
  "compiler": {
    "name": "solc",
    "version": "0.8.4+commit.c7e474f2.Emscripten.clang"
  },
  "schemaVersion": "3.4.1",
  "updatedAt": "2021-08-08T11:17:19.628Z",
  "devdoc": {
    "kind": "dev",
    "methods": {
      "owner()": {
        "details": "Returns the address of the current owner."
      },
      "renounceOwnership()": {
        "details": "Leaves the contract without owner. It will not be possible to call `onlyOwner` functions anymore. Can only be called by the current owner. NOTE: Renouncing ownership will leave the contract without an owner, thereby removing any functionality that is only available to the owner."
      },
      "transferOwnership(address)": {
        "details": "Transfers ownership of the contract to a new account (`newOwner`). Can only be called by the current owner."
      }
    },
    "version": 1
  },
  "userdoc": {
    "kind": "user",
    "methods": {},
    "version": 1
  }
}