{
  "contractName": "MockChainlinkAggregator",
  "abi": [
    {
      "inputs": [
        {
          "internalType": "int256",
          "name": "_mock_price",
          "type": "int256"
        },
        {
          "internalType": "uint8",
          "name": "_decimals",
          "type": "uint8"
        }
      ],
      "stateMutability": "nonpayable",
      "type": "constructor"
    },
    {
      "inputs": [],
      "name": "mock_decimals",
      "outputs": [
        {
          "internalType": "uint8",
          "name": "",
          "type": "uint8"
        }
      ],
      "stateMutability": "view",
      "type": "function"
    },
    {
      "inputs": [],
      "name": "mock_price",
      "outputs": [
        {
          "internalType": "int256",
          "name": "",
          "type": "int256"
        }
      ],
      "stateMutability": "view",
      "type": "function"
    },
    {
      "inputs": [],
      "name": "decimals",
      "outputs": [
        {
          "internalType": "uint8",
          "name": "",
          "type": "uint8"
        }
      ],
      "stateMutability": "view",
      "type": "function"
    },
    {
      "inputs": [],
      "name": "latestRoundData",
      "outputs": [
        {
          "internalType": "uint80",
          "name": "",
          "type": "uint80"
        },
        {
          "internalType": "int256",
          "name": "answer",
          "type": "int256"
        },
        {
          "internalType": "uint256",
          "name": "",
          "type": "uint256"
        },
        {
          "internalType": "uint256",
          "name": "",
          "type": "uint256"
        },
        {
          "internalType": "uint80",
          "name": "",
          "type": "uint80"
        }
      ],
      "stateMutability": "view",
      "type": "function"
    },
    {
      "inputs": [
        {
          "internalType": "int256",
          "name": "_mock_price",
          "type": "int256"
        }
      ],
      "name": "setLatestPrice",
      "outputs": [],
      "stateMutability": "nonpayable",
      "type": "function"
    },
    {
      "inputs": [
        {
          "internalType": "uint8",
          "name": "_decimals",
          "type": "uint8"
        }
      ],
      "name": "setDecimals",
      "outputs": [],
      "stateMutability": "nonpayable",
      "type": "function"
    }
  ],
  "bytecode": "0x608060405234801561001057600080fd5b5060405161021738038061021783398101604081905261002f9161004d565b6000919091556001805460ff191660ff909216919091179055610081565b6000806040838503121561005f578182fd5b82519150602083015160ff81168114610076578182fd5b809150509250929050565b610187806100906000396000f3fe608060405234801561001057600080fd5b50600436106100625760003560e01c8063313ce567146100675780635161b898146100855780637a1395aa1461009c578063805fe7fb146100c2578063c3a995f9146100d5578063feaf968c146100e2575b600080fd5b60015460ff165b60405160ff90911681526020015b60405180910390f35b61008e60005481565b60405190815260200161007c565b6100c06100aa366004610129565b6001805460ff191660ff92909216919091179055565b005b6100c06100d0366004610111565b600055565b60015461006e9060ff1681565b60008054604080518381526020810192909252810182905260608101829052608081019190915260a00161007c565b600060208284031215610122578081fd5b5035919050565b60006020828403121561013a578081fd5b813560ff8116811461014a578182fd5b939250505056fea264697066735822122038490604fed2ed0691dc2b545c9f61427e2acf9a77638fefaba3d2ac14e674a464736f6c63430008040033",
  "immutableReferences": {},
  "source": "// SPDX-License-Identifier: MIT\r\n\r\npragma solidity 0.8.4;\r\n\r\ncontract MockChainlinkAggregator {\r\n    int256 public mock_price;\r\n    uint8 public mock_decimals;\r\n\r\n    constructor(int256 _mock_price, uint8 _decimals) {\r\n        mock_price = _mock_price;\r\n        mock_decimals = _decimals;\r\n    }\r\n\r\n    function decimals() external view returns (uint8) {\r\n        return mock_decimals;\r\n    }\r\n\r\n    function latestRoundData()\r\n        external\r\n        view\r\n        returns (\r\n            uint80,\r\n            int256 answer,\r\n            uint256,\r\n            uint256,\r\n            uint80\r\n        )\r\n    {\r\n        answer = mock_price;\r\n    }\r\n\r\n    function setLatestPrice(int256 _mock_price) public {\r\n        mock_price = _mock_price;\r\n    }\r\n\r\n    function setDecimals(uint8 _decimals) public {\r\n        mock_decimals = _decimals;\r\n    }\r\n}\r\n",
  "sourcePath": "C:/Users/PaulMuller/Documents/projects/project_AGO/contracts/mock/oracle/MockChainlinkAggregator.sol",
  "compiler": {
    "name": "solc",
    "version": "0.8.4+commit.c7e474f2.Emscripten.clang"
  },
  "schemaVersion": "3.4.1",
  "updatedAt": "2021-06-30T14:24:16.467Z",
  "devdoc": {
    "kind": "dev",
    "methods": {},
    "version": 1
  },
  "userdoc": {
    "kind": "user",
    "methods": {},
    "version": 1
  }
}