{
  "contractName": "MockPairOracle",
  "abi": [
    {
      "inputs": [
        {
          "internalType": "uint256",
          "name": "_mockPrice",
          "type": "uint256"
        }
      ],
      "stateMutability": "nonpayable",
      "type": "constructor"
    },
    {
      "inputs": [],
      "name": "PERIOD",
      "outputs": [
        {
          "internalType": "uint256",
          "name": "",
          "type": "uint256"
        }
      ],
      "stateMutability": "view",
      "type": "function"
    },
    {
      "inputs": [],
      "name": "mockPrice",
      "outputs": [
        {
          "internalType": "uint256",
          "name": "",
          "type": "uint256"
        }
      ],
      "stateMutability": "view",
      "type": "function"
    },
    {
      "inputs": [],
      "name": "owner",
      "outputs": [
        {
          "internalType": "address",
          "name": "",
          "type": "address"
        }
      ],
      "stateMutability": "view",
      "type": "function"
    },
    {
      "inputs": [
        {
          "internalType": "address",
          "name": "newOwner",
          "type": "address"
        }
      ],
      "name": "transferOwnership",
      "outputs": [],
      "stateMutability": "nonpayable",
      "type": "function"
    },
    {
      "inputs": [
        {
          "internalType": "address",
          "name": "",
          "type": "address"
        },
        {
          "internalType": "uint256",
          "name": "amountIn",
          "type": "uint256"
        }
      ],
      "name": "consult",
      "outputs": [
        {
          "internalType": "uint256",
          "name": "amountOut",
          "type": "uint256"
        }
      ],
      "stateMutability": "view",
      "type": "function"
    },
    {
      "inputs": [],
      "name": "update",
      "outputs": [],
      "stateMutability": "nonpayable",
      "type": "function"
    },
    {
      "inputs": [
        {
          "internalType": "uint256",
          "name": "_period",
          "type": "uint256"
        }
      ],
      "name": "setPeriod",
      "outputs": [],
      "stateMutability": "nonpayable",
      "type": "function"
    },
    {
      "inputs": [
        {
          "internalType": "uint256",
          "name": "_mockPrice",
          "type": "uint256"
        }
      ],
      "name": "mock",
      "outputs": [],
      "stateMutability": "nonpayable",
      "type": "function"
    }
  ],
  "bytecode": "0x6080604052610e1060025534801561001657600080fd5b5060405161031f38038061031f8339810160408190526100359161004f565b600080546001600160a01b03191633179055600155610067565b600060208284031215610060578081fd5b5051919050565b6102a9806100766000396000f3fe608060405234801561001057600080fd5b50600436106100885760003560e01c8063a2e620451161005b578063a2e62045146100a0578063b4d1d79514610106578063c7207e741461010f578063f2fde38b1461011857600080fd5b80630f3a9f651461008d5780633ddac953146100a25780633de377ec146100c85780638da5cb5b146100db575b600080fd5b6100a061009b366004610210565b61012b565b005b6100b56100b03660046101e7565b610147565b6040519081526020015b60405180910390f35b6100a06100d6366004610210565b600155565b6000546100ee906001600160a01b031681565b6040516001600160a01b0390911681526020016100bf565b6100b560025481565b6100b560015481565b6100a06101263660046101cd565b61016c565b6000546001600160a01b0316331461014257600080fd5b600255565b6000620f42408260015461015b9190610248565b6101659190610228565b9392505050565b6000546001600160a01b0316331461018357600080fd5b6001600160a01b038116156101ae57600080546001600160a01b0319166001600160a01b0383161790555b50565b80356001600160a01b03811681146101c857600080fd5b919050565b6000602082840312156101de578081fd5b610165826101b1565b600080604083850312156101f9578081fd5b610202836101b1565b946020939093013593505050565b600060208284031215610221578081fd5b5035919050565b60008261024357634e487b7160e01b81526012600452602481fd5b500490565b600081600019048311821515161561026e57634e487b7160e01b81526011600452602481fd5b50029056fea26469706673582212203de0c0a3f87ee270d29e0f96e1871f2d401af5b94d7b96fb55ea86f8f313ef6164736f6c63430008040033",
  "immutableReferences": {},
  "source": "// SPDX-License-Identifier: MIT\r\n\r\npragma solidity 0.8.4;\r\n\r\nimport \"../../utilityContracts/Ownable.sol\";\r\nimport \"../../interfaces/IPairOracle.sol\";\r\n\r\ncontract MockPairOracle is IPairOracle, Ownable {\r\n    uint256 public mockPrice;\r\n    uint256 internal constant PRICE_PRECISION = 1e6;\r\n    uint256 public PERIOD = 3600; // 1 hour TWAP (time-weighted average price)\r\n\r\n    constructor(uint256 _mockPrice) {\r\n        mockPrice = _mockPrice;\r\n    }\r\n\r\n    function consult(address, uint256 amountIn) external view override returns (uint256 amountOut) {\r\n        return (mockPrice * amountIn) / PRICE_PRECISION;\r\n    }\r\n\r\n    function update() external override {}\r\n\r\n    function setPeriod(uint256 _period) external onlyOwner {\r\n        PERIOD = _period;\r\n    }\r\n\r\n    function mock(uint256 _mockPrice) external {\r\n        mockPrice = _mockPrice;\r\n    }\r\n}\r\n",
  "sourcePath": "C:/Users/PaulMuller/Documents/projects/project_AGO/contracts/mock/oracle/MockPairOracle.sol",
  "compiler": {
    "name": "solc",
    "version": "0.8.4+commit.c7e474f2.Emscripten.clang"
  },
  "schemaVersion": "3.4.1",
  "updatedAt": "2021-06-30T14:24:16.469Z",
  "devdoc": {
    "kind": "dev",
    "methods": {
      "transferOwnership(address)": {
        "details": "Allows the current owner to transfer control of the contract to a newOwner.",
        "params": {
          "newOwner": "The address to transfer ownership to."
        }
      }
    },
    "version": 1
  },
  "userdoc": {
    "kind": "user",
    "methods": {},
    "version": 1
  }
}