{
  "contractName": "Pool",
  "abi": [
    {
      "inputs": [
        {
          "internalType": "address",
          "name": "_dollar",
          "type": "address"
        },
        {
          "internalType": "address",
          "name": "_share",
          "type": "address"
        },
        {
          "internalType": "address",
          "name": "_collateral",
          "type": "address"
        },
        {
          "internalType": "address",
          "name": "_governanceToken",
          "type": "address"
        },
        {
          "internalType": "address",
          "name": "_treasury",
          "type": "address"
        },
        {
          "internalType": "uint256",
          "name": "_pool_ceiling",
          "type": "uint256"
        }
      ],
      "stateMutability": "nonpayable",
      "type": "constructor"
    },
    {
      "anonymous": false,
      "inputs": [
        {
          "indexed": true,
          "internalType": "address",
          "name": "previousOwner",
          "type": "address"
        },
        {
          "indexed": true,
          "internalType": "address",
          "name": "newOwner",
          "type": "address"
        }
      ],
      "name": "OwnershipTransferred",
      "type": "event"
    },
    {
      "anonymous": false,
      "inputs": [
        {
          "indexed": true,
          "internalType": "address",
          "name": "previousTreasury",
          "type": "address"
        },
        {
          "indexed": true,
          "internalType": "address",
          "name": "newTreasury",
          "type": "address"
        }
      ],
      "name": "TreasuryTransferred",
      "type": "event"
    },
    {
      "inputs": [],
      "name": "collateral",
      "outputs": [
        {
          "internalType": "address",
          "name": "",
          "type": "address"
        }
      ],
      "stateMutability": "view",
      "type": "function"
    },
    {
      "inputs": [],
      "name": "collect_redemption_delay",
      "outputs": [
        {
          "internalType": "uint256",
          "name": "",
          "type": "uint256"
        }
      ],
      "stateMutability": "view",
      "type": "function"
    },
    {
      "inputs": [],
      "name": "dollar",
      "outputs": [
        {
          "internalType": "address",
          "name": "",
          "type": "address"
        }
      ],
      "stateMutability": "view",
      "type": "function"
    },
    {
      "inputs": [],
      "name": "governanceToken",
      "outputs": [
        {
          "internalType": "address",
          "name": "",
          "type": "address"
        }
      ],
      "stateMutability": "view",
      "type": "function"
    },
    {
      "inputs": [
        {
          "internalType": "address",
          "name": "",
          "type": "address"
        }
      ],
      "name": "last_redeemed",
      "outputs": [
        {
          "internalType": "uint256",
          "name": "",
          "type": "uint256"
        }
      ],
      "stateMutability": "view",
      "type": "function"
    },
    {
      "inputs": [],
      "name": "migrated",
      "outputs": [
        {
          "internalType": "bool",
          "name": "",
          "type": "bool"
        }
      ],
      "stateMutability": "view",
      "type": "function"
    },
    {
      "inputs": [],
      "name": "mint_paused",
      "outputs": [
        {
          "internalType": "bool",
          "name": "",
          "type": "bool"
        }
      ],
      "stateMutability": "view",
      "type": "function"
    },
    {
      "inputs": [],
      "name": "oracle",
      "outputs": [
        {
          "internalType": "address",
          "name": "",
          "type": "address"
        }
      ],
      "stateMutability": "view",
      "type": "function"
    },
    {
      "inputs": [],
      "name": "owner",
      "outputs": [
        {
          "internalType": "address",
          "name": "",
          "type": "address"
        }
      ],
      "stateMutability": "view",
      "type": "function"
    },
    {
      "inputs": [],
      "name": "pool_ceiling",
      "outputs": [
        {
          "internalType": "uint256",
          "name": "",
          "type": "uint256"
        }
      ],
      "stateMutability": "view",
      "type": "function"
    },
    {
      "inputs": [
        {
          "internalType": "address",
          "name": "",
          "type": "address"
        }
      ],
      "name": "redeem_collateral_balances",
      "outputs": [
        {
          "internalType": "uint256",
          "name": "",
          "type": "uint256"
        }
      ],
      "stateMutability": "view",
      "type": "function"
    },
    {
      "inputs": [],
      "name": "redeem_paused",
      "outputs": [
        {
          "internalType": "bool",
          "name": "",
          "type": "bool"
        }
      ],
      "stateMutability": "view",
      "type": "function"
    },
    {
      "inputs": [
        {
          "internalType": "address",
          "name": "",
          "type": "address"
        }
      ],
      "name": "redeem_share_balances",
      "outputs": [
        {
          "internalType": "uint256",
          "name": "",
          "type": "uint256"
        }
      ],
      "stateMutability": "view",
      "type": "function"
    },
    {
      "inputs": [],
      "name": "redemption_delay",
      "outputs": [
        {
          "internalType": "uint256",
          "name": "",
          "type": "uint256"
        }
      ],
      "stateMutability": "view",
      "type": "function"
    },
    {
      "inputs": [],
      "name": "renounceOwnership",
      "outputs": [],
      "stateMutability": "nonpayable",
      "type": "function"
    },
    {
      "inputs": [],
      "name": "share",
      "outputs": [
        {
          "internalType": "address",
          "name": "",
          "type": "address"
        }
      ],
      "stateMutability": "view",
      "type": "function"
    },
    {
      "inputs": [
        {
          "internalType": "address",
          "name": "newOwner",
          "type": "address"
        }
      ],
      "name": "transferOwnership",
      "outputs": [],
      "stateMutability": "nonpayable",
      "type": "function"
    },
    {
      "inputs": [],
      "name": "treasury",
      "outputs": [
        {
          "internalType": "address",
          "name": "",
          "type": "address"
        }
      ],
      "stateMutability": "view",
      "type": "function"
    },
    {
      "inputs": [],
      "name": "unclaimed_pool_collateral",
      "outputs": [
        {
          "internalType": "uint256",
          "name": "",
          "type": "uint256"
        }
      ],
      "stateMutability": "view",
      "type": "function"
    },
    {
      "inputs": [],
      "name": "unclaimed_pool_share",
      "outputs": [
        {
          "internalType": "uint256",
          "name": "",
          "type": "uint256"
        }
      ],
      "stateMutability": "view",
      "type": "function"
    },
    {
      "inputs": [],
      "name": "collateralDollarBalance",
      "outputs": [
        {
          "internalType": "uint256",
          "name": "",
          "type": "uint256"
        }
      ],
      "stateMutability": "view",
      "type": "function"
    },
    {
      "inputs": [],
      "name": "info",
      "outputs": [
        {
          "internalType": "uint256",
          "name": "",
          "type": "uint256"
        },
        {
          "internalType": "uint256",
          "name": "",
          "type": "uint256"
        },
        {
          "internalType": "uint256",
          "name": "",
          "type": "uint256"
        },
        {
          "internalType": "uint256",
          "name": "",
          "type": "uint256"
        },
        {
          "internalType": "uint256",
          "name": "",
          "type": "uint256"
        },
        {
          "internalType": "bool",
          "name": "",
          "type": "bool"
        },
        {
          "internalType": "bool",
          "name": "",
          "type": "bool"
        }
      ],
      "stateMutability": "view",
      "type": "function"
    },
    {
      "inputs": [],
      "name": "getCollateralPrice",
      "outputs": [
        {
          "internalType": "uint256",
          "name": "",
          "type": "uint256"
        }
      ],
      "stateMutability": "view",
      "type": "function"
    },
    {
      "inputs": [],
      "name": "getCollateralToken",
      "outputs": [
        {
          "internalType": "address",
          "name": "",
          "type": "address"
        }
      ],
      "stateMutability": "view",
      "type": "function"
    },
    {
      "inputs": [
        {
          "internalType": "uint256",
          "name": "_collateral_amount",
          "type": "uint256"
        },
        {
          "internalType": "uint256",
          "name": "_share_amount",
          "type": "uint256"
        },
        {
          "internalType": "uint256",
          "name": "_dollar_out_min",
          "type": "uint256"
        }
      ],
      "name": "mint",
      "outputs": [],
      "stateMutability": "nonpayable",
      "type": "function"
    },
    {
      "inputs": [
        {
          "internalType": "uint256",
          "name": "_dollar_amount",
          "type": "uint256"
        },
        {
          "internalType": "uint256",
          "name": "_share_out_min",
          "type": "uint256"
        },
        {
          "internalType": "uint256",
          "name": "_collateral_out_min",
          "type": "uint256"
        }
      ],
      "name": "redeem",
      "outputs": [],
      "stateMutability": "nonpayable",
      "type": "function"
    },
    {
      "inputs": [],
      "name": "collectRedemption",
      "outputs": [],
      "stateMutability": "nonpayable",
      "type": "function"
    },
    {
      "inputs": [
        {
          "internalType": "address",
          "name": "_new_pool",
          "type": "address"
        }
      ],
      "name": "migrate",
      "outputs": [],
      "stateMutability": "nonpayable",
      "type": "function"
    },
    {
      "inputs": [],
      "name": "toggleMinting",
      "outputs": [],
      "stateMutability": "nonpayable",
      "type": "function"
    },
    {
      "inputs": [],
      "name": "toggleRedeeming",
      "outputs": [],
      "stateMutability": "nonpayable",
      "type": "function"
    },
    {
      "inputs": [
        {
          "internalType": "address",
          "name": "_oracle",
          "type": "address"
        }
      ],
      "name": "setOracle",
      "outputs": [],
      "stateMutability": "nonpayable",
      "type": "function"
    },
    {
      "inputs": [
        {
          "internalType": "uint256",
          "name": "_pool_ceiling",
          "type": "uint256"
        }
      ],
      "name": "setPoolCeiling",
      "outputs": [],
      "stateMutability": "nonpayable",
      "type": "function"
    },
    {
      "inputs": [
        {
          "internalType": "uint256",
          "name": "_collect_redemption_delay",
          "type": "uint256"
        }
      ],
      "name": "setCollectRedemptionDelay",
      "outputs": [],
      "stateMutability": "nonpayable",
      "type": "function"
    },
    {
      "inputs": [
        {
          "internalType": "uint256",
          "name": "_redemption_delay",
          "type": "uint256"
        }
      ],
      "name": "setRedemptionDelay",
      "outputs": [],
      "stateMutability": "nonpayable",
      "type": "function"
    },
    {
      "inputs": [
        {
          "internalType": "address",
          "name": "_treasury",
          "type": "address"
        }
      ],
      "name": "setTreasury",
      "outputs": [],
      "stateMutability": "nonpayable",
      "type": "function"
    },
    {
      "inputs": [
        {
          "internalType": "uint256",
          "name": "amount",
          "type": "uint256"
        }
      ],
      "name": "transferCollateralToTreasury",
      "outputs": [],
      "stateMutability": "nonpayable",
      "type": "function"
    }
  ],
  "bytecode": "0x60806040526000600e556001600f55601e6010556011805462ffffff191690553480156200002c57600080fd5b50604051620022e0380380620022e08339810160408190526200004f9162000319565b6200005a33620002ac565b600180556001600160a01b038616620000a55760405162461bcd60e51b815260206004820152600860248201526710afb237b63630b960c11b60448201526064015b60405180910390fd5b6001600160a01b038516620000e75760405162461bcd60e51b8152602060048201526007602482015266215f736861726560c81b60448201526064016200009c565b6001600160a01b0384166200012e5760405162461bcd60e51b815260206004820152600c60248201526b0857d8dbdb1b185d195c985b60a21b60448201526064016200009c565b6001600160a01b0383166200017a5760405162461bcd60e51b815260206004820152601160248201527010afb3b7bb32b93730b731b2aa37b5b2b760791b60448201526064016200009c565b6001600160a01b038216620001bf5760405162461bcd60e51b815260206004820152600a602482015269215f747265617375727960b01b60448201526064016200009c565b600280546001600160a01b038089166001600160a01b03199283161790925560038054888416908316179055600480548784169083168117825560058054888616908516179055600680549487169490931693909317909155600e8390556040805163313ce56760e01b8152905163313ce56792828101926020929190829003018186803b1580156200025157600080fd5b505afa15801562000266573d6000803e3d6000fd5b505050506040513d601f19601f820116820180604052508101906200028c919062000390565b6200029c9060ff166012620003ba565b600d5550620003de945050505050565b600080546001600160a01b038381166001600160a01b0319831681178455604051919092169283917f8be0079c531659141344cd1fd0a4f28419497f9722a3daafe3b4186f6b6457e09190a35050565b80516001600160a01b03811681146200031457600080fd5b919050565b60008060008060008060c0878903121562000332578182fd5b6200033d87620002fc565b95506200034d60208801620002fc565b94506200035d60408801620002fc565b93506200036d60608801620002fc565b92506200037d60808801620002fc565b915060a087015190509295509295509295565b600060208284031215620003a2578081fd5b815160ff81168114620003b3578182fd5b9392505050565b600082821015620003d957634e487b7160e01b81526011600452602481fd5b500390565b611ef280620003ee6000396000f3fe608060405234801561001057600080fd5b506004361061021c5760003560e01c80639c84d0f511610125578063daa50485116100ad578063f1a9ee031161007c578063f1a9ee0314610496578063f2fde38b146104a9578063f7683bbc146104bc578063f96dae0a146104c4578063ff626c5f146104d757600080fd5b8063daa5048514610448578063dc0d2a9814610450578063e86bc61914610470578063f0f442601461048357600080fd5b8063c7d27228116100f4578063c7d27228146103ec578063c82c4d0e146103f9578063ce5494bb14610402578063d0d132f314610415578063d8dfeb451461043557600080fd5b80639c84d0f5146103b5578063a8d5fd65146103bd578063ae9dd5bb146103d0578063b8192205146103d957600080fd5b80636526a12a116101a85780637d55094d116101775780637d55094d146103665780637dc0d1d01461036e57806380a66d05146103815780638da5cb5b1461039357806396423663146103a457600080fd5b80636526a12a1461032f5780636de52bb414610338578063715018a61461034b5780637adbf9731461035357600080fd5b8063370158ea116101ef578063370158ea1461027d578063378f3576146102be57806351adeb57146102d157806354367135146102fc57806361d027b31461031c57600080fd5b806302acc94b1461022157806312ace5a214610236578063151284251461023e5780632c678c641461025a575b600080fd5b61023461022f366004611bfb565b6104e0565b005b6102346109f3565b61024760105481565b6040519081526020015b60405180910390f35b60115461026d9062010000900460ff1681565b6040519015158152602001610251565b610285610c70565b6040805197885260208801969096529486019390935260608501919091526080840152151560a0830152151560c082015260e001610251565b6102346102cc366004611bcb565b610d34565b6002546102e4906001600160a01b031681565b6040516001600160a01b039091168152602001610251565b61024761030a366004611b84565b60086020526000908152604090205481565b6006546102e4906001600160a01b031681565b610247600e5481565b610234610346366004611bcb565b610e21565b610234610e50565b610234610361366004611b84565b610e86565b610234610ed2565b6007546102e4906001600160a01b031681565b60115461026d90610100900460ff1681565b6000546001600160a01b03166102e4565b6004546001600160a01b03166102e4565b610247610f10565b6003546102e4906001600160a01b031681565b610247600f5481565b6102346103e7366004611bfb565b610fde565b60115461026d9060ff1681565b610247600b5481565b610234610410366004611b84565b6114df565b610247610423366004611b84565b60096020526000908152604090205481565b6004546102e4906001600160a01b031681565b61023461164c565b61024761045e366004611b84565b600c6020526000908152604090205481565b61023461047e366004611bcb565b611693565b610234610491366004611b84565b6116c2565b6102346104a4366004611bcb565b611748565b6102346104b7366004611b84565b611777565b61024761180f565b6005546102e4906001600160a01b031681565b610247600a5481565b60115462010000900460ff16156105125760405162461bcd60e51b815260040161050990611cc8565b60405180910390fd5b60115460ff16156105595760405162461bcd60e51b8152602060048201526011602482015270135a5b9d1a5b99c81a5cc81c185d5cd959607a1b6044820152606401610509565b600660009054906101000a90046001600160a01b03166001600160a01b0316638ea709f36040518163ffffffff1660e01b8152600401600060405180830381600087803b1580156105a957600080fd5b505af11580156105bd573d6000803e3d6000fd5b5050600654604051630aae7a6b60e01b81523360048201526000935083925082916001600160a01b031690630aae7a6b9060240160e06040518083038186803b15801561060957600080fd5b505afa15801561061d573d6000803e3d6000fd5b505050506040513d601f19601f820116820180604052508101906106419190611c26565b50600e54600a54600480546040516370a0823160e01b81523092810192909252979b5095995091975095508b9490936001600160a01b0390911692506370a08231915060240160206040518083038186803b15801561069f57600080fd5b505afa1580156106b3573d6000803e3d6000fd5b505050506040513d601f19601f820116820180604052508101906106d79190611be3565b6106e19190611e63565b6106eb9190611d1f565b11156107285760405162461bcd60e51b815260206004820152600c60248201526b3e706f6f6c4365696c696e6760a01b6044820152606401610509565b600061073261180f565b905060008084156107c4576000620f424084600d54600a6107539190611d9a565b61075d908d611e44565b6107679190611e44565b6107719190611d37565b905085610781620f424083611e44565b61078b9190611d37565b9250620f42408610156107be5786620f42406107a78386611e63565b6107b19190611e44565b6107bb9190611d37565b91505b506107e2565b620f42406107d2878a611e44565b6107dc9190611d37565b91508790505b6000620f42406107f28685611e44565b6107fc9190611d37565b6108069084611e63565b9050808811156108445760405162461bcd60e51b81526020600482015260096024820152683e736c69707061676560b81b6044820152606401610509565b81156108ef578882111561088a5760405162461bcd60e51b815260206004820152600d60248201526c3c736861726542616c616e636560981b6044820152606401610509565b6003546040516305060b2d60e11b8152336004820152602481018490526001600160a01b0390911690630a0c165a90604401600060405180830381600087803b1580156108d657600080fd5b505af11580156108ea573d6000803e3d6000fd5b505050505b891561098257600480546040516323b872dd60e01b81523392810192909252306024830152604482018c90526001600160a01b0316906323b872dd90606401602060405180830381600087803b15801561094857600080fd5b505af115801561095c573d6000803e3d6000fd5b505050506040513d601f19601f820116820180604052508101906109809190611bab565b505b6002546040516306203eab60e11b8152336004820152602481018390526001600160a01b0390911690630c407d56906044015b600060405180830381600087803b1580156109cf57600080fd5b505af11580156109e3573d6000803e3d6000fd5b5050505050505050505050505050565b600f54336000908152600c60205260409020544391610a1191611d1f565b1115610a5f5760405162461bcd60e51b815260206004820152601960248201527f3c636f6c6c6563745f726564656d7074696f6e5f64656c6179000000000000006044820152606401610509565b600660009054906101000a90046001600160a01b03166001600160a01b0316638ea709f36040518163ffffffff1660e01b8152600401600060405180830381600087803b158015610aaf57600080fd5b505af1158015610ac3573d6000803e3d6000fd5b5050336000908152600860205260408120549092508291508190819015610b11573360009081526008602052604081208054919055600b54909250610b09908390611e63565b600b55600193505b3360009081526009602052604090205415610b5157503360009081526009602052604081208054919055600a54610b49908290611e63565b600a55600192505b8315610bdd5760035460405163a9059cbb60e01b8152336004820152602481018490526001600160a01b039091169063a9059cbb90604401602060405180830381600087803b158015610ba357600080fd5b505af1158015610bb7573d6000803e3d6000fd5b505050506040513d601f19601f82011682018060405250810190610bdb9190611bab565b505b8215610c6a576004805460405163a9059cbb60e01b81523392810192909252602482018390526001600160a01b03169063a9059cbb90604401602060405180830381600087803b158015610c3057600080fd5b505af1158015610c44573d6000803e3d6000fd5b505050506040513d601f19601f82011682018060405250810190610c689190611bab565b505b50505050565b600e54600480546040516370a0823160e01b81523092810192909252600092839283928392839283928392916001600160a01b03909116906370a082319060240160206040518083038186803b158015610cc957600080fd5b505afa158015610cdd573d6000803e3d6000fd5b505050506040513d601f19601f82011682018060405250810190610d019190611be3565b600a54600b54610d0f61180f565b601154949c939b509199509750955060ff808316955061010090920490911692509050565b6006546001600160a01b03163314610d7a5760405162461bcd60e51b815260206004820152600960248201526821747265617375727960b81b6044820152606401610509565b60008111610db75760405162461bcd60e51b815260206004820152600a6024820152691e995c9bd05b5bdd5b9d60b21b6044820152606401610509565b6006546001600160a01b0316610e015760405162461bcd60e51b815260206004820152600f60248201526e696e76616c6964547265617375727960881b6044820152606401610509565b600654600454610e1e916001600160a01b03918216911683611891565b50565b6000546001600160a01b03163314610e4b5760405162461bcd60e51b815260040161050990611cea565b600f55565b6000546001600160a01b03163314610e7a5760405162461bcd60e51b815260040161050990611cea565b610e8460006118e8565b565b6000546001600160a01b03163314610eb05760405162461bcd60e51b815260040161050990611cea565b600780546001600160a01b0319166001600160a01b0392909216919091179055565b6000546001600160a01b03163314610efc5760405162461bcd60e51b815260040161050990611cea565b6011805460ff19811660ff90911615179055565b600080610f1b61180f565b9050620f424081600d54600a610f319190611d9a565b600a54600480546040516370a0823160e01b815230928101929092526001600160a01b0316906370a082319060240160206040518083038186803b158015610f7857600080fd5b505afa158015610f8c573d6000803e3d6000fd5b505050506040513d601f19601f82011682018060405250810190610fb09190611be3565b610fba9190611e63565b610fc49190611e44565b610fce9190611e44565b610fd89190611d37565b91505090565b60115462010000900460ff16156110075760405162461bcd60e51b815260040161050990611cc8565b601154610100900460ff16156110555760405162461bcd60e51b815260206004820152601360248201527214995919595b5a5b99c81a5cc81c185d5cd959606a1b6044820152606401610509565b601054336000908152600c6020526040902054439161107391611d1f565b11156110b55760405162461bcd60e51b81526020600482015260116024820152703c726564656d7074696f6e5f64656c617960781b6044820152606401610509565b600660009054906101000a90046001600160a01b03166001600160a01b0316638ea709f36040518163ffffffff1660e01b8152600401600060405180830381600087803b15801561110557600080fd5b505af1158015611119573d6000803e3d6000fd5b5050600654604051630aae7a6b60e01b81523360048201526000935083925082916001600160a01b031690630aae7a6b9060240160e06040518083038186803b15801561116557600080fd5b505afa158015611179573d6000803e3d6000fd5b505050506040513d601f19601f8201168201806040525081019061119d9190611c26565b9650505094505093505060006111b161180f565b90506000620f42406111c3848a611e44565b6111cd9190611d37565b6111d79089611e63565b9050600080620f4240861015611229576000620f42406111f78886611e44565b6112019190611d37565b61120b9085611e63565b90508761121b620f424083611e44565b6112259190611d37565b9150505b8515611281576000620f424087600d54600a6112459190611d9a565b61124f9087611d37565b6112599190611e44565b6112639190611d37565b905084611273620f424083611e44565b61127d9190611d37565b9250505b600a54600480546040516370a0823160e01b815230928101929092526001600160a01b0316906370a082319060240160206040518083038186803b1580156112c857600080fd5b505afa1580156112dc573d6000803e3d6000fd5b505050506040513d601f19601f820116820180604052508101906113009190611be3565b61130a9190611e63565b82111561134e5760405162461bcd60e51b81526020600482015260126024820152713c636f6c6c61746572616c426c616e61636560701b6044820152606401610509565b81881115801561135e5750808911155b6113965760405162461bcd60e51b81526020600482015260096024820152683e736c69707061676560b81b6044820152606401610509565b81156113d957336000908152600960205260409020546113b7908390611d1f565b33600090815260096020526040902055600a546113d5908390611d1f565b600a555b801561141c57336000908152600860205260409020546113fa908290611d1f565b33600090815260086020526040902055600b54611418908290611d1f565b600b555b336000818152600c60205260409081902043905560025490516305060b2d60e11b81526004810192909252602482018c90526001600160a01b031690630a0c165a90604401600060405180830381600087803b15801561147b57600080fd5b505af115801561148f573d6000803e3d6000fd5b5050505060008111156114d3576003546040516306203eab60e11b8152306004820152602481018390526001600160a01b0390911690630c407d56906044016109b5565b50505050505050505050565b600260015414156115325760405162461bcd60e51b815260206004820152601f60248201527f5265656e7472616e637947756172643a207265656e7472616e742063616c6c006044820152606401610509565b60026001556000546001600160a01b031633146115615760405162461bcd60e51b815260040161050990611cea565b60115462010000900460ff161561158a5760405162461bcd60e51b815260040161050990611cc8565b6011805462ff0000191662010000179055600a54600480546040516370a0823160e01b81523092810192909252600092916001600160a01b03909116906370a082319060240160206040518083038186803b1580156115e857600080fd5b505afa1580156115fc573d6000803e3d6000fd5b505050506040513d601f19601f820116820180604052508101906116209190611be3565b61162a9190611e63565b600454909150611644906001600160a01b03168383611891565b505060018055565b6000546001600160a01b031633146116765760405162461bcd60e51b815260040161050990611cea565b6011805461ff001981166101009182900460ff1615909102179055565b6000546001600160a01b031633146116bd5760405162461bcd60e51b815260040161050990611cea565b600e55565b6000546001600160a01b031633146116ec5760405162461bcd60e51b815260040161050990611cea565b6006546040516001600160a01b038084169216907febebcc22237fa047dcfebf54b185ec126c9b24d45f4bd2a18e4fa02e07308c4090600090a3600680546001600160a01b0319166001600160a01b0392909216919091179055565b6000546001600160a01b031633146117725760405162461bcd60e51b815260040161050990611cea565b601055565b6000546001600160a01b031633146117a15760405162461bcd60e51b815260040161050990611cea565b6001600160a01b0381166118065760405162461bcd60e51b815260206004820152602660248201527f4f776e61626c653a206e6577206f776e657220697320746865207a65726f206160448201526564647265737360d01b6064820152608401610509565b610e1e816118e8565b60075460408051637eeda70360e01b815290516000926001600160a01b031691637eeda703916004808301926020929190829003018186803b15801561185457600080fd5b505afa158015611868573d6000803e3d6000fd5b505050506040513d601f19601f8201168201806040525081019061188c9190611be3565b905090565b604080516001600160a01b038416602482015260448082018490528251808303909101815260649091019091526020810180516001600160e01b031663a9059cbb60e01b1790526118e3908490611938565b505050565b600080546001600160a01b038381166001600160a01b0319831681178455604051919092169283917f8be0079c531659141344cd1fd0a4f28419497f9722a3daafe3b4186f6b6457e09190a35050565b600061198d826040518060400160405280602081526020017f5361666545524332303a206c6f772d6c6576656c2063616c6c206661696c6564815250856001600160a01b0316611a0a9092919063ffffffff16565b8051909150156118e357808060200190518101906119ab9190611bab565b6118e35760405162461bcd60e51b815260206004820152602a60248201527f5361666545524332303a204552433230206f7065726174696f6e20646964206e6044820152691bdd081cdd58d8d9595960b21b6064820152608401610509565b6060611a198484600085611a23565b90505b9392505050565b606082471015611a845760405162461bcd60e51b815260206004820152602660248201527f416464726573733a20696e73756666696369656e742062616c616e636520666f6044820152651c8818d85b1b60d21b6064820152608401610509565b843b611ad25760405162461bcd60e51b815260206004820152601d60248201527f416464726573733a2063616c6c20746f206e6f6e2d636f6e74726163740000006044820152606401610509565b600080866001600160a01b03168587604051611aee9190611c79565b60006040518083038185875af1925050503d8060008114611b2b576040519150601f19603f3d011682016040523d82523d6000602084013e611b30565b606091505b5091509150611b40828286611b4b565b979650505050505050565b60608315611b5a575081611a1c565b825115611b6a5782518084602001fd5b8160405162461bcd60e51b81526004016105099190611c95565b600060208284031215611b95578081fd5b81356001600160a01b0381168114611a1c578182fd5b600060208284031215611bbc578081fd5b81518015158114611a1c578182fd5b600060208284031215611bdc578081fd5b5035919050565b600060208284031215611bf4578081fd5b5051919050565b600080600060608486031215611c0f578182fd5b505081359360208301359350604090920135919050565b600080600080600080600060e0888a031215611c40578283fd5b5050855160208701516040880151606089015160808a015160a08b015160c0909b0151949c939b50919990985090965094509092509050565b60008251611c8b818460208701611e7a565b9190910192915050565b6020815260008251806020840152611cb4816040850160208701611e7a565b601f01601f19169190910160400192915050565b6020808252600890820152671b5a59dc985d195960c21b604082015260600190565b6020808252818101527f4f776e61626c653a2063616c6c6572206973206e6f7420746865206f776e6572604082015260600190565b60008219821115611d3257611d32611ea6565b500190565b600082611d5257634e487b7160e01b81526012600452602481fd5b500490565b600181815b80851115611d92578160001904821115611d7857611d78611ea6565b80851615611d8557918102915b93841c9390800290611d5c565b509250929050565b6000611a1c8383600082611db057506001611e3e565b81611dbd57506000611e3e565b8160018114611dd35760028114611ddd57611df9565b6001915050611e3e565b60ff841115611dee57611dee611ea6565b50506001821b611e3e565b5060208310610133831016604e8410600b8410161715611e1c575081810a611e3e565b611e268383611d57565b8060001904821115611e3a57611e3a611ea6565b0290505b92915050565b6000816000190483118215151615611e5e57611e5e611ea6565b500290565b600082821015611e7557611e75611ea6565b500390565b60005b83811015611e95578181015183820152602001611e7d565b83811115610c6a5750506000910152565b634e487b7160e01b600052601160045260246000fdfea264697066735822122076d3c18f3c064e2bfa51abdcd012d3f49fb961164ee92c13b2d5c32f940a2df164736f6c63430008040033",
  "immutableReferences": {},
  "source": "// SPDX-License-Identifier: MIT\r\npragma solidity 0.8.4;\r\n\r\nimport \"@openzeppelin/contracts/token/ERC20/utils/SafeERC20.sol\";\r\nimport \"@openzeppelin/contracts/token/ERC20/ERC20.sol\";\r\nimport \"@openzeppelin/contracts/token/ERC20/extensions/IERC20Metadata.sol\";\r\nimport \"@openzeppelin/contracts/access/Ownable.sol\";\r\nimport \"@openzeppelin/contracts/security/ReentrancyGuard.sol\";\r\n\r\nimport \"./interfaces/IPool.sol\";\r\nimport \"./interfaces/IOracle.sol\";\r\nimport \"./interfaces/ITreasury.sol\";\r\nimport \"./interfaces/IDollar.sol\";\r\nimport \"./interfaces/IShare.sol\";\r\n\r\ncontract Pool is Ownable, ReentrancyGuard, IPool {\r\n    using SafeERC20 for ERC20;\r\n\r\n    address public dollar;\r\n    address public share;\r\n    address public collateral;\r\n    address public governanceToken;\r\n    address public treasury;\r\n    address public oracle; // oracle to get price of collateral\r\n\r\n    mapping(address => uint256) public redeem_share_balances;\r\n    mapping(address => uint256) public redeem_collateral_balances;\r\n\r\n    uint256 public unclaimed_pool_collateral;\r\n    uint256 public unclaimed_pool_share;\r\n\r\n    mapping(address => uint256) public last_redeemed;\r\n\r\n    // Constants for various precisions\r\n    uint256 private constant PRICE_PRECISION = 1e6;\r\n    uint256 private constant COLLATERAL_RATIO_PRECISION = 1e6;\r\n    uint256 private constant COLLATERAL_RATIO_MAX = 1e6;\r\n\r\n    // Number of decimals needed to get to 18\r\n    uint256 private missing_decimals;\r\n\r\n    // Pool_ceiling is the total units of collateral that a pool contract can hold\r\n    uint256 public pool_ceiling = 0;\r\n\r\n    // Number of blocks to wait before being able to collectRedemption()\r\n    uint256 public collect_redemption_delay = 1;\r\n\r\n    // Number of blocks to wait before being able to redem()\r\n    uint256 public redemption_delay = 30;//~1 min, when block time is around 2 sec\r\n\r\n    // AccessControl state variables\r\n    bool public mint_paused = false;\r\n    bool public redeem_paused = false;\r\n    bool public migrated = false;\r\n\r\n    /* ========== MODIFIERS ========== */\r\n    \r\n\r\n    modifier notMigrated() {\r\n        require(!migrated, \"migrated\");\r\n        _;\r\n    }\r\n\r\n    modifier onlyTreasury() {\r\n        require(msg.sender == treasury, \"!treasury\");\r\n        _;\r\n    }\r\n    \r\n    /* ========== CONSTRUCTOR ========== */\r\n\r\n    constructor(\r\n        address _dollar,\r\n        address _share,\r\n        address _collateral,\r\n        address _governanceToken,\r\n        address _treasury,\r\n        uint256 _pool_ceiling\r\n    ){\r\n        require(_dollar             != address(0), \"!_dollar\");\r\n        require(_share              != address(0), \"!_share\");\r\n        require(_collateral         != address(0), \"!_collateral\");\r\n        require(_governanceToken    != address(0), \"!_governanceToken\");\r\n        require(_treasury           != address(0), \"!_treasury\");\r\n\r\n        dollar = _dollar;\r\n        share = _share;\r\n        collateral = _collateral;\r\n        governanceToken = _governanceToken;\r\n        treasury = _treasury;\r\n        pool_ceiling = _pool_ceiling;\r\n        missing_decimals = uint256(18) - IERC20Metadata(_collateral).decimals();//only tokens with 18 decimals or less is desired\r\n    }\r\n\r\n    /* ========== VIEWS ========== */\r\n\r\n    // Returns dollar value of collateral held in this pool\r\n    function collateralDollarBalance() external view override returns (uint256) {\r\n        uint256 collateral_usd_price = getCollateralPrice();\r\n        return (ERC20(collateral).balanceOf(address(this)) - unclaimed_pool_collateral) * 10**missing_decimals * collateral_usd_price / PRICE_PRECISION;\r\n    }\r\n\r\n    function info()\r\n        external\r\n        view\r\n        returns (\r\n            uint256,\r\n            uint256,\r\n            uint256,\r\n            uint256,\r\n            uint256,\r\n            bool,\r\n            bool\r\n        )\r\n    {\r\n        return (\r\n            pool_ceiling, // Ceiling of pool - collateral-amount\r\n            ERC20(collateral).balanceOf(address(this)), // amount of COLLATERAL locked in this contract\r\n            unclaimed_pool_collateral, // unclaimed amount of COLLATERAL\r\n            unclaimed_pool_share, // unclaimed amount of SHARE\r\n            getCollateralPrice(), // collateral price\r\n            mint_paused,\r\n            redeem_paused\r\n        );\r\n    }\r\n\r\n    /* ========== PUBLIC FUNCTIONS ========== */\r\n\r\n    function getCollateralPrice() public view override returns (uint256) {\r\n        return IOracle(oracle).consult();\r\n    }\r\n\r\n    function getCollateralToken() external view override returns (address) {\r\n        return collateral;\r\n    }\r\n\r\n    function mint(\r\n        uint256 _collateral_amount,\r\n        uint256 _share_amount,\r\n        uint256 _dollar_out_min\r\n    ) external notMigrated {\r\n        require(mint_paused == false, \"Minting is paused\");\r\n        ITreasury(treasury).updateOracles();\r\n        (, uint256 _share_price, uint256 _target_collateral_ratio, , , uint256 _minting_fee, ) = ITreasury(treasury).info(msg.sender);\r\n        require(ERC20(collateral).balanceOf(address(this)) - unclaimed_pool_collateral + _collateral_amount <= pool_ceiling, \">poolCeiling\");\r\n        uint256 _price_collateral = getCollateralPrice();\r\n        uint256 _total_dollar_value = 0;\r\n        uint256 _required_share_amount = 0;\r\n        if (_target_collateral_ratio > 0) {\r\n            uint256 _collateral_value = (_collateral_amount * 10**missing_decimals) * _price_collateral / PRICE_PRECISION;\r\n            _total_dollar_value = _collateral_value * (COLLATERAL_RATIO_PRECISION) / (_target_collateral_ratio);\r\n            if (_target_collateral_ratio < COLLATERAL_RATIO_MAX) {\r\n                _required_share_amount = (_total_dollar_value - _collateral_value) * PRICE_PRECISION / _share_price;\r\n            }\r\n        } else {\r\n            _total_dollar_value = _share_amount * _share_price / PRICE_PRECISION;\r\n            _required_share_amount = _share_amount;\r\n        }\r\n        uint256 _actual_dollar_amount = _total_dollar_value - ((_total_dollar_value * _minting_fee) / PRICE_PRECISION);\r\n        require(_dollar_out_min <= _actual_dollar_amount, \">slippage\");\r\n\r\n        if (_required_share_amount > 0) {\r\n            require(_required_share_amount <= _share_amount, \"<shareBalance\");\r\n            IShare(share).poolBurnFrom(msg.sender, _required_share_amount);\r\n        }\r\n        if (_collateral_amount > 0) {\r\n            ERC20(collateral).transferFrom(msg.sender, address(this), _collateral_amount);\r\n        }\r\n        IDollar(dollar).poolMint(msg.sender, _actual_dollar_amount);\r\n    }\r\n\r\n    function redeem(\r\n        uint256 _dollar_amount,\r\n        uint256 _share_out_min,\r\n        uint256 _collateral_out_min\r\n    ) external notMigrated {\r\n        require(redeem_paused == false, \"Redeeming is paused\");\r\n        require((last_redeemed[msg.sender] + (redemption_delay)) <= block.number, \"<redemption_delay\");\r\n        ITreasury(treasury).updateOracles();\r\n        (, uint256 _share_price, , uint256 _effective_collateral_ratio, , , uint256 _redemption_fee) = ITreasury(treasury).info(msg.sender);\r\n        uint256 _collateral_price = getCollateralPrice();\r\n        uint256 _dollar_amount_post_fee = _dollar_amount - (_dollar_amount * _redemption_fee / PRICE_PRECISION);\r\n        uint256 _collateral_output_amount = 0;\r\n        uint256 _share_output_amount = 0;\r\n\r\n        if (_effective_collateral_ratio < COLLATERAL_RATIO_MAX) {\r\n            uint256 _share_output_value = _dollar_amount_post_fee - (_dollar_amount_post_fee * _effective_collateral_ratio / PRICE_PRECISION);\r\n            _share_output_amount = _share_output_value * PRICE_PRECISION / _share_price;\r\n        }\r\n\r\n        if (_effective_collateral_ratio > 0) {\r\n            uint256 _collateral_output_value = _dollar_amount_post_fee / (10**missing_decimals) * _effective_collateral_ratio / PRICE_PRECISION;\r\n            _collateral_output_amount = _collateral_output_value * PRICE_PRECISION / _collateral_price;\r\n        }\r\n\r\n        // Check if collateral balance meets and meet output expectation\r\n        require(_collateral_output_amount <= ERC20(collateral).balanceOf(address(this)) - unclaimed_pool_collateral, \"<collateralBlanace\");\r\n        require(_collateral_out_min <= _collateral_output_amount && _share_out_min <= _share_output_amount, \">slippage\");\r\n\r\n        if (_collateral_output_amount > 0) {\r\n            redeem_collateral_balances[msg.sender] = redeem_collateral_balances[msg.sender] + _collateral_output_amount;\r\n            unclaimed_pool_collateral = unclaimed_pool_collateral + _collateral_output_amount;\r\n        }\r\n\r\n        if (_share_output_amount > 0) {\r\n            redeem_share_balances[msg.sender] = redeem_share_balances[msg.sender] + _share_output_amount;\r\n            unclaimed_pool_share = unclaimed_pool_share + _share_output_amount;\r\n        }\r\n\r\n        last_redeemed[msg.sender] = block.number;\r\n\r\n        // Move all external functions to the end\r\n        IDollar(dollar).poolBurnFrom(msg.sender, _dollar_amount);\r\n        if (_share_output_amount > 0) {\r\n            IShare(share).poolMint(address(this), _share_output_amount);\r\n        }\r\n    }\r\n\r\n    function collectRedemption() external {\r\n        // Redeem and Collect cannot happen in the same transaction to avoid flash loan attack\r\n        require((last_redeemed[msg.sender] + collect_redemption_delay) <= block.number, \"<collect_redemption_delay\");\r\n\r\n        ITreasury(treasury).updateOracles();\r\n        \r\n        bool _send_share = false;\r\n        bool _send_collateral = false;\r\n        uint256 _share_amount;\r\n        uint256 _collateral_amount;\r\n\r\n        // Use Checks-Effects-Interactions pattern\r\n        if (redeem_share_balances[msg.sender] > 0) {\r\n            _share_amount = redeem_share_balances[msg.sender];\r\n            redeem_share_balances[msg.sender] = 0;\r\n            unclaimed_pool_share = unclaimed_pool_share - _share_amount;\r\n            _send_share = true;\r\n        }\r\n\r\n        if (redeem_collateral_balances[msg.sender] > 0) {\r\n            _collateral_amount = redeem_collateral_balances[msg.sender];\r\n            redeem_collateral_balances[msg.sender] = 0;\r\n            unclaimed_pool_collateral = unclaimed_pool_collateral - _collateral_amount;\r\n            _send_collateral = true;\r\n        }\r\n\r\n        if (_send_share) {\r\n            ERC20(share).transfer(msg.sender, _share_amount);\r\n        }\r\n\r\n        if (_send_collateral) {\r\n            ERC20(collateral).transfer(msg.sender, _collateral_amount);\r\n        }\r\n    }\r\n\r\n    /* ========== RESTRICTED FUNCTIONS ========== */\r\n\r\n    // move collateral to new pool address\r\n    function migrate(address _new_pool) external override nonReentrant onlyOwner notMigrated {\r\n        migrated = true;\r\n        uint256 availableCollateral = ERC20(collateral).balanceOf(address(this)) - unclaimed_pool_collateral;\r\n        ERC20(collateral).safeTransfer(_new_pool, availableCollateral);\r\n    }\r\n\r\n    function toggleMinting() external onlyOwner {\r\n        mint_paused = !mint_paused;\r\n    }\r\n\r\n    function toggleRedeeming() external onlyOwner {\r\n        redeem_paused = !redeem_paused;\r\n    }\r\n\r\n    function setOracle(address _oracle) external onlyOwner {\r\n        oracle = _oracle;\r\n    }\r\n\r\n    function setPoolCeiling(uint256 _pool_ceiling) external onlyOwner {\r\n        pool_ceiling = _pool_ceiling;\r\n    }\r\n\r\n    function setCollectRedemptionDelay(uint256 _collect_redemption_delay) external onlyOwner {\r\n        collect_redemption_delay = _collect_redemption_delay;\r\n    }\r\n\r\n    function setRedemptionDelay(uint256 _redemption_delay) external onlyOwner {\r\n        redemption_delay = _redemption_delay;\r\n    }\r\n\r\n    function setTreasury(address _treasury) external onlyOwner {\r\n        emit TreasuryTransferred(treasury, _treasury);\r\n        treasury = _treasury;\r\n    }\r\n\r\n    // Transfer collateral to Treasury to execute strategies\r\n    function transferCollateralToTreasury(uint256 amount) external override onlyTreasury {\r\n        require(amount > 0, \"zeroAmount\");\r\n        require(treasury != address(0), \"invalidTreasury\");\r\n        ERC20(collateral).safeTransfer(treasury, amount);\r\n    }\r\n\r\n    // EVENTS\r\n    event TreasuryTransferred(address indexed previousTreasury, address indexed newTreasury);\r\n}\r\n",
  "sourcePath": "C:/Users/PaulMuller/Documents/projects/project_AGO/contracts/Pool.sol",
  "compiler": {
    "name": "solc",
    "version": "0.8.4+commit.c7e474f2.Emscripten.clang"
  },
  "schemaVersion": "3.4.1",
  "updatedAt": "2021-08-08T11:17:19.638Z",
  "devdoc": {
    "kind": "dev",
    "methods": {
      "owner()": {
        "details": "Returns the address of the current owner."
      },
      "renounceOwnership()": {
        "details": "Leaves the contract without owner. It will not be possible to call `onlyOwner` functions anymore. Can only be called by the current owner. NOTE: Renouncing ownership will leave the contract without an owner, thereby removing any functionality that is only available to the owner."
      },
      "transferOwnership(address)": {
        "details": "Transfers ownership of the contract to a new account (`newOwner`). Can only be called by the current owner."
      }
    },
    "version": 1
  },
  "userdoc": {
    "kind": "user",
    "methods": {},
    "version": 1
  }
}