{
  "contractName": "Pool",
  "abi": [
    {
      "inputs": [
        {
          "internalType": "address",
          "name": "_dollar",
          "type": "address"
        },
        {
          "internalType": "address",
          "name": "_share",
          "type": "address"
        },
        {
          "internalType": "address",
          "name": "_collateral",
          "type": "address"
        },
        {
          "internalType": "address",
          "name": "_governanceToken",
          "type": "address"
        },
        {
          "internalType": "address",
          "name": "_treasury",
          "type": "address"
        },
        {
          "internalType": "uint256",
          "name": "_pool_ceiling",
          "type": "uint256"
        }
      ],
      "stateMutability": "nonpayable",
      "type": "constructor"
    },
    {
      "anonymous": false,
      "inputs": [
        {
          "indexed": true,
          "internalType": "address",
          "name": "previousOperator",
          "type": "address"
        },
        {
          "indexed": true,
          "internalType": "address",
          "name": "newOperator",
          "type": "address"
        }
      ],
      "name": "OperatorTransferred",
      "type": "event"
    },
    {
      "anonymous": false,
      "inputs": [
        {
          "indexed": true,
          "internalType": "address",
          "name": "previousOwner",
          "type": "address"
        },
        {
          "indexed": true,
          "internalType": "address",
          "name": "newOwner",
          "type": "address"
        }
      ],
      "name": "OwnershipTransferred",
      "type": "event"
    },
    {
      "anonymous": false,
      "inputs": [
        {
          "indexed": true,
          "internalType": "address",
          "name": "previousTreasury",
          "type": "address"
        },
        {
          "indexed": true,
          "internalType": "address",
          "name": "newTreasury",
          "type": "address"
        }
      ],
      "name": "TreasuryTransferred",
      "type": "event"
    },
    {
      "inputs": [],
      "name": "collateral",
      "outputs": [
        {
          "internalType": "address",
          "name": "",
          "type": "address"
        }
      ],
      "stateMutability": "view",
      "type": "function",
      "constant": true
    },
    {
      "inputs": [],
      "name": "collect_redemption_delay",
      "outputs": [
        {
          "internalType": "uint256",
          "name": "",
          "type": "uint256"
        }
      ],
      "stateMutability": "view",
      "type": "function",
      "constant": true
    },
    {
      "inputs": [],
      "name": "dollar",
      "outputs": [
        {
          "internalType": "address",
          "name": "",
          "type": "address"
        }
      ],
      "stateMutability": "view",
      "type": "function",
      "constant": true
    },
    {
      "inputs": [],
      "name": "governanceToken",
      "outputs": [
        {
          "internalType": "address",
          "name": "",
          "type": "address"
        }
      ],
      "stateMutability": "view",
      "type": "function",
      "constant": true
    },
    {
      "inputs": [],
      "name": "isOperator",
      "outputs": [
        {
          "internalType": "bool",
          "name": "",
          "type": "bool"
        }
      ],
      "stateMutability": "view",
      "type": "function",
      "constant": true
    },
    {
      "inputs": [
        {
          "internalType": "address",
          "name": "",
          "type": "address"
        }
      ],
      "name": "last_redeemed",
      "outputs": [
        {
          "internalType": "uint256",
          "name": "",
          "type": "uint256"
        }
      ],
      "stateMutability": "view",
      "type": "function",
      "constant": true
    },
    {
      "inputs": [],
      "name": "migrated",
      "outputs": [
        {
          "internalType": "bool",
          "name": "",
          "type": "bool"
        }
      ],
      "stateMutability": "view",
      "type": "function",
      "constant": true
    },
    {
      "inputs": [],
      "name": "mint_paused",
      "outputs": [
        {
          "internalType": "bool",
          "name": "",
          "type": "bool"
        }
      ],
      "stateMutability": "view",
      "type": "function",
      "constant": true
    },
    {
      "inputs": [],
      "name": "operator",
      "outputs": [
        {
          "internalType": "address",
          "name": "",
          "type": "address"
        }
      ],
      "stateMutability": "view",
      "type": "function",
      "constant": true
    },
    {
      "inputs": [],
      "name": "oracle",
      "outputs": [
        {
          "internalType": "address",
          "name": "",
          "type": "address"
        }
      ],
      "stateMutability": "view",
      "type": "function",
      "constant": true
    },
    {
      "inputs": [],
      "name": "owner",
      "outputs": [
        {
          "internalType": "address",
          "name": "",
          "type": "address"
        }
      ],
      "stateMutability": "view",
      "type": "function",
      "constant": true
    },
    {
      "inputs": [],
      "name": "pool_ceiling",
      "outputs": [
        {
          "internalType": "uint256",
          "name": "",
          "type": "uint256"
        }
      ],
      "stateMutability": "view",
      "type": "function",
      "constant": true
    },
    {
      "inputs": [
        {
          "internalType": "address",
          "name": "",
          "type": "address"
        }
      ],
      "name": "redeem_collateral_balances",
      "outputs": [
        {
          "internalType": "uint256",
          "name": "",
          "type": "uint256"
        }
      ],
      "stateMutability": "view",
      "type": "function",
      "constant": true
    },
    {
      "inputs": [],
      "name": "redeem_paused",
      "outputs": [
        {
          "internalType": "bool",
          "name": "",
          "type": "bool"
        }
      ],
      "stateMutability": "view",
      "type": "function",
      "constant": true
    },
    {
      "inputs": [
        {
          "internalType": "address",
          "name": "",
          "type": "address"
        }
      ],
      "name": "redeem_share_balances",
      "outputs": [
        {
          "internalType": "uint256",
          "name": "",
          "type": "uint256"
        }
      ],
      "stateMutability": "view",
      "type": "function",
      "constant": true
    },
    {
      "inputs": [],
      "name": "redemption_delay",
      "outputs": [
        {
          "internalType": "uint256",
          "name": "",
          "type": "uint256"
        }
      ],
      "stateMutability": "view",
      "type": "function",
      "constant": true
    },
    {
      "inputs": [],
      "name": "renounceOwnership",
      "outputs": [],
      "stateMutability": "nonpayable",
      "type": "function"
    },
    {
      "inputs": [],
      "name": "share",
      "outputs": [
        {
          "internalType": "address",
          "name": "",
          "type": "address"
        }
      ],
      "stateMutability": "view",
      "type": "function",
      "constant": true
    },
    {
      "inputs": [
        {
          "internalType": "address",
          "name": "newOperator_",
          "type": "address"
        }
      ],
      "name": "transferOperator",
      "outputs": [],
      "stateMutability": "nonpayable",
      "type": "function"
    },
    {
      "inputs": [
        {
          "internalType": "address",
          "name": "newOwner",
          "type": "address"
        }
      ],
      "name": "transferOwnership",
      "outputs": [],
      "stateMutability": "nonpayable",
      "type": "function"
    },
    {
      "inputs": [],
      "name": "treasury",
      "outputs": [
        {
          "internalType": "address",
          "name": "",
          "type": "address"
        }
      ],
      "stateMutability": "view",
      "type": "function",
      "constant": true
    },
    {
      "inputs": [],
      "name": "unclaimed_pool_collateral",
      "outputs": [
        {
          "internalType": "uint256",
          "name": "",
          "type": "uint256"
        }
      ],
      "stateMutability": "view",
      "type": "function",
      "constant": true
    },
    {
      "inputs": [],
      "name": "unclaimed_pool_share",
      "outputs": [
        {
          "internalType": "uint256",
          "name": "",
          "type": "uint256"
        }
      ],
      "stateMutability": "view",
      "type": "function",
      "constant": true
    },
    {
      "inputs": [],
      "name": "collateralDollarBalance",
      "outputs": [
        {
          "internalType": "uint256",
          "name": "",
          "type": "uint256"
        }
      ],
      "stateMutability": "view",
      "type": "function",
      "constant": true
    },
    {
      "inputs": [],
      "name": "info",
      "outputs": [
        {
          "internalType": "uint256",
          "name": "",
          "type": "uint256"
        },
        {
          "internalType": "uint256",
          "name": "",
          "type": "uint256"
        },
        {
          "internalType": "uint256",
          "name": "",
          "type": "uint256"
        },
        {
          "internalType": "uint256",
          "name": "",
          "type": "uint256"
        },
        {
          "internalType": "uint256",
          "name": "",
          "type": "uint256"
        },
        {
          "internalType": "bool",
          "name": "",
          "type": "bool"
        },
        {
          "internalType": "bool",
          "name": "",
          "type": "bool"
        }
      ],
      "stateMutability": "view",
      "type": "function",
      "constant": true
    },
    {
      "inputs": [],
      "name": "getCollateralPrice",
      "outputs": [
        {
          "internalType": "uint256",
          "name": "",
          "type": "uint256"
        }
      ],
      "stateMutability": "view",
      "type": "function",
      "constant": true
    },
    {
      "inputs": [],
      "name": "getCollateralToken",
      "outputs": [
        {
          "internalType": "address",
          "name": "",
          "type": "address"
        }
      ],
      "stateMutability": "view",
      "type": "function",
      "constant": true
    },
    {
      "inputs": [
        {
          "internalType": "uint256",
          "name": "_collateral_amount",
          "type": "uint256"
        },
        {
          "internalType": "uint256",
          "name": "_share_amount",
          "type": "uint256"
        },
        {
          "internalType": "uint256",
          "name": "_dollar_out_min",
          "type": "uint256"
        }
      ],
      "name": "mint",
      "outputs": [],
      "stateMutability": "nonpayable",
      "type": "function"
    },
    {
      "inputs": [
        {
          "internalType": "uint256",
          "name": "_dollar_amount",
          "type": "uint256"
        },
        {
          "internalType": "uint256",
          "name": "_share_out_min",
          "type": "uint256"
        },
        {
          "internalType": "uint256",
          "name": "_collateral_out_min",
          "type": "uint256"
        }
      ],
      "name": "redeem",
      "outputs": [],
      "stateMutability": "nonpayable",
      "type": "function"
    },
    {
      "inputs": [],
      "name": "collectRedemption",
      "outputs": [],
      "stateMutability": "nonpayable",
      "type": "function"
    },
    {
      "inputs": [
        {
          "internalType": "address",
          "name": "_new_pool",
          "type": "address"
        }
      ],
      "name": "migrate",
      "outputs": [],
      "stateMutability": "nonpayable",
      "type": "function"
    },
    {
      "inputs": [],
      "name": "toggleMinting",
      "outputs": [],
      "stateMutability": "nonpayable",
      "type": "function"
    },
    {
      "inputs": [],
      "name": "toggleRedeeming",
      "outputs": [],
      "stateMutability": "nonpayable",
      "type": "function"
    },
    {
      "inputs": [
        {
          "internalType": "address",
          "name": "_oracle",
          "type": "address"
        }
      ],
      "name": "setOracle",
      "outputs": [],
      "stateMutability": "nonpayable",
      "type": "function"
    },
    {
      "inputs": [
        {
          "internalType": "uint256",
          "name": "_pool_ceiling",
          "type": "uint256"
        }
      ],
      "name": "setPoolCeiling",
      "outputs": [],
      "stateMutability": "nonpayable",
      "type": "function"
    },
    {
      "inputs": [
        {
          "internalType": "uint256",
          "name": "_collect_redemption_delay",
          "type": "uint256"
        }
      ],
      "name": "setCollectRedemptionDelay",
      "outputs": [],
      "stateMutability": "nonpayable",
      "type": "function"
    },
    {
      "inputs": [
        {
          "internalType": "uint256",
          "name": "_redemption_delay",
          "type": "uint256"
        }
      ],
      "name": "setRedemptionDelay",
      "outputs": [],
      "stateMutability": "nonpayable",
      "type": "function"
    },
    {
      "inputs": [
        {
          "internalType": "address",
          "name": "_treasury",
          "type": "address"
        }
      ],
      "name": "setTreasury",
      "outputs": [],
      "stateMutability": "nonpayable",
      "type": "function"
    },
    {
      "inputs": [
        {
          "internalType": "uint256",
          "name": "amount",
          "type": "uint256"
        }
      ],
      "name": "transferCollateralToTreasury",
      "outputs": [],
      "stateMutability": "nonpayable",
      "type": "function"
    }
  ],
  "bytecode": "0x6080604052600160028190556000600f55601055601e6011556012805462ffffff191690553480156200003157600080fd5b5060405162001f2938038062001f29833981016040819052620000549162000223565b600080546001600160a01b031916339081178255604051909182917f8be0079c531659141344cd1fd0a4f28419497f9722a3daafe3b4186f6b6457e0908290a350600180546001600160a01b031916339081179091556040516000907f74da04524d50c64947f5dd5381ef1a4dca5cba8ed1d816243f9e48aa0b5617ed908290a3600380546001600160a01b038089166001600160a01b0319928316179092556004805488841690831617815560058054888516908416811790915560068054888616908516179055600780549487169490931693909317909155600f8390556040805163313ce56760e01b81529051620001c2939263313ce56792808201926020929091829003018186803b1580156200016e57600080fd5b505afa15801562000183573d6000803e3d6000fd5b505050506040513d601f19601f82011682018060405250810190620001a991906200029a565b60ff166012620001d260201b620016f31790919060201c565b600e5550620002e1945050505050565b600082821115620001f357634e487b7160e01b600052600160045260246000fd5b620001ff8284620002bd565b9392505050565b80516001600160a01b03811681146200021e57600080fd5b919050565b60008060008060008060c087890312156200023c578182fd5b620002478762000206565b9550620002576020880162000206565b9450620002676040880162000206565b9350620002776060880162000206565b9250620002876080880162000206565b915060a087015190509295509295509295565b600060208284031215620002ac578081fd5b815160ff81168114620001ff578182fd5b600082821015620002dc57634e487b7160e01b81526011600452602481fd5b500390565b611c3880620002f16000396000f3fe608060405234801561001057600080fd5b506004361061023d5760003560e01c80638da5cb5b1161013b578063d8dfeb45116100b8578063f1a9ee031161007c578063f1a9ee03146104ee578063f2fde38b14610501578063f7683bbc14610514578063f96dae0a1461051c578063ff626c5f1461052f57600080fd5b8063d8dfeb451461048d578063daa50485146104a0578063dc0d2a98146104a8578063e86bc619146104c8578063f0f44260146104db57600080fd5b8063b8192205116100ff578063b819220514610431578063c7d2722814610444578063c82c4d0e14610451578063ce5494bb1461045a578063d0d132f31461046d57600080fd5b80638da5cb5b146103eb57806396423663146103fc5780639c84d0f51461040d578063a8d5fd6514610415578063ae9dd5bb1461042857600080fd5b806354367135116101c9578063715018a61161018d578063715018a6146103a35780637adbf973146103ab5780637d55094d146103be5780637dc0d1d0146103c657806380a66d05146103d957600080fd5b80635436713514610343578063570ca7351461036357806361d027b3146103745780636526a12a146103875780636de52bb41461039057600080fd5b80632c678c64116102105780632c678c641461028e578063370158ea146102b1578063378f3576146102f25780634456eda21461030557806351adeb571461031857600080fd5b806302acc94b1461024257806312ace5a214610257578063151284251461025f57806329605e771461027b575b600080fd5b610255610250366004611971565b610538565b005b6102556109c9565b61026860115481565b6040519081526020015b60405180910390f35b6102556102893660046118f3565b610bdb565b6012546102a19062010000900460ff1681565b6040519015158152602001610272565b6102b9610c11565b6040805197885260208801969096529486019390935260608501919091526080840152151560a0830152151560c082015260e001610272565b610255610300366004611941565b610cd0565b6001546001600160a01b031633146102a1565b60035461032b906001600160a01b031681565b6040516001600160a01b039091168152602001610272565b6102686103513660046118f3565b60096020526000908152604090205481565b6001546001600160a01b031661032b565b60075461032b906001600160a01b031681565b610268600f5481565b61025561039e366004611941565b610dba565b610255610de9565b6102556103b93660046118f3565b610e5d565b610255610ea9565b60085461032b906001600160a01b031681565b6012546102a190610100900460ff1681565b6000546001600160a01b031661032b565b6005546001600160a01b031661032b565b610268610ee7565b60045461032b906001600160a01b031681565b61026860105481565b61025561043f366004611971565b610f4d565b6012546102a19060ff1681565b610268600c5481565b6102556104683660046118f3565b611374565b61026861047b3660046118f3565b600a6020526000908152604090205481565b60055461032b906001600160a01b031681565b61025561145c565b6102686104b63660046118f3565b600d6020526000908152604090205481565b6102556104d6366004611941565b6114a3565b6102556104e93660046118f3565b6114d2565b6102556104fc366004611941565b611558565b61025561050f3660046118f3565b611587565b610268611671565b60065461032b906001600160a01b031681565b610268600b5481565b60125462010000900460ff161561056a5760405162461bcd60e51b8152600401610561906119f8565b60405180910390fd5b60125460ff16156105b15760405162461bcd60e51b8152602060048201526011602482015270135a5b9d1a5b99c81a5cc81c185d5cd959607a1b6044820152606401610561565b6000806000600760009054906101000a90046001600160a01b03166001600160a01b031663370158ea6040518163ffffffff1660e01b81526004016101006040518083038186803b15801561060557600080fd5b505afa158015610619573d6000803e3d6000fd5b505050506040513d601f19601f8201168201806040525081019061063d919061199c565b50600f54600b546005546040516370a0823160e01b8152306004820152989c50959a5091985096506106e6958d95506106e0949193506001600160a01b0390911691506370a08231906024015b60206040518083038186803b1580156106a257600080fd5b505afa1580156106b6573d6000803e3d6000fd5b505050506040513d601f19601f820116820180604052508101906106da9190611959565b906116f3565b90611726565b11156107235760405162461bcd60e51b815260206004820152600c60248201526b3e706f6f6c4365696c696e6760a01b6044820152606401610561565b600061072d611671565b905060008084156107a857600061076a620f424061076486600e54600a6107549190611b0e565b61075e908f611bb6565b90611752565b90611793565b905061077d8661076483620f4240611752565b9250620f42408610156107a25761079f87610764620f424061075e87866116f3565b91505b506107bf565b6107b9620f42406107648a89611752565b91508790505b60006107dc6107d5620f42406107648689611752565b84906116f3565b90508088111561081a5760405162461bcd60e51b81526020600482015260096024820152683e736c69707061676560b81b6044820152606401610561565b81156108c657888211156108605760405162461bcd60e51b815260206004820152600d60248201526c3c736861726542616c616e636560981b6044820152606401610561565b600480546040516305060b2d60e11b81523392810192909252602482018490526001600160a01b031690630a0c165a90604401600060405180830381600087803b1580156108ad57600080fd5b505af11580156108c1573d6000803e3d6000fd5b505050505b8915610958576005546040516323b872dd60e01b8152336004820152306024820152604481018c90526001600160a01b03909116906323b872dd90606401602060405180830381600087803b15801561091e57600080fd5b505af1158015610932573d6000803e3d6000fd5b505050506040513d601f19601f820116820180604052508101906109569190611921565b505b6003546040516306203eab60e11b8152336004820152602481018390526001600160a01b0390911690630c407d56906044015b600060405180830381600087803b1580156109a557600080fd5b505af11580156109b9573d6000803e3d6000fd5b5050505050505050505050505050565b601054336000908152600d602052604090205443916109e89190611726565b1115610a365760405162461bcd60e51b815260206004820152601960248201527f3c636f6c6c6563745f726564656d7074696f6e5f64656c6179000000000000006044820152606401610561565b3360009081526009602052604081205481908190819015610a7d573360009081526009602052604081208054919055600c54909250610a7590836116f3565b600c55600193505b336000908152600a602052604090205415610abc5750336000908152600a602052604081208054919055600b54610ab490826116f3565b600b55600192505b8315610b49576004805460405163a9059cbb60e01b81523392810192909252602482018490526001600160a01b03169063a9059cbb90604401602060405180830381600087803b158015610b0f57600080fd5b505af1158015610b23573d6000803e3d6000fd5b505050506040513d601f19601f82011682018060405250810190610b479190611921565b505b8215610bd55760055460405163a9059cbb60e01b8152336004820152602481018390526001600160a01b039091169063a9059cbb90604401602060405180830381600087803b158015610b9b57600080fd5b505af1158015610baf573d6000803e3d6000fd5b505050506040513d601f19601f82011682018060405250810190610bd39190611921565b505b50505050565b6000546001600160a01b03163314610c055760405162461bcd60e51b815260040161056190611a1a565b610c0e8161179f565b50565b600f546005546040516370a0823160e01b8152306004820152600092839283928392839283928392916001600160a01b0316906370a082319060240160206040518083038186803b158015610c6557600080fd5b505afa158015610c79573d6000803e3d6000fd5b505050506040513d601f19601f82011682018060405250810190610c9d9190611959565b600b54600c54610cab611671565b601254949c939b509199509750955060ff808316955061010090920490911692509050565b6007546001600160a01b03163314610d165760405162461bcd60e51b815260206004820152600960248201526821747265617375727960b81b6044820152606401610561565b60008111610d535760405162461bcd60e51b815260206004820152600a6024820152691e995c9bd05b5bdd5b9d60b21b6044820152606401610561565b6007546001600160a01b0316610d9d5760405162461bcd60e51b815260206004820152600f60248201526e696e76616c6964547265617375727960881b6044820152606401610561565b600754600554610c0e916001600160a01b03918216911683611863565b6001546001600160a01b03163314610de45760405162461bcd60e51b815260040161056190611a4f565b601055565b6000546001600160a01b03163314610e135760405162461bcd60e51b815260040161056190611a1a565b600080546040516001600160a01b03909116907f8be0079c531659141344cd1fd0a4f28419497f9722a3daafe3b4186f6b6457e0908390a3600080546001600160a01b0319169055565b6001546001600160a01b03163314610e875760405162461bcd60e51b815260040161056190611a4f565b600880546001600160a01b0319166001600160a01b0392909216919091179055565b6001546001600160a01b03163314610ed35760405162461bcd60e51b815260040161056190611a4f565b6012805460ff19811660ff90911615179055565b600080610ef2611671565b9050610f47620f42406107648361075e600e54600a610f119190611b0e565b600b546005546040516370a0823160e01b815230600482015261075e92916001600160a01b0316906370a082319060240161068a565b91505090565b60125462010000900460ff1615610f765760405162461bcd60e51b8152600401610561906119f8565b601254610100900460ff1615610fc45760405162461bcd60e51b815260206004820152601360248201527214995919595b5a5b99c81a5cc81c185d5cd959606a1b6044820152606401610561565b601154336000908152600d60205260409020544391610fe39190611726565b11156110255760405162461bcd60e51b81526020600482015260116024820152703c726564656d7074696f6e5f64656c617960781b6044820152606401610561565b6000806000600760009054906101000a90046001600160a01b03166001600160a01b031663370158ea6040518163ffffffff1660e01b81526004016101006040518083038186803b15801561107957600080fd5b505afa15801561108d573d6000803e3d6000fd5b505050506040513d601f19601f820116820180604052508101906110b1919061199c565b975050509550505093505060006110c6611671565b905060006110e56110de620f42406107648b87611752565b89906116f3565b9050600080620f424086101561112957600061111261110b620f4240610764878b611752565b85906116f3565b90506111258861076483620f4240611752565b9150505b851561116c576000611155620f42406107648961075e600e54600a61114e9190611b0e565b8990611793565b90506111688561076483620f4240611752565b9250505b600b546005546040516370a0823160e01b81523060048201526111a292916001600160a01b0316906370a082319060240161068a565b8211156111e65760405162461bcd60e51b81526020600482015260126024820152713c636f6c6c61746572616c426c616e61636560701b6044820152606401610561565b8188111580156111f65750808911155b61122e5760405162461bcd60e51b81526020600482015260096024820152683e736c69707061676560b81b6044820152606401610561565b811561126f57336000908152600a602052604090205461124e9083611726565b336000908152600a6020526040902055600b5461126b9083611726565b600b555b80156112b0573360009081526009602052604090205461128f9082611726565b33600090815260096020526040902055600c546112ac9082611726565b600c555b336000818152600d60205260409081902043905560035490516305060b2d60e11b81526004810192909252602482018c90526001600160a01b031690630a0c165a90604401600060405180830381600087803b15801561130f57600080fd5b505af1158015611323573d6000803e3d6000fd5b50505050600081111561136857600480546040516306203eab60e11b81523092810192909252602482018390526001600160a01b031690630c407d569060440161098b565b50505050505050505050565b6001600260008282546113879190611a93565b90915550506002546001546001600160a01b031633146113b95760405162461bcd60e51b815260040161056190611a4f565b60125462010000900460ff16156113e25760405162461bcd60e51b8152600401610561906119f8565b6012805462ff0000191662010000179055600b546005546040516370a0823160e01b815230600482015260009261142f9290916001600160a01b03909116906370a082319060240161068a565b600554909150611449906001600160a01b03168483611863565b50600254811461145857600080fd5b5050565b6001546001600160a01b031633146114865760405162461bcd60e51b815260040161056190611a4f565b6012805461ff001981166101009182900460ff1615909102179055565b6001546001600160a01b031633146114cd5760405162461bcd60e51b815260040161056190611a4f565b600f55565b6001546001600160a01b031633146114fc5760405162461bcd60e51b815260040161056190611a4f565b6007546040516001600160a01b038084169216907febebcc22237fa047dcfebf54b185ec126c9b24d45f4bd2a18e4fa02e07308c4090600090a3600780546001600160a01b0319166001600160a01b0392909216919091179055565b6001546001600160a01b031633146115825760405162461bcd60e51b815260040161056190611a4f565b601155565b6000546001600160a01b031633146115b15760405162461bcd60e51b815260040161056190611a1a565b6001600160a01b0381166116165760405162461bcd60e51b815260206004820152602660248201527f4f776e61626c653a206e6577206f776e657220697320746865207a65726f206160448201526564647265737360d01b6064820152608401610561565b600080546040516001600160a01b03808516939216917f8be0079c531659141344cd1fd0a4f28419497f9722a3daafe3b4186f6b6457e091a3600080546001600160a01b0319166001600160a01b0392909216919091179055565b60085460408051637eeda70360e01b815290516000926001600160a01b031691637eeda703916004808301926020929190829003018186803b1580156116b657600080fd5b505afa1580156116ca573d6000803e3d6000fd5b505050506040513d601f19601f820116820180604052508101906116ee9190611959565b905090565b60008282111561171357634e487b7160e01b600052600160045260246000fd5b61171d8284611bd5565b90505b92915050565b60006117328284611a93565b90508281101561172057634e487b7160e01b600052600160045260246000fd5b60008261176157506000611720565b61176b8284611bb6565b9050816117788483611aab565b1461172057634e487b7160e01b600052600160045260246000fd5b600061171d8284611aab565b6001600160a01b03811661180b5760405162461bcd60e51b815260206004820152602d60248201527f6f70657261746f723a207a65726f206164647265737320676976656e20666f7260448201526c103732bb9037b832b930ba37b960991b6064820152608401610561565b6040516001600160a01b038216906000907f74da04524d50c64947f5dd5381ef1a4dca5cba8ed1d816243f9e48aa0b5617ed908290a3600180546001600160a01b0319166001600160a01b0392909216919091179055565b60405163a9059cbb60e01b81526001600160a01b0383811660048301526024820183905284169063a9059cbb90604401602060405180830381600087803b1580156118ad57600080fd5b505af11580156118c1573d6000803e3d6000fd5b505050506040513d601f19601f820116820180604052508101906118e59190611921565b6118ee57600080fd5b505050565b600060208284031215611904578081fd5b81356001600160a01b038116811461191a578182fd5b9392505050565b600060208284031215611932578081fd5b8151801515811461191a578182fd5b600060208284031215611952578081fd5b5035919050565b60006020828403121561196a578081fd5b5051919050565b600080600060608486031215611985578182fd5b505081359360208301359350604090920135919050565b600080600080600080600080610100898b0312156119b8578384fd5b505086516020880151604089015160608a015160808b015160a08c015160c08d015160e0909d0151959e949d50929b919a50985090965094509092509050565b6020808252600890820152671b5a59dc985d195960c21b604082015260600190565b6020808252818101527f4f776e61626c653a2063616c6c6572206973206e6f7420746865206f776e6572604082015260600190565b60208082526024908201527f6f70657261746f723a2063616c6c6572206973206e6f7420746865206f70657260408201526330ba37b960e11b606082015260800190565b60008219821115611aa657611aa6611bec565b500190565b600082611ac657634e487b7160e01b81526012600452602481fd5b500490565b600181815b80851115611b06578160001904821115611aec57611aec611bec565b80851615611af957918102915b93841c9390800290611ad0565b509250929050565b600061171d8383600082611b2457506001611720565b81611b3157506000611720565b8160018114611b475760028114611b5157611b6d565b6001915050611720565b60ff841115611b6257611b62611bec565b50506001821b611720565b5060208310610133831016604e8410600b8410161715611b90575081810a611720565b611b9a8383611acb565b8060001904821115611bae57611bae611bec565b029392505050565b6000816000190483118215151615611bd057611bd0611bec565b500290565b600082821015611be757611be7611bec565b500390565b634e487b7160e01b600052601160045260246000fdfea26469706673582212207cfd25146ef1fed362a751f681d72bc8f16e629239b89700c5cb090f1be2445664736f6c63430008040033",
  "immutableReferences": {},
  "source": "// SPDX-License-Identifier: MIT\r\npragma solidity 0.8.4;\r\npragma experimental ABIEncoderV2;\r\n\r\nlibrary SafeMath {\r\n  function mul(uint256 a, uint256 b) internal pure returns (uint256 c) {\r\n    if (a == 0) {return 0;}\r\n    c = a * b;\r\n    assert(c / a == b);\r\n    return c;\r\n  }\r\n\r\n  function div(uint256 a, uint256 b) internal pure returns (uint256) {\r\n    return a / b;\r\n  }\r\n\r\n  function sub(uint256 a, uint256 b) internal pure returns (uint256) {\r\n    assert(b <= a);\r\n    return a - b;\r\n  }\r\n\r\n  function add(uint256 a, uint256 b) internal pure returns (uint256 c) {\r\n    c = a + b;\r\n    assert(c >= a);\r\n    return c;\r\n  }\r\n}\r\n\r\nlibrary SafeERC20 {\r\n  function safeTransfer(IERC20 token, address to, uint256 value) internal{\r\n    require(token.transfer(to, value));\r\n  }\r\n\r\n  function safeTransferFrom(IERC20 token, address from, address to, uint256 value) internal{\r\n    require(token.transferFrom(from, to, value));\r\n  }\r\n\r\n  function safeApprove( IERC20 token, address spender, uint256 value) internal{\r\n    require(token.approve(spender, value));\r\n  }\r\n}\r\n\r\ninterface IPool {\r\n    function collateralDollarBalance() external view returns (uint256);\r\n\r\n    function migrate(address _new_pool) external;\r\n\r\n    function transferCollateralToTreasury(uint256 amount) external;\r\n\r\n    function getCollateralPrice() external view returns (uint256);\r\n\r\n    function getCollateralToken() external view returns (address);\r\n}\r\n\r\ninterface IOracle {\r\n    function consult() external view returns (uint256);\r\n}\r\n\r\ninterface IEpoch {\r\n    function epoch() external view returns (uint256);\r\n\r\n    function nextEpochPoint() external view returns (uint256);\r\n}\r\n\r\ninterface ITreasury is IEpoch {\r\n    function hasPool(address _address) external view returns (bool);\r\n\r\n    function info()\r\n        external\r\n        view\r\n        returns (\r\n            uint256,\r\n            uint256,\r\n            uint256,\r\n            uint256,\r\n            uint256,\r\n            uint256,\r\n            uint256,\r\n            uint256\r\n        );\r\n\r\n    function epochInfo()\r\n        external\r\n        view\r\n        returns (\r\n            uint256,\r\n            uint256,\r\n            uint256,\r\n            uint256\r\n        );\r\n}\r\n\r\ninterface IDollar {\r\n    function poolBurnFrom(address _address, uint256 _amount) external;\r\n\r\n    function poolMint(address _address, uint256 m_amount) external;\r\n}\r\n\r\ninterface IShare {\r\n    function poolBurnFrom(address _address, uint256 _amount) external;\r\n\r\n    function poolMint(address _address, uint256 m_amount) external;\r\n}\r\n\r\ninterface IERC20 {\r\n    function totalSupply() external view returns (uint256);\r\n    function balanceOf(address account) external view returns (uint256);\r\n    function transfer(address recipient, uint256 amount) external returns (bool);\r\n    function allowance(address owner, address spender) external view returns (uint256);\r\n    function approve(address spender, uint256 amount) external returns (bool);\r\n    function transferFrom(address sender, address recipient, uint256 amount) external returns (bool);\r\n    event Transfer(address indexed from, address indexed to, uint256 value);\r\n    event Approval(address indexed owner, address indexed spender, uint256 value);\r\n    \r\n    function name() external view returns (string memory);\r\n    function symbol() external view returns (string memory);\r\n    function decimals() external view returns (uint8);\r\n}\r\n\r\nabstract contract ERC20 is IERC20 {\r\n    using SafeMath for uint256;\r\n    \r\n    mapping (address => uint256) private _balances;\r\n    mapping (address => mapping (address => uint256)) private _allowed;\r\n    uint256 private _totalSupply;\r\n\r\n    function totalSupply() public view override returns (uint256) {\r\n        return _totalSupply;\r\n    }\r\n\r\n    function balanceOf(address owner) public view override returns (uint256) {\r\n        return _balances[owner];\r\n    }\r\n\r\n    function allowance(address owner, address spender) public view override returns (uint256){\r\n        return _allowed[owner][spender];\r\n    }\r\n\r\n    function transfer(address to, uint256 value) public override returns (bool) {\r\n        require(value <= _balances[msg.sender]);\r\n        require(to != address(0));\r\n        _balances[msg.sender] = _balances[msg.sender].sub(value);\r\n        _balances[to] = _balances[to].add(value);\r\n        emit Transfer(msg.sender, to, value);\r\n        return true;\r\n    }\r\n\r\n    function approve(address spender, uint256 value) public override returns (bool) {\r\n        require(spender != address(0));\r\n        _allowed[msg.sender][spender] = value;\r\n        emit Approval(msg.sender, spender, value);\r\n        return true;\r\n    }\r\n\r\n    function transferFrom(address from, address to, uint256 value) public override returns (bool){\r\n        require(value <= _balances[from]);\r\n        require(value <= _allowed[from][msg.sender]);\r\n        require(to != address(0));\r\n        _balances[from] = _balances[from].sub(value);\r\n        _balances[to] = _balances[to].add(value);\r\n        _allowed[from][msg.sender] = _allowed[from][msg.sender].sub(value);\r\n        emit Transfer(from, to, value);\r\n        return true;\r\n    }\r\n\r\n    function increaseAllowance(address spender, uint256 addedValue) public returns (bool){\r\n        require(spender != address(0));\r\n        _allowed[msg.sender][spender] = (\r\n        _allowed[msg.sender][spender].add(addedValue));\r\n        emit Approval(msg.sender, spender, _allowed[msg.sender][spender]);\r\n        return true;\r\n    }\r\n\r\n    function decreaseAllowance(address spender, uint256 subtractedValue) public returns (bool){\r\n        require(spender != address(0));\r\n        _allowed[msg.sender][spender] = (_allowed[msg.sender][spender].sub(subtractedValue));\r\n        emit Approval(msg.sender, spender, _allowed[msg.sender][spender]);\r\n        return true;\r\n    }\r\n\r\n    function _mint(address account, uint256 amount) internal {\r\n        require(account != address(0));\r\n        _totalSupply = _totalSupply.add(amount);\r\n        _balances[account] = _balances[account].add(amount);\r\n        emit Transfer(address(0), account, amount);\r\n    }\r\n\r\n    function _burn(address account, uint256 amount) internal {\r\n        require(account != address(0));\r\n        require(amount <= _balances[account]);\r\n        _totalSupply = _totalSupply.sub(amount);\r\n        _balances[account] = _balances[account].sub(amount);\r\n        emit Transfer(account, address(0), amount);\r\n    }\r\n\r\n    function _burnFrom(address account, uint256 amount) internal {\r\n        require(amount <= _allowed[account][msg.sender]);\r\n        _allowed[account][msg.sender] = _allowed[account][msg.sender].sub(amount);\r\n        _burn(account, amount);\r\n    }\r\n}\r\n\r\nabstract contract Context {\r\n    function _msgSender() internal view virtual returns (address) {\r\n        return msg.sender;\r\n    }\r\n\r\n    function _msgData() internal view virtual returns (bytes calldata) {\r\n        this;\r\n        return msg.data;\r\n    }\r\n}\r\n\r\nabstract contract Ownable is Context {\r\n    address private _owner;\r\n    event OwnershipTransferred(address indexed previousOwner, address indexed newOwner);\r\n\r\n    constructor () {\r\n        address msgSender = _msgSender();\r\n        _owner = msgSender;\r\n        emit OwnershipTransferred(address(0), msgSender);\r\n    }\r\n\r\n    function owner() public view virtual returns (address) {\r\n        return _owner;\r\n    }\r\n\r\n    modifier onlyOwner() {\r\n        require(owner() == _msgSender(), \"Ownable: caller is not the owner\");\r\n        _;\r\n    }\r\n\r\n    function renounceOwnership() public virtual onlyOwner {\r\n        emit OwnershipTransferred(_owner, address(0));\r\n        _owner = address(0);\r\n    }\r\n\r\n    function transferOwnership(address newOwner) public virtual onlyOwner {\r\n        require(newOwner != address(0), \"Ownable: new owner is the zero address\");\r\n        emit OwnershipTransferred(_owner, newOwner);\r\n        _owner = newOwner;\r\n    }\r\n}\r\n\r\nabstract contract Operator is Context, Ownable {\r\n    address private _operator;\r\n\r\n    event OperatorTransferred(address indexed previousOperator, address indexed newOperator);\r\n\r\n    constructor(){\r\n        _operator = _msgSender();\r\n        emit OperatorTransferred(address(0), _operator);\r\n    }\r\n\r\n    function operator() public view returns (address) {\r\n        return _operator;\r\n    }\r\n\r\n    modifier onlyOperator() {\r\n        require(_operator == msg.sender, \"operator: caller is not the operator\");\r\n        _;\r\n    }\r\n\r\n    function isOperator() public view returns (bool) {\r\n        return _msgSender() == _operator;\r\n    }\r\n\r\n    function transferOperator(address newOperator_) public onlyOwner {\r\n        _transferOperator(newOperator_);\r\n    }\r\n\r\n    function _transferOperator(address newOperator_) internal {\r\n        require(newOperator_ != address(0), \"operator: zero address given for new operator\");\r\n        emit OperatorTransferred(address(0), newOperator_);\r\n        _operator = newOperator_;\r\n    }\r\n}\r\n\r\ncontract ReentrancyGuard {\r\n  uint256 private _guardCounter = 1;\r\n\r\n  modifier nonReentrant() {\r\n    _guardCounter += 1;\r\n    uint256 localCounter = _guardCounter;\r\n    _;\r\n    require(localCounter == _guardCounter);\r\n  }\r\n}\r\n\r\n\r\ncontract Pool is Operator, ReentrancyGuard, IPool {\r\n    using SafeMath for uint256;\r\n    using SafeERC20 for ERC20;\r\n\r\n    /* ========== STATE VARIABLES ========== */\r\n\r\n    address public dollar;\r\n    address public share;\r\n    address public collateral;\r\n    address public governanceToken;\r\n    address public treasury;\r\n    address public oracle; // oracle to get price of collateral\r\n\r\n    mapping(address => uint256) public redeem_share_balances;\r\n    mapping(address => uint256) public redeem_collateral_balances;\r\n\r\n    uint256 public unclaimed_pool_collateral;\r\n    uint256 public unclaimed_pool_share;\r\n\r\n    mapping(address => uint256) public last_redeemed;\r\n\r\n    // Constants for various precisions\r\n    uint256 private constant PRICE_PRECISION = 1e6;\r\n    uint256 private constant COLLATERAL_RATIO_PRECISION = 1e6;\r\n    uint256 private constant COLLATERAL_RATIO_MAX = 1e6;\r\n\r\n    // Number of decimals needed to get to 18\r\n    uint256 private missing_decimals;\r\n\r\n    // Pool_ceiling is the total units of collateral that a pool contract can hold\r\n    uint256 public pool_ceiling = 0;\r\n\r\n    // Number of blocks to wait before being able to collectRedemption()\r\n    uint256 public collect_redemption_delay = 1;\r\n\r\n    // Number of blocks to wait before being able to redem()\r\n    uint256 public redemption_delay = 30;//~1 min, when block time is around 2 sec\r\n\r\n    // AccessControl state variables\r\n    bool public mint_paused = false;\r\n    bool public redeem_paused = false;\r\n    bool public migrated = false;\r\n\r\n    /* ========== MODIFIERS ========== */\r\n\r\n    modifier notMigrated() {\r\n        require(!migrated, \"migrated\");\r\n        _;\r\n    }\r\n\r\n    modifier onlyTreasury() {\r\n        require(msg.sender == treasury, \"!treasury\");\r\n        _;\r\n    }\r\n\r\n    /* ========== CONSTRUCTOR ========== */\r\n\r\n    constructor(\r\n        address _dollar,\r\n        address _share,\r\n        address _collateral,\r\n        address _governanceToken,\r\n        address _treasury,\r\n        uint256 _pool_ceiling\r\n    ){\r\n        dollar = _dollar;\r\n        share = _share;\r\n        collateral = _collateral;\r\n        governanceToken = _governanceToken;\r\n        treasury = _treasury;\r\n        pool_ceiling = _pool_ceiling;\r\n        missing_decimals = uint256(18).sub(ERC20(_collateral).decimals());\r\n    }\r\n\r\n    /* ========== VIEWS ========== */\r\n\r\n    // Returns dollar value of collateral held in this pool\r\n    function collateralDollarBalance() external view override returns (uint256) {\r\n        uint256 collateral_usd_price = getCollateralPrice();\r\n        return (ERC20(collateral).balanceOf(address(this)).sub(unclaimed_pool_collateral)).mul(10**missing_decimals).mul(collateral_usd_price).div(PRICE_PRECISION);\r\n    }\r\n\r\n    function info()\r\n        external\r\n        view\r\n        returns (\r\n            uint256,\r\n            uint256,\r\n            uint256,\r\n            uint256,\r\n            uint256,\r\n            bool,\r\n            bool\r\n        )\r\n    {\r\n        return (\r\n            pool_ceiling, // Ceiling of pool - collateral-amount\r\n            ERC20(collateral).balanceOf(address(this)), // amount of COLLATERAL locked in this contract\r\n            unclaimed_pool_collateral, // unclaimed amount of COLLATERAL\r\n            unclaimed_pool_share, // unclaimed amount of SHARE\r\n            getCollateralPrice(), // collateral price\r\n            mint_paused,\r\n            redeem_paused\r\n        );\r\n    }\r\n\r\n    /* ========== PUBLIC FUNCTIONS ========== */\r\n\r\n    function getCollateralPrice() public view override returns (uint256) {\r\n        return IOracle(oracle).consult();\r\n    }\r\n\r\n    function getCollateralToken() external view override returns (address) {\r\n        return collateral;\r\n    }\r\n\r\n    function mint(\r\n        uint256 _collateral_amount,\r\n        uint256 _share_amount,\r\n        uint256 _dollar_out_min\r\n    ) external notMigrated {\r\n        require(mint_paused == false, \"Minting is paused\");\r\n        (, uint256 _share_price, , uint256 _target_collateral_ratio, , , uint256 _minting_fee, ) = ITreasury(treasury).info();\r\n        require(ERC20(collateral).balanceOf(address(this)).sub(unclaimed_pool_collateral).add(_collateral_amount) <= pool_ceiling, \">poolCeiling\");\r\n        uint256 _price_collateral = getCollateralPrice();\r\n        uint256 _total_dollar_value = 0;\r\n        uint256 _required_share_amount = 0;\r\n        if (_target_collateral_ratio > 0) {\r\n            uint256 _collateral_value = (_collateral_amount * (10**missing_decimals)).mul(_price_collateral).div(PRICE_PRECISION);\r\n            _total_dollar_value = _collateral_value.mul(COLLATERAL_RATIO_PRECISION).div(_target_collateral_ratio);\r\n            if (_target_collateral_ratio < COLLATERAL_RATIO_MAX) {\r\n                _required_share_amount = _total_dollar_value.sub(_collateral_value).mul(PRICE_PRECISION).div(_share_price);\r\n            }\r\n        } else {\r\n            _total_dollar_value = _share_amount.mul(_share_price).div(PRICE_PRECISION);\r\n            _required_share_amount = _share_amount;\r\n        }\r\n        uint256 _actual_dollar_amount = _total_dollar_value.sub((_total_dollar_value.mul(_minting_fee)).div(PRICE_PRECISION));\r\n        require(_dollar_out_min <= _actual_dollar_amount, \">slippage\");\r\n\r\n        if (_required_share_amount > 0) {\r\n            require(_required_share_amount <= _share_amount, \"<shareBalance\");\r\n            IShare(share).poolBurnFrom(msg.sender, _required_share_amount);\r\n        }\r\n        if (_collateral_amount > 0) {\r\n            ERC20(collateral).transferFrom(msg.sender, address(this), _collateral_amount);\r\n        }\r\n        IDollar(dollar).poolMint(msg.sender, _actual_dollar_amount);\r\n    }\r\n\r\n    function redeem(\r\n        uint256 _dollar_amount,\r\n        uint256 _share_out_min,\r\n        uint256 _collateral_out_min\r\n    ) external notMigrated {\r\n        require(redeem_paused == false, \"Redeeming is paused\");\r\n        require((last_redeemed[msg.sender].add(redemption_delay)) <= block.number, \"<redemption_delay\");\r\n        (, uint256 _share_price, , , uint256 _effective_collateral_ratio, , , uint256 _redemption_fee) = ITreasury(treasury).info();\r\n        uint256 _collateral_price = getCollateralPrice();\r\n        uint256 _dollar_amount_post_fee = _dollar_amount.sub((_dollar_amount.mul(_redemption_fee)).div(PRICE_PRECISION));\r\n        uint256 _collateral_output_amount = 0;\r\n        uint256 _share_output_amount = 0;\r\n\r\n        if (_effective_collateral_ratio < COLLATERAL_RATIO_MAX) {\r\n            uint256 _share_output_value = _dollar_amount_post_fee.sub(_dollar_amount_post_fee.mul(_effective_collateral_ratio).div(PRICE_PRECISION));\r\n            _share_output_amount = _share_output_value.mul(PRICE_PRECISION).div(_share_price);\r\n        }\r\n\r\n        if (_effective_collateral_ratio > 0) {\r\n            uint256 _collateral_output_value = _dollar_amount_post_fee.div(10**missing_decimals).mul(_effective_collateral_ratio).div(PRICE_PRECISION);\r\n            _collateral_output_amount = _collateral_output_value.mul(PRICE_PRECISION).div(_collateral_price);\r\n        }\r\n\r\n        // Check if collateral balance meets and meet output expectation\r\n        require(_collateral_output_amount <= ERC20(collateral).balanceOf(address(this)).sub(unclaimed_pool_collateral), \"<collateralBlanace\");\r\n        require(_collateral_out_min <= _collateral_output_amount && _share_out_min <= _share_output_amount, \">slippage\");\r\n\r\n        if (_collateral_output_amount > 0) {\r\n            redeem_collateral_balances[msg.sender] = redeem_collateral_balances[msg.sender].add(_collateral_output_amount);\r\n            unclaimed_pool_collateral = unclaimed_pool_collateral.add(_collateral_output_amount);\r\n        }\r\n\r\n        if (_share_output_amount > 0) {\r\n            redeem_share_balances[msg.sender] = redeem_share_balances[msg.sender].add(_share_output_amount);\r\n            unclaimed_pool_share = unclaimed_pool_share.add(_share_output_amount);\r\n        }\r\n\r\n        last_redeemed[msg.sender] = block.number;\r\n\r\n        // Move all external functions to the end\r\n        IDollar(dollar).poolBurnFrom(msg.sender, _dollar_amount);\r\n        if (_share_output_amount > 0) {\r\n            IShare(share).poolMint(address(this), _share_output_amount);\r\n        }\r\n    }\r\n\r\n    function collectRedemption() external {\r\n        // Redeem and Collect cannot happen in the same transaction to avoid flash loan attack\r\n        require((last_redeemed[msg.sender].add(collect_redemption_delay)) <= block.number, \"<collect_redemption_delay\");\r\n\r\n        bool _send_share = false;\r\n        bool _send_collateral = false;\r\n        uint256 _share_amount;\r\n        uint256 _collateral_amount;\r\n\r\n        // Use Checks-Effects-Interactions pattern\r\n        if (redeem_share_balances[msg.sender] > 0) {\r\n            _share_amount = redeem_share_balances[msg.sender];\r\n            redeem_share_balances[msg.sender] = 0;\r\n            unclaimed_pool_share = unclaimed_pool_share.sub(_share_amount);\r\n            _send_share = true;\r\n        }\r\n\r\n        if (redeem_collateral_balances[msg.sender] > 0) {\r\n            _collateral_amount = redeem_collateral_balances[msg.sender];\r\n            redeem_collateral_balances[msg.sender] = 0;\r\n            unclaimed_pool_collateral = unclaimed_pool_collateral.sub(_collateral_amount);\r\n            _send_collateral = true;\r\n        }\r\n\r\n        if (_send_share) {\r\n            ERC20(share).transfer(msg.sender, _share_amount);\r\n        }\r\n\r\n        if (_send_collateral) {\r\n            ERC20(collateral).transfer(msg.sender, _collateral_amount);\r\n        }\r\n    }\r\n\r\n    /* ========== RESTRICTED FUNCTIONS ========== */\r\n\r\n    // move collateral to new pool address\r\n    function migrate(address _new_pool) external override nonReentrant onlyOperator notMigrated {\r\n        migrated = true;\r\n        uint256 availableCollateral = ERC20(collateral).balanceOf(address(this)).sub(unclaimed_pool_collateral);\r\n        ERC20(collateral).safeTransfer(_new_pool, availableCollateral);\r\n    }\r\n\r\n    function toggleMinting() external onlyOperator {\r\n        mint_paused = !mint_paused;\r\n    }\r\n\r\n    function toggleRedeeming() external onlyOperator {\r\n        redeem_paused = !redeem_paused;\r\n    }\r\n\r\n    function setOracle(address _oracle) external onlyOperator {\r\n        oracle = _oracle;\r\n    }\r\n\r\n    function setPoolCeiling(uint256 _pool_ceiling) external onlyOperator {\r\n        pool_ceiling = _pool_ceiling;\r\n    }\r\n\r\n    function setCollectRedemptionDelay(uint256 _collect_redemption_delay) external onlyOperator {\r\n        collect_redemption_delay = _collect_redemption_delay;\r\n    }\r\n\r\n    function setRedemptionDelay(uint256 _redemption_delay) external onlyOperator {\r\n        redemption_delay = _redemption_delay;\r\n    }\r\n\r\n    function setTreasury(address _treasury) external onlyOperator {\r\n        emit TreasuryTransferred(treasury, _treasury);\r\n        treasury = _treasury;\r\n    }\r\n\r\n    // Transfer collateral to Treasury to execute strategies\r\n    function transferCollateralToTreasury(uint256 amount) external override onlyTreasury {\r\n        require(amount > 0, \"zeroAmount\");\r\n        require(treasury != address(0), \"invalidTreasury\");\r\n        ERC20(collateral).safeTransfer(treasury, amount);\r\n    }\r\n\r\n    // EVENTS\r\n    event TreasuryTransferred(address indexed previousTreasury, address indexed newTreasury);\r\n}\r\n",
  "sourcePath": "C:/Users/PaulMuller/Documents/projects/project_AGO/contracts/Pool.sol",
  "compiler": {
    "name": "solc",
    "version": "0.8.4+commit.c7e474f2.Emscripten.clang"
  },
  "schemaVersion": "3.4.1",
  "updatedAt": "2021-06-23T10:50:16.847Z",
  "networkType": "ethereum",
  "devdoc": {
    "kind": "dev",
    "methods": {},
    "version": 1
  },
  "userdoc": {
    "kind": "user",
    "methods": {},
    "version": 1
  }
}