{
  "contractName": "Pool",
  "abi": [
    {
      "inputs": [
        {
          "internalType": "address",
          "name": "_dollar",
          "type": "address"
        },
        {
          "internalType": "address",
          "name": "_share",
          "type": "address"
        },
        {
          "internalType": "address",
          "name": "_collateral",
          "type": "address"
        },
        {
          "internalType": "address",
          "name": "_governanceToken",
          "type": "address"
        },
        {
          "internalType": "address",
          "name": "_treasury",
          "type": "address"
        },
        {
          "internalType": "uint256",
          "name": "_pool_ceiling",
          "type": "uint256"
        }
      ],
      "stateMutability": "nonpayable",
      "type": "constructor"
    },
    {
      "anonymous": false,
      "inputs": [
        {
          "indexed": true,
          "internalType": "address",
          "name": "previousOperator",
          "type": "address"
        },
        {
          "indexed": true,
          "internalType": "address",
          "name": "newOperator",
          "type": "address"
        }
      ],
      "name": "OperatorTransferred",
      "type": "event"
    },
    {
      "anonymous": false,
      "inputs": [
        {
          "indexed": true,
          "internalType": "address",
          "name": "previousOwner",
          "type": "address"
        },
        {
          "indexed": true,
          "internalType": "address",
          "name": "newOwner",
          "type": "address"
        }
      ],
      "name": "OwnershipTransferred",
      "type": "event"
    },
    {
      "anonymous": false,
      "inputs": [
        {
          "indexed": true,
          "internalType": "address",
          "name": "previousTreasury",
          "type": "address"
        },
        {
          "indexed": true,
          "internalType": "address",
          "name": "newTreasury",
          "type": "address"
        }
      ],
      "name": "TreasuryTransferred",
      "type": "event"
    },
    {
      "inputs": [],
      "name": "collateral",
      "outputs": [
        {
          "internalType": "address",
          "name": "",
          "type": "address"
        }
      ],
      "stateMutability": "view",
      "type": "function"
    },
    {
      "inputs": [],
      "name": "collect_redemption_delay",
      "outputs": [
        {
          "internalType": "uint256",
          "name": "",
          "type": "uint256"
        }
      ],
      "stateMutability": "view",
      "type": "function"
    },
    {
      "inputs": [],
      "name": "dollar",
      "outputs": [
        {
          "internalType": "address",
          "name": "",
          "type": "address"
        }
      ],
      "stateMutability": "view",
      "type": "function"
    },
    {
      "inputs": [],
      "name": "governanceToken",
      "outputs": [
        {
          "internalType": "address",
          "name": "",
          "type": "address"
        }
      ],
      "stateMutability": "view",
      "type": "function"
    },
    {
      "inputs": [],
      "name": "isOperator",
      "outputs": [
        {
          "internalType": "bool",
          "name": "",
          "type": "bool"
        }
      ],
      "stateMutability": "view",
      "type": "function"
    },
    {
      "inputs": [
        {
          "internalType": "address",
          "name": "",
          "type": "address"
        }
      ],
      "name": "last_redeemed",
      "outputs": [
        {
          "internalType": "uint256",
          "name": "",
          "type": "uint256"
        }
      ],
      "stateMutability": "view",
      "type": "function"
    },
    {
      "inputs": [],
      "name": "migrated",
      "outputs": [
        {
          "internalType": "bool",
          "name": "",
          "type": "bool"
        }
      ],
      "stateMutability": "view",
      "type": "function"
    },
    {
      "inputs": [],
      "name": "mint_paused",
      "outputs": [
        {
          "internalType": "bool",
          "name": "",
          "type": "bool"
        }
      ],
      "stateMutability": "view",
      "type": "function"
    },
    {
      "inputs": [],
      "name": "operator",
      "outputs": [
        {
          "internalType": "address",
          "name": "",
          "type": "address"
        }
      ],
      "stateMutability": "view",
      "type": "function"
    },
    {
      "inputs": [],
      "name": "oracle",
      "outputs": [
        {
          "internalType": "address",
          "name": "",
          "type": "address"
        }
      ],
      "stateMutability": "view",
      "type": "function"
    },
    {
      "inputs": [],
      "name": "owner",
      "outputs": [
        {
          "internalType": "address",
          "name": "",
          "type": "address"
        }
      ],
      "stateMutability": "view",
      "type": "function"
    },
    {
      "inputs": [],
      "name": "pool_ceiling",
      "outputs": [
        {
          "internalType": "uint256",
          "name": "",
          "type": "uint256"
        }
      ],
      "stateMutability": "view",
      "type": "function"
    },
    {
      "inputs": [
        {
          "internalType": "address",
          "name": "",
          "type": "address"
        }
      ],
      "name": "redeem_collateral_balances",
      "outputs": [
        {
          "internalType": "uint256",
          "name": "",
          "type": "uint256"
        }
      ],
      "stateMutability": "view",
      "type": "function"
    },
    {
      "inputs": [],
      "name": "redeem_paused",
      "outputs": [
        {
          "internalType": "bool",
          "name": "",
          "type": "bool"
        }
      ],
      "stateMutability": "view",
      "type": "function"
    },
    {
      "inputs": [
        {
          "internalType": "address",
          "name": "",
          "type": "address"
        }
      ],
      "name": "redeem_share_balances",
      "outputs": [
        {
          "internalType": "uint256",
          "name": "",
          "type": "uint256"
        }
      ],
      "stateMutability": "view",
      "type": "function"
    },
    {
      "inputs": [],
      "name": "redemption_delay",
      "outputs": [
        {
          "internalType": "uint256",
          "name": "",
          "type": "uint256"
        }
      ],
      "stateMutability": "view",
      "type": "function"
    },
    {
      "inputs": [],
      "name": "renounceOwnership",
      "outputs": [],
      "stateMutability": "nonpayable",
      "type": "function"
    },
    {
      "inputs": [],
      "name": "share",
      "outputs": [
        {
          "internalType": "address",
          "name": "",
          "type": "address"
        }
      ],
      "stateMutability": "view",
      "type": "function"
    },
    {
      "inputs": [
        {
          "internalType": "address",
          "name": "newOperator_",
          "type": "address"
        }
      ],
      "name": "transferOperator",
      "outputs": [],
      "stateMutability": "nonpayable",
      "type": "function"
    },
    {
      "inputs": [
        {
          "internalType": "address",
          "name": "newOwner",
          "type": "address"
        }
      ],
      "name": "transferOwnership",
      "outputs": [],
      "stateMutability": "nonpayable",
      "type": "function"
    },
    {
      "inputs": [],
      "name": "treasury",
      "outputs": [
        {
          "internalType": "address",
          "name": "",
          "type": "address"
        }
      ],
      "stateMutability": "view",
      "type": "function"
    },
    {
      "inputs": [],
      "name": "unclaimed_pool_collateral",
      "outputs": [
        {
          "internalType": "uint256",
          "name": "",
          "type": "uint256"
        }
      ],
      "stateMutability": "view",
      "type": "function"
    },
    {
      "inputs": [],
      "name": "unclaimed_pool_share",
      "outputs": [
        {
          "internalType": "uint256",
          "name": "",
          "type": "uint256"
        }
      ],
      "stateMutability": "view",
      "type": "function"
    },
    {
      "inputs": [],
      "name": "collateralDollarBalance",
      "outputs": [
        {
          "internalType": "uint256",
          "name": "",
          "type": "uint256"
        }
      ],
      "stateMutability": "view",
      "type": "function"
    },
    {
      "inputs": [],
      "name": "info",
      "outputs": [
        {
          "internalType": "uint256",
          "name": "",
          "type": "uint256"
        },
        {
          "internalType": "uint256",
          "name": "",
          "type": "uint256"
        },
        {
          "internalType": "uint256",
          "name": "",
          "type": "uint256"
        },
        {
          "internalType": "uint256",
          "name": "",
          "type": "uint256"
        },
        {
          "internalType": "uint256",
          "name": "",
          "type": "uint256"
        },
        {
          "internalType": "bool",
          "name": "",
          "type": "bool"
        },
        {
          "internalType": "bool",
          "name": "",
          "type": "bool"
        }
      ],
      "stateMutability": "view",
      "type": "function"
    },
    {
      "inputs": [],
      "name": "getCollateralPrice",
      "outputs": [
        {
          "internalType": "uint256",
          "name": "",
          "type": "uint256"
        }
      ],
      "stateMutability": "view",
      "type": "function"
    },
    {
      "inputs": [],
      "name": "getCollateralToken",
      "outputs": [
        {
          "internalType": "address",
          "name": "",
          "type": "address"
        }
      ],
      "stateMutability": "view",
      "type": "function"
    },
    {
      "inputs": [
        {
          "internalType": "uint256",
          "name": "_collateral_amount",
          "type": "uint256"
        },
        {
          "internalType": "uint256",
          "name": "_share_amount",
          "type": "uint256"
        },
        {
          "internalType": "uint256",
          "name": "_dollar_out_min",
          "type": "uint256"
        }
      ],
      "name": "mint",
      "outputs": [],
      "stateMutability": "nonpayable",
      "type": "function"
    },
    {
      "inputs": [
        {
          "internalType": "uint256",
          "name": "_dollar_amount",
          "type": "uint256"
        },
        {
          "internalType": "uint256",
          "name": "_share_out_min",
          "type": "uint256"
        },
        {
          "internalType": "uint256",
          "name": "_collateral_out_min",
          "type": "uint256"
        }
      ],
      "name": "redeem",
      "outputs": [],
      "stateMutability": "nonpayable",
      "type": "function"
    },
    {
      "inputs": [],
      "name": "collectRedemption",
      "outputs": [],
      "stateMutability": "nonpayable",
      "type": "function"
    },
    {
      "inputs": [
        {
          "internalType": "address",
          "name": "_new_pool",
          "type": "address"
        }
      ],
      "name": "migrate",
      "outputs": [],
      "stateMutability": "nonpayable",
      "type": "function"
    },
    {
      "inputs": [],
      "name": "toggleMinting",
      "outputs": [],
      "stateMutability": "nonpayable",
      "type": "function"
    },
    {
      "inputs": [],
      "name": "toggleRedeeming",
      "outputs": [],
      "stateMutability": "nonpayable",
      "type": "function"
    },
    {
      "inputs": [
        {
          "internalType": "address",
          "name": "_oracle",
          "type": "address"
        }
      ],
      "name": "setOracle",
      "outputs": [],
      "stateMutability": "nonpayable",
      "type": "function"
    },
    {
      "inputs": [
        {
          "internalType": "uint256",
          "name": "_pool_ceiling",
          "type": "uint256"
        }
      ],
      "name": "setPoolCeiling",
      "outputs": [],
      "stateMutability": "nonpayable",
      "type": "function"
    },
    {
      "inputs": [
        {
          "internalType": "uint256",
          "name": "_collect_redemption_delay",
          "type": "uint256"
        }
      ],
      "name": "setCollectRedemptionDelay",
      "outputs": [],
      "stateMutability": "nonpayable",
      "type": "function"
    },
    {
      "inputs": [
        {
          "internalType": "uint256",
          "name": "_redemption_delay",
          "type": "uint256"
        }
      ],
      "name": "setRedemptionDelay",
      "outputs": [],
      "stateMutability": "nonpayable",
      "type": "function"
    },
    {
      "inputs": [
        {
          "internalType": "address",
          "name": "_treasury",
          "type": "address"
        }
      ],
      "name": "setTreasury",
      "outputs": [],
      "stateMutability": "nonpayable",
      "type": "function"
    },
    {
      "inputs": [
        {
          "internalType": "uint256",
          "name": "amount",
          "type": "uint256"
        }
      ],
      "name": "transferCollateralToTreasury",
      "outputs": [],
      "stateMutability": "nonpayable",
      "type": "function"
    }
  ],
  "bytecode": "0x608060405260016002556000600f556001601055601e6011556000601260006101000a81548160ff0219169083151502179055506000601260016101000a81548160ff0219169083151502179055506000601260026101000a81548160ff0219169083151502179055503480156200007657600080fd5b50604051620041bf380380620041bf83398181016040528101906200009c9190620004b3565b6000620000ae6200041660201b60201c565b9050806000806101000a81548173ffffffffffffffffffffffffffffffffffffffff021916908373ffffffffffffffffffffffffffffffffffffffff1602179055508073ffffffffffffffffffffffffffffffffffffffff16600073ffffffffffffffffffffffffffffffffffffffff167f8be0079c531659141344cd1fd0a4f28419497f9722a3daafe3b4186f6b6457e060405160405180910390a3506200015c6200041660201b60201c565b600160006101000a81548173ffffffffffffffffffffffffffffffffffffffff021916908373ffffffffffffffffffffffffffffffffffffffff160217905550600160009054906101000a900473ffffffffffffffffffffffffffffffffffffffff1673ffffffffffffffffffffffffffffffffffffffff16600073ffffffffffffffffffffffffffffffffffffffff167f74da04524d50c64947f5dd5381ef1a4dca5cba8ed1d816243f9e48aa0b5617ed60405160405180910390a385600360006101000a81548173ffffffffffffffffffffffffffffffffffffffff021916908373ffffffffffffffffffffffffffffffffffffffff16021790555084600460006101000a81548173ffffffffffffffffffffffffffffffffffffffff021916908373ffffffffffffffffffffffffffffffffffffffff16021790555083600560006101000a81548173ffffffffffffffffffffffffffffffffffffffff021916908373ffffffffffffffffffffffffffffffffffffffff16021790555082600660006101000a81548173ffffffffffffffffffffffffffffffffffffffff021916908373ffffffffffffffffffffffffffffffffffffffff16021790555081600760006101000a81548173ffffffffffffffffffffffffffffffffffffffff021916908373ffffffffffffffffffffffffffffffffffffffff16021790555080600f81905550620004048473ffffffffffffffffffffffffffffffffffffffff1663313ce5676040518163ffffffff1660e01b815260040160206040518083038186803b158015620003b057600080fd5b505afa158015620003c5573d6000803e3d6000fd5b505050506040513d601f19601f82011682018060405250810190620003eb919062000549565b60ff1660126200041e60201b62002a2f1790919060201c565b600e8190555050505050505062000678565b600033905090565b60008282111562000458577f4e487b7100000000000000000000000000000000000000000000000000000000600052600160045260246000fd5b818362000466919062000575565b905092915050565b6000815190506200047f816200062a565b92915050565b600081519050620004968162000644565b92915050565b600081519050620004ad816200065e565b92915050565b60008060008060008060c08789031215620004cd57600080fd5b6000620004dd89828a016200046e565b9650506020620004f089828a016200046e565b95505060406200050389828a016200046e565b94505060606200051689828a016200046e565b93505060806200052989828a016200046e565b92505060a06200053c89828a0162000485565b9150509295509295509295565b6000602082840312156200055c57600080fd5b60006200056c848285016200049c565b91505092915050565b60006200058282620005e4565b91506200058f83620005e4565b925082821015620005a557620005a4620005fb565b5b828203905092915050565b6000620005bd82620005c4565b9050919050565b600073ffffffffffffffffffffffffffffffffffffffff82169050919050565b6000819050919050565b600060ff82169050919050565b7f4e487b7100000000000000000000000000000000000000000000000000000000600052601160045260246000fd5b6200063581620005b0565b81146200064157600080fd5b50565b6200064f81620005e4565b81146200065b57600080fd5b50565b6200066981620005ee565b81146200067557600080fd5b50565b613b3780620006886000396000f3fe608060405234801561001057600080fd5b506004361061023d5760003560e01c80638da5cb5b1161013b578063d8dfeb45116100b8578063f1a9ee031161007c578063f1a9ee0314610618578063f2fde38b14610634578063f7683bbc14610650578063f96dae0a1461066e578063ff626c5f1461068c5761023d565b8063d8dfeb4514610588578063daa50485146105a6578063dc0d2a98146105b0578063e86bc619146105e0578063f0f44260146105fc5761023d565b8063b8192205116100ff578063b8192205146104e4578063c7d2722814610500578063c82c4d0e1461051e578063ce5494bb1461053c578063d0d132f3146105585761023d565b80638da5cb5b1461044e578063964236631461046c5780639c84d0f51461048a578063a8d5fd65146104a8578063ae9dd5bb146104c65761023d565b806354367135116101c9578063715018a61161018d578063715018a6146103e25780637adbf973146103ec5780637d55094d146104085780637dc0d1d01461041257806380a66d05146104305761023d565b8063543671351461033c578063570ca7351461036c57806361d027b31461038a5780636526a12a146103a85780636de52bb4146103c65761023d565b80632c678c64116102105780632c678c64146102a2578063370158ea146102c0578063378f3576146102e45780634456eda21461030057806351adeb571461031e5761023d565b806302acc94b1461024257806312ace5a21461025e578063151284251461026857806329605e7714610286575b600080fd5b61025c60048036038101906102579190612df2565b6106aa565b005b610266610ccd565b005b6102706110bb565b60405161027d91906133e6565b60405180910390f35b6102a0600480360381019061029b9190612d4e565b6110c1565b005b6102aa611149565b6040516102b791906131cb565b60405180910390f35b6102c861115c565b6040516102db9796959493929190613401565b60405180910390f35b6102fe60048036038101906102f99190612da0565b61125a565b005b610308611431565b60405161031591906131cb565b60405180910390f35b610326611490565b6040516103339190613150565b60405180910390f35b61035660048036038101906103519190612d4e565b6114b6565b60405161036391906133e6565b60405180910390f35b6103746114ce565b6040516103819190613150565b60405180910390f35b6103926114f8565b60405161039f9190613150565b60405180910390f35b6103b061151e565b6040516103bd91906133e6565b60405180910390f35b6103e060048036038101906103db9190612da0565b611524565b005b6103ea6115be565b005b61040660048036038101906104019190612d4e565b6116f8565b005b6104106117cc565b005b61041a611888565b6040516104279190613150565b60405180910390f35b6104386118ae565b60405161044591906131cb565b60405180910390f35b6104566118c1565b6040516104639190613150565b60405180910390f35b6104746118ea565b6040516104819190613150565b60405180910390f35b610492611914565b60405161049f91906133e6565b60405180910390f35b6104b0611a2d565b6040516104bd9190613150565b60405180910390f35b6104ce611a53565b6040516104db91906133e6565b60405180910390f35b6104fe60048036038101906104f99190612df2565b611a59565b005b6105086121c5565b60405161051591906131cb565b60405180910390f35b6105266121d8565b60405161053391906133e6565b60405180910390f35b61055660048036038101906105519190612d4e565b6121de565b005b610572600480360381019061056d9190612d4e565b61241d565b60405161057f91906133e6565b60405180910390f35b610590612435565b60405161059d9190613150565b60405180910390f35b6105ae61245b565b005b6105ca60048036038101906105c59190612d4e565b612517565b6040516105d791906133e6565b60405180910390f35b6105fa60048036038101906105f59190612da0565b61252f565b005b61061660048036038101906106119190612d4e565b6125c9565b005b610632600480360381019061062d9190612da0565b612719565b005b61064e60048036038101906106499190612d4e565b6127b3565b005b61065861295c565b60405161066591906133e6565b60405180910390f35b610676612a03565b6040516106839190613150565b60405180910390f35b610694612a29565b6040516106a191906133e6565b60405180910390f35b601260029054906101000a900460ff16156106fa576040517f08c379a00000000000000000000000000000000000000000000000000000000081526004016106f1906132a6565b60405180910390fd5b60001515601260009054906101000a900460ff16151514610750576040517f08c379a0000000000000000000000000000000000000000000000000000000008152600401610747906133a6565b60405180910390fd5b6000806000600760009054906101000a900473ffffffffffffffffffffffffffffffffffffffff1673ffffffffffffffffffffffffffffffffffffffff1663370158ea6040518163ffffffff1660e01b81526004016101006040518083038186803b1580156107be57600080fd5b505afa1580156107d2573d6000803e3d6000fd5b505050506040513d601f19601f820116820180604052508101906107f69190612e41565b5096505050945050935050600f546108d5876108c7600b54600560009054906101000a900473ffffffffffffffffffffffffffffffffffffffff1673ffffffffffffffffffffffffffffffffffffffff166370a08231306040518263ffffffff1660e01b81526004016108699190613150565b60206040518083038186803b15801561088157600080fd5b505afa158015610895573d6000803e3d6000fd5b505050506040513d601f19601f820116820180604052508101906108b99190612dc9565b612a2f90919063ffffffff16565b612a7c90919063ffffffff16565b1115610916576040517f08c379a000000000000000000000000000000000000000000000000000000000815260040161090d90613306565b60405180910390fd5b600061092061295c565b905060008060008511156109eb576000610971620f424061096386600e54600a61094a919061355b565b8e6109559190613679565b612ac990919063ffffffff16565b612b3290919063ffffffff16565b905061099b8661098d620f424084612ac990919063ffffffff16565b612b3290919063ffffffff16565b9250620f42408610156109e5576109e2876109d4620f42406109c68588612a2f90919063ffffffff16565b612ac990919063ffffffff16565b612b3290919063ffffffff16565b91505b50610a19565b610a13620f4240610a05888b612ac990919063ffffffff16565b612b3290919063ffffffff16565b91508790505b6000610a55610a46620f4240610a388887612ac990919063ffffffff16565b612b3290919063ffffffff16565b84612a2f90919063ffffffff16565b905080881115610a9a576040517f08c379a0000000000000000000000000000000000000000000000000000000008152600401610a9190613266565b60405180910390fd5b6000821115610b765788821115610ae6576040517f08c379a0000000000000000000000000000000000000000000000000000000008152600401610add90613246565b60405180910390fd5b600460009054906101000a900473ffffffffffffffffffffffffffffffffffffffff1673ffffffffffffffffffffffffffffffffffffffff16630a0c165a33846040518363ffffffff1660e01b8152600401610b439291906131a2565b600060405180830381600087803b158015610b5d57600080fd5b505af1158015610b71573d6000803e3d6000fd5b505050505b60008a1115610c3257600560009054906101000a900473ffffffffffffffffffffffffffffffffffffffff1673ffffffffffffffffffffffffffffffffffffffff166323b872dd33308d6040518463ffffffff1660e01b8152600401610bde9392919061316b565b602060405180830381600087803b158015610bf857600080fd5b505af1158015610c0c573d6000803e3d6000fd5b505050506040513d601f19601f82011682018060405250810190610c309190612d77565b505b600360009054906101000a900473ffffffffffffffffffffffffffffffffffffffff1673ffffffffffffffffffffffffffffffffffffffff16630c407d5633836040518363ffffffff1660e01b8152600401610c8f9291906131a2565b600060405180830381600087803b158015610ca957600080fd5b505af1158015610cbd573d6000803e3d6000fd5b5050505050505050505050505050565b43610d22601054600d60003373ffffffffffffffffffffffffffffffffffffffff1673ffffffffffffffffffffffffffffffffffffffff16815260200190815260200160002054612a7c90919063ffffffff16565b1115610d63576040517f08c379a0000000000000000000000000000000000000000000000000000000008152600401610d5a90613366565b60405180910390fd5b6000806000806000600960003373ffffffffffffffffffffffffffffffffffffffff1673ffffffffffffffffffffffffffffffffffffffff168152602001908152602001600020541115610e5857600960003373ffffffffffffffffffffffffffffffffffffffff1673ffffffffffffffffffffffffffffffffffffffff1681526020019081526020016000205491506000600960003373ffffffffffffffffffffffffffffffffffffffff1673ffffffffffffffffffffffffffffffffffffffff16815260200190815260200160002081905550610e4d82600c54612a2f90919063ffffffff16565b600c81905550600193505b6000600a60003373ffffffffffffffffffffffffffffffffffffffff1673ffffffffffffffffffffffffffffffffffffffff168152602001908152602001600020541115610f4757600a60003373ffffffffffffffffffffffffffffffffffffffff1673ffffffffffffffffffffffffffffffffffffffff1681526020019081526020016000205490506000600a60003373ffffffffffffffffffffffffffffffffffffffff1673ffffffffffffffffffffffffffffffffffffffff16815260200190815260200160002081905550610f3c81600b54612a2f90919063ffffffff16565b600b81905550600192505b8315610ffe57600460009054906101000a900473ffffffffffffffffffffffffffffffffffffffff1673ffffffffffffffffffffffffffffffffffffffff1663a9059cbb33846040518363ffffffff1660e01b8152600401610faa9291906131a2565b602060405180830381600087803b158015610fc457600080fd5b505af1158015610fd8573d6000803e3d6000fd5b505050506040513d601f19601f82011682018060405250810190610ffc9190612d77565b505b82156110b557600560009054906101000a900473ffffffffffffffffffffffffffffffffffffffff1673ffffffffffffffffffffffffffffffffffffffff1663a9059cbb33836040518363ffffffff1660e01b81526004016110619291906131a2565b602060405180830381600087803b15801561107b57600080fd5b505af115801561108f573d6000803e3d6000fd5b505050506040513d601f19601f820116820180604052508101906110b39190612d77565b505b50505050565b60115481565b6110c9612b48565b73ffffffffffffffffffffffffffffffffffffffff166110e76118c1565b73ffffffffffffffffffffffffffffffffffffffff161461113d576040517f08c379a000000000000000000000000000000000000000000000000000000000815260040161113490613326565b60405180910390fd5b61114681612b50565b50565b601260029054906101000a900460ff1681565b6000806000806000806000600f54600560009054906101000a900473ffffffffffffffffffffffffffffffffffffffff1673ffffffffffffffffffffffffffffffffffffffff166370a08231306040518263ffffffff1660e01b81526004016111c59190613150565b60206040518083038186803b1580156111dd57600080fd5b505afa1580156111f1573d6000803e3d6000fd5b505050506040513d601f19601f820116820180604052508101906112159190612dc9565b600b54600c5461122361295c565b601260009054906101000a900460ff16601260019054906101000a900460ff16965096509650965096509650965090919293949596565b600760009054906101000a900473ffffffffffffffffffffffffffffffffffffffff1673ffffffffffffffffffffffffffffffffffffffff163373ffffffffffffffffffffffffffffffffffffffff16146112ea576040517f08c379a00000000000000000000000000000000000000000000000000000000081526004016112e190613386565b60405180910390fd5b6000811161132d576040517f08c379a0000000000000000000000000000000000000000000000000000000008152600401611324906133c6565b60405180910390fd5b600073ffffffffffffffffffffffffffffffffffffffff16600760009054906101000a900473ffffffffffffffffffffffffffffffffffffffff1673ffffffffffffffffffffffffffffffffffffffff1614156113bf576040517f08c379a00000000000000000000000000000000000000000000000000000000081526004016113b6906131e6565b60405180910390fd5b61142e600760009054906101000a900473ffffffffffffffffffffffffffffffffffffffff1682600560009054906101000a900473ffffffffffffffffffffffffffffffffffffffff1673ffffffffffffffffffffffffffffffffffffffff16612c5f9092919063ffffffff16565b50565b6000600160009054906101000a900473ffffffffffffffffffffffffffffffffffffffff1673ffffffffffffffffffffffffffffffffffffffff16611474612b48565b73ffffffffffffffffffffffffffffffffffffffff1614905090565b600360009054906101000a900473ffffffffffffffffffffffffffffffffffffffff1681565b60096020528060005260406000206000915090505481565b6000600160009054906101000a900473ffffffffffffffffffffffffffffffffffffffff16905090565b600760009054906101000a900473ffffffffffffffffffffffffffffffffffffffff1681565b600f5481565b3373ffffffffffffffffffffffffffffffffffffffff16600160009054906101000a900473ffffffffffffffffffffffffffffffffffffffff1673ffffffffffffffffffffffffffffffffffffffff16146115b4576040517f08c379a00000000000000000000000000000000000000000000000000000000081526004016115ab90613346565b60405180910390fd5b8060108190555050565b6115c6612b48565b73ffffffffffffffffffffffffffffffffffffffff166115e46118c1565b73ffffffffffffffffffffffffffffffffffffffff161461163a576040517f08c379a000000000000000000000000000000000000000000000000000000000815260040161163190613326565b60405180910390fd5b600073ffffffffffffffffffffffffffffffffffffffff1660008054906101000a900473ffffffffffffffffffffffffffffffffffffffff1673ffffffffffffffffffffffffffffffffffffffff167f8be0079c531659141344cd1fd0a4f28419497f9722a3daafe3b4186f6b6457e060405160405180910390a360008060006101000a81548173ffffffffffffffffffffffffffffffffffffffff021916908373ffffffffffffffffffffffffffffffffffffffff160217905550565b3373ffffffffffffffffffffffffffffffffffffffff16600160009054906101000a900473ffffffffffffffffffffffffffffffffffffffff1673ffffffffffffffffffffffffffffffffffffffff1614611788576040517f08c379a000000000000000000000000000000000000000000000000000000000815260040161177f90613346565b60405180910390fd5b80600860006101000a81548173ffffffffffffffffffffffffffffffffffffffff021916908373ffffffffffffffffffffffffffffffffffffffff16021790555050565b3373ffffffffffffffffffffffffffffffffffffffff16600160009054906101000a900473ffffffffffffffffffffffffffffffffffffffff1673ffffffffffffffffffffffffffffffffffffffff161461185c576040517f08c379a000000000000000000000000000000000000000000000000000000000815260040161185390613346565b60405180910390fd5b601260009054906101000a900460ff1615601260006101000a81548160ff021916908315150217905550565b600860009054906101000a900473ffffffffffffffffffffffffffffffffffffffff1681565b601260019054906101000a900460ff1681565b60008060009054906101000a900473ffffffffffffffffffffffffffffffffffffffff16905090565b6000600560009054906101000a900473ffffffffffffffffffffffffffffffffffffffff16905090565b60008061191f61295c565b9050611a27620f4240611a1983611a0b600e54600a61193e919061355b565b6119fd600b54600560009054906101000a900473ffffffffffffffffffffffffffffffffffffffff1673ffffffffffffffffffffffffffffffffffffffff166370a08231306040518263ffffffff1660e01b815260040161199f9190613150565b60206040518083038186803b1580156119b757600080fd5b505afa1580156119cb573d6000803e3d6000fd5b505050506040513d601f19601f820116820180604052508101906119ef9190612dc9565b612a2f90919063ffffffff16565b612ac990919063ffffffff16565b612ac990919063ffffffff16565b612b3290919063ffffffff16565b91505090565b600460009054906101000a900473ffffffffffffffffffffffffffffffffffffffff1681565b60105481565b601260029054906101000a900460ff1615611aa9576040517f08c379a0000000000000000000000000000000000000000000000000000000008152600401611aa0906132a6565b60405180910390fd5b60001515601260019054906101000a900460ff16151514611aff576040517f08c379a0000000000000000000000000000000000000000000000000000000008152600401611af690613226565b60405180910390fd5b43611b54601154600d60003373ffffffffffffffffffffffffffffffffffffffff1673ffffffffffffffffffffffffffffffffffffffff16815260200190815260200160002054612a7c90919063ffffffff16565b1115611b95576040517f08c379a0000000000000000000000000000000000000000000000000000000008152600401611b8c906132e6565b60405180910390fd5b6000806000600760009054906101000a900473ffffffffffffffffffffffffffffffffffffffff1673ffffffffffffffffffffffffffffffffffffffff1663370158ea6040518163ffffffff1660e01b81526004016101006040518083038186803b158015611c0357600080fd5b505afa158015611c17573d6000803e3d6000fd5b505050506040513d601f19601f82011682018060405250810190611c3b9190612e41565b97505050955050509350506000611c5061295c565b90506000611c8e611c7f620f4240611c71868c612ac990919063ffffffff16565b612b3290919063ffffffff16565b89612a2f90919063ffffffff16565b9050600080620f4240861015611d08576000611cda611ccb620f4240611cbd8a88612ac990919063ffffffff16565b612b3290919063ffffffff16565b85612a2f90919063ffffffff16565b9050611d0488611cf6620f424084612ac990919063ffffffff16565b612b3290919063ffffffff16565b9150505b6000861115611d89576000611d5b620f4240611d4d89611d3f600e54600a611d30919061355b565b89612b3290919063ffffffff16565b612ac990919063ffffffff16565b612b3290919063ffffffff16565b9050611d8585611d77620f424084612ac990919063ffffffff16565b612b3290919063ffffffff16565b9250505b611e48600b54600560009054906101000a900473ffffffffffffffffffffffffffffffffffffffff1673ffffffffffffffffffffffffffffffffffffffff166370a08231306040518263ffffffff1660e01b8152600401611dea9190613150565b60206040518083038186803b158015611e0257600080fd5b505afa158015611e16573d6000803e3d6000fd5b505050506040513d601f19601f82011682018060405250810190611e3a9190612dc9565b612a2f90919063ffffffff16565b821115611e8a576040517f08c379a0000000000000000000000000000000000000000000000000000000008152600401611e81906132c6565b60405180910390fd5b818811158015611e9a5750808911155b611ed9576040517f08c379a0000000000000000000000000000000000000000000000000000000008152600401611ed090613266565b60405180910390fd5b6000821115611f9357611f3482600a60003373ffffffffffffffffffffffffffffffffffffffff1673ffffffffffffffffffffffffffffffffffffffff16815260200190815260200160002054612a7c90919063ffffffff16565b600a60003373ffffffffffffffffffffffffffffffffffffffff1673ffffffffffffffffffffffffffffffffffffffff16815260200190815260200160002081905550611f8c82600b54612a7c90919063ffffffff16565b600b819055505b600081111561204d57611fee81600960003373ffffffffffffffffffffffffffffffffffffffff1673ffffffffffffffffffffffffffffffffffffffff16815260200190815260200160002054612a7c90919063ffffffff16565b600960003373ffffffffffffffffffffffffffffffffffffffff1673ffffffffffffffffffffffffffffffffffffffff1681526020019081526020016000208190555061204681600c54612a7c90919063ffffffff16565b600c819055505b43600d60003373ffffffffffffffffffffffffffffffffffffffff1673ffffffffffffffffffffffffffffffffffffffff16815260200190815260200160002081905550600360009054906101000a900473ffffffffffffffffffffffffffffffffffffffff1673ffffffffffffffffffffffffffffffffffffffff16630a0c165a338c6040518363ffffffff1660e01b81526004016120ee9291906131a2565b600060405180830381600087803b15801561210857600080fd5b505af115801561211c573d6000803e3d6000fd5b5050505060008111156121b957600460009054906101000a900473ffffffffffffffffffffffffffffffffffffffff1673ffffffffffffffffffffffffffffffffffffffff16630c407d5630836040518363ffffffff1660e01b81526004016121869291906131a2565b600060405180830381600087803b1580156121a057600080fd5b505af11580156121b4573d6000803e3d6000fd5b505050505b50505050505050505050565b601260009054906101000a900460ff1681565b600c5481565b6001600260008282546121f19190613481565b92505081905550600060025490503373ffffffffffffffffffffffffffffffffffffffff16600160009054906101000a900473ffffffffffffffffffffffffffffffffffffffff1673ffffffffffffffffffffffffffffffffffffffff161461228f576040517f08c379a000000000000000000000000000000000000000000000000000000000815260040161228690613346565b60405180910390fd5b601260029054906101000a900460ff16156122df576040517f08c379a00000000000000000000000000000000000000000000000000000000081526004016122d6906132a6565b60405180910390fd5b6001601260026101000a81548160ff02191690831515021790555060006123bb600b54600560009054906101000a900473ffffffffffffffffffffffffffffffffffffffff1673ffffffffffffffffffffffffffffffffffffffff166370a08231306040518263ffffffff1660e01b815260040161235d9190613150565b60206040518083038186803b15801561237557600080fd5b505afa158015612389573d6000803e3d6000fd5b505050506040513d601f19601f820116820180604052508101906123ad9190612dc9565b612a2f90919063ffffffff16565b905061240a8382600560009054906101000a900473ffffffffffffffffffffffffffffffffffffffff1673ffffffffffffffffffffffffffffffffffffffff16612c5f9092919063ffffffff16565b50600254811461241957600080fd5b5050565b600a6020528060005260406000206000915090505481565b600560009054906101000a900473ffffffffffffffffffffffffffffffffffffffff1681565b3373ffffffffffffffffffffffffffffffffffffffff16600160009054906101000a900473ffffffffffffffffffffffffffffffffffffffff1673ffffffffffffffffffffffffffffffffffffffff16146124eb576040517f08c379a00000000000000000000000000000000000000000000000000000000081526004016124e290613346565b60405180910390fd5b601260019054906101000a900460ff1615601260016101000a81548160ff021916908315150217905550565b600d6020528060005260406000206000915090505481565b3373ffffffffffffffffffffffffffffffffffffffff16600160009054906101000a900473ffffffffffffffffffffffffffffffffffffffff1673ffffffffffffffffffffffffffffffffffffffff16146125bf576040517f08c379a00000000000000000000000000000000000000000000000000000000081526004016125b690613346565b60405180910390fd5b80600f8190555050565b3373ffffffffffffffffffffffffffffffffffffffff16600160009054906101000a900473ffffffffffffffffffffffffffffffffffffffff1673ffffffffffffffffffffffffffffffffffffffff1614612659576040517f08c379a000000000000000000000000000000000000000000000000000000000815260040161265090613346565b60405180910390fd5b8073ffffffffffffffffffffffffffffffffffffffff16600760009054906101000a900473ffffffffffffffffffffffffffffffffffffffff1673ffffffffffffffffffffffffffffffffffffffff167febebcc22237fa047dcfebf54b185ec126c9b24d45f4bd2a18e4fa02e07308c4060405160405180910390a380600760006101000a81548173ffffffffffffffffffffffffffffffffffffffff021916908373ffffffffffffffffffffffffffffffffffffffff16021790555050565b3373ffffffffffffffffffffffffffffffffffffffff16600160009054906101000a900473ffffffffffffffffffffffffffffffffffffffff1673ffffffffffffffffffffffffffffffffffffffff16146127a9576040517f08c379a00000000000000000000000000000000000000000000000000000000081526004016127a090613346565b60405180910390fd5b8060118190555050565b6127bb612b48565b73ffffffffffffffffffffffffffffffffffffffff166127d96118c1565b73ffffffffffffffffffffffffffffffffffffffff161461282f576040517f08c379a000000000000000000000000000000000000000000000000000000000815260040161282690613326565b60405180910390fd5b600073ffffffffffffffffffffffffffffffffffffffff168173ffffffffffffffffffffffffffffffffffffffff16141561289f576040517f08c379a000000000000000000000000000000000000000000000000000000000815260040161289690613206565b60405180910390fd5b8073ffffffffffffffffffffffffffffffffffffffff1660008054906101000a900473ffffffffffffffffffffffffffffffffffffffff1673ffffffffffffffffffffffffffffffffffffffff167f8be0079c531659141344cd1fd0a4f28419497f9722a3daafe3b4186f6b6457e060405160405180910390a3806000806101000a81548173ffffffffffffffffffffffffffffffffffffffff021916908373ffffffffffffffffffffffffffffffffffffffff16021790555050565b6000600860009054906101000a900473ffffffffffffffffffffffffffffffffffffffff1673ffffffffffffffffffffffffffffffffffffffff16637eeda7036040518163ffffffff1660e01b815260040160206040518083038186803b1580156129c657600080fd5b505afa1580156129da573d6000803e3d6000fd5b505050506040513d601f19601f820116820180604052508101906129fe9190612dc9565b905090565b600660009054906101000a900473ffffffffffffffffffffffffffffffffffffffff1681565b600b5481565b600082821115612a68577f4e487b7100000000000000000000000000000000000000000000000000000000600052600160045260246000fd5b8183612a7491906136d3565b905092915050565b60008183612a8a9190613481565b905082811015612ac3577f4e487b7100000000000000000000000000000000000000000000000000000000600052600160045260246000fd5b92915050565b600080831415612adc5760009050612b2c565b8183612ae89190613679565b9050818382612af791906134d7565b14612b2b577f4e487b7100000000000000000000000000000000000000000000000000000000600052600160045260246000fd5b5b92915050565b60008183612b4091906134d7565b905092915050565b600033905090565b600073ffffffffffffffffffffffffffffffffffffffff168173ffffffffffffffffffffffffffffffffffffffff161415612bc0576040517f08c379a0000000000000000000000000000000000000000000000000000000008152600401612bb790613286565b60405180910390fd5b8073ffffffffffffffffffffffffffffffffffffffff16600073ffffffffffffffffffffffffffffffffffffffff167f74da04524d50c64947f5dd5381ef1a4dca5cba8ed1d816243f9e48aa0b5617ed60405160405180910390a380600160006101000a81548173ffffffffffffffffffffffffffffffffffffffff021916908373ffffffffffffffffffffffffffffffffffffffff16021790555050565b8273ffffffffffffffffffffffffffffffffffffffff1663a9059cbb83836040518363ffffffff1660e01b8152600401612c9a9291906131a2565b602060405180830381600087803b158015612cb457600080fd5b505af1158015612cc8573d6000803e3d6000fd5b505050506040513d601f19601f82011682018060405250810190612cec9190612d77565b612cf557600080fd5b505050565b600081359050612d0981613abc565b92915050565b600081519050612d1e81613ad3565b92915050565b600081359050612d3381613aea565b92915050565b600081519050612d4881613aea565b92915050565b600060208284031215612d6057600080fd5b6000612d6e84828501612cfa565b91505092915050565b600060208284031215612d8957600080fd5b6000612d9784828501612d0f565b91505092915050565b600060208284031215612db257600080fd5b6000612dc084828501612d24565b91505092915050565b600060208284031215612ddb57600080fd5b6000612de984828501612d39565b91505092915050565b600080600060608486031215612e0757600080fd5b6000612e1586828701612d24565b9350506020612e2686828701612d24565b9250506040612e3786828701612d24565b9150509250925092565b600080600080600080600080610100898b031215612e5e57600080fd5b6000612e6c8b828c01612d39565b9850506020612e7d8b828c01612d39565b9750506040612e8e8b828c01612d39565b9650506060612e9f8b828c01612d39565b9550506080612eb08b828c01612d39565b94505060a0612ec18b828c01612d39565b93505060c0612ed28b828c01612d39565b92505060e0612ee38b828c01612d39565b9150509295985092959890939650565b612efc81613707565b82525050565b612f0b81613719565b82525050565b6000612f1e600f83613470565b9150612f29826137ba565b602082019050919050565b6000612f41602683613470565b9150612f4c826137e3565b604082019050919050565b6000612f64601383613470565b9150612f6f82613832565b602082019050919050565b6000612f87600d83613470565b9150612f928261385b565b602082019050919050565b6000612faa600983613470565b9150612fb582613884565b602082019050919050565b6000612fcd602d83613470565b9150612fd8826138ad565b604082019050919050565b6000612ff0600883613470565b9150612ffb826138fc565b602082019050919050565b6000613013601283613470565b915061301e82613925565b602082019050919050565b6000613036601183613470565b91506130418261394e565b602082019050919050565b6000613059600c83613470565b915061306482613977565b602082019050919050565b600061307c602083613470565b9150613087826139a0565b602082019050919050565b600061309f602483613470565b91506130aa826139c9565b604082019050919050565b60006130c2601983613470565b91506130cd82613a18565b602082019050919050565b60006130e5600983613470565b91506130f082613a41565b602082019050919050565b6000613108601183613470565b915061311382613a6a565b602082019050919050565b600061312b600a83613470565b915061313682613a93565b602082019050919050565b61314a81613745565b82525050565b60006020820190506131656000830184612ef3565b92915050565b60006060820190506131806000830186612ef3565b61318d6020830185612ef3565b61319a6040830184613141565b949350505050565b60006040820190506131b76000830185612ef3565b6131c46020830184613141565b9392505050565b60006020820190506131e06000830184612f02565b92915050565b600060208201905081810360008301526131ff81612f11565b9050919050565b6000602082019050818103600083015261321f81612f34565b9050919050565b6000602082019050818103600083015261323f81612f57565b9050919050565b6000602082019050818103600083015261325f81612f7a565b9050919050565b6000602082019050818103600083015261327f81612f9d565b9050919050565b6000602082019050818103600083015261329f81612fc0565b9050919050565b600060208201905081810360008301526132bf81612fe3565b9050919050565b600060208201905081810360008301526132df81613006565b9050919050565b600060208201905081810360008301526132ff81613029565b9050919050565b6000602082019050818103600083015261331f8161304c565b9050919050565b6000602082019050818103600083015261333f8161306f565b9050919050565b6000602082019050818103600083015261335f81613092565b9050919050565b6000602082019050818103600083015261337f816130b5565b9050919050565b6000602082019050818103600083015261339f816130d8565b9050919050565b600060208201905081810360008301526133bf816130fb565b9050919050565b600060208201905081810360008301526133df8161311e565b9050919050565b60006020820190506133fb6000830184613141565b92915050565b600060e082019050613416600083018a613141565b6134236020830189613141565b6134306040830188613141565b61343d6060830187613141565b61344a6080830186613141565b61345760a0830185612f02565b61346460c0830184612f02565b98975050505050505050565b600082825260208201905092915050565b600061348c82613745565b915061349783613745565b9250827fffffffffffffffffffffffffffffffffffffffffffffffffffffffffffffffff038211156134cc576134cb61374f565b5b828201905092915050565b60006134e282613745565b91506134ed83613745565b9250826134fd576134fc61377e565b5b828204905092915050565b6000808291508390505b60018511156135525780860481111561352e5761352d61374f565b5b600185161561353d5780820291505b808102905061354b856137ad565b9450613512565b94509492505050565b600061356682613745565b915061357183613745565b925061359e7fffffffffffffffffffffffffffffffffffffffffffffffffffffffffffffffff84846135a6565b905092915050565b6000826135b65760019050613672565b816135c45760009050613672565b81600181146135da57600281146135e457613613565b6001915050613672565b60ff8411156135f6576135f561374f565b5b8360020a91508482111561360d5761360c61374f565b5b50613672565b5060208310610133831016604e8410600b84101617156136485782820a9050838111156136435761364261374f565b5b613672565b6136558484846001613508565b9250905081840481111561366c5761366b61374f565b5b81810290505b9392505050565b600061368482613745565b915061368f83613745565b9250817fffffffffffffffffffffffffffffffffffffffffffffffffffffffffffffffff04831182151516156136c8576136c761374f565b5b828202905092915050565b60006136de82613745565b91506136e983613745565b9250828210156136fc576136fb61374f565b5b828203905092915050565b600061371282613725565b9050919050565b60008115159050919050565b600073ffffffffffffffffffffffffffffffffffffffff82169050919050565b6000819050919050565b7f4e487b7100000000000000000000000000000000000000000000000000000000600052601160045260246000fd5b7f4e487b7100000000000000000000000000000000000000000000000000000000600052601260045260246000fd5b60008160011c9050919050565b7f696e76616c696454726561737572790000000000000000000000000000000000600082015250565b7f4f776e61626c653a206e6577206f776e657220697320746865207a65726f206160008201527f6464726573730000000000000000000000000000000000000000000000000000602082015250565b7f52656465656d696e672069732070617573656400000000000000000000000000600082015250565b7f3c736861726542616c616e636500000000000000000000000000000000000000600082015250565b7f3e736c6970706167650000000000000000000000000000000000000000000000600082015250565b7f6f70657261746f723a207a65726f206164647265737320676976656e20666f7260008201527f206e6577206f70657261746f7200000000000000000000000000000000000000602082015250565b7f6d69677261746564000000000000000000000000000000000000000000000000600082015250565b7f3c636f6c6c61746572616c426c616e6163650000000000000000000000000000600082015250565b7f3c726564656d7074696f6e5f64656c6179000000000000000000000000000000600082015250565b7f3e706f6f6c4365696c696e670000000000000000000000000000000000000000600082015250565b7f4f776e61626c653a2063616c6c6572206973206e6f7420746865206f776e6572600082015250565b7f6f70657261746f723a2063616c6c6572206973206e6f7420746865206f70657260008201527f61746f7200000000000000000000000000000000000000000000000000000000602082015250565b7f3c636f6c6c6563745f726564656d7074696f6e5f64656c617900000000000000600082015250565b7f2174726561737572790000000000000000000000000000000000000000000000600082015250565b7f4d696e74696e6720697320706175736564000000000000000000000000000000600082015250565b7f7a65726f416d6f756e7400000000000000000000000000000000000000000000600082015250565b613ac581613707565b8114613ad057600080fd5b50565b613adc81613719565b8114613ae757600080fd5b50565b613af381613745565b8114613afe57600080fd5b5056fea264697066735822122006038381cdb366f4661b236e9265d9082ad067bf847bc8d439ab881fdd46f38564736f6c63430008040033",
  "immutableReferences": {},
  "source": "// SPDX-License-Identifier: MIT\npragma solidity 0.8.4;\npragma experimental ABIEncoderV2;\n\nlibrary SafeMath {\n  function mul(uint256 a, uint256 b) internal pure returns (uint256 c) {\n    if (a == 0) {return 0;}\n    c = a * b;\n    assert(c / a == b);\n    return c;\n  }\n\n  function div(uint256 a, uint256 b) internal pure returns (uint256) {\n    return a / b;\n  }\n\n  function sub(uint256 a, uint256 b) internal pure returns (uint256) {\n    assert(b <= a);\n    return a - b;\n  }\n\n  function add(uint256 a, uint256 b) internal pure returns (uint256 c) {\n    c = a + b;\n    assert(c >= a);\n    return c;\n  }\n}\n\nlibrary SafeERC20 {\n  function safeTransfer(IERC20 token, address to, uint256 value) internal{\n    require(token.transfer(to, value));\n  }\n\n  function safeTransferFrom(IERC20 token, address from, address to, uint256 value) internal{\n    require(token.transferFrom(from, to, value));\n  }\n\n  function safeApprove( IERC20 token, address spender, uint256 value) internal{\n    require(token.approve(spender, value));\n  }\n}\n\ninterface IPool {\n    function collateralDollarBalance() external view returns (uint256);\n\n    function migrate(address _new_pool) external;\n\n    function transferCollateralToTreasury(uint256 amount) external;\n\n    function getCollateralPrice() external view returns (uint256);\n\n    function getCollateralToken() external view returns (address);\n}\n\ninterface IOracle {\n    function consult() external view returns (uint256);\n}\n\ninterface IEpoch {\n    function epoch() external view returns (uint256);\n\n    function nextEpochPoint() external view returns (uint256);\n}\n\ninterface ITreasury is IEpoch {\n    function hasPool(address _address) external view returns (bool);\n\n    function info()\n        external\n        view\n        returns (\n            uint256,\n            uint256,\n            uint256,\n            uint256,\n            uint256,\n            uint256,\n            uint256,\n            uint256\n        );\n\n    function epochInfo()\n        external\n        view\n        returns (\n            uint256,\n            uint256,\n            uint256,\n            uint256\n        );\n}\n\ninterface IDollar {\n    function poolBurnFrom(address _address, uint256 _amount) external;\n\n    function poolMint(address _address, uint256 m_amount) external;\n}\n\ninterface IShare {\n    function poolBurnFrom(address _address, uint256 _amount) external;\n\n    function poolMint(address _address, uint256 m_amount) external;\n}\n\ninterface IERC20 {\n    function totalSupply() external view returns (uint256);\n    function balanceOf(address account) external view returns (uint256);\n    function transfer(address recipient, uint256 amount) external returns (bool);\n    function allowance(address owner, address spender) external view returns (uint256);\n    function approve(address spender, uint256 amount) external returns (bool);\n    function transferFrom(address sender, address recipient, uint256 amount) external returns (bool);\n    event Transfer(address indexed from, address indexed to, uint256 value);\n    event Approval(address indexed owner, address indexed spender, uint256 value);\n    \n    function name() external view returns (string memory);\n    function symbol() external view returns (string memory);\n    function decimals() external view returns (uint8);\n}\n\nabstract contract ERC20 is IERC20 {\n    using SafeMath for uint256;\n    \n    mapping (address => uint256) private _balances;\n    mapping (address => mapping (address => uint256)) private _allowed;\n    uint256 private _totalSupply;\n\n    function totalSupply() public view override returns (uint256) {\n        return _totalSupply;\n    }\n\n    function balanceOf(address owner) public view override returns (uint256) {\n        return _balances[owner];\n    }\n\n    function allowance(address owner, address spender) public view override returns (uint256){\n        return _allowed[owner][spender];\n    }\n\n    function transfer(address to, uint256 value) public override returns (bool) {\n        require(value <= _balances[msg.sender]);\n        require(to != address(0));\n        _balances[msg.sender] = _balances[msg.sender].sub(value);\n        _balances[to] = _balances[to].add(value);\n        emit Transfer(msg.sender, to, value);\n        return true;\n    }\n\n    function approve(address spender, uint256 value) public override returns (bool) {\n        require(spender != address(0));\n        _allowed[msg.sender][spender] = value;\n        emit Approval(msg.sender, spender, value);\n        return true;\n    }\n\n    function transferFrom(address from, address to, uint256 value) public override returns (bool){\n        require(value <= _balances[from]);\n        require(value <= _allowed[from][msg.sender]);\n        require(to != address(0));\n        _balances[from] = _balances[from].sub(value);\n        _balances[to] = _balances[to].add(value);\n        _allowed[from][msg.sender] = _allowed[from][msg.sender].sub(value);\n        emit Transfer(from, to, value);\n        return true;\n    }\n\n    function increaseAllowance(address spender, uint256 addedValue) public returns (bool){\n        require(spender != address(0));\n        _allowed[msg.sender][spender] = (\n        _allowed[msg.sender][spender].add(addedValue));\n        emit Approval(msg.sender, spender, _allowed[msg.sender][spender]);\n        return true;\n    }\n\n    function decreaseAllowance(address spender, uint256 subtractedValue) public returns (bool){\n        require(spender != address(0));\n        _allowed[msg.sender][spender] = (_allowed[msg.sender][spender].sub(subtractedValue));\n        emit Approval(msg.sender, spender, _allowed[msg.sender][spender]);\n        return true;\n    }\n\n    function _mint(address account, uint256 amount) internal {\n        require(account != address(0));\n        _totalSupply = _totalSupply.add(amount);\n        _balances[account] = _balances[account].add(amount);\n        emit Transfer(address(0), account, amount);\n    }\n\n    function _burn(address account, uint256 amount) internal {\n        require(account != address(0));\n        require(amount <= _balances[account]);\n        _totalSupply = _totalSupply.sub(amount);\n        _balances[account] = _balances[account].sub(amount);\n        emit Transfer(account, address(0), amount);\n    }\n\n    function _burnFrom(address account, uint256 amount) internal {\n        require(amount <= _allowed[account][msg.sender]);\n        _allowed[account][msg.sender] = _allowed[account][msg.sender].sub(amount);\n        _burn(account, amount);\n    }\n}\n\nabstract contract Context {\n    function _msgSender() internal view virtual returns (address) {\n        return msg.sender;\n    }\n\n    function _msgData() internal view virtual returns (bytes calldata) {\n        this;\n        return msg.data;\n    }\n}\n\nabstract contract Ownable is Context {\n    address private _owner;\n    event OwnershipTransferred(address indexed previousOwner, address indexed newOwner);\n\n    constructor () {\n        address msgSender = _msgSender();\n        _owner = msgSender;\n        emit OwnershipTransferred(address(0), msgSender);\n    }\n\n    function owner() public view virtual returns (address) {\n        return _owner;\n    }\n\n    modifier onlyOwner() {\n        require(owner() == _msgSender(), \"Ownable: caller is not the owner\");\n        _;\n    }\n\n    function renounceOwnership() public virtual onlyOwner {\n        emit OwnershipTransferred(_owner, address(0));\n        _owner = address(0);\n    }\n\n    function transferOwnership(address newOwner) public virtual onlyOwner {\n        require(newOwner != address(0), \"Ownable: new owner is the zero address\");\n        emit OwnershipTransferred(_owner, newOwner);\n        _owner = newOwner;\n    }\n}\n\nabstract contract Operator is Context, Ownable {\n    address private _operator;\n\n    event OperatorTransferred(address indexed previousOperator, address indexed newOperator);\n\n    constructor(){\n        _operator = _msgSender();\n        emit OperatorTransferred(address(0), _operator);\n    }\n\n    function operator() public view returns (address) {\n        return _operator;\n    }\n\n    modifier onlyOperator() {\n        require(_operator == msg.sender, \"operator: caller is not the operator\");\n        _;\n    }\n\n    function isOperator() public view returns (bool) {\n        return _msgSender() == _operator;\n    }\n\n    function transferOperator(address newOperator_) public onlyOwner {\n        _transferOperator(newOperator_);\n    }\n\n    function _transferOperator(address newOperator_) internal {\n        require(newOperator_ != address(0), \"operator: zero address given for new operator\");\n        emit OperatorTransferred(address(0), newOperator_);\n        _operator = newOperator_;\n    }\n}\n\ncontract ReentrancyGuard {\n  uint256 private _guardCounter = 1;\n\n  modifier nonReentrant() {\n    _guardCounter += 1;\n    uint256 localCounter = _guardCounter;\n    _;\n    require(localCounter == _guardCounter);\n  }\n}\n\n\ncontract Pool is Operator, ReentrancyGuard, IPool {\n    using SafeMath for uint256;\n    using SafeERC20 for ERC20;\n\n    /* ========== STATE VARIABLES ========== */\n\n    address public dollar;\n    address public share;\n    address public collateral;\n    address public governanceToken;\n    address public treasury;\n    address public oracle; // oracle to get price of collateral\n\n    mapping(address => uint256) public redeem_share_balances;\n    mapping(address => uint256) public redeem_collateral_balances;\n\n    uint256 public unclaimed_pool_collateral;\n    uint256 public unclaimed_pool_share;\n\n    mapping(address => uint256) public last_redeemed;\n\n    // Constants for various precisions\n    uint256 private constant PRICE_PRECISION = 1e6;\n    uint256 private constant COLLATERAL_RATIO_PRECISION = 1e6;\n    uint256 private constant COLLATERAL_RATIO_MAX = 1e6;\n\n    // Number of decimals needed to get to 18\n    uint256 private missing_decimals;\n\n    // Pool_ceiling is the total units of collateral that a pool contract can hold\n    uint256 public pool_ceiling = 0;\n\n    // Number of blocks to wait before being able to collectRedemption()\n    uint256 public collect_redemption_delay = 1;\n\n    // Number of blocks to wait before being able to redem()\n    uint256 public redemption_delay = 30;//~1 min, when block time is around 2 sec\n\n    // AccessControl state variables\n    bool public mint_paused = false;\n    bool public redeem_paused = false;\n    bool public migrated = false;\n\n    /* ========== MODIFIERS ========== */\n\n    modifier notMigrated() {\n        require(!migrated, \"migrated\");\n        _;\n    }\n\n    modifier onlyTreasury() {\n        require(msg.sender == treasury, \"!treasury\");\n        _;\n    }\n\n    /* ========== CONSTRUCTOR ========== */\n\n    constructor(\n        address _dollar,\n        address _share,\n        address _collateral,\n        address _governanceToken,\n        address _treasury,\n        uint256 _pool_ceiling\n    ){\n        dollar = _dollar;\n        share = _share;\n        collateral = _collateral;\n        governanceToken = _governanceToken;\n        treasury = _treasury;\n        pool_ceiling = _pool_ceiling;\n        missing_decimals = uint256(18).sub(ERC20(_collateral).decimals());\n    }\n\n    /* ========== VIEWS ========== */\n\n    // Returns dollar value of collateral held in this pool\n    function collateralDollarBalance() external view override returns (uint256) {\n        uint256 collateral_usd_price = getCollateralPrice();\n        return (ERC20(collateral).balanceOf(address(this)).sub(unclaimed_pool_collateral)).mul(10**missing_decimals).mul(collateral_usd_price).div(PRICE_PRECISION);\n    }\n\n    function info()\n        external\n        view\n        returns (\n            uint256,\n            uint256,\n            uint256,\n            uint256,\n            uint256,\n            bool,\n            bool\n        )\n    {\n        return (\n            pool_ceiling, // Ceiling of pool - collateral-amount\n            ERC20(collateral).balanceOf(address(this)), // amount of COLLATERAL locked in this contract\n            unclaimed_pool_collateral, // unclaimed amount of COLLATERAL\n            unclaimed_pool_share, // unclaimed amount of SHARE\n            getCollateralPrice(), // collateral price\n            mint_paused,\n            redeem_paused\n        );\n    }\n\n    /* ========== PUBLIC FUNCTIONS ========== */\n\n    function getCollateralPrice() public view override returns (uint256) {\n        return IOracle(oracle).consult();\n    }\n\n    function getCollateralToken() external view override returns (address) {\n        return collateral;\n    }\n\n    function mint(\n        uint256 _collateral_amount,\n        uint256 _share_amount,\n        uint256 _dollar_out_min\n    ) external notMigrated {\n        require(mint_paused == false, \"Minting is paused\");\n        (, uint256 _share_price, , uint256 _target_collateral_ratio, , , uint256 _minting_fee, ) = ITreasury(treasury).info();\n        require(ERC20(collateral).balanceOf(address(this)).sub(unclaimed_pool_collateral).add(_collateral_amount) <= pool_ceiling, \">poolCeiling\");\n        uint256 _price_collateral = getCollateralPrice();\n        uint256 _total_dollar_value = 0;\n        uint256 _required_share_amount = 0;\n        if (_target_collateral_ratio > 0) {\n            uint256 _collateral_value = (_collateral_amount * (10**missing_decimals)).mul(_price_collateral).div(PRICE_PRECISION);\n            _total_dollar_value = _collateral_value.mul(COLLATERAL_RATIO_PRECISION).div(_target_collateral_ratio);\n            if (_target_collateral_ratio < COLLATERAL_RATIO_MAX) {\n                _required_share_amount = _total_dollar_value.sub(_collateral_value).mul(PRICE_PRECISION).div(_share_price);\n            }\n        } else {\n            _total_dollar_value = _share_amount.mul(_share_price).div(PRICE_PRECISION);\n            _required_share_amount = _share_amount;\n        }\n        uint256 _actual_dollar_amount = _total_dollar_value.sub((_total_dollar_value.mul(_minting_fee)).div(PRICE_PRECISION));\n        require(_dollar_out_min <= _actual_dollar_amount, \">slippage\");\n\n        if (_required_share_amount > 0) {\n            require(_required_share_amount <= _share_amount, \"<shareBalance\");\n            IShare(share).poolBurnFrom(msg.sender, _required_share_amount);\n        }\n        if (_collateral_amount > 0) {\n            ERC20(collateral).transferFrom(msg.sender, address(this), _collateral_amount);\n        }\n        IDollar(dollar).poolMint(msg.sender, _actual_dollar_amount);\n    }\n\n    function redeem(\n        uint256 _dollar_amount,\n        uint256 _share_out_min,\n        uint256 _collateral_out_min\n    ) external notMigrated {\n        require(redeem_paused == false, \"Redeeming is paused\");\n        require((last_redeemed[msg.sender].add(redemption_delay)) <= block.number, \"<redemption_delay\");\n        (, uint256 _share_price, , , uint256 _effective_collateral_ratio, , , uint256 _redemption_fee) = ITreasury(treasury).info();\n        uint256 _collateral_price = getCollateralPrice();\n        uint256 _dollar_amount_post_fee = _dollar_amount.sub((_dollar_amount.mul(_redemption_fee)).div(PRICE_PRECISION));\n        uint256 _collateral_output_amount = 0;\n        uint256 _share_output_amount = 0;\n\n        if (_effective_collateral_ratio < COLLATERAL_RATIO_MAX) {\n            uint256 _share_output_value = _dollar_amount_post_fee.sub(_dollar_amount_post_fee.mul(_effective_collateral_ratio).div(PRICE_PRECISION));\n            _share_output_amount = _share_output_value.mul(PRICE_PRECISION).div(_share_price);\n        }\n\n        if (_effective_collateral_ratio > 0) {\n            uint256 _collateral_output_value = _dollar_amount_post_fee.div(10**missing_decimals).mul(_effective_collateral_ratio).div(PRICE_PRECISION);\n            _collateral_output_amount = _collateral_output_value.mul(PRICE_PRECISION).div(_collateral_price);\n        }\n\n        // Check if collateral balance meets and meet output expectation\n        require(_collateral_output_amount <= ERC20(collateral).balanceOf(address(this)).sub(unclaimed_pool_collateral), \"<collateralBlanace\");\n        require(_collateral_out_min <= _collateral_output_amount && _share_out_min <= _share_output_amount, \">slippage\");\n\n        if (_collateral_output_amount > 0) {\n            redeem_collateral_balances[msg.sender] = redeem_collateral_balances[msg.sender].add(_collateral_output_amount);\n            unclaimed_pool_collateral = unclaimed_pool_collateral.add(_collateral_output_amount);\n        }\n\n        if (_share_output_amount > 0) {\n            redeem_share_balances[msg.sender] = redeem_share_balances[msg.sender].add(_share_output_amount);\n            unclaimed_pool_share = unclaimed_pool_share.add(_share_output_amount);\n        }\n\n        last_redeemed[msg.sender] = block.number;\n\n        // Move all external functions to the end\n        IDollar(dollar).poolBurnFrom(msg.sender, _dollar_amount);\n        if (_share_output_amount > 0) {\n            IShare(share).poolMint(address(this), _share_output_amount);\n        }\n    }\n\n    function collectRedemption() external {\n        // Redeem and Collect cannot happen in the same transaction to avoid flash loan attack\n        require((last_redeemed[msg.sender].add(collect_redemption_delay)) <= block.number, \"<collect_redemption_delay\");\n\n        bool _send_share = false;\n        bool _send_collateral = false;\n        uint256 _share_amount;\n        uint256 _collateral_amount;\n\n        // Use Checks-Effects-Interactions pattern\n        if (redeem_share_balances[msg.sender] > 0) {\n            _share_amount = redeem_share_balances[msg.sender];\n            redeem_share_balances[msg.sender] = 0;\n            unclaimed_pool_share = unclaimed_pool_share.sub(_share_amount);\n            _send_share = true;\n        }\n\n        if (redeem_collateral_balances[msg.sender] > 0) {\n            _collateral_amount = redeem_collateral_balances[msg.sender];\n            redeem_collateral_balances[msg.sender] = 0;\n            unclaimed_pool_collateral = unclaimed_pool_collateral.sub(_collateral_amount);\n            _send_collateral = true;\n        }\n\n        if (_send_share) {\n            ERC20(share).transfer(msg.sender, _share_amount);\n        }\n\n        if (_send_collateral) {\n            ERC20(collateral).transfer(msg.sender, _collateral_amount);\n        }\n    }\n\n    /* ========== RESTRICTED FUNCTIONS ========== */\n\n    // move collateral to new pool address\n    function migrate(address _new_pool) external override nonReentrant onlyOperator notMigrated {\n        migrated = true;\n        uint256 availableCollateral = ERC20(collateral).balanceOf(address(this)).sub(unclaimed_pool_collateral);\n        ERC20(collateral).safeTransfer(_new_pool, availableCollateral);\n    }\n\n    function toggleMinting() external onlyOperator {\n        mint_paused = !mint_paused;\n    }\n\n    function toggleRedeeming() external onlyOperator {\n        redeem_paused = !redeem_paused;\n    }\n\n    function setOracle(address _oracle) external onlyOperator {\n        oracle = _oracle;\n    }\n\n    function setPoolCeiling(uint256 _pool_ceiling) external onlyOperator {\n        pool_ceiling = _pool_ceiling;\n    }\n\n    function setCollectRedemptionDelay(uint256 _collect_redemption_delay) external onlyOperator {\n        collect_redemption_delay = _collect_redemption_delay;\n    }\n\n    function setRedemptionDelay(uint256 _redemption_delay) external onlyOperator {\n        redemption_delay = _redemption_delay;\n    }\n\n    function setTreasury(address _treasury) external onlyOperator {\n        emit TreasuryTransferred(treasury, _treasury);\n        treasury = _treasury;\n    }\n\n    // Transfer collateral to Treasury to execute strategies\n    function transferCollateralToTreasury(uint256 amount) external override onlyTreasury {\n        require(amount > 0, \"zeroAmount\");\n        require(treasury != address(0), \"invalidTreasury\");\n        ERC20(collateral).safeTransfer(treasury, amount);\n    }\n\n    // EVENTS\n    event TreasuryTransferred(address indexed previousTreasury, address indexed newTreasury);\n}\n",
  "sourcePath": "/home/kali/Documents/project_AGO/contracts/Pool.sol",
  "compiler": {
    "name": "solc",
    "version": "0.8.4+commit.c7e474f2.Emscripten.clang"
  },
  "schemaVersion": "3.3.4",
  "updatedAt": "2021-06-23T02:20:50.633Z",
  "devdoc": {
    "kind": "dev",
    "methods": {},
    "version": 1
  },
  "userdoc": {
    "kind": "user",
    "methods": {},
    "version": 1
  }
}