{
  "contractName": "Pool",
  "abi": [
    {
      "inputs": [
        {
          "internalType": "address",
          "name": "_dollar",
          "type": "address"
        },
        {
          "internalType": "address",
          "name": "_share",
          "type": "address"
        },
        {
          "internalType": "address",
          "name": "_collateral",
          "type": "address"
        },
        {
          "internalType": "address",
          "name": "_governanceToken",
          "type": "address"
        },
        {
          "internalType": "address",
          "name": "_treasury",
          "type": "address"
        },
        {
          "internalType": "uint256",
          "name": "_pool_ceiling",
          "type": "uint256"
        }
      ],
      "stateMutability": "nonpayable",
      "type": "constructor"
    },
    {
      "anonymous": false,
      "inputs": [
        {
          "indexed": true,
          "internalType": "address",
          "name": "previousTreasury",
          "type": "address"
        },
        {
          "indexed": true,
          "internalType": "address",
          "name": "newTreasury",
          "type": "address"
        }
      ],
      "name": "TreasuryTransferred",
      "type": "event"
    },
    {
      "inputs": [],
      "name": "collateral",
      "outputs": [
        {
          "internalType": "address",
          "name": "",
          "type": "address"
        }
      ],
      "stateMutability": "view",
      "type": "function"
    },
    {
      "inputs": [],
      "name": "collect_redemption_delay",
      "outputs": [
        {
          "internalType": "uint256",
          "name": "",
          "type": "uint256"
        }
      ],
      "stateMutability": "view",
      "type": "function"
    },
    {
      "inputs": [],
      "name": "dollar",
      "outputs": [
        {
          "internalType": "address",
          "name": "",
          "type": "address"
        }
      ],
      "stateMutability": "view",
      "type": "function"
    },
    {
      "inputs": [],
      "name": "governanceToken",
      "outputs": [
        {
          "internalType": "address",
          "name": "",
          "type": "address"
        }
      ],
      "stateMutability": "view",
      "type": "function"
    },
    {
      "inputs": [
        {
          "internalType": "address",
          "name": "",
          "type": "address"
        }
      ],
      "name": "last_redeemed",
      "outputs": [
        {
          "internalType": "uint256",
          "name": "",
          "type": "uint256"
        }
      ],
      "stateMutability": "view",
      "type": "function"
    },
    {
      "inputs": [],
      "name": "migrated",
      "outputs": [
        {
          "internalType": "bool",
          "name": "",
          "type": "bool"
        }
      ],
      "stateMutability": "view",
      "type": "function"
    },
    {
      "inputs": [],
      "name": "mint_paused",
      "outputs": [
        {
          "internalType": "bool",
          "name": "",
          "type": "bool"
        }
      ],
      "stateMutability": "view",
      "type": "function"
    },
    {
      "inputs": [],
      "name": "oracle",
      "outputs": [
        {
          "internalType": "address",
          "name": "",
          "type": "address"
        }
      ],
      "stateMutability": "view",
      "type": "function"
    },
    {
      "inputs": [],
      "name": "owner",
      "outputs": [
        {
          "internalType": "address",
          "name": "",
          "type": "address"
        }
      ],
      "stateMutability": "view",
      "type": "function"
    },
    {
      "inputs": [],
      "name": "pool_ceiling",
      "outputs": [
        {
          "internalType": "uint256",
          "name": "",
          "type": "uint256"
        }
      ],
      "stateMutability": "view",
      "type": "function"
    },
    {
      "inputs": [
        {
          "internalType": "address",
          "name": "",
          "type": "address"
        }
      ],
      "name": "redeem_collateral_balances",
      "outputs": [
        {
          "internalType": "uint256",
          "name": "",
          "type": "uint256"
        }
      ],
      "stateMutability": "view",
      "type": "function"
    },
    {
      "inputs": [],
      "name": "redeem_paused",
      "outputs": [
        {
          "internalType": "bool",
          "name": "",
          "type": "bool"
        }
      ],
      "stateMutability": "view",
      "type": "function"
    },
    {
      "inputs": [
        {
          "internalType": "address",
          "name": "",
          "type": "address"
        }
      ],
      "name": "redeem_share_balances",
      "outputs": [
        {
          "internalType": "uint256",
          "name": "",
          "type": "uint256"
        }
      ],
      "stateMutability": "view",
      "type": "function"
    },
    {
      "inputs": [],
      "name": "redemption_delay",
      "outputs": [
        {
          "internalType": "uint256",
          "name": "",
          "type": "uint256"
        }
      ],
      "stateMutability": "view",
      "type": "function"
    },
    {
      "inputs": [],
      "name": "share",
      "outputs": [
        {
          "internalType": "address",
          "name": "",
          "type": "address"
        }
      ],
      "stateMutability": "view",
      "type": "function"
    },
    {
      "inputs": [
        {
          "internalType": "address",
          "name": "newOwner",
          "type": "address"
        }
      ],
      "name": "transferOwnership",
      "outputs": [],
      "stateMutability": "nonpayable",
      "type": "function"
    },
    {
      "inputs": [],
      "name": "treasury",
      "outputs": [
        {
          "internalType": "address",
          "name": "",
          "type": "address"
        }
      ],
      "stateMutability": "view",
      "type": "function"
    },
    {
      "inputs": [],
      "name": "unclaimed_pool_collateral",
      "outputs": [
        {
          "internalType": "uint256",
          "name": "",
          "type": "uint256"
        }
      ],
      "stateMutability": "view",
      "type": "function"
    },
    {
      "inputs": [],
      "name": "unclaimed_pool_share",
      "outputs": [
        {
          "internalType": "uint256",
          "name": "",
          "type": "uint256"
        }
      ],
      "stateMutability": "view",
      "type": "function"
    },
    {
      "inputs": [],
      "name": "collateralDollarBalance",
      "outputs": [
        {
          "internalType": "uint256",
          "name": "",
          "type": "uint256"
        }
      ],
      "stateMutability": "view",
      "type": "function"
    },
    {
      "inputs": [],
      "name": "info",
      "outputs": [
        {
          "internalType": "uint256",
          "name": "",
          "type": "uint256"
        },
        {
          "internalType": "uint256",
          "name": "",
          "type": "uint256"
        },
        {
          "internalType": "uint256",
          "name": "",
          "type": "uint256"
        },
        {
          "internalType": "uint256",
          "name": "",
          "type": "uint256"
        },
        {
          "internalType": "uint256",
          "name": "",
          "type": "uint256"
        },
        {
          "internalType": "bool",
          "name": "",
          "type": "bool"
        },
        {
          "internalType": "bool",
          "name": "",
          "type": "bool"
        }
      ],
      "stateMutability": "view",
      "type": "function"
    },
    {
      "inputs": [],
      "name": "getCollateralPrice",
      "outputs": [
        {
          "internalType": "uint256",
          "name": "",
          "type": "uint256"
        }
      ],
      "stateMutability": "view",
      "type": "function"
    },
    {
      "inputs": [],
      "name": "getCollateralToken",
      "outputs": [
        {
          "internalType": "address",
          "name": "",
          "type": "address"
        }
      ],
      "stateMutability": "view",
      "type": "function"
    },
    {
      "inputs": [
        {
          "internalType": "uint256",
          "name": "_collateral_amount",
          "type": "uint256"
        },
        {
          "internalType": "uint256",
          "name": "_share_amount",
          "type": "uint256"
        },
        {
          "internalType": "uint256",
          "name": "_dollar_out_min",
          "type": "uint256"
        }
      ],
      "name": "mint",
      "outputs": [],
      "stateMutability": "nonpayable",
      "type": "function"
    },
    {
      "inputs": [
        {
          "internalType": "uint256",
          "name": "_dollar_amount",
          "type": "uint256"
        },
        {
          "internalType": "uint256",
          "name": "_share_out_min",
          "type": "uint256"
        },
        {
          "internalType": "uint256",
          "name": "_collateral_out_min",
          "type": "uint256"
        }
      ],
      "name": "redeem",
      "outputs": [],
      "stateMutability": "nonpayable",
      "type": "function"
    },
    {
      "inputs": [],
      "name": "collectRedemption",
      "outputs": [],
      "stateMutability": "nonpayable",
      "type": "function"
    },
    {
      "inputs": [
        {
          "internalType": "address",
          "name": "_new_pool",
          "type": "address"
        }
      ],
      "name": "migrate",
      "outputs": [],
      "stateMutability": "nonpayable",
      "type": "function"
    },
    {
      "inputs": [],
      "name": "toggleMinting",
      "outputs": [],
      "stateMutability": "nonpayable",
      "type": "function"
    },
    {
      "inputs": [],
      "name": "toggleRedeeming",
      "outputs": [],
      "stateMutability": "nonpayable",
      "type": "function"
    },
    {
      "inputs": [
        {
          "internalType": "address",
          "name": "_oracle",
          "type": "address"
        }
      ],
      "name": "setOracle",
      "outputs": [],
      "stateMutability": "nonpayable",
      "type": "function"
    },
    {
      "inputs": [
        {
          "internalType": "uint256",
          "name": "_pool_ceiling",
          "type": "uint256"
        }
      ],
      "name": "setPoolCeiling",
      "outputs": [],
      "stateMutability": "nonpayable",
      "type": "function"
    },
    {
      "inputs": [
        {
          "internalType": "uint256",
          "name": "_collect_redemption_delay",
          "type": "uint256"
        }
      ],
      "name": "setCollectRedemptionDelay",
      "outputs": [],
      "stateMutability": "nonpayable",
      "type": "function"
    },
    {
      "inputs": [
        {
          "internalType": "uint256",
          "name": "_redemption_delay",
          "type": "uint256"
        }
      ],
      "name": "setRedemptionDelay",
      "outputs": [],
      "stateMutability": "nonpayable",
      "type": "function"
    },
    {
      "inputs": [
        {
          "internalType": "address",
          "name": "_treasury",
          "type": "address"
        }
      ],
      "name": "setTreasury",
      "outputs": [],
      "stateMutability": "nonpayable",
      "type": "function"
    },
    {
      "inputs": [
        {
          "internalType": "uint256",
          "name": "amount",
          "type": "uint256"
        }
      ],
      "name": "transferCollateralToTreasury",
      "outputs": [],
      "stateMutability": "nonpayable",
      "type": "function"
    }
  ],
  "bytecode": "0x608060405260018080556000600e55600f55601e6010556011805462ffffff191690553480156200002f57600080fd5b5060405162001ed238038062001ed283398101604081905262000052916200020e565b60008054336001600160a01b0319918216179091556002805482166001600160a01b038981169190911790915560038054831688831617905560048054831687831690811782556005805485168885161790556006805490941692861692909217909255600e8390556040805163313ce56760e01b81529051620001489363313ce56792808201926020929091829003018186803b158015620000f457600080fd5b505afa15801562000109573d6000803e3d6000fd5b505050506040513d601f19601f820116820180604052508101906200012f919062000285565b60ff1660126200015860201b620014b61790919060201c565b600d555062000322945050505050565b6000620001a283836040518060400160405280601e81526020017f536166654d6174683a207375627472616374696f6e206f766572666c6f770000815250620001a960201b60201c565b9392505050565b60008184841115620001d95760405162461bcd60e51b8152600401620001d09190620002a8565b60405180910390fd5b506000620001e88486620002fe565b95945050505050565b80516001600160a01b03811681146200020957600080fd5b919050565b60008060008060008060c0878903121562000227578182fd5b6200023287620001f1565b95506200024260208801620001f1565b94506200025260408801620001f1565b93506200026260608801620001f1565b92506200027260808801620001f1565b915060a087015190509295509295509295565b60006020828403121562000297578081fd5b815160ff81168114620001a2578182fd5b6000602080835283518082850152825b81811015620002d657858101830151858201604001528201620002b8565b81811115620002e85783604083870101525b50601f01601f1916929092016040019392505050565b6000828210156200031d57634e487b7160e01b81526011600452602481fd5b500390565b611ba080620003326000396000f3fe608060405234801561001057600080fd5b50600436106102115760003560e01c80639c84d0f511610125578063daa50485116100ad578063f1a9ee031161007c578063f1a9ee0314610485578063f2fde38b14610498578063f7683bbc146104ab578063f96dae0a146104b3578063ff626c5f146104c657600080fd5b8063daa5048514610437578063dc0d2a981461043f578063e86bc6191461045f578063f0f442601461047257600080fd5b8063c7d27228116100f4578063c7d27228146103db578063c82c4d0e146103e8578063ce5494bb146103f1578063d0d132f314610404578063d8dfeb451461042457600080fd5b80639c84d0f5146103a4578063a8d5fd65146103ac578063ae9dd5bb146103bf578063b8192205146103c857600080fd5b806361d027b3116101a85780637d55094d116101775780637d55094d146103535780637dc0d1d01461035b57806380a66d051461036e5780638da5cb5b14610380578063964236631461039357600080fd5b806361d027b3146103115780636526a12a146103245780636de52bb41461032d5780637adbf9731461034057600080fd5b8063370158ea116101e4578063370158ea14610272578063378f3576146102b357806351adeb57146102c657806354367135146102f157600080fd5b806302acc94b1461021657806312ace5a21461022b57806315128425146102335780632c678c641461024f575b600080fd5b6102296102243660046118d7565b6104cf565b005b610229610961565b61023c60105481565b6040519081526020015b60405180910390f35b6011546102629062010000900460ff1681565b6040519015158152602001610246565b61027a610b73565b6040805197885260208801969096529486019390935260608501919091526080840152151560a0830152151560c082015260e001610246565b6102296102c13660046118a7565b610c37565b6002546102d9906001600160a01b031681565b6040516001600160a01b039091168152602001610246565b61023c6102ff366004611860565b60086020526000908152604090205481565b6006546102d9906001600160a01b031681565b61023c600e5481565b61022961033b3660046118a7565b610d24565b61022961034e366004611860565b610d40565b610229610d79565b6007546102d9906001600160a01b031681565b60115461026290610100900460ff1681565b6000546102d9906001600160a01b031681565b6004546001600160a01b03166102d9565b61023c610da4565b6003546102d9906001600160a01b031681565b61023c600f5481565b6102296103d63660046118d7565b610e0f565b6011546102629060ff1681565b61023c600b5481565b6102296103ff366004611860565b61123a565b61023c610412366004611860565b60096020526000908152604090205481565b6004546102d9906001600160a01b031681565b61022961130f565b61023c61044d366004611860565b600c6020526000908152604090205481565b61022961046d3660046118a7565b611343565b610229610480366004611860565b61135f565b6102296104933660046118a7565b6113d2565b6102296104a6366004611860565b6113ee565b61023c611434565b6005546102d9906001600160a01b031681565b61023c600a5481565b60115462010000900460ff16156105015760405162461bcd60e51b81526004016104f8906119ad565b60405180910390fd5b60115460ff16156105485760405162461bcd60e51b8152602060048201526011602482015270135a5b9d1a5b99c81a5cc81c185d5cd959607a1b60448201526064016104f8565b6000806000600660009054906101000a90046001600160a01b03166001600160a01b031663370158ea6040518163ffffffff1660e01b81526004016101006040518083038186803b15801561059c57600080fd5b505afa1580156105b0573d6000803e3d6000fd5b505050506040513d601f19601f820116820180604052508101906105d49190611902565b50600e54600a54600480546040516370a0823160e01b81523092810192909252989c50959a50919850965061067e958d9550610678949193506001600160a01b031691506370a08231906024015b60206040518083038186803b15801561063a57600080fd5b505afa15801561064e573d6000803e3d6000fd5b505050506040513d601f19601f8201168201806040525081019061067291906118bf565b906114b6565b90611501565b11156106bb5760405162461bcd60e51b815260206004820152600c60248201526b3e706f6f6c4365696c696e6760a01b60448201526064016104f8565b60006106c5611434565b90506000808415610740576000610702620f42406106fc86600d54600a6106ec9190611a4a565b6106f6908f611af2565b90611560565b906115df565b9050610715866106fc83620f4240611560565b9250620f424086101561073a57610737876106fc620f42406106f687866114b6565b91505b50610757565b610751620f42406106fc8a89611560565b91508790505b600061077461076d620f42406106fc8689611560565b84906114b6565b9050808811156107b25760405162461bcd60e51b81526020600482015260096024820152683e736c69707061676560b81b60448201526064016104f8565b811561085d57888211156107f85760405162461bcd60e51b815260206004820152600d60248201526c3c736861726542616c616e636560981b60448201526064016104f8565b6003546040516305060b2d60e11b8152336004820152602481018490526001600160a01b0390911690630a0c165a90604401600060405180830381600087803b15801561084457600080fd5b505af1158015610858573d6000803e3d6000fd5b505050505b89156108f057600480546040516323b872dd60e01b81523392810192909252306024830152604482018c90526001600160a01b0316906323b872dd90606401602060405180830381600087803b1580156108b657600080fd5b505af11580156108ca573d6000803e3d6000fd5b505050506040513d601f19601f820116820180604052508101906108ee9190611887565b505b6002546040516306203eab60e11b8152336004820152602481018390526001600160a01b0390911690630c407d56906044015b600060405180830381600087803b15801561093d57600080fd5b505af1158015610951573d6000803e3d6000fd5b5050505050505050505050505050565b600f54336000908152600c602052604090205443916109809190611501565b11156109ce5760405162461bcd60e51b815260206004820152601960248201527f3c636f6c6c6563745f726564656d7074696f6e5f64656c61790000000000000060448201526064016104f8565b3360009081526008602052604081205481908190819015610a15573360009081526008602052604081208054919055600b54909250610a0d90836114b6565b600b55600193505b3360009081526009602052604090205415610a5457503360009081526009602052604081208054919055600a54610a4c90826114b6565b600a55600192505b8315610ae05760035460405163a9059cbb60e01b8152336004820152602481018490526001600160a01b039091169063a9059cbb90604401602060405180830381600087803b158015610aa657600080fd5b505af1158015610aba573d6000803e3d6000fd5b505050506040513d601f19601f82011682018060405250810190610ade9190611887565b505b8215610b6d576004805460405163a9059cbb60e01b81523392810192909252602482018390526001600160a01b03169063a9059cbb90604401602060405180830381600087803b158015610b3357600080fd5b505af1158015610b47573d6000803e3d6000fd5b505050506040513d601f19601f82011682018060405250810190610b6b9190611887565b505b50505050565b600e54600480546040516370a0823160e01b81523092810192909252600092839283928392839283928392916001600160a01b03909116906370a082319060240160206040518083038186803b158015610bcc57600080fd5b505afa158015610be0573d6000803e3d6000fd5b505050506040513d601f19601f82011682018060405250810190610c0491906118bf565b600a54600b54610c12611434565b601154949c939b509199509750955060ff808316955061010090920490911692509050565b6006546001600160a01b03163314610c7d5760405162461bcd60e51b815260206004820152600960248201526821747265617375727960b81b60448201526064016104f8565b60008111610cba5760405162461bcd60e51b815260206004820152600a6024820152691e995c9bd05b5bdd5b9d60b21b60448201526064016104f8565b6006546001600160a01b0316610d045760405162461bcd60e51b815260206004820152600f60248201526e696e76616c6964547265617375727960881b60448201526064016104f8565b600654600454610d21916001600160a01b03918216911683611621565b50565b6000546001600160a01b03163314610d3b57600080fd5b600f55565b6000546001600160a01b03163314610d5757600080fd5b600780546001600160a01b0319166001600160a01b0392909216919091179055565b6000546001600160a01b03163314610d9057600080fd5b6011805460ff19811660ff90911615179055565b600080610daf611434565b9050610e09620f42406106fc836106f6600d54600a610dce9190611a4a565b600a54600480546040516370a0823160e01b815230928101929092526106f692916001600160a01b03909116906370a0823190602401610622565b91505090565b60115462010000900460ff1615610e385760405162461bcd60e51b81526004016104f8906119ad565b601154610100900460ff1615610e865760405162461bcd60e51b815260206004820152601360248201527214995919595b5a5b99c81a5cc81c185d5cd959606a1b60448201526064016104f8565b601054336000908152600c60205260409020544391610ea59190611501565b1115610ee75760405162461bcd60e51b81526020600482015260116024820152703c726564656d7074696f6e5f64656c617960781b60448201526064016104f8565b6000806000600660009054906101000a90046001600160a01b03166001600160a01b031663370158ea6040518163ffffffff1660e01b81526004016101006040518083038186803b158015610f3b57600080fd5b505afa158015610f4f573d6000803e3d6000fd5b505050506040513d601f19601f82011682018060405250810190610f739190611902565b97505050955050509350506000610f88611434565b90506000610fa7610fa0620f42406106fc8b87611560565b89906114b6565b9050600080620f4240861015610feb576000610fd4610fcd620f42406106fc878b611560565b85906114b6565b9050610fe7886106fc83620f4240611560565b9150505b851561102e576000611017620f42406106fc896106f6600d54600a6110109190611a4a565b89906115df565b905061102a856106fc83620f4240611560565b9250505b600a54600480546040516370a0823160e01b8152309281019290925261106992916001600160a01b03909116906370a0823190602401610622565b8211156110ad5760405162461bcd60e51b81526020600482015260126024820152713c636f6c6c61746572616c426c616e61636560701b60448201526064016104f8565b8188111580156110bd5750808911155b6110f55760405162461bcd60e51b81526020600482015260096024820152683e736c69707061676560b81b60448201526064016104f8565b811561113657336000908152600960205260409020546111159083611501565b33600090815260096020526040902055600a546111329083611501565b600a555b801561117757336000908152600860205260409020546111569082611501565b33600090815260086020526040902055600b546111739082611501565b600b555b336000818152600c60205260409081902043905560025490516305060b2d60e11b81526004810192909252602482018c90526001600160a01b031690630a0c165a90604401600060405180830381600087803b1580156111d657600080fd5b505af11580156111ea573d6000803e3d6000fd5b50505050600081111561122e576003546040516306203eab60e11b8152306004820152602481018390526001600160a01b0390911690630c407d5690604401610923565b50505050505050505050565b600180600082825461124c91906119cf565b90915550506001546000546001600160a01b0316331461126b57600080fd5b60115462010000900460ff16156112945760405162461bcd60e51b81526004016104f8906119ad565b6011805462ff0000191662010000179055600a54600480546040516370a0823160e01b815230928101929092526000926112e29290916001600160a01b0316906370a0823190602401610622565b6004549091506112fc906001600160a01b03168483611621565b50600154811461130b57600080fd5b5050565b6000546001600160a01b0316331461132657600080fd5b6011805461ff001981166101009182900460ff1615909102179055565b6000546001600160a01b0316331461135a57600080fd5b600e55565b6000546001600160a01b0316331461137657600080fd5b6006546040516001600160a01b038084169216907febebcc22237fa047dcfebf54b185ec126c9b24d45f4bd2a18e4fa02e07308c4090600090a3600680546001600160a01b0319166001600160a01b0392909216919091179055565b6000546001600160a01b031633146113e957600080fd5b601055565b6000546001600160a01b0316331461140557600080fd5b6001600160a01b03811615610d2157600080546001600160a01b0383166001600160a01b031990911617905550565b60075460408051637eeda70360e01b815290516000926001600160a01b031691637eeda703916004808301926020929190829003018186803b15801561147957600080fd5b505afa15801561148d573d6000803e3d6000fd5b505050506040513d601f19601f820116820180604052508101906114b191906118bf565b905090565b60006114f883836040518060400160405280601e81526020017f536166654d6174683a207375627472616374696f6e206f766572666c6f770000815250611678565b90505b92915050565b60008061150e83856119cf565b9050838110156114f85760405162461bcd60e51b815260206004820152601b60248201527f536166654d6174683a206164646974696f6e206f766572666c6f77000000000060448201526064016104f8565b60008261156f575060006114fb565b600061157b8385611af2565b90508261158885836119e7565b146114f85760405162461bcd60e51b815260206004820152602160248201527f536166654d6174683a206d756c7469706c69636174696f6e206f766572666c6f6044820152607760f81b60648201526084016104f8565b60006114f883836040518060400160405280601a81526020017f536166654d6174683a206469766973696f6e206279207a65726f0000000000008152506116b2565b604080516001600160a01b038416602482015260448082018490528251808303909101815260649091019091526020810180516001600160e01b031663a9059cbb60e01b1790526116739084906116e0565b505050565b6000818484111561169c5760405162461bcd60e51b81526004016104f8919061197a565b5060006116a98486611b11565b95945050505050565b600081836116d35760405162461bcd60e51b81526004016104f8919061197a565b5060006116a984866119e7565b6001600160a01b0382163b6117375760405162461bcd60e51b815260206004820152601f60248201527f5361666545524332303a2063616c6c20746f206e6f6e2d636f6e74726163740060448201526064016104f8565b600080836001600160a01b031683604051611752919061195e565b6000604051808303816000865af19150503d806000811461178f576040519150601f19603f3d011682016040523d82523d6000602084013e611794565b606091505b5091509150816117e65760405162461bcd60e51b815260206004820181905260248201527f5361666545524332303a206c6f772d6c6576656c2063616c6c206661696c656460448201526064016104f8565b805115610b6d57808060200190518101906118019190611887565b610b6d5760405162461bcd60e51b815260206004820152602a60248201527f5361666545524332303a204552433230206f7065726174696f6e20646964206e6044820152691bdd081cdd58d8d9595960b21b60648201526084016104f8565b600060208284031215611871578081fd5b81356001600160a01b03811681146114f8578182fd5b600060208284031215611898578081fd5b815180151581146114f8578182fd5b6000602082840312156118b8578081fd5b5035919050565b6000602082840312156118d0578081fd5b5051919050565b6000806000606084860312156118eb578182fd5b505081359360208301359350604090920135919050565b600080600080600080600080610100898b03121561191e578384fd5b505086516020880151604089015160608a015160808b015160a08c015160c08d015160e0909d0151959e949d50929b919a50985090965094509092509050565b60008251611970818460208701611b28565b9190910192915050565b6020815260008251806020840152611999816040850160208701611b28565b601f01601f19169190910160400192915050565b6020808252600890820152671b5a59dc985d195960c21b604082015260600190565b600082198211156119e2576119e2611b54565b500190565b600082611a0257634e487b7160e01b81526012600452602481fd5b500490565b600181815b80851115611a42578160001904821115611a2857611a28611b54565b80851615611a3557918102915b93841c9390800290611a0c565b509250929050565b60006114f88383600082611a60575060016114fb565b81611a6d575060006114fb565b8160018114611a835760028114611a8d57611aa9565b60019150506114fb565b60ff841115611a9e57611a9e611b54565b50506001821b6114fb565b5060208310610133831016604e8410600b8410161715611acc575081810a6114fb565b611ad68383611a07565b8060001904821115611aea57611aea611b54565b029392505050565b6000816000190483118215151615611b0c57611b0c611b54565b500290565b600082821015611b2357611b23611b54565b500390565b60005b83811015611b43578181015183820152602001611b2b565b83811115610b6d5750506000910152565b634e487b7160e01b600052601160045260246000fdfea2646970667358221220526c778b9b754eccda32e74f1aa4c0b526b269adebf72a5619e825b82791e81c64736f6c63430008040033",
  "immutableReferences": {},
  "source": "// SPDX-License-Identifier: MIT\r\npragma solidity 0.8.4;\r\npragma experimental ABIEncoderV2;\r\n\r\nimport \"./libraries/SafeMath.sol\";\r\nimport \"./libraries/SafeERC20.sol\";\r\nimport \"./interfaces/IPool.sol\";\r\nimport \"./interfaces/IOracle.sol\";\r\nimport \"./interfaces/IEpoch.sol\";\r\nimport \"./interfaces/ITreasury.sol\";\r\nimport \"./interfaces/IDollar.sol\";\r\nimport \"./interfaces/IShare.sol\";\r\nimport \"./interfaces/IERC20.sol\";\r\nimport \"./utilityContracts/ERC20.sol\";\r\nimport \"./utilityContracts/ERC20Detailed.sol\";\r\nimport \"./utilityContracts/Context.sol\";\r\nimport \"./utilityContracts/Ownable.sol\";\r\nimport \"./utilityContracts/ReentrancyGuard.sol\";\r\n\r\ncontract Pool is Ownable, ReentrancyGuard, IPool {\r\n    using SafeMath for uint256;\r\n    using SafeERC20 for ERC20;\r\n\r\n    /* ========== STATE VARIABLES ========== */\r\n\r\n    address public dollar;\r\n    address public share;\r\n    address public collateral;\r\n    address public governanceToken;\r\n    address public treasury;\r\n    address public oracle; // oracle to get price of collateral\r\n\r\n    mapping(address => uint256) public redeem_share_balances;\r\n    mapping(address => uint256) public redeem_collateral_balances;\r\n\r\n    uint256 public unclaimed_pool_collateral;\r\n    uint256 public unclaimed_pool_share;\r\n\r\n    mapping(address => uint256) public last_redeemed;\r\n\r\n    // Constants for various precisions\r\n    uint256 private constant PRICE_PRECISION = 1e6;\r\n    uint256 private constant COLLATERAL_RATIO_PRECISION = 1e6;\r\n    uint256 private constant COLLATERAL_RATIO_MAX = 1e6;\r\n\r\n    // Number of decimals needed to get to 18\r\n    uint256 private missing_decimals;\r\n\r\n    // Pool_ceiling is the total units of collateral that a pool contract can hold\r\n    uint256 public pool_ceiling = 0;\r\n\r\n    // Number of blocks to wait before being able to collectRedemption()\r\n    uint256 public collect_redemption_delay = 1;\r\n\r\n    // Number of blocks to wait before being able to redem()\r\n    uint256 public redemption_delay = 30;//~1 min, when block time is around 2 sec\r\n\r\n    // AccessControl state variables\r\n    bool public mint_paused = false;\r\n    bool public redeem_paused = false;\r\n    bool public migrated = false;\r\n\r\n    /* ========== MODIFIERS ========== */\r\n\r\n    modifier notMigrated() {\r\n        require(!migrated, \"migrated\");\r\n        _;\r\n    }\r\n\r\n    modifier onlyTreasury() {\r\n        require(msg.sender == treasury, \"!treasury\");\r\n        _;\r\n    }\r\n\r\n    /* ========== CONSTRUCTOR ========== */\r\n\r\n    constructor(\r\n        address _dollar,\r\n        address _share,\r\n        address _collateral,\r\n        address _governanceToken,\r\n        address _treasury,\r\n        uint256 _pool_ceiling\r\n    ){\r\n        dollar = _dollar;\r\n        share = _share;\r\n        collateral = _collateral;\r\n        governanceToken = _governanceToken;\r\n        treasury = _treasury;\r\n        pool_ceiling = _pool_ceiling;\r\n        missing_decimals = uint256(18).sub(ERC20Detailed(_collateral).decimals());\r\n    }\r\n\r\n    /* ========== VIEWS ========== */\r\n\r\n    // Returns dollar value of collateral held in this pool\r\n    function collateralDollarBalance() external view override returns (uint256) {\r\n        uint256 collateral_usd_price = getCollateralPrice();\r\n        return (ERC20(collateral).balanceOf(address(this)).sub(unclaimed_pool_collateral)).mul(10**missing_decimals).mul(collateral_usd_price).div(PRICE_PRECISION);\r\n    }\r\n\r\n    function info()\r\n        external\r\n        view\r\n        returns (\r\n            uint256,\r\n            uint256,\r\n            uint256,\r\n            uint256,\r\n            uint256,\r\n            bool,\r\n            bool\r\n        )\r\n    {\r\n        return (\r\n            pool_ceiling, // Ceiling of pool - collateral-amount\r\n            ERC20(collateral).balanceOf(address(this)), // amount of COLLATERAL locked in this contract\r\n            unclaimed_pool_collateral, // unclaimed amount of COLLATERAL\r\n            unclaimed_pool_share, // unclaimed amount of SHARE\r\n            getCollateralPrice(), // collateral price\r\n            mint_paused,\r\n            redeem_paused\r\n        );\r\n    }\r\n\r\n    /* ========== PUBLIC FUNCTIONS ========== */\r\n\r\n    function getCollateralPrice() public view override returns (uint256) {\r\n        return IOracle(oracle).consult();\r\n    }\r\n\r\n    function getCollateralToken() external view override returns (address) {\r\n        return collateral;\r\n    }\r\n\r\n    function mint(\r\n        uint256 _collateral_amount,\r\n        uint256 _share_amount,\r\n        uint256 _dollar_out_min\r\n    ) external notMigrated {\r\n        require(mint_paused == false, \"Minting is paused\");\r\n        (, uint256 _share_price, , uint256 _target_collateral_ratio, , , uint256 _minting_fee, ) = ITreasury(treasury).info();\r\n        require(ERC20(collateral).balanceOf(address(this)).sub(unclaimed_pool_collateral).add(_collateral_amount) <= pool_ceiling, \">poolCeiling\");\r\n        uint256 _price_collateral = getCollateralPrice();\r\n        uint256 _total_dollar_value = 0;\r\n        uint256 _required_share_amount = 0;\r\n        if (_target_collateral_ratio > 0) {\r\n            uint256 _collateral_value = (_collateral_amount * (10**missing_decimals)).mul(_price_collateral).div(PRICE_PRECISION);\r\n            _total_dollar_value = _collateral_value.mul(COLLATERAL_RATIO_PRECISION).div(_target_collateral_ratio);\r\n            if (_target_collateral_ratio < COLLATERAL_RATIO_MAX) {\r\n                _required_share_amount = _total_dollar_value.sub(_collateral_value).mul(PRICE_PRECISION).div(_share_price);\r\n            }\r\n        } else {\r\n            _total_dollar_value = _share_amount.mul(_share_price).div(PRICE_PRECISION);\r\n            _required_share_amount = _share_amount;\r\n        }\r\n        uint256 _actual_dollar_amount = _total_dollar_value.sub((_total_dollar_value.mul(_minting_fee)).div(PRICE_PRECISION));\r\n        require(_dollar_out_min <= _actual_dollar_amount, \">slippage\");\r\n\r\n        if (_required_share_amount > 0) {\r\n            require(_required_share_amount <= _share_amount, \"<shareBalance\");\r\n            IShare(share).poolBurnFrom(msg.sender, _required_share_amount);\r\n        }\r\n        if (_collateral_amount > 0) {\r\n            ERC20(collateral).transferFrom(msg.sender, address(this), _collateral_amount);\r\n        }\r\n        IDollar(dollar).poolMint(msg.sender, _actual_dollar_amount);\r\n    }\r\n\r\n    function redeem(\r\n        uint256 _dollar_amount,\r\n        uint256 _share_out_min,\r\n        uint256 _collateral_out_min\r\n    ) external notMigrated {\r\n        require(redeem_paused == false, \"Redeeming is paused\");\r\n        require((last_redeemed[msg.sender].add(redemption_delay)) <= block.number, \"<redemption_delay\");\r\n        (, uint256 _share_price, , , uint256 _effective_collateral_ratio, , , uint256 _redemption_fee) = ITreasury(treasury).info();\r\n        uint256 _collateral_price = getCollateralPrice();\r\n        uint256 _dollar_amount_post_fee = _dollar_amount.sub((_dollar_amount.mul(_redemption_fee)).div(PRICE_PRECISION));\r\n        uint256 _collateral_output_amount = 0;\r\n        uint256 _share_output_amount = 0;\r\n\r\n        if (_effective_collateral_ratio < COLLATERAL_RATIO_MAX) {\r\n            uint256 _share_output_value = _dollar_amount_post_fee.sub(_dollar_amount_post_fee.mul(_effective_collateral_ratio).div(PRICE_PRECISION));\r\n            _share_output_amount = _share_output_value.mul(PRICE_PRECISION).div(_share_price);\r\n        }\r\n\r\n        if (_effective_collateral_ratio > 0) {\r\n            uint256 _collateral_output_value = _dollar_amount_post_fee.div(10**missing_decimals).mul(_effective_collateral_ratio).div(PRICE_PRECISION);\r\n            _collateral_output_amount = _collateral_output_value.mul(PRICE_PRECISION).div(_collateral_price);\r\n        }\r\n\r\n        // Check if collateral balance meets and meet output expectation\r\n        require(_collateral_output_amount <= ERC20(collateral).balanceOf(address(this)).sub(unclaimed_pool_collateral), \"<collateralBlanace\");\r\n        require(_collateral_out_min <= _collateral_output_amount && _share_out_min <= _share_output_amount, \">slippage\");\r\n\r\n        if (_collateral_output_amount > 0) {\r\n            redeem_collateral_balances[msg.sender] = redeem_collateral_balances[msg.sender].add(_collateral_output_amount);\r\n            unclaimed_pool_collateral = unclaimed_pool_collateral.add(_collateral_output_amount);\r\n        }\r\n\r\n        if (_share_output_amount > 0) {\r\n            redeem_share_balances[msg.sender] = redeem_share_balances[msg.sender].add(_share_output_amount);\r\n            unclaimed_pool_share = unclaimed_pool_share.add(_share_output_amount);\r\n        }\r\n\r\n        last_redeemed[msg.sender] = block.number;\r\n\r\n        // Move all external functions to the end\r\n        IDollar(dollar).poolBurnFrom(msg.sender, _dollar_amount);\r\n        if (_share_output_amount > 0) {\r\n            IShare(share).poolMint(address(this), _share_output_amount);\r\n        }\r\n    }\r\n\r\n    function collectRedemption() external {\r\n        // Redeem and Collect cannot happen in the same transaction to avoid flash loan attack\r\n        require((last_redeemed[msg.sender].add(collect_redemption_delay)) <= block.number, \"<collect_redemption_delay\");\r\n\r\n        bool _send_share = false;\r\n        bool _send_collateral = false;\r\n        uint256 _share_amount;\r\n        uint256 _collateral_amount;\r\n\r\n        // Use Checks-Effects-Interactions pattern\r\n        if (redeem_share_balances[msg.sender] > 0) {\r\n            _share_amount = redeem_share_balances[msg.sender];\r\n            redeem_share_balances[msg.sender] = 0;\r\n            unclaimed_pool_share = unclaimed_pool_share.sub(_share_amount);\r\n            _send_share = true;\r\n        }\r\n\r\n        if (redeem_collateral_balances[msg.sender] > 0) {\r\n            _collateral_amount = redeem_collateral_balances[msg.sender];\r\n            redeem_collateral_balances[msg.sender] = 0;\r\n            unclaimed_pool_collateral = unclaimed_pool_collateral.sub(_collateral_amount);\r\n            _send_collateral = true;\r\n        }\r\n\r\n        if (_send_share) {\r\n            ERC20(share).transfer(msg.sender, _share_amount);\r\n        }\r\n\r\n        if (_send_collateral) {\r\n            ERC20(collateral).transfer(msg.sender, _collateral_amount);\r\n        }\r\n    }\r\n\r\n    /* ========== RESTRICTED FUNCTIONS ========== */\r\n\r\n    // move collateral to new pool address\r\n    function migrate(address _new_pool) external override nonReentrant onlyOwner notMigrated {\r\n        migrated = true;\r\n        uint256 availableCollateral = ERC20(collateral).balanceOf(address(this)).sub(unclaimed_pool_collateral);\r\n        ERC20(collateral).safeTransfer(_new_pool, availableCollateral);\r\n    }\r\n\r\n    function toggleMinting() external onlyOwner {\r\n        mint_paused = !mint_paused;\r\n    }\r\n\r\n    function toggleRedeeming() external onlyOwner {\r\n        redeem_paused = !redeem_paused;\r\n    }\r\n\r\n    function setOracle(address _oracle) external onlyOwner {\r\n        oracle = _oracle;\r\n    }\r\n\r\n    function setPoolCeiling(uint256 _pool_ceiling) external onlyOwner {\r\n        pool_ceiling = _pool_ceiling;\r\n    }\r\n\r\n    function setCollectRedemptionDelay(uint256 _collect_redemption_delay) external onlyOwner {\r\n        collect_redemption_delay = _collect_redemption_delay;\r\n    }\r\n\r\n    function setRedemptionDelay(uint256 _redemption_delay) external onlyOwner {\r\n        redemption_delay = _redemption_delay;\r\n    }\r\n\r\n    function setTreasury(address _treasury) external onlyOwner {\r\n        emit TreasuryTransferred(treasury, _treasury);\r\n        treasury = _treasury;\r\n    }\r\n\r\n    // Transfer collateral to Treasury to execute strategies\r\n    function transferCollateralToTreasury(uint256 amount) external override onlyTreasury {\r\n        require(amount > 0, \"zeroAmount\");\r\n        require(treasury != address(0), \"invalidTreasury\");\r\n        ERC20(collateral).safeTransfer(treasury, amount);\r\n    }\r\n\r\n    // EVENTS\r\n    event TreasuryTransferred(address indexed previousTreasury, address indexed newTreasury);\r\n}\r\n",
  "sourcePath": "C:/Users/PaulMuller/Documents/projects/project_AGO/contracts/Pool.sol",
  "compiler": {
    "name": "solc",
    "version": "0.8.4+commit.c7e474f2.Emscripten.clang"
  },
  "schemaVersion": "3.4.1",
  "updatedAt": "2021-06-30T14:24:16.364Z",
  "devdoc": {
    "kind": "dev",
    "methods": {
      "transferOwnership(address)": {
        "details": "Allows the current owner to transfer control of the contract to a newOwner.",
        "params": {
          "newOwner": "The address to transfer ownership to."
        }
      }
    },
    "version": 1
  },
  "userdoc": {
    "kind": "user",
    "methods": {},
    "version": 1
  }
}