{
  "contractName": "Share",
  "abi": [
    {
      "inputs": [
        {
          "internalType": "string",
          "name": "_name",
          "type": "string"
        },
        {
          "internalType": "string",
          "name": "_symbol",
          "type": "string"
        },
        {
          "internalType": "address",
          "name": "_treasury",
          "type": "address"
        }
      ],
      "stateMutability": "nonpayable",
      "type": "constructor"
    },
    {
      "anonymous": false,
      "inputs": [
        {
          "indexed": true,
          "internalType": "address",
          "name": "owner",
          "type": "address"
        },
        {
          "indexed": true,
          "internalType": "address",
          "name": "spender",
          "type": "address"
        },
        {
          "indexed": false,
          "internalType": "uint256",
          "name": "value",
          "type": "uint256"
        }
      ],
      "name": "Approval",
      "type": "event"
    },
    {
      "anonymous": false,
      "inputs": [
        {
          "indexed": true,
          "internalType": "address",
          "name": "from",
          "type": "address"
        },
        {
          "indexed": true,
          "internalType": "address",
          "name": "to",
          "type": "address"
        },
        {
          "indexed": false,
          "internalType": "uint256",
          "name": "amount",
          "type": "uint256"
        }
      ],
      "name": "ShareBurned",
      "type": "event"
    },
    {
      "anonymous": false,
      "inputs": [
        {
          "indexed": true,
          "internalType": "address",
          "name": "from",
          "type": "address"
        },
        {
          "indexed": true,
          "internalType": "address",
          "name": "to",
          "type": "address"
        },
        {
          "indexed": false,
          "internalType": "uint256",
          "name": "amount",
          "type": "uint256"
        }
      ],
      "name": "ShareMinted",
      "type": "event"
    },
    {
      "anonymous": false,
      "inputs": [
        {
          "indexed": true,
          "internalType": "address",
          "name": "from",
          "type": "address"
        },
        {
          "indexed": true,
          "internalType": "address",
          "name": "to",
          "type": "address"
        },
        {
          "indexed": false,
          "internalType": "uint256",
          "name": "value",
          "type": "uint256"
        }
      ],
      "name": "Transfer",
      "type": "event"
    },
    {
      "inputs": [],
      "name": "COMMUNITY_REWARD_ALLOCATION",
      "outputs": [
        {
          "internalType": "uint256",
          "name": "",
          "type": "uint256"
        }
      ],
      "stateMutability": "view",
      "type": "function"
    },
    {
      "inputs": [],
      "name": "DEV_FUND_ALLOCATION",
      "outputs": [
        {
          "internalType": "uint256",
          "name": "",
          "type": "uint256"
        }
      ],
      "stateMutability": "view",
      "type": "function"
    },
    {
      "inputs": [],
      "name": "VESTING_DURATION",
      "outputs": [
        {
          "internalType": "uint256",
          "name": "",
          "type": "uint256"
        }
      ],
      "stateMutability": "view",
      "type": "function"
    },
    {
      "inputs": [
        {
          "internalType": "address",
          "name": "owner",
          "type": "address"
        },
        {
          "internalType": "address",
          "name": "spender",
          "type": "address"
        }
      ],
      "name": "allowance",
      "outputs": [
        {
          "internalType": "uint256",
          "name": "",
          "type": "uint256"
        }
      ],
      "stateMutability": "view",
      "type": "function"
    },
    {
      "inputs": [
        {
          "internalType": "address",
          "name": "spender",
          "type": "address"
        },
        {
          "internalType": "uint256",
          "name": "amount",
          "type": "uint256"
        }
      ],
      "name": "approve",
      "outputs": [
        {
          "internalType": "bool",
          "name": "",
          "type": "bool"
        }
      ],
      "stateMutability": "nonpayable",
      "type": "function"
    },
    {
      "inputs": [
        {
          "internalType": "address",
          "name": "account",
          "type": "address"
        }
      ],
      "name": "balanceOf",
      "outputs": [
        {
          "internalType": "uint256",
          "name": "",
          "type": "uint256"
        }
      ],
      "stateMutability": "view",
      "type": "function"
    },
    {
      "inputs": [
        {
          "internalType": "uint256",
          "name": "amount",
          "type": "uint256"
        }
      ],
      "name": "burn",
      "outputs": [],
      "stateMutability": "nonpayable",
      "type": "function"
    },
    {
      "inputs": [
        {
          "internalType": "address",
          "name": "account",
          "type": "address"
        },
        {
          "internalType": "uint256",
          "name": "amount",
          "type": "uint256"
        }
      ],
      "name": "burnFrom",
      "outputs": [],
      "stateMutability": "nonpayable",
      "type": "function"
    },
    {
      "inputs": [],
      "name": "communityRewardClaimed",
      "outputs": [
        {
          "internalType": "uint256",
          "name": "",
          "type": "uint256"
        }
      ],
      "stateMutability": "view",
      "type": "function"
    },
    {
      "inputs": [],
      "name": "decimals",
      "outputs": [
        {
          "internalType": "uint8",
          "name": "",
          "type": "uint8"
        }
      ],
      "stateMutability": "view",
      "type": "function"
    },
    {
      "inputs": [
        {
          "internalType": "address",
          "name": "spender",
          "type": "address"
        },
        {
          "internalType": "uint256",
          "name": "subtractedValue",
          "type": "uint256"
        }
      ],
      "name": "decreaseAllowance",
      "outputs": [
        {
          "internalType": "bool",
          "name": "",
          "type": "bool"
        }
      ],
      "stateMutability": "nonpayable",
      "type": "function"
    },
    {
      "inputs": [],
      "name": "devFund",
      "outputs": [
        {
          "internalType": "address",
          "name": "",
          "type": "address"
        }
      ],
      "stateMutability": "view",
      "type": "function"
    },
    {
      "inputs": [],
      "name": "devFundEmissionRate",
      "outputs": [
        {
          "internalType": "uint256",
          "name": "",
          "type": "uint256"
        }
      ],
      "stateMutability": "view",
      "type": "function"
    },
    {
      "inputs": [],
      "name": "devFundLastClaimed",
      "outputs": [
        {
          "internalType": "uint256",
          "name": "",
          "type": "uint256"
        }
      ],
      "stateMutability": "view",
      "type": "function"
    },
    {
      "inputs": [],
      "name": "endTime",
      "outputs": [
        {
          "internalType": "uint256",
          "name": "",
          "type": "uint256"
        }
      ],
      "stateMutability": "view",
      "type": "function"
    },
    {
      "inputs": [
        {
          "internalType": "address",
          "name": "spender",
          "type": "address"
        },
        {
          "internalType": "uint256",
          "name": "addedValue",
          "type": "uint256"
        }
      ],
      "name": "increaseAllowance",
      "outputs": [
        {
          "internalType": "bool",
          "name": "",
          "type": "bool"
        }
      ],
      "stateMutability": "nonpayable",
      "type": "function"
    },
    {
      "inputs": [],
      "name": "initialized",
      "outputs": [
        {
          "internalType": "bool",
          "name": "",
          "type": "bool"
        }
      ],
      "stateMutability": "view",
      "type": "function"
    },
    {
      "inputs": [],
      "name": "name",
      "outputs": [
        {
          "internalType": "string",
          "name": "",
          "type": "string"
        }
      ],
      "stateMutability": "view",
      "type": "function"
    },
    {
      "inputs": [],
      "name": "owner",
      "outputs": [
        {
          "internalType": "address",
          "name": "",
          "type": "address"
        }
      ],
      "stateMutability": "view",
      "type": "function"
    },
    {
      "inputs": [],
      "name": "rewardController",
      "outputs": [
        {
          "internalType": "address",
          "name": "",
          "type": "address"
        }
      ],
      "stateMutability": "view",
      "type": "function"
    },
    {
      "inputs": [],
      "name": "startTime",
      "outputs": [
        {
          "internalType": "uint256",
          "name": "",
          "type": "uint256"
        }
      ],
      "stateMutability": "view",
      "type": "function"
    },
    {
      "inputs": [],
      "name": "symbol",
      "outputs": [
        {
          "internalType": "string",
          "name": "",
          "type": "string"
        }
      ],
      "stateMutability": "view",
      "type": "function"
    },
    {
      "inputs": [],
      "name": "totalSupply",
      "outputs": [
        {
          "internalType": "uint256",
          "name": "",
          "type": "uint256"
        }
      ],
      "stateMutability": "view",
      "type": "function"
    },
    {
      "inputs": [
        {
          "internalType": "address",
          "name": "recipient",
          "type": "address"
        },
        {
          "internalType": "uint256",
          "name": "amount",
          "type": "uint256"
        }
      ],
      "name": "transfer",
      "outputs": [
        {
          "internalType": "bool",
          "name": "",
          "type": "bool"
        }
      ],
      "stateMutability": "nonpayable",
      "type": "function"
    },
    {
      "inputs": [
        {
          "internalType": "address",
          "name": "sender",
          "type": "address"
        },
        {
          "internalType": "address",
          "name": "recipient",
          "type": "address"
        },
        {
          "internalType": "uint256",
          "name": "amount",
          "type": "uint256"
        }
      ],
      "name": "transferFrom",
      "outputs": [
        {
          "internalType": "bool",
          "name": "",
          "type": "bool"
        }
      ],
      "stateMutability": "nonpayable",
      "type": "function"
    },
    {
      "inputs": [
        {
          "internalType": "address",
          "name": "newOwner",
          "type": "address"
        }
      ],
      "name": "transferOwnership",
      "outputs": [],
      "stateMutability": "nonpayable",
      "type": "function"
    },
    {
      "inputs": [],
      "name": "treasury",
      "outputs": [
        {
          "internalType": "address",
          "name": "",
          "type": "address"
        }
      ],
      "stateMutability": "view",
      "type": "function"
    },
    {
      "inputs": [
        {
          "internalType": "address",
          "name": "_devFund",
          "type": "address"
        },
        {
          "internalType": "address",
          "name": "_rewardController",
          "type": "address"
        },
        {
          "internalType": "uint256",
          "name": "_startTime",
          "type": "uint256"
        }
      ],
      "name": "initialize",
      "outputs": [],
      "stateMutability": "nonpayable",
      "type": "function"
    },
    {
      "inputs": [
        {
          "internalType": "uint256",
          "name": "amount",
          "type": "uint256"
        }
      ],
      "name": "claimCommunityRewards",
      "outputs": [],
      "stateMutability": "nonpayable",
      "type": "function"
    },
    {
      "inputs": [
        {
          "internalType": "address",
          "name": "_treasury",
          "type": "address"
        }
      ],
      "name": "setTreasuryAddress",
      "outputs": [],
      "stateMutability": "nonpayable",
      "type": "function"
    },
    {
      "inputs": [
        {
          "internalType": "address",
          "name": "_devFund",
          "type": "address"
        }
      ],
      "name": "setDevFund",
      "outputs": [],
      "stateMutability": "nonpayable",
      "type": "function"
    },
    {
      "inputs": [
        {
          "internalType": "address",
          "name": "m_address",
          "type": "address"
        },
        {
          "internalType": "uint256",
          "name": "m_amount",
          "type": "uint256"
        }
      ],
      "name": "poolMint",
      "outputs": [],
      "stateMutability": "nonpayable",
      "type": "function"
    },
    {
      "inputs": [
        {
          "internalType": "address",
          "name": "b_address",
          "type": "address"
        },
        {
          "internalType": "uint256",
          "name": "b_amount",
          "type": "uint256"
        }
      ],
      "name": "poolBurnFrom",
      "outputs": [],
      "stateMutability": "nonpayable",
      "type": "function"
    },
    {
      "inputs": [],
      "name": "unclaimedDevFund",
      "outputs": [
        {
          "internalType": "uint256",
          "name": "_pending",
          "type": "uint256"
        }
      ],
      "stateMutability": "view",
      "type": "function"
    },
    {
      "inputs": [],
      "name": "claimDevFundRewards",
      "outputs": [],
      "stateMutability": "nonpayable",
      "type": "function"
    }
  ],
  "bytecode": "0x60806040526200001462015180600062000290565b600c553480156200002457600080fd5b506040516200185c3803806200185c833981016040819052620000479162000207565b600380546001600160a01b0319163317905582516200006e906005906020860190620000ae565b50815162000084906004906020850190620000ae565b50600680546001600160a01b0319166001600160a01b039290921691909117905550620003049050565b828054620000bc90620002b1565b90600052602060002090601f016020900481019282620000e057600085556200012b565b82601f10620000fb57805160ff19168380011785556200012b565b828001600101855582156200012b579182015b828111156200012b5782518255916020019190600101906200010e565b50620001399291506200013d565b5090565b5b808211156200013957600081556001016200013e565b600082601f83011262000165578081fd5b81516001600160401b0380821115620001825762000182620002ee565b604051601f8301601f19908116603f01168101908282118183101715620001ad57620001ad620002ee565b81604052838152602092508683858801011115620001c9578485fd5b8491505b83821015620001ec5785820183015181830184015290820190620001cd565b83821115620001fd57848385830101525b9695505050505050565b6000806000606084860312156200021c578283fd5b83516001600160401b038082111562000233578485fd5b620002418783880162000154565b9450602086015191508082111562000257578384fd5b50620002668682870162000154565b604086015190935090506001600160a01b038116811462000285578182fd5b809150509250925092565b600082620002ac57634e487b7160e01b81526012600452602481fd5b500490565b600181811c90821680620002c657607f821691505b60208210811415620002e857634e487b7160e01b600052602260045260246000fd5b50919050565b634e487b7160e01b600052604160045260246000fd5b61154880620003146000396000f3fe608060405234801561001057600080fd5b50600436106102115760003560e01c80634cfc4d301161012557806395d89b41116100ad578063ae4db9191161007c578063ae4db91914610445578063b59c2e4114610458578063dd62ed3e14610461578063f25f8cb31461049a578063f2fde38b146104ac57600080fd5b806395d89b411461040e578063a457c2d714610416578063a790b5ca14610429578063a9059cbb1461043257600080fd5b806378e97925116100f457806378e97925146103c457806379cc6790146103cd57806384e09fd6146103e05780638cc5ce99146103e85780638da5cb5b146103fb57600080fd5b80634cfc4d301461036b57806361d027b3146103755780636605bfda1461038857806370a082311461039b57600080fd5b806318160ddd116101a85780633197cbb6116101775780633197cbb6146102fe578063395093511461030757806342966c681461031a5780634390d2a81461032d5780634744aa7f1461035857600080fd5b806318160ddd146102c157806323b872dd146102c95780632c07a624146102dc578063313ce567146102e457600080fd5b80630ba2f93e116101e45780630ba2f93e1461027f5780630c407d5614610287578063158ef93e1461029a5780631794bb3c146102ae57600080fd5b8063040173151461021657806306fdde0314610232578063095ea7b3146102475780630a0c165a1461026a575b600080fd5b61021f600b5481565b6040519081526020015b60405180910390f35b61023a6104bf565b6040516102299190611400565b61025a61025536600461139f565b61054d565b6040519015158152602001610229565b61027d61027836600461139f565b610564565b005b61027d610668565b61027d61029536600461139f565b6106f4565b60065461025a90600160a01b900460ff1681565b61027d6102bc366004611364565b6107eb565b60025461021f565b61025a6102d7366004611364565b610911565b61021f610973565b6102ec601281565b60405160ff9091168152602001610229565b61021f60085481565b61025a61031536600461139f565b6109bf565b61027d6103283660046113e8565b6109f5565b600954610340906001600160a01b031681565b6040516001600160a01b039091168152602001610229565b61027d6103663660046113e8565b6109ff565b61021f6201518081565b600654610340906001600160a01b031681565b61027d610396366004611318565b610b78565b61021f6103a9366004611318565b6001600160a01b031660009081526020819052604090205490565b61021f60075481565b61027d6103db36600461139f565b610bb1565b61021f600081565b600a54610340906001600160a01b031681565b600354610340906001600160a01b031681565b61023a610bde565b61025a61042436600461139f565b610beb565b61021f600d5481565b61025a61044036600461139f565b610c21565b61027d610453366004611318565b610c2e565b61021f600c5481565b61021f61046f366004611332565b6001600160a01b03918216600090815260016020908152604080832093909416825291909152205490565b61021f6a422ca8b0a00a425000000081565b61027d6104ba366004611318565b610cd2565b600580546104cc906114c1565b80601f01602080910402602001604051908101604052809291908181526020018280546104f8906114c1565b80156105455780601f1061051a57610100808354040283529160200191610545565b820191906000526020600020905b81548152906001019060200180831161052857829003601f168201915b505050505081565b600061055a338484610d18565b5060015b92915050565b600654604051631246dbf560e01b81523360048201526001600160a01b0390911690631246dbf59060240160206040518083038186803b1580156105a757600080fd5b505afa1580156105bb573d6000803e3d6000fd5b505050506040513d601f19601f820116820180604052508101906105df91906113c8565b6106195760405162461bcd60e51b815260206004820152600660248201526521706f6f6c7360d01b60448201526064015b60405180910390fd5b6106238282610e3d565b60405181815230906001600160a01b038416907fdf05d6cb804e48c3130d5f7811e55947769ccdecf499faea489170f17df227cf906020015b60405180910390a35050565b6009546001600160a01b031633146106ab5760405162461bcd60e51b81526004016106109060208082526004908201526310b232bb60e11b604082015260600190565b60006106b5610973565b90506000811180156106d157506009546001600160a01b031615155b156106f1576009546106ec906001600160a01b031682610e71565b42600b555b50565b600654604051631246dbf560e01b81523360048201526001600160a01b0390911690631246dbf59060240160206040518083038186803b15801561073757600080fd5b505afa15801561074b573d6000803e3d6000fd5b505050506040513d601f19601f8201168201806040525081019061076f91906113c8565b6107a45760405162461bcd60e51b815260206004820152600660248201526521706f6f6c7360d01b6044820152606401610610565b6107ae8282610e71565b6040518181526001600160a01b0383169030907ff4d2b66b63836b39ffec28f88533e0f50c9136ab7d8d9b9976f93d3880e802059060200161065c565b6003546001600160a01b0316331461080257600080fd5b600654600160a01b900460ff16156108515760405162461bcd60e51b8152602060048201526012602482015271185b1c9958591e525b9a5d1a585b1a5e995960721b6044820152606401610610565b6001600160a01b03821661089b5760405162461bcd60e51b815260206004820152601160248201527010b932bbb0b93221b7b73a3937b63632b960791b6044820152606401610610565b6006805460ff60a01b1916600160a01b179055600980546001600160a01b038086166001600160a01b031992831617909255600a80549285169290911691909117905560078190556108f06201518082611453565b600855600b81905561090c3369010f0cf064dd59200000610e71565b505050565b600061091e848484610f48565b61096984336001600160a01b038716600090815260016020526040812061096491879190335b6001600160a01b03168152602081019190915260400160002054906110b1565b610d18565b5060019392505050565b600854600090429081111561098757506008545b80600b541061099857600091505090565b6109b9600c546109b3600b54846110b190919063ffffffff16565b906110fa565b91505090565b3360008181526001602090815260408083206001600160a01b0387168452909152812054909161055a9185906109649086611179565b6106f133826111d8565b6003546001600160a01b03163314610a1657600080fd5b60008111610a565760405162461bcd60e51b815260206004820152600d60248201526c1a5b9d985b1a59105b5bdd5b9d609a1b6044820152606401610610565b600654600160a01b900460ff16610a9e5760405162461bcd60e51b815260206004820152600c60248201526b085a5b9a5d1a585b1a5e995960a21b6044820152606401610610565b600a546001600160a01b0316610aea5760405162461bcd60e51b815260206004820152601160248201527010b932bbb0b93221b7b73a3937b63632b960791b6044820152606401610610565b6000610b0c600d546a422ca8b0a00a42500000006110b190919063ffffffff16565b905080821115610b4e5760405162461bcd60e51b815260206004820152600d60248201526c6578636565645265776172647360981b6044820152606401610610565b600d54610b5b9083611179565b600d55600a54610b74906001600160a01b031683610e71565b5050565b6003546001600160a01b03163314610b8f57600080fd5b600680546001600160a01b0319166001600160a01b0392909216919091179055565b6000610bc782610bc1853361046f565b906110b1565b9050610bd4833383610d18565b61090c83836111d8565b600480546104cc906114c1565b3360008181526001602090815260408083206001600160a01b0387168452909152812054909161055a91859061096490866110b1565b600061055a338484610f48565b6009546001600160a01b03163314610c715760405162461bcd60e51b81526004016106109060208082526004908201526310b232bb60e11b604082015260600190565b6001600160a01b038116610cb05760405162461bcd60e51b8152600401610610906020808252600490820152637a65726f60e01b604082015260600190565b600980546001600160a01b0319166001600160a01b0392909216919091179055565b6003546001600160a01b03163314610ce957600080fd5b6001600160a01b038116156106f157600380546001600160a01b0383166001600160a01b031990911617905550565b6001600160a01b038316610d7a5760405162461bcd60e51b8152602060048201526024808201527f45524332303a20617070726f76652066726f6d20746865207a65726f206164646044820152637265737360e01b6064820152608401610610565b6001600160a01b038216610ddb5760405162461bcd60e51b815260206004820152602260248201527f45524332303a20617070726f766520746f20746865207a65726f206164647265604482015261737360f01b6064820152608401610610565b6001600160a01b0383811660008181526001602090815260408083209487168084529482529182902085905590518481527f8c5be1e5ebec7d5bd14f71427d1e84f3dd0314c0f7b2291e5b200ac8c7c3b92591015b60405180910390a3505050565b610e4782826111d8565b610b7482336001600160a01b03851660009081526001602052604081206109649186919033610944565b6001600160a01b038216610ec75760405162461bcd60e51b815260206004820152601f60248201527f45524332303a206d696e7420746f20746865207a65726f2061646472657373006044820152606401610610565b600254610ed49082611179565b6002556001600160a01b038216600090815260208190526040902054610efa9082611179565b6001600160a01b038316600081815260208181526040808320949094559251848152919290917fddf252ad1be2c89b69c2b068fc378daa952ba7f163c4a11628f55a4df523b3ef910161065c565b6001600160a01b038316610fac5760405162461bcd60e51b815260206004820152602560248201527f45524332303a207472616e736665722066726f6d20746865207a65726f206164604482015264647265737360d81b6064820152608401610610565b6001600160a01b03821661100e5760405162461bcd60e51b815260206004820152602360248201527f45524332303a207472616e7366657220746f20746865207a65726f206164647260448201526265737360e81b6064820152608401610610565b6001600160a01b03831660009081526020819052604090205461103190826110b1565b6001600160a01b0380851660009081526020819052604080822093909355908416815220546110609082611179565b6001600160a01b038381166000818152602081815260409182902094909455518481529092918616917fddf252ad1be2c89b69c2b068fc378daa952ba7f163c4a11628f55a4df523b3ef9101610e30565b60006110f383836040518060400160405280601e81526020017f536166654d6174683a207375627472616374696f6e206f766572666c6f7700008152506112c2565b9392505050565b6000826111095750600061055e565b6000611115838561148b565b905082611122858361146b565b146110f35760405162461bcd60e51b815260206004820152602160248201527f536166654d6174683a206d756c7469706c69636174696f6e206f766572666c6f6044820152607760f81b6064820152608401610610565b6000806111868385611453565b9050838110156110f35760405162461bcd60e51b815260206004820152601b60248201527f536166654d6174683a206164646974696f6e206f766572666c6f7700000000006044820152606401610610565b6001600160a01b0382166112385760405162461bcd60e51b815260206004820152602160248201527f45524332303a206275726e2066726f6d20746865207a65726f206164647265736044820152607360f81b6064820152608401610610565b6001600160a01b03821660009081526020819052604090205461125b90826110b1565b6001600160a01b03831660009081526020819052604090205560025461128190826110b1565b6002556040518181526000906001600160a01b038416907fddf252ad1be2c89b69c2b068fc378daa952ba7f163c4a11628f55a4df523b3ef9060200161065c565b600081848411156112e65760405162461bcd60e51b81526004016106109190611400565b5060006112f384866114aa565b95945050505050565b80356001600160a01b038116811461131357600080fd5b919050565b600060208284031215611329578081fd5b6110f3826112fc565b60008060408385031215611344578081fd5b61134d836112fc565b915061135b602084016112fc565b90509250929050565b600080600060608486031215611378578081fd5b611381846112fc565b925061138f602085016112fc565b9150604084013590509250925092565b600080604083850312156113b1578182fd5b6113ba836112fc565b946020939093013593505050565b6000602082840312156113d9578081fd5b815180151581146110f3578182fd5b6000602082840312156113f9578081fd5b5035919050565b6000602080835283518082850152825b8181101561142c57858101830151858201604001528201611410565b8181111561143d5783604083870101525b50601f01601f1916929092016040019392505050565b60008219821115611466576114666114fc565b500190565b60008261148657634e487b7160e01b81526012600452602481fd5b500490565b60008160001904831182151516156114a5576114a56114fc565b500290565b6000828210156114bc576114bc6114fc565b500390565b600181811c908216806114d557607f821691505b602082108114156114f657634e487b7160e01b600052602260045260246000fd5b50919050565b634e487b7160e01b600052601160045260246000fdfea26469706673582212205106b2cd99fd3a6c805ea94aa104f6ad7e7c65abf58d3d12a751187a6112993664736f6c63430008040033",
  "immutableReferences": {},
  "source": "// SPDX-License-Identifier: MIT\r\npragma solidity 0.8.4;\r\npragma experimental ABIEncoderV2;\r\n\r\nimport \"./libraries/SafeMath.sol\";\r\nimport \"./interfaces/IEpoch.sol\";\r\nimport \"./interfaces/ITreasury.sol\";\r\nimport \"./interfaces/IERC20.sol\";\r\nimport \"./utilityContracts/Context.sol\";\r\nimport \"./utilityContracts/Ownable.sol\";\r\nimport \"./utilityContracts/ERC20Custom.sol\";\r\n\r\ncontract Share is ERC20Custom, Ownable {\r\n    using SafeMath for uint256;\r\n\r\n    /* ========== STATE VARIABLES ========== */\r\n\r\n    // ERC20 - Token\r\n    string public  symbol;\r\n    string public  name;\r\n    uint8 public constant  decimals = 18;\r\n\r\n    // CONTRACTS\r\n    address public treasury;\r\n\r\n    // FLAGS\r\n    bool public initialized;\r\n\r\n    // DISTRIBUTION\r\n    uint256 public constant COMMUNITY_REWARD_ALLOCATION = 80000000 ether; // 80M\r\n    uint256 public constant DEV_FUND_ALLOCATION = 0 ether; // 0\r\n    uint256 public constant VESTING_DURATION = 1 days;//365 days; // 12 months\r\n    uint256 public startTime; // Start time of vesting duration\r\n    uint256 public endTime; // End of vesting duration\r\n    address public devFund;\r\n    address public rewardController; // Holding SHARE tokens to distribute into Liquiditiy Mining Pools\r\n    uint256 public devFundLastClaimed;\r\n    uint256 public devFundEmissionRate = DEV_FUND_ALLOCATION / VESTING_DURATION;\r\n    uint256 public communityRewardClaimed;\r\n\r\n    /* ========== MODIFIERS ========== */\r\n\r\n    modifier onlyPools() {\r\n        require(ITreasury(treasury).hasPool(msg.sender), \"!pools\");\r\n        _;\r\n    }\r\n\r\n    /* ========== CONSTRUCTOR ========== */\r\n\r\n    constructor(string memory _name, string memory _symbol,  address _treasury){\r\n        name = _name;\r\n        symbol = _symbol;\r\n        treasury = _treasury;\r\n    }\r\n\r\n    function initialize(\r\n        address _devFund,\r\n        address _rewardController,\r\n        uint256 _startTime\r\n    ) external onlyOwner {\r\n        require(!initialized, \"alreadyInitialized\");\r\n        require(_rewardController != address(0), \"!rewardController\");\r\n        initialized = true;\r\n        devFund = _devFund;\r\n        rewardController = _rewardController;\r\n        startTime = _startTime;\r\n        endTime = _startTime + VESTING_DURATION;\r\n        devFundLastClaimed = _startTime;\r\n\r\n        _mint(msg.sender, 5000 ether);\r\n    }\r\n\r\n    function claimCommunityRewards(uint256 amount) external onlyOwner {\r\n        require(amount > 0, \"invalidAmount\");\r\n        require(initialized, \"!initialized\");\r\n        require(rewardController != address(0), \"!rewardController\");\r\n        uint256 _remainingRewards = COMMUNITY_REWARD_ALLOCATION.sub(communityRewardClaimed);\r\n        require(amount <= _remainingRewards, \"exceedRewards\");\r\n        communityRewardClaimed = communityRewardClaimed.add(amount);\r\n        _mint(rewardController, amount);\r\n    }\r\n\r\n    /* ========== RESTRICTED FUNCTIONS ========== */\r\n\r\n    function setTreasuryAddress(address _treasury) external onlyOwner {\r\n        treasury = _treasury;\r\n    }\r\n\r\n    function setDevFund(address _devFund) external {\r\n        require(msg.sender == devFund, \"!dev\");\r\n        require(_devFund != address(0), \"zero\");\r\n        devFund = _devFund;\r\n    }\r\n\r\n    // This function is what other Pools will call to mint new SHARE\r\n    function poolMint(address m_address, uint256 m_amount) external onlyPools {\r\n        super._mint(m_address, m_amount);\r\n        emit ShareMinted(address(this), m_address, m_amount);\r\n    }\r\n\r\n    // This function is what other pools will call to burn SHARE\r\n    function poolBurnFrom(address b_address, uint256 b_amount) external onlyPools {\r\n        super._burnFrom(b_address, b_amount);\r\n        emit ShareBurned(b_address, address(this), b_amount);\r\n    }\r\n\r\n    function unclaimedDevFund() public view returns (uint256 _pending) {\r\n        uint256 _now = block.timestamp;\r\n        if (_now > endTime) _now = endTime;\r\n        if (devFundLastClaimed >= _now) return 0;\r\n        _pending = _now.sub(devFundLastClaimed).mul(devFundEmissionRate);\r\n    }\r\n\r\n    function claimDevFundRewards() external {\r\n        require(msg.sender == devFund, \"!dev\");\r\n        uint256 _pending = unclaimedDevFund();\r\n        if (_pending > 0 && devFund != address(0)) {\r\n            _mint(devFund, _pending);\r\n            devFundLastClaimed = block.timestamp;\r\n        }\r\n    }\r\n\r\n    /* ========== EVENTS ========== */\r\n\r\n    // Track Share burned\r\n    event ShareBurned(address indexed from, address indexed to, uint256 amount);\r\n\r\n    // Track Share minted\r\n    event ShareMinted(address indexed from, address indexed to, uint256 amount);\r\n}\r\n",
  "sourcePath": "C:/Users/PaulMuller/Documents/projects/project_AGO/contracts/Share.sol",
  "compiler": {
    "name": "solc",
    "version": "0.8.4+commit.c7e474f2.Emscripten.clang"
  },
  "schemaVersion": "3.4.1",
  "updatedAt": "2021-06-23T13:59:52.773Z",
  "devdoc": {
    "kind": "dev",
    "methods": {
      "transferOwnership(address)": {
        "details": "Allows the current owner to transfer control of the contract to a newOwner.",
        "params": {
          "newOwner": "The address to transfer ownership to."
        }
      }
    },
    "version": 1
  },
  "userdoc": {
    "kind": "user",
    "methods": {},
    "version": 1
  }
}