{
  "contractName": "ShareWCoinPairOracle",
  "abi": [
    {
      "inputs": [
        {
          "internalType": "address",
          "name": "pairAddress",
          "type": "address"
        }
      ],
      "stateMutability": "nonpayable",
      "type": "constructor"
    },
    {
      "anonymous": false,
      "inputs": [
        {
          "indexed": true,
          "internalType": "address",
          "name": "previousOperator",
          "type": "address"
        },
        {
          "indexed": true,
          "internalType": "address",
          "name": "newOperator",
          "type": "address"
        }
      ],
      "name": "OperatorTransferred",
      "type": "event"
    },
    {
      "anonymous": false,
      "inputs": [
        {
          "indexed": true,
          "internalType": "address",
          "name": "previousOwner",
          "type": "address"
        },
        {
          "indexed": true,
          "internalType": "address",
          "name": "newOwner",
          "type": "address"
        }
      ],
      "name": "OwnershipTransferred",
      "type": "event"
    },
    {
      "inputs": [],
      "name": "PERIOD",
      "outputs": [
        {
          "internalType": "uint256",
          "name": "",
          "type": "uint256"
        }
      ],
      "stateMutability": "view",
      "type": "function"
    },
    {
      "inputs": [],
      "name": "blockTimestampLast",
      "outputs": [
        {
          "internalType": "uint32",
          "name": "",
          "type": "uint32"
        }
      ],
      "stateMutability": "view",
      "type": "function"
    },
    {
      "inputs": [],
      "name": "isOperator",
      "outputs": [
        {
          "internalType": "bool",
          "name": "",
          "type": "bool"
        }
      ],
      "stateMutability": "view",
      "type": "function"
    },
    {
      "inputs": [],
      "name": "operator",
      "outputs": [
        {
          "internalType": "address",
          "name": "",
          "type": "address"
        }
      ],
      "stateMutability": "view",
      "type": "function"
    },
    {
      "inputs": [],
      "name": "owner",
      "outputs": [
        {
          "internalType": "address",
          "name": "",
          "type": "address"
        }
      ],
      "stateMutability": "view",
      "type": "function"
    },
    {
      "inputs": [],
      "name": "pair",
      "outputs": [
        {
          "internalType": "contract IUniswapLP",
          "name": "",
          "type": "address"
        }
      ],
      "stateMutability": "view",
      "type": "function"
    },
    {
      "inputs": [],
      "name": "price0Average",
      "outputs": [
        {
          "internalType": "uint224",
          "name": "_x",
          "type": "uint224"
        }
      ],
      "stateMutability": "view",
      "type": "function"
    },
    {
      "inputs": [],
      "name": "price0CumulativeLast",
      "outputs": [
        {
          "internalType": "uint256",
          "name": "",
          "type": "uint256"
        }
      ],
      "stateMutability": "view",
      "type": "function"
    },
    {
      "inputs": [],
      "name": "price1Average",
      "outputs": [
        {
          "internalType": "uint224",
          "name": "_x",
          "type": "uint224"
        }
      ],
      "stateMutability": "view",
      "type": "function"
    },
    {
      "inputs": [],
      "name": "price1CumulativeLast",
      "outputs": [
        {
          "internalType": "uint256",
          "name": "",
          "type": "uint256"
        }
      ],
      "stateMutability": "view",
      "type": "function"
    },
    {
      "inputs": [],
      "name": "renounceOwnership",
      "outputs": [],
      "stateMutability": "nonpayable",
      "type": "function"
    },
    {
      "inputs": [],
      "name": "token0",
      "outputs": [
        {
          "internalType": "address",
          "name": "",
          "type": "address"
        }
      ],
      "stateMutability": "view",
      "type": "function"
    },
    {
      "inputs": [],
      "name": "token1",
      "outputs": [
        {
          "internalType": "address",
          "name": "",
          "type": "address"
        }
      ],
      "stateMutability": "view",
      "type": "function"
    },
    {
      "inputs": [
        {
          "internalType": "address",
          "name": "newOperator_",
          "type": "address"
        }
      ],
      "name": "transferOperator",
      "outputs": [],
      "stateMutability": "nonpayable",
      "type": "function"
    },
    {
      "inputs": [
        {
          "internalType": "address",
          "name": "newOwner",
          "type": "address"
        }
      ],
      "name": "transferOwnership",
      "outputs": [],
      "stateMutability": "nonpayable",
      "type": "function"
    },
    {
      "inputs": [
        {
          "internalType": "uint256",
          "name": "_period",
          "type": "uint256"
        }
      ],
      "name": "setPeriod",
      "outputs": [],
      "stateMutability": "nonpayable",
      "type": "function"
    },
    {
      "inputs": [],
      "name": "update",
      "outputs": [],
      "stateMutability": "nonpayable",
      "type": "function"
    },
    {
      "inputs": [
        {
          "internalType": "address",
          "name": "token",
          "type": "address"
        },
        {
          "internalType": "uint256",
          "name": "amountIn",
          "type": "uint256"
        }
      ],
      "name": "consult",
      "outputs": [
        {
          "internalType": "uint256",
          "name": "amountOut",
          "type": "uint256"
        }
      ],
      "stateMutability": "view",
      "type": "function"
    }
  ],
  "bytecode": "0x60e06040526102586002553480156200001757600080fd5b5060405162001317380380620013178339810160408190526200003a9162000425565b600080546001600160a01b031916339081178255604051909182917f8be0079c531659141344cd1fd0a4f28419497f9722a3daafe3b4186f6b6457e0908290a350600180546001600160a01b031916339081179091556040516000907f74da04524d50c64947f5dd5381ef1a4dca5cba8ed1d816243f9e48aa0b5617ed908290a36000819050806001600160a01b03166080816001600160a01b031660601b81525050806001600160a01b0316630dfe16816040518163ffffffff1660e01b815260040160206040518083038186803b1580156200011757600080fd5b505afa1580156200012c573d6000803e3d6000fd5b505050506040513d601f19601f8201168201806040525081019062000152919062000425565b6001600160a01b031660a0816001600160a01b031660601b81525050806001600160a01b031663d21220a76040518163ffffffff1660e01b815260040160206040518083038186803b158015620001a857600080fd5b505afa158015620001bd573d6000803e3d6000fd5b505050506040513d601f19601f82011682018060405250810190620001e3919062000425565b6001600160a01b031660c0816001600160a01b031660601b81525050806001600160a01b0316635909c0d56040518163ffffffff1660e01b815260040160206040518083038186803b1580156200023957600080fd5b505afa1580156200024e573d6000803e3d6000fd5b505050506040513d601f19601f82011682018060405250810190620002749190620004a9565b600381905550806001600160a01b0316635a3d54936040518163ffffffff1660e01b815260040160206040518083038186803b158015620002b457600080fd5b505afa158015620002c9573d6000803e3d6000fd5b505050506040513d601f19601f82011682018060405250810190620002ef9190620004a9565b600481905550600080826001600160a01b0316630902f1ac6040518163ffffffff1660e01b815260040160606040518083038186803b1580156200033257600080fd5b505afa15801562000347573d6000803e3d6000fd5b505050506040513d601f19601f820116820180604052508101906200036d919062000455565b6005805463ffffffff191663ffffffff9290921691909117905590925090506001600160701b03821615801590620003ad57506001600160701b03811615155b620003fe5760405162461bcd60e51b815260206004820152601760248201527f506169724f7261636c653a204e4f5f5245534552564553000000000000000000604482015260640160405180910390fd5b50505050620004c2565b80516001600160701b03811681146200042057600080fd5b919050565b60006020828403121562000437578081fd5b81516001600160a01b03811681146200044e578182fd5b9392505050565b6000806000606084860312156200046a578182fd5b620004758462000408565b9250620004856020850162000408565b9150604084015163ffffffff811681146200049e578182fd5b809150509250925092565b600060208284031215620004bb578081fd5b5051919050565b60805160601c60a05160601c60c05160601c610e0762000510600039600081816102a201526103f9015260008181610120015261038101526000818161024d015261052f0152610e076000f3fe608060405234801561001057600080fd5b50600436106101165760003560e01c8063715018a6116100a2578063a8aa1b3111610071578063a8aa1b3114610248578063b4d1d7951461026f578063c5700a0214610278578063d21220a71461029d578063f2fde38b146102c457600080fd5b8063715018a6146102145780638da5cb5b1461021c578063a2e620451461022d578063a6bb45391461023557600080fd5b80634456eda2116100e95780634456eda2146101a8578063570ca735146101c65780635909c0d5146101d75780635a3d5493146101e05780635e6aaf2c146101e957600080fd5b80630dfe16811461011b5780630f3a9f651461015f57806329605e77146101745780633ddac95314610187575b600080fd5b6101427f000000000000000000000000000000000000000000000000000000000000000081565b6040516001600160a01b0390911681526020015b60405180910390f35b61017261016d366004610c7f565b6102d7565b005b610172610182366004610be7565b610347565b61019a610195366004610c08565b61037d565b604051908152602001610156565b6001546001600160a01b031633146040519015158152602001610156565b6001546001600160a01b0316610142565b61019a60035481565b61019a60045481565b6007546101fc906001600160e01b031681565b6040516001600160e01b039091168152602001610156565b6101726104b1565b6000546001600160a01b0316610142565b610172610525565b6006546101fc906001600160e01b031681565b6101427f000000000000000000000000000000000000000000000000000000000000000081565b61019a60025481565b6005546102889063ffffffff1681565b60405163ffffffff9091168152602001610156565b6101427f000000000000000000000000000000000000000000000000000000000000000081565b6101726102d2366004610be7565b610690565b6001546001600160a01b031633146103425760405162461bcd60e51b8152602060048201526024808201527f6f70657261746f723a2063616c6c6572206973206e6f7420746865206f70657260448201526330ba37b960e11b60648201526084015b60405180910390fd5b600255565b6000546001600160a01b031633146103715760405162461bcd60e51b815260040161033990610caf565b61037a8161077a565b50565b60007f00000000000000000000000000000000000000000000000000000000000000006001600160a01b0316836001600160a01b031614156103f75760408051602081019091526006546001600160e01b031681526103e7906103e0908461083e565b5160701c90565b6001600160901b031690506104ab565b7f00000000000000000000000000000000000000000000000000000000000000006001600160a01b0316836001600160a01b0316146104785760405162461bcd60e51b815260206004820152601960248201527f506169724f7261636c653a20494e56414c49445f544f4b454e000000000000006044820152606401610339565b60408051602081019091526007546001600160e01b0316815261049f906103e0908461083e565b6001600160901b031690505b92915050565b6000546001600160a01b031633146104db5760405162461bcd60e51b815260040161033990610caf565b600080546040516001600160a01b03909116907f8be0079c531659141344cd1fd0a4f28419497f9722a3daafe3b4186f6b6457e0908390a3600080546001600160a01b0319169055565b60008060006105537f00000000000000000000000000000000000000000000000000000000000000006108e8565b60055492955090935091506000906105719063ffffffff1683610d6c565b90506002548163ffffffff1610156105cb5760405162461bcd60e51b815260206004820152601e60248201527f506169724f7261636c653a20504552494f445f4e4f545f454c415053454400006044820152606401610339565b60405180602001604052808263ffffffff16600354876105eb9190610d55565b6105f59190610d22565b6001600160e01b039081169091529051600680546001600160e01b031916919092161790556040805160208101909152600454819063ffffffff84169061063c9087610d55565b6106469190610d22565b6001600160e01b039081169091529051600780546001600160e01b03191691909216179055506003929092556004556005805463ffffffff191663ffffffff909216919091179055565b6000546001600160a01b031633146106ba5760405162461bcd60e51b815260040161033990610caf565b6001600160a01b03811661071f5760405162461bcd60e51b815260206004820152602660248201527f4f776e61626c653a206e6577206f776e657220697320746865207a65726f206160448201526564647265737360d01b6064820152608401610339565b600080546040516001600160a01b03808516939216917f8be0079c531659141344cd1fd0a4f28419497f9722a3daafe3b4186f6b6457e091a3600080546001600160a01b0319166001600160a01b0392909216919091179055565b6001600160a01b0381166107e65760405162461bcd60e51b815260206004820152602d60248201527f6f70657261746f723a207a65726f206164647265737320676976656e20666f7260448201526c103732bb9037b832b930ba37b960991b6064820152608401610339565b6040516001600160a01b038216906000907f74da04524d50c64947f5dd5381ef1a4dca5cba8ed1d816243f9e48aa0b5617ed908290a3600180546001600160a01b0319166001600160a01b0392909216919091179055565b604080516020810190915260008152600082158061087b575083516001600160e01b03168361086d8183610d36565b92506108799083610d22565b145b6108d35760405162461bcd60e51b815260206004820152602360248201527f4669786564506f696e743a204d554c5449504c49434154494f4e5f4f564552466044820152624c4f5760e81b6064820152608401610339565b60408051602081019091529081529392505050565b60008060006108f5610aee565b90506000849050806001600160a01b0316635909c0d56040518163ffffffff1660e01b815260040160206040518083038186803b15801561093557600080fd5b505afa158015610949573d6000803e3d6000fd5b505050506040513d601f19601f8201168201806040525081019061096d9190610c97565b9350806001600160a01b0316635a3d54936040518163ffffffff1660e01b815260040160206040518083038186803b1580156109a857600080fd5b505afa1580156109bc573d6000803e3d6000fd5b505050506040513d601f19601f820116820180604052508101906109e09190610c97565b92506000806000836001600160a01b0316630902f1ac6040518163ffffffff1660e01b815260040160606040518083038186803b158015610a2057600080fd5b505afa158015610a34573d6000803e3d6000fd5b505050506040513d601f19601f82011682018060405250810190610a589190610c31565b9250925092508463ffffffff168163ffffffff1614610ae3576000610a7d8287610d6c565b90508063ffffffff16610a908486610b04565b51610aa491906001600160e01b0316610d36565b610aae9089610ce4565b97508063ffffffff16610ac18585610b04565b51610ad591906001600160e01b0316610d36565b610adf9088610ce4565b9650505b505050509193909250565b6000610aff64010000000042610d91565b905090565b6040805160208101909152600081526000826001600160701b031611610b6c5760405162461bcd60e51b815260206004820152601760248201527f4669786564506f696e743a204449565f42595f5a45524f0000000000000000006044820152606401610339565b604080516020810190915280610ba26001600160701b0385166dffffffffffffffffffffffffffff60701b607088901b16610cfc565b6001600160e01b031690529392505050565b80356001600160a01b0381168114610bcb57600080fd5b919050565b80516001600160701b0381168114610bcb57600080fd5b600060208284031215610bf8578081fd5b610c0182610bb4565b9392505050565b60008060408385031215610c1a578081fd5b610c2383610bb4565b946020939093013593505050565b600080600060608486031215610c45578081fd5b610c4e84610bd0565b9250610c5c60208501610bd0565b9150604084015163ffffffff81168114610c74578182fd5b809150509250925092565b600060208284031215610c90578081fd5b5035919050565b600060208284031215610ca8578081fd5b5051919050565b6020808252818101527f4f776e61626c653a2063616c6c6572206973206e6f7420746865206f776e6572604082015260600190565b60008219821115610cf757610cf7610da5565b500190565b60006001600160e01b0383811680610d1657610d16610dbb565b92169190910492915050565b600082610d3157610d31610dbb565b500490565b6000816000190483118215151615610d5057610d50610da5565b500290565b600082821015610d6757610d67610da5565b500390565b600063ffffffff83811690831681811015610d8957610d89610da5565b039392505050565b600082610da057610da0610dbb565b500690565b634e487b7160e01b600052601160045260246000fd5b634e487b7160e01b600052601260045260246000fdfea2646970667358221220f5975f4a642e702a67423026eb1ba652622f503a0252cfeefd8d485d88e4ad3764736f6c63430008040033",
  "immutableReferences": {
    "10976": [
      {
        "length": 32,
        "start": 589
      },
      {
        "length": 32,
        "start": 1327
      }
    ],
    "10978": [
      {
        "length": 32,
        "start": 288
      },
      {
        "length": 32,
        "start": 897
      }
    ],
    "10980": [
      {
        "length": 32,
        "start": 674
      },
      {
        "length": 32,
        "start": 1017
      }
    ]
  },
  "source": "// SPDX-License-Identifier: MIT\r\npragma solidity 0.8.4;\r\npragma experimental ABIEncoderV2;\r\n\r\nlibrary SafeMath {\r\n  function mul(uint256 a, uint256 b) internal pure returns (uint256 c) {\r\n    if (a == 0) {return 0;}\r\n    c = a * b;\r\n    assert(c / a == b);\r\n    return c;\r\n  }\r\n\r\n  function div(uint256 a, uint256 b) internal pure returns (uint256) {\r\n    return a / b;\r\n  }\r\n\r\n  function sub(uint256 a, uint256 b) internal pure returns (uint256) {\r\n    assert(b <= a);\r\n    return a - b;\r\n  }\r\n\r\n  function add(uint256 a, uint256 b) internal pure returns (uint256 c) {\r\n    c = a + b;\r\n    assert(c >= a);\r\n    return c;\r\n  }\r\n}\r\n\r\nlibrary FixedPoint {\r\n    struct uq112x112 {\r\n        uint224 _x;\r\n    }\r\n\r\n    struct uq144x112 {\r\n        uint256 _x;\r\n    }\r\n\r\n    uint8 private constant RESOLUTION = 112;\r\n    uint256 private constant Q112 = uint256(1) << RESOLUTION;\r\n    uint256 private constant Q224 = Q112 << RESOLUTION;\r\n\r\n    function encode(uint112 x) internal pure returns (uq112x112 memory) {\r\n        return uq112x112(uint224(x) << RESOLUTION);\r\n    }\r\n\r\n    function encode144(uint144 x) internal pure returns (uq144x112 memory) {\r\n        return uq144x112(uint256(x) << RESOLUTION);\r\n    }\r\n\r\n    function div(uq112x112 memory self, uint112 x) internal pure returns (uq112x112 memory) {\r\n        require(x != 0, \"FixedPoint: DIV_BY_ZERO\");\r\n        return uq112x112(self._x / uint224(x));\r\n    }\r\n\r\n    function mul(uq112x112 memory self, uint256 y) internal pure returns (uq144x112 memory) {\r\n        uint256 z;\r\n        require(y == 0 || (z = uint256(self._x) * y) / y == uint256(self._x), \"FixedPoint: MULTIPLICATION_OVERFLOW\");\r\n        return uq144x112(z);\r\n    }\r\n\r\n    function fraction(uint112 numerator, uint112 denominator) internal pure returns (uq112x112 memory) {\r\n        require(denominator > 0, \"FixedPoint: DIV_BY_ZERO\");\r\n        return uq112x112((uint224(numerator) << RESOLUTION) / denominator);\r\n    }\r\n\r\n    function decode(uq112x112 memory self) internal pure returns (uint112) {\r\n        return uint112(self._x >> RESOLUTION);\r\n    }\r\n\r\n    function decode144(uq144x112 memory self) internal pure returns (uint144) {\r\n        return uint144(self._x >> RESOLUTION);\r\n    }\r\n\r\n    function reciprocal(uq112x112 memory self) internal pure returns (uq112x112 memory) {\r\n        require(self._x != 0, \"FixedPoint: ZERO_RECIPROCAL\");\r\n        return uq112x112(uint224(Q224 / self._x));\r\n    }\r\n\r\n    function sqrt(uq112x112 memory self) internal pure returns (uq112x112 memory) {\r\n        return uq112x112(uint224(Babylonian.sqrt(uint256(self._x)) << 56));\r\n    }\r\n}\r\n\r\nlibrary UQ112x112 {\r\n    uint224 constant Q112 = 2**112;\r\n\r\n    // encode a uint112 as a UQ112x112\r\n    function encode(uint112 y) internal pure returns (uint224 z) {\r\n        z = uint224(y) * Q112; // never overflows\r\n    }\r\n\r\n    // divide a UQ112x112 by a uint112, returning a UQ112x112\r\n    function uqdiv(uint224 x, uint112 y) internal pure returns (uint224 z) {\r\n        z = x / uint224(y);\r\n    }\r\n}\r\n\r\nlibrary Babylonian {\r\n    function sqrt(uint y) internal pure returns (uint z) {\r\n        if (y > 3) {\r\n            z = y;\r\n            uint x = y / 2 + 1;\r\n            while (x < z) {\r\n                z = x;\r\n                x = (y / x + x) / 2;\r\n            }\r\n        } else if (y != 0) {\r\n            z = 1;\r\n        }\r\n        // else z = 0\r\n    }\r\n}\r\n\r\nabstract contract Context {\r\n    function _msgSender() internal view virtual returns (address) {\r\n        return msg.sender;\r\n    }\r\n\r\n    function _msgData() internal view virtual returns (bytes calldata) {\r\n        this;\r\n        return msg.data;\r\n    }\r\n}\r\n\r\nabstract contract Ownable is Context {\r\n    address private _owner;\r\n    event OwnershipTransferred(address indexed previousOwner, address indexed newOwner);\r\n\r\n    constructor () {\r\n        address msgSender = _msgSender();\r\n        _owner = msgSender;\r\n        emit OwnershipTransferred(address(0), msgSender);\r\n    }\r\n\r\n    function owner() public view virtual returns (address) {\r\n        return _owner;\r\n    }\r\n\r\n    modifier onlyOwner() {\r\n        require(owner() == _msgSender(), \"Ownable: caller is not the owner\");\r\n        _;\r\n    }\r\n\r\n    function renounceOwnership() public virtual onlyOwner {\r\n        emit OwnershipTransferred(_owner, address(0));\r\n        _owner = address(0);\r\n    }\r\n\r\n    function transferOwnership(address newOwner) public virtual onlyOwner {\r\n        require(newOwner != address(0), \"Ownable: new owner is the zero address\");\r\n        emit OwnershipTransferred(_owner, newOwner);\r\n        _owner = newOwner;\r\n    }\r\n}\r\n\r\nabstract contract Operator is Context, Ownable {\r\n    address private _operator;\r\n\r\n    event OperatorTransferred(address indexed previousOperator, address indexed newOperator);\r\n\r\n    constructor(){\r\n        _operator = _msgSender();\r\n        emit OperatorTransferred(address(0), _operator);\r\n    }\r\n\r\n    function operator() public view returns (address) {\r\n        return _operator;\r\n    }\r\n\r\n    modifier onlyOperator() {\r\n        require(_operator == msg.sender, \"operator: caller is not the operator\");\r\n        _;\r\n    }\r\n\r\n    function isOperator() public view returns (bool) {\r\n        return _msgSender() == _operator;\r\n    }\r\n\r\n    function transferOperator(address newOperator_) public onlyOwner {\r\n        _transferOperator(newOperator_);\r\n    }\r\n\r\n    function _transferOperator(address newOperator_) internal {\r\n        require(newOperator_ != address(0), \"operator: zero address given for new operator\");\r\n        emit OperatorTransferred(address(0), newOperator_);\r\n        _operator = newOperator_;\r\n    }\r\n}\r\n\r\ninterface IUniswapLP {\r\n    function token0() external view returns (address);\r\n    function token1() external view returns (address);\r\n    function getReserves() external view returns (uint112 reserve0,uint112 reserve1,uint32 blockTimestampLast);\r\n    function price0CumulativeLast() external view returns (uint256);\r\n    function price1CumulativeLast() external view returns (uint256);\r\n    function getTokenWeights() external view returns (uint32 tokenWeight0, uint32 tokenWeight1);\r\n}\r\n\r\ninterface IPairOracle {\r\n    function consult(address token, uint256 amountIn) external view returns (uint256 amountOut);\r\n    function update() external;\r\n}\r\n\r\n\r\n\r\n\r\ncontract ShareWCoinPairOracle is Operator, IPairOracle {\r\n    using FixedPoint for *;\r\n    using SafeMath for uint256;\r\n\r\n    uint256 public PERIOD = 600; // 10-minute TWAP (time-weighted average price)\r\n\r\n    IUniswapLP public immutable pair;\r\n    address public immutable token0;\r\n    address public immutable token1;\r\n\r\n    uint256 public price0CumulativeLast;\r\n    uint256 public price1CumulativeLast;\r\n    uint32 public blockTimestampLast;\r\n    FixedPoint.uq112x112 public price0Average;\r\n    FixedPoint.uq112x112 public price1Average;\r\n\r\n    constructor(address pairAddress){\r\n        IUniswapLP _pair = IUniswapLP(pairAddress);\r\n        pair = _pair;\r\n        token0 = _pair.token0();\r\n        token1 = _pair.token1();\r\n        price0CumulativeLast = _pair.price0CumulativeLast(); // Fetch the current accumulated price value (1 / 0)\r\n        price1CumulativeLast = _pair.price1CumulativeLast(); // Fetch the current accumulated price value (0 / 1)\r\n        uint112 reserve0;\r\n        uint112 reserve1;\r\n        (reserve0, reserve1, blockTimestampLast) = _pair.getReserves();\r\n        require(reserve0 != 0 && reserve1 != 0, \"PairOracle: NO_RESERVES\"); // Ensure that there's liquidity in the pair\r\n    }\r\n\r\n    function setPeriod(uint256 _period) external onlyOperator {\r\n        PERIOD = _period;\r\n    }\r\n\r\n    function update() external override {\r\n        (uint256 price0Cumulative, uint256 price1Cumulative, uint32 blockTimestamp) = currentCumulativePrices(address(pair));\r\n        uint32 timeElapsed = blockTimestamp - blockTimestampLast; // Overflow is desired\r\n\r\n        // Ensure that at least one full period has passed since the last update\r\n        require(timeElapsed >= PERIOD, \"PairOracle: PERIOD_NOT_ELAPSED\");\r\n\r\n        // Overflow is desired, casting never truncates\r\n        // Cumulative price is in (uq112x112 price * seconds) units so we simply wrap it after division by time elapsed\r\n        price0Average = FixedPoint.uq112x112(uint224((price0Cumulative - price0CumulativeLast) / timeElapsed));\r\n        price1Average = FixedPoint.uq112x112(uint224((price1Cumulative - price1CumulativeLast) / timeElapsed));\r\n        price0CumulativeLast = price0Cumulative;\r\n        price1CumulativeLast = price1Cumulative;\r\n        blockTimestampLast = blockTimestamp;\r\n    }\r\n\r\n    // Note this will always return 0 before update has been called successfully for the first time.\r\n    function consult(address token, uint256 amountIn) external view override returns (uint256 amountOut) {\r\n        if (token == token0) {\r\n            amountOut = price0Average.mul(amountIn).decode144();\r\n        } else {\r\n            require(token == token1, \"PairOracle: INVALID_TOKEN\");\r\n            amountOut = price1Average.mul(amountIn).decode144();\r\n        }\r\n    }\r\n\r\n    function currentBlockTimestamp() internal view returns (uint32) {\r\n        return uint32(block.timestamp % 2**32);\r\n    }\r\n\r\n    // produces the cumulative price using counterfactuals to save gas and avoid a call to sync.\r\n    function currentCumulativePrices(address _pair) internal view returns (uint256 price0Cumulative,uint256 price1Cumulative,uint32 blockTimestamp){\r\n        blockTimestamp = currentBlockTimestamp();\r\n        IUniswapLP uniswapPair = IUniswapLP(_pair);\r\n        price0Cumulative = uniswapPair.price0CumulativeLast();\r\n        price1Cumulative = uniswapPair.price1CumulativeLast();\r\n\r\n        // if time has elapsed since the last update on the pair, mock the accumulated price values\r\n        (uint112 reserve0, uint112 reserve1, uint32 _blockTimestampLast) = uniswapPair.getReserves();\r\n        if (_blockTimestampLast != blockTimestamp) {\r\n            uint32 timeElapsed = blockTimestamp - _blockTimestampLast;// subtraction overflow is desired\r\n            price0Cumulative += uint256(FixedPoint.fraction(reserve1, reserve0)._x) * timeElapsed; // addition overflow is desired// counterfactual\r\n            price1Cumulative += uint256(FixedPoint.fraction(reserve0, reserve1)._x) * timeElapsed;// counterfactual\r\n        }\r\n    }\r\n}\r\n",
  "sourcePath": "C:/Users/PaulMuller/Documents/projects/project_AGO/contracts/oracle/ShareWCoinPairOracle.sol",
  "compiler": {
    "name": "solc",
    "version": "0.8.4+commit.c7e474f2.Emscripten.clang"
  },
  "schemaVersion": "3.4.1",
  "updatedAt": "2021-06-30T14:24:16.532Z",
  "devdoc": {
    "kind": "dev",
    "methods": {},
    "version": 1
  },
  "userdoc": {
    "kind": "user",
    "methods": {},
    "version": 1
  }
}