{
  "contractName": "ShareWrapper",
  "abi": [
    {
      "inputs": [],
      "name": "share",
      "outputs": [
        {
          "internalType": "address",
          "name": "",
          "type": "address"
        }
      ],
      "stateMutability": "view",
      "type": "function"
    },
    {
      "inputs": [],
      "name": "totalSupply",
      "outputs": [
        {
          "internalType": "uint256",
          "name": "",
          "type": "uint256"
        }
      ],
      "stateMutability": "view",
      "type": "function"
    },
    {
      "inputs": [
        {
          "internalType": "address",
          "name": "account",
          "type": "address"
        }
      ],
      "name": "balanceOf",
      "outputs": [
        {
          "internalType": "uint256",
          "name": "",
          "type": "uint256"
        }
      ],
      "stateMutability": "view",
      "type": "function"
    },
    {
      "inputs": [
        {
          "internalType": "uint256",
          "name": "amount",
          "type": "uint256"
        }
      ],
      "name": "stake",
      "outputs": [],
      "stateMutability": "nonpayable",
      "type": "function"
    },
    {
      "inputs": [
        {
          "internalType": "uint256",
          "name": "amount",
          "type": "uint256"
        }
      ],
      "name": "withdraw",
      "outputs": [],
      "stateMutability": "nonpayable",
      "type": "function"
    }
  ],
  "bytecode": "0x608060405234801561001057600080fd5b506106d9806100206000396000f3fe608060405234801561001057600080fd5b50600436106100575760003560e01c806318160ddd1461005c5780632e1a7d4d1461007357806370a0823114610088578063a694fc3a146100b1578063a8d5fd65146100c4575b600080fd5b6001545b6040519081526020015b60405180910390f35b6100866100813660046105cb565b6100ef565b005b610060610096366004610584565b6001600160a01b031660009081526002602052604090205490565b6100866100bf3660046105cb565b6101f6565b6000546100d7906001600160a01b031681565b6040516001600160a01b03909116815260200161006a565b600081116101385760405162461bcd60e51b8152602060048201526011602482015270043616e6e6f74207769746864726177203607c1b60448201526064015b60405180910390fd5b33600090815260026020526040902054818110156101ac5760405162461bcd60e51b815260206004820152602b60248201527f576974686472617720726571756573742067726561746572207468616e20737460448201526a185ad95908185b5bdd5b9d60aa1b606482015260840161012f565b816001546101ba919061064a565b6001556101c7828261064a565b3360008181526002602052604081209290925590546101f2916001600160a01b039091169084610292565b5050565b600081116102375760405162461bcd60e51b815260206004820152600e60248201526d043616e6e6f74207374616b6520360941b604482015260640161012f565b806001546102459190610632565b60015533600090815260026020526040902054610263908290610632565b33600081815260026020526040812092909255905461028f916001600160a01b039091169030846102fa565b50565b6040516001600160a01b0383166024820152604481018290526102f590849063a9059cbb60e01b906064015b60408051601f198184030181529190526020810180516001600160e01b03166001600160e01b031990931692909217909152610338565b505050565b6040516001600160a01b03808516602483015283166044820152606481018290526103329085906323b872dd60e01b906084016102be565b50505050565b600061038d826040518060400160405280602081526020017f5361666545524332303a206c6f772d6c6576656c2063616c6c206661696c6564815250856001600160a01b031661040a9092919063ffffffff16565b8051909150156102f557808060200190518101906103ab91906105ab565b6102f55760405162461bcd60e51b815260206004820152602a60248201527f5361666545524332303a204552433230206f7065726174696f6e20646964206e6044820152691bdd081cdd58d8d9595960b21b606482015260840161012f565b60606104198484600085610423565b90505b9392505050565b6060824710156104845760405162461bcd60e51b815260206004820152602660248201527f416464726573733a20696e73756666696369656e742062616c616e636520666f6044820152651c8818d85b1b60d21b606482015260840161012f565b843b6104d25760405162461bcd60e51b815260206004820152601d60248201527f416464726573733a2063616c6c20746f206e6f6e2d636f6e7472616374000000604482015260640161012f565b600080866001600160a01b031685876040516104ee91906105e3565b60006040518083038185875af1925050503d806000811461052b576040519150601f19603f3d011682016040523d82523d6000602084013e610530565b606091505b509150915061054082828661054b565b979650505050505050565b6060831561055a57508161041c565b82511561056a5782518084602001fd5b8160405162461bcd60e51b815260040161012f91906105ff565b600060208284031215610595578081fd5b81356001600160a01b038116811461041c578182fd5b6000602082840312156105bc578081fd5b8151801515811461041c578182fd5b6000602082840312156105dc578081fd5b5035919050565b600082516105f5818460208701610661565b9190910192915050565b602081526000825180602084015261061e816040850160208701610661565b601f01601f19169190910160400192915050565b600082198211156106455761064561068d565b500190565b60008282101561065c5761065c61068d565b500390565b60005b8381101561067c578181015183820152602001610664565b838111156103325750506000910152565b634e487b7160e01b600052601160045260246000fdfea2646970667358221220616bbaa0c591d462a2e19b0a75c11ebf6ced9abe7e4d14eef59a6d98c720fd7764736f6c63430008040033",
  "immutableReferences": {},
  "source": "// SPDX-License-Identifier: MIT\r\npragma solidity 0.8.4;\r\n\r\nimport \"@openzeppelin/contracts/token/ERC20/utils/SafeERC20.sol\";\r\nimport \"@openzeppelin/contracts/token/ERC20/IERC20.sol\";\r\n\r\ncontract ShareWrapper {\r\n    using SafeERC20 for IERC20;\r\n\r\n    address public share;\r\n    uint256 private _totalSupply;\r\n    mapping(address => uint256) private _balances;\r\n\r\n    function totalSupply() public view returns (uint256) {\r\n        return _totalSupply;\r\n    }\r\n\r\n    function balanceOf(address account) public view returns (uint256) {\r\n        return _balances[account];\r\n    }\r\n\r\n    function stake(uint256 amount) public virtual {\r\n        require(amount > 0, \"Cannot stake 0\");\r\n        _totalSupply = _totalSupply + amount;\r\n        _balances[msg.sender] = _balances[msg.sender] + amount;\r\n        IERC20(share).safeTransferFrom(msg.sender, address(this), amount);\r\n    }\r\n\r\n    function withdraw(uint256 amount) public virtual {\r\n        require(amount > 0, \"Cannot withdraw 0\");\r\n        uint256 blacksmithShare = _balances[msg.sender];\r\n        require(blacksmithShare >= amount, \"Withdraw request greater than staked amount\");\r\n        _totalSupply = _totalSupply - amount;\r\n        _balances[msg.sender] = blacksmithShare - amount;\r\n        IERC20(share).safeTransfer(msg.sender, amount);\r\n    }\r\n}\r\n",
  "sourcePath": "C:\\Users\\PaulMuller\\Documents\\projects\\project_AGO\\contracts\\utilityContracts\\ShareWrapper.sol",
  "compiler": {
    "name": "solc",
    "version": "0.8.4+commit.c7e474f2.Emscripten.clang"
  },
  "schemaVersion": "3.4.1",
  "updatedAt": "2021-07-29T13:52:16.284Z",
  "devdoc": {
    "kind": "dev",
    "methods": {},
    "version": 1
  },
  "userdoc": {
    "kind": "user",
    "methods": {},
    "version": 1
  }
}