{
  "contractName": "ShareWrapper",
  "abi": [
    {
      "inputs": [],
      "name": "share",
      "outputs": [
        {
          "internalType": "address",
          "name": "",
          "type": "address"
        }
      ],
      "stateMutability": "view",
      "type": "function"
    },
    {
      "inputs": [],
      "name": "totalSupply",
      "outputs": [
        {
          "internalType": "uint256",
          "name": "",
          "type": "uint256"
        }
      ],
      "stateMutability": "view",
      "type": "function"
    },
    {
      "inputs": [
        {
          "internalType": "address",
          "name": "account",
          "type": "address"
        }
      ],
      "name": "balanceOf",
      "outputs": [
        {
          "internalType": "uint256",
          "name": "",
          "type": "uint256"
        }
      ],
      "stateMutability": "view",
      "type": "function"
    },
    {
      "inputs": [
        {
          "internalType": "uint256",
          "name": "amount",
          "type": "uint256"
        }
      ],
      "name": "stake",
      "outputs": [],
      "stateMutability": "nonpayable",
      "type": "function"
    },
    {
      "inputs": [
        {
          "internalType": "uint256",
          "name": "amount",
          "type": "uint256"
        }
      ],
      "name": "withdraw",
      "outputs": [],
      "stateMutability": "nonpayable",
      "type": "function"
    }
  ],
  "bytecode": "0x608060405234801561001057600080fd5b506104e0806100206000396000f3fe608060405234801561001057600080fd5b50600436106100675760003560e01c806370a082311161005057806370a0823114610098578063a694fc3a146100c1578063a8d5fd65146100d457610067565b806318160ddd1461006c5780632e1a7d4d14610083575b600080fd5b6001545b6040519081526020015b60405180910390f35b61009661009136600461044d565b6100ff565b005b6100706100a63660046103ff565b6001600160a01b031660009081526002602052604090205490565b6100966100cf36600461044d565b6101ec565b6000546100e7906001600160a01b031681565b6040516001600160a01b03909116815260200161007a565b33600090815260026020526040902054818110156101a3576040517f08c379a000000000000000000000000000000000000000000000000000000000815260206004820152603660248201527f426f617264726f6f6d3a2077697468647261772072657175657374206772656160448201527f746572207468616e207374616b656420616d6f756e7400000000000000000000606482015260840160405180910390fd5b6001546101b09083610245565b6001556101bd8183610245565b3360008181526002602052604081209290925590546101e8916001600160a01b039091169084610278565b5050565b6001546101f99082610321565b600155336000908152600260205260409020546102169082610321565b336000818152600260205260408120929092559054610242916001600160a01b0390911690308461034d565b50565b60008282111561026557634e487b7160e01b600052600160045260246000fd5b61026f828461047d565b90505b92915050565b6040517fa9059cbb0000000000000000000000000000000000000000000000000000000081526001600160a01b0383811660048301526024820183905284169063a9059cbb90604401602060405180830381600087803b1580156102db57600080fd5b505af11580156102ef573d6000803e3d6000fd5b505050506040513d601f19601f82011682018060405250810190610313919061042d565b61031c57600080fd5b505050565b600061032d8284610465565b90508281101561027257634e487b7160e01b600052600160045260246000fd5b6040517f23b872dd0000000000000000000000000000000000000000000000000000000081526001600160a01b0384811660048301528381166024830152604482018390528516906323b872dd90606401602060405180830381600087803b1580156103b857600080fd5b505af11580156103cc573d6000803e3d6000fd5b505050506040513d601f19601f820116820180604052508101906103f0919061042d565b6103f957600080fd5b50505050565b600060208284031215610410578081fd5b81356001600160a01b0381168114610426578182fd5b9392505050565b60006020828403121561043e578081fd5b81518015158114610426578182fd5b60006020828403121561045e578081fd5b5035919050565b6000821982111561047857610478610494565b500190565b60008282101561048f5761048f610494565b500390565b634e487b7160e01b600052601160045260246000fdfea264697066735822122006febae7809e49d717c37fa3636a552cecd74b4d17fe17d7ef237a76c08c54db64736f6c63430008030033",
  "immutableReferences": {},
  "source": "// SPDX-License-Identifier: MIT\r\n\r\npragma solidity ^0.8.0;\r\npragma experimental ABIEncoderV2;\r\n\r\nimport \"./openZeppelin/IERC20.sol\";\r\nimport \"./openZeppelin/SafeERC20.sol\";\r\nimport \"./openZeppelin/ReentrancyGuard.sol\";\r\nimport \"./openZeppelin/Address.sol\";\r\n\r\n\r\nimport \"./interfaces/ITreasury.sol\";\r\nimport \"./interfaces/IOracle.sol\";\r\nimport \"./Operator.sol\";\r\n\r\ncontract ShareWrapper {\r\n    using SafeMath for uint256;\r\n    using SafeERC20 for IERC20;\r\n\r\n    address public share;\r\n\r\n    uint256 private _totalSupply;\r\n    mapping(address => uint256) private _balances;\r\n\r\n    function totalSupply() public view returns (uint256) {\r\n        return _totalSupply;\r\n    }\r\n\r\n    function balanceOf(address account) public view returns (uint256) {\r\n        return _balances[account];\r\n    }\r\n\r\n    function stake(uint256 amount) public virtual {\r\n        _totalSupply = _totalSupply.add(amount);\r\n        _balances[msg.sender] = _balances[msg.sender].add(amount);\r\n        IERC20(share).safeTransferFrom(msg.sender, address(this), amount);\r\n    }\r\n\r\n    function withdraw(uint256 amount) public virtual {\r\n        uint256 blacksmithShare = _balances[msg.sender];\r\n        require(blacksmithShare >= amount, \"Boardroom: withdraw request greater than staked amount\");\r\n        _totalSupply = _totalSupply.sub(amount);\r\n        _balances[msg.sender] = blacksmithShare.sub(amount);\r\n        IERC20(share).safeTransfer(msg.sender, amount);\r\n    }\r\n}\r\n\r\ncontract Foundry is ShareWrapper, ReentrancyGuard, Operator {\r\n    using SafeERC20 for IERC20;\r\n    using Address for address;\r\n    using SafeMath for uint256;\r\n\r\n    /* ========== DATA STRUCTURES ========== */\r\n\r\n    struct FoundryPosition {\r\n        uint256 lastSnapshotIndex;\r\n        uint256 rewardEarned;\r\n        uint256 epochTimerStart;\r\n    }\r\n\r\n    struct FoundrySnapshot {\r\n        uint256 time;\r\n        uint256 rewardReceived;\r\n        uint256 rewardPerShare;\r\n    }\r\n\r\n    /* ========== STATE VARIABLES ========== */\r\n\r\n    // flags\r\n    bool public initialized = false;\r\n\r\n    address public collateral;\r\n    address public treasury;\r\n    address public oracle; // oracle to get price of collateral\r\n\r\n    mapping(address => FoundryPosition) public blacksmiths;\r\n    FoundrySnapshot[] public foundryHistory;\r\n\r\n    uint256 public withdrawLockupEpochs;\r\n\r\n    /* ========== EVENTS ========== */\r\n\r\n    event Initialized(address indexed executor, uint256 at);\r\n    event Staked(address indexed user, uint256 amount);\r\n    event Withdrawn(address indexed user, uint256 amount);\r\n    event RewardPaid(address indexed user, uint256 reward);\r\n    event RewardAdded(address indexed user, uint256 reward);\r\n\r\n    /* ========== Modifiers =============== */\r\n    modifier blacksmithExists {\r\n        require(balanceOf(msg.sender) > 0, \"Foundry: The blacksmith does not exist\");\r\n        _;\r\n    }\r\n\r\n    modifier updateReward(address blacksmith) {\r\n        if (blacksmith != address(0)) {\r\n            FoundryPosition memory position = blacksmiths[blacksmith];\r\n            position.rewardEarned = earned(blacksmith);\r\n            position.lastSnapshotIndex = latestSnapshotIndex();\r\n            blacksmiths[blacksmith] = position;\r\n        }\r\n        _;\r\n    }\r\n\r\n    modifier notInitialized {\r\n        require(!initialized, \"Foundry: already initialized\");\r\n        _;\r\n    }\r\n\r\n    modifier onlyTreasury() {\r\n        require(msg.sender == address(treasury), \"!treasury\");\r\n        _;\r\n    }\r\n\r\n    /* ========== GOVERNANCE ========== */\r\n\r\n    function initialize(\r\n        address _collateral,\r\n        address _share,\r\n        address _treasury\r\n    ) public notInitialized {\r\n        collateral = _collateral;\r\n        share = _share;\r\n        treasury = _treasury;\r\n\r\n        FoundrySnapshot memory genesisSnapshot = FoundrySnapshot({time: block.number, rewardReceived: 0, rewardPerShare: 0});\r\n        foundryHistory.push(genesisSnapshot);\r\n        withdrawLockupEpochs = 8; // Lock for 8 epochs before release withdraw\r\n        initialized = true;\r\n        emit Initialized(msg.sender, block.number);\r\n    }\r\n\r\n    function setLockUp(uint256 _withdrawLockupEpochs) external onlyOperator {\r\n        require(_withdrawLockupEpochs <= 56, \"_withdrawLockupEpochs: out of range\"); // <= 2 week\r\n        withdrawLockupEpochs = _withdrawLockupEpochs;\r\n    }\r\n\r\n    function setOracle(address _oracle) external onlyOperator {\r\n        oracle = _oracle;\r\n    }\r\n\r\n    /* ========== VIEW FUNCTIONS ========== */\r\n\r\n    function info()\r\n        public\r\n        view\r\n        returns (\r\n            uint256,\r\n            uint256,\r\n            uint256,\r\n            uint256,\r\n            uint256,\r\n            uint256\r\n        )\r\n    {\r\n        (uint256 _epoch, uint256 _nextEpochPoint, uint256 _epoch_length, uint256 _utilizationRatio) = ITreasury(treasury).epochInfo();\r\n        return (\r\n            _epoch, // current epoch\r\n            _nextEpochPoint, // next epoch point\r\n            _epoch_length, // epoch duration\r\n            _utilizationRatio, // utilization ratio\r\n            totalSupply(),\r\n            IOracle(oracle).consult() // collateral price\r\n        );\r\n    }\r\n\r\n    // =========== Snapshot getters\r\n\r\n    function latestSnapshotIndex() public view returns (uint256) {\r\n        return foundryHistory.length.sub(1);\r\n    }\r\n\r\n    function getLatestSnapshot() internal view returns (FoundrySnapshot memory) {\r\n        return foundryHistory[latestSnapshotIndex()];\r\n    }\r\n\r\n    function getLastSnapshotIndexOf(address blacksmith) public view returns (uint256) {\r\n        return blacksmiths[blacksmith].lastSnapshotIndex;\r\n    }\r\n\r\n    function getLastSnapshotOf(address blacksmith) internal view returns (FoundrySnapshot memory) {\r\n        return foundryHistory[getLastSnapshotIndexOf(blacksmith)];\r\n    }\r\n\r\n    function canWithdraw(address blacksmith) external view returns (bool) {\r\n        return blacksmiths[blacksmith].epochTimerStart.add(withdrawLockupEpochs) <= ITreasury(treasury).epoch();\r\n    }\r\n\r\n    function epoch() external view returns (uint256) {\r\n        return ITreasury(treasury).epoch();\r\n    }\r\n\r\n    function nextEpochPoint() external view returns (uint256) {\r\n        return ITreasury(treasury).nextEpochPoint();\r\n    }\r\n\r\n    // =========== blacksmith getters\r\n\r\n    function rewardPerShare() public view returns (uint256) {\r\n        return getLatestSnapshot().rewardPerShare;\r\n    }\r\n\r\n    function earned(address blacksmith) public view returns (uint256) {\r\n        uint256 latestRPS = getLatestSnapshot().rewardPerShare;\r\n        uint256 storedRPS = getLastSnapshotOf(blacksmith).rewardPerShare;\r\n\r\n        return balanceOf(blacksmith).mul(latestRPS.sub(storedRPS)).div(1e18).add(blacksmiths[blacksmith].rewardEarned);\r\n    }\r\n\r\n    /* ========== MUTATIVE FUNCTIONS ========== */\r\n\r\n    function stake(uint256 amount) public override nonReentrant updateReward(msg.sender) {\r\n        require(amount > 0, \"Foundry: Cannot stake 0\");\r\n        super.stake(amount);\r\n        blacksmiths[msg.sender].epochTimerStart = ITreasury(treasury).epoch(); // reset timer\r\n        emit Staked(msg.sender, amount);\r\n    }\r\n\r\n    function withdraw(uint256 amount) public override nonReentrant blacksmithExists updateReward(msg.sender) {\r\n        require(amount > 0, \"Foundry: Cannot withdraw 0\");\r\n        require(blacksmiths[msg.sender].epochTimerStart.add(withdrawLockupEpochs) <= ITreasury(treasury).epoch(), \"Foundry: still in withdraw lockup\");\r\n        claimReward();\r\n        super.withdraw(amount);\r\n        emit Withdrawn(msg.sender, amount);\r\n    }\r\n\r\n    function exit() external {\r\n        withdraw(balanceOf(msg.sender));\r\n    }\r\n\r\n    function claimReward() public updateReward(msg.sender) {\r\n        uint256 reward = blacksmiths[msg.sender].rewardEarned;\r\n        if (reward > 0) {\r\n            blacksmiths[msg.sender].epochTimerStart = ITreasury(treasury).epoch(); // reset timer\r\n            blacksmiths[msg.sender].rewardEarned = 0;\r\n            IERC20(collateral).safeTransfer(msg.sender, reward);\r\n            emit RewardPaid(msg.sender, reward);\r\n        }\r\n    }\r\n\r\n    function allocateSeigniorage(uint256 amount) external nonReentrant onlyTreasury {\r\n        require(amount > 0, \"Foundry: Cannot allocate 0\");\r\n        require(totalSupply() > 0, \"Foundry: Cannot allocate when totalSupply is 0\");\r\n\r\n        // Create & add new snapshot\r\n        uint256 prevRPS = getLatestSnapshot().rewardPerShare;\r\n        uint256 nextRPS = prevRPS.add(amount.mul(1e18).div(totalSupply()));\r\n\r\n        FoundrySnapshot memory newSnapshot = FoundrySnapshot({time: block.number, rewardReceived: amount, rewardPerShare: nextRPS});\r\n        foundryHistory.push(newSnapshot);\r\n\r\n        IERC20(collateral).safeTransferFrom(msg.sender, address(this), amount);\r\n        emit RewardAdded(msg.sender, amount);\r\n    }\r\n}\r\n",
  "sourcePath": "C:/Users/PaulMuller/Documents/projects/project_AGO/contracts/Foundry.sol",
  "compiler": {
    "name": "solc",
    "version": "0.8.3+commit.8d00100c.Emscripten.clang"
  },
  "schemaVersion": "3.3.4",
  "updatedAt": "2021-04-06T00:33:34.861Z",
  "devdoc": {
    "kind": "dev",
    "methods": {},
    "version": 1
  },
  "userdoc": {
    "kind": "user",
    "methods": {},
    "version": 1
  }
}