{
  "contractName": "ShareOracle",
  "abi": [
    {
      "inputs": [
        {
          "internalType": "address",
          "name": "_share",
          "type": "address"
        },
        {
          "internalType": "address",
          "name": "_oracleShareBnb",
          "type": "address"
        },
        {
          "internalType": "address",
          "name": "_chainlinkBnbUsd",
          "type": "address"
        }
      ],
      "stateMutability": "nonpayable",
      "type": "constructor"
    },
    {
      "anonymous": false,
      "inputs": [
        {
          "indexed": true,
          "internalType": "address",
          "name": "previousOperator",
          "type": "address"
        },
        {
          "indexed": true,
          "internalType": "address",
          "name": "newOperator",
          "type": "address"
        }
      ],
      "name": "OperatorTransferred",
      "type": "event"
    },
    {
      "anonymous": false,
      "inputs": [
        {
          "indexed": true,
          "internalType": "address",
          "name": "previousOwner",
          "type": "address"
        },
        {
          "indexed": true,
          "internalType": "address",
          "name": "newOwner",
          "type": "address"
        }
      ],
      "name": "OwnershipTransferred",
      "type": "event"
    },
    {
      "inputs": [],
      "name": "chainlinkBnbUsd",
      "outputs": [
        {
          "internalType": "address",
          "name": "",
          "type": "address"
        }
      ],
      "stateMutability": "view",
      "type": "function",
      "constant": true
    },
    {
      "inputs": [],
      "name": "isOperator",
      "outputs": [
        {
          "internalType": "bool",
          "name": "",
          "type": "bool"
        }
      ],
      "stateMutability": "view",
      "type": "function",
      "constant": true
    },
    {
      "inputs": [],
      "name": "operator",
      "outputs": [
        {
          "internalType": "address",
          "name": "",
          "type": "address"
        }
      ],
      "stateMutability": "view",
      "type": "function",
      "constant": true
    },
    {
      "inputs": [],
      "name": "oracleShareBnb",
      "outputs": [
        {
          "internalType": "address",
          "name": "",
          "type": "address"
        }
      ],
      "stateMutability": "view",
      "type": "function",
      "constant": true
    },
    {
      "inputs": [],
      "name": "owner",
      "outputs": [
        {
          "internalType": "address",
          "name": "",
          "type": "address"
        }
      ],
      "stateMutability": "view",
      "type": "function",
      "constant": true
    },
    {
      "inputs": [],
      "name": "renounceOwnership",
      "outputs": [],
      "stateMutability": "nonpayable",
      "type": "function"
    },
    {
      "inputs": [],
      "name": "share",
      "outputs": [
        {
          "internalType": "address",
          "name": "",
          "type": "address"
        }
      ],
      "stateMutability": "view",
      "type": "function",
      "constant": true
    },
    {
      "inputs": [
        {
          "internalType": "address",
          "name": "newOperator_",
          "type": "address"
        }
      ],
      "name": "transferOperator",
      "outputs": [],
      "stateMutability": "nonpayable",
      "type": "function"
    },
    {
      "inputs": [
        {
          "internalType": "address",
          "name": "newOwner",
          "type": "address"
        }
      ],
      "name": "transferOwnership",
      "outputs": [],
      "stateMutability": "nonpayable",
      "type": "function"
    },
    {
      "inputs": [],
      "name": "consult",
      "outputs": [
        {
          "internalType": "uint256",
          "name": "",
          "type": "uint256"
        }
      ],
      "stateMutability": "view",
      "type": "function",
      "constant": true
    },
    {
      "inputs": [
        {
          "internalType": "address",
          "name": "_chainlinkBnbUsd",
          "type": "address"
        }
      ],
      "name": "setChainlinkBnbUsd",
      "outputs": [],
      "stateMutability": "nonpayable",
      "type": "function"
    },
    {
      "inputs": [
        {
          "internalType": "address",
          "name": "_oracleShareBnb",
          "type": "address"
        }
      ],
      "name": "setOracleShareBnb",
      "outputs": [],
      "stateMutability": "nonpayable",
      "type": "function"
    }
  ],
  "bytecode": "0x608060405234801561001057600080fd5b50604051610c36380380610c3683398101604081905261002f9161010e565b600080546001600160a01b031916339081178255604051909182917f8be0079c531659141344cd1fd0a4f28419497f9722a3daafe3b4186f6b6457e0908290a350600180546001600160a01b031916339081179091556040516000907f74da04524d50c64947f5dd5381ef1a4dca5cba8ed1d816243f9e48aa0b5617ed908290a3600480546001600160a01b039485166001600160a01b031991821617909155600380549285169282169290921790915560028054929093169116179055610150565b80516001600160a01b038116811461010957600080fd5b919050565b600080600060608486031215610122578283fd5b61012b846100f2565b9250610139602085016100f2565b9150610147604085016100f2565b90509250925092565b610ad78061015f6000396000f3fe608060405234801561001057600080fd5b50600436106100d45760003560e01c80637eeda70311610081578063a8d5fd651161005b578063a8d5fd65146101a2578063c33029fb146101b5578063f2fde38b146101c8576100d4565b80637eeda703146101685780638da5cb5b1461017e578063a5addac41461018f576100d4565b806352ca3e82116100b257806352ca3e8214610124578063570ca7351461014f578063715018a614610160576100d4565b806329605e77146100d95780632d32e6c3146100ee5780634456eda214610101575b600080fd5b6100ec6100e7366004610886565b6101db565b005b6100ec6100fc366004610886565b610246565b6001546001600160a01b0316331460405190151581526020015b60405180910390f35b600254610137906001600160a01b031681565b6040516001600160a01b03909116815260200161011b565b6001546001600160a01b0316610137565b6100ec6102ce565b610170610372565b60405190815260200161011b565b6000546001600160a01b0316610137565b600354610137906001600160a01b031681565b600454610137906001600160a01b031681565b6100ec6101c3366004610886565b610448565b6100ec6101d6366004610886565b6104d0565b6000546001600160a01b0316331461023a5760405162461bcd60e51b815260206004820181905260248201527f4f776e61626c653a2063616c6c6572206973206e6f7420746865206f776e657260448201526064015b60405180910390fd5b61024381610601565b50565b6001546001600160a01b031633146102ac5760405162461bcd60e51b8152602060048201526024808201527f6f70657261746f723a2063616c6c6572206973206e6f7420746865206f70657260448201526330ba37b960e11b6064820152608401610231565b600280546001600160a01b0319166001600160a01b0392909216919091179055565b6000546001600160a01b031633146103285760405162461bcd60e51b815260206004820181905260248201527f4f776e61626c653a2063616c6c6572206973206e6f7420746865206f776e65726044820152606401610231565b600080546040516001600160a01b03909116907f8be0079c531659141344cd1fd0a4f28419497f9722a3daafe3b4186f6b6457e0908390a3600080546001600160a01b0319169055565b60008061037d6106d5565b600254600480546040517f3ddac9530000000000000000000000000000000000000000000000000000000081526001600160a01b0391821692810192909252620f4240602483015292935060009290911690633ddac9539060440160206040518083038186803b1580156103f057600080fd5b505afa158015610404573d6000803e3d6000fd5b505050506040513d601f19601f8201168201806040525081019061042891906108ad565b9050610441620f424061043b848461080d565b90610854565b9250505090565b6001546001600160a01b031633146104ae5760405162461bcd60e51b8152602060048201526024808201527f6f70657261746f723a2063616c6c6572206973206e6f7420746865206f70657260448201526330ba37b960e11b6064820152608401610231565b600380546001600160a01b0319166001600160a01b0392909216919091179055565b6000546001600160a01b0316331461052a5760405162461bcd60e51b815260206004820181905260248201527f4f776e61626c653a2063616c6c6572206973206e6f7420746865206f776e65726044820152606401610231565b6001600160a01b0381166105a65760405162461bcd60e51b815260206004820152602660248201527f4f776e61626c653a206e6577206f776e657220697320746865207a65726f206160448201527f64647265737300000000000000000000000000000000000000000000000000006064820152608401610231565b600080546040516001600160a01b03808516939216917f8be0079c531659141344cd1fd0a4f28419497f9722a3daafe3b4186f6b6457e091a3600080546001600160a01b0319166001600160a01b0392909216919091179055565b6001600160a01b03811661067d5760405162461bcd60e51b815260206004820152602d60248201527f6f70657261746f723a207a65726f206164647265737320676976656e20666f7260448201527f206e6577206f70657261746f72000000000000000000000000000000000000006064820152608401610231565b6040516001600160a01b038216906000907f74da04524d50c64947f5dd5381ef1a4dca5cba8ed1d816243f9e48aa0b5617ed908290a3600180546001600160a01b0319166001600160a01b0392909216919091179055565b600354604080517ffeaf968c00000000000000000000000000000000000000000000000000000000815290516000926001600160a01b0316918391839163feaf968c9160048083019260a0929190829003018186803b15801561073757600080fd5b505afa15801561074b573d6000803e3d6000fd5b505050506040513d601f19601f8201168201806040525081019061076f91906108c5565b5050509150506000826001600160a01b031663313ce5676040518163ffffffff1660e01b815260040160206040518083038186803b1580156107b057600080fd5b505afa1580156107c4573d6000803e3d6000fd5b505050506040513d601f19601f820116820180604052508101906107e89190610914565b90506108056107f882600a61099b565b61043b84620f424061080d565b935050505090565b60008261081c5750600061084e565b6108268284610a6c565b9050816108338483610935565b1461084e57634e487b7160e01b600052600160045260246000fd5b92915050565b60006108608284610935565b9392505050565b805169ffffffffffffffffffff8116811461088157600080fd5b919050565b600060208284031215610897578081fd5b81356001600160a01b0381168114610860578182fd5b6000602082840312156108be578081fd5b5051919050565b600080600080600060a086880312156108dc578081fd5b6108e586610867565b945060208601519350604086015192506060860151915061090860808701610867565b90509295509295909350565b600060208284031215610925578081fd5b815160ff81168114610860578182fd5b60008261095057634e487b7160e01b81526012600452602481fd5b500490565b80825b60018086116109675750610992565b81870482111561097957610979610a8b565b8086161561098657918102915b9490941c938002610958565b94509492505050565b600061086060001960ff8516846000826109b757506001610860565b816109c457506000610860565b81600181146109da57600281146109e457610a11565b6001915050610860565b60ff8411156109f5576109f5610a8b565b6001841b915084821115610a0b57610a0b610a8b565b50610860565b5060208310610133831016604e8410600b8410161715610a44575081810a83811115610a3f57610a3f610a8b565b610860565b610a518484846001610955565b808604821115610a6357610a63610a8b565b02949350505050565b6000816000190483118215151615610a8657610a86610a8b565b500290565b634e487b7160e01b600052601160045260246000fdfea264697066735822122028caebe42a69996639a56c475bb5c025b59efabb1f369497304ddd07d2deda7364736f6c63430008030033",
  "immutableReferences": {},
  "source": "// SPDX-License-Identifier: MIT\r\n\r\npragma solidity ^0.8.0;\r\npragma experimental ABIEncoderV2;\r\n\r\nimport \"../chainLink/AggregatorV3Interface.sol\";\r\nimport \"../openZeppelin/SafeMath.sol\";\r\nimport \"../Operator.sol\";\r\nimport \"../interfaces/IOracle.sol\";\r\nimport \"../interfaces/IPairOracle.sol\";\r\n\r\ncontract ShareOracle is Operator, IOracle {\r\n    using SafeMath for uint256;\r\n    address public oracleShareBnb;\r\n    address public chainlinkBnbUsd;\r\n    address public share;\r\n\r\n    uint256 private constant PRICE_PRECISION = 1e6;\r\n\r\n    constructor(\r\n        address _share,\r\n        address _oracleShareBnb,\r\n        address _chainlinkBnbUsd\r\n    ){\r\n        share = _share;\r\n        chainlinkBnbUsd = _chainlinkBnbUsd;\r\n        oracleShareBnb = _oracleShareBnb;\r\n    }\r\n\r\n    function consult() external view override returns (uint256) {\r\n        uint256 _priceBnbUsd = priceBnbUsd();\r\n        uint256 _priceShareBnb = IPairOracle(oracleShareBnb).consult(share, PRICE_PRECISION);\r\n        return _priceBnbUsd.mul(_priceShareBnb).div(PRICE_PRECISION);\r\n    }\r\n\r\n    function priceBnbUsd() internal view returns (uint256) {\r\n        AggregatorV3Interface _priceFeed = AggregatorV3Interface(chainlinkBnbUsd);\r\n        (, int256 _price, , , ) = _priceFeed.latestRoundData();\r\n        uint8 _decimals = _priceFeed.decimals();\r\n        return uint256(_price).mul(PRICE_PRECISION).div(uint256(10)**_decimals);\r\n    }\r\n\r\n    function setChainlinkBnbUsd(address _chainlinkBnbUsd) external onlyOperator {\r\n        chainlinkBnbUsd = _chainlinkBnbUsd;\r\n    }\r\n\r\n    function setOracleShareBnb(address _oracleShareBnb) external onlyOperator {\r\n        oracleShareBnb = _oracleShareBnb;\r\n    }\r\n}\r\n",
  "sourcePath": "C:/Users/PaulMuller/Documents/projects/project_AGO/contracts/oracle/ShareOracle.sol",
  "compiler": {
    "name": "solc",
    "version": "0.8.3+commit.8d00100c.Emscripten.clang"
  },
  "schemaVersion": "3.3.4",
  "updatedAt": "2021-04-12T10:52:03.913Z",
  "networkType": "ethereum",
  "devdoc": {
    "kind": "dev",
    "methods": {},
    "version": 1
  },
  "userdoc": {
    "kind": "user",
    "methods": {},
    "version": 1
  }
}