{
  "contractName": "ShareWrapper",
  "abi": [
    {
      "inputs": [],
      "name": "share",
      "outputs": [
        {
          "internalType": "address",
          "name": "",
          "type": "address"
        }
      ],
      "stateMutability": "view",
      "type": "function"
    },
    {
      "inputs": [],
      "name": "totalSupply",
      "outputs": [
        {
          "internalType": "uint256",
          "name": "",
          "type": "uint256"
        }
      ],
      "stateMutability": "view",
      "type": "function"
    },
    {
      "inputs": [
        {
          "internalType": "address",
          "name": "account",
          "type": "address"
        }
      ],
      "name": "balanceOf",
      "outputs": [
        {
          "internalType": "uint256",
          "name": "",
          "type": "uint256"
        }
      ],
      "stateMutability": "view",
      "type": "function"
    },
    {
      "inputs": [
        {
          "internalType": "uint256",
          "name": "amount",
          "type": "uint256"
        }
      ],
      "name": "stake",
      "outputs": [],
      "stateMutability": "nonpayable",
      "type": "function"
    },
    {
      "inputs": [
        {
          "internalType": "uint256",
          "name": "amount",
          "type": "uint256"
        }
      ],
      "name": "withdraw",
      "outputs": [],
      "stateMutability": "nonpayable",
      "type": "function"
    }
  ],
  "bytecode": "0x608060405234801561001057600080fd5b50610672806100206000396000f3fe608060405234801561001057600080fd5b50600436106100575760003560e01c806318160ddd1461005c5780632e1a7d4d1461007357806370a0823114610088578063a694fc3a146100b1578063a8d5fd65146100c4575b600080fd5b6001545b6040519081526020015b60405180910390f35b610086610081366004610564565b6100ef565b005b61006061009636600461051d565b6001600160a01b031660009081526002602052604090205490565b6100866100bf366004610564565b6101bc565b6000546100d7906001600160a01b031681565b6040516001600160a01b03909116815260200161006a565b33600090815260026020526040902054818110156101735760405162461bcd60e51b815260206004820152603660248201527f426f617264726f6f6d3a207769746864726177207265717565737420677265616044820152751d195c881d1a185b881cdd185ad95908185b5bdd5b9d60521b60648201526084015b60405180910390fd5b6001546101809083610215565b60015561018d8183610215565b3360008181526002602052604081209290925590546101b8916001600160a01b03909116908461025e565b5050565b6001546101c990826102c6565b600155336000908152600260205260409020546101e690826102c6565b336000818152600260205260408120929092559054610212916001600160a01b03909116903084610325565b50565b600061025783836040518060400160405280601e81526020017f536166654d6174683a207375627472616374696f6e206f766572666c6f770000815250610363565b9392505050565b6040516001600160a01b0383166024820152604481018290526102c190849063a9059cbb60e01b906064015b60408051601f198184030181529190526020810180516001600160e01b03166001600160e01b03199093169290921790915261039d565b505050565b6000806102d383856105cb565b9050838110156102575760405162461bcd60e51b815260206004820152601b60248201527f536166654d6174683a206164646974696f6e206f766572666c6f770000000000604482015260640161016a565b6040516001600160a01b038085166024830152831660448201526064810182905261035d9085906323b872dd60e01b9060840161028a565b50505050565b600081848411156103875760405162461bcd60e51b815260040161016a9190610598565b50600061039484866105e3565b95945050505050565b6001600160a01b0382163b6103f45760405162461bcd60e51b815260206004820152601f60248201527f5361666545524332303a2063616c6c20746f206e6f6e2d636f6e747261637400604482015260640161016a565b600080836001600160a01b03168360405161040f919061057c565b6000604051808303816000865af19150503d806000811461044c576040519150601f19603f3d011682016040523d82523d6000602084013e610451565b606091505b5091509150816104a35760405162461bcd60e51b815260206004820181905260248201527f5361666545524332303a206c6f772d6c6576656c2063616c6c206661696c6564604482015260640161016a565b80511561035d57808060200190518101906104be9190610544565b61035d5760405162461bcd60e51b815260206004820152602a60248201527f5361666545524332303a204552433230206f7065726174696f6e20646964206e6044820152691bdd081cdd58d8d9595960b21b606482015260840161016a565b60006020828403121561052e578081fd5b81356001600160a01b0381168114610257578182fd5b600060208284031215610555578081fd5b81518015158114610257578182fd5b600060208284031215610575578081fd5b5035919050565b6000825161058e8184602087016105fa565b9190910192915050565b60208152600082518060208401526105b78160408501602087016105fa565b601f01601f19169190910160400192915050565b600082198211156105de576105de610626565b500190565b6000828210156105f5576105f5610626565b500390565b60005b838110156106155781810151838201526020016105fd565b8381111561035d5750506000910152565b634e487b7160e01b600052601160045260246000fdfea26469706673582212208c9856f7cf05ab26c9f09db224b057e5ccbec6eedde89a61c85286be05c73d7864736f6c63430008040033",
  "immutableReferences": {},
  "source": "// SPDX-License-Identifier: MIT\r\npragma solidity 0.8.4;\r\npragma experimental ABIEncoderV2;\r\n\r\nimport \"../libraries/SafeMath.sol\";\r\nimport \"../libraries/SafeERC20.sol\";\r\n\r\ncontract ShareWrapper {\r\n    using SafeMath for uint256;\r\n    using SafeERC20 for IERC20;\r\n\r\n    address public share;\r\n\r\n    uint256 private _totalSupply;\r\n    mapping(address => uint256) private _balances;\r\n\r\n    function totalSupply() public view returns (uint256) {\r\n        return _totalSupply;\r\n    }\r\n\r\n    function balanceOf(address account) public view returns (uint256) {\r\n        return _balances[account];\r\n    }\r\n\r\n    function stake(uint256 amount) public virtual {\r\n        _totalSupply = _totalSupply.add(amount);\r\n        _balances[msg.sender] = _balances[msg.sender].add(amount);\r\n        IERC20(share).safeTransferFrom(msg.sender, address(this), amount);\r\n    }\r\n\r\n    function withdraw(uint256 amount) public virtual {\r\n        uint256 blacksmithShare = _balances[msg.sender];\r\n        require(blacksmithShare >= amount, \"Boardroom: withdraw request greater than staked amount\");\r\n        _totalSupply = _totalSupply.sub(amount);\r\n        _balances[msg.sender] = blacksmithShare.sub(amount);\r\n        IERC20(share).safeTransfer(msg.sender, amount);\r\n    }\r\n}\r\n",
  "sourcePath": "C:\\Users\\PaulMuller\\Documents\\projects\\project_AGO\\contracts\\utilityContracts\\ShareWrapper.sol",
  "compiler": {
    "name": "solc",
    "version": "0.8.4+commit.c7e474f2.Emscripten.clang"
  },
  "schemaVersion": "3.4.1",
  "updatedAt": "2021-06-23T14:42:40.080Z",
  "devdoc": {
    "kind": "dev",
    "methods": {},
    "version": 1
  },
  "userdoc": {
    "kind": "user",
    "methods": {},
    "version": 1
  }
}