{
  "contractName": "Share",
  "abi": [
    {
      "inputs": [
        {
          "internalType": "string",
          "name": "_name",
          "type": "string"
        },
        {
          "internalType": "string",
          "name": "_symbol",
          "type": "string"
        },
        {
          "internalType": "address",
          "name": "_treasury",
          "type": "address"
        }
      ],
      "stateMutability": "nonpayable",
      "type": "constructor"
    },
    {
      "anonymous": false,
      "inputs": [
        {
          "indexed": true,
          "internalType": "address",
          "name": "owner",
          "type": "address"
        },
        {
          "indexed": true,
          "internalType": "address",
          "name": "spender",
          "type": "address"
        },
        {
          "indexed": false,
          "internalType": "uint256",
          "name": "value",
          "type": "uint256"
        }
      ],
      "name": "Approval",
      "type": "event"
    },
    {
      "anonymous": false,
      "inputs": [
        {
          "indexed": true,
          "internalType": "address",
          "name": "previousOperator",
          "type": "address"
        },
        {
          "indexed": true,
          "internalType": "address",
          "name": "newOperator",
          "type": "address"
        }
      ],
      "name": "OperatorTransferred",
      "type": "event"
    },
    {
      "anonymous": false,
      "inputs": [
        {
          "indexed": true,
          "internalType": "address",
          "name": "previousOwner",
          "type": "address"
        },
        {
          "indexed": true,
          "internalType": "address",
          "name": "newOwner",
          "type": "address"
        }
      ],
      "name": "OwnershipTransferred",
      "type": "event"
    },
    {
      "anonymous": false,
      "inputs": [
        {
          "indexed": true,
          "internalType": "address",
          "name": "from",
          "type": "address"
        },
        {
          "indexed": true,
          "internalType": "address",
          "name": "to",
          "type": "address"
        },
        {
          "indexed": false,
          "internalType": "uint256",
          "name": "amount",
          "type": "uint256"
        }
      ],
      "name": "ShareBurned",
      "type": "event"
    },
    {
      "anonymous": false,
      "inputs": [
        {
          "indexed": true,
          "internalType": "address",
          "name": "from",
          "type": "address"
        },
        {
          "indexed": true,
          "internalType": "address",
          "name": "to",
          "type": "address"
        },
        {
          "indexed": false,
          "internalType": "uint256",
          "name": "amount",
          "type": "uint256"
        }
      ],
      "name": "ShareMinted",
      "type": "event"
    },
    {
      "anonymous": false,
      "inputs": [
        {
          "indexed": true,
          "internalType": "address",
          "name": "from",
          "type": "address"
        },
        {
          "indexed": true,
          "internalType": "address",
          "name": "to",
          "type": "address"
        },
        {
          "indexed": false,
          "internalType": "uint256",
          "name": "value",
          "type": "uint256"
        }
      ],
      "name": "Transfer",
      "type": "event"
    },
    {
      "inputs": [],
      "name": "COMMUNITY_REWARD_ALLOCATION",
      "outputs": [
        {
          "internalType": "uint256",
          "name": "",
          "type": "uint256"
        }
      ],
      "stateMutability": "view",
      "type": "function",
      "constant": true
    },
    {
      "inputs": [],
      "name": "DEV_FUND_ALLOCATION",
      "outputs": [
        {
          "internalType": "uint256",
          "name": "",
          "type": "uint256"
        }
      ],
      "stateMutability": "view",
      "type": "function",
      "constant": true
    },
    {
      "inputs": [],
      "name": "VESTING_DURATION",
      "outputs": [
        {
          "internalType": "uint256",
          "name": "",
          "type": "uint256"
        }
      ],
      "stateMutability": "view",
      "type": "function",
      "constant": true
    },
    {
      "inputs": [
        {
          "internalType": "address",
          "name": "owner",
          "type": "address"
        },
        {
          "internalType": "address",
          "name": "spender",
          "type": "address"
        }
      ],
      "name": "allowance",
      "outputs": [
        {
          "internalType": "uint256",
          "name": "",
          "type": "uint256"
        }
      ],
      "stateMutability": "view",
      "type": "function",
      "constant": true
    },
    {
      "inputs": [
        {
          "internalType": "address",
          "name": "spender",
          "type": "address"
        },
        {
          "internalType": "uint256",
          "name": "amount",
          "type": "uint256"
        }
      ],
      "name": "approve",
      "outputs": [
        {
          "internalType": "bool",
          "name": "",
          "type": "bool"
        }
      ],
      "stateMutability": "nonpayable",
      "type": "function"
    },
    {
      "inputs": [
        {
          "internalType": "address",
          "name": "account",
          "type": "address"
        }
      ],
      "name": "balanceOf",
      "outputs": [
        {
          "internalType": "uint256",
          "name": "",
          "type": "uint256"
        }
      ],
      "stateMutability": "view",
      "type": "function",
      "constant": true
    },
    {
      "inputs": [
        {
          "internalType": "uint256",
          "name": "amount",
          "type": "uint256"
        }
      ],
      "name": "burn",
      "outputs": [],
      "stateMutability": "nonpayable",
      "type": "function"
    },
    {
      "inputs": [
        {
          "internalType": "address",
          "name": "account",
          "type": "address"
        },
        {
          "internalType": "uint256",
          "name": "amount",
          "type": "uint256"
        }
      ],
      "name": "burnFrom",
      "outputs": [],
      "stateMutability": "nonpayable",
      "type": "function"
    },
    {
      "inputs": [],
      "name": "communityRewardClaimed",
      "outputs": [
        {
          "internalType": "uint256",
          "name": "",
          "type": "uint256"
        }
      ],
      "stateMutability": "view",
      "type": "function",
      "constant": true
    },
    {
      "inputs": [],
      "name": "decimals",
      "outputs": [
        {
          "internalType": "uint8",
          "name": "",
          "type": "uint8"
        }
      ],
      "stateMutability": "view",
      "type": "function",
      "constant": true
    },
    {
      "inputs": [
        {
          "internalType": "address",
          "name": "spender",
          "type": "address"
        },
        {
          "internalType": "uint256",
          "name": "subtractedValue",
          "type": "uint256"
        }
      ],
      "name": "decreaseAllowance",
      "outputs": [
        {
          "internalType": "bool",
          "name": "",
          "type": "bool"
        }
      ],
      "stateMutability": "nonpayable",
      "type": "function"
    },
    {
      "inputs": [],
      "name": "devFund",
      "outputs": [
        {
          "internalType": "address",
          "name": "",
          "type": "address"
        }
      ],
      "stateMutability": "view",
      "type": "function",
      "constant": true
    },
    {
      "inputs": [],
      "name": "devFundEmissionRate",
      "outputs": [
        {
          "internalType": "uint256",
          "name": "",
          "type": "uint256"
        }
      ],
      "stateMutability": "view",
      "type": "function",
      "constant": true
    },
    {
      "inputs": [],
      "name": "devFundLastClaimed",
      "outputs": [
        {
          "internalType": "uint256",
          "name": "",
          "type": "uint256"
        }
      ],
      "stateMutability": "view",
      "type": "function",
      "constant": true
    },
    {
      "inputs": [],
      "name": "endTime",
      "outputs": [
        {
          "internalType": "uint256",
          "name": "",
          "type": "uint256"
        }
      ],
      "stateMutability": "view",
      "type": "function",
      "constant": true
    },
    {
      "inputs": [
        {
          "internalType": "address",
          "name": "spender",
          "type": "address"
        },
        {
          "internalType": "uint256",
          "name": "addedValue",
          "type": "uint256"
        }
      ],
      "name": "increaseAllowance",
      "outputs": [
        {
          "internalType": "bool",
          "name": "",
          "type": "bool"
        }
      ],
      "stateMutability": "nonpayable",
      "type": "function"
    },
    {
      "inputs": [],
      "name": "initialized",
      "outputs": [
        {
          "internalType": "bool",
          "name": "",
          "type": "bool"
        }
      ],
      "stateMutability": "view",
      "type": "function",
      "constant": true
    },
    {
      "inputs": [],
      "name": "isOperator",
      "outputs": [
        {
          "internalType": "bool",
          "name": "",
          "type": "bool"
        }
      ],
      "stateMutability": "view",
      "type": "function",
      "constant": true
    },
    {
      "inputs": [],
      "name": "name",
      "outputs": [
        {
          "internalType": "string",
          "name": "",
          "type": "string"
        }
      ],
      "stateMutability": "view",
      "type": "function",
      "constant": true
    },
    {
      "inputs": [],
      "name": "operator",
      "outputs": [
        {
          "internalType": "address",
          "name": "",
          "type": "address"
        }
      ],
      "stateMutability": "view",
      "type": "function",
      "constant": true
    },
    {
      "inputs": [],
      "name": "owner",
      "outputs": [
        {
          "internalType": "address",
          "name": "",
          "type": "address"
        }
      ],
      "stateMutability": "view",
      "type": "function",
      "constant": true
    },
    {
      "inputs": [],
      "name": "renounceOwnership",
      "outputs": [],
      "stateMutability": "nonpayable",
      "type": "function"
    },
    {
      "inputs": [],
      "name": "rewardController",
      "outputs": [
        {
          "internalType": "address",
          "name": "",
          "type": "address"
        }
      ],
      "stateMutability": "view",
      "type": "function",
      "constant": true
    },
    {
      "inputs": [],
      "name": "startTime",
      "outputs": [
        {
          "internalType": "uint256",
          "name": "",
          "type": "uint256"
        }
      ],
      "stateMutability": "view",
      "type": "function",
      "constant": true
    },
    {
      "inputs": [],
      "name": "symbol",
      "outputs": [
        {
          "internalType": "string",
          "name": "",
          "type": "string"
        }
      ],
      "stateMutability": "view",
      "type": "function",
      "constant": true
    },
    {
      "inputs": [],
      "name": "totalSupply",
      "outputs": [
        {
          "internalType": "uint256",
          "name": "",
          "type": "uint256"
        }
      ],
      "stateMutability": "view",
      "type": "function",
      "constant": true
    },
    {
      "inputs": [
        {
          "internalType": "address",
          "name": "recipient",
          "type": "address"
        },
        {
          "internalType": "uint256",
          "name": "amount",
          "type": "uint256"
        }
      ],
      "name": "transfer",
      "outputs": [
        {
          "internalType": "bool",
          "name": "",
          "type": "bool"
        }
      ],
      "stateMutability": "nonpayable",
      "type": "function"
    },
    {
      "inputs": [
        {
          "internalType": "address",
          "name": "sender",
          "type": "address"
        },
        {
          "internalType": "address",
          "name": "recipient",
          "type": "address"
        },
        {
          "internalType": "uint256",
          "name": "amount",
          "type": "uint256"
        }
      ],
      "name": "transferFrom",
      "outputs": [
        {
          "internalType": "bool",
          "name": "",
          "type": "bool"
        }
      ],
      "stateMutability": "nonpayable",
      "type": "function"
    },
    {
      "inputs": [
        {
          "internalType": "address",
          "name": "newOperator_",
          "type": "address"
        }
      ],
      "name": "transferOperator",
      "outputs": [],
      "stateMutability": "nonpayable",
      "type": "function"
    },
    {
      "inputs": [
        {
          "internalType": "address",
          "name": "newOwner",
          "type": "address"
        }
      ],
      "name": "transferOwnership",
      "outputs": [],
      "stateMutability": "nonpayable",
      "type": "function"
    },
    {
      "inputs": [],
      "name": "treasury",
      "outputs": [
        {
          "internalType": "address",
          "name": "",
          "type": "address"
        }
      ],
      "stateMutability": "view",
      "type": "function",
      "constant": true
    },
    {
      "inputs": [
        {
          "internalType": "address",
          "name": "_devFund",
          "type": "address"
        },
        {
          "internalType": "address",
          "name": "_rewardController",
          "type": "address"
        },
        {
          "internalType": "uint256",
          "name": "_startTime",
          "type": "uint256"
        }
      ],
      "name": "initialize",
      "outputs": [],
      "stateMutability": "nonpayable",
      "type": "function"
    },
    {
      "inputs": [
        {
          "internalType": "uint256",
          "name": "amount",
          "type": "uint256"
        }
      ],
      "name": "claimCommunityRewards",
      "outputs": [],
      "stateMutability": "nonpayable",
      "type": "function"
    },
    {
      "inputs": [
        {
          "internalType": "address",
          "name": "_treasury",
          "type": "address"
        }
      ],
      "name": "setTreasuryAddress",
      "outputs": [],
      "stateMutability": "nonpayable",
      "type": "function"
    },
    {
      "inputs": [
        {
          "internalType": "address",
          "name": "_devFund",
          "type": "address"
        }
      ],
      "name": "setDevFund",
      "outputs": [],
      "stateMutability": "nonpayable",
      "type": "function"
    },
    {
      "inputs": [
        {
          "internalType": "address",
          "name": "m_address",
          "type": "address"
        },
        {
          "internalType": "uint256",
          "name": "m_amount",
          "type": "uint256"
        }
      ],
      "name": "poolMint",
      "outputs": [],
      "stateMutability": "nonpayable",
      "type": "function"
    },
    {
      "inputs": [
        {
          "internalType": "address",
          "name": "b_address",
          "type": "address"
        },
        {
          "internalType": "uint256",
          "name": "b_amount",
          "type": "uint256"
        }
      ],
      "name": "poolBurnFrom",
      "outputs": [],
      "stateMutability": "nonpayable",
      "type": "function"
    },
    {
      "inputs": [],
      "name": "unclaimedDevFund",
      "outputs": [
        {
          "internalType": "uint256",
          "name": "_pending",
          "type": "uint256"
        }
      ],
      "stateMutability": "view",
      "type": "function",
      "constant": true
    },
    {
      "inputs": [],
      "name": "claimDevFundRewards",
      "outputs": [],
      "stateMutability": "nonpayable",
      "type": "function"
    }
  ],
  "bytecode": "0x60806040526200001462015180600062000301565b600d553480156200002457600080fd5b5060405162001b3538038062001b35833981016040819052620000479162000278565b600380546001600160a01b0319163390811790915560405181906000907f8be0079c531659141344cd1fd0a4f28419497f9722a3daafe3b4186f6b6457e0908290a350600480546001600160a01b031916339081179091556040516000907f74da04524d50c64947f5dd5381ef1a4dca5cba8ed1d816243f9e48aa0b5617ed908290a38251620000df9060069060208601906200011f565b508151620000f59060059060208501906200011f565b50600780546001600160a01b0319166001600160a01b039290921691909117905550620003759050565b8280546200012d9062000322565b90600052602060002090601f0160209004810192826200015157600085556200019c565b82601f106200016c57805160ff19168380011785556200019c565b828001600101855582156200019c579182015b828111156200019c5782518255916020019190600101906200017f565b50620001aa929150620001ae565b5090565b5b80821115620001aa5760008155600101620001af565b600082601f830112620001d6578081fd5b81516001600160401b0380821115620001f357620001f36200035f565b604051601f8301601f19908116603f011681019082821181831017156200021e576200021e6200035f565b816040528381526020925086838588010111156200023a578485fd5b8491505b838210156200025d57858201830151818301840152908201906200023e565b838211156200026e57848385830101525b9695505050505050565b6000806000606084860312156200028d578283fd5b83516001600160401b0380821115620002a4578485fd5b620002b287838801620001c5565b94506020860151915080821115620002c8578384fd5b50620002d786828701620001c5565b604086015190935090506001600160a01b0381168114620002f6578182fd5b809150509250925092565b6000826200031d57634e487b7160e01b81526012600452602481fd5b500490565b600181811c908216806200033757607f821691505b602082108114156200035957634e487b7160e01b600052602260045260246000fd5b50919050565b634e487b7160e01b600052604160045260246000fd5b6117b080620003856000396000f3fe608060405234801561001057600080fd5b506004361061023d5760003560e01c80634cfc4d301161013b5780638da5cb5b116100b8578063ae4db9191161007c578063ae4db919146104ae578063b59c2e41146104c1578063dd62ed3e146104ca578063f25f8cb314610503578063f2fde38b1461051557600080fd5b80638da5cb5b1461046657806395d89b4114610477578063a457c2d71461047f578063a790b5ca14610492578063a9059cbb1461049b57600080fd5b8063715018a6116100ff578063715018a61461042757806378e979251461042f57806379cc67901461043857806384e09fd61461044b5780638cc5ce991461045357600080fd5b80634cfc4d30146103bd578063570ca735146103c757806361d027b3146103d85780636605bfda146103eb57806370a08231146103fe57600080fd5b806323b872dd116101c9578063395093511161018d578063395093511461034657806342966c68146103595780634390d2a81461036c5780634456eda2146103975780634744aa7f146103aa57600080fd5b806323b872dd146102f557806329605e77146103085780632c07a6241461031b578063313ce567146103235780633197cbb61461033d57600080fd5b80630ba2f93e116102105780630ba2f93e146102ab5780630c407d56146102b3578063158ef93e146102c65780631794bb3c146102da57806318160ddd146102ed57600080fd5b8063040173151461024257806306fdde031461025e578063095ea7b3146102735780630a0c165a14610296575b600080fd5b61024b600c5481565b6040519081526020015b60405180910390f35b610266610528565b60405161025591906115ef565b61028661028136600461158e565b6105b6565b6040519015158152602001610255565b6102a96102a436600461158e565b6105cd565b005b6102a96106d1565b6102a96102c136600461158e565b61075d565b60075461028690600160a01b900460ff1681565b6102a96102e8366004611553565b610854565b60025461024b565b610286610303366004611553565b61098d565b6102a9610316366004611507565b6109ef565b61024b610a22565b61032b601281565b60405160ff9091168152602001610255565b61024b60095481565b61028661035436600461158e565b610a6e565b6102a96103673660046115d7565b610aa4565b600a5461037f906001600160a01b031681565b6040516001600160a01b039091168152602001610255565b6004546001600160a01b03163314610286565b6102a96103b83660046115d7565b610aae565b61024b6201518081565b6004546001600160a01b031661037f565b60075461037f906001600160a01b031681565b6102a96103f9366004611507565b610c3a565b61024b61040c366004611507565b6001600160a01b031660009081526020819052604090205490565b6102a9610c86565b61024b60085481565b6102a961044636600461158e565b610cfa565b61024b600081565b600b5461037f906001600160a01b031681565b6003546001600160a01b031661037f565b610266610d27565b61028661048d36600461158e565b610d34565b61024b600e5481565b6102866104a936600461158e565b610d6a565b6102a96104bc366004611507565b610d77565b61024b600d5481565b61024b6104d8366004611521565b6001600160a01b03918216600090815260016020908152604080832093909416825291909152205490565b61024b6a422ca8b0a00a425000000081565b6102a9610523366004611507565b610e1b565b6006805461053590611729565b80601f016020809104026020016040519081016040528092919081815260200182805461056190611729565b80156105ae5780601f10610583576101008083540402835291602001916105ae565b820191906000526020600020905b81548152906001019060200180831161059157829003601f168201915b505050505081565b60006105c3338484610f06565b5060015b92915050565b600754604051631246dbf560e01b81523360048201526001600160a01b0390911690631246dbf59060240160206040518083038186803b15801561061057600080fd5b505afa158015610624573d6000803e3d6000fd5b505050506040513d601f19601f8201168201806040525081019061064891906115b7565b6106825760405162461bcd60e51b815260206004820152600660248201526521706f6f6c7360d01b60448201526064015b60405180910390fd5b61068c828261102b565b60405181815230906001600160a01b038416907fdf05d6cb804e48c3130d5f7811e55947769ccdecf499faea489170f17df227cf906020015b60405180910390a35050565b600a546001600160a01b031633146107145760405162461bcd60e51b81526004016106799060208082526004908201526310b232bb60e11b604082015260600190565b600061071e610a22565b905060008111801561073a5750600a546001600160a01b031615155b1561075a57600a54610755906001600160a01b03168261105f565b42600c555b50565b600754604051631246dbf560e01b81523360048201526001600160a01b0390911690631246dbf59060240160206040518083038186803b1580156107a057600080fd5b505afa1580156107b4573d6000803e3d6000fd5b505050506040513d601f19601f820116820180604052508101906107d891906115b7565b61080d5760405162461bcd60e51b815260206004820152600660248201526521706f6f6c7360d01b6044820152606401610679565b610817828261105f565b6040518181526001600160a01b0383169030907ff4d2b66b63836b39ffec28f88533e0f50c9136ab7d8d9b9976f93d3880e80205906020016106c5565b6004546001600160a01b0316331461087e5760405162461bcd60e51b815260040161067990611677565b600754600160a01b900460ff16156108cd5760405162461bcd60e51b8152602060048201526012602482015271185b1c9958591e525b9a5d1a585b1a5e995960721b6044820152606401610679565b6001600160a01b0382166109175760405162461bcd60e51b815260206004820152601160248201527010b932bbb0b93221b7b73a3937b63632b960791b6044820152606401610679565b6007805460ff60a01b1916600160a01b179055600a80546001600160a01b038086166001600160a01b031992831617909255600b805492851692909116919091179055600881905561096c62015180826116bb565b600955600c8190556109883369010f0cf064dd5920000061105f565b505050565b600061099a848484611136565b6109e584336001600160a01b03871660009081526001602052604081206109e091879190335b6001600160a01b031681526020810191909152604001600020549061129f565b610f06565b5060019392505050565b6003546001600160a01b03163314610a195760405162461bcd60e51b815260040161067990611642565b61075a816112d0565b6009546000904290811115610a3657506009545b80600c5410610a4757600091505090565b610a68600d54610a62600c548461129f90919063ffffffff16565b90611394565b91505090565b3360008181526001602090815260408083206001600160a01b038716845290915281205490916105c39185906109e090866113d5565b61075a3382611401565b6004546001600160a01b03163314610ad85760405162461bcd60e51b815260040161067990611677565b60008111610b185760405162461bcd60e51b815260206004820152600d60248201526c1a5b9d985b1a59105b5bdd5b9d609a1b6044820152606401610679565b600754600160a01b900460ff16610b605760405162461bcd60e51b815260206004820152600c60248201526b085a5b9a5d1a585b1a5e995960a21b6044820152606401610679565b600b546001600160a01b0316610bac5760405162461bcd60e51b815260206004820152601160248201527010b932bbb0b93221b7b73a3937b63632b960791b6044820152606401610679565b6000610bce600e546a422ca8b0a00a425000000061129f90919063ffffffff16565b905080821115610c105760405162461bcd60e51b815260206004820152600d60248201526c6578636565645265776172647360981b6044820152606401610679565b600e54610c1d90836113d5565b600e55600b54610c36906001600160a01b03168361105f565b5050565b6004546001600160a01b03163314610c645760405162461bcd60e51b815260040161067990611677565b600780546001600160a01b0319166001600160a01b0392909216919091179055565b6003546001600160a01b03163314610cb05760405162461bcd60e51b815260040161067990611642565b6003546040516000916001600160a01b0316907f8be0079c531659141344cd1fd0a4f28419497f9722a3daafe3b4186f6b6457e0908390a3600380546001600160a01b0319169055565b6000610d1082610d0a85336104d8565b9061129f565b9050610d1d833383610f06565b6109888383611401565b6005805461053590611729565b3360008181526001602090815260408083206001600160a01b038716845290915281205490916105c39185906109e0908661129f565b60006105c3338484611136565b600a546001600160a01b03163314610dba5760405162461bcd60e51b81526004016106799060208082526004908201526310b232bb60e11b604082015260600190565b6001600160a01b038116610df95760405162461bcd60e51b8152600401610679906020808252600490820152637a65726f60e01b604082015260600190565b600a80546001600160a01b0319166001600160a01b0392909216919091179055565b6003546001600160a01b03163314610e455760405162461bcd60e51b815260040161067990611642565b6001600160a01b038116610eaa5760405162461bcd60e51b815260206004820152602660248201527f4f776e61626c653a206e6577206f776e657220697320746865207a65726f206160448201526564647265737360d01b6064820152608401610679565b6003546040516001600160a01b038084169216907f8be0079c531659141344cd1fd0a4f28419497f9722a3daafe3b4186f6b6457e090600090a3600380546001600160a01b0319166001600160a01b0392909216919091179055565b6001600160a01b038316610f685760405162461bcd60e51b8152602060048201526024808201527f45524332303a20617070726f76652066726f6d20746865207a65726f206164646044820152637265737360e01b6064820152608401610679565b6001600160a01b038216610fc95760405162461bcd60e51b815260206004820152602260248201527f45524332303a20617070726f766520746f20746865207a65726f206164647265604482015261737360f01b6064820152608401610679565b6001600160a01b0383811660008181526001602090815260408083209487168084529482529182902085905590518481527f8c5be1e5ebec7d5bd14f71427d1e84f3dd0314c0f7b2291e5b200ac8c7c3b92591015b60405180910390a3505050565b6110358282611401565b610c3682336001600160a01b03851660009081526001602052604081206109e091869190336109c0565b6001600160a01b0382166110b55760405162461bcd60e51b815260206004820152601f60248201527f45524332303a206d696e7420746f20746865207a65726f2061646472657373006044820152606401610679565b6002546110c290826113d5565b6002556001600160a01b0382166000908152602081905260409020546110e890826113d5565b6001600160a01b038316600081815260208181526040808320949094559251848152919290917fddf252ad1be2c89b69c2b068fc378daa952ba7f163c4a11628f55a4df523b3ef91016106c5565b6001600160a01b03831661119a5760405162461bcd60e51b815260206004820152602560248201527f45524332303a207472616e736665722066726f6d20746865207a65726f206164604482015264647265737360d81b6064820152608401610679565b6001600160a01b0382166111fc5760405162461bcd60e51b815260206004820152602360248201527f45524332303a207472616e7366657220746f20746865207a65726f206164647260448201526265737360e81b6064820152608401610679565b6001600160a01b03831660009081526020819052604090205461121f908261129f565b6001600160a01b03808516600090815260208190526040808220939093559084168152205461124e90826113d5565b6001600160a01b038381166000818152602081815260409182902094909455518481529092918616917fddf252ad1be2c89b69c2b068fc378daa952ba7f163c4a11628f55a4df523b3ef910161101e565b6000828211156112bf57634e487b7160e01b600052600160045260246000fd5b6112c98284611712565b9392505050565b6001600160a01b03811661133c5760405162461bcd60e51b815260206004820152602d60248201527f6f70657261746f723a207a65726f206164647265737320676976656e20666f7260448201526c103732bb9037b832b930ba37b960991b6064820152608401610679565b6040516001600160a01b038216906000907f74da04524d50c64947f5dd5381ef1a4dca5cba8ed1d816243f9e48aa0b5617ed908290a3600480546001600160a01b0319166001600160a01b0392909216919091179055565b6000826113a3575060006105c7565b6113ad82846116f3565b9050816113ba84836116d3565b146105c757634e487b7160e01b600052600160045260246000fd5b60006113e182846116bb565b9050828110156105c757634e487b7160e01b600052600160045260246000fd5b6001600160a01b0382166114615760405162461bcd60e51b815260206004820152602160248201527f45524332303a206275726e2066726f6d20746865207a65726f206164647265736044820152607360f81b6064820152608401610679565b6001600160a01b038216600090815260208190526040902054611484908261129f565b6001600160a01b0383166000908152602081905260409020556002546114aa908261129f565b6002556040518181526000906001600160a01b038416907fddf252ad1be2c89b69c2b068fc378daa952ba7f163c4a11628f55a4df523b3ef906020016106c5565b80356001600160a01b038116811461150257600080fd5b919050565b600060208284031215611518578081fd5b6112c9826114eb565b60008060408385031215611533578081fd5b61153c836114eb565b915061154a602084016114eb565b90509250929050565b600080600060608486031215611567578081fd5b611570846114eb565b925061157e602085016114eb565b9150604084013590509250925092565b600080604083850312156115a0578182fd5b6115a9836114eb565b946020939093013593505050565b6000602082840312156115c8578081fd5b815180151581146112c9578182fd5b6000602082840312156115e8578081fd5b5035919050565b6000602080835283518082850152825b8181101561161b578581018301518582016040015282016115ff565b8181111561162c5783604083870101525b50601f01601f1916929092016040019392505050565b6020808252818101527f4f776e61626c653a2063616c6c6572206973206e6f7420746865206f776e6572604082015260600190565b60208082526024908201527f6f70657261746f723a2063616c6c6572206973206e6f7420746865206f70657260408201526330ba37b960e11b606082015260800190565b600082198211156116ce576116ce611764565b500190565b6000826116ee57634e487b7160e01b81526012600452602481fd5b500490565b600081600019048311821515161561170d5761170d611764565b500290565b60008282101561172457611724611764565b500390565b600181811c9082168061173d57607f821691505b6020821081141561175e57634e487b7160e01b600052602260045260246000fd5b50919050565b634e487b7160e01b600052601160045260246000fdfea26469706673582212209172f203b5344fbe0e84cf86bc33a5a92aa893d5785cef974d4da0244d5636b564736f6c63430008040033",
  "immutableReferences": {},
  "source": "// SPDX-License-Identifier: MIT\r\npragma solidity 0.8.4;\r\npragma experimental ABIEncoderV2;\r\n\r\nlibrary SafeMath {\r\n  function mul(uint256 a, uint256 b) internal pure returns (uint256 c) {\r\n    if (a == 0) {return 0;}\r\n    c = a * b;\r\n    assert(c / a == b);\r\n    return c;\r\n  }\r\n\r\n  function div(uint256 a, uint256 b) internal pure returns (uint256) {\r\n    return a / b;\r\n  }\r\n\r\n  function sub(uint256 a, uint256 b) internal pure returns (uint256) {\r\n    assert(b <= a);\r\n    return a - b;\r\n  }\r\n\r\n  function add(uint256 a, uint256 b) internal pure returns (uint256 c) {\r\n    c = a + b;\r\n    assert(c >= a);\r\n    return c;\r\n  }\r\n}\r\n\r\ninterface IEpoch {\r\n    function epoch() external view returns (uint256);\r\n\r\n    function nextEpochPoint() external view returns (uint256);\r\n}\r\n\r\ninterface ITreasury is IEpoch {\r\n    function hasPool(address _address) external view returns (bool);\r\n\r\n    function info()\r\n        external\r\n        view\r\n        returns (\r\n            uint256,\r\n            uint256,\r\n            uint256,\r\n            uint256,\r\n            uint256,\r\n            uint256,\r\n            uint256,\r\n            uint256\r\n        );\r\n\r\n    function epochInfo()\r\n        external\r\n        view\r\n        returns (\r\n            uint256,\r\n            uint256,\r\n            uint256,\r\n            uint256\r\n        );\r\n}\r\n\r\ninterface IERC20 {\r\n    function totalSupply() external view returns (uint256);\r\n    function balanceOf(address account) external view returns (uint256);\r\n    function transfer(address recipient, uint256 amount) external returns (bool);\r\n    function allowance(address owner, address spender) external view returns (uint256);\r\n    function approve(address spender, uint256 amount) external returns (bool);\r\n    function transferFrom(address sender, address recipient, uint256 amount) external returns (bool);\r\n    event Transfer(address indexed from, address indexed to, uint256 value);\r\n    event Approval(address indexed owner, address indexed spender, uint256 value);\r\n    \r\n    function name() external view returns (string memory);\r\n    function symbol() external view returns (string memory);\r\n    function decimals() external view returns (uint8);\r\n}\r\n\r\nabstract contract Context {\r\n    function _msgSender() internal view virtual returns (address) {\r\n        return msg.sender;\r\n    }\r\n\r\n    function _msgData() internal view virtual returns (bytes calldata) {\r\n        this;\r\n        return msg.data;\r\n    }\r\n}\r\n\r\nabstract contract Ownable is Context {\r\n    address private _owner;\r\n    event OwnershipTransferred(address indexed previousOwner, address indexed newOwner);\r\n\r\n    constructor () {\r\n        address msgSender = _msgSender();\r\n        _owner = msgSender;\r\n        emit OwnershipTransferred(address(0), msgSender);\r\n    }\r\n\r\n    function owner() public view virtual returns (address) {\r\n        return _owner;\r\n    }\r\n\r\n    modifier onlyOwner() {\r\n        require(owner() == _msgSender(), \"Ownable: caller is not the owner\");\r\n        _;\r\n    }\r\n\r\n    function renounceOwnership() public virtual onlyOwner {\r\n        emit OwnershipTransferred(_owner, address(0));\r\n        _owner = address(0);\r\n    }\r\n\r\n    function transferOwnership(address newOwner) public virtual onlyOwner {\r\n        require(newOwner != address(0), \"Ownable: new owner is the zero address\");\r\n        emit OwnershipTransferred(_owner, newOwner);\r\n        _owner = newOwner;\r\n    }\r\n}\r\n\r\nabstract contract Operator is Context, Ownable {\r\n    address private _operator;\r\n\r\n    event OperatorTransferred(address indexed previousOperator, address indexed newOperator);\r\n\r\n    constructor(){\r\n        _operator = _msgSender();\r\n        emit OperatorTransferred(address(0), _operator);\r\n    }\r\n\r\n    function operator() public view returns (address) {\r\n        return _operator;\r\n    }\r\n\r\n    modifier onlyOperator() {\r\n        require(_operator == msg.sender, \"operator: caller is not the operator\");\r\n        _;\r\n    }\r\n\r\n    function isOperator() public view returns (bool) {\r\n        return _msgSender() == _operator;\r\n    }\r\n\r\n    function transferOperator(address newOperator_) public onlyOwner {\r\n        _transferOperator(newOperator_);\r\n    }\r\n\r\n    function _transferOperator(address newOperator_) internal {\r\n        require(newOperator_ != address(0), \"operator: zero address given for new operator\");\r\n        emit OperatorTransferred(address(0), newOperator_);\r\n        _operator = newOperator_;\r\n    }\r\n}\r\n\r\nabstract contract ERC20Custom is Context, IERC20 {\r\n\tusing SafeMath for uint256;\r\n\r\n\tmapping (address => uint256) internal _balances;\r\n\tmapping (address => mapping (address => uint256)) internal _allowances;\r\n\tuint256 private _totalSupply;\r\n\r\n\tfunction totalSupply() public view override returns (uint256) {\r\n\t\treturn _totalSupply;\r\n\t}\r\n\r\n\tfunction balanceOf(address account) public view override returns (uint256) {\r\n\t\treturn _balances[account];\r\n\t}\r\n\r\n\tfunction allowance(address owner, address spender) public view virtual override returns (uint256) {\r\n\t\treturn _allowances[owner][spender];\r\n\t}\r\n\t\r\n\tfunction transfer(address recipient, uint256 amount) public virtual override returns (bool) {\r\n\t\t_transfer(_msgSender(), recipient, amount);\r\n\t\treturn true;\r\n\t}\r\n\r\n\r\n\tfunction approve(address spender, uint256 amount) public virtual override returns (bool) {\r\n\t\t_approve(_msgSender(), spender, amount);\r\n\t\treturn true;\r\n\t}\r\n\r\n\tfunction transferFrom(address sender, address recipient, uint256 amount) public virtual override returns (bool) {\r\n\t\t_transfer(sender, recipient, amount);\r\n\t\t_approve(sender, _msgSender(), _allowances[sender][_msgSender()].sub(amount));\r\n\t\treturn true;\r\n\t}\r\n\r\n\tfunction increaseAllowance(address spender, uint256 addedValue) public virtual returns (bool) {\r\n\t\t_approve(_msgSender(), spender, _allowances[_msgSender()][spender].add(addedValue));\r\n\t\treturn true;\r\n\t}\r\n\r\n\tfunction decreaseAllowance(address spender, uint256 subtractedValue) public virtual returns (bool) {\r\n\t\t_approve(_msgSender(), spender, _allowances[_msgSender()][spender].sub(subtractedValue));\r\n\t\treturn true;\r\n\t}\r\n\r\n\tfunction _transfer(address sender, address recipient, uint256 amount) internal virtual {\r\n\t\trequire(sender != address(0), \"ERC20: transfer from the zero address\");\r\n\t\trequire(recipient != address(0), \"ERC20: transfer to the zero address\");\r\n\r\n\t\t_beforeTokenTransfer(sender, recipient, amount);\r\n\r\n\t\t_balances[sender] = _balances[sender].sub(amount);\r\n\t\t_balances[recipient] = _balances[recipient].add(amount);\r\n\t\temit Transfer(sender, recipient, amount);\r\n\t}\r\n\r\n\tfunction _mint(address account, uint256 amount) internal virtual {\r\n\t\trequire(account != address(0), \"ERC20: mint to the zero address\");\r\n\r\n\t\t_beforeTokenTransfer(address(0), account, amount);\r\n\r\n\t\t_totalSupply = _totalSupply.add(amount);\r\n\t\t_balances[account] = _balances[account].add(amount);\r\n\t\temit Transfer(address(0), account, amount);\r\n\t}\r\n\r\n\tfunction burn(uint256 amount) public virtual {\r\n\t\t_burn(_msgSender(), amount);\r\n\t}\r\n\r\n\tfunction burnFrom(address account, uint256 amount) public virtual {\r\n\t\tuint256 decreasedAllowance = allowance(account, _msgSender()).sub(amount);\r\n\r\n\t\t_approve(account, _msgSender(), decreasedAllowance);\r\n\t\t_burn(account, amount);\r\n\t}\r\n\r\n\tfunction _burn(address account, uint256 amount) internal virtual {\r\n\t\trequire(account != address(0), \"ERC20: burn from the zero address\");\r\n\r\n\t\t_beforeTokenTransfer(account, address(0), amount);\r\n\r\n\t\t_balances[account] = _balances[account].sub(amount);\r\n\t\t_totalSupply = _totalSupply.sub(amount);\r\n\t\temit Transfer(account, address(0), amount);\r\n\t}\r\n\r\n\tfunction _approve(address owner, address spender, uint256 amount) internal virtual {\r\n\t\trequire(owner != address(0), \"ERC20: approve from the zero address\");\r\n\t\trequire(spender != address(0), \"ERC20: approve to the zero address\");\r\n\r\n\t\t_allowances[owner][spender] = amount;\r\n\t\temit Approval(owner, spender, amount);\r\n\t}\r\n\r\n\tfunction _burnFrom(address account, uint256 amount) internal virtual {\r\n\t\t_burn(account, amount);\r\n\t\t_approve(account, _msgSender(), _allowances[account][_msgSender()].sub(amount));\r\n\t}\r\n\r\n\tfunction _beforeTokenTransfer(address from, address to, uint256 amount) internal virtual { }\r\n}\r\n\r\n\r\ncontract Share is ERC20Custom, Operator {\r\n    using SafeMath for uint256;\r\n\r\n    /* ========== STATE VARIABLES ========== */\r\n\r\n    // ERC20 - Token\r\n    string public override symbol;\r\n    string public override name;\r\n    uint8 public constant override decimals = 18;\r\n\r\n    // CONTRACTS\r\n    address public treasury;\r\n\r\n    // FLAGS\r\n    bool public initialized;\r\n\r\n    // DISTRIBUTION\r\n    uint256 public constant COMMUNITY_REWARD_ALLOCATION = 80000000 ether; // 80M\r\n    uint256 public constant DEV_FUND_ALLOCATION = 0 ether; // 0\r\n    uint256 public constant VESTING_DURATION = 1 days;//365 days; // 12 months\r\n    uint256 public startTime; // Start time of vesting duration\r\n    uint256 public endTime; // End of vesting duration\r\n    address public devFund;\r\n    address public rewardController; // Holding SHARE tokens to distribute into Liquiditiy Mining Pools\r\n    uint256 public devFundLastClaimed;\r\n    uint256 public devFundEmissionRate = DEV_FUND_ALLOCATION / VESTING_DURATION;\r\n    uint256 public communityRewardClaimed;\r\n\r\n    /* ========== MODIFIERS ========== */\r\n\r\n    modifier onlyPools() {\r\n        require(ITreasury(treasury).hasPool(msg.sender), \"!pools\");\r\n        _;\r\n    }\r\n\r\n    /* ========== CONSTRUCTOR ========== */\r\n\r\n    constructor(string memory _name, string memory _symbol,  address _treasury){\r\n        name = _name;\r\n        symbol = _symbol;\r\n        treasury = _treasury;\r\n    }\r\n\r\n    function initialize(\r\n        address _devFund,\r\n        address _rewardController,\r\n        uint256 _startTime\r\n    ) external onlyOperator {\r\n        require(!initialized, \"alreadyInitialized\");\r\n        require(_rewardController != address(0), \"!rewardController\");\r\n        initialized = true;\r\n        devFund = _devFund;\r\n        rewardController = _rewardController;\r\n        startTime = _startTime;\r\n        endTime = _startTime + VESTING_DURATION;\r\n        devFundLastClaimed = _startTime;\r\n\r\n        _mint(msg.sender, 5000 ether);\r\n    }\r\n\r\n    function claimCommunityRewards(uint256 amount) external onlyOperator {\r\n        require(amount > 0, \"invalidAmount\");\r\n        require(initialized, \"!initialized\");\r\n        require(rewardController != address(0), \"!rewardController\");\r\n        uint256 _remainingRewards = COMMUNITY_REWARD_ALLOCATION.sub(communityRewardClaimed);\r\n        require(amount <= _remainingRewards, \"exceedRewards\");\r\n        communityRewardClaimed = communityRewardClaimed.add(amount);\r\n        _mint(rewardController, amount);\r\n    }\r\n\r\n    /* ========== RESTRICTED FUNCTIONS ========== */\r\n\r\n    function setTreasuryAddress(address _treasury) external onlyOperator {\r\n        treasury = _treasury;\r\n    }\r\n\r\n    function setDevFund(address _devFund) external {\r\n        require(msg.sender == devFund, \"!dev\");\r\n        require(_devFund != address(0), \"zero\");\r\n        devFund = _devFund;\r\n    }\r\n\r\n    // This function is what other Pools will call to mint new SHARE\r\n    function poolMint(address m_address, uint256 m_amount) external onlyPools {\r\n        super._mint(m_address, m_amount);\r\n        emit ShareMinted(address(this), m_address, m_amount);\r\n    }\r\n\r\n    // This function is what other pools will call to burn SHARE\r\n    function poolBurnFrom(address b_address, uint256 b_amount) external onlyPools {\r\n        super._burnFrom(b_address, b_amount);\r\n        emit ShareBurned(b_address, address(this), b_amount);\r\n    }\r\n\r\n    function unclaimedDevFund() public view returns (uint256 _pending) {\r\n        uint256 _now = block.timestamp;\r\n        if (_now > endTime) _now = endTime;\r\n        if (devFundLastClaimed >= _now) return 0;\r\n        _pending = _now.sub(devFundLastClaimed).mul(devFundEmissionRate);\r\n    }\r\n\r\n    function claimDevFundRewards() external {\r\n        require(msg.sender == devFund, \"!dev\");\r\n        uint256 _pending = unclaimedDevFund();\r\n        if (_pending > 0 && devFund != address(0)) {\r\n            _mint(devFund, _pending);\r\n            devFundLastClaimed = block.timestamp;\r\n        }\r\n    }\r\n\r\n    /* ========== EVENTS ========== */\r\n\r\n    // Track Share burned\r\n    event ShareBurned(address indexed from, address indexed to, uint256 amount);\r\n\r\n    // Track Share minted\r\n    event ShareMinted(address indexed from, address indexed to, uint256 amount);\r\n}\r\n",
  "sourcePath": "C:/Users/PaulMuller/Documents/projects/project_AGO/contracts/Share.sol",
  "compiler": {
    "name": "solc",
    "version": "0.8.4+commit.c7e474f2.Emscripten.clang"
  },
  "schemaVersion": "3.4.1",
  "updatedAt": "2021-06-23T10:50:16.826Z",
  "networkType": "ethereum",
  "devdoc": {
    "kind": "dev",
    "methods": {},
    "version": 1
  },
  "userdoc": {
    "kind": "user",
    "methods": {},
    "version": 1
  }
}