{
  "contractName": "ShareOracle",
  "abi": [
    {
      "inputs": [
        {
          "internalType": "address",
          "name": "_share",
          "type": "address"
        },
        {
          "internalType": "address",
          "name": "_oracleCnusdWMatic",
          "type": "address"
        },
        {
          "internalType": "address",
          "name": "_chainlinkWMaticUsd",
          "type": "address"
        }
      ],
      "stateMutability": "nonpayable",
      "type": "constructor"
    },
    {
      "anonymous": false,
      "inputs": [
        {
          "indexed": true,
          "internalType": "address",
          "name": "previousOperator",
          "type": "address"
        },
        {
          "indexed": true,
          "internalType": "address",
          "name": "newOperator",
          "type": "address"
        }
      ],
      "name": "OperatorTransferred",
      "type": "event"
    },
    {
      "anonymous": false,
      "inputs": [
        {
          "indexed": true,
          "internalType": "address",
          "name": "previousOwner",
          "type": "address"
        },
        {
          "indexed": true,
          "internalType": "address",
          "name": "newOwner",
          "type": "address"
        }
      ],
      "name": "OwnershipTransferred",
      "type": "event"
    },
    {
      "inputs": [],
      "name": "chainlinkWMaticUsd",
      "outputs": [
        {
          "internalType": "address",
          "name": "",
          "type": "address"
        }
      ],
      "stateMutability": "view",
      "type": "function"
    },
    {
      "inputs": [],
      "name": "isOperator",
      "outputs": [
        {
          "internalType": "bool",
          "name": "",
          "type": "bool"
        }
      ],
      "stateMutability": "view",
      "type": "function"
    },
    {
      "inputs": [],
      "name": "operator",
      "outputs": [
        {
          "internalType": "address",
          "name": "",
          "type": "address"
        }
      ],
      "stateMutability": "view",
      "type": "function"
    },
    {
      "inputs": [],
      "name": "oracleCnusdWMatic",
      "outputs": [
        {
          "internalType": "address",
          "name": "",
          "type": "address"
        }
      ],
      "stateMutability": "view",
      "type": "function"
    },
    {
      "inputs": [],
      "name": "owner",
      "outputs": [
        {
          "internalType": "address",
          "name": "",
          "type": "address"
        }
      ],
      "stateMutability": "view",
      "type": "function"
    },
    {
      "inputs": [],
      "name": "renounceOwnership",
      "outputs": [],
      "stateMutability": "nonpayable",
      "type": "function"
    },
    {
      "inputs": [],
      "name": "share",
      "outputs": [
        {
          "internalType": "address",
          "name": "",
          "type": "address"
        }
      ],
      "stateMutability": "view",
      "type": "function"
    },
    {
      "inputs": [
        {
          "internalType": "address",
          "name": "newOperator_",
          "type": "address"
        }
      ],
      "name": "transferOperator",
      "outputs": [],
      "stateMutability": "nonpayable",
      "type": "function"
    },
    {
      "inputs": [
        {
          "internalType": "address",
          "name": "newOwner",
          "type": "address"
        }
      ],
      "name": "transferOwnership",
      "outputs": [],
      "stateMutability": "nonpayable",
      "type": "function"
    },
    {
      "inputs": [],
      "name": "consult",
      "outputs": [
        {
          "internalType": "uint256",
          "name": "",
          "type": "uint256"
        }
      ],
      "stateMutability": "view",
      "type": "function"
    },
    {
      "inputs": [
        {
          "internalType": "address",
          "name": "_chainlinkWMaticUsd",
          "type": "address"
        }
      ],
      "name": "setChainlinkWMaticUsd",
      "outputs": [],
      "stateMutability": "nonpayable",
      "type": "function"
    },
    {
      "inputs": [
        {
          "internalType": "address",
          "name": "_oracleCnusdWMatic",
          "type": "address"
        }
      ],
      "name": "setOracleCnusdWMatic",
      "outputs": [],
      "stateMutability": "nonpayable",
      "type": "function"
    }
  ],
  "bytecode": "0x608060405273ab594600376ec9fd91f8e885dadf0ce036862de0600460006101000a81548173ffffffffffffffffffffffffffffffffffffffff021916908373ffffffffffffffffffffffffffffffffffffffff1602179055503480156200006657600080fd5b50604051620017b2380380620017b283398181016040528101906200008c9190620002f4565b60006200009e620002d560201b60201c565b9050806000806101000a81548173ffffffffffffffffffffffffffffffffffffffff021916908373ffffffffffffffffffffffffffffffffffffffff1602179055508073ffffffffffffffffffffffffffffffffffffffff16600073ffffffffffffffffffffffffffffffffffffffff167f8be0079c531659141344cd1fd0a4f28419497f9722a3daafe3b4186f6b6457e060405160405180910390a3506200014c620002d560201b60201c565b600160006101000a81548173ffffffffffffffffffffffffffffffffffffffff021916908373ffffffffffffffffffffffffffffffffffffffff160217905550600160009054906101000a900473ffffffffffffffffffffffffffffffffffffffff1673ffffffffffffffffffffffffffffffffffffffff16600073ffffffffffffffffffffffffffffffffffffffff167f74da04524d50c64947f5dd5381ef1a4dca5cba8ed1d816243f9e48aa0b5617ed60405160405180910390a382600260006101000a81548173ffffffffffffffffffffffffffffffffffffffff021916908373ffffffffffffffffffffffffffffffffffffffff16021790555081600360006101000a81548173ffffffffffffffffffffffffffffffffffffffff021916908373ffffffffffffffffffffffffffffffffffffffff16021790555080600460006101000a81548173ffffffffffffffffffffffffffffffffffffffff021916908373ffffffffffffffffffffffffffffffffffffffff16021790555050505062000398565b600033905090565b600081519050620002ee816200037e565b92915050565b6000806000606084860312156200030a57600080fd5b60006200031a86828701620002dd565b93505060206200032d86828701620002dd565b92505060406200034086828701620002dd565b9150509250925092565b600062000357826200035e565b9050919050565b600073ffffffffffffffffffffffffffffffffffffffff82169050919050565b62000389816200034a565b81146200039557600080fd5b50565b61140a80620003a86000396000f3fe608060405234801561001057600080fd5b50600436106100b45760003560e01c806370b423eb1161007157806370b423eb14610167578063715018a6146101855780637eeda7031461018f5780638da5cb5b146101ad578063a8d5fd65146101cb578063f2fde38b146101e9576100b4565b8063136929fe146100b95780632447ca4d146100d557806329605e77146100f35780633ff556011461010f5780634456eda21461012b578063570ca73514610149575b600080fd5b6100d360048036038101906100ce9190610cb9565b610205565b005b6100dd6102d9565b6040516100ea9190610e64565b60405180910390f35b61010d60048036038101906101089190610cb9565b6102ff565b005b61012960048036038101906101249190610cb9565b610387565b005b61013361045b565b6040516101409190610ea8565b60405180910390f35b6101516104ba565b60405161015e9190610e64565b60405180910390f35b61016f6104e4565b60405161017c9190610e64565b60405180910390f35b61018d61050a565b005b610197610644565b6040516101a49190610f43565b60405180910390f35b6101b5610756565b6040516101c29190610e64565b60405180910390f35b6101d361077f565b6040516101e09190610e64565b60405180910390f35b61020360048036038101906101fe9190610cb9565b6107a5565b005b3373ffffffffffffffffffffffffffffffffffffffff16600160009054906101000a900473ffffffffffffffffffffffffffffffffffffffff1673ffffffffffffffffffffffffffffffffffffffff1614610295576040517f08c379a000000000000000000000000000000000000000000000000000000000815260040161028c90610f23565b60405180910390fd5b80600360006101000a81548173ffffffffffffffffffffffffffffffffffffffff021916908373ffffffffffffffffffffffffffffffffffffffff16021790555050565b600460009054906101000a900473ffffffffffffffffffffffffffffffffffffffff1681565b61030761094e565b73ffffffffffffffffffffffffffffffffffffffff16610325610756565b73ffffffffffffffffffffffffffffffffffffffff161461037b576040517f08c379a000000000000000000000000000000000000000000000000000000000815260040161037290610f03565b60405180910390fd5b61038481610956565b50565b3373ffffffffffffffffffffffffffffffffffffffff16600160009054906101000a900473ffffffffffffffffffffffffffffffffffffffff1673ffffffffffffffffffffffffffffffffffffffff1614610417576040517f08c379a000000000000000000000000000000000000000000000000000000000815260040161040e90610f23565b60405180910390fd5b80600460006101000a81548173ffffffffffffffffffffffffffffffffffffffff021916908373ffffffffffffffffffffffffffffffffffffffff16021790555050565b6000600160009054906101000a900473ffffffffffffffffffffffffffffffffffffffff1673ffffffffffffffffffffffffffffffffffffffff1661049e61094e565b73ffffffffffffffffffffffffffffffffffffffff1614905090565b6000600160009054906101000a900473ffffffffffffffffffffffffffffffffffffffff16905090565b600360009054906101000a900473ffffffffffffffffffffffffffffffffffffffff1681565b61051261094e565b73ffffffffffffffffffffffffffffffffffffffff16610530610756565b73ffffffffffffffffffffffffffffffffffffffff1614610586576040517f08c379a000000000000000000000000000000000000000000000000000000000815260040161057d90610f03565b60405180910390fd5b600073ffffffffffffffffffffffffffffffffffffffff1660008054906101000a900473ffffffffffffffffffffffffffffffffffffffff1673ffffffffffffffffffffffffffffffffffffffff167f8be0079c531659141344cd1fd0a4f28419497f9722a3daafe3b4186f6b6457e060405160405180910390a360008060006101000a81548173ffffffffffffffffffffffffffffffffffffffff021916908373ffffffffffffffffffffffffffffffffffffffff160217905550565b60008061064f610a65565b90506000600360009054906101000a900473ffffffffffffffffffffffffffffffffffffffff1673ffffffffffffffffffffffffffffffffffffffff16633ddac953600260009054906101000a900473ffffffffffffffffffffffffffffffffffffffff16620f42406040518363ffffffff1660e01b81526004016106d5929190610e7f565b60206040518083038186803b1580156106ed57600080fd5b505afa158015610701573d6000803e3d6000fd5b505050506040513d601f19601f820116820180604052508101906107259190610ce2565b905061074f620f42406107418385610bd190919063ffffffff16565b610c3a90919063ffffffff16565b9250505090565b60008060009054906101000a900473ffffffffffffffffffffffffffffffffffffffff16905090565b600260009054906101000a900473ffffffffffffffffffffffffffffffffffffffff1681565b6107ad61094e565b73ffffffffffffffffffffffffffffffffffffffff166107cb610756565b73ffffffffffffffffffffffffffffffffffffffff1614610821576040517f08c379a000000000000000000000000000000000000000000000000000000000815260040161081890610f03565b60405180910390fd5b600073ffffffffffffffffffffffffffffffffffffffff168173ffffffffffffffffffffffffffffffffffffffff161415610891576040517f08c379a000000000000000000000000000000000000000000000000000000000815260040161088890610ec3565b60405180910390fd5b8073ffffffffffffffffffffffffffffffffffffffff1660008054906101000a900473ffffffffffffffffffffffffffffffffffffffff1673ffffffffffffffffffffffffffffffffffffffff167f8be0079c531659141344cd1fd0a4f28419497f9722a3daafe3b4186f6b6457e060405160405180910390a3806000806101000a81548173ffffffffffffffffffffffffffffffffffffffff021916908373ffffffffffffffffffffffffffffffffffffffff16021790555050565b600033905090565b600073ffffffffffffffffffffffffffffffffffffffff168173ffffffffffffffffffffffffffffffffffffffff1614156109c6576040517f08c379a00000000000000000000000000000000000000000000000000000000081526004016109bd90610ee3565b60405180910390fd5b8073ffffffffffffffffffffffffffffffffffffffff16600073ffffffffffffffffffffffffffffffffffffffff167f74da04524d50c64947f5dd5381ef1a4dca5cba8ed1d816243f9e48aa0b5617ed60405160405180910390a380600160006101000a81548173ffffffffffffffffffffffffffffffffffffffff021916908373ffffffffffffffffffffffffffffffffffffffff16021790555050565b600080600460009054906101000a900473ffffffffffffffffffffffffffffffffffffffff16905060008173ffffffffffffffffffffffffffffffffffffffff1663feaf968c6040518163ffffffff1660e01b815260040160a06040518083038186803b158015610ad557600080fd5b505afa158015610ae9573d6000803e3d6000fd5b505050506040513d601f19601f82011682018060405250810190610b0d9190610d0b565b50505091505060008273ffffffffffffffffffffffffffffffffffffffff1663313ce5676040518163ffffffff1660e01b815260040160206040518083038186803b158015610b5b57600080fd5b505afa158015610b6f573d6000803e3d6000fd5b505050506040513d601f19601f82011682018060405250810190610b939190610d82565b9050610bc981600a610ba59190610ff3565b610bbb620f424085610bd190919063ffffffff16565b610c3a90919063ffffffff16565b935050505090565b600080831415610be45760009050610c34565b8183610bf09190611111565b9050818382610bff9190610f6f565b14610c33577f4e487b7100000000000000000000000000000000000000000000000000000000600052600160045260246000fd5b5b92915050565b60008183610c489190610f6f565b905092915050565b600081359050610c5f81611361565b92915050565b600081519050610c7481611378565b92915050565b600081519050610c898161138f565b92915050565b600081519050610c9e816113bd565b92915050565b600081519050610cb3816113a6565b92915050565b600060208284031215610ccb57600080fd5b6000610cd984828501610c50565b91505092915050565b600060208284031215610cf457600080fd5b6000610d0284828501610c7a565b91505092915050565b600080600080600060a08688031215610d2357600080fd5b6000610d3188828901610c8f565b9550506020610d4288828901610c65565b9450506040610d5388828901610c7a565b9350506060610d6488828901610c7a565b9250506080610d7588828901610c8f565b9150509295509295909350565b600060208284031215610d9457600080fd5b6000610da284828501610ca4565b91505092915050565b610db48161116b565b82525050565b610dc38161117d565b82525050565b6000610dd6602683610f5e565b9150610de18261124b565b604082019050919050565b6000610df9602d83610f5e565b9150610e048261129a565b604082019050919050565b6000610e1c602083610f5e565b9150610e27826112e9565b602082019050919050565b6000610e3f602483610f5e565b9150610e4a82611312565b604082019050919050565b610e5e816111b3565b82525050565b6000602082019050610e796000830184610dab565b92915050565b6000604082019050610e946000830185610dab565b610ea16020830184610e55565b9392505050565b6000602082019050610ebd6000830184610dba565b92915050565b60006020820190508181036000830152610edc81610dc9565b9050919050565b60006020820190508181036000830152610efc81610dec565b9050919050565b60006020820190508181036000830152610f1c81610e0f565b9050919050565b60006020820190508181036000830152610f3c81610e32565b9050919050565b6000602082019050610f586000830184610e55565b92915050565b600082825260208201905092915050565b6000610f7a826111b3565b9150610f85836111b3565b925082610f9557610f9461120f565b5b828204905092915050565b6000808291508390505b6001851115610fea57808604811115610fc657610fc56111e0565b5b6001851615610fd55780820291505b8081029050610fe38561123e565b9450610faa565b94509492505050565b6000610ffe826111b3565b9150611009836111bd565b92506110367fffffffffffffffffffffffffffffffffffffffffffffffffffffffffffffffff848461103e565b905092915050565b60008261104e576001905061110a565b8161105c576000905061110a565b8160018114611072576002811461107c576110ab565b600191505061110a565b60ff84111561108e5761108d6111e0565b5b8360020a9150848211156110a5576110a46111e0565b5b5061110a565b5060208310610133831016604e8410600b84101617156110e05782820a9050838111156110db576110da6111e0565b5b61110a565b6110ed8484846001610fa0565b92509050818404811115611104576111036111e0565b5b81810290505b9392505050565b600061111c826111b3565b9150611127836111b3565b9250817fffffffffffffffffffffffffffffffffffffffffffffffffffffffffffffffff04831182151516156111605761115f6111e0565b5b828202905092915050565b600061117682611193565b9050919050565b60008115159050919050565b6000819050919050565b600073ffffffffffffffffffffffffffffffffffffffff82169050919050565b6000819050919050565b600060ff82169050919050565b600069ffffffffffffffffffff82169050919050565b7f4e487b7100000000000000000000000000000000000000000000000000000000600052601160045260246000fd5b7f4e487b7100000000000000000000000000000000000000000000000000000000600052601260045260246000fd5b60008160011c9050919050565b7f4f776e61626c653a206e6577206f776e657220697320746865207a65726f206160008201527f6464726573730000000000000000000000000000000000000000000000000000602082015250565b7f6f70657261746f723a207a65726f206164647265737320676976656e20666f7260008201527f206e6577206f70657261746f7200000000000000000000000000000000000000602082015250565b7f4f776e61626c653a2063616c6c6572206973206e6f7420746865206f776e6572600082015250565b7f6f70657261746f723a2063616c6c6572206973206e6f7420746865206f70657260008201527f61746f7200000000000000000000000000000000000000000000000000000000602082015250565b61136a8161116b565b811461137557600080fd5b50565b61138181611189565b811461138c57600080fd5b50565b611398816111b3565b81146113a357600080fd5b50565b6113af816111bd565b81146113ba57600080fd5b50565b6113c6816111ca565b81146113d157600080fd5b5056fea2646970667358221220ca0ad55ad2d35980d55df45d7318ad8ed93f9eb87c74f6536e1b71e4427e14d464736f6c63430008040033",
  "immutableReferences": {},
  "source": "// SPDX-License-Identifier: MIT\npragma solidity 0.8.4;\npragma experimental ABIEncoderV2;\n\n\nlibrary SafeMath {\n  function mul(uint256 a, uint256 b) internal pure returns (uint256 c) {\n    if (a == 0) {return 0;}\n    c = a * b;\n    assert(c / a == b);\n    return c;\n  }\n\n  function div(uint256 a, uint256 b) internal pure returns (uint256) {\n    return a / b;\n  }\n\n  function sub(uint256 a, uint256 b) internal pure returns (uint256) {\n    assert(b <= a);\n    return a - b;\n  }\n\n  function add(uint256 a, uint256 b) internal pure returns (uint256 c) {\n    c = a + b;\n    assert(c >= a);\n    return c;\n  }\n}\n\ninterface AggregatorV3Interface {\n    function decimals() external view returns (uint8);\n    function description() external view returns (string memory);\n    function version() external view returns (uint256);\n    function latestAnswer() external view returns(int256);\n    function getRoundData(uint80 _roundId) external view returns (\n        uint80 roundId,\n        int256 answer,\n        uint256 startedAt,\n        uint256 updatedAt,\n        uint80 answeredInRound\n    );\n    function latestRoundData() external view returns (\n        uint80 roundId,\n        int256 answer,\n        uint256 startedAt,\n        uint256 updatedAt,\n        uint80 answeredInRound\n    );\n}\n\ninterface IOracle {\n    function consult() external view returns (uint256);\n}\n\ninterface IPairOracle {\n    function consult(address token, uint256 amountIn) external view returns (uint256 amountOut);\n    function update() external;\n}\n\nabstract contract Context {\n    function _msgSender() internal view virtual returns (address) {\n        return msg.sender;\n    }\n\n    function _msgData() internal view virtual returns (bytes calldata) {\n        this;\n        return msg.data;\n    }\n}\n\nabstract contract Ownable is Context {\n    address private _owner;\n    event OwnershipTransferred(address indexed previousOwner, address indexed newOwner);\n\n    constructor () {\n        address msgSender = _msgSender();\n        _owner = msgSender;\n        emit OwnershipTransferred(address(0), msgSender);\n    }\n\n    function owner() public view virtual returns (address) {\n        return _owner;\n    }\n\n    modifier onlyOwner() {\n        require(owner() == _msgSender(), \"Ownable: caller is not the owner\");\n        _;\n    }\n\n    function renounceOwnership() public virtual onlyOwner {\n        emit OwnershipTransferred(_owner, address(0));\n        _owner = address(0);\n    }\n\n    function transferOwnership(address newOwner) public virtual onlyOwner {\n        require(newOwner != address(0), \"Ownable: new owner is the zero address\");\n        emit OwnershipTransferred(_owner, newOwner);\n        _owner = newOwner;\n    }\n}\n\nabstract contract Operator is Context, Ownable {\n    address private _operator;\n\n    event OperatorTransferred(address indexed previousOperator, address indexed newOperator);\n\n    constructor(){\n        _operator = _msgSender();\n        emit OperatorTransferred(address(0), _operator);\n    }\n\n    function operator() public view returns (address) {\n        return _operator;\n    }\n\n    modifier onlyOperator() {\n        require(_operator == msg.sender, \"operator: caller is not the operator\");\n        _;\n    }\n\n    function isOperator() public view returns (bool) {\n        return _msgSender() == _operator;\n    }\n\n    function transferOperator(address newOperator_) public onlyOwner {\n        _transferOperator(newOperator_);\n    }\n\n    function _transferOperator(address newOperator_) internal {\n        require(newOperator_ != address(0), \"operator: zero address given for new operator\");\n        emit OperatorTransferred(address(0), newOperator_);\n        _operator = newOperator_;\n    }\n}\n\ncontract ShareOracle is Operator, IOracle {\n    using SafeMath for uint256;\n    address public share;\n    address public oracleCnusdWMatic;\n    address public chainlinkWMaticUsd = 0xAB594600376Ec9fD91F8e885dADF0CE036862dE0;\n\n    uint256 private constant PRICE_PRECISION = 1e6;\n\n    constructor(\n        address _share,\n        address _oracleCnusdWMatic,\n        address _chainlinkWMaticUsd\n    ){\n        share = _share;\n        oracleCnusdWMatic = _oracleCnusdWMatic;\n        chainlinkWMaticUsd = _chainlinkWMaticUsd;\n    }\n\n    function consult() external view override returns (uint256) {\n        uint256 _priceWMaticUsd = priceWMaticUsd();\n        uint256 _priceCnusdWMatic = IPairOracle(oracleCnusdWMatic).consult(share, PRICE_PRECISION);\n        return _priceWMaticUsd.mul(_priceCnusdWMatic).div(PRICE_PRECISION);\n    }\n\n    function priceWMaticUsd() internal view returns (uint256) {\n        AggregatorV3Interface _priceFeed = AggregatorV3Interface(chainlinkWMaticUsd);\n        (, int256 _price, , , ) = _priceFeed.latestRoundData();\n        uint8 _decimals = _priceFeed.decimals();\n        return uint256(_price).mul(PRICE_PRECISION).div(uint256(10)**_decimals);\n    }\n\n    function setChainlinkWMaticUsd(address _chainlinkWMaticUsd) external onlyOperator {\n        chainlinkWMaticUsd = _chainlinkWMaticUsd;\n    }\n\n    function setOracleCnusdWMatic(address _oracleCnusdWMatic) external onlyOperator {\n        oracleCnusdWMatic = _oracleCnusdWMatic;\n    }\n}\n",
  "sourcePath": "/home/kali/Documents/project_AGO/contracts/oracle/ShareOracle.sol",
  "compiler": {
    "name": "solc",
    "version": "0.8.4+commit.c7e474f2.Emscripten.clang"
  },
  "schemaVersion": "3.3.4",
  "updatedAt": "2021-06-23T02:20:51.151Z",
  "devdoc": {
    "kind": "dev",
    "methods": {},
    "version": 1
  },
  "userdoc": {
    "kind": "user",
    "methods": {},
    "version": 1
  }
}