{
  "contractName": "Share",
  "abi": [
    {
      "inputs": [
        {
          "internalType": "string",
          "name": "_name",
          "type": "string"
        },
        {
          "internalType": "string",
          "name": "_symbol",
          "type": "string"
        },
        {
          "internalType": "uint256",
          "name": "_hardCap",
          "type": "uint256"
        },
        {
          "internalType": "uint256",
          "name": "_genesisSupply",
          "type": "uint256"
        },
        {
          "internalType": "uint256",
          "name": "_communityRewardAllocation",
          "type": "uint256"
        },
        {
          "internalType": "address",
          "name": "_treasury",
          "type": "address"
        },
        {
          "internalType": "address",
          "name": "_rewardController",
          "type": "address"
        }
      ],
      "stateMutability": "nonpayable",
      "type": "constructor"
    },
    {
      "anonymous": false,
      "inputs": [
        {
          "indexed": true,
          "internalType": "address",
          "name": "owner",
          "type": "address"
        },
        {
          "indexed": true,
          "internalType": "address",
          "name": "spender",
          "type": "address"
        },
        {
          "indexed": false,
          "internalType": "uint256",
          "name": "value",
          "type": "uint256"
        }
      ],
      "name": "Approval",
      "type": "event"
    },
    {
      "anonymous": false,
      "inputs": [
        {
          "indexed": false,
          "internalType": "address",
          "name": "controller",
          "type": "address"
        },
        {
          "indexed": false,
          "internalType": "uint256",
          "name": "amount",
          "type": "uint256"
        }
      ],
      "name": "CommunityRewardsClaimed",
      "type": "event"
    },
    {
      "anonymous": false,
      "inputs": [
        {
          "indexed": false,
          "internalType": "address",
          "name": "treasury",
          "type": "address"
        }
      ],
      "name": "NewTreasuryAddress",
      "type": "event"
    },
    {
      "anonymous": false,
      "inputs": [
        {
          "indexed": true,
          "internalType": "address",
          "name": "previousOwner",
          "type": "address"
        },
        {
          "indexed": true,
          "internalType": "address",
          "name": "newOwner",
          "type": "address"
        }
      ],
      "name": "OwnershipTransferred",
      "type": "event"
    },
    {
      "anonymous": false,
      "inputs": [
        {
          "indexed": true,
          "internalType": "address",
          "name": "from",
          "type": "address"
        },
        {
          "indexed": true,
          "internalType": "address",
          "name": "to",
          "type": "address"
        },
        {
          "indexed": false,
          "internalType": "uint256",
          "name": "amount",
          "type": "uint256"
        }
      ],
      "name": "ShareBurned",
      "type": "event"
    },
    {
      "anonymous": false,
      "inputs": [
        {
          "indexed": true,
          "internalType": "address",
          "name": "from",
          "type": "address"
        },
        {
          "indexed": true,
          "internalType": "address",
          "name": "to",
          "type": "address"
        },
        {
          "indexed": false,
          "internalType": "uint256",
          "name": "amount",
          "type": "uint256"
        }
      ],
      "name": "ShareMinted",
      "type": "event"
    },
    {
      "anonymous": false,
      "inputs": [
        {
          "indexed": true,
          "internalType": "address",
          "name": "from",
          "type": "address"
        },
        {
          "indexed": true,
          "internalType": "address",
          "name": "to",
          "type": "address"
        },
        {
          "indexed": false,
          "internalType": "uint256",
          "name": "value",
          "type": "uint256"
        }
      ],
      "name": "Transfer",
      "type": "event"
    },
    {
      "inputs": [
        {
          "internalType": "address",
          "name": "owner",
          "type": "address"
        },
        {
          "internalType": "address",
          "name": "spender",
          "type": "address"
        }
      ],
      "name": "allowance",
      "outputs": [
        {
          "internalType": "uint256",
          "name": "",
          "type": "uint256"
        }
      ],
      "stateMutability": "view",
      "type": "function"
    },
    {
      "inputs": [
        {
          "internalType": "address",
          "name": "spender",
          "type": "address"
        },
        {
          "internalType": "uint256",
          "name": "amount",
          "type": "uint256"
        }
      ],
      "name": "approve",
      "outputs": [
        {
          "internalType": "bool",
          "name": "",
          "type": "bool"
        }
      ],
      "stateMutability": "nonpayable",
      "type": "function"
    },
    {
      "inputs": [
        {
          "internalType": "address",
          "name": "account",
          "type": "address"
        }
      ],
      "name": "balanceOf",
      "outputs": [
        {
          "internalType": "uint256",
          "name": "",
          "type": "uint256"
        }
      ],
      "stateMutability": "view",
      "type": "function"
    },
    {
      "inputs": [],
      "name": "cap",
      "outputs": [
        {
          "internalType": "uint256",
          "name": "",
          "type": "uint256"
        }
      ],
      "stateMutability": "view",
      "type": "function"
    },
    {
      "inputs": [],
      "name": "communityRewardAllocation",
      "outputs": [
        {
          "internalType": "uint256",
          "name": "",
          "type": "uint256"
        }
      ],
      "stateMutability": "view",
      "type": "function"
    },
    {
      "inputs": [],
      "name": "communityRewardClaimed",
      "outputs": [
        {
          "internalType": "uint256",
          "name": "",
          "type": "uint256"
        }
      ],
      "stateMutability": "view",
      "type": "function"
    },
    {
      "inputs": [],
      "name": "decimals",
      "outputs": [
        {
          "internalType": "uint8",
          "name": "",
          "type": "uint8"
        }
      ],
      "stateMutability": "view",
      "type": "function"
    },
    {
      "inputs": [
        {
          "internalType": "address",
          "name": "spender",
          "type": "address"
        },
        {
          "internalType": "uint256",
          "name": "subtractedValue",
          "type": "uint256"
        }
      ],
      "name": "decreaseAllowance",
      "outputs": [
        {
          "internalType": "bool",
          "name": "",
          "type": "bool"
        }
      ],
      "stateMutability": "nonpayable",
      "type": "function"
    },
    {
      "inputs": [],
      "name": "genesisSupply",
      "outputs": [
        {
          "internalType": "uint256",
          "name": "",
          "type": "uint256"
        }
      ],
      "stateMutability": "view",
      "type": "function"
    },
    {
      "inputs": [
        {
          "internalType": "address",
          "name": "spender",
          "type": "address"
        },
        {
          "internalType": "uint256",
          "name": "addedValue",
          "type": "uint256"
        }
      ],
      "name": "increaseAllowance",
      "outputs": [
        {
          "internalType": "bool",
          "name": "",
          "type": "bool"
        }
      ],
      "stateMutability": "nonpayable",
      "type": "function"
    },
    {
      "inputs": [],
      "name": "name",
      "outputs": [
        {
          "internalType": "string",
          "name": "",
          "type": "string"
        }
      ],
      "stateMutability": "view",
      "type": "function"
    },
    {
      "inputs": [],
      "name": "owner",
      "outputs": [
        {
          "internalType": "address",
          "name": "",
          "type": "address"
        }
      ],
      "stateMutability": "view",
      "type": "function"
    },
    {
      "inputs": [],
      "name": "renounceOwnership",
      "outputs": [],
      "stateMutability": "nonpayable",
      "type": "function"
    },
    {
      "inputs": [],
      "name": "rewardController",
      "outputs": [
        {
          "internalType": "address",
          "name": "",
          "type": "address"
        }
      ],
      "stateMutability": "view",
      "type": "function"
    },
    {
      "inputs": [],
      "name": "symbol",
      "outputs": [
        {
          "internalType": "string",
          "name": "",
          "type": "string"
        }
      ],
      "stateMutability": "view",
      "type": "function"
    },
    {
      "inputs": [],
      "name": "totalSupply",
      "outputs": [
        {
          "internalType": "uint256",
          "name": "",
          "type": "uint256"
        }
      ],
      "stateMutability": "view",
      "type": "function"
    },
    {
      "inputs": [
        {
          "internalType": "address",
          "name": "recipient",
          "type": "address"
        },
        {
          "internalType": "uint256",
          "name": "amount",
          "type": "uint256"
        }
      ],
      "name": "transfer",
      "outputs": [
        {
          "internalType": "bool",
          "name": "",
          "type": "bool"
        }
      ],
      "stateMutability": "nonpayable",
      "type": "function"
    },
    {
      "inputs": [
        {
          "internalType": "address",
          "name": "sender",
          "type": "address"
        },
        {
          "internalType": "address",
          "name": "recipient",
          "type": "address"
        },
        {
          "internalType": "uint256",
          "name": "amount",
          "type": "uint256"
        }
      ],
      "name": "transferFrom",
      "outputs": [
        {
          "internalType": "bool",
          "name": "",
          "type": "bool"
        }
      ],
      "stateMutability": "nonpayable",
      "type": "function"
    },
    {
      "inputs": [
        {
          "internalType": "address",
          "name": "newOwner",
          "type": "address"
        }
      ],
      "name": "transferOwnership",
      "outputs": [],
      "stateMutability": "nonpayable",
      "type": "function"
    },
    {
      "inputs": [],
      "name": "treasury",
      "outputs": [
        {
          "internalType": "address",
          "name": "",
          "type": "address"
        }
      ],
      "stateMutability": "view",
      "type": "function"
    },
    {
      "inputs": [],
      "name": "mintGenesisSupply",
      "outputs": [],
      "stateMutability": "nonpayable",
      "type": "function"
    },
    {
      "inputs": [
        {
          "internalType": "uint256",
          "name": "amount",
          "type": "uint256"
        }
      ],
      "name": "claimCommunityRewards",
      "outputs": [],
      "stateMutability": "nonpayable",
      "type": "function"
    },
    {
      "inputs": [
        {
          "internalType": "address",
          "name": "_treasury",
          "type": "address"
        }
      ],
      "name": "setTreasuryAddress",
      "outputs": [],
      "stateMutability": "nonpayable",
      "type": "function"
    },
    {
      "inputs": [
        {
          "internalType": "address",
          "name": "m_address",
          "type": "address"
        },
        {
          "internalType": "uint256",
          "name": "m_amount",
          "type": "uint256"
        }
      ],
      "name": "poolMint",
      "outputs": [],
      "stateMutability": "nonpayable",
      "type": "function"
    },
    {
      "inputs": [
        {
          "internalType": "address",
          "name": "b_address",
          "type": "address"
        },
        {
          "internalType": "uint256",
          "name": "b_amount",
          "type": "uint256"
        }
      ],
      "name": "poolBurnFrom",
      "outputs": [],
      "stateMutability": "nonpayable",
      "type": "function"
    }
  ],
  "bytecode": "0x60a06040526006805460ff60a01b191690553480156200001e57600080fd5b506040516200190e3803806200190e833981016040819052620000419162000427565b84878781600390805190602001906200005c929190620002b1565b50805162000072906004906020840190620002b1565b50505060008111620000cb5760405162461bcd60e51b815260206004820152601560248201527f45524332304361707065643a206361702069732030000000000000000000000060448201526064015b60405180910390fd5b608052620000d93362000169565b6001600160a01b038116620001315760405162461bcd60e51b815260206004820152601360248201527f626164526577617264436f6e74726f6c6c6572000000000000000000000000006044820152606401620000c2565b600880546001600160a01b0319166001600160a01b0383161790556200015782620001bb565b50506009556007555062000523915050565b600580546001600160a01b038381166001600160a01b0319831681179093556040519116919082907f8be0079c531659141344cd1fd0a4f28419497f9722a3daafe3b4186f6b6457e090600090a35050565b6005546001600160a01b03163314620002175760405162461bcd60e51b815260206004820181905260248201527f4f776e61626c653a2063616c6c6572206973206e6f7420746865206f776e65726044820152606401620000c2565b6001600160a01b0381166200025d5760405162461bcd60e51b815260206004820152600b60248201526a626164547265617375727960a81b6044820152606401620000c2565b600680546001600160a01b0319166001600160a01b0383169081179091556040519081527f8b4531436af204a864adc47c345e10cb5c4df79165aa0cb85fc45ac5b551517b9060200160405180910390a150565b828054620002bf90620004d0565b90600052602060002090601f016020900481019282620002e357600085556200032e565b82601f10620002fe57805160ff19168380011785556200032e565b828001600101855582156200032e579182015b828111156200032e57825182559160200191906001019062000311565b506200033c92915062000340565b5090565b5b808211156200033c576000815560010162000341565b80516001600160a01b03811681146200036f57600080fd5b919050565b600082601f83011262000385578081fd5b81516001600160401b0380821115620003a257620003a26200050d565b604051601f8301601f19908116603f01168101908282118183101715620003cd57620003cd6200050d565b81604052838152602092508683858801011115620003e9578485fd5b8491505b838210156200040c5785820183015181830184015290820190620003ed565b838211156200041d57848385830101525b9695505050505050565b600080600080600080600060e0888a03121562000442578283fd5b87516001600160401b038082111562000459578485fd5b620004678b838c0162000374565b985060208a01519150808211156200047d578485fd5b506200048c8a828b0162000374565b965050604088015194506060880151935060808801519250620004b260a0890162000357565b9150620004c260c0890162000357565b905092959891949750929550565b600181811c90821680620004e557607f821691505b602082108114156200050757634e487b7160e01b600052602260045260246000fd5b50919050565b634e487b7160e01b600052604160045260246000fd5b6080516113c862000546600039600081816102170152610df001526113c86000f3fe608060405234801561001057600080fd5b50600436106101735760003560e01c80636605bfda116100de57806395d89b4111610097578063a9059cbb11610071578063a9059cbb14610329578063d67e66351461033c578063dd62ed3e14610345578063f2fde38b1461037e57600080fd5b806395d89b4114610305578063a457c2d71461030d578063a790b5ca1461032057600080fd5b80636605bfda1461029557806370a08231146102a8578063715018a6146102d15780638cc5ce99146102d95780638da5cb5b146102ec5780638f83d3aa146102fd57600080fd5b8063313ce56711610130578063313ce56714610206578063355274ea14610215578063395093511461023b5780634744aa7f1461024e5780634bbf179b1461026157806361d027b31461026a57600080fd5b806306fdde0314610178578063095ea7b3146101965780630a0c165a146101b95780630c407d56146101ce57806318160ddd146101e157806323b872dd146101f3575b600080fd5b610180610391565b60405161018d919061128a565b60405180910390f35b6101a96101a4366004611229565b610423565b604051901515815260200161018d565b6101cc6101c7366004611229565b610439565b005b6101cc6101dc366004611229565b61054b565b6002545b60405190815260200161018d565b6101a96102013660046111ee565b610650565b6040516012815260200161018d565b7f00000000000000000000000000000000000000000000000000000000000000006101e5565b6101a9610249366004611229565b6106fa565b6101cc61025c366004611272565b610736565b6101e560075481565b60065461027d906001600160a01b031681565b6040516001600160a01b03909116815260200161018d565b6101cc6102a336600461119b565b610860565b6101e56102b636600461119b565b6001600160a01b031660009081526020819052604090205490565b6101cc61091c565b60085461027d906001600160a01b031681565b6005546001600160a01b031661027d565b6101cc610952565b610180610a33565b6101a961031b366004611229565b610a42565b6101e5600a5481565b6101a9610337366004611229565b610adb565b6101e560095481565b6101e56103533660046111bc565b6001600160a01b03918216600090815260016020908152604080832093909416825291909152205490565b6101cc61038c36600461119b565b610ae8565b6060600380546103a090611341565b80601f01602080910402602001604051908101604052809291908181526020018280546103cc90611341565b80156104195780601f106103ee57610100808354040283529160200191610419565b820191906000526020600020905b8154815290600101906020018083116103fc57829003601f168201915b5050505050905090565b6000610430338484610b83565b50600192915050565b6006546001600160a01b0316631246dbf5336040516001600160e01b031960e084901b1681526001600160a01b03909116600482015260240160206040518083038186803b15801561048a57600080fd5b505afa15801561049e573d6000803e3d6000fd5b505050506040513d601f19601f820116820180604052508101906104c29190611252565b6104fc5760405162461bcd60e51b815260206004820152600660248201526521706f6f6c7360d01b60448201526064015b60405180910390fd5b6105068282610ca8565b60405181815230906001600160a01b038416907fdf05d6cb804e48c3130d5f7811e55947769ccdecf499faea489170f17df227cf906020015b60405180910390a35050565b6006546001600160a01b0316631246dbf5336040516001600160e01b031960e084901b1681526001600160a01b03909116600482015260240160206040518083038186803b15801561059c57600080fd5b505afa1580156105b0573d6000803e3d6000fd5b505050506040513d601f19601f820116820180604052508101906105d49190611252565b6106095760405162461bcd60e51b815260206004820152600660248201526521706f6f6c7360d01b60448201526064016104f3565b6106138282610dee565b6040518181526001600160a01b0383169030907ff4d2b66b63836b39ffec28f88533e0f50c9136ab7d8d9b9976f93d3880e802059060200161053f565b600061065d848484610e7f565b6001600160a01b0384166000908152600160209081526040808320338452909152902054828110156106e25760405162461bcd60e51b815260206004820152602860248201527f45524332303a207472616e7366657220616d6f756e74206578636565647320616044820152676c6c6f77616e636560c01b60648201526084016104f3565b6106ef8533858403610b83565b506001949350505050565b3360008181526001602090815260408083206001600160a01b03871684529091528120549091610430918590610731908690611312565b610b83565b6005546001600160a01b031633146107605760405162461bcd60e51b81526004016104f3906112dd565b600081116107a05760405162461bcd60e51b815260206004820152600d60248201526c1a5b9d985b1a59105b5bdd5b9d609a1b60448201526064016104f3565b600a546009546107b0919061132a565b8111156107ef5760405162461bcd60e51b815260206004820152600d60248201526c6578636565645265776172647360981b60448201526064016104f3565b80600a546107fd9190611312565b600a55600854610816906001600160a01b031682610dee565b600854604080516001600160a01b039092168252602082018390527f30262f0f729ecff00de0b326459373e74c0affda0d3ead4b48742c556ca1114291015b60405180910390a150565b6005546001600160a01b0316331461088a5760405162461bcd60e51b81526004016104f3906112dd565b6001600160a01b0381166108ce5760405162461bcd60e51b815260206004820152600b60248201526a626164547265617375727960a81b60448201526064016104f3565b600680546001600160a01b0319166001600160a01b0383169081179091556040519081527f8b4531436af204a864adc47c345e10cb5c4df79165aa0cb85fc45ac5b551517b90602001610855565b6005546001600160a01b031633146109465760405162461bcd60e51b81526004016104f3906112dd565b610950600061104e565b565b6005546001600160a01b0316331461097c5760405162461bcd60e51b81526004016104f3906112dd565b600654600160a01b900460ff16156109d65760405162461bcd60e51b815260206004820152601a60248201527f67656e65736973537570706c79416c72656164794d696e74656400000000000060448201526064016104f3565b6006805460ff60a01b1916600160a01b1790556007546109f7903390610dee565b600754604051908152339030907ff4d2b66b63836b39ffec28f88533e0f50c9136ab7d8d9b9976f93d3880e802059060200160405180910390a3565b6060600480546103a090611341565b3360009081526001602090815260408083206001600160a01b038616845290915281205482811015610ac45760405162461bcd60e51b815260206004820152602560248201527f45524332303a2064656372656173656420616c6c6f77616e63652062656c6f77604482015264207a65726f60d81b60648201526084016104f3565b610ad13385858403610b83565b5060019392505050565b6000610430338484610e7f565b6005546001600160a01b03163314610b125760405162461bcd60e51b81526004016104f3906112dd565b6001600160a01b038116610b775760405162461bcd60e51b815260206004820152602660248201527f4f776e61626c653a206e6577206f776e657220697320746865207a65726f206160448201526564647265737360d01b60648201526084016104f3565b610b808161104e565b50565b6001600160a01b038316610be55760405162461bcd60e51b8152602060048201526024808201527f45524332303a20617070726f76652066726f6d20746865207a65726f206164646044820152637265737360e01b60648201526084016104f3565b6001600160a01b038216610c465760405162461bcd60e51b815260206004820152602260248201527f45524332303a20617070726f766520746f20746865207a65726f206164647265604482015261737360f01b60648201526084016104f3565b6001600160a01b0383811660008181526001602090815260408083209487168084529482529182902085905590518481527f8c5be1e5ebec7d5bd14f71427d1e84f3dd0314c0f7b2291e5b200ac8c7c3b92591015b60405180910390a3505050565b6001600160a01b038216610d085760405162461bcd60e51b815260206004820152602160248201527f45524332303a206275726e2066726f6d20746865207a65726f206164647265736044820152607360f81b60648201526084016104f3565b6001600160a01b03821660009081526020819052604090205481811015610d7c5760405162461bcd60e51b815260206004820152602260248201527f45524332303a206275726e20616d6f756e7420657863656564732062616c616e604482015261636560f01b60648201526084016104f3565b6001600160a01b0383166000908152602081905260408120838303905560028054849290610dab90849061132a565b90915550506040518281526000906001600160a01b038516907fddf252ad1be2c89b69c2b068fc378daa952ba7f163c4a11628f55a4df523b3ef90602001610c9b565b7f000000000000000000000000000000000000000000000000000000000000000081610e1960025490565b610e239190611312565b1115610e715760405162461bcd60e51b815260206004820152601960248201527f45524332304361707065643a206361702065786365656465640000000000000060448201526064016104f3565b610e7b82826110a0565b5050565b6001600160a01b038316610ee35760405162461bcd60e51b815260206004820152602560248201527f45524332303a207472616e736665722066726f6d20746865207a65726f206164604482015264647265737360d81b60648201526084016104f3565b6001600160a01b038216610f455760405162461bcd60e51b815260206004820152602360248201527f45524332303a207472616e7366657220746f20746865207a65726f206164647260448201526265737360e81b60648201526084016104f3565b6001600160a01b03831660009081526020819052604090205481811015610fbd5760405162461bcd60e51b815260206004820152602660248201527f45524332303a207472616e7366657220616d6f756e7420657863656564732062604482015265616c616e636560d01b60648201526084016104f3565b6001600160a01b03808516600090815260208190526040808220858503905591851681529081208054849290610ff4908490611312565b92505081905550826001600160a01b0316846001600160a01b03167fddf252ad1be2c89b69c2b068fc378daa952ba7f163c4a11628f55a4df523b3ef8460405161104091815260200190565b60405180910390a350505050565b600580546001600160a01b038381166001600160a01b0319831681179093556040519116919082907f8be0079c531659141344cd1fd0a4f28419497f9722a3daafe3b4186f6b6457e090600090a35050565b6001600160a01b0382166110f65760405162461bcd60e51b815260206004820152601f60248201527f45524332303a206d696e7420746f20746865207a65726f20616464726573730060448201526064016104f3565b80600260008282546111089190611312565b90915550506001600160a01b03821660009081526020819052604081208054839290611135908490611312565b90915550506040518181526001600160a01b038316906000907fddf252ad1be2c89b69c2b068fc378daa952ba7f163c4a11628f55a4df523b3ef9060200160405180910390a35050565b80356001600160a01b038116811461119657600080fd5b919050565b6000602082840312156111ac578081fd5b6111b58261117f565b9392505050565b600080604083850312156111ce578081fd5b6111d78361117f565b91506111e56020840161117f565b90509250929050565b600080600060608486031215611202578081fd5b61120b8461117f565b92506112196020850161117f565b9150604084013590509250925092565b6000806040838503121561123b578182fd5b6112448361117f565b946020939093013593505050565b600060208284031215611263578081fd5b815180151581146111b5578182fd5b600060208284031215611283578081fd5b5035919050565b6000602080835283518082850152825b818110156112b65785810183015185820160400152820161129a565b818111156112c75783604083870101525b50601f01601f1916929092016040019392505050565b6020808252818101527f4f776e61626c653a2063616c6c6572206973206e6f7420746865206f776e6572604082015260600190565b600082198211156113255761132561137c565b500190565b60008282101561133c5761133c61137c565b500390565b600181811c9082168061135557607f821691505b6020821081141561137657634e487b7160e01b600052602260045260246000fd5b50919050565b634e487b7160e01b600052601160045260246000fdfea2646970667358221220bc8efb4bd404230325da0858f058aec85ca6153a4ee39d76b38c8f05639e370b64736f6c63430008040033",
  "immutableReferences": {
    "8531": [
      {
        "length": 32,
        "start": 535
      },
      {
        "length": 32,
        "start": 3568
      }
    ]
  },
  "source": "// SPDX-License-Identifier: MIT\r\npragma solidity 0.8.4;\r\n\r\nimport \"@openzeppelin/contracts/access/Ownable.sol\";\r\nimport \"@openzeppelin/contracts/token/ERC20/extensions/ERC20Capped.sol\";\r\nimport \"./interfaces/ITreasury.sol\";\r\n\r\n\r\ncontract Share is ERC20Capped, Ownable {\r\n    address public treasury;\r\n    bool private genesisSupplyMinted = false;\r\n    uint256 public genesisSupply;\r\n\r\n    address public rewardController; // Holding SHARE tokens to distribute into Liquiditiy Mining Pools\r\n    uint256 public communityRewardAllocation;\r\n    uint256 public communityRewardClaimed;\r\n\r\n    modifier onlyPools() {\r\n        require( ITreasury( treasury ).hasPool( _msgSender() ), \"!pools\" );\r\n        _;\r\n    }\r\n\r\n    event ShareBurned(address indexed from, address indexed to, uint256 amount);// Track Share burned\r\n    event ShareMinted(address indexed from, address indexed to, uint256 amount);// Track Share minted\r\n    event NewTreasuryAddress(address treasury);// Track treasury address changes\r\n    event CommunityRewardsClaimed(address controller, uint256 amount);\r\n\r\n    constructor(\r\n        string memory _name, \r\n        string memory _symbol, \r\n        uint256 _hardCap,\r\n        uint256 _genesisSupply,\r\n        uint256 _communityRewardAllocation,\r\n        address _treasury,\r\n        address _rewardController\r\n    )\r\n        ERC20(_name, _symbol)\r\n        ERC20Capped(_hardCap)\r\n    {\r\n        require(_rewardController != address(0), \"badRewardController\");\r\n        rewardController = _rewardController;\r\n        setTreasuryAddress(_treasury);\r\n        communityRewardAllocation = _communityRewardAllocation;\r\n        genesisSupply = _genesisSupply;\r\n    }\r\n    \r\n    function mintGenesisSupply() external onlyOwner {\r\n        require(!genesisSupplyMinted, \"genesisSupplyAlreadyMinted\");\r\n        genesisSupplyMinted = true;\r\n        _mint(msg.sender, genesisSupply);// mint 1 time requiered amount for allocation\r\n        emit ShareMinted(address(this), msg.sender, genesisSupply);\r\n    }\r\n\r\n\r\n    function claimCommunityRewards(uint256 amount) external onlyOwner {\r\n        require(amount > 0, \"invalidAmount\");\r\n        require(amount <= ( communityRewardAllocation - communityRewardClaimed) , \"exceedRewards\");\r\n        communityRewardClaimed = communityRewardClaimed + amount;\r\n        _mint(rewardController, amount);\r\n        emit CommunityRewardsClaimed(rewardController, amount);\r\n    }\r\n\r\n\r\n    function setTreasuryAddress(address _treasury) public onlyOwner {\r\n        require(_treasury != address(0), \"badTreasury\");\r\n        treasury = _treasury;\r\n        emit NewTreasuryAddress(treasury);\r\n    }\r\n\r\n    // This function is what other Pools will call to mint new SHARE\r\n    function poolMint(address m_address, uint256 m_amount) external onlyPools {\r\n        _mint(m_address, m_amount);\r\n        emit ShareMinted(address(this), m_address, m_amount);\r\n    }\r\n\r\n    // This function is what other pools will call to burn SHARE\r\n    function poolBurnFrom(address b_address, uint256 b_amount) external onlyPools {\r\n        _burn(b_address, b_amount);\r\n        emit ShareBurned(b_address, address(this), b_amount);\r\n    }\r\n}\r\n",
  "sourcePath": "C:/Users/PaulMuller/Documents/projects/project_AGO/contracts/Share.sol",
  "compiler": {
    "name": "solc",
    "version": "0.8.4+commit.c7e474f2.Emscripten.clang"
  },
  "schemaVersion": "3.4.1",
  "updatedAt": "2021-08-08T11:17:19.653Z",
  "devdoc": {
    "kind": "dev",
    "methods": {
      "allowance(address,address)": {
        "details": "See {IERC20-allowance}."
      },
      "approve(address,uint256)": {
        "details": "See {IERC20-approve}. Requirements: - `spender` cannot be the zero address."
      },
      "balanceOf(address)": {
        "details": "See {IERC20-balanceOf}."
      },
      "cap()": {
        "details": "Returns the cap on the token's total supply."
      },
      "decimals()": {
        "details": "Returns the number of decimals used to get its user representation. For example, if `decimals` equals `2`, a balance of `505` tokens should be displayed to a user as `5,05` (`505 / 10 ** 2`). Tokens usually opt for a value of 18, imitating the relationship between Ether and Wei. This is the value {ERC20} uses, unless this function is overridden; NOTE: This information is only used for _display_ purposes: it in no way affects any of the arithmetic of the contract, including {IERC20-balanceOf} and {IERC20-transfer}."
      },
      "decreaseAllowance(address,uint256)": {
        "details": "Atomically decreases the allowance granted to `spender` by the caller. This is an alternative to {approve} that can be used as a mitigation for problems described in {IERC20-approve}. Emits an {Approval} event indicating the updated allowance. Requirements: - `spender` cannot be the zero address. - `spender` must have allowance for the caller of at least `subtractedValue`."
      },
      "increaseAllowance(address,uint256)": {
        "details": "Atomically increases the allowance granted to `spender` by the caller. This is an alternative to {approve} that can be used as a mitigation for problems described in {IERC20-approve}. Emits an {Approval} event indicating the updated allowance. Requirements: - `spender` cannot be the zero address."
      },
      "name()": {
        "details": "Returns the name of the token."
      },
      "owner()": {
        "details": "Returns the address of the current owner."
      },
      "renounceOwnership()": {
        "details": "Leaves the contract without owner. It will not be possible to call `onlyOwner` functions anymore. Can only be called by the current owner. NOTE: Renouncing ownership will leave the contract without an owner, thereby removing any functionality that is only available to the owner."
      },
      "symbol()": {
        "details": "Returns the symbol of the token, usually a shorter version of the name."
      },
      "totalSupply()": {
        "details": "See {IERC20-totalSupply}."
      },
      "transfer(address,uint256)": {
        "details": "See {IERC20-transfer}. Requirements: - `recipient` cannot be the zero address. - the caller must have a balance of at least `amount`."
      },
      "transferFrom(address,address,uint256)": {
        "details": "See {IERC20-transferFrom}. Emits an {Approval} event indicating the updated allowance. This is not required by the EIP. See the note at the beginning of {ERC20}. Requirements: - `sender` and `recipient` cannot be the zero address. - `sender` must have a balance of at least `amount`. - the caller must have allowance for ``sender``'s tokens of at least `amount`."
      },
      "transferOwnership(address)": {
        "details": "Transfers ownership of the contract to a new account (`newOwner`). Can only be called by the current owner."
      }
    },
    "version": 1
  },
  "userdoc": {
    "kind": "user",
    "methods": {},
    "version": 1
  }
}