{
  "contractName": "Treasury",
  "abi": [
    {
      "inputs": [
        {
          "internalType": "uint256",
          "name": "_startTime",
          "type": "uint256"
        },
        {
          "internalType": "uint256",
          "name": "_epoch_length",
          "type": "uint256"
        }
      ],
      "stateMutability": "nonpayable",
      "type": "constructor"
    },
    {
      "anonymous": false,
      "inputs": [
        {
          "indexed": false,
          "internalType": "uint256",
          "name": "collateral_value",
          "type": "uint256"
        },
        {
          "indexed": false,
          "internalType": "uint256",
          "name": "collateral_amount",
          "type": "uint256"
        },
        {
          "indexed": false,
          "internalType": "uint256",
          "name": "output_share_amount",
          "type": "uint256"
        }
      ],
      "name": "BoughtBack",
      "type": "event"
    },
    {
      "anonymous": false,
      "inputs": [
        {
          "indexed": false,
          "internalType": "uint256",
          "name": "_epoch_length",
          "type": "uint256"
        }
      ],
      "name": "New_EpochLength",
      "type": "event"
    },
    {
      "anonymous": false,
      "inputs": [
        {
          "indexed": false,
          "internalType": "uint256",
          "name": "_ratio",
          "type": "uint256"
        }
      ],
      "name": "New_ExcessDistributionRatio",
      "type": "event"
    },
    {
      "anonymous": false,
      "inputs": [
        {
          "indexed": false,
          "internalType": "address",
          "name": "_foundry",
          "type": "address"
        }
      ],
      "name": "New_Foundry",
      "type": "event"
    },
    {
      "anonymous": false,
      "inputs": [
        {
          "indexed": false,
          "internalType": "uint256",
          "name": "value",
          "type": "uint256"
        }
      ],
      "name": "New_GovTokenValueForDiscount",
      "type": "event"
    },
    {
      "anonymous": false,
      "inputs": [
        {
          "indexed": false,
          "internalType": "uint256",
          "name": "_minting_fee",
          "type": "uint256"
        }
      ],
      "name": "New_MintingFee",
      "type": "event"
    },
    {
      "anonymous": false,
      "inputs": [
        {
          "indexed": false,
          "internalType": "address",
          "name": "_oracle",
          "type": "address"
        }
      ],
      "name": "New_OracleDollar",
      "type": "event"
    },
    {
      "anonymous": false,
      "inputs": [
        {
          "indexed": false,
          "internalType": "address",
          "name": "_oracle",
          "type": "address"
        }
      ],
      "name": "New_OracleGovToken",
      "type": "event"
    },
    {
      "anonymous": false,
      "inputs": [
        {
          "indexed": false,
          "internalType": "address",
          "name": "_oracle",
          "type": "address"
        }
      ],
      "name": "New_OracleShare",
      "type": "event"
    },
    {
      "anonymous": false,
      "inputs": [
        {
          "indexed": false,
          "internalType": "uint256",
          "name": "_price_band",
          "type": "uint256"
        }
      ],
      "name": "New_PriceBand",
      "type": "event"
    },
    {
      "anonymous": false,
      "inputs": [
        {
          "indexed": false,
          "internalType": "uint256",
          "name": "_price_target",
          "type": "uint256"
        }
      ],
      "name": "New_PriceTarget",
      "type": "event"
    },
    {
      "anonymous": false,
      "inputs": [
        {
          "indexed": false,
          "internalType": "uint256",
          "name": "_ratio_step",
          "type": "uint256"
        }
      ],
      "name": "New_RatioStep",
      "type": "event"
    },
    {
      "anonymous": false,
      "inputs": [
        {
          "indexed": false,
          "internalType": "uint256",
          "name": "_cooldown",
          "type": "uint256"
        }
      ],
      "name": "New_RebalanceCooldown",
      "type": "event"
    },
    {
      "anonymous": false,
      "inputs": [
        {
          "indexed": false,
          "internalType": "address",
          "name": "_rebalance_pool",
          "type": "address"
        }
      ],
      "name": "New_RebalancePool",
      "type": "event"
    },
    {
      "anonymous": false,
      "inputs": [
        {
          "indexed": false,
          "internalType": "uint256",
          "name": "_redemption_fee",
          "type": "uint256"
        }
      ],
      "name": "New_RedemptionFee",
      "type": "event"
    },
    {
      "anonymous": false,
      "inputs": [
        {
          "indexed": false,
          "internalType": "uint256",
          "name": "_refresh_cooldown",
          "type": "uint256"
        }
      ],
      "name": "New_RefreshCooldown",
      "type": "event"
    },
    {
      "anonymous": false,
      "inputs": [
        {
          "indexed": false,
          "internalType": "address",
          "name": "_strategist",
          "type": "address"
        }
      ],
      "name": "New_Strategist",
      "type": "event"
    },
    {
      "anonymous": false,
      "inputs": [
        {
          "indexed": false,
          "internalType": "address",
          "name": "_uniswap_router",
          "type": "address"
        },
        {
          "indexed": false,
          "internalType": "address",
          "name": "_governanceToken",
          "type": "address"
        },
        {
          "indexed": false,
          "internalType": "address",
          "name": "_wcoin",
          "type": "address"
        },
        {
          "indexed": false,
          "internalType": "address",
          "name": "_collateral",
          "type": "address"
        },
        {
          "indexed": false,
          "internalType": "address",
          "name": "_share",
          "type": "address"
        },
        {
          "indexed": false,
          "internalType": "address",
          "name": "_dollar",
          "type": "address"
        }
      ],
      "name": "New_Tokens",
      "type": "event"
    },
    {
      "anonymous": false,
      "inputs": [
        {
          "indexed": true,
          "internalType": "address",
          "name": "previousOwner",
          "type": "address"
        },
        {
          "indexed": true,
          "internalType": "address",
          "name": "newOwner",
          "type": "address"
        }
      ],
      "name": "OwnershipTransferred",
      "type": "event"
    },
    {
      "anonymous": false,
      "inputs": [
        {
          "indexed": false,
          "internalType": "uint256",
          "name": "share_amount",
          "type": "uint256"
        },
        {
          "indexed": false,
          "internalType": "uint256",
          "name": "output_collateral_amount",
          "type": "uint256"
        },
        {
          "indexed": false,
          "internalType": "uint256",
          "name": "output_collateral_value",
          "type": "uint256"
        }
      ],
      "name": "Recollateralized",
      "type": "event"
    },
    {
      "inputs": [],
      "name": "collateral",
      "outputs": [
        {
          "internalType": "address",
          "name": "",
          "type": "address"
        }
      ],
      "stateMutability": "view",
      "type": "function"
    },
    {
      "inputs": [],
      "name": "collateral_ratio_paused",
      "outputs": [
        {
          "internalType": "bool",
          "name": "",
          "type": "bool"
        }
      ],
      "stateMutability": "view",
      "type": "function"
    },
    {
      "inputs": [],
      "name": "dollar",
      "outputs": [
        {
          "internalType": "address",
          "name": "",
          "type": "address"
        }
      ],
      "stateMutability": "view",
      "type": "function"
    },
    {
      "inputs": [],
      "name": "effective_collateral_ratio",
      "outputs": [
        {
          "internalType": "uint256",
          "name": "",
          "type": "uint256"
        }
      ],
      "stateMutability": "view",
      "type": "function"
    },
    {
      "inputs": [],
      "name": "epoch_length",
      "outputs": [
        {
          "internalType": "uint256",
          "name": "",
          "type": "uint256"
        }
      ],
      "stateMutability": "view",
      "type": "function"
    },
    {
      "inputs": [],
      "name": "excess_collateral_distributed_ratio",
      "outputs": [
        {
          "internalType": "uint256",
          "name": "",
          "type": "uint256"
        }
      ],
      "stateMutability": "view",
      "type": "function"
    },
    {
      "inputs": [],
      "name": "foundry",
      "outputs": [
        {
          "internalType": "address",
          "name": "",
          "type": "address"
        }
      ],
      "stateMutability": "view",
      "type": "function"
    },
    {
      "inputs": [],
      "name": "gov_token_value_for_discount",
      "outputs": [
        {
          "internalType": "uint256",
          "name": "",
          "type": "uint256"
        }
      ],
      "stateMutability": "view",
      "type": "function"
    },
    {
      "inputs": [],
      "name": "governanceToken",
      "outputs": [
        {
          "internalType": "address",
          "name": "",
          "type": "address"
        }
      ],
      "stateMutability": "view",
      "type": "function"
    },
    {
      "inputs": [],
      "name": "lastEpochTime",
      "outputs": [
        {
          "internalType": "uint256",
          "name": "",
          "type": "uint256"
        }
      ],
      "stateMutability": "view",
      "type": "function"
    },
    {
      "inputs": [],
      "name": "last_rebalance_timestamp",
      "outputs": [
        {
          "internalType": "uint256",
          "name": "",
          "type": "uint256"
        }
      ],
      "stateMutability": "view",
      "type": "function"
    },
    {
      "inputs": [],
      "name": "last_refresh_cr_timestamp",
      "outputs": [
        {
          "internalType": "uint256",
          "name": "",
          "type": "uint256"
        }
      ],
      "stateMutability": "view",
      "type": "function"
    },
    {
      "inputs": [],
      "name": "migrated",
      "outputs": [
        {
          "internalType": "bool",
          "name": "",
          "type": "bool"
        }
      ],
      "stateMutability": "view",
      "type": "function"
    },
    {
      "inputs": [],
      "name": "minting_fee",
      "outputs": [
        {
          "internalType": "uint256",
          "name": "",
          "type": "uint256"
        }
      ],
      "stateMutability": "view",
      "type": "function"
    },
    {
      "inputs": [],
      "name": "oracleDollar",
      "outputs": [
        {
          "internalType": "address",
          "name": "",
          "type": "address"
        }
      ],
      "stateMutability": "view",
      "type": "function"
    },
    {
      "inputs": [],
      "name": "oracleGovToken",
      "outputs": [
        {
          "internalType": "address",
          "name": "",
          "type": "address"
        }
      ],
      "stateMutability": "view",
      "type": "function"
    },
    {
      "inputs": [],
      "name": "oracleShare",
      "outputs": [
        {
          "internalType": "address",
          "name": "",
          "type": "address"
        }
      ],
      "stateMutability": "view",
      "type": "function"
    },
    {
      "inputs": [],
      "name": "owner",
      "outputs": [
        {
          "internalType": "address",
          "name": "",
          "type": "address"
        }
      ],
      "stateMutability": "view",
      "type": "function"
    },
    {
      "inputs": [
        {
          "internalType": "address",
          "name": "",
          "type": "address"
        }
      ],
      "name": "pools",
      "outputs": [
        {
          "internalType": "bool",
          "name": "",
          "type": "bool"
        }
      ],
      "stateMutability": "view",
      "type": "function"
    },
    {
      "inputs": [
        {
          "internalType": "uint256",
          "name": "",
          "type": "uint256"
        }
      ],
      "name": "pools_array",
      "outputs": [
        {
          "internalType": "address",
          "name": "",
          "type": "address"
        }
      ],
      "stateMutability": "view",
      "type": "function"
    },
    {
      "inputs": [],
      "name": "price_band",
      "outputs": [
        {
          "internalType": "uint256",
          "name": "",
          "type": "uint256"
        }
      ],
      "stateMutability": "view",
      "type": "function"
    },
    {
      "inputs": [],
      "name": "price_target",
      "outputs": [
        {
          "internalType": "uint256",
          "name": "",
          "type": "uint256"
        }
      ],
      "stateMutability": "view",
      "type": "function"
    },
    {
      "inputs": [],
      "name": "ratio_step",
      "outputs": [
        {
          "internalType": "uint256",
          "name": "",
          "type": "uint256"
        }
      ],
      "stateMutability": "view",
      "type": "function"
    },
    {
      "inputs": [],
      "name": "rebalance_cooldown",
      "outputs": [
        {
          "internalType": "uint256",
          "name": "",
          "type": "uint256"
        }
      ],
      "stateMutability": "view",
      "type": "function"
    },
    {
      "inputs": [],
      "name": "rebalancing_pool",
      "outputs": [
        {
          "internalType": "address",
          "name": "",
          "type": "address"
        }
      ],
      "stateMutability": "view",
      "type": "function"
    },
    {
      "inputs": [],
      "name": "rebalancing_pool_collateral",
      "outputs": [
        {
          "internalType": "address",
          "name": "",
          "type": "address"
        }
      ],
      "stateMutability": "view",
      "type": "function"
    },
    {
      "inputs": [],
      "name": "redemption_fee",
      "outputs": [
        {
          "internalType": "uint256",
          "name": "",
          "type": "uint256"
        }
      ],
      "stateMutability": "view",
      "type": "function"
    },
    {
      "inputs": [],
      "name": "refresh_cooldown",
      "outputs": [
        {
          "internalType": "uint256",
          "name": "",
          "type": "uint256"
        }
      ],
      "stateMutability": "view",
      "type": "function"
    },
    {
      "inputs": [],
      "name": "renounceOwnership",
      "outputs": [],
      "stateMutability": "nonpayable",
      "type": "function"
    },
    {
      "inputs": [],
      "name": "share",
      "outputs": [
        {
          "internalType": "address",
          "name": "",
          "type": "address"
        }
      ],
      "stateMutability": "view",
      "type": "function"
    },
    {
      "inputs": [],
      "name": "startTime",
      "outputs": [
        {
          "internalType": "uint256",
          "name": "",
          "type": "uint256"
        }
      ],
      "stateMutability": "view",
      "type": "function"
    },
    {
      "inputs": [],
      "name": "strategist",
      "outputs": [
        {
          "internalType": "address",
          "name": "",
          "type": "address"
        }
      ],
      "stateMutability": "view",
      "type": "function"
    },
    {
      "inputs": [],
      "name": "target_collateral_ratio",
      "outputs": [
        {
          "internalType": "uint256",
          "name": "",
          "type": "uint256"
        }
      ],
      "stateMutability": "view",
      "type": "function"
    },
    {
      "inputs": [
        {
          "internalType": "address",
          "name": "newOwner",
          "type": "address"
        }
      ],
      "name": "transferOwnership",
      "outputs": [],
      "stateMutability": "nonpayable",
      "type": "function"
    },
    {
      "inputs": [],
      "name": "uniswap_router",
      "outputs": [
        {
          "internalType": "address",
          "name": "",
          "type": "address"
        }
      ],
      "stateMutability": "view",
      "type": "function"
    },
    {
      "inputs": [],
      "name": "wcoin",
      "outputs": [
        {
          "internalType": "address",
          "name": "",
          "type": "address"
        }
      ],
      "stateMutability": "view",
      "type": "function"
    },
    {
      "stateMutability": "payable",
      "type": "receive"
    },
    {
      "inputs": [],
      "name": "dollarPrice",
      "outputs": [
        {
          "internalType": "uint256",
          "name": "",
          "type": "uint256"
        }
      ],
      "stateMutability": "view",
      "type": "function"
    },
    {
      "inputs": [],
      "name": "sharePrice",
      "outputs": [
        {
          "internalType": "uint256",
          "name": "",
          "type": "uint256"
        }
      ],
      "stateMutability": "view",
      "type": "function"
    },
    {
      "inputs": [],
      "name": "gov_token_price",
      "outputs": [
        {
          "internalType": "uint256",
          "name": "",
          "type": "uint256"
        }
      ],
      "stateMutability": "view",
      "type": "function"
    },
    {
      "inputs": [
        {
          "internalType": "address",
          "name": "_address",
          "type": "address"
        }
      ],
      "name": "hasPool",
      "outputs": [
        {
          "internalType": "bool",
          "name": "",
          "type": "bool"
        }
      ],
      "stateMutability": "view",
      "type": "function"
    },
    {
      "inputs": [],
      "name": "nextEpochPoint",
      "outputs": [
        {
          "internalType": "uint256",
          "name": "",
          "type": "uint256"
        }
      ],
      "stateMutability": "view",
      "type": "function"
    },
    {
      "inputs": [],
      "name": "epoch",
      "outputs": [
        {
          "internalType": "uint256",
          "name": "",
          "type": "uint256"
        }
      ],
      "stateMutability": "view",
      "type": "function"
    },
    {
      "inputs": [
        {
          "internalType": "address",
          "name": "_caller",
          "type": "address"
        }
      ],
      "name": "redemption_fee_adjusted",
      "outputs": [
        {
          "internalType": "uint256",
          "name": "redemptionFee",
          "type": "uint256"
        }
      ],
      "stateMutability": "view",
      "type": "function"
    },
    {
      "inputs": [],
      "name": "discount_requirenment",
      "outputs": [
        {
          "internalType": "uint256",
          "name": "",
          "type": "uint256"
        }
      ],
      "stateMutability": "view",
      "type": "function"
    },
    {
      "inputs": [
        {
          "internalType": "address",
          "name": "_caller",
          "type": "address"
        }
      ],
      "name": "info",
      "outputs": [
        {
          "internalType": "uint256",
          "name": "",
          "type": "uint256"
        },
        {
          "internalType": "uint256",
          "name": "",
          "type": "uint256"
        },
        {
          "internalType": "uint256",
          "name": "",
          "type": "uint256"
        },
        {
          "internalType": "uint256",
          "name": "",
          "type": "uint256"
        },
        {
          "internalType": "uint256",
          "name": "",
          "type": "uint256"
        },
        {
          "internalType": "uint256",
          "name": "",
          "type": "uint256"
        },
        {
          "internalType": "uint256",
          "name": "",
          "type": "uint256"
        }
      ],
      "stateMutability": "view",
      "type": "function"
    },
    {
      "inputs": [],
      "name": "epochInfo",
      "outputs": [
        {
          "internalType": "uint256",
          "name": "",
          "type": "uint256"
        },
        {
          "internalType": "uint256",
          "name": "",
          "type": "uint256"
        },
        {
          "internalType": "uint256",
          "name": "",
          "type": "uint256"
        },
        {
          "internalType": "uint256",
          "name": "",
          "type": "uint256"
        }
      ],
      "stateMutability": "view",
      "type": "function"
    },
    {
      "inputs": [],
      "name": "globalCollateralValue",
      "outputs": [
        {
          "internalType": "uint256",
          "name": "",
          "type": "uint256"
        }
      ],
      "stateMutability": "view",
      "type": "function"
    },
    {
      "inputs": [],
      "name": "calcEffectiveCollateralRatio",
      "outputs": [
        {
          "internalType": "uint256",
          "name": "",
          "type": "uint256"
        }
      ],
      "stateMutability": "view",
      "type": "function"
    },
    {
      "inputs": [],
      "name": "refreshCollateralRatio",
      "outputs": [],
      "stateMutability": "nonpayable",
      "type": "function"
    },
    {
      "inputs": [],
      "name": "calcCollateralBalance",
      "outputs": [
        {
          "internalType": "uint256",
          "name": "_collateral_value",
          "type": "uint256"
        },
        {
          "internalType": "bool",
          "name": "_exceeded",
          "type": "bool"
        }
      ],
      "stateMutability": "view",
      "type": "function"
    },
    {
      "inputs": [
        {
          "internalType": "address",
          "name": "pool_address",
          "type": "address"
        }
      ],
      "name": "addPool",
      "outputs": [],
      "stateMutability": "nonpayable",
      "type": "function"
    },
    {
      "inputs": [
        {
          "internalType": "address",
          "name": "pool_address",
          "type": "address"
        }
      ],
      "name": "removePool",
      "outputs": [],
      "stateMutability": "nonpayable",
      "type": "function"
    },
    {
      "inputs": [
        {
          "internalType": "uint256",
          "name": "_collateral_value",
          "type": "uint256"
        },
        {
          "internalType": "uint256",
          "name": "_min_share_amount",
          "type": "uint256"
        }
      ],
      "name": "buyback",
      "outputs": [],
      "stateMutability": "nonpayable",
      "type": "function"
    },
    {
      "inputs": [
        {
          "internalType": "uint256",
          "name": "_share_amount",
          "type": "uint256"
        },
        {
          "internalType": "uint256",
          "name": "_min_collateral_amount",
          "type": "uint256"
        }
      ],
      "name": "recollateralize",
      "outputs": [],
      "stateMutability": "nonpayable",
      "type": "function"
    },
    {
      "inputs": [],
      "name": "allocateSeigniorage",
      "outputs": [],
      "stateMutability": "nonpayable",
      "type": "function"
    },
    {
      "inputs": [
        {
          "internalType": "address",
          "name": "_new_treasury",
          "type": "address"
        }
      ],
      "name": "migrate",
      "outputs": [],
      "stateMutability": "nonpayable",
      "type": "function"
    },
    {
      "inputs": [
        {
          "internalType": "uint256",
          "name": "value",
          "type": "uint256"
        }
      ],
      "name": "setGovTokenValueForDiscount",
      "outputs": [],
      "stateMutability": "nonpayable",
      "type": "function"
    },
    {
      "inputs": [
        {
          "internalType": "uint256",
          "name": "_redemption_fee",
          "type": "uint256"
        }
      ],
      "name": "setRedemptionFee",
      "outputs": [],
      "stateMutability": "nonpayable",
      "type": "function"
    },
    {
      "inputs": [
        {
          "internalType": "uint256",
          "name": "_minting_fee",
          "type": "uint256"
        }
      ],
      "name": "setMintingFee",
      "outputs": [],
      "stateMutability": "nonpayable",
      "type": "function"
    },
    {
      "inputs": [
        {
          "internalType": "uint256",
          "name": "_ratio_step",
          "type": "uint256"
        }
      ],
      "name": "setRatioStep",
      "outputs": [],
      "stateMutability": "nonpayable",
      "type": "function"
    },
    {
      "inputs": [
        {
          "internalType": "uint256",
          "name": "_price_target",
          "type": "uint256"
        }
      ],
      "name": "setPriceTarget",
      "outputs": [],
      "stateMutability": "nonpayable",
      "type": "function"
    },
    {
      "inputs": [
        {
          "internalType": "uint256",
          "name": "_refresh_cooldown",
          "type": "uint256"
        }
      ],
      "name": "setRefreshCooldown",
      "outputs": [],
      "stateMutability": "nonpayable",
      "type": "function"
    },
    {
      "inputs": [
        {
          "internalType": "uint256",
          "name": "_price_band",
          "type": "uint256"
        }
      ],
      "name": "setPriceBand",
      "outputs": [],
      "stateMutability": "nonpayable",
      "type": "function"
    },
    {
      "inputs": [],
      "name": "unpauseCollateralRatio",
      "outputs": [],
      "stateMutability": "nonpayable",
      "type": "function"
    },
    {
      "inputs": [
        {
          "internalType": "address",
          "name": "_oracle",
          "type": "address"
        }
      ],
      "name": "setOracleDollar",
      "outputs": [],
      "stateMutability": "nonpayable",
      "type": "function"
    },
    {
      "inputs": [
        {
          "internalType": "address",
          "name": "_oracle",
          "type": "address"
        }
      ],
      "name": "setOracleShare",
      "outputs": [],
      "stateMutability": "nonpayable",
      "type": "function"
    },
    {
      "inputs": [
        {
          "internalType": "address",
          "name": "_oracle",
          "type": "address"
        }
      ],
      "name": "setOracleGovToken",
      "outputs": [],
      "stateMutability": "nonpayable",
      "type": "function"
    },
    {
      "inputs": [
        {
          "internalType": "address",
          "name": "_foundry",
          "type": "address"
        }
      ],
      "name": "setFoundry",
      "outputs": [],
      "stateMutability": "nonpayable",
      "type": "function"
    },
    {
      "inputs": [
        {
          "internalType": "uint256",
          "name": "_epoch_length",
          "type": "uint256"
        }
      ],
      "name": "setEpochLength",
      "outputs": [],
      "stateMutability": "nonpayable",
      "type": "function"
    },
    {
      "inputs": [
        {
          "internalType": "uint256",
          "name": "_cooldown",
          "type": "uint256"
        }
      ],
      "name": "setRebalanceCooldown",
      "outputs": [],
      "stateMutability": "nonpayable",
      "type": "function"
    },
    {
      "inputs": [
        {
          "internalType": "uint256",
          "name": "_ratio",
          "type": "uint256"
        }
      ],
      "name": "setExcessDistributionRatio",
      "outputs": [],
      "stateMutability": "nonpayable",
      "type": "function"
    },
    {
      "inputs": [],
      "name": "updateOracles",
      "outputs": [],
      "stateMutability": "nonpayable",
      "type": "function"
    },
    {
      "inputs": [
        {
          "internalType": "address",
          "name": "_strategist",
          "type": "address"
        }
      ],
      "name": "setStrategist",
      "outputs": [],
      "stateMutability": "nonpayable",
      "type": "function"
    },
    {
      "inputs": [
        {
          "internalType": "address",
          "name": "_uniswap_router",
          "type": "address"
        },
        {
          "internalType": "address",
          "name": "_governanceToken",
          "type": "address"
        },
        {
          "internalType": "address",
          "name": "_wcoin",
          "type": "address"
        },
        {
          "internalType": "address",
          "name": "_collateral",
          "type": "address"
        },
        {
          "internalType": "address",
          "name": "_share",
          "type": "address"
        },
        {
          "internalType": "address",
          "name": "_dollar",
          "type": "address"
        }
      ],
      "name": "installTokens",
      "outputs": [],
      "stateMutability": "nonpayable",
      "type": "function"
    },
    {
      "inputs": [
        {
          "internalType": "address",
          "name": "_rebalance_pool",
          "type": "address"
        }
      ],
      "name": "setRebalancePool",
      "outputs": [],
      "stateMutability": "nonpayable",
      "type": "function"
    },
    {
      "inputs": [
        {
          "internalType": "uint256",
          "name": "_startTime",
          "type": "uint256"
        }
      ],
      "name": "resetStartTime",
      "outputs": [],
      "stateMutability": "nonpayable",
      "type": "function"
    }
  ],
  "bytecode": "0x6080604052600a805460ff60a01b19169055610fa0600d55610bb8600e55620f4240601081905560118190556102586012556109c46013556014556113886015556103e86016556017805460ff1916600117905561a8c060195561c350601e5560006021553480156200007157600080fd5b50604051620048b1380380620048b1833981016040819052620000949162000230565b6200009f3362000130565b6001805542821015620001045760405162461bcd60e51b815260206004820152602260248201527f53746172742074696d6520696e697469616c697a656420746f207468652070616044820152611cdd60f21b60648201526084015b60405180910390fd5b601c82905560208190556200011a818362000254565b601f55620001283362000180565b505062000278565b600080546001600160a01b038381166001600160a01b0319831681178455604051919092169283917f8be0079c531659141344cd1fd0a4f28419497f9722a3daafe3b4186f6b6457e09190a35050565b6000546001600160a01b03163314620001dc5760405162461bcd60e51b815260206004820181905260248201527f4f776e61626c653a2063616c6c6572206973206e6f7420746865206f776e65726044820152606401620000fb565b600a80546001600160a01b0319166001600160a01b0383169081179091556040519081527fe600379696b343003b56cf9da05b861eb1e083a0207db6168f9f42f55cbcbe479060200160405180910390a150565b6000806040838503121562000243578182fd5b505080516020909101519092909150565b6000828210156200027357634e487b7160e01b81526011600452602481fd5b500390565b61462980620002886000396000f3fe60806040526004361061044b5760003560e01c806378e9792511610234578063af2d37391161012e578063ce5494bb116100b6578063e0a155941161007a578063e0a1559414610ccf578063e3ac1ea214610cef578063e708b4ae14610d0f578063f2fde38b14610d25578063f96dae0a14610d4557600080fd5b8063ce5494bb14610c3a578063d2d97b0614610c5a578063d74d1a0e14610c6f578063d8dfeb4514610c8f578063d914cd4b14610caf57600080fd5b8063c08f076e116100fd578063c08f076e14610bb9578063c3355b8d14610bd9578063c5967c2614610bef578063c7b9d53014610c04578063cb73999f14610c2457600080fd5b8063af2d373914610b4d578063af83136e14610b6d578063b16ce46014610b83578063c03f7be314610ba357600080fd5b80638da5cb5b116101bc578063a4063dbc11610180578063a4063dbc14610ab2578063a445c44514610ae2578063a5d7abac14610af7578063a8d5fd6514610b17578063ac4f843e14610b3757600080fd5b80638da5cb5b14610a355780638ea709f314610a53578063900cf0cf14610a685780639052be6114610a7d5780639354864914610a9d57600080fd5b806386f6251d1161020357806386f6251d146109ab57806387269729146109cb57806387a140c3146109e0578063894ba4b9146109fa57806389c614b814610a1f57600080fd5b806378e97925146109355780637cd27ca61461094b5780637dbc1df01461096b57806381ca52cf1461098b57600080fd5b80632cb4f63e116103455780634231bfe1116102cd5780635b756179116102915780635b756179146108b5578063600422b3146108ca5780636140133b146108ea5780636ae744881461090a578063715018a61461092057600080fd5b80634231bfe114610829578063460ddf8d1461083f57806351adeb571461085f57806353ed67fe1461087f57806354eea7961461089557600080fd5b80633b7d0946116103145780633b7d0946146107a95780634006311b146107c95780634013124a146107df578063408ab10f146107f457806340d7b7b81461081457600080fd5b80632cb4f63e1461073e5780632f64fb8e14610754578063350d0a1814610774578063357a8c091461079457600080fd5b8063186d9b2e116103d35780631ff41bfa116103975780631ff41bfa146106b1578063238a4709146106c75780632853fb10146106e757806328596aba146106fd5780632c678c641461071d57600080fd5b8063186d9b2e146105f25780631a1f1934146106125780631c5df1e51461063c5780631f1b8a8c1461065c5780631fe4a6861461069157600080fd5b80630aae7a6b1161041a5780630aae7a6b146104d75780630ca687dc1461052c5780630eef424d1461054c5780631189ebea1461056c5780631246dbf5146105a457600080fd5b806303539f4a146104575780630375da591461048057806303c6cb1b146104a257806304f714c4146104b757600080fd5b3661045257005b600080fd5b34801561046357600080fd5b5061046d60165481565b6040519081526020015b60405180910390f35b34801561048c57600080fd5b506104a061049b3660046140c2565b610d65565b005b3480156104ae57600080fd5b5061046d610e15565b3480156104c357600080fd5b506104a06104d236600461425b565b610ee9565b3480156104e357600080fd5b506104f76104f23660046140c2565b610f4f565b604080519788526020880196909652948601939093526060850191909152608084015260a083015260c082015260e001610477565b34801561053857600080fd5b506104a06105473660046140c2565b610f9b565b34801561055857600080fd5b506104a06105673660046140c2565b61103a565b34801561057857600080fd5b5061058c61058736600461425b565b61126d565b6040516001600160a01b039091168152602001610477565b3480156105b057600080fd5b506105e26105bf3660046140c2565b6001600160a01b03166000908152600c602052604090205460ff16151560011490565b6040519015158152602001610477565b3480156105fe57600080fd5b506104a061060d36600461425b565b611297565b34801561061e57600080fd5b506106276112f6565b60408051928352901515602083015201610477565b34801561064857600080fd5b506104a061065736600461425b565b6113dd565b34801561066857600080fd5b5061067161143c565b604080519485526020850193909352918301526060820152608001610477565b34801561069d57600080fd5b50600a5461058c906001600160a01b031681565b3480156106bd57600080fd5b5061046d601e5481565b3480156106d357600080fd5b506104a06106e236600461425b565b611467565b3480156106f357600080fd5b5061046d60155481565b34801561070957600080fd5b506104a06107183660046140c2565b6114c6565b34801561072957600080fd5b50600a546105e290600160a01b900460ff1681565b34801561074a57600080fd5b5061046d60145481565b34801561076057600080fd5b5060185461058c906001600160a01b031681565b34801561078057600080fd5b5060045461058c906001600160a01b031681565b3480156107a057600080fd5b5061046d611565565b3480156107b557600080fd5b506104a06107c43660046140c2565b6115f2565b3480156107d557600080fd5b5061046d60105481565b3480156107eb57600080fd5b506104a06117e6565b34801561080057600080fd5b506104a061080f36600461425b565b611ac8565b34801561082057600080fd5b5061046d611b27565b34801561083557600080fd5b5061046d60205481565b34801561084b57600080fd5b506104a061085a36600461428b565b611b6c565b34801561086b57600080fd5b5060055461058c906001600160a01b031681565b34801561088b57600080fd5b5061046d601a5481565b3480156108a157600080fd5b506104a06108b036600461425b565b61212f565b3480156108c157600080fd5b506104a061218c565b3480156108d657600080fd5b5060085461058c906001600160a01b031681565b3480156108f657600080fd5b506104a061090536600461425b565b612665565b34801561091657600080fd5b5061046d600f5481565b34801561092c57600080fd5b506104a06126c4565b34801561094157600080fd5b5061046d601c5481565b34801561095757600080fd5b50601d5461058c906001600160a01b031681565b34801561097757600080fd5b506104a061098636600461425b565b6126fa565b34801561099757600080fd5b506104a06109a636600461425b565b612759565b3480156109b757600080fd5b5061046d6109c63660046140c2565b6127b8565b3480156109d757600080fd5b5061046d61287a565b3480156109ec57600080fd5b506017546105e29060ff1681565b348015610a0657600080fd5b5060175461058c9061010090046001600160a01b031681565b348015610a2b57600080fd5b5061046d601f5481565b348015610a4157600080fd5b506000546001600160a01b031661058c565b348015610a5f57600080fd5b506104a06128bf565b348015610a7457600080fd5b5060215461046d565b348015610a8957600080fd5b50601b5461058c906001600160a01b031681565b348015610aa957600080fd5b506104a0612a21565b348015610abe57600080fd5b506105e2610acd3660046140c2565b600c6020526000908152604090205460ff1681565b348015610aee57600080fd5b5061046d612a9c565b348015610b0357600080fd5b506104a0610b1236600461425b565b612b6d565b348015610b2357600080fd5b5060065461058c906001600160a01b031681565b348015610b4357600080fd5b5061046d60135481565b348015610b5957600080fd5b506104a0610b6836600461428b565b612bcc565b348015610b7957600080fd5b5061046d60115481565b348015610b8f57600080fd5b5060025461058c906001600160a01b031681565b348015610baf57600080fd5b5061046d60125481565b348015610bc557600080fd5b506104a0610bd436600461425b565b6131aa565b348015610be557600080fd5b5061046d600e5481565b348015610bfb57600080fd5b5061046d61322d565b348015610c1057600080fd5b506104a0610c1f3660046140c2565b61323f565b348015610c3057600080fd5b5061046d600d5481565b348015610c4657600080fd5b506104a0610c553660046140c2565b6132b7565b348015610c6657600080fd5b5061046d61346a565b348015610c7b57600080fd5b5060035461058c906001600160a01b031681565b348015610c9b57600080fd5b5060095461058c906001600160a01b031681565b348015610cbb57600080fd5b506104a0610cca3660046140c2565b613586565b348015610cdb57600080fd5b506104a0610cea3660046140fa565b613697565b348015610cfb57600080fd5b506104a0610d0a3660046140c2565b613787565b348015610d1b57600080fd5b5061046d60195481565b348015610d3157600080fd5b506104a0610d403660046140c2565b613826565b348015610d5157600080fd5b5060075461058c906001600160a01b031681565b6000546001600160a01b03163314610d985760405162461bcd60e51b8152600401610d8f9061436d565b60405180910390fd5b806001600160a01b038116610dbf5760405162461bcd60e51b8152600401610d8f9061431c565b601d80546001600160a01b0319166001600160a01b0384169081179091556040519081527f6f0902dc5c160d0dae21d02787065615e534b7324bb561ca5d82936fe916906a906020015b60405180910390a15050565b600080610e20611565565b905080610e2f57600191505090565b6007546040805163313ce56760e01b815290516000926001600160a01b03169163313ce567916004808301926020929190829003018186803b158015610e7457600080fd5b505afa158015610e88573d6000803e3d6000fd5b505050506040513d601f19601f82011682018060405250810190610eac91906142ac565b60ff16905081610ebd82600a61448d565b620f4240601654610ece9190614535565b610ed89190614535565b610ee2919061442a565b9250505090565b6000546001600160a01b03163314610f135760405162461bcd60e51b8152600401610d8f9061436d565b60168190556040518181527f78f4264aaee719823c8e360b639d51614b9c0d87b1ad9478d635d71747f97be4906020015b60405180910390a150565b6000806000806000806000610f62611b27565b610f6a61287a565b601054601154610f7861346a565b600e54610f848e6127b8565b959e949d50929b5090995097509550909350915050565b6000546001600160a01b03163314610fc55760405162461bcd60e51b8152600401610d8f9061436d565b806001600160a01b038116610fec5760405162461bcd60e51b8152600401610d8f9061431c565b600280546001600160a01b0319166001600160a01b0384169081179091556040519081527ff38983a3f62cc61ae46551ca4f02dcb9c2948d3726f8d379688409638f62dcbc90602001610e09565b6000546001600160a01b031633146110645760405162461bcd60e51b8152600401610d8f9061436d565b6001600160a01b0381166000908152600c602052604090205460ff166110b45760405162461bcd60e51b8152602060048201526005602482015264085c1bdbdb60da1b6044820152606401610d8f565b60006001600160a01b0316816001600160a01b031663964236636040518163ffffffff1660e01b815260040160206040518083038186803b1580156110f857600080fd5b505afa15801561110c573d6000803e3d6000fd5b505050506040513d601f19601f8201168201806040525081019061113091906140de565b6001600160a01b0316141561117e5760405162461bcd60e51b815260206004820152601460248201527310b837b7b621b7b63630ba32b930b62a37b5b2b760611b6044820152606401610d8f565b80601760016101000a8154816001600160a01b0302191690836001600160a01b03160217905550806001600160a01b031663964236636040518163ffffffff1660e01b815260040160206040518083038186803b1580156111de57600080fd5b505afa1580156111f2573d6000803e3d6000fd5b505050506040513d601f19601f8201168201806040525081019061121691906140de565b601880546001600160a01b0319166001600160a01b0392831617905560175460405161010090910490911681527fdfe2f1769e31dd2842c3587ca24cb6c7b152dee988b00139b98c903779a2071290602001610f44565b600b818154811061127d57600080fd5b6000918252602090912001546001600160a01b0316905081565b6000546001600160a01b031633146112c15760405162461bcd60e51b8152600401610d8f9061436d565b60138190556040518181527f567643a76d931c6deddcc6bf6ad1221c2dea48d6e271f2690cb642f2d266165b90602001610f44565b600080600061130361346a565b90506000620f4240601054600560009054906101000a90046001600160a01b03166001600160a01b03166318160ddd6040518163ffffffff1660e01b815260040160206040518083038186803b15801561135c57600080fd5b505afa158015611370573d6000803e3d6000fd5b505050506040513d601f19601f820116820180604052508101906113949190614273565b61139e9190614535565b6113a8919061442a565b90508082106113c6576113bb8183614554565b9350600192506113d7565b6113d08282614554565b9350600092505b50509091565b6000546001600160a01b031633146114075760405162461bcd60e51b8152600401610d8f9061436d565b60128190556040518181527f1e9e941e8db74fc013ea4217b430ed615dfb96c7a1482bb2adac08d2b103159490602001610f44565b60008060008061144b60215490565b61145361322d565b602054601e54935093509350935090919293565b6000546001600160a01b031633146114915760405162461bcd60e51b8152600401610d8f9061436d565b600e8190556040518181527f4b673c536df35d12536788ea55dae208ec6761ec962cfde3a1e4aebcc4ea684390602001610f44565b6000546001600160a01b031633146114f05760405162461bcd60e51b8152600401610d8f9061436d565b806001600160a01b0381166115175760405162461bcd60e51b8152600401610d8f9061431c565b600380546001600160a01b0319166001600160a01b0384169081179091556040519081527fba7cd9db885551dae481690fe84ee7a42a69875b587bdbbe7ec0276e69e3435c90602001610e09565b6000600460009054906101000a90046001600160a01b03166001600160a01b0316637eeda7036040518163ffffffff1660e01b815260040160206040518083038186803b1580156115b557600080fd5b505afa1580156115c9573d6000803e3d6000fd5b505050506040513d601f19601f820116820180604052508101906115ed9190614273565b905090565b6000546001600160a01b0316331461161c5760405162461bcd60e51b8152600401610d8f9061436d565b600a54600160a01b900460ff16156116465760405162461bcd60e51b8152600401610d8f9061434b565b6017546001600160a01b038281166101009092041614156116b55760405162461bcd60e51b815260206004820152602360248201527f43616e7460742064656c6574652061637469766520726562616c616e636520706044820152621bdbdb60ea1b6064820152608401610d8f565b6001600160a01b0381166000908152600c602052604090205460ff16151560011461170a5760405162461bcd60e51b8152602060048201526005602482015264085c1bdbdb60da1b6044820152606401610d8f565b6001600160a01b0381166000908152600c60205260408120805460ff191690555b600b548110156117e257816001600160a01b0316600b828154811061176057634e487b7160e01b600052603260045260246000fd5b6000918252602090912001546001600160a01b031614156117d0576000600b828154811061179e57634e487b7160e01b600052603260045260246000fd5b9060005260206000200160006101000a8154816001600160a01b0302191690836001600160a01b031602179055505050565b806117da81614597565b91505061172b565b5050565b6002546001600160a01b03161561186057600260009054906101000a90046001600160a01b03166001600160a01b031663f12fcaed6040518163ffffffff1660e01b8152600401600060405180830381600087803b15801561184757600080fd5b505af115801561185b573d6000803e3d6000fd5b505050505b6003546001600160a01b0316156118da57600360009054906101000a90046001600160a01b03166001600160a01b031663f12fcaed6040518163ffffffff1660e01b8152600401600060405180830381600087803b1580156118c157600080fd5b505af11580156118d5573d6000803e3d6000fd5b505050505b6004546001600160a01b03161561194757600480546040805163f12fcaed60e01b815290516001600160a01b039092169263f12fcaed92828201926000929082900301818387803b15801561192e57600080fd5b505af1158015611942573d6000803e3d6000fd5b505050505b60175460ff161561199a5760405162461bcd60e51b815260206004820181905260248201527f436f6c6c61746572616c20526174696f20686173206265656e207061757365646044820152606401610d8f565b601254600f546119aa9042614554565b1015611a165760405162461bcd60e51b815260206004820152603560248201527f4d757374207761697420666f7220746865207265667265736820636f6f6c646f6044820152740eedc40e6d2dcc6ca40d8c2e6e840e4cacce4cae6d605b1b6064820152608401610d8f565b6000611a20611b27565b9050601554601454611a329190614412565b811115611a665760135460105411611a4e576000601055611ab6565b601354601054611a5e9190614554565b601055611ab6565b601554601454611a769190614554565b811015611ab657620f4240601354601054611a919190614412565b10611aa257620f4240601055611ab6565b601354601054611ab29190614412565b6010555b611abe612a9c565b6011555042600f55565b6000546001600160a01b03163314611af25760405162461bcd60e51b8152600401610d8f9061436d565b60148190556040518181527f21ab48a98d4381fed3ab4aea2befec63abaebb4722d1983c59117854772451bc90602001610f44565b60025460408051637eeda70360e01b815290516000926001600160a01b031691637eeda703916004808301926020929190829003018186803b1580156115b557600080fd5b600a546001600160a01b03163314611bb45760405162461bcd60e51b815260206004820152600b60248201526a085cdd1c985d1959da5cdd60aa1b6044820152606401610d8f565b6002546001600160a01b031615611c2e57600260009054906101000a90046001600160a01b03166001600160a01b031663f12fcaed6040518163ffffffff1660e01b8152600401600060405180830381600087803b158015611c1557600080fd5b505af1158015611c29573d6000803e3d6000fd5b505050505b6003546001600160a01b031615611ca857600360009054906101000a90046001600160a01b03166001600160a01b031663f12fcaed6040518163ffffffff1660e01b8152600401600060405180830381600087803b158015611c8f57600080fd5b505af1158015611ca3573d6000803e3d6000fd5b505050505b6004546001600160a01b031615611d1557600480546040805163f12fcaed60e01b815290516001600160a01b039092169263f12fcaed92828201926000929082900301818387803b158015611cfc57600080fd5b505af1158015611d10573d6000803e3d6000fd5b505050505b600a54600160a01b900460ff1615611d3f5760405162461bcd60e51b8152600401610d8f9061434b565b60175461010090046001600160a01b0316611d8f5760405162461bcd60e51b815260206004820152601060248201526f085c9958985b185b98da5b99d41bdbdb60821b6044820152606401610d8f565b6018546001600160a01b0316611de75760405162461bcd60e51b815260206004820152601a60248201527f21726562616c616e63696e67506f6f6c436f6c6c61746572616c0000000000006044820152606401610d8f565b601954601a54429190611dfa9083614554565b1015611e3e5760405162461bcd60e51b81526020600482015260136024820152721e3932b130b630b731b2afb1b7b7b63237bbb760691b6044820152606401610d8f565b600080611e496112f6565b91509150808015611e5a5750600082115b611e925760405162461bcd60e51b815260206004820152600960248201526808595e18d95959195960ba1b6044820152606401610d8f565b600085118015611ea157508185105b611eed5760405162461bcd60e51b815260206004820152601760248201527f696e76616c6964436f6c6c61746572616c416d6f756e740000000000000000006044820152606401610d8f565b6000601760019054906101000a90046001600160a01b03166001600160a01b031663f7683bbc6040518163ffffffff1660e01b815260040160206040518083038186803b158015611f3d57600080fd5b505afa158015611f51573d6000803e3d6000fd5b505050506040513d601f19601f82011682018060405250810190611f759190614273565b9050600081611f87620f424089614535565b611f91919061442a565b6018546017546040516370a0823160e01b81526001600160a01b036101009092048216600482015292935083929116906370a082319060240160206040518083038186803b158015611fe257600080fd5b505afa158015611ff6573d6000803e3d6000fd5b505050506040513d601f19601f8201168201806040525081019061201a9190614273565b116120605760405162461bcd60e51b8152602060048201526016602482015275696e737566666963656e74506f6f6c42616c616e636560501b6044820152606401610d8f565b601754604051631bc79abb60e11b8152600481018390526101009091046001600160a01b03169063378f357690602401600060405180830381600087803b1580156120aa57600080fd5b505af11580156120be573d6000803e3d6000fd5b5050601854600092506120dc91506001600160a01b031683896138c1565b604080518a8152602081018590529081018290529091507f08a6192ba3cf7155035aa0abade6c318265a34f2950e84eaff743d1231888f959060600160405180910390a1505050601a9290925550505050565b6000546001600160a01b031633146121595760405162461bcd60e51b8152600401610d8f9061436d565b60208181556040518281527f8235e3d56e7b8defa81fe84a9f3b6381eb310beae32d43977d419ba8554bc4b79101610f44565b6002546001600160a01b03161561220657600260009054906101000a90046001600160a01b03166001600160a01b031663f12fcaed6040518163ffffffff1660e01b8152600401600060405180830381600087803b1580156121ed57600080fd5b505af1158015612201573d6000803e3d6000fd5b505050505b6003546001600160a01b03161561228057600360009054906101000a90046001600160a01b03166001600160a01b031663f12fcaed6040518163ffffffff1660e01b8152600401600060405180830381600087803b15801561226757600080fd5b505af115801561227b573d6000803e3d6000fd5b505050505b6004546001600160a01b0316156122ed57600480546040805163f12fcaed60e01b815290516001600160a01b039092169263f12fcaed92828201926000929082900301818387803b1580156122d457600080fd5b505af11580156122e8573d6000803e3d6000fd5b505050505b600a54600160a01b900460ff16156123175760405162461bcd60e51b8152600401610d8f9061434b565b6002600154141561236a5760405162461bcd60e51b815260206004820152601f60248201527f5265656e7472616e637947756172643a207265656e7472616e742063616c6c006044820152606401610d8f565b6002600155600061237961322d565b9050804210156123cb5760405162461bcd60e51b815260206004820152601860248201527f54726561737572793a206e6f74206f70656e65642079657400000000000000006044820152606401610d8f565b600a54600160a01b900460ff161561241a5760405162461bcd60e51b8152602060048201526012602482015271151c99585cdd5c9e4e881b5a59dc985d195960721b6044820152606401610d8f565b601c5442101561246c5760405162461bcd60e51b815260206004820152601960248201527f54726561737572793a206e6f74207374617274656420796574000000000000006044820152606401610d8f565b6000806124776112f6565b915091506000811561264557620f4240601e54846124959190614535565b61249f919061442a565b90506000601760019054906101000a90046001600160a01b03166001600160a01b031663f7683bbc6040518163ffffffff1660e01b815260040160206040518083038186803b1580156124f157600080fd5b505afa158015612505573d6000803e3d6000fd5b505050506040513d601f19601f820116820180604052508101906125299190614273565b905060008161253b620f424085614535565b612545919061442a565b601754604051631bc79abb60e11b81526004810183905291925061010090046001600160a01b03169063378f357690602401600060405180830381600087803b15801561259157600080fd5b505af11580156125a5573d6000803e3d6000fd5b5050601d546018546125c793506001600160a01b039081169250166000613ca1565b601d546018546125e4916001600160a01b03918216911683613ca1565b601d546040516397ffe1d760e01b8152600481018390526001600160a01b03909116906397ffe1d790602401600060405180830381600087803b15801561262a57600080fd5b505af115801561263e573d6000803e3d6000fd5b5050505050505b505050601f81905560215461265b906001614412565b6021555060018055565b6000546001600160a01b0316331461268f5760405162461bcd60e51b8152600401610d8f9061436d565b60158190556040518181527f8dc5e5c82c6f0374c531d8bd154e1c2383bbc6508c25ac1922d9506358bbd87290602001610f44565b6000546001600160a01b031633146126ee5760405162461bcd60e51b8152600401610d8f9061436d565b6126f86000613df8565b565b6000546001600160a01b031633146127245760405162461bcd60e51b8152600401610d8f9061436d565b600d8190556040518181527f64756e2e9a2366f396bb12f8d41ca168fe36acf845ec971897e05dcfdd6cb80290602001610f44565b6000546001600160a01b031633146127835760405162461bcd60e51b8152600401610d8f9061436d565b60198190556040518181527f5c68be786a3e70bc5efa5486bb36b1d1c7995a857dbad75bc2184f65b86dec9e90602001610f44565b6007546000906001600160a01b03166127d3575050600d5490565b6127db610e15565b6007546040516370a0823160e01b81526001600160a01b038581166004830152909116906370a082319060240160206040518083038186803b15801561282057600080fd5b505afa158015612834573d6000803e3d6000fd5b505050506040513d601f19601f820116820180604052508101906128589190614273565b10612872576002600d5461286c919061442a565b92915050565b5050600d5490565b60035460408051637eeda70360e01b815290516000926001600160a01b031691637eeda703916004808301926020929190829003018186803b1580156115b557600080fd5b6002546001600160a01b03161561293957600260009054906101000a90046001600160a01b03166001600160a01b031663f12fcaed6040518163ffffffff1660e01b8152600401600060405180830381600087803b15801561292057600080fd5b505af1158015612934573d6000803e3d6000fd5b505050505b6003546001600160a01b0316156129b357600360009054906101000a90046001600160a01b03166001600160a01b031663f12fcaed6040518163ffffffff1660e01b8152600401600060405180830381600087803b15801561299a57600080fd5b505af11580156129ae573d6000803e3d6000fd5b505050505b6004546001600160a01b0316156126f857600480546040805163f12fcaed60e01b815290516001600160a01b039092169263f12fcaed92828201926000929082900301818387803b158015612a0757600080fd5b505af1158015612a1b573d6000803e3d6000fd5b50505050565b6000546001600160a01b03163314612a4b5760405162461bcd60e51b8152600401610d8f9061436d565b60175460ff16612a905760405162461bcd60e51b815260206004820152601060248201526f185b1c9958591e481d5b9c185d5cd95960821b6044820152606401610d8f565b6017805460ff19169055565b600080612aa761346a565b90506000600560009054906101000a90046001600160a01b03166001600160a01b03166318160ddd6040518163ffffffff1660e01b815260040160206040518083038186803b158015612af957600080fd5b505afa158015612b0d573d6000803e3d6000fd5b505050506040513d601f19601f82011682018060405250810190612b319190614273565b9050600081612b43620f424085614535565b612b4d919061442a565b9050620f4240811115612b6657620f4240935050505090565b9392505050565b6000546001600160a01b03163314612b975760405162461bcd60e51b8152600401610d8f9061436d565b601e8190556040518181527f8eb722ebe3bbf915308f2117e24b09dd50aa975f38e506924728c6882c3fdb0890602001610f44565b600a546001600160a01b03163314612c145760405162461bcd60e51b815260206004820152600b60248201526a085cdd1c985d1959da5cdd60aa1b6044820152606401610d8f565b6002546001600160a01b031615612c8e57600260009054906101000a90046001600160a01b03166001600160a01b031663f12fcaed6040518163ffffffff1660e01b8152600401600060405180830381600087803b158015612c7557600080fd5b505af1158015612c89573d6000803e3d6000fd5b505050505b6003546001600160a01b031615612d0857600360009054906101000a90046001600160a01b03166001600160a01b031663f12fcaed6040518163ffffffff1660e01b8152600401600060405180830381600087803b158015612cef57600080fd5b505af1158015612d03573d6000803e3d6000fd5b505050505b6004546001600160a01b031615612d7557600480546040805163f12fcaed60e01b815290516001600160a01b039092169263f12fcaed92828201926000929082900301818387803b158015612d5c57600080fd5b505af1158015612d70573d6000803e3d6000fd5b505050505b600a54600160a01b900460ff1615612d9f5760405162461bcd60e51b8152600401610d8f9061434b565b60175461010090046001600160a01b0316612def5760405162461bcd60e51b815260206004820152601060248201526f085c9958985b185b98da5b99d41bdbdb60821b6044820152606401610d8f565b6018546001600160a01b0316612e475760405162461bcd60e51b815260206004820152601a60248201527f21726562616c616e63696e67506f6f6c436f6c6c61746572616c0000000000006044820152606401610d8f565b601954601a54429190612e5a9083614554565b1015612e9e5760405162461bcd60e51b81526020600482015260136024820152721e3932b130b630b731b2afb1b7b7b63237bbb760691b6044820152606401610d8f565b600080612ea96112f6565b9150915080158015612ebb5750600082115b612ef25760405162461bcd60e51b8152602060048201526008602482015267195e18d95959195960c21b6044820152606401610d8f565b81841115612f2d5760405162461bcd60e51b81526020600482015260086024820152670f9919599a58da5d60c21b6044820152606401610d8f565b6006546040516370a0823160e01b81523060048201526000916001600160a01b0316906370a082319060240160206040518083038186803b158015612f7157600080fd5b505afa158015612f85573d6000803e3d6000fd5b505050506040513d601f19601f82011682018060405250810190612fa99190614273565b905080861115612feb5760405162461bcd60e51b815260206004820152600d60248201526c3e736861726542616c616e636560981b6044820152606401610d8f565b600654600090613005906001600160a01b031688886138c1565b6018546040516370a0823160e01b81523060048201529192506000916001600160a01b03909116906370a082319060240160206040518083038186803b15801561304e57600080fd5b505afa158015613062573d6000803e3d6000fd5b505050506040513d601f19601f820116820180604052508101906130869190614273565b905080156130b1576017546018546130b1916001600160a01b03918216916101009091041683613e48565b6000601760019054906101000a90046001600160a01b03166001600160a01b031663f7683bbc6040518163ffffffff1660e01b815260040160206040518083038186803b15801561310157600080fd5b505afa158015613115573d6000803e3d6000fd5b505050506040513d601f19601f820116820180604052508101906131399190614273565b90506000620f424061314b8386614535565b613155919061442a565b604080518c8152602081018790529081018290529091507fa2f547fe4fa01671ec43d126d393c239e285ccfc633822b6413c5f474a73c1ac9060600160405180910390a1505050601a94909455505050505050565b6000546001600160a01b031633146131d45760405162461bcd60e51b8152600401610d8f9061436d565b602154156132165760405162461bcd60e51b815260206004820152600f60248201526e185b1c9958591e481cdd185c9d1959608a1b6044820152606401610d8f565b601c81905561322761708082614554565b601f5550565b6000602054601f546115ed9190614412565b6000546001600160a01b031633146132695760405162461bcd60e51b8152600401610d8f9061436d565b600a80546001600160a01b0319166001600160a01b0383169081179091556040519081527fe600379696b343003b56cf9da05b861eb1e083a0207db6168f9f42f55cbcbe4790602001610f44565b6000546001600160a01b031633146132e15760405162461bcd60e51b8152600401610d8f9061436d565b600a54600160a01b900460ff161561330b5760405162461bcd60e51b8152600401610d8f9061434b565b600a805460ff60a01b1916600160a01b1790556006546040516370a0823160e01b81523060048201526000916001600160a01b0316906370a082319060240160206040518083038186803b15801561336257600080fd5b505afa158015613376573d6000803e3d6000fd5b505050506040513d601f19601f8201168201806040525081019061339a9190614273565b905080156133b9576006546133b9906001600160a01b03168383613e48565b6018546001600160a01b0316156117e2576018546040516370a0823160e01b81523060048201526000916001600160a01b0316906370a082319060240160206040518083038186803b15801561340e57600080fd5b505afa158015613422573d6000803e3d6000fd5b505050506040513d601f19601f820116820180604052508101906134469190614273565b9050801561346557601854613465906001600160a01b03168483613e48565b505050565b600080805b600b548110156135805760006001600160a01b0316600b82815481106134a557634e487b7160e01b600052603260045260246000fd5b6000918252602090912001546001600160a01b03161461356e57600b81815481106134e057634e487b7160e01b600052603260045260246000fd5b6000918252602091829020015460408051639c84d0f560e01b815290516001600160a01b0390921692639c84d0f592600480840193829003018186803b15801561352957600080fd5b505afa15801561353d573d6000803e3d6000fd5b505050506040513d601f19601f820116820180604052508101906135619190614273565b61356b9083614412565b91505b8061357881614597565b91505061346f565b50919050565b6000546001600160a01b031633146135b05760405162461bcd60e51b8152600401610d8f9061436d565b600a54600160a01b900460ff16156135da5760405162461bcd60e51b8152600401610d8f9061434b565b6001600160a01b0381166000908152600c602052604090205460ff16156136315760405162461bcd60e51b815260206004820152600b60248201526a1c1bdbdb115e1a5cdd195960aa1b6044820152606401610d8f565b6001600160a01b03166000818152600c60205260408120805460ff19166001908117909155600b805491820181559091527f0175b7a638427703f0dbe7bb9bbf987a2551717b34e79f33b5b1008d1fa01db90180546001600160a01b0319169091179055565b6000546001600160a01b031633146136c15760405162461bcd60e51b8152600401610d8f9061436d565b601b80546001600160a01b038881166001600160a01b0319928316811790935560078054898316908416811790915560088054898416908516811790915560098054898516908616811790915560068054898616908716811790915560058054958916959096168517909555604080519687526020870193909352918501526060840152608083019190915260a08201527fb8fc7a8126f8ccf39c170984392d9919300e10995242da25b139238322242eca9060c00160405180910390a1505050505050565b6000546001600160a01b031633146137b15760405162461bcd60e51b8152600401610d8f9061436d565b806001600160a01b0381166137d85760405162461bcd60e51b8152600401610d8f9061431c565b600480546001600160a01b0319166001600160a01b0384169081179091556040519081527f3119cfa553b658d9195746a2ed77dd3ae054855b10cd3b4745d326bdc404ff1e90602001610e09565b6000546001600160a01b031633146138505760405162461bcd60e51b8152600401610d8f9061436d565b6001600160a01b0381166138b55760405162461bcd60e51b815260206004820152602660248201527f4f776e61626c653a206e6577206f776e657220697320746865207a65726f206160448201526564647265737360d01b6064820152608401610d8f565b6138be81613df8565b50565b6009546000906001600160a01b03858116911614806138ed57506006546001600160a01b038581169116145b80156139035750601b546001600160a01b031615155b801561391957506006546001600160a01b031615155b801561392f57506008546001600160a01b031615155b801561394557506009546001600160a01b031615155b6139915760405162461bcd60e51b815260206004820152601760248201527f626164546f6b656e5265636569766564466f72537761700000000000000000006044820152606401610d8f565b8261399e57506000612b66565b6040805160038082526080820190925260009160208201606080368337019050506006549091506001600160a01b0386811691161415613aab5760065481516001600160a01b03909116908290600090613a0857634e487b7160e01b600052603260045260246000fd5b6001600160a01b039283166020918202929092010152600854825191169082906001908110613a4757634e487b7160e01b600052603260045260246000fd5b6001600160a01b039283166020918202929092010152600954825191169082906002908110613a8657634e487b7160e01b600052603260045260246000fd5b60200260200101906001600160a01b031690816001600160a01b031681525050613b90565b6009546001600160a01b0386811691161415613b905760095481516001600160a01b03909116908290600090613af157634e487b7160e01b600052603260045260246000fd5b6001600160a01b039283166020918202929092010152600854825191169082906001908110613b3057634e487b7160e01b600052603260045260246000fd5b6001600160a01b039283166020918202929092010152600654825191169082906002908110613b6f57634e487b7160e01b600052603260045260246000fd5b60200260200101906001600160a01b031690816001600160a01b0316815250505b601b54613bab906001600160a01b0387811691166000613ca1565b601b54613bc5906001600160a01b03878116911686613ca1565b601b546000906001600160a01b03166338ed173986868530613be942610708614412565b6040518663ffffffff1660e01b8152600401613c099594939291906143a2565b600060405180830381600087803b158015613c2357600080fd5b505af1158015613c37573d6000803e3d6000fd5b505050506040513d6000823e601f3d908101601f19168201604052613c5f919081019061417b565b90508060018251613c709190614554565b81518110613c8e57634e487b7160e01b600052603260045260246000fd5b6020026020010151925050509392505050565b801580613d2a5750604051636eb1769f60e11b81523060048201526001600160a01b03838116602483015284169063dd62ed3e9060440160206040518083038186803b158015613cf057600080fd5b505afa158015613d04573d6000803e3d6000fd5b505050506040513d601f19601f82011682018060405250810190613d289190614273565b155b613d955760405162461bcd60e51b815260206004820152603660248201527f5361666545524332303a20617070726f76652066726f6d206e6f6e2d7a65726f60448201527520746f206e6f6e2d7a65726f20616c6c6f77616e636560501b6064820152608401610d8f565b6040516001600160a01b03831660248201526044810182905261346590849063095ea7b360e01b906064015b60408051601f198184030181529190526020810180516001600160e01b03166001600160e01b031990931692909217909152613e78565b600080546001600160a01b038381166001600160a01b0319831681178455604051919092169283917f8be0079c531659141344cd1fd0a4f28419497f9722a3daafe3b4186f6b6457e09190a35050565b6040516001600160a01b03831660248201526044810182905261346590849063a9059cbb60e01b90606401613dc1565b6000613ecd826040518060400160405280602081526020017f5361666545524332303a206c6f772d6c6576656c2063616c6c206661696c6564815250856001600160a01b0316613f4a9092919063ffffffff16565b8051909150156134655780806020019051810190613eeb919061423b565b6134655760405162461bcd60e51b815260206004820152602a60248201527f5361666545524332303a204552433230206f7065726174696f6e20646964206e6044820152691bdd081cdd58d8d9595960b21b6064820152608401610d8f565b6060613f598484600085613f61565b949350505050565b606082471015613fc25760405162461bcd60e51b815260206004820152602660248201527f416464726573733a20696e73756666696369656e742062616c616e636520666f6044820152651c8818d85b1b60d21b6064820152608401610d8f565b843b6140105760405162461bcd60e51b815260206004820152601d60248201527f416464726573733a2063616c6c20746f206e6f6e2d636f6e74726163740000006044820152606401610d8f565b600080866001600160a01b0316858760405161402c91906142cd565b60006040518083038185875af1925050503d8060008114614069576040519150601f19603f3d011682016040523d82523d6000602084013e61406e565b606091505b509150915061407e828286614089565b979650505050505050565b60608315614098575081612b66565b8251156140a85782518084602001fd5b8160405162461bcd60e51b8152600401610d8f91906142e9565b6000602082840312156140d3578081fd5b8135612b66816145de565b6000602082840312156140ef578081fd5b8151612b66816145de565b60008060008060008060c08789031215614112578182fd5b863561411d816145de565b9550602087013561412d816145de565b9450604087013561413d816145de565b9350606087013561414d816145de565b9250608087013561415d816145de565b915060a087013561416d816145de565b809150509295509295509295565b6000602080838503121561418d578182fd5b825167ffffffffffffffff808211156141a4578384fd5b818501915085601f8301126141b7578384fd5b8151818111156141c9576141c96145c8565b8060051b604051601f19603f830116810181811085821117156141ee576141ee6145c8565b604052828152858101935084860182860187018a101561420c578788fd5b8795505b8386101561422e578051855260019590950194938601938601614210565b5098975050505050505050565b60006020828403121561424c578081fd5b81518015158114612b66578182fd5b60006020828403121561426c578081fd5b5035919050565b600060208284031215614284578081fd5b5051919050565b6000806040838503121561429d578182fd5b50508035926020909101359150565b6000602082840312156142bd578081fd5b815160ff81168114612b66578182fd5b600082516142df81846020870161456b565b9190910192915050565b602081526000825180602084015261430881604085016020870161456b565b601f01601f19169190910160400192915050565b6020808252601590820152747265636569766564207a65726f206164647265737360581b604082015260600190565b6020808252600890820152671b5a59dc985d195960c21b604082015260600190565b6020808252818101527f4f776e61626c653a2063616c6c6572206973206e6f7420746865206f776e6572604082015260600190565b600060a082018783526020878185015260a0604085015281875180845260c0860191508289019350845b818110156143f15784516001600160a01b0316835293830193918301916001016143cc565b50506001600160a01b03969096166060850152505050608001529392505050565b60008219821115614425576144256145b2565b500190565b60008261444557634e487b7160e01b81526012600452602481fd5b500490565b600181815b8085111561448557816000190482111561446b5761446b6145b2565b8085161561447857918102915b93841c939080029061444f565b509250929050565b6000612b6683836000826144a35750600161286c565b816144b05750600061286c565b81600181146144c657600281146144d0576144ec565b600191505061286c565b60ff8411156144e1576144e16145b2565b50506001821b61286c565b5060208310610133831016604e8410600b841016171561450f575081810a61286c565b614519838361444a565b806000190482111561452d5761452d6145b2565b029392505050565b600081600019048311821515161561454f5761454f6145b2565b500290565b600082821015614566576145666145b2565b500390565b60005b8381101561458657818101518382015260200161456e565b83811115612a1b5750506000910152565b60006000198214156145ab576145ab6145b2565b5060010190565b634e487b7160e01b600052601160045260246000fd5b634e487b7160e01b600052604160045260246000fd5b6001600160a01b03811681146138be57600080fdfea2646970667358221220edc2ed14a3a23e6f493da142996e04e11e93736469b034b09f35251da3539d2b64736f6c63430008040033",
  "immutableReferences": {},
  "source": "// SPDX-License-Identifier: MIT\r\npragma solidity 0.8.4;\r\n\r\nimport \"@openzeppelin/contracts/token/ERC20/IERC20.sol\";\r\nimport \"@openzeppelin/contracts/token/ERC20/utils/SafeERC20.sol\";\r\nimport \"@openzeppelin/contracts/security/ReentrancyGuard.sol\";\r\nimport \"@openzeppelin/contracts/access/Ownable.sol\";\r\nimport \"@openzeppelin/contracts/token/ERC20/extensions/IERC20Metadata.sol\";\r\n\r\nimport \"./interfaces/IUniswapRouter.sol\";\r\nimport \"./interfaces/IFoundry.sol\";\r\nimport \"./interfaces/IPool.sol\";\r\nimport \"./interfaces/IOracle.sol\";\r\nimport \"./interfaces/ITreasury.sol\";\r\n\r\ncontract Treasury is ITreasury, Ownable, ReentrancyGuard {\r\n    using SafeERC20 for IERC20;\r\n\r\n    address public oracleDollar;//custom token oracle\r\n    address public oracleShare;//custom token oracle\r\n    address public oracleGovToken;//custom token oracle\r\n\r\n    address public dollar;\r\n    address public share;\r\n    address public governanceToken;\r\n    address public wcoin;\r\n    address public collateral;\r\n    address public strategist;\r\n    bool public migrated = false;\r\n\r\n    // pools\r\n    address[] public pools_array;\r\n    mapping(address => bool) public pools;\r\n\r\n    // Constants for various precisions\r\n    uint256 private constant PRICE_PRECISION = 1e6;\r\n    uint256 private constant RATIO_PRECISION = 1e6;\r\n\r\n    // fees\r\n    uint256 public redemption_fee = 4000; // 6 decimals of precision\r\n    uint256 public minting_fee = 3000; // 6 decimals of precision\r\n\r\n    // collateral_ratio\r\n    uint256 public last_refresh_cr_timestamp;\r\n    uint256 public target_collateral_ratio = 1000000; // = 100% - fully collateralized at start; // 6 decimals of precision\r\n    uint256 public effective_collateral_ratio = 1000000; // = 100% - fully collateralized at start; // 6 decimals of precision\r\n    uint256 public refresh_cooldown = 600; // Refresh cooldown period is set to 10min at genesis; // Seconds to wait before being able to run refreshCollateralRatio() again\r\n    uint256 public ratio_step = 2500; // Amount to change the collateralization ratio by upon refreshCollateralRatio() // = 0.25% at 6 decimals of precision\r\n    uint256 public price_target = 1000000; // = $1. (6 decimals of precision). Collateral ratio will adjust according to the $1 price target at genesis; // The price of dollar at which the collateral ratio will respond to; this value is only used for the collateral ratio mechanism and not for minting and redeeming which are hardcoded at $1\r\n    uint256 public price_band = 5000; // The bound above and below the price target at which the Collateral ratio is allowed to drop\r\n    uint256 public gov_token_value_for_discount = 1000;//1000$ in governance tokens\r\n    uint256 private constant COLLATERAL_RATIO_MAX = 1e6;\r\n    bool public collateral_ratio_paused = true; // during bootstraping phase, collateral_ratio will be fixed at 100%\r\n\r\n    // rebalance\r\n    address public rebalancing_pool;\r\n    address public rebalancing_pool_collateral;\r\n    uint256 public rebalance_cooldown = 12 hours;\r\n    uint256 public last_rebalance_timestamp;\r\n\r\n    // uniswap\r\n    address public uniswap_router;\r\n\r\n    // foundry\r\n    uint256 public startTime;\r\n    address public foundry;\r\n    uint256 public excess_collateral_distributed_ratio = 50000; // 5% per epoch\r\n    uint256 public lastEpochTime;\r\n    uint256 public epoch_length;\r\n    uint256 private _epoch = 0;\r\n\r\n\r\n    /* ========== MODIFIERS ========== */\r\n    modifier withOracleUpdates(){\r\n        if (oracleDollar != address(0)) IOracle(oracleDollar).updateIfRequired();//custom token oracle\r\n        if (oracleShare != address(0)) IOracle(oracleShare).updateIfRequired();//custom token oracle\r\n        if (oracleGovToken != address(0)) IOracle(oracleGovToken).updateIfRequired();//custom token oracle\r\n        _;\r\n    }\r\n\r\n    modifier notMigrated() {\r\n        require(migrated == false, \"migrated\");\r\n        _;\r\n    }\r\n\r\n    modifier hasRebalancePool() {\r\n        require(rebalancing_pool != address(0), \"!rebalancingPool\");\r\n        require(rebalancing_pool_collateral != address(0), \"!rebalancingPoolCollateral\");\r\n        _;\r\n    }\r\n\r\n    modifier checkRebalanceCooldown() {\r\n        uint256 _blockTimestamp = block.timestamp;\r\n        require(_blockTimestamp - last_rebalance_timestamp >= rebalance_cooldown, \"<rebalance_cooldown\");\r\n        _;\r\n        last_rebalance_timestamp = _blockTimestamp;\r\n    }\r\n\r\n    modifier checkEpoch {\r\n        uint256 _nextEpochPoint = nextEpochPoint();\r\n        require(block.timestamp >= _nextEpochPoint, \"Treasury: not opened yet\");\r\n        _;\r\n        lastEpochTime = _nextEpochPoint;\r\n        _epoch = _epoch + 1;\r\n    }\r\n\r\n    modifier onlyStrategist{\r\n        require(msg.sender == strategist, \"!strategist\");\r\n        _;\r\n    }\r\n    \r\n    modifier nonZeroAddress(address addr){\r\n        require(addr != address(0), \"received zero address\");\r\n        _;\r\n    }\r\n\r\n\r\n    /* ========== EVENTS ============= */\r\n    event BoughtBack(uint256 collateral_value, uint256 collateral_amount, uint256 output_share_amount);\r\n    event Recollateralized(uint256 share_amount, uint256 output_collateral_amount, uint256 output_collateral_value);\r\n    event New_GovTokenValueForDiscount(uint256 value);\r\n    event New_RedemptionFee(uint256 _redemption_fee);\r\n    event New_MintingFee(uint256 _minting_fee);\r\n    event New_RatioStep(uint256 _ratio_step);\r\n    event New_PriceTarget(uint256 _price_target);\r\n    event New_RefreshCooldown(uint256 _refresh_cooldown);\r\n    event New_PriceBand(uint256 _price_band);\r\n    event New_OracleDollar(address _oracle);\r\n    event New_OracleShare(address _oracle);\r\n    event New_OracleGovToken(address _oracle);\r\n    event New_Foundry(address _foundry);\r\n    event New_EpochLength(uint256 _epoch_length);\r\n    event New_RebalanceCooldown(uint256 _cooldown);\r\n    event New_ExcessDistributionRatio(uint256 _ratio);\r\n    event New_Strategist(address _strategist);\r\n    event New_Tokens(address _uniswap_router,address _governanceToken,address _wcoin,address _collateral,address _share,address _dollar);\r\n    event New_RebalancePool(address _rebalance_pool);\r\n    \r\n\r\n    constructor (uint256 _startTime, uint256 _epoch_length){\r\n        require(_startTime >= block.timestamp, \"Start time initialized to the past\");\r\n        startTime = _startTime;\r\n        epoch_length = _epoch_length;\r\n        lastEpochTime = _startTime - epoch_length;\r\n        setStrategist(msg.sender);\r\n    }\r\n\r\n    /*=========== VIEWS ===========*/\r\n    function dollarPrice() public view returns (uint256) {return IOracle(oracleDollar).consult();}\r\n    function sharePrice() public view returns (uint256) {return IOracle(oracleShare).consult();}\r\n    function gov_token_price() public view returns (uint256) {return IOracle(oracleGovToken).consult();}\r\n    function hasPool(address _address) external view override returns (bool) {return pools[_address] == true;}\r\n    function nextEpochPoint() public view override returns (uint256) {return lastEpochTime + epoch_length;}\r\n    function epoch() public view override returns (uint256) {return _epoch;}\r\n\r\n    function redemption_fee_adjusted(address _caller) public view returns (uint256 redemptionFee) {\r\n        if (governanceToken == address(0)) return redemption_fee;\r\n        if (IERC20(governanceToken).balanceOf(_caller) >= discount_requirenment()) return redemption_fee / 2;\r\n        return redemption_fee;\r\n    }\r\n\r\n    function discount_requirenment() public view returns (uint256) {\r\n        uint256 govTokenPrice = gov_token_price();\r\n        if (govTokenPrice == 0) return 1;\r\n        uint256 decimals = IERC20Metadata(governanceToken).decimals();\r\n        return  gov_token_value_for_discount * PRICE_PRECISION * 10**decimals / govTokenPrice;\r\n    }\r\n\r\n    function info(address _caller) external view override returns (\r\n        uint256,\r\n        uint256,\r\n        uint256,\r\n        uint256,\r\n        uint256,\r\n        uint256,\r\n        uint256\r\n    ){\r\n        return (\r\n            dollarPrice(), \r\n            sharePrice(), \r\n            target_collateral_ratio, \r\n            effective_collateral_ratio, \r\n            globalCollateralValue(),    \r\n            minting_fee, \r\n            redemption_fee_adjusted(_caller)\r\n        );\r\n    }\r\n\r\n    function epochInfo() external view override returns (\r\n        uint256,\r\n        uint256,\r\n        uint256,\r\n        uint256\r\n    ){\r\n        return (\r\n            epoch(), \r\n            nextEpochPoint(), \r\n            epoch_length, \r\n            excess_collateral_distributed_ratio\r\n        );\r\n    }\r\n\r\n    // Iterate through all pools and calculate all value of collateral in all pools globally\r\n    function globalCollateralValue() public view returns (uint256) {\r\n        uint256 total_collateral_value = 0;\r\n        for (uint256 i = 0; i < pools_array.length; i++) {\r\n            if (pools_array[i] != address(0)) {\r\n                total_collateral_value = total_collateral_value + IPool(pools_array[i]).collateralDollarBalance();\r\n            }\r\n        }\r\n        return total_collateral_value;\r\n    }\r\n\r\n    function calcEffectiveCollateralRatio() public view returns (uint256) {\r\n        uint256 total_collateral_value = globalCollateralValue();\r\n        uint256 total_supply_dollar = IERC20(dollar).totalSupply();\r\n        uint256 ecr = total_collateral_value * PRICE_PRECISION / total_supply_dollar;\r\n        if (ecr > COLLATERAL_RATIO_MAX) return COLLATERAL_RATIO_MAX;\r\n        return ecr;\r\n    }\r\n\r\n    function refreshCollateralRatio() public withOracleUpdates{\r\n        require(collateral_ratio_paused == false, \"Collateral Ratio has been paused\");\r\n        require(block.timestamp - last_refresh_cr_timestamp >= refresh_cooldown, \"Must wait for the refresh cooldown since last refresh\");\r\n        uint256 current_dollar_price = dollarPrice();\r\n        \r\n        if (current_dollar_price > price_target + price_band ) {\r\n            if (target_collateral_ratio <= ratio_step) {// decrease collateral ratio\r\n                target_collateral_ratio = 0;// if within a step of 0, go to 0\r\n            } else {\r\n                target_collateral_ratio = target_collateral_ratio - ratio_step;\r\n            }\r\n        }\r\n        // Dollar price is below $1 - `price_band`. Need to increase `collateral_ratio`\r\n        else if (current_dollar_price < price_target - price_band) {\r\n            if (target_collateral_ratio + ratio_step >= COLLATERAL_RATIO_MAX) {// increase collateral ratio\r\n                target_collateral_ratio = COLLATERAL_RATIO_MAX; // cap collateral ratio at 1.000000\r\n            } else {\r\n                target_collateral_ratio = target_collateral_ratio + ratio_step;\r\n            }\r\n        }\r\n\r\n        effective_collateral_ratio = calcEffectiveCollateralRatio();\r\n        last_refresh_cr_timestamp = block.timestamp;\r\n    }\r\n\r\n    // Check if the protocol is over- or under-collateralized, by how much\r\n    function calcCollateralBalance() public view returns (uint256 _collateral_value, bool _exceeded) {\r\n        uint256 total_collateral_value = globalCollateralValue();\r\n        uint256 target_collateral_value = IERC20(dollar).totalSupply() * target_collateral_ratio / PRICE_PRECISION;\r\n        if (total_collateral_value >= target_collateral_value) {\r\n            _collateral_value = total_collateral_value - target_collateral_value;\r\n            _exceeded = true;\r\n        } else {\r\n            _collateral_value = target_collateral_value - total_collateral_value;\r\n            _exceeded = false;\r\n        }\r\n    }\r\n\r\n    /* -========= INTERNAL FUNCTIONS ============ */\r\n\r\n    // SWAP tokens using quickswap\r\n    function _swap(address _input_token, uint256 _input_amount, uint256 _min_output_amount) internal returns (uint256) {\r\n        require(\r\n            (_input_token == collateral || _input_token == share) &&\r\n            uniswap_router != address(0) && \r\n            share != address(0) && \r\n            wcoin != address(0) &&\r\n            collateral != address(0), \r\n            \"badTokenReceivedForSwap\"\r\n        );\r\n        if (_input_amount == 0) return 0;\r\n        address[] memory _path = new address[](3);\r\n        if (_input_token == share) {\r\n            _path[0] = share;\r\n            _path[1] = wcoin;\r\n            _path[2] = collateral;\r\n        } else if(_input_token == collateral) {\r\n            _path[0] = collateral;\r\n            _path[1] = wcoin;\r\n            _path[2] = share;\r\n        }\r\n        \r\n        IERC20(_input_token).safeApprove(uniswap_router, 0);\r\n        IERC20(_input_token).safeApprove(uniswap_router, _input_amount);\r\n        uint256[] memory out_amounts = IUniswapRouter(uniswap_router).swapExactTokensForTokens(_input_amount, _min_output_amount, _path, address(this), block.timestamp + 1800);\r\n        return out_amounts[out_amounts.length - 1];\r\n    }\r\n    /* ========== RESTRICTED FUNCTIONS ========== */\r\n\r\n    // Add new Pool\r\n    function addPool(address pool_address) public onlyOwner notMigrated {\r\n        require(pools[pool_address] == false, \"poolExisted\");\r\n        pools[pool_address] = true;\r\n        pools_array.push(pool_address);\r\n    }\r\n\r\n    // Remove a pool\r\n    function removePool(address pool_address) public onlyOwner notMigrated {\r\n        require(rebalancing_pool != pool_address, \"Cant`t delete active rebalance pool\");\r\n        require(pools[pool_address] == true, \"!pool\");        \r\n        delete pools[pool_address];// Delete from the mapping\r\n        for (uint256 i = 0; i < pools_array.length; i++) {\r\n            if (pools_array[i] == pool_address) {\r\n                pools_array[i] = address(0); // This will leave a null in the array and keep the indices the same\r\n                break;\r\n            }\r\n        }\r\n    }\r\n\r\n    function buyback(uint256 _collateral_value, uint256 _min_share_amount) external onlyStrategist withOracleUpdates notMigrated hasRebalancePool checkRebalanceCooldown {\r\n        (uint256 _excess_collateral_value, bool _exceeded) = calcCollateralBalance();\r\n        require(_exceeded && _excess_collateral_value > 0, \"!exceeded\");\r\n        require(_collateral_value > 0 && _collateral_value < _excess_collateral_value, \"invalidCollateralAmount\");\r\n        uint256 _collateral_price = IPool(rebalancing_pool).getCollateralPrice();\r\n        uint256 _collateral_amount_sell = _collateral_value * PRICE_PRECISION / _collateral_price;\r\n        require(IERC20(rebalancing_pool_collateral).balanceOf(rebalancing_pool) > _collateral_amount_sell, \"insufficentPoolBalance\");\r\n        IPool(rebalancing_pool).transferCollateralToTreasury(_collateral_amount_sell); // Transfer collateral from pool to treasury\r\n        uint256 out_share_amount = _swap(rebalancing_pool_collateral, _collateral_amount_sell, _min_share_amount);\r\n        emit BoughtBack(_collateral_value, _collateral_amount_sell, out_share_amount);\r\n    }\r\n\r\n    function recollateralize(uint256 _share_amount, uint256 _min_collateral_amount) external onlyStrategist withOracleUpdates notMigrated hasRebalancePool checkRebalanceCooldown {\r\n        (uint256 _deficit_collateral_value, bool _exceeded) = calcCollateralBalance();\r\n        require(!_exceeded && _deficit_collateral_value > 0, \"exceeded\");\r\n        require(_min_collateral_amount <= _deficit_collateral_value, \">deficit\");\r\n        uint256 _share_balance = IERC20(share).balanceOf(address(this));\r\n        require(_share_amount <= _share_balance, \">shareBalance\");\r\n        uint256 out_collateral_amount = _swap(share, _share_amount, _min_collateral_amount);\r\n        uint256 _collateral_balance = IERC20(rebalancing_pool_collateral).balanceOf(address(this));\r\n        if (_collateral_balance > 0) {\r\n            IERC20(rebalancing_pool_collateral).safeTransfer(rebalancing_pool, _collateral_balance); // Transfer collateral from Treasury to Pool\r\n        }\r\n        uint256 collateral_price = IPool(rebalancing_pool).getCollateralPrice();\r\n        uint256 out_collateral_value = out_collateral_amount * collateral_price / PRICE_PRECISION;\r\n        emit Recollateralized(_share_amount, out_collateral_amount, out_collateral_value);\r\n    }\r\n\r\n    function allocateSeigniorage() external withOracleUpdates notMigrated nonReentrant checkEpoch {\r\n        require(!migrated, \"Treasury: migrated\");\r\n        require(block.timestamp >= startTime, \"Treasury: not started yet\");\r\n        (uint256 _excess_collateral_value, bool _exceeded) = calcCollateralBalance();\r\n        uint256 _allocation_value = 0;\r\n        if (_exceeded) {\r\n            _allocation_value = _excess_collateral_value * excess_collateral_distributed_ratio / RATIO_PRECISION;\r\n            uint256 collateral_price = IPool(rebalancing_pool).getCollateralPrice();\r\n            uint256 _allocation_amount = _allocation_value * PRICE_PRECISION / collateral_price;\r\n            IPool(rebalancing_pool).transferCollateralToTreasury(_allocation_amount); // Transfer collateral from pool to treasury\r\n            IERC20(rebalancing_pool_collateral).safeApprove(foundry, 0);\r\n            IERC20(rebalancing_pool_collateral).safeApprove(foundry, _allocation_amount);\r\n            IFoundry(foundry).allocateSeigniorage(_allocation_amount);\r\n        }\r\n    }\r\n\r\n    function migrate(address _new_treasury) external onlyOwner notMigrated {\r\n        migrated = true;\r\n        uint256 _share_balance = IERC20(share).balanceOf(address(this));\r\n        if (_share_balance > 0) {\r\n            IERC20(share).safeTransfer(_new_treasury, _share_balance);\r\n        }\r\n        if (rebalancing_pool_collateral != address(0)) {\r\n            uint256 _collateral_balance = IERC20(rebalancing_pool_collateral).balanceOf(address(this));\r\n            if (_collateral_balance > 0) {\r\n                IERC20(rebalancing_pool_collateral).safeTransfer(_new_treasury, _collateral_balance);\r\n            }\r\n        }\r\n    }\r\n\r\n    //setters\r\n    function setGovTokenValueForDiscount(uint256 value) public onlyOwner {\r\n        gov_token_value_for_discount = value;\r\n        emit New_GovTokenValueForDiscount(gov_token_value_for_discount);\r\n    }\r\n    \r\n    function setRedemptionFee(uint256 _redemption_fee) public onlyOwner {\r\n        redemption_fee = _redemption_fee;\r\n        emit New_RedemptionFee(redemption_fee);\r\n    }\r\n    \r\n    function setMintingFee(uint256 _minting_fee) public onlyOwner {\r\n        minting_fee = _minting_fee;\r\n        emit New_MintingFee(minting_fee);\r\n    }\r\n    \r\n    function setRatioStep(uint256 _ratio_step) public onlyOwner {\r\n        ratio_step = _ratio_step;\r\n        emit New_RatioStep(ratio_step);\r\n    }\r\n\r\n    function setPriceTarget(uint256 _price_target) public onlyOwner {\r\n        price_target = _price_target;\r\n        emit New_PriceTarget(price_target);\r\n    }\r\n    \r\n    function setRefreshCooldown(uint256 _refresh_cooldown) public onlyOwner {\r\n        refresh_cooldown = _refresh_cooldown;\r\n        emit New_RefreshCooldown(refresh_cooldown);\r\n    }\r\n    \r\n    function setPriceBand(uint256 _price_band) external onlyOwner {\r\n        price_band = _price_band;\r\n        emit New_PriceBand(price_band);\r\n    }\r\n    \r\n    function unpauseCollateralRatio() public onlyOwner {\r\n        require(collateral_ratio_paused, \"already unpaused\");\r\n        collateral_ratio_paused = false;\r\n    }\r\n    \r\n    function setOracleDollar(address _oracle) public onlyOwner nonZeroAddress(_oracle) {\r\n        oracleDollar = _oracle;\r\n        emit New_OracleDollar(oracleDollar);\r\n    }\r\n    \r\n    function setOracleShare(address _oracle) public onlyOwner nonZeroAddress(_oracle) {\r\n        oracleShare = _oracle;\r\n        emit New_OracleShare(oracleShare);\r\n    }\r\n    \r\n    function setOracleGovToken(address _oracle) public onlyOwner nonZeroAddress(_oracle) {\r\n        oracleGovToken = _oracle;\r\n        emit New_OracleGovToken(oracleGovToken);\r\n    }\r\n    \r\n    function setFoundry(address _foundry) public onlyOwner nonZeroAddress(_foundry){\r\n        foundry = _foundry; \r\n        emit New_Foundry(foundry);\r\n    }\r\n    \r\n    function setEpochLength(uint256 _epoch_length) public onlyOwner {\r\n        epoch_length = _epoch_length;\r\n        emit New_EpochLength(epoch_length);\r\n    }\r\n    \r\n    function setRebalanceCooldown(uint256 _cooldown) public onlyOwner {\r\n        rebalance_cooldown = _cooldown;\r\n        emit New_RebalanceCooldown(rebalance_cooldown);\r\n    }\r\n    \r\n    function setExcessDistributionRatio(uint256 _ratio) public onlyOwner {\r\n        excess_collateral_distributed_ratio = _ratio;\r\n        emit New_ExcessDistributionRatio(excess_collateral_distributed_ratio);\r\n    }\r\n\r\n    function updateOracles() public override withOracleUpdates {/*empty, used only for modifier*/}\r\n    \r\n    function setStrategist(address _strategist) public onlyOwner {\r\n        strategist = _strategist; \r\n        emit New_Strategist(strategist);\r\n    }\r\n    \r\n    function installTokens(\r\n        address _uniswap_router,\r\n        address _governanceToken,\r\n        address _wcoin,\r\n        address _collateral,\r\n        address _share,\r\n        address _dollar\r\n    ) public onlyOwner {\r\n        \r\n        uniswap_router  = _uniswap_router;\r\n        governanceToken = _governanceToken;\r\n        wcoin           = _wcoin;\r\n        collateral      = _collateral;\r\n        share           = _share;\r\n        dollar          = _dollar;\r\n        \r\n        emit New_Tokens(\r\n            uniswap_router,\r\n            governanceToken,\r\n            wcoin,\r\n            collateral,\r\n            share,\r\n            dollar\r\n        );\r\n    }\r\n\r\n    function setRebalancePool(address _rebalance_pool) public onlyOwner  {\r\n        require(pools[_rebalance_pool], \"!pool\");\r\n        require(IPool(_rebalance_pool).getCollateralToken() != address(0), \"!poolCollateralToken\");\r\n        rebalancing_pool = _rebalance_pool;\r\n        rebalancing_pool_collateral = IPool(_rebalance_pool).getCollateralToken();\r\n        emit New_RebalancePool(rebalancing_pool);\r\n    }\r\n    \r\n    function resetStartTime(uint256 _startTime) external onlyOwner {\r\n        require(_epoch == 0, \"already started\");\r\n        startTime = _startTime;\r\n        lastEpochTime = _startTime - 8 hours;\r\n    }\r\n\r\n    receive() external payable {}\r\n}\r\n",
  "sourcePath": "C:/Users/PaulMuller/Documents/projects/project_AGO/contracts/Treasury.sol",
  "compiler": {
    "name": "solc",
    "version": "0.8.4+commit.c7e474f2.Emscripten.clang"
  },
  "schemaVersion": "3.4.1",
  "updatedAt": "2021-08-08T11:17:19.665Z",
  "devdoc": {
    "kind": "dev",
    "methods": {
      "owner()": {
        "details": "Returns the address of the current owner."
      },
      "renounceOwnership()": {
        "details": "Leaves the contract without owner. It will not be possible to call `onlyOwner` functions anymore. Can only be called by the current owner. NOTE: Renouncing ownership will leave the contract without an owner, thereby removing any functionality that is only available to the owner."
      },
      "transferOwnership(address)": {
        "details": "Transfers ownership of the contract to a new account (`newOwner`). Can only be called by the current owner."
      }
    },
    "version": 1
  },
  "userdoc": {
    "kind": "user",
    "methods": {},
    "version": 1
  }
}