{
  "contractName": "Treasury",
  "abi": [
    {
      "anonymous": false,
      "inputs": [
        {
          "indexed": false,
          "internalType": "uint256",
          "name": "collateral_value",
          "type": "uint256"
        },
        {
          "indexed": false,
          "internalType": "uint256",
          "name": "collateral_amount",
          "type": "uint256"
        },
        {
          "indexed": false,
          "internalType": "uint256",
          "name": "output_share_amount",
          "type": "uint256"
        }
      ],
      "name": "BoughtBack",
      "type": "event"
    },
    {
      "anonymous": false,
      "inputs": [
        {
          "indexed": true,
          "internalType": "address",
          "name": "previousOwner",
          "type": "address"
        },
        {
          "indexed": true,
          "internalType": "address",
          "name": "newOwner",
          "type": "address"
        }
      ],
      "name": "OwnershipTransferred",
      "type": "event"
    },
    {
      "anonymous": false,
      "inputs": [
        {
          "indexed": false,
          "internalType": "uint256",
          "name": "share_amount",
          "type": "uint256"
        },
        {
          "indexed": false,
          "internalType": "uint256",
          "name": "output_collateral_amount",
          "type": "uint256"
        },
        {
          "indexed": false,
          "internalType": "uint256",
          "name": "output_collateral_value",
          "type": "uint256"
        }
      ],
      "name": "Recollateralized",
      "type": "event"
    },
    {
      "anonymous": false,
      "inputs": [
        {
          "indexed": true,
          "internalType": "address",
          "name": "target",
          "type": "address"
        },
        {
          "indexed": false,
          "internalType": "uint256",
          "name": "value",
          "type": "uint256"
        },
        {
          "indexed": false,
          "internalType": "string",
          "name": "signature",
          "type": "string"
        },
        {
          "indexed": false,
          "internalType": "bytes",
          "name": "data",
          "type": "bytes"
        }
      ],
      "name": "TransactionExecuted",
      "type": "event"
    },
    {
      "inputs": [],
      "name": "AGOUSD",
      "outputs": [
        {
          "internalType": "address",
          "name": "",
          "type": "address"
        }
      ],
      "stateMutability": "view",
      "type": "function"
    },
    {
      "inputs": [],
      "name": "CNUSD",
      "outputs": [
        {
          "internalType": "address",
          "name": "",
          "type": "address"
        }
      ],
      "stateMutability": "view",
      "type": "function"
    },
    {
      "inputs": [],
      "name": "collateral_ratio_paused",
      "outputs": [
        {
          "internalType": "bool",
          "name": "",
          "type": "bool"
        }
      ],
      "stateMutability": "view",
      "type": "function"
    },
    {
      "inputs": [],
      "name": "effective_collateral_ratio",
      "outputs": [
        {
          "internalType": "uint256",
          "name": "",
          "type": "uint256"
        }
      ],
      "stateMutability": "view",
      "type": "function"
    },
    {
      "inputs": [],
      "name": "epoch_length",
      "outputs": [
        {
          "internalType": "uint256",
          "name": "",
          "type": "uint256"
        }
      ],
      "stateMutability": "view",
      "type": "function"
    },
    {
      "inputs": [],
      "name": "excess_collateral_distributed_ratio",
      "outputs": [
        {
          "internalType": "uint256",
          "name": "",
          "type": "uint256"
        }
      ],
      "stateMutability": "view",
      "type": "function"
    },
    {
      "inputs": [],
      "name": "foundry",
      "outputs": [
        {
          "internalType": "address",
          "name": "",
          "type": "address"
        }
      ],
      "stateMutability": "view",
      "type": "function"
    },
    {
      "inputs": [],
      "name": "gov_token_value_for_discount",
      "outputs": [
        {
          "internalType": "uint256",
          "name": "",
          "type": "uint256"
        }
      ],
      "stateMutability": "view",
      "type": "function"
    },
    {
      "inputs": [],
      "name": "governanceToken",
      "outputs": [
        {
          "internalType": "address",
          "name": "",
          "type": "address"
        }
      ],
      "stateMutability": "view",
      "type": "function"
    },
    {
      "inputs": [],
      "name": "initialized",
      "outputs": [
        {
          "internalType": "bool",
          "name": "",
          "type": "bool"
        }
      ],
      "stateMutability": "view",
      "type": "function"
    },
    {
      "inputs": [],
      "name": "lastEpochTime",
      "outputs": [
        {
          "internalType": "uint256",
          "name": "",
          "type": "uint256"
        }
      ],
      "stateMutability": "view",
      "type": "function"
    },
    {
      "inputs": [],
      "name": "last_rebalance_timestamp",
      "outputs": [
        {
          "internalType": "uint256",
          "name": "",
          "type": "uint256"
        }
      ],
      "stateMutability": "view",
      "type": "function"
    },
    {
      "inputs": [],
      "name": "last_refresh_cr_timestamp",
      "outputs": [
        {
          "internalType": "uint256",
          "name": "",
          "type": "uint256"
        }
      ],
      "stateMutability": "view",
      "type": "function"
    },
    {
      "inputs": [],
      "name": "migrated",
      "outputs": [
        {
          "internalType": "bool",
          "name": "",
          "type": "bool"
        }
      ],
      "stateMutability": "view",
      "type": "function"
    },
    {
      "inputs": [],
      "name": "minting_fee",
      "outputs": [
        {
          "internalType": "uint256",
          "name": "",
          "type": "uint256"
        }
      ],
      "stateMutability": "view",
      "type": "function"
    },
    {
      "inputs": [],
      "name": "oracleDollar",
      "outputs": [
        {
          "internalType": "address",
          "name": "",
          "type": "address"
        }
      ],
      "stateMutability": "view",
      "type": "function"
    },
    {
      "inputs": [],
      "name": "oracleGovToken",
      "outputs": [
        {
          "internalType": "address",
          "name": "",
          "type": "address"
        }
      ],
      "stateMutability": "view",
      "type": "function"
    },
    {
      "inputs": [],
      "name": "oracleShare",
      "outputs": [
        {
          "internalType": "address",
          "name": "",
          "type": "address"
        }
      ],
      "stateMutability": "view",
      "type": "function"
    },
    {
      "inputs": [],
      "name": "owner",
      "outputs": [
        {
          "internalType": "address",
          "name": "",
          "type": "address"
        }
      ],
      "stateMutability": "view",
      "type": "function"
    },
    {
      "inputs": [
        {
          "internalType": "address",
          "name": "",
          "type": "address"
        }
      ],
      "name": "pools",
      "outputs": [
        {
          "internalType": "bool",
          "name": "",
          "type": "bool"
        }
      ],
      "stateMutability": "view",
      "type": "function"
    },
    {
      "inputs": [
        {
          "internalType": "uint256",
          "name": "",
          "type": "uint256"
        }
      ],
      "name": "pools_array",
      "outputs": [
        {
          "internalType": "address",
          "name": "",
          "type": "address"
        }
      ],
      "stateMutability": "view",
      "type": "function"
    },
    {
      "inputs": [],
      "name": "price_band",
      "outputs": [
        {
          "internalType": "uint256",
          "name": "",
          "type": "uint256"
        }
      ],
      "stateMutability": "view",
      "type": "function"
    },
    {
      "inputs": [],
      "name": "price_target",
      "outputs": [
        {
          "internalType": "uint256",
          "name": "",
          "type": "uint256"
        }
      ],
      "stateMutability": "view",
      "type": "function"
    },
    {
      "inputs": [],
      "name": "ratio_step",
      "outputs": [
        {
          "internalType": "uint256",
          "name": "",
          "type": "uint256"
        }
      ],
      "stateMutability": "view",
      "type": "function"
    },
    {
      "inputs": [],
      "name": "rebalance_cooldown",
      "outputs": [
        {
          "internalType": "uint256",
          "name": "",
          "type": "uint256"
        }
      ],
      "stateMutability": "view",
      "type": "function"
    },
    {
      "inputs": [],
      "name": "rebalancing_pool",
      "outputs": [
        {
          "internalType": "address",
          "name": "",
          "type": "address"
        }
      ],
      "stateMutability": "view",
      "type": "function"
    },
    {
      "inputs": [],
      "name": "rebalancing_pool_collateral",
      "outputs": [
        {
          "internalType": "address",
          "name": "",
          "type": "address"
        }
      ],
      "stateMutability": "view",
      "type": "function"
    },
    {
      "inputs": [],
      "name": "redemption_fee",
      "outputs": [
        {
          "internalType": "uint256",
          "name": "",
          "type": "uint256"
        }
      ],
      "stateMutability": "view",
      "type": "function"
    },
    {
      "inputs": [],
      "name": "refresh_cooldown",
      "outputs": [
        {
          "internalType": "uint256",
          "name": "",
          "type": "uint256"
        }
      ],
      "stateMutability": "view",
      "type": "function"
    },
    {
      "inputs": [],
      "name": "renounceOwnership",
      "outputs": [],
      "stateMutability": "nonpayable",
      "type": "function"
    },
    {
      "inputs": [],
      "name": "startTime",
      "outputs": [
        {
          "internalType": "uint256",
          "name": "",
          "type": "uint256"
        }
      ],
      "stateMutability": "view",
      "type": "function"
    },
    {
      "inputs": [],
      "name": "strategist",
      "outputs": [
        {
          "internalType": "address",
          "name": "",
          "type": "address"
        }
      ],
      "stateMutability": "view",
      "type": "function"
    },
    {
      "inputs": [],
      "name": "target_collateral_ratio",
      "outputs": [
        {
          "internalType": "uint256",
          "name": "",
          "type": "uint256"
        }
      ],
      "stateMutability": "view",
      "type": "function"
    },
    {
      "inputs": [
        {
          "internalType": "address",
          "name": "newOwner",
          "type": "address"
        }
      ],
      "name": "transferOwnership",
      "outputs": [],
      "stateMutability": "nonpayable",
      "type": "function"
    },
    {
      "inputs": [],
      "name": "uniswap_pair_SHARE_WMATIC",
      "outputs": [
        {
          "internalType": "address",
          "name": "",
          "type": "address"
        }
      ],
      "stateMutability": "view",
      "type": "function"
    },
    {
      "inputs": [],
      "name": "uniswap_pair_WMATIC_COLLATERALL",
      "outputs": [
        {
          "internalType": "address",
          "name": "",
          "type": "address"
        }
      ],
      "stateMutability": "view",
      "type": "function"
    },
    {
      "inputs": [],
      "name": "uniswap_router",
      "outputs": [
        {
          "internalType": "address",
          "name": "",
          "type": "address"
        }
      ],
      "stateMutability": "view",
      "type": "function"
    },
    {
      "inputs": [],
      "name": "using_effective_collateral_ratio",
      "outputs": [
        {
          "internalType": "bool",
          "name": "",
          "type": "bool"
        }
      ],
      "stateMutability": "view",
      "type": "function"
    },
    {
      "stateMutability": "payable",
      "type": "receive"
    },
    {
      "inputs": [
        {
          "internalType": "uint256",
          "name": "_startTime",
          "type": "uint256"
        },
        {
          "internalType": "uint256",
          "name": "_epoch_length",
          "type": "uint256"
        }
      ],
      "name": "initialize",
      "outputs": [],
      "stateMutability": "nonpayable",
      "type": "function"
    },
    {
      "inputs": [],
      "name": "dollarPrice",
      "outputs": [
        {
          "internalType": "uint256",
          "name": "",
          "type": "uint256"
        }
      ],
      "stateMutability": "view",
      "type": "function"
    },
    {
      "inputs": [],
      "name": "sharePrice",
      "outputs": [
        {
          "internalType": "uint256",
          "name": "",
          "type": "uint256"
        }
      ],
      "stateMutability": "view",
      "type": "function"
    },
    {
      "inputs": [],
      "name": "gov_token_price",
      "outputs": [
        {
          "internalType": "uint256",
          "name": "",
          "type": "uint256"
        }
      ],
      "stateMutability": "view",
      "type": "function"
    },
    {
      "inputs": [
        {
          "internalType": "address",
          "name": "_address",
          "type": "address"
        }
      ],
      "name": "hasPool",
      "outputs": [
        {
          "internalType": "bool",
          "name": "",
          "type": "bool"
        }
      ],
      "stateMutability": "view",
      "type": "function"
    },
    {
      "inputs": [],
      "name": "nextEpochPoint",
      "outputs": [
        {
          "internalType": "uint256",
          "name": "",
          "type": "uint256"
        }
      ],
      "stateMutability": "view",
      "type": "function"
    },
    {
      "inputs": [],
      "name": "epoch",
      "outputs": [
        {
          "internalType": "uint256",
          "name": "",
          "type": "uint256"
        }
      ],
      "stateMutability": "view",
      "type": "function"
    },
    {
      "inputs": [],
      "name": "redemption_fee_adjusted",
      "outputs": [
        {
          "internalType": "uint256",
          "name": "",
          "type": "uint256"
        }
      ],
      "stateMutability": "view",
      "type": "function"
    },
    {
      "inputs": [],
      "name": "discount_requirenment",
      "outputs": [
        {
          "internalType": "uint256",
          "name": "",
          "type": "uint256"
        }
      ],
      "stateMutability": "view",
      "type": "function"
    },
    {
      "inputs": [],
      "name": "info",
      "outputs": [
        {
          "internalType": "uint256",
          "name": "",
          "type": "uint256"
        },
        {
          "internalType": "uint256",
          "name": "",
          "type": "uint256"
        },
        {
          "internalType": "uint256",
          "name": "",
          "type": "uint256"
        },
        {
          "internalType": "uint256",
          "name": "",
          "type": "uint256"
        },
        {
          "internalType": "uint256",
          "name": "",
          "type": "uint256"
        },
        {
          "internalType": "uint256",
          "name": "",
          "type": "uint256"
        },
        {
          "internalType": "uint256",
          "name": "",
          "type": "uint256"
        },
        {
          "internalType": "uint256",
          "name": "",
          "type": "uint256"
        }
      ],
      "stateMutability": "view",
      "type": "function"
    },
    {
      "inputs": [],
      "name": "epochInfo",
      "outputs": [
        {
          "internalType": "uint256",
          "name": "",
          "type": "uint256"
        },
        {
          "internalType": "uint256",
          "name": "",
          "type": "uint256"
        },
        {
          "internalType": "uint256",
          "name": "",
          "type": "uint256"
        },
        {
          "internalType": "uint256",
          "name": "",
          "type": "uint256"
        }
      ],
      "stateMutability": "view",
      "type": "function"
    },
    {
      "inputs": [],
      "name": "globalCollateralValue",
      "outputs": [
        {
          "internalType": "uint256",
          "name": "",
          "type": "uint256"
        }
      ],
      "stateMutability": "view",
      "type": "function"
    },
    {
      "inputs": [],
      "name": "calcEffectiveCollateralRatio",
      "outputs": [
        {
          "internalType": "uint256",
          "name": "",
          "type": "uint256"
        }
      ],
      "stateMutability": "view",
      "type": "function"
    },
    {
      "inputs": [],
      "name": "refreshCollateralRatio",
      "outputs": [],
      "stateMutability": "nonpayable",
      "type": "function"
    },
    {
      "inputs": [],
      "name": "calcCollateralBalance",
      "outputs": [
        {
          "internalType": "uint256",
          "name": "_collateral_value",
          "type": "uint256"
        },
        {
          "internalType": "bool",
          "name": "_exceeded",
          "type": "bool"
        }
      ],
      "stateMutability": "view",
      "type": "function"
    },
    {
      "inputs": [
        {
          "internalType": "address",
          "name": "pool_address",
          "type": "address"
        }
      ],
      "name": "addPool",
      "outputs": [],
      "stateMutability": "nonpayable",
      "type": "function"
    },
    {
      "inputs": [
        {
          "internalType": "address",
          "name": "pool_address",
          "type": "address"
        }
      ],
      "name": "removePool",
      "outputs": [],
      "stateMutability": "nonpayable",
      "type": "function"
    },
    {
      "inputs": [
        {
          "internalType": "uint256",
          "name": "_collateral_value",
          "type": "uint256"
        },
        {
          "internalType": "uint256",
          "name": "_min_share_amount",
          "type": "uint256"
        }
      ],
      "name": "buyback",
      "outputs": [],
      "stateMutability": "nonpayable",
      "type": "function"
    },
    {
      "inputs": [
        {
          "internalType": "uint256",
          "name": "_share_amount",
          "type": "uint256"
        },
        {
          "internalType": "uint256",
          "name": "_min_collateral_amount",
          "type": "uint256"
        }
      ],
      "name": "recollateralize",
      "outputs": [],
      "stateMutability": "nonpayable",
      "type": "function"
    },
    {
      "inputs": [],
      "name": "allocateSeigniorage",
      "outputs": [],
      "stateMutability": "nonpayable",
      "type": "function"
    },
    {
      "inputs": [
        {
          "internalType": "address",
          "name": "_new_treasury",
          "type": "address"
        }
      ],
      "name": "migrate",
      "outputs": [],
      "stateMutability": "nonpayable",
      "type": "function"
    },
    {
      "inputs": [
        {
          "internalType": "uint256",
          "name": "_gov_token_value_for_discount",
          "type": "uint256"
        }
      ],
      "name": "setGovTokenValueForDiscount",
      "outputs": [],
      "stateMutability": "nonpayable",
      "type": "function"
    },
    {
      "inputs": [
        {
          "internalType": "uint256",
          "name": "_redemption_fee",
          "type": "uint256"
        }
      ],
      "name": "setRedemptionFee",
      "outputs": [],
      "stateMutability": "nonpayable",
      "type": "function"
    },
    {
      "inputs": [
        {
          "internalType": "uint256",
          "name": "_minting_fee",
          "type": "uint256"
        }
      ],
      "name": "setMintingFee",
      "outputs": [],
      "stateMutability": "nonpayable",
      "type": "function"
    },
    {
      "inputs": [
        {
          "internalType": "uint256",
          "name": "_ratio_step",
          "type": "uint256"
        }
      ],
      "name": "setRatioStep",
      "outputs": [],
      "stateMutability": "nonpayable",
      "type": "function"
    },
    {
      "inputs": [
        {
          "internalType": "uint256",
          "name": "_price_target",
          "type": "uint256"
        }
      ],
      "name": "setPriceTarget",
      "outputs": [],
      "stateMutability": "nonpayable",
      "type": "function"
    },
    {
      "inputs": [
        {
          "internalType": "uint256",
          "name": "_refresh_cooldown",
          "type": "uint256"
        }
      ],
      "name": "setRefreshCooldown",
      "outputs": [],
      "stateMutability": "nonpayable",
      "type": "function"
    },
    {
      "inputs": [
        {
          "internalType": "uint256",
          "name": "_price_band",
          "type": "uint256"
        }
      ],
      "name": "setPriceBand",
      "outputs": [],
      "stateMutability": "nonpayable",
      "type": "function"
    },
    {
      "inputs": [],
      "name": "toggleCollateralRatio",
      "outputs": [],
      "stateMutability": "nonpayable",
      "type": "function"
    },
    {
      "inputs": [],
      "name": "toggleEffectiveCollateralRatio",
      "outputs": [],
      "stateMutability": "nonpayable",
      "type": "function"
    },
    {
      "inputs": [
        {
          "internalType": "address",
          "name": "_oracleDollar",
          "type": "address"
        }
      ],
      "name": "setOracleDollar",
      "outputs": [],
      "stateMutability": "nonpayable",
      "type": "function"
    },
    {
      "inputs": [
        {
          "internalType": "address",
          "name": "_oracleShare",
          "type": "address"
        }
      ],
      "name": "setOracleShare",
      "outputs": [],
      "stateMutability": "nonpayable",
      "type": "function"
    },
    {
      "inputs": [
        {
          "internalType": "address",
          "name": "_oracleGovToken",
          "type": "address"
        }
      ],
      "name": "setGovTokenShare",
      "outputs": [],
      "stateMutability": "nonpayable",
      "type": "function"
    },
    {
      "inputs": [
        {
          "internalType": "address",
          "name": "_AGOUSD",
          "type": "address"
        }
      ],
      "name": "setDollarAddress",
      "outputs": [],
      "stateMutability": "nonpayable",
      "type": "function"
    },
    {
      "inputs": [
        {
          "internalType": "address",
          "name": "_CNUSD",
          "type": "address"
        }
      ],
      "name": "setShareAddress",
      "outputs": [],
      "stateMutability": "nonpayable",
      "type": "function"
    },
    {
      "inputs": [
        {
          "internalType": "address",
          "name": "_governanceToken",
          "type": "address"
        }
      ],
      "name": "setGovTokenAddress",
      "outputs": [],
      "stateMutability": "nonpayable",
      "type": "function"
    },
    {
      "inputs": [
        {
          "internalType": "address",
          "name": "_strategist",
          "type": "address"
        }
      ],
      "name": "setStrategist",
      "outputs": [],
      "stateMutability": "nonpayable",
      "type": "function"
    },
    {
      "inputs": [
        {
          "internalType": "address",
          "name": "_uniswap_router",
          "type": "address"
        },
        {
          "internalType": "address",
          "name": "_uniswap_pair_CNUSD_WMATIC",
          "type": "address"
        },
        {
          "internalType": "address",
          "name": "_uniswap_pair_WMATIC_USDT",
          "type": "address"
        }
      ],
      "name": "setUniswapParams",
      "outputs": [],
      "stateMutability": "nonpayable",
      "type": "function"
    },
    {
      "inputs": [
        {
          "internalType": "address",
          "name": "_rebalance_pool",
          "type": "address"
        }
      ],
      "name": "setRebalancePool",
      "outputs": [],
      "stateMutability": "nonpayable",
      "type": "function"
    },
    {
      "inputs": [
        {
          "internalType": "uint256",
          "name": "_rebalance_cooldown",
          "type": "uint256"
        }
      ],
      "name": "setRebalanceCooldown",
      "outputs": [],
      "stateMutability": "nonpayable",
      "type": "function"
    },
    {
      "inputs": [
        {
          "internalType": "uint256",
          "name": "_startTime",
          "type": "uint256"
        }
      ],
      "name": "resetStartTime",
      "outputs": [],
      "stateMutability": "nonpayable",
      "type": "function"
    },
    {
      "inputs": [
        {
          "internalType": "address",
          "name": "_foundry",
          "type": "address"
        }
      ],
      "name": "setFoundry",
      "outputs": [],
      "stateMutability": "nonpayable",
      "type": "function"
    },
    {
      "inputs": [
        {
          "internalType": "uint256",
          "name": "_epoch_length",
          "type": "uint256"
        }
      ],
      "name": "setEpochLength",
      "outputs": [],
      "stateMutability": "nonpayable",
      "type": "function"
    },
    {
      "inputs": [
        {
          "internalType": "uint256",
          "name": "_excess_collateral_distributed_ratio",
          "type": "uint256"
        }
      ],
      "name": "setExcessDistributionRatio",
      "outputs": [],
      "stateMutability": "nonpayable",
      "type": "function"
    },
    {
      "inputs": [
        {
          "internalType": "address",
          "name": "target",
          "type": "address"
        },
        {
          "internalType": "uint256",
          "name": "value",
          "type": "uint256"
        },
        {
          "internalType": "string",
          "name": "signature",
          "type": "string"
        },
        {
          "internalType": "bytes",
          "name": "data",
          "type": "bytes"
        }
      ],
      "name": "executeTransaction",
      "outputs": [
        {
          "internalType": "bytes",
          "name": "",
          "type": "bytes"
        }
      ],
      "stateMutability": "nonpayable",
      "type": "function"
    }
  ],
  "bytecode": "0x6080604052600180556000600860146101000a81548160ff021916908315150217905550610fa0600b55610bb8600c55620f4240600e55620f4240600f55610e106010556109c4601155620f42406012556113886013556103e86014556001601560006101000a81548160ff0219169083151502179055506000601560016101000a81548160ff02191690831515021790555061a8c06017556000601b60146101000a81548160ff02191690831515021790555061c350601e556000602155348015620000cb57600080fd5b506000620000de6200018260201b60201c565b9050806000806101000a81548173ffffffffffffffffffffffffffffffffffffffff021916908373ffffffffffffffffffffffffffffffffffffffff1602179055508073ffffffffffffffffffffffffffffffffffffffff16600073ffffffffffffffffffffffffffffffffffffffff167f8be0079c531659141344cd1fd0a4f28419497f9722a3daafe3b4186f6b6457e060405160405180910390a3506200018a565b600033905090565b6172d7806200019a6000396000f3fe6080604052600436106104985760003560e01c80636ae7448811610260578063ac4f843e11610144578063cb73999f116100c1578063dc57df4711610085578063dc57df4714611150578063e4a3011614611179578063e708b4ae146111a2578063f2fde38b146111cd578063f96dae0a146111f6578063fc1e0c00146112215761049f565b8063cb73999f1461107d578063ce5494bb146110a8578063d2d97b06146110d1578063d74d1a0e146110fc578063d914cd4b146111275761049f565b8063c03f7be311610108578063c03f7be314610faa578063c08f076e14610fd5578063c3355b8d14610ffe578063c5967c2614611029578063c7b9d530146110545761049f565b8063ac4f843e14610ee9578063af2d373914610f14578063af83136e14610f3d578063b16ce46014610f68578063bef40ec814610f935761049f565b806389c614b8116101dd57806392c799f5116101a157806392c799f514610dd9578063a4063dbc14610e04578063a445c44514610e41578063a4465be214610e6c578063a5d7abac14610e95578063aaccf09814610ebe5761049f565b806389c614b814610d045780638da5cb5b14610d2f5780638de4011e14610d5a578063900cf0cf14610d835780639052be6114610dae5761049f565b806381ca52cf1161022457806381ca52cf14610c31578063840f82ac14610c5a5780638726972914610c8357806387a140c314610cae578063894ba4b914610cd95761049f565b80636ae7448814610b70578063715018a614610b9b57806378e9792514610bb25780637cd27ca614610bdd5780637dbc1df014610c085761049f565b8063291878a8116103875780634013124a1161030457806346ec64a5116102c857806346ec64a514610a865780634c23b60d14610ab157806353ed67fe14610adc57806354eea79614610b075780635b75617914610b305780636140133b14610b475761049f565b80634013124a146109c7578063408ab10f146109de57806340d7b7b814610a075780634231bfe114610a32578063460ddf8d14610a5d5761049f565b8063350d0a181161034b578063350d0a18146108eb578063357a8c0914610916578063370158ea146109415780633b7d0946146109735780634006311b1461099c5761049f565b8063291878a8146108285780632988b66d1461083f5780632c678c641461086a5780632cb4f63e146108955780632f64fb8e146108c05761049f565b80631a1f1934116104155780631ff41bfa116103d95780631ff41bfa146107435780632224fa251461076e578063238a4709146107ab5780632853fb10146107d457806328596aba146107ff5761049f565b80631a1f19341461066c5780631c5b6e8d146106985780631c5df1e5146106c15780631f1b8a8c146106ea5780631fe4a686146107185761049f565b80630eef424d1161045c5780630eef424d146105755780631189ebea1461059e5780631246dbf5146105db578063158ef93e14610618578063186d9b2e146106435761049f565b806303539f4a146104a45780630375da59146104cf57806303c6cb1b146104f857806304f714c4146105235780630ca687dc1461054c5761049f565b3661049f57005b600080fd5b3480156104b057600080fd5b506104b961124c565b6040516104c691906167b5565b60405180910390f35b3480156104db57600080fd5b506104f660048036038101906104f19190615c87565b611252565b005b34801561050457600080fd5b5061050d611312565b60405161051a91906167b5565b60405180910390f35b34801561052f57600080fd5b5061054a60048036038101906105459190615e25565b61141d565b005b34801561055857600080fd5b50610573600480360381019061056e9190615c87565b6114a3565b005b34801561058157600080fd5b5061059c60048036038101906105979190615c87565b611563565b005b3480156105aa57600080fd5b506105c560048036038101906105c09190615e25565b61185a565b6040516105d291906163f2565b60405180910390f35b3480156105e757600080fd5b5061060260048036038101906105fd9190615c87565b611899565b60405161060f9190616436565b60405180910390f35b34801561062457600080fd5b5061062d6118f6565b60405161063a9190616436565b60405180910390f35b34801561064f57600080fd5b5061066a60048036038101906106659190615e25565b611909565b005b34801561067857600080fd5b5061068161198f565b60405161068f9291906167d0565b60405180910390f35b3480156106a457600080fd5b506106bf60048036038101906106ba9190615c87565b611ab0565b005b3480156106cd57600080fd5b506106e860048036038101906106e39190615e25565b611b70565b005b3480156106f657600080fd5b506106ff611bf6565b60405161070f94939291906168cf565b60405180910390f35b34801561072457600080fd5b5061072d611c20565b60405161073a91906163f2565b60405180910390f35b34801561074f57600080fd5b50610758611c46565b60405161076591906167b5565b60405180910390f35b34801561077a57600080fd5b5061079560048036038101906107909190615d28565b611c4c565b6040516107a29190616451565b60405180910390f35b3480156107b757600080fd5b506107d260048036038101906107cd9190615e25565b611e36565b005b3480156107e057600080fd5b506107e9611ebc565b6040516107f691906167b5565b60405180910390f35b34801561080b57600080fd5b5061082660048036038101906108219190615c87565b611ec2565b005b34801561083457600080fd5b5061083d611f82565b005b34801561084b57600080fd5b5061085461202a565b6040516108619190616436565b60405180910390f35b34801561087657600080fd5b5061087f61203d565b60405161088c9190616436565b60405180910390f35b3480156108a157600080fd5b506108aa612050565b6040516108b791906167b5565b60405180910390f35b3480156108cc57600080fd5b506108d5612056565b6040516108e291906163f2565b60405180910390f35b3480156108f757600080fd5b5061090061207c565b60405161090d91906163f2565b60405180910390f35b34801561092257600080fd5b5061092b6120a2565b60405161093891906167b5565b60405180910390f35b34801561094d57600080fd5b50610956612149565b60405161096a989796959493929190616914565b60405180910390f35b34801561097f57600080fd5b5061099a60048036038101906109959190615c87565b612238565b005b3480156109a857600080fd5b506109b1612534565b6040516109be91906167b5565b60405180910390f35b3480156109d357600080fd5b506109dc61253a565b005b3480156109ea57600080fd5b50610a056004803603810190610a009190615e25565b6126f0565b005b348015610a1357600080fd5b50610a1c612776565b604051610a2991906167b5565b60405180910390f35b348015610a3e57600080fd5b50610a4761281d565b604051610a5491906167b5565b60405180910390f35b348015610a6957600080fd5b50610a846004803603810190610a7f9190615e77565b612823565b005b348015610a9257600080fd5b50610a9b612e15565b604051610aa891906163f2565b60405180910390f35b348015610abd57600080fd5b50610ac6612e3b565b604051610ad391906163f2565b60405180910390f35b348015610ae857600080fd5b50610af1612e61565b604051610afe91906167b5565b60405180910390f35b348015610b1357600080fd5b50610b2e6004803603810190610b299190615e25565b612e67565b005b348015610b3c57600080fd5b50610b45612eed565b005b348015610b5357600080fd5b50610b6e6004803603810190610b699190615e25565b613338565b005b348015610b7c57600080fd5b50610b856133be565b604051610b9291906167b5565b60405180910390f35b348015610ba757600080fd5b50610bb06133c4565b005b348015610bbe57600080fd5b50610bc76134fe565b604051610bd491906167b5565b60405180910390f35b348015610be957600080fd5b50610bf2613504565b604051610bff91906163f2565b60405180910390f35b348015610c1457600080fd5b50610c2f6004803603810190610c2a9190615e25565b61352a565b005b348015610c3d57600080fd5b50610c586004803603810190610c539190615e25565b6135b0565b005b348015610c6657600080fd5b50610c816004803603810190610c7c9190615c87565b613636565b005b348015610c8f57600080fd5b50610c986136f6565b604051610ca591906167b5565b60405180910390f35b348015610cba57600080fd5b50610cc361379d565b604051610cd09190616436565b60405180910390f35b348015610ce557600080fd5b50610cee6137b0565b604051610cfb91906163f2565b60405180910390f35b348015610d1057600080fd5b50610d196137d6565b604051610d2691906167b5565b60405180910390f35b348015610d3b57600080fd5b50610d446137dc565b604051610d5191906163f2565b60405180910390f35b348015610d6657600080fd5b50610d816004803603810190610d7c9190615c87565b613805565b005b348015610d8f57600080fd5b50610d986138c5565b604051610da591906167b5565b60405180910390f35b348015610dba57600080fd5b50610dc36138cf565b604051610dd091906163f2565b60405180910390f35b348015610de557600080fd5b50610dee6138f5565b604051610dfb91906167b5565b60405180910390f35b348015610e1057600080fd5b50610e2b6004803603810190610e269190615c87565b613a31565b604051610e389190616436565b60405180910390f35b348015610e4d57600080fd5b50610e56613a51565b604051610e6391906167b5565b60405180910390f35b348015610e7857600080fd5b50610e936004803603810190610e8e9190615c87565b613b70565b005b348015610ea157600080fd5b50610ebc6004803603810190610eb79190615e25565b613c30565b005b348015610eca57600080fd5b50610ed3613d07565b604051610ee091906163f2565b60405180910390f35b348015610ef557600080fd5b50610efe613d2d565b604051610f0b91906167b5565b60405180910390f35b348015610f2057600080fd5b50610f3b6004803603810190610f369190615e77565b613d33565b005b348015610f4957600080fd5b50610f5261439c565b604051610f5f91906167b5565b60405180910390f35b348015610f7457600080fd5b50610f7d6143a2565b604051610f8a91906163f2565b60405180910390f35b348015610f9f57600080fd5b50610fa86143c8565b005b348015610fb657600080fd5b50610fbf614470565b604051610fcc91906167b5565b60405180910390f35b348015610fe157600080fd5b50610ffc6004803603810190610ff79190615e25565b614476565b005b34801561100a57600080fd5b5061101361455c565b60405161102091906167b5565b60405180910390f35b34801561103557600080fd5b5061103e614562565b60405161104b91906167b5565b60405180910390f35b34801561106057600080fd5b5061107b60048036038101906110769190615c87565b614580565b005b34801561108957600080fd5b50611092614640565b60405161109f91906167b5565b60405180910390f35b3480156110b457600080fd5b506110cf60048036038101906110ca9190615c87565b614646565b005b3480156110dd57600080fd5b506110e661499b565b6040516110f391906167b5565b60405180910390f35b34801561110857600080fd5b50611111614b5c565b60405161111e91906163f2565b60405180910390f35b34801561113357600080fd5b5061114e60048036038101906111499190615c87565b614b82565b005b34801561115c57600080fd5b5061117760048036038101906111729190615cd9565b614da5565b005b34801561118557600080fd5b506111a0600480360381019061119b9190615e77565b614ee9565b005b3480156111ae57600080fd5b506111b7615003565b6040516111c491906167b5565b60405180910390f35b3480156111d957600080fd5b506111f460048036038101906111ef9190615c87565b615009565b005b34801561120257600080fd5b5061120b6151b2565b60405161121891906163f2565b60405180910390f35b34801561122d57600080fd5b506112366151d8565b60405161124391906163f2565b60405180910390f35b60145481565b61125a6151fe565b73ffffffffffffffffffffffffffffffffffffffff166112786137dc565b73ffffffffffffffffffffffffffffffffffffffff16146112ce576040517f08c379a00000000000000000000000000000000000000000000000000000000081526004016112c590616695565b60405180910390fd5b80601d60006101000a81548173ffffffffffffffffffffffffffffffffffffffff021916908373ffffffffffffffffffffffffffffffffffffffff16021790555050565b60008061131d6120a2565b141561132c576001905061141a565b6000600760009054906101000a900473ffffffffffffffffffffffffffffffffffffffff1673ffffffffffffffffffffffffffffffffffffffff1663313ce5676040518163ffffffff1660e01b815260040160206040518083038186803b15801561139657600080fd5b505afa1580156113aa573d6000803e3d6000fd5b505050506040513d601f19601f820116820180604052508101906113ce9190615eb3565b60ff1690506114166113de6120a2565b611408836113fa620f424060145461520690919063ffffffff16565b61520690919063ffffffff16565b61526f90919063ffffffff16565b9150505b90565b6114256151fe565b73ffffffffffffffffffffffffffffffffffffffff166114436137dc565b73ffffffffffffffffffffffffffffffffffffffff1614611499576040517f08c379a000000000000000000000000000000000000000000000000000000000815260040161149090616695565b60405180910390fd5b8060148190555050565b6114ab6151fe565b73ffffffffffffffffffffffffffffffffffffffff166114c96137dc565b73ffffffffffffffffffffffffffffffffffffffff161461151f576040517f08c379a000000000000000000000000000000000000000000000000000000000815260040161151690616695565b60405180910390fd5b80600260006101000a81548173ffffffffffffffffffffffffffffffffffffffff021916908373ffffffffffffffffffffffffffffffffffffffff16021790555050565b61156b6151fe565b73ffffffffffffffffffffffffffffffffffffffff166115896137dc565b73ffffffffffffffffffffffffffffffffffffffff16146115df576040517f08c379a00000000000000000000000000000000000000000000000000000000081526004016115d690616695565b60405180910390fd5b600a60008273ffffffffffffffffffffffffffffffffffffffff1673ffffffffffffffffffffffffffffffffffffffff16815260200190815260200160002060009054906101000a900460ff1661166b576040517f08c379a000000000000000000000000000000000000000000000000000000000815260040161166290616755565b60405180910390fd5b600073ffffffffffffffffffffffffffffffffffffffff168173ffffffffffffffffffffffffffffffffffffffff1663964236636040518163ffffffff1660e01b815260040160206040518083038186803b1580156116c957600080fd5b505afa1580156116dd573d6000803e3d6000fd5b505050506040513d601f19601f820116820180604052508101906117019190615cb0565b73ffffffffffffffffffffffffffffffffffffffff161415611758576040517f08c379a000000000000000000000000000000000000000000000000000000000815260040161174f906166b5565b60405180910390fd5b80601560026101000a81548173ffffffffffffffffffffffffffffffffffffffff021916908373ffffffffffffffffffffffffffffffffffffffff1602179055508073ffffffffffffffffffffffffffffffffffffffff1663964236636040518163ffffffff1660e01b815260040160206040518083038186803b1580156117df57600080fd5b505afa1580156117f3573d6000803e3d6000fd5b505050506040513d601f19601f820116820180604052508101906118179190615cb0565b601660006101000a81548173ffffffffffffffffffffffffffffffffffffffff021916908373ffffffffffffffffffffffffffffffffffffffff16021790555050565b6009818154811061186a57600080fd5b906000526020600020016000915054906101000a900473ffffffffffffffffffffffffffffffffffffffff1681565b600060011515600a60008473ffffffffffffffffffffffffffffffffffffffff1673ffffffffffffffffffffffffffffffffffffffff16815260200190815260200160002060009054906101000a900460ff161515149050919050565b601b60149054906101000a900460ff1681565b6119116151fe565b73ffffffffffffffffffffffffffffffffffffffff1661192f6137dc565b73ffffffffffffffffffffffffffffffffffffffff1614611985576040517f08c379a000000000000000000000000000000000000000000000000000000000815260040161197c90616695565b60405180910390fd5b8060118190555050565b600080600061199c61499b565b90506000611a69620f4240611a5b600e54600560009054906101000a900473ffffffffffffffffffffffffffffffffffffffff1673ffffffffffffffffffffffffffffffffffffffff166318160ddd6040518163ffffffff1660e01b815260040160206040518083038186803b158015611a1557600080fd5b505afa158015611a29573d6000803e3d6000fd5b505050506040513d601f19601f82011682018060405250810190611a4d9190615e4e565b61520690919063ffffffff16565b61526f90919063ffffffff16565b9050808210611a9057611a85818361528590919063ffffffff16565b935060019250611aaa565b611aa3828261528590919063ffffffff16565b9350600092505b50509091565b611ab86151fe565b73ffffffffffffffffffffffffffffffffffffffff16611ad66137dc565b73ffffffffffffffffffffffffffffffffffffffff1614611b2c576040517f08c379a0000000000000000000000000000000000000000000000000000000008152600401611b2390616695565b60405180910390fd5b80600660006101000a81548173ffffffffffffffffffffffffffffffffffffffff021916908373ffffffffffffffffffffffffffffffffffffffff16021790555050565b611b786151fe565b73ffffffffffffffffffffffffffffffffffffffff16611b966137dc565b73ffffffffffffffffffffffffffffffffffffffff1614611bec576040517f08c379a0000000000000000000000000000000000000000000000000000000008152600401611be390616695565b60405180910390fd5b8060108190555050565b600080600080611c046138c5565b611c0c614562565b602054601e54935093509350935090919293565b600860009054906101000a900473ffffffffffffffffffffffffffffffffffffffff1681565b601e5481565b6060611c566151fe565b73ffffffffffffffffffffffffffffffffffffffff16611c746137dc565b73ffffffffffffffffffffffffffffffffffffffff1614611cca576040517f08c379a0000000000000000000000000000000000000000000000000000000008152600401611cc190616695565b60405180910390fd5b6060600084511415611cde57829050611d0a565b838051906020012083604051602001611cf89291906163b3565b60405160208183030381529060405290505b6000808773ffffffffffffffffffffffffffffffffffffffff168784604051611d3391906163db565b60006040518083038185875af1925050503d8060008114611d70576040519150601f19603f3d011682016040523d82523d6000602084013e611d75565b606091505b5091509150816040518060600160405280603d8152602001617265603d913990611dd5576040517f08c379a0000000000000000000000000000000000000000000000000000000008152600401611dcc9190616473565b60405180910390fd5b508773ffffffffffffffffffffffffffffffffffffffff167f02351f450e2fc766dda692922cd0e080a07d702d68757f2154bf686ee052be6e888888604051611e20939291906167f9565b60405180910390a2809350505050949350505050565b611e3e6151fe565b73ffffffffffffffffffffffffffffffffffffffff16611e5c6137dc565b73ffffffffffffffffffffffffffffffffffffffff1614611eb2576040517f08c379a0000000000000000000000000000000000000000000000000000000008152600401611ea990616695565b60405180910390fd5b80600c8190555050565b60135481565b611eca6151fe565b73ffffffffffffffffffffffffffffffffffffffff16611ee86137dc565b73ffffffffffffffffffffffffffffffffffffffff1614611f3e576040517f08c379a0000000000000000000000000000000000000000000000000000000008152600401611f3590616695565b60405180910390fd5b80600360006101000a81548173ffffffffffffffffffffffffffffffffffffffff021916908373ffffffffffffffffffffffffffffffffffffffff16021790555050565b611f8a6151fe565b73ffffffffffffffffffffffffffffffffffffffff16611fa86137dc565b73ffffffffffffffffffffffffffffffffffffffff1614611ffe576040517f08c379a0000000000000000000000000000000000000000000000000000000008152600401611ff590616695565b60405180910390fd5b601560019054906101000a900460ff1615601560016101000a81548160ff021916908315150217905550565b601560019054906101000a900460ff1681565b600860149054906101000a900460ff1681565b60125481565b601660009054906101000a900473ffffffffffffffffffffffffffffffffffffffff1681565b600460009054906101000a900473ffffffffffffffffffffffffffffffffffffffff1681565b6000600460009054906101000a900473ffffffffffffffffffffffffffffffffffffffff1673ffffffffffffffffffffffffffffffffffffffff16637eeda7036040518163ffffffff1660e01b815260040160206040518083038186803b15801561210c57600080fd5b505afa158015612120573d6000803e3d6000fd5b505050506040513d601f19601f820116820180604052508101906121449190615e4e565b905090565b60008060008060008060008061215d612776565b6121656136f6565b600560009054906101000a900473ffffffffffffffffffffffffffffffffffffffff1673ffffffffffffffffffffffffffffffffffffffff166318160ddd6040518163ffffffff1660e01b815260040160206040518083038186803b1580156121cd57600080fd5b505afa1580156121e1573d6000803e3d6000fd5b505050506040513d601f19601f820116820180604052508101906122059190615e4e565b600e54600f5461221361499b565b600c5461221e6138f5565b975097509750975097509750975097509091929394959697565b6122406151fe565b73ffffffffffffffffffffffffffffffffffffffff1661225e6137dc565b73ffffffffffffffffffffffffffffffffffffffff16146122b4576040517f08c379a00000000000000000000000000000000000000000000000000000000081526004016122ab90616695565b60405180910390fd5b60001515600860149054906101000a900460ff1615151461230a576040517f08c379a0000000000000000000000000000000000000000000000000000000008152600401612301906165f5565b60405180910390fd5b60011515600a60008373ffffffffffffffffffffffffffffffffffffffff1673ffffffffffffffffffffffffffffffffffffffff16815260200190815260200160002060009054906101000a900460ff1615151461239d576040517f08c379a000000000000000000000000000000000000000000000000000000000815260040161239490616755565b60405180910390fd5b600a60008273ffffffffffffffffffffffffffffffffffffffff1673ffffffffffffffffffffffffffffffffffffffff16815260200190815260200160002060006101000a81549060ff021916905560005b600980549050811015612530578173ffffffffffffffffffffffffffffffffffffffff166009828154811061244d577f4e487b7100000000000000000000000000000000000000000000000000000000600052603260045260246000fd5b9060005260206000200160009054906101000a900473ffffffffffffffffffffffffffffffffffffffff1673ffffffffffffffffffffffffffffffffffffffff16141561251d576000600982815481106124d0577f4e487b7100000000000000000000000000000000000000000000000000000000600052603260045260246000fd5b9060005260206000200160006101000a81548173ffffffffffffffffffffffffffffffffffffffff021916908373ffffffffffffffffffffffffffffffffffffffff160217905550612530565b808061252890616cca565b9150506123ef565b5050565b600e5481565b60001515601560009054906101000a900460ff16151514612590576040517f08c379a000000000000000000000000000000000000000000000000000000000815260040161258790616775565b60405180910390fd5b601054600d54426125a19190616ba2565b10156125e2576040517f08c379a00000000000000000000000000000000000000000000000000000000081526004016125d990616715565b60405180910390fd5b60006125ec612776565b90506126056013546012546152d290919063ffffffff16565b81111561264757601154600e5411612624576000600e81905550612642565b61263b601154600e5461528590919063ffffffff16565b600e819055505b6126b4565b61265e60135460125461528590919063ffffffff16565b8110156126b357620f4240612680601154600e546152d290919063ffffffff16565b1061269457620f4240600e819055506126b2565b6126ab601154600e546152d290919063ffffffff16565b600e819055505b5b5b601560019054906101000a900460ff16156126dc576126d1613a51565b600f819055506126e6565b600e54600f819055505b42600d8190555050565b6126f86151fe565b73ffffffffffffffffffffffffffffffffffffffff166127166137dc565b73ffffffffffffffffffffffffffffffffffffffff161461276c576040517f08c379a000000000000000000000000000000000000000000000000000000000815260040161276390616695565b60405180910390fd5b8060128190555050565b6000600260009054906101000a900473ffffffffffffffffffffffffffffffffffffffff1673ffffffffffffffffffffffffffffffffffffffff16637eeda7036040518163ffffffff1660e01b815260040160206040518083038186803b1580156127e057600080fd5b505afa1580156127f4573d6000803e3d6000fd5b505050506040513d601f19601f820116820180604052508101906128189190615e4e565b905090565b60205481565b3373ffffffffffffffffffffffffffffffffffffffff16600860009054906101000a900473ffffffffffffffffffffffffffffffffffffffff1673ffffffffffffffffffffffffffffffffffffffff16146128b3576040517f08c379a00000000000000000000000000000000000000000000000000000000081526004016128aa906164b5565b60405180910390fd5b60001515600860149054906101000a900460ff16151514612909576040517f08c379a0000000000000000000000000000000000000000000000000000000008152600401612900906165f5565b60405180910390fd5b600073ffffffffffffffffffffffffffffffffffffffff16601560029054906101000a900473ffffffffffffffffffffffffffffffffffffffff1673ffffffffffffffffffffffffffffffffffffffff16141561299b576040517f08c379a000000000000000000000000000000000000000000000000000000000815260040161299290616555565b60405180910390fd5b600073ffffffffffffffffffffffffffffffffffffffff16601660009054906101000a900473ffffffffffffffffffffffffffffffffffffffff1673ffffffffffffffffffffffffffffffffffffffff161415612a2d576040517f08c379a0000000000000000000000000000000000000000000000000000000008152600401612a2490616575565b60405180910390fd5b600042905060175460185482612a439190616ba2565b1015612a84576040517f08c379a0000000000000000000000000000000000000000000000000000000008152600401612a7b906164d5565b60405180910390fd5b600080612a8f61198f565b91509150808015612aa05750600082115b612adf576040517f08c379a0000000000000000000000000000000000000000000000000000000008152600401612ad6906165b5565b60405180910390fd5b600085118015612aee57508185105b612b2d576040517f08c379a0000000000000000000000000000000000000000000000000000000008152600401612b2490616495565b60405180910390fd5b6000601560029054906101000a900473ffffffffffffffffffffffffffffffffffffffff1673ffffffffffffffffffffffffffffffffffffffff1663f7683bbc6040518163ffffffff1660e01b815260040160206040518083038186803b158015612b9757600080fd5b505afa158015612bab573d6000803e3d6000fd5b505050506040513d601f19601f82011682018060405250810190612bcf9190615e4e565b90506000612bfb82612bed620f42408a61520690919063ffffffff16565b61526f90919063ffffffff16565b905080601660009054906101000a900473ffffffffffffffffffffffffffffffffffffffff1673ffffffffffffffffffffffffffffffffffffffff166370a08231601560029054906101000a900473ffffffffffffffffffffffffffffffffffffffff166040518263ffffffff1660e01b8152600401612c7b91906163f2565b60206040518083038186803b158015612c9357600080fd5b505afa158015612ca7573d6000803e3d6000fd5b505050506040513d601f19601f82011682018060405250810190612ccb9190615e4e565b11612d0b576040517f08c379a0000000000000000000000000000000000000000000000000000000008152600401612d0290616735565b60405180910390fd5b601560029054906101000a900473ffffffffffffffffffffffffffffffffffffffff1673ffffffffffffffffffffffffffffffffffffffff1663378f3576826040518263ffffffff1660e01b8152600401612d6691906167b5565b600060405180830381600087803b158015612d8057600080fd5b505af1158015612d94573d6000803e3d6000fd5b505050506000612dc7601660009054906101000a900473ffffffffffffffffffffffffffffffffffffffff16838961531f565b90507f08a6192ba3cf7155035aa0abade6c318265a34f2950e84eaff743d1231888f95888383604051612dfc93929190616898565b60405180910390a1505050505080601881905550505050565b600660009054906101000a900473ffffffffffffffffffffffffffffffffffffffff1681565b601b60009054906101000a900473ffffffffffffffffffffffffffffffffffffffff1681565b60185481565b612e6f6151fe565b73ffffffffffffffffffffffffffffffffffffffff16612e8d6137dc565b73ffffffffffffffffffffffffffffffffffffffff1614612ee3576040517f08c379a0000000000000000000000000000000000000000000000000000000008152600401612eda90616695565b60405180910390fd5b8060208190555050565b6001806000828254612eff9190616ac1565b9250508190555060006001549050600860149054906101000a900460ff1615612f5d576040517f08c379a0000000000000000000000000000000000000000000000000000000008152600401612f5490616535565b60405180910390fd5b601c54421015612fa2576040517f08c379a0000000000000000000000000000000000000000000000000000000008152600401612f9990616795565b60405180910390fd5b6000612fac614562565b905080421015612ff1576040517f08c379a0000000000000000000000000000000000000000000000000000000008152600401612fe890616595565b60405180910390fd5b600080612ffc61198f565b915091506000811561330057613032620f4240613024601e548661520690919063ffffffff16565b61526f90919063ffffffff16565b90506000601560029054906101000a900473ffffffffffffffffffffffffffffffffffffffff1673ffffffffffffffffffffffffffffffffffffffff1663f7683bbc6040518163ffffffff1660e01b815260040160206040518083038186803b15801561309e57600080fd5b505afa1580156130b2573d6000803e3d6000fd5b505050506040513d601f19601f820116820180604052508101906130d69190615e4e565b90506000613102826130f4620f42408661520690919063ffffffff16565b61526f90919063ffffffff16565b9050601560029054906101000a900473ffffffffffffffffffffffffffffffffffffffff1673ffffffffffffffffffffffffffffffffffffffff1663378f3576826040518263ffffffff1660e01b815260040161315f91906167b5565b600060405180830381600087803b15801561317957600080fd5b505af115801561318d573d6000803e3d6000fd5b50505050613201601d60009054906101000a900473ffffffffffffffffffffffffffffffffffffffff166000601660009054906101000a900473ffffffffffffffffffffffffffffffffffffffff1673ffffffffffffffffffffffffffffffffffffffff1661596d9092919063ffffffff16565b613270601d60009054906101000a900473ffffffffffffffffffffffffffffffffffffffff1682601660009054906101000a900473ffffffffffffffffffffffffffffffffffffffff1673ffffffffffffffffffffffffffffffffffffffff1661596d9092919063ffffffff16565b601d60009054906101000a900473ffffffffffffffffffffffffffffffffffffffff1673ffffffffffffffffffffffffffffffffffffffff166397ffe1d7826040518263ffffffff1660e01b81526004016132cb91906167b5565b600060405180830381600087803b1580156132e557600080fd5b505af11580156132f9573d6000803e3d6000fd5b5050505050505b50505080601f8190555061332060016021546152d290919063ffffffff16565b60218190555050600154811461333557600080fd5b50565b6133406151fe565b73ffffffffffffffffffffffffffffffffffffffff1661335e6137dc565b73ffffffffffffffffffffffffffffffffffffffff16146133b4576040517f08c379a00000000000000000000000000000000000000000000000000000000081526004016133ab90616695565b60405180910390fd5b8060138190555050565b600d5481565b6133cc6151fe565b73ffffffffffffffffffffffffffffffffffffffff166133ea6137dc565b73ffffffffffffffffffffffffffffffffffffffff1614613440576040517f08c379a000000000000000000000000000000000000000000000000000000000815260040161343790616695565b60405180910390fd5b600073ffffffffffffffffffffffffffffffffffffffff1660008054906101000a900473ffffffffffffffffffffffffffffffffffffffff1673ffffffffffffffffffffffffffffffffffffffff167f8be0079c531659141344cd1fd0a4f28419497f9722a3daafe3b4186f6b6457e060405160405180910390a360008060006101000a81548173ffffffffffffffffffffffffffffffffffffffff021916908373ffffffffffffffffffffffffffffffffffffffff160217905550565b601c5481565b601d60009054906101000a900473ffffffffffffffffffffffffffffffffffffffff1681565b6135326151fe565b73ffffffffffffffffffffffffffffffffffffffff166135506137dc565b73ffffffffffffffffffffffffffffffffffffffff16146135a6576040517f08c379a000000000000000000000000000000000000000000000000000000000815260040161359d90616695565b60405180910390fd5b80600b8190555050565b6135b86151fe565b73ffffffffffffffffffffffffffffffffffffffff166135d66137dc565b73ffffffffffffffffffffffffffffffffffffffff161461362c576040517f08c379a000000000000000000000000000000000000000000000000000000000815260040161362390616695565b60405180910390fd5b8060178190555050565b61363e6151fe565b73ffffffffffffffffffffffffffffffffffffffff1661365c6137dc565b73ffffffffffffffffffffffffffffffffffffffff16146136b2576040517f08c379a00000000000000000000000000000000000000000000000000000000081526004016136a990616695565b60405180910390fd5b80600760006101000a81548173ffffffffffffffffffffffffffffffffffffffff021916908373ffffffffffffffffffffffffffffffffffffffff16021790555050565b6000600360009054906101000a900473ffffffffffffffffffffffffffffffffffffffff1673ffffffffffffffffffffffffffffffffffffffff16637eeda7036040518163ffffffff1660e01b815260040160206040518083038186803b15801561376057600080fd5b505afa158015613774573d6000803e3d6000fd5b505050506040513d601f19601f820116820180604052508101906137989190615e4e565b905090565b601560009054906101000a900460ff1681565b601560029054906101000a900473ffffffffffffffffffffffffffffffffffffffff1681565b601f5481565b60008060009054906101000a900473ffffffffffffffffffffffffffffffffffffffff16905090565b61380d6151fe565b73ffffffffffffffffffffffffffffffffffffffff1661382b6137dc565b73ffffffffffffffffffffffffffffffffffffffff1614613881576040517f08c379a000000000000000000000000000000000000000000000000000000000815260040161387890616695565b60405180910390fd5b80600560006101000a81548173ffffffffffffffffffffffffffffffffffffffff021916908373ffffffffffffffffffffffffffffffffffffffff16021790555050565b6000602154905090565b601960009054906101000a900473ffffffffffffffffffffffffffffffffffffffff1681565b60008073ffffffffffffffffffffffffffffffffffffffff16600760009054906101000a900473ffffffffffffffffffffffffffffffffffffffff1673ffffffffffffffffffffffffffffffffffffffff16141561395757600b549050613a2e565b61395f611312565b600760009054906101000a900473ffffffffffffffffffffffffffffffffffffffff1673ffffffffffffffffffffffffffffffffffffffff166370a08231326040518263ffffffff1660e01b81526004016139ba91906163f2565b60206040518083038186803b1580156139d257600080fd5b505afa1580156139e6573d6000803e3d6000fd5b505050506040513d601f19601f82011682018060405250810190613a0a9190615e4e565b1115613a2d57613a266002600b5461526f90919063ffffffff16565b9050613a2e565b5b90565b600a6020528060005260406000206000915054906101000a900460ff1681565b6000601560019054906101000a900460ff16613a7157600e549050613b6d565b6000613a7b61499b565b90506000600560009054906101000a900473ffffffffffffffffffffffffffffffffffffffff1673ffffffffffffffffffffffffffffffffffffffff166318160ddd6040518163ffffffff1660e01b815260040160206040518083038186803b158015613ae757600080fd5b505afa158015613afb573d6000803e3d6000fd5b505050506040513d601f19601f82011682018060405250810190613b1f9190615e4e565b90506000613b4b82613b3d620f42408661520690919063ffffffff16565b61526f90919063ffffffff16565b9050620f4240811115613b6657620f42409350505050613b6d565b8093505050505b90565b613b786151fe565b73ffffffffffffffffffffffffffffffffffffffff16613b966137dc565b73ffffffffffffffffffffffffffffffffffffffff1614613bec576040517f08c379a0000000000000000000000000000000000000000000000000000000008152600401613be390616695565b60405180910390fd5b80600460006101000a81548173ffffffffffffffffffffffffffffffffffffffff021916908373ffffffffffffffffffffffffffffffffffffffff16021790555050565b3373ffffffffffffffffffffffffffffffffffffffff16600860009054906101000a900473ffffffffffffffffffffffffffffffffffffffff1673ffffffffffffffffffffffffffffffffffffffff161480613cbe57503373ffffffffffffffffffffffffffffffffffffffff16613ca66137dc565b73ffffffffffffffffffffffffffffffffffffffff16145b613cfd576040517f08c379a0000000000000000000000000000000000000000000000000000000008152600401613cf490616615565b60405180910390fd5b80601e8190555050565b601a60009054906101000a900473ffffffffffffffffffffffffffffffffffffffff1681565b60115481565b3373ffffffffffffffffffffffffffffffffffffffff16600860009054906101000a900473ffffffffffffffffffffffffffffffffffffffff1673ffffffffffffffffffffffffffffffffffffffff1614613dc3576040517f08c379a0000000000000000000000000000000000000000000000000000000008152600401613dba906164b5565b60405180910390fd5b60001515600860149054906101000a900460ff16151514613e19576040517f08c379a0000000000000000000000000000000000000000000000000000000008152600401613e10906165f5565b60405180910390fd5b600073ffffffffffffffffffffffffffffffffffffffff16601560029054906101000a900473ffffffffffffffffffffffffffffffffffffffff1673ffffffffffffffffffffffffffffffffffffffff161415613eab576040517f08c379a0000000000000000000000000000000000000000000000000000000008152600401613ea290616555565b60405180910390fd5b600073ffffffffffffffffffffffffffffffffffffffff16601660009054906101000a900473ffffffffffffffffffffffffffffffffffffffff1673ffffffffffffffffffffffffffffffffffffffff161415613f3d576040517f08c379a0000000000000000000000000000000000000000000000000000000008152600401613f3490616575565b60405180910390fd5b600042905060175460185482613f539190616ba2565b1015613f94576040517f08c379a0000000000000000000000000000000000000000000000000000000008152600401613f8b906164d5565b60405180910390fd5b600080613f9f61198f565b9150915080158015613fb15750600082115b613ff0576040517f08c379a0000000000000000000000000000000000000000000000000000000008152600401613fe7906166f5565b60405180910390fd5b81841115614033576040517f08c379a000000000000000000000000000000000000000000000000000000000815260040161402a90616655565b60405180910390fd5b6000600660009054906101000a900473ffffffffffffffffffffffffffffffffffffffff1673ffffffffffffffffffffffffffffffffffffffff166370a08231306040518263ffffffff1660e01b815260040161409091906163f2565b60206040518083038186803b1580156140a857600080fd5b505afa1580156140bc573d6000803e3d6000fd5b505050506040513d601f19601f820116820180604052508101906140e09190615e4e565b905080861115614125576040517f08c379a000000000000000000000000000000000000000000000000000000000815260040161411c90616515565b60405180910390fd5b6000614154600660009054906101000a900473ffffffffffffffffffffffffffffffffffffffff16888861531f565b90506000601660009054906101000a900473ffffffffffffffffffffffffffffffffffffffff1673ffffffffffffffffffffffffffffffffffffffff166370a08231306040518263ffffffff1660e01b81526004016141b391906163f2565b60206040518083038186803b1580156141cb57600080fd5b505afa1580156141df573d6000803e3d6000fd5b505050506040513d601f19601f820116820180604052508101906142039190615e4e565b9050600081111561427e5761427d601560029054906101000a900473ffffffffffffffffffffffffffffffffffffffff1682601660009054906101000a900473ffffffffffffffffffffffffffffffffffffffff1673ffffffffffffffffffffffffffffffffffffffff16615a089092919063ffffffff16565b5b6000601560029054906101000a900473ffffffffffffffffffffffffffffffffffffffff1673ffffffffffffffffffffffffffffffffffffffff1663f7683bbc6040518163ffffffff1660e01b815260040160206040518083038186803b1580156142e857600080fd5b505afa1580156142fc573d6000803e3d6000fd5b505050506040513d601f19601f820116820180604052508101906143209190615e4e565b9050600061434c620f424061433e848761520690919063ffffffff16565b61526f90919063ffffffff16565b90507fa2f547fe4fa01671ec43d126d393c239e285ccfc633822b6413c5f474a73c1ac8a858360405161438193929190616898565b60405180910390a15050505050505080601881905550505050565b600f5481565b600260009054906101000a900473ffffffffffffffffffffffffffffffffffffffff1681565b6143d06151fe565b73ffffffffffffffffffffffffffffffffffffffff166143ee6137dc565b73ffffffffffffffffffffffffffffffffffffffff1614614444576040517f08c379a000000000000000000000000000000000000000000000000000000000815260040161443b90616695565b60405180910390fd5b601560009054906101000a900460ff1615601560006101000a81548160ff021916908315150217905550565b60105481565b61447e6151fe565b73ffffffffffffffffffffffffffffffffffffffff1661449c6137dc565b73ffffffffffffffffffffffffffffffffffffffff16146144f2576040517f08c379a00000000000000000000000000000000000000000000000000000000081526004016144e990616695565b60405180910390fd5b600060215414614537576040517f08c379a000000000000000000000000000000000000000000000000000000000815260040161452e906165d5565b60405180910390fd5b80601c819055506145536170808261528590919063ffffffff16565b601f8190555050565b600c5481565b600061457b602054601f546152d290919063ffffffff16565b905090565b6145886151fe565b73ffffffffffffffffffffffffffffffffffffffff166145a66137dc565b73ffffffffffffffffffffffffffffffffffffffff16146145fc576040517f08c379a00000000000000000000000000000000000000000000000000000000081526004016145f390616695565b60405180910390fd5b80600860006101000a81548173ffffffffffffffffffffffffffffffffffffffff021916908373ffffffffffffffffffffffffffffffffffffffff16021790555050565b600b5481565b61464e6151fe565b73ffffffffffffffffffffffffffffffffffffffff1661466c6137dc565b73ffffffffffffffffffffffffffffffffffffffff16146146c2576040517f08c379a00000000000000000000000000000000000000000000000000000000081526004016146b990616695565b60405180910390fd5b60001515600860149054906101000a900460ff16151514614718576040517f08c379a000000000000000000000000000000000000000000000000000000000815260040161470f906165f5565b60405180910390fd5b6001600860146101000a81548160ff0219169083151502179055506000600660009054906101000a900473ffffffffffffffffffffffffffffffffffffffff1673ffffffffffffffffffffffffffffffffffffffff166370a08231306040518263ffffffff1660e01b815260040161479091906163f2565b60206040518083038186803b1580156147a857600080fd5b505afa1580156147bc573d6000803e3d6000fd5b505050506040513d601f19601f820116820180604052508101906147e09190615e4e565b90506000811115614839576148388282600660009054906101000a900473ffffffffffffffffffffffffffffffffffffffff1673ffffffffffffffffffffffffffffffffffffffff16615a089092919063ffffffff16565b5b600073ffffffffffffffffffffffffffffffffffffffff16601660009054906101000a900473ffffffffffffffffffffffffffffffffffffffff1673ffffffffffffffffffffffffffffffffffffffff1614614997576000601660009054906101000a900473ffffffffffffffffffffffffffffffffffffffff1673ffffffffffffffffffffffffffffffffffffffff166370a08231306040518263ffffffff1660e01b81526004016148ec91906163f2565b60206040518083038186803b15801561490457600080fd5b505afa158015614918573d6000803e3d6000fd5b505050506040513d601f19601f8201168201806040525081019061493c9190615e4e565b90506000811115614995576149948382601660009054906101000a900473ffffffffffffffffffffffffffffffffffffffff1673ffffffffffffffffffffffffffffffffffffffff16615a089092919063ffffffff16565b5b505b5050565b6000806000905060005b600980549050811015614b5457600073ffffffffffffffffffffffffffffffffffffffff1660098281548110614a04577f4e487b7100000000000000000000000000000000000000000000000000000000600052603260045260246000fd5b9060005260206000200160009054906101000a900473ffffffffffffffffffffffffffffffffffffffff1673ffffffffffffffffffffffffffffffffffffffff1614614b4157614b3e60098281548110614a87577f4e487b7100000000000000000000000000000000000000000000000000000000600052603260045260246000fd5b9060005260206000200160009054906101000a900473ffffffffffffffffffffffffffffffffffffffff1673ffffffffffffffffffffffffffffffffffffffff16639c84d0f56040518163ffffffff1660e01b815260040160206040518083038186803b158015614af757600080fd5b505afa158015614b0b573d6000803e3d6000fd5b505050506040513d601f19601f82011682018060405250810190614b2f9190615e4e565b836152d290919063ffffffff16565b91505b8080614b4c90616cca565b9150506149a5565b508091505090565b600360009054906101000a900473ffffffffffffffffffffffffffffffffffffffff1681565b614b8a6151fe565b73ffffffffffffffffffffffffffffffffffffffff16614ba86137dc565b73ffffffffffffffffffffffffffffffffffffffff1614614bfe576040517f08c379a0000000000000000000000000000000000000000000000000000000008152600401614bf590616695565b60405180910390fd5b60001515600860149054906101000a900460ff16151514614c54576040517f08c379a0000000000000000000000000000000000000000000000000000000008152600401614c4b906165f5565b60405180910390fd5b60001515600a60008373ffffffffffffffffffffffffffffffffffffffff1673ffffffffffffffffffffffffffffffffffffffff16815260200190815260200160002060009054906101000a900460ff16151514614ce7576040517f08c379a0000000000000000000000000000000000000000000000000000000008152600401614cde906166d5565b60405180910390fd5b6001600a60008373ffffffffffffffffffffffffffffffffffffffff1673ffffffffffffffffffffffffffffffffffffffff16815260200190815260200160002060006101000a81548160ff0219169083151502179055506009819080600181540180825580915050600190039060005260206000200160009091909190916101000a81548173ffffffffffffffffffffffffffffffffffffffff021916908373ffffffffffffffffffffffffffffffffffffffff16021790555050565b614dad6151fe565b73ffffffffffffffffffffffffffffffffffffffff16614dcb6137dc565b73ffffffffffffffffffffffffffffffffffffffff1614614e21576040517f08c379a0000000000000000000000000000000000000000000000000000000008152600401614e1890616695565b60405180910390fd5b82601960006101000a81548173ffffffffffffffffffffffffffffffffffffffff021916908373ffffffffffffffffffffffffffffffffffffffff16021790555081601b60006101000a81548173ffffffffffffffffffffffffffffffffffffffff021916908373ffffffffffffffffffffffffffffffffffffffff16021790555080601a60006101000a81548173ffffffffffffffffffffffffffffffffffffffff021916908373ffffffffffffffffffffffffffffffffffffffff160217905550505050565b614ef16151fe565b73ffffffffffffffffffffffffffffffffffffffff16614f0f6137dc565b73ffffffffffffffffffffffffffffffffffffffff1614614f65576040517f08c379a0000000000000000000000000000000000000000000000000000000008152600401614f5c90616695565b60405180910390fd5b60001515601b60149054906101000a900460ff16151514614fbb576040517f08c379a0000000000000000000000000000000000000000000000000000000008152600401614fb290616635565b60405180910390fd5b81601c8190555080602081905550614fde6020548361528590919063ffffffff16565b601f819055506001601b60146101000a81548160ff0219169083151502179055505050565b60175481565b6150116151fe565b73ffffffffffffffffffffffffffffffffffffffff1661502f6137dc565b73ffffffffffffffffffffffffffffffffffffffff1614615085576040517f08c379a000000000000000000000000000000000000000000000000000000000815260040161507c90616695565b60405180910390fd5b600073ffffffffffffffffffffffffffffffffffffffff168173ffffffffffffffffffffffffffffffffffffffff1614156150f5576040517f08c379a00000000000000000000000000000000000000000000000000000000081526004016150ec906164f5565b60405180910390fd5b8073ffffffffffffffffffffffffffffffffffffffff1660008054906101000a900473ffffffffffffffffffffffffffffffffffffffff1673ffffffffffffffffffffffffffffffffffffffff167f8be0079c531659141344cd1fd0a4f28419497f9722a3daafe3b4186f6b6457e060405160405180910390a3806000806101000a81548173ffffffffffffffffffffffffffffffffffffffff021916908373ffffffffffffffffffffffffffffffffffffffff16021790555050565b600760009054906101000a900473ffffffffffffffffffffffffffffffffffffffff1681565b600560009054906101000a900473ffffffffffffffffffffffffffffffffffffffff1681565b600033905090565b6000808314156152195760009050615269565b81836152259190616b48565b90508183826152349190616b17565b14615268577f4e487b7100000000000000000000000000000000000000000000000000000000600052600160045260246000fd5b5b92915050565b6000818361527d9190616b17565b905092915050565b6000828211156152be577f4e487b7100000000000000000000000000000000000000000000000000000000600052600160045260246000fd5b81836152ca9190616ba2565b905092915050565b600081836152e09190616ac1565b905082811015615319577f4e487b7100000000000000000000000000000000000000000000000000000000600052600160045260246000fd5b92915050565b60008073ffffffffffffffffffffffffffffffffffffffff16601960009054906101000a900473ffffffffffffffffffffffffffffffffffffffff1673ffffffffffffffffffffffffffffffffffffffff16141580156153ce5750600073ffffffffffffffffffffffffffffffffffffffff16601b60009054906101000a900473ffffffffffffffffffffffffffffffffffffffff1673ffffffffffffffffffffffffffffffffffffffff1614155b80156154295750600073ffffffffffffffffffffffffffffffffffffffff16601a60009054906101000a900473ffffffffffffffffffffffffffffffffffffffff1673ffffffffffffffffffffffffffffffffffffffff1614155b615468576040517f08c379a000000000000000000000000000000000000000000000000000000000815260040161545f90616675565b60405180910390fd5b600083141561547a5760009050615966565b6000600267ffffffffffffffff8111156154bd577f4e487b7100000000000000000000000000000000000000000000000000000000600052604160045260246000fd5b6040519080825280602002602001820160405280156154eb5781602001602082028036833780820191505090505b509050600660009054906101000a900473ffffffffffffffffffffffffffffffffffffffff1673ffffffffffffffffffffffffffffffffffffffff168573ffffffffffffffffffffffffffffffffffffffff16141561567757601b60009054906101000a900473ffffffffffffffffffffffffffffffffffffffff16816000815181106155a1577f4e487b7100000000000000000000000000000000000000000000000000000000600052603260045260246000fd5b602002602001019073ffffffffffffffffffffffffffffffffffffffff16908173ffffffffffffffffffffffffffffffffffffffff1681525050601a60009054906101000a900473ffffffffffffffffffffffffffffffffffffffff1681600181518110615638577f4e487b7100000000000000000000000000000000000000000000000000000000600052603260045260246000fd5b602002602001019073ffffffffffffffffffffffffffffffffffffffff16908173ffffffffffffffffffffffffffffffffffffffff16815250506157a6565b601a60009054906101000a900473ffffffffffffffffffffffffffffffffffffffff16816000815181106156d4577f4e487b7100000000000000000000000000000000000000000000000000000000600052603260045260246000fd5b602002602001019073ffffffffffffffffffffffffffffffffffffffff16908173ffffffffffffffffffffffffffffffffffffffff1681525050601b60009054906101000a900473ffffffffffffffffffffffffffffffffffffffff168160018151811061576b577f4e487b7100000000000000000000000000000000000000000000000000000000600052603260045260246000fd5b602002602001019073ffffffffffffffffffffffffffffffffffffffff16908173ffffffffffffffffffffffffffffffffffffffff16815250505b6157f4601960009054906101000a900473ffffffffffffffffffffffffffffffffffffffff1660008773ffffffffffffffffffffffffffffffffffffffff1661596d9092919063ffffffff16565b615841601960009054906101000a900473ffffffffffffffffffffffffffffffffffffffff16858773ffffffffffffffffffffffffffffffffffffffff1661596d9092919063ffffffff16565b6000601960009054906101000a900473ffffffffffffffffffffffffffffffffffffffff1673ffffffffffffffffffffffffffffffffffffffff166338ed17398686853061589a610708426152d290919063ffffffff16565b6040518663ffffffff1660e01b81526004016158ba95949392919061683e565b600060405180830381600087803b1580156158d457600080fd5b505af11580156158e8573d6000803e3d6000fd5b505050506040513d6000823e3d601f19601f820116820180604052508101906159119190615dbb565b905080600182516159229190616ba2565b81518110615959577f4e487b7100000000000000000000000000000000000000000000000000000000600052603260045260246000fd5b6020026020010151925050505b9392505050565b8273ffffffffffffffffffffffffffffffffffffffff1663095ea7b383836040518363ffffffff1660e01b81526004016159a892919061640d565b602060405180830381600087803b1580156159c257600080fd5b505af11580156159d6573d6000803e3d6000fd5b505050506040513d601f19601f820116820180604052508101906159fa9190615dfc565b615a0357600080fd5b505050565b8273ffffffffffffffffffffffffffffffffffffffff1663a9059cbb83836040518363ffffffff1660e01b8152600401615a4392919061640d565b602060405180830381600087803b158015615a5d57600080fd5b505af1158015615a71573d6000803e3d6000fd5b505050506040513d601f19601f82011682018060405250810190615a959190615dfc565b615a9e57600080fd5b505050565b6000615ab6615ab1846169b7565b616992565b90508083825260208201905082856020860282011115615ad557600080fd5b60005b85811015615b055781615aeb8882615c5d565b845260208401935060208301925050600181019050615ad8565b5050509392505050565b6000615b22615b1d846169e3565b616992565b905082815260208101848484011115615b3a57600080fd5b615b45848285616c57565b509392505050565b6000615b60615b5b84616a14565b616992565b905082815260208101848484011115615b7857600080fd5b615b83848285616c57565b509392505050565b600081359050615b9a81617208565b92915050565b600081519050615baf81617208565b92915050565b600082601f830112615bc657600080fd5b8151615bd6848260208601615aa3565b91505092915050565b600081519050615bee8161721f565b92915050565b600082601f830112615c0557600080fd5b8135615c15848260208601615b0f565b91505092915050565b600082601f830112615c2f57600080fd5b8135615c3f848260208601615b4d565b91505092915050565b600081359050615c5781617236565b92915050565b600081519050615c6c81617236565b92915050565b600081519050615c818161724d565b92915050565b600060208284031215615c9957600080fd5b6000615ca784828501615b8b565b91505092915050565b600060208284031215615cc257600080fd5b6000615cd084828501615ba0565b91505092915050565b600080600060608486031215615cee57600080fd5b6000615cfc86828701615b8b565b9350506020615d0d86828701615b8b565b9250506040615d1e86828701615b8b565b9150509250925092565b60008060008060808587031215615d3e57600080fd5b6000615d4c87828801615b8b565b9450506020615d5d87828801615c48565b935050604085013567ffffffffffffffff811115615d7a57600080fd5b615d8687828801615c1e565b925050606085013567ffffffffffffffff811115615da357600080fd5b615daf87828801615bf4565b91505092959194509250565b600060208284031215615dcd57600080fd5b600082015167ffffffffffffffff811115615de757600080fd5b615df384828501615bb5565b91505092915050565b600060208284031215615e0e57600080fd5b6000615e1c84828501615bdf565b91505092915050565b600060208284031215615e3757600080fd5b6000615e4584828501615c48565b91505092915050565b600060208284031215615e6057600080fd5b6000615e6e84828501615c5d565b91505092915050565b60008060408385031215615e8a57600080fd5b6000615e9885828601615c48565b9250506020615ea985828601615c48565b9150509250929050565b600060208284031215615ec557600080fd5b6000615ed384828501615c72565b91505092915050565b6000615ee88383615ef4565b60208301905092915050565b615efd81616bd6565b82525050565b615f0c81616bd6565b82525050565b6000615f1d82616a55565b615f278185616a83565b9350615f3283616a45565b8060005b83811015615f63578151615f4a8882615edc565b9750615f5583616a76565b925050600181019050615f36565b5085935050505092915050565b615f7981616be8565b82525050565b615f90615f8b82616bf4565b616d13565b82525050565b6000615fa182616a60565b615fab8185616a94565b9350615fbb818560208601616c66565b615fc481616daa565b840191505092915050565b6000615fda82616a60565b615fe48185616aa5565b9350615ff4818560208601616c66565b80840191505092915050565b600061600b82616a6b565b6160158185616ab0565b9350616025818560208601616c66565b61602e81616daa565b840191505092915050565b6000616046601783616ab0565b915061605182616dbb565b602082019050919050565b6000616069600b83616ab0565b915061607482616de4565b602082019050919050565b600061608c601383616ab0565b915061609782616e0d565b602082019050919050565b60006160af602683616ab0565b91506160ba82616e36565b604082019050919050565b60006160d2600d83616ab0565b91506160dd82616e85565b602082019050919050565b60006160f5601283616ab0565b915061610082616eae565b602082019050919050565b6000616118601083616ab0565b915061612382616ed7565b602082019050919050565b600061613b601a83616ab0565b915061614682616f00565b602082019050919050565b600061615e601883616ab0565b915061616982616f29565b602082019050919050565b6000616181600983616ab0565b915061618c82616f52565b602082019050919050565b60006161a4600f83616ab0565b91506161af82616f7b565b602082019050919050565b60006161c7600883616ab0565b91506161d282616fa4565b602082019050919050565b60006161ea601383616ab0565b91506161f582616fcd565b602082019050919050565b600061620d601283616ab0565b915061621882616ff6565b602082019050919050565b6000616230600883616ab0565b915061623b8261701f565b602082019050919050565b6000616253600a83616ab0565b915061625e82617048565b602082019050919050565b6000616276602083616ab0565b915061628182617071565b602082019050919050565b6000616299601483616ab0565b91506162a48261709a565b602082019050919050565b60006162bc600b83616ab0565b91506162c7826170c3565b602082019050919050565b60006162df600883616ab0565b91506162ea826170ec565b602082019050919050565b6000616302603583616ab0565b915061630d82617115565b604082019050919050565b6000616325601683616ab0565b915061633082617164565b602082019050919050565b6000616348600583616ab0565b91506163538261718d565b602082019050919050565b600061636b602083616ab0565b9150616376826171b6565b602082019050919050565b600061638e601983616ab0565b9150616399826171df565b602082019050919050565b6163ad81616c40565b82525050565b60006163bf8285615f7f565b6004820191506163cf8284615fcf565b91508190509392505050565b60006163e78284615fcf565b915081905092915050565b60006020820190506164076000830184615f03565b92915050565b60006040820190506164226000830185615f03565b61642f60208301846163a4565b9392505050565b600060208201905061644b6000830184615f70565b92915050565b6000602082019050818103600083015261646b8184615f96565b905092915050565b6000602082019050818103600083015261648d8184616000565b905092915050565b600060208201905081810360008301526164ae81616039565b9050919050565b600060208201905081810360008301526164ce8161605c565b9050919050565b600060208201905081810360008301526164ee8161607f565b9050919050565b6000602082019050818103600083015261650e816160a2565b9050919050565b6000602082019050818103600083015261652e816160c5565b9050919050565b6000602082019050818103600083015261654e816160e8565b9050919050565b6000602082019050818103600083015261656e8161610b565b9050919050565b6000602082019050818103600083015261658e8161612e565b9050919050565b600060208201905081810360008301526165ae81616151565b9050919050565b600060208201905081810360008301526165ce81616174565b9050919050565b600060208201905081810360008301526165ee81616197565b9050919050565b6000602082019050818103600083015261660e816161ba565b9050919050565b6000602082019050818103600083015261662e816161dd565b9050919050565b6000602082019050818103600083015261664e81616200565b9050919050565b6000602082019050818103600083015261666e81616223565b9050919050565b6000602082019050818103600083015261668e81616246565b9050919050565b600060208201905081810360008301526166ae81616269565b9050919050565b600060208201905081810360008301526166ce8161628c565b9050919050565b600060208201905081810360008301526166ee816162af565b9050919050565b6000602082019050818103600083015261670e816162d2565b9050919050565b6000602082019050818103600083015261672e816162f5565b9050919050565b6000602082019050818103600083015261674e81616318565b9050919050565b6000602082019050818103600083015261676e8161633b565b9050919050565b6000602082019050818103600083015261678e8161635e565b9050919050565b600060208201905081810360008301526167ae81616381565b9050919050565b60006020820190506167ca60008301846163a4565b92915050565b60006040820190506167e560008301856163a4565b6167f26020830184615f70565b9392505050565b600060608201905061680e60008301866163a4565b81810360208301526168208185616000565b905081810360408301526168348184615f96565b9050949350505050565b600060a08201905061685360008301886163a4565b61686060208301876163a4565b81810360408301526168728186615f12565b90506168816060830185615f03565b61688e60808301846163a4565b9695505050505050565b60006060820190506168ad60008301866163a4565b6168ba60208301856163a4565b6168c760408301846163a4565b949350505050565b60006080820190506168e460008301876163a4565b6168f160208301866163a4565b6168fe60408301856163a4565b61690b60608301846163a4565b95945050505050565b60006101008201905061692a600083018b6163a4565b616937602083018a6163a4565b61694460408301896163a4565b61695160608301886163a4565b61695e60808301876163a4565b61696b60a08301866163a4565b61697860c08301856163a4565b61698560e08301846163a4565b9998505050505050505050565b600061699c6169ad565b90506169a88282616c99565b919050565b6000604051905090565b600067ffffffffffffffff8211156169d2576169d1616d7b565b5b602082029050602081019050919050565b600067ffffffffffffffff8211156169fe576169fd616d7b565b5b616a0782616daa565b9050602081019050919050565b600067ffffffffffffffff821115616a2f57616a2e616d7b565b5b616a3882616daa565b9050602081019050919050565b6000819050602082019050919050565b600081519050919050565b600081519050919050565b600081519050919050565b6000602082019050919050565b600082825260208201905092915050565b600082825260208201905092915050565b600081905092915050565b600082825260208201905092915050565b6000616acc82616c40565b9150616ad783616c40565b9250827fffffffffffffffffffffffffffffffffffffffffffffffffffffffffffffffff03821115616b0c57616b0b616d1d565b5b828201905092915050565b6000616b2282616c40565b9150616b2d83616c40565b925082616b3d57616b3c616d4c565b5b828204905092915050565b6000616b5382616c40565b9150616b5e83616c40565b9250817fffffffffffffffffffffffffffffffffffffffffffffffffffffffffffffffff0483118215151615616b9757616b96616d1d565b5b828202905092915050565b6000616bad82616c40565b9150616bb883616c40565b925082821015616bcb57616bca616d1d565b5b828203905092915050565b6000616be182616c20565b9050919050565b60008115159050919050565b60007fffffffff0000000000000000000000000000000000000000000000000000000082169050919050565b600073ffffffffffffffffffffffffffffffffffffffff82169050919050565b6000819050919050565b600060ff82169050919050565b82818337600083830152505050565b60005b83811015616c84578082015181840152602081019050616c69565b83811115616c93576000848401525b50505050565b616ca282616daa565b810181811067ffffffffffffffff82111715616cc157616cc0616d7b565b5b80604052505050565b6000616cd582616c40565b91507fffffffffffffffffffffffffffffffffffffffffffffffffffffffffffffffff821415616d0857616d07616d1d565b5b600182019050919050565b6000819050919050565b7f4e487b7100000000000000000000000000000000000000000000000000000000600052601160045260246000fd5b7f4e487b7100000000000000000000000000000000000000000000000000000000600052601260045260246000fd5b7f4e487b7100000000000000000000000000000000000000000000000000000000600052604160045260246000fd5b6000601f19601f8301169050919050565b7f696e76616c6964436f6c6c61746572616c416d6f756e74000000000000000000600082015250565b7f2173747261746567697374000000000000000000000000000000000000000000600082015250565b7f3c726562616c616e63655f636f6f6c646f776e00000000000000000000000000600082015250565b7f4f776e61626c653a206e6577206f776e657220697320746865207a65726f206160008201527f6464726573730000000000000000000000000000000000000000000000000000602082015250565b7f3e736861726542616c616e636500000000000000000000000000000000000000600082015250565b7f54726561737572793a206d696772617465640000000000000000000000000000600082015250565b7f21726562616c616e63696e67506f6f6c00000000000000000000000000000000600082015250565b7f21726562616c616e63696e67506f6f6c436f6c6c61746572616c000000000000600082015250565b7f54726561737572793a206e6f74206f70656e6564207965740000000000000000600082015250565b7f2165786365656465640000000000000000000000000000000000000000000000600082015250565b7f616c726561647920737461727465640000000000000000000000000000000000600082015250565b7f6d69677261746564000000000000000000000000000000000000000000000000600082015250565b7f21737472617465676973742626216f776e657200000000000000000000000000600082015250565b7f616c7265616479496e697469616c697a65640000000000000000000000000000600082015250565b7f3e64656669636974000000000000000000000000000000000000000000000000600082015250565b7f21717569636b7377617000000000000000000000000000000000000000000000600082015250565b7f4f776e61626c653a2063616c6c6572206973206e6f7420746865206f776e6572600082015250565b7f21706f6f6c436f6c6c61746572616c546f6b656e000000000000000000000000600082015250565b7f706f6f6c45786973746564000000000000000000000000000000000000000000600082015250565b7f6578636565646564000000000000000000000000000000000000000000000000600082015250565b7f4d757374207761697420666f7220746865207265667265736820636f6f6c646f60008201527f776e2073696e6365206c61737420726566726573680000000000000000000000602082015250565b7f696e737566666963656e74506f6f6c42616c616e636500000000000000000000600082015250565b7f21706f6f6c000000000000000000000000000000000000000000000000000000600082015250565b7f436f6c6c61746572616c20526174696f20686173206265656e20706175736564600082015250565b7f54726561737572793a206e6f7420737461727465642079657400000000000000600082015250565b61721181616bd6565b811461721c57600080fd5b50565b61722881616be8565b811461723357600080fd5b50565b61723f81616c40565b811461724a57600080fd5b50565b61725681616c4a565b811461726157600080fd5b5056fe54726561737572793a3a657865637574655472616e73616374696f6e3a205472616e73616374696f6e20657865637574696f6e2072657665727465642ea26469706673582212205320ccfec7f2c79d70f85971fb7f265d60d6b94f153d74c6887ed53bd0b2d90d64736f6c63430008040033",
  "immutableReferences": {},
  "source": "// SPDX-License-Identifier: MIT\npragma solidity 0.8.4;\npragma experimental ABIEncoderV2;\n\nlibrary SafeERC20 {\n  function safeTransfer(IERC20 token, address to, uint256 value) internal{\n    require(token.transfer(to, value));\n  }\n\n  function safeApprove( IERC20 token, address spender, uint256 value) internal{\n    require(token.approve(spender, value));\n  }\n}\n\nlibrary SafeMath {\n  function mul(uint256 a, uint256 b) internal pure returns (uint256 c) {\n    if (a == 0) {return 0;}\n    c = a * b;\n    assert(c / a == b);\n    return c;\n  }\n\n  function div(uint256 a, uint256 b) internal pure returns (uint256) {\n    return a / b;\n  }\n\n  function sub(uint256 a, uint256 b) internal pure returns (uint256) {\n    assert(b <= a);\n    return a - b;\n  }\n\n  function add(uint256 a, uint256 b) internal pure returns (uint256 c) {\n    c = a + b;\n    assert(c >= a);\n    return c;\n  }\n}\n\ninterface IUniswapRouter{\n    function swapExactTokensForTokens(\n        uint amountIn,\n        uint amountOutMin,\n        address[] calldata path,\n        address to,\n        uint deadline\n    ) external returns (uint[] memory amounts);\n}\n\ninterface IFoundry {\n    function allocateSeigniorage(uint256 _amount) external;\n}\n\ninterface IPool {\n    function collateralDollarBalance() external view returns (uint256);\n    function migrate(address _new_pool) external;\n    function transferCollateralToTreasury(uint256 amount) external;\n    function getCollateralPrice() external view returns (uint256);\n    function getCollateralToken() external view returns (address);\n}\n\ninterface IOracle {\n    function consult() external view returns (uint256);\n}\n\ninterface IEpoch {\n    function epoch() external view returns (uint256);\n    function nextEpochPoint() external view returns (uint256);\n}\n\ninterface ITreasury is IEpoch {\n    function hasPool(address _address) external view returns (bool);\n\n    function info()\n        external\n        view\n        returns (\n            uint256,\n            uint256,\n            uint256,\n            uint256,\n            uint256,\n            uint256,\n            uint256,\n            uint256\n        );\n\n    function epochInfo()\n        external\n        view\n        returns (\n            uint256,\n            uint256,\n            uint256,\n            uint256\n        );\n}\n\ninterface IERC20 {\n    function totalSupply() external view returns (uint256);\n    function balanceOf(address account) external view returns (uint256);\n    function transfer(address recipient, uint256 amount) external returns (bool);\n    function allowance(address owner, address spender) external view returns (uint256);\n    function approve(address spender, uint256 amount) external returns (bool);\n    function transferFrom(address sender, address recipient, uint256 amount) external returns (bool);\n    event Transfer(address indexed from, address indexed to, uint256 value);\n    event Approval(address indexed owner, address indexed spender, uint256 value);\n    \n    function name() external view returns (string memory);\n    function symbol() external view returns (string memory);\n    function decimals() external view returns (uint8);\n}\n\nabstract contract Context {\n    function _msgSender() internal view virtual returns (address) {\n        return msg.sender;\n    }\n\n    function _msgData() internal view virtual returns (bytes calldata) {\n        this;\n        return msg.data;\n    }\n}\n\nabstract contract Ownable is Context {\n    address private _owner;\n    event OwnershipTransferred(address indexed previousOwner, address indexed newOwner);\n\n    constructor () {\n        address msgSender = _msgSender();\n        _owner = msgSender;\n        emit OwnershipTransferred(address(0), msgSender);\n    }\n\n    function owner() public view virtual returns (address) {\n        return _owner;\n    }\n\n    modifier onlyOwner() {\n        require(owner() == _msgSender(), \"Ownable: caller is not the owner\");\n        _;\n    }\n\n    function renounceOwnership() public virtual onlyOwner {\n        emit OwnershipTransferred(_owner, address(0));\n        _owner = address(0);\n    }\n\n    function transferOwnership(address newOwner) public virtual onlyOwner {\n        require(newOwner != address(0), \"Ownable: new owner is the zero address\");\n        emit OwnershipTransferred(_owner, newOwner);\n        _owner = newOwner;\n    }\n}\n\ncontract ReentrancyGuard {\n  uint256 private _guardCounter = 1;\n\n  modifier nonReentrant() {\n    _guardCounter += 1;\n    uint256 localCounter = _guardCounter;\n    _;\n    require(localCounter == _guardCounter);\n  }\n}\n\nabstract contract ERC20 is IERC20 {\n    using SafeMath for uint256;\n    \n    mapping (address => uint256) private _balances;\n    mapping (address => mapping (address => uint256)) private _allowed;\n    uint256 private _totalSupply;\n\n    function totalSupply() public view override returns (uint256) {\n        return _totalSupply;\n    }\n\n    function balanceOf(address owner) public view override returns (uint256) {\n        return _balances[owner];\n    }\n\n    function allowance(address owner, address spender) public view override returns (uint256){\n        return _allowed[owner][spender];\n    }\n\n    function transfer(address to, uint256 value) public override returns (bool) {\n        require(value <= _balances[msg.sender]);\n        require(to != address(0));\n        _balances[msg.sender] = _balances[msg.sender].sub(value);\n        _balances[to] = _balances[to].add(value);\n        emit Transfer(msg.sender, to, value);\n        return true;\n    }\n\n    function approve(address spender, uint256 value) public override returns (bool) {\n        require(spender != address(0));\n        _allowed[msg.sender][spender] = value;\n        emit Approval(msg.sender, spender, value);\n        return true;\n    }\n\n    function transferFrom(address from, address to, uint256 value) public override returns (bool){\n        require(value <= _balances[from]);\n        require(value <= _allowed[from][msg.sender]);\n        require(to != address(0));\n        _balances[from] = _balances[from].sub(value);\n        _balances[to] = _balances[to].add(value);\n        _allowed[from][msg.sender] = _allowed[from][msg.sender].sub(value);\n        emit Transfer(from, to, value);\n        return true;\n    }\n\n    function increaseAllowance(address spender, uint256 addedValue) public returns (bool){\n        require(spender != address(0));\n        _allowed[msg.sender][spender] = (\n        _allowed[msg.sender][spender].add(addedValue));\n        emit Approval(msg.sender, spender, _allowed[msg.sender][spender]);\n        return true;\n    }\n\n    function decreaseAllowance(address spender, uint256 subtractedValue) public returns (bool){\n        require(spender != address(0));\n        _allowed[msg.sender][spender] = (_allowed[msg.sender][spender].sub(subtractedValue));\n        emit Approval(msg.sender, spender, _allowed[msg.sender][spender]);\n        return true;\n    }\n\n    function _mint(address account, uint256 amount) internal {\n        require(account != address(0));\n        _totalSupply = _totalSupply.add(amount);\n        _balances[account] = _balances[account].add(amount);\n        emit Transfer(address(0), account, amount);\n    }\n\n    function _burn(address account, uint256 amount) internal {\n        require(account != address(0));\n        require(amount <= _balances[account]);\n        _totalSupply = _totalSupply.sub(amount);\n        _balances[account] = _balances[account].sub(amount);\n        emit Transfer(account, address(0), amount);\n    }\n\n    function _burnFrom(address account, uint256 amount) internal {\n        require(amount <= _allowed[account][msg.sender]);\n        _allowed[account][msg.sender] = _allowed[account][msg.sender].sub(amount);\n        _burn(account, amount);\n    }\n}\n\n\ncontract Treasury is ITreasury, Ownable, ReentrancyGuard {\n    using SafeMath for uint256;\n    using SafeERC20 for IERC20;\n\n    address public oracleDollar;\n    address public oracleShare;\n    address public oracleGovToken;\n\n    address public AGOUSD;\n    address public CNUSD;\n    address public governanceToken;\n\n    address public strategist;\n\n    bool public migrated = false;\n\n    // pools\n    address[] public pools_array;\n    mapping(address => bool) public pools;\n\n    // Constants for various precisions\n    uint256 private constant PRICE_PRECISION = 1e6;\n    uint256 private constant RATIO_PRECISION = 1e6;\n\n    // fees\n    uint256 public redemption_fee = 4000; // 6 decimals of precision\n    uint256 public minting_fee = 3000; // 6 decimals of precision\n\n    // collateral_ratio\n    uint256 public last_refresh_cr_timestamp;\n    uint256 public target_collateral_ratio = 1000000; // = 100% - fully collateralized at start; // 6 decimals of precision\n    uint256 public effective_collateral_ratio = 1000000; // = 100% - fully collateralized at start; // 6 decimals of precision\n    uint256 public refresh_cooldown = 3600; // Refresh cooldown period is set to 1 hour (3600 seconds) at genesis; // Seconds to wait before being able to run refreshCollateralRatio() again\n    uint256 public ratio_step = 2500; // Amount to change the collateralization ratio by upon refreshCollateralRatio() // = 0.25% at 6 decimals of precision\n    uint256 public price_target = 1000000; // = $1. (6 decimals of precision). Collateral ratio will adjust according to the $1 price target at genesis; // The price of Dollar at which the collateral ratio will respond to; this value is only used for the collateral ratio mechanism and not for minting and redeeming which are hardcoded at $1\n    uint256 public price_band = 5000; // The bound above and below the price target at which the Collateral ratio is allowed to drop\n    uint256 public gov_token_value_for_discount = 1000;//1000$ in governance tokens\n    uint256 private constant COLLATERAL_RATIO_MAX = 1e6;\n    bool public collateral_ratio_paused = true; // during bootstraping phase, collateral_ratio will be fixed at 100%\n    bool public using_effective_collateral_ratio = false; // toggle the effective collateral ratio usage\n\n    // rebalance\n    address public rebalancing_pool;\n    address public rebalancing_pool_collateral;\n    uint256 public rebalance_cooldown = 12 hours;\n    uint256 public last_rebalance_timestamp;\n\n    // uniswap\n    address public uniswap_router;\n    address public uniswap_pair_WMATIC_COLLATERALL;\n    address public uniswap_pair_SHARE_WMATIC;\n\n    // foundry\n    bool public initialized = false;\n    uint256 public startTime;\n    address public foundry;\n    uint256 public excess_collateral_distributed_ratio = 50000; // 5% per epoch\n    uint256 public lastEpochTime;\n    uint256 public epoch_length;\n    uint256 private _epoch = 0;\n\n    /* ========== MODIFIERS ========== */\n\n    modifier onlyStrategist() {\n        require(strategist == msg.sender, \"!strategist\");\n        _;\n    }\n\n    modifier onlyStrategistOrOwner() {\n        require(strategist == msg.sender || owner() == msg.sender, \"!strategist&&!owner\");\n        _;\n    }\n\n    modifier notMigrated() {\n        require(migrated == false, \"migrated\");\n        _;\n    }\n\n    modifier hasRebalancePool() {\n        require(rebalancing_pool != address(0), \"!rebalancingPool\");\n        require(rebalancing_pool_collateral != address(0), \"!rebalancingPoolCollateral\");\n        _;\n    }\n\n    modifier checkCondition {\n        require(!migrated, \"Treasury: migrated\");\n        require(block.timestamp >= startTime, \"Treasury: not started yet\");\n        _;\n    }\n\n    modifier checkRebalanceCooldown() {\n        uint256 _blockTimestamp = block.timestamp;\n        require(_blockTimestamp - last_rebalance_timestamp >= rebalance_cooldown, \"<rebalance_cooldown\");\n        _;\n        last_rebalance_timestamp = _blockTimestamp;\n    }\n\n    modifier checkEpoch {\n        uint256 _nextEpochPoint = nextEpochPoint();\n        require(block.timestamp >= _nextEpochPoint, \"Treasury: not opened yet\");\n        _;\n        lastEpochTime = _nextEpochPoint;\n        _epoch = _epoch.add(1);\n    }\n\n    /* ========== EVENTS ============= */\n    event TransactionExecuted(address indexed target, uint256 value, string signature, bytes data);\n    event BoughtBack(uint256 collateral_value, uint256 collateral_amount, uint256 output_share_amount);\n    event Recollateralized(uint256 share_amount, uint256 output_collateral_amount, uint256 output_collateral_value);\n\n    function initialize(uint256 _startTime, uint256 _epoch_length) external onlyOwner {\n        require(initialized == false, \"alreadyInitialized\");\n        startTime = _startTime;\n        epoch_length = _epoch_length;\n        lastEpochTime = _startTime.sub(epoch_length);\n        initialized = true;\n    }\n\n    /* ========== VIEWS ========== */\n\n    function dollarPrice() public view returns (uint256) {\n        return IOracle(oracleDollar).consult();\n    }\n\n    function sharePrice() public view returns (uint256) {\n        return IOracle(oracleShare).consult();\n    }\n\n    function gov_token_price() public view returns (uint256) {\n        return IOracle(oracleGovToken).consult();\n    }\n\n    function hasPool(address _address) external view override returns (bool) {\n        return pools[_address] == true;\n    }\n\n    function nextEpochPoint() public view override returns (uint256) {\n        return lastEpochTime.add(epoch_length);\n    }\n\n    function epoch() public view override returns (uint256) {\n        return _epoch;\n    }\n\n    function redemption_fee_adjusted() public view returns (uint256) {\n        if (governanceToken == address(0)) return redemption_fee;\n        if (IERC20(governanceToken).balanceOf(tx.origin) > discount_requirenment() ) return redemption_fee.div(2);\n    }\n\n    function discount_requirenment() public view returns (uint256) {\n        if (gov_token_price() == 0) return 1;\n        uint256 decimals = IERC20(governanceToken).decimals();\n        return  gov_token_value_for_discount\n                .mul(PRICE_PRECISION)\n                .mul(decimals)\n                .div(gov_token_price());\n    }\n\n    function info()\n        external\n        view\n        override\n        returns (\n            uint256,\n            uint256,\n            uint256,\n            uint256,\n            uint256,\n            uint256,\n            uint256,\n            uint256\n        )\n    {\n        return (\n            dollarPrice(), \n            sharePrice(), \n            IERC20(AGOUSD).totalSupply(), \n            target_collateral_ratio, \n            effective_collateral_ratio, \n            globalCollateralValue(),    \n            minting_fee, \n            redemption_fee_adjusted()\n        );\n    }\n\n    function epochInfo()\n        external\n        view\n        override\n        returns (\n            uint256,\n            uint256,\n            uint256,\n            uint256\n        )\n    {\n        return (epoch(), nextEpochPoint(), epoch_length, excess_collateral_distributed_ratio);\n    }\n\n    // Iterate through all pools and calculate all value of collateral in all pools globally\n    function globalCollateralValue() public view returns (uint256) {\n        uint256 total_collateral_value = 0;\n        for (uint256 i = 0; i < pools_array.length; i++) {\n            // Exclude null addresses\n            if (pools_array[i] != address(0)) {\n                total_collateral_value = total_collateral_value.add(IPool(pools_array[i]).collateralDollarBalance());\n            }\n        }\n        return total_collateral_value;\n    }\n\n    function calcEffectiveCollateralRatio() public view returns (uint256) {\n        if (!using_effective_collateral_ratio) {\n            return target_collateral_ratio;\n        }\n        uint256 total_collateral_value = globalCollateralValue();\n        uint256 total_supply_dollar = IERC20(AGOUSD).totalSupply();\n        uint256 ecr = total_collateral_value.mul(PRICE_PRECISION).div(total_supply_dollar);\n        if (ecr > COLLATERAL_RATIO_MAX) {\n            return COLLATERAL_RATIO_MAX;\n        }\n        return ecr;\n    }\n\n    /* ========== PUBLIC FUNCTIONS ========== */\n\n    function refreshCollateralRatio() public {\n        require(collateral_ratio_paused == false, \"Collateral Ratio has been paused\");\n        require(block.timestamp - last_refresh_cr_timestamp >= refresh_cooldown, \"Must wait for the refresh cooldown since last refresh\");\n\n        uint256 current_dollar_price = dollarPrice();\n\n        // Step increments are 0.25% (upon genesis, changable by setRatioStep())\n        if (current_dollar_price > price_target.add(price_band)) {\n            // decrease collateral ratio\n            if (target_collateral_ratio <= ratio_step) {\n                // if within a step of 0, go to 0\n                target_collateral_ratio = 0;\n            } else {\n                target_collateral_ratio = target_collateral_ratio.sub(ratio_step);\n            }\n        }\n        // IRON price is below $1 - `price_band`. Need to increase `collateral_ratio`\n        else if (current_dollar_price < price_target.sub(price_band)) {\n            // increase collateral ratio\n            if (target_collateral_ratio.add(ratio_step) >= COLLATERAL_RATIO_MAX) {\n                target_collateral_ratio = COLLATERAL_RATIO_MAX; // cap collateral ratio at 1.000000\n            } else {\n                target_collateral_ratio = target_collateral_ratio.add(ratio_step);\n            }\n        }\n\n        // If using ECR, then calcECR. If not, update ECR = TCR\n        if (using_effective_collateral_ratio) {\n            effective_collateral_ratio = calcEffectiveCollateralRatio();\n        } else {\n            effective_collateral_ratio = target_collateral_ratio;\n        }\n\n        last_refresh_cr_timestamp = block.timestamp;\n    }\n\n    // Check if the protocol is over- or under-collateralized, by how much\n    function calcCollateralBalance() public view returns (uint256 _collateral_value, bool _exceeded) {\n        uint256 total_collateral_value = globalCollateralValue();\n        uint256 target_collateral_value = IERC20(AGOUSD).totalSupply().mul(target_collateral_ratio).div(PRICE_PRECISION);\n        if (total_collateral_value >= target_collateral_value) {\n            _collateral_value = total_collateral_value.sub(target_collateral_value);\n            _exceeded = true;\n        } else {\n            _collateral_value = target_collateral_value.sub(total_collateral_value);\n            _exceeded = false;\n        }\n    }\n\n    /* -========= INTERNAL FUNCTIONS ============ */\n\n    // SWAP tokens using quickswap\n    function _swap(\n        address _input_token,\n        uint256 _input_amount,\n        uint256 _min_output_amount\n    ) internal returns (uint256) {\n        require(uniswap_router != address(0) && uniswap_pair_SHARE_WMATIC != address(0) && uniswap_pair_WMATIC_COLLATERALL != address(0), \"!quickswap\");\n        if (_input_amount == 0) return 0;\n        address[] memory _path = new address[](2);\n        if (_input_token == CNUSD) {\n            _path[0] = uniswap_pair_SHARE_WMATIC;\n            _path[1] = uniswap_pair_WMATIC_COLLATERALL;\n        } else {\n            _path[0] = uniswap_pair_WMATIC_COLLATERALL;\n            _path[1] = uniswap_pair_SHARE_WMATIC;\n        }\n        IERC20(_input_token).safeApprove(uniswap_router, 0);\n        IERC20(_input_token).safeApprove(uniswap_router, _input_amount);\n        uint256[] memory out_amounts = IUniswapRouter(uniswap_router).swapExactTokensForTokens(_input_amount, _min_output_amount, _path, address(this), block.timestamp.add(1800));\n        return out_amounts[out_amounts.length - 1];\n    }\n    /* ========== RESTRICTED FUNCTIONS ========== */\n\n    // Add new Pool\n    function addPool(address pool_address) public onlyOwner notMigrated {\n        require(pools[pool_address] == false, \"poolExisted\");\n        pools[pool_address] = true;\n        pools_array.push(pool_address);\n    }\n\n    // Remove a pool\n    function removePool(address pool_address) public onlyOwner notMigrated {\n        require(pools[pool_address] == true, \"!pool\");\n        // Delete from the mapping\n        delete pools[pool_address];\n        // 'Delete' from the array by setting the address to 0x0\n        for (uint256 i = 0; i < pools_array.length; i++) {\n            if (pools_array[i] == pool_address) {\n                pools_array[i] = address(0); // This will leave a null in the array and keep the indices the same\n                break;\n            }\n        }\n    }\n\n    // SINGLE POOL STRATEGY\n    // With Treasury v1, we will only utilize collateral from a single pool to do rebalancing\n    function buyback(uint256 _collateral_value, uint256 _min_share_amount) external onlyStrategist notMigrated hasRebalancePool checkRebalanceCooldown {\n        (uint256 _excess_collateral_value, bool _exceeded) = calcCollateralBalance();\n        require(_exceeded && _excess_collateral_value > 0, \"!exceeded\");\n        require(_collateral_value > 0 && _collateral_value < _excess_collateral_value, \"invalidCollateralAmount\");\n        uint256 _collateral_price = IPool(rebalancing_pool).getCollateralPrice();\n        uint256 _collateral_amount_sell = _collateral_value.mul(PRICE_PRECISION).div(_collateral_price);\n        require(IERC20(rebalancing_pool_collateral).balanceOf(rebalancing_pool) > _collateral_amount_sell, \"insufficentPoolBalance\");\n        IPool(rebalancing_pool).transferCollateralToTreasury(_collateral_amount_sell); // Transfer collateral from pool to treasury\n        uint256 out_share_amount = _swap(rebalancing_pool_collateral, _collateral_amount_sell, _min_share_amount);\n        emit BoughtBack(_collateral_value, _collateral_amount_sell, out_share_amount);\n    }\n\n    // SINGLE POOL STRATEGY\n    // With Treasury v1, we will only utilize collateral from a single pool to do rebalancing\n    function recollateralize(uint256 _share_amount, uint256 _min_collateral_amount) external onlyStrategist notMigrated hasRebalancePool checkRebalanceCooldown {\n        (uint256 _deficit_collateral_value, bool _exceeded) = calcCollateralBalance();\n        require(!_exceeded && _deficit_collateral_value > 0, \"exceeded\");\n        require(_min_collateral_amount <= _deficit_collateral_value, \">deficit\");\n        uint256 _share_balance = IERC20(CNUSD).balanceOf(address(this));\n        require(_share_amount <= _share_balance, \">shareBalance\");\n        uint256 out_collateral_amount = _swap(CNUSD, _share_amount, _min_collateral_amount);\n        uint256 _collateral_balance = IERC20(rebalancing_pool_collateral).balanceOf(address(this));\n        if (_collateral_balance > 0) {\n            IERC20(rebalancing_pool_collateral).safeTransfer(rebalancing_pool, _collateral_balance); // Transfer collateral from Treasury to Pool\n        }\n        uint256 collateral_price = IPool(rebalancing_pool).getCollateralPrice();\n        uint256 out_collateral_value = out_collateral_amount.mul(collateral_price).div(PRICE_PRECISION);\n        emit Recollateralized(_share_amount, out_collateral_amount, out_collateral_value);\n    }\n\n    function allocateSeigniorage() external nonReentrant checkCondition checkEpoch {\n        (uint256 _excess_collateral_value, bool _exceeded) = calcCollateralBalance();\n        uint256 _allocation_value = 0;\n        if (_exceeded) {\n            _allocation_value = _excess_collateral_value.mul(excess_collateral_distributed_ratio).div(RATIO_PRECISION);\n            uint256 collateral_price = IPool(rebalancing_pool).getCollateralPrice();\n            uint256 _allocation_amount = _allocation_value.mul(PRICE_PRECISION).div(collateral_price);\n            IPool(rebalancing_pool).transferCollateralToTreasury(_allocation_amount); // Transfer collateral from pool to treasury\n            IERC20(rebalancing_pool_collateral).safeApprove(foundry, 0);\n            IERC20(rebalancing_pool_collateral).safeApprove(foundry, _allocation_amount);\n            IFoundry(foundry).allocateSeigniorage(_allocation_amount);\n        }\n    }\n\n    function migrate(address _new_treasury) external onlyOwner notMigrated {\n        migrated = true;\n        uint256 _share_balance = IERC20(CNUSD).balanceOf(address(this));\n        if (_share_balance > 0) {\n            IERC20(CNUSD).safeTransfer(_new_treasury, _share_balance);\n        }\n        if (rebalancing_pool_collateral != address(0)) {\n            uint256 _collateral_balance = IERC20(rebalancing_pool_collateral).balanceOf(address(this));\n            if (_collateral_balance > 0) {\n                IERC20(rebalancing_pool_collateral).safeTransfer(_new_treasury, _collateral_balance);\n            }\n        }\n    }\n\n    function setGovTokenValueForDiscount(uint256 _gov_token_value_for_discount) public onlyOwner {\n        gov_token_value_for_discount = _gov_token_value_for_discount;\n    }\n\n    function setRedemptionFee(uint256 _redemption_fee) public onlyOwner {\n        redemption_fee = _redemption_fee;\n    }\n\n    function setMintingFee(uint256 _minting_fee) public onlyOwner {\n        minting_fee = _minting_fee;\n    }\n\n    function setRatioStep(uint256 _ratio_step) public onlyOwner {\n        ratio_step = _ratio_step;\n    }\n\n    function setPriceTarget(uint256 _price_target) public onlyOwner {\n        price_target = _price_target;\n    }\n\n    function setRefreshCooldown(uint256 _refresh_cooldown) public onlyOwner {\n        refresh_cooldown = _refresh_cooldown;\n    }\n\n    function setPriceBand(uint256 _price_band) external onlyOwner {\n        price_band = _price_band;\n    }\n\n    function toggleCollateralRatio() public onlyOwner {\n        collateral_ratio_paused = !collateral_ratio_paused;\n    }\n\n    function toggleEffectiveCollateralRatio() public onlyOwner {\n        using_effective_collateral_ratio = !using_effective_collateral_ratio;\n    }\n\n    function setOracleDollar(address _oracleDollar) public onlyOwner {\n        oracleDollar = _oracleDollar;\n    }\n\n    function setOracleShare(address _oracleShare) public onlyOwner {\n        oracleShare = _oracleShare;\n    }\n\n    function setGovTokenShare(address _oracleGovToken) public onlyOwner {\n        oracleGovToken = _oracleGovToken;\n    }\n\n    function setDollarAddress(address _AGOUSD) public onlyOwner {\n        AGOUSD = _AGOUSD;\n    }\n\n    function setShareAddress(address _CNUSD) public onlyOwner {\n        CNUSD = _CNUSD;\n    }\n\n    function setGovTokenAddress(address _governanceToken) public onlyOwner {\n        governanceToken = _governanceToken;\n    }\n\n    function setStrategist(address _strategist) external onlyOwner {\n        strategist = _strategist;\n    }\n\n    function setUniswapParams(\n        address _uniswap_router,\n        address _uniswap_pair_CNUSD_WMATIC,\n        address _uniswap_pair_WMATIC_USDT\n    ) public onlyOwner {\n        uniswap_router = _uniswap_router;\n        uniswap_pair_SHARE_WMATIC = _uniswap_pair_CNUSD_WMATIC;\n        uniswap_pair_WMATIC_COLLATERALL = _uniswap_pair_WMATIC_USDT;\n    }\n\n    function setRebalancePool(address _rebalance_pool) public onlyOwner {\n        require(pools[_rebalance_pool], \"!pool\");\n        require(IPool(_rebalance_pool).getCollateralToken() != address(0), \"!poolCollateralToken\");\n        rebalancing_pool = _rebalance_pool;\n        rebalancing_pool_collateral = IPool(_rebalance_pool).getCollateralToken();\n    }\n\n    function setRebalanceCooldown(uint256 _rebalance_cooldown) public onlyOwner {\n        rebalance_cooldown = _rebalance_cooldown;\n    }\n\n    function resetStartTime(uint256 _startTime) external onlyOwner {\n        require(_epoch == 0, \"already started\");\n        startTime = _startTime;\n        lastEpochTime = _startTime.sub(8 hours);\n    }\n\n    function setFoundry(address _foundry) public onlyOwner {\n        foundry = _foundry;\n    }\n\n    function setEpochLength(uint256 _epoch_length) public onlyOwner {\n        epoch_length = _epoch_length;\n    }\n\n    function setExcessDistributionRatio(uint256 _excess_collateral_distributed_ratio) public onlyStrategistOrOwner {\n        excess_collateral_distributed_ratio = _excess_collateral_distributed_ratio;\n    }\n\n    /* ========== EMERGENCY ========== */\n\n    function executeTransaction(\n        address target,\n        uint256 value,\n        string memory signature,\n        bytes memory data\n    ) public onlyOwner returns (bytes memory) {\n        bytes memory callData;\n\n        if (bytes(signature).length == 0) {\n            callData = data;\n        } else {\n            callData = abi.encodePacked(bytes4(keccak256(bytes(signature))), data);\n        }\n\n        // solium-disable-next-line security/no-call-value\n        \n        (bool success, bytes memory returnData) = target.call{value: value}(callData);\n        require(success, string(\"Treasury::executeTransaction: Transaction execution reverted.\"));\n        emit TransactionExecuted(target, value, signature, data);\n        return returnData;\n    }\n\n    receive() external payable {}\n}\n",
  "sourcePath": "/home/kali/Documents/project_AGO/contracts/Treasury.sol",
  "compiler": {
    "name": "solc",
    "version": "0.8.4+commit.c7e474f2.Emscripten.clang"
  },
  "schemaVersion": "3.3.4",
  "updatedAt": "2021-06-23T02:20:50.872Z",
  "devdoc": {
    "kind": "dev",
    "methods": {},
    "version": 1
  },
  "userdoc": {
    "kind": "user",
    "methods": {},
    "version": 1
  }
}