{
  "contractName": "Treasury",
  "abi": [
    {
      "inputs": [
        {
          "internalType": "uint256",
          "name": "_startTime",
          "type": "uint256"
        },
        {
          "internalType": "uint256",
          "name": "_epoch_length",
          "type": "uint256"
        }
      ],
      "stateMutability": "nonpayable",
      "type": "constructor"
    },
    {
      "anonymous": false,
      "inputs": [
        {
          "indexed": false,
          "internalType": "uint256",
          "name": "collateral_value",
          "type": "uint256"
        },
        {
          "indexed": false,
          "internalType": "uint256",
          "name": "collateral_amount",
          "type": "uint256"
        },
        {
          "indexed": false,
          "internalType": "uint256",
          "name": "output_share_amount",
          "type": "uint256"
        }
      ],
      "name": "BoughtBack",
      "type": "event"
    },
    {
      "anonymous": false,
      "inputs": [
        {
          "indexed": true,
          "internalType": "address",
          "name": "previousOwner",
          "type": "address"
        },
        {
          "indexed": true,
          "internalType": "address",
          "name": "newOwner",
          "type": "address"
        }
      ],
      "name": "OwnershipTransferred",
      "type": "event"
    },
    {
      "anonymous": false,
      "inputs": [
        {
          "indexed": false,
          "internalType": "uint256",
          "name": "share_amount",
          "type": "uint256"
        },
        {
          "indexed": false,
          "internalType": "uint256",
          "name": "output_collateral_amount",
          "type": "uint256"
        },
        {
          "indexed": false,
          "internalType": "uint256",
          "name": "output_collateral_value",
          "type": "uint256"
        }
      ],
      "name": "Recollateralized",
      "type": "event"
    },
    {
      "anonymous": false,
      "inputs": [
        {
          "indexed": true,
          "internalType": "address",
          "name": "target",
          "type": "address"
        },
        {
          "indexed": false,
          "internalType": "uint256",
          "name": "value",
          "type": "uint256"
        },
        {
          "indexed": false,
          "internalType": "string",
          "name": "signature",
          "type": "string"
        },
        {
          "indexed": false,
          "internalType": "bytes",
          "name": "data",
          "type": "bytes"
        }
      ],
      "name": "TransactionExecuted",
      "type": "event"
    },
    {
      "inputs": [],
      "name": "collateral",
      "outputs": [
        {
          "internalType": "address",
          "name": "",
          "type": "address"
        }
      ],
      "stateMutability": "view",
      "type": "function",
      "constant": true
    },
    {
      "inputs": [],
      "name": "collateral_ratio_paused",
      "outputs": [
        {
          "internalType": "bool",
          "name": "",
          "type": "bool"
        }
      ],
      "stateMutability": "view",
      "type": "function",
      "constant": true
    },
    {
      "inputs": [],
      "name": "dollar",
      "outputs": [
        {
          "internalType": "address",
          "name": "",
          "type": "address"
        }
      ],
      "stateMutability": "view",
      "type": "function",
      "constant": true
    },
    {
      "inputs": [],
      "name": "effective_collateral_ratio",
      "outputs": [
        {
          "internalType": "uint256",
          "name": "",
          "type": "uint256"
        }
      ],
      "stateMutability": "view",
      "type": "function",
      "constant": true
    },
    {
      "inputs": [],
      "name": "epoch_length",
      "outputs": [
        {
          "internalType": "uint256",
          "name": "",
          "type": "uint256"
        }
      ],
      "stateMutability": "view",
      "type": "function",
      "constant": true
    },
    {
      "inputs": [],
      "name": "excess_collateral_distributed_ratio",
      "outputs": [
        {
          "internalType": "uint256",
          "name": "",
          "type": "uint256"
        }
      ],
      "stateMutability": "view",
      "type": "function",
      "constant": true
    },
    {
      "inputs": [],
      "name": "foundry",
      "outputs": [
        {
          "internalType": "address",
          "name": "",
          "type": "address"
        }
      ],
      "stateMutability": "view",
      "type": "function",
      "constant": true
    },
    {
      "inputs": [],
      "name": "gov_token_value_for_discount",
      "outputs": [
        {
          "internalType": "uint256",
          "name": "",
          "type": "uint256"
        }
      ],
      "stateMutability": "view",
      "type": "function",
      "constant": true
    },
    {
      "inputs": [],
      "name": "governanceToken",
      "outputs": [
        {
          "internalType": "address",
          "name": "",
          "type": "address"
        }
      ],
      "stateMutability": "view",
      "type": "function",
      "constant": true
    },
    {
      "inputs": [],
      "name": "lastEpochTime",
      "outputs": [
        {
          "internalType": "uint256",
          "name": "",
          "type": "uint256"
        }
      ],
      "stateMutability": "view",
      "type": "function",
      "constant": true
    },
    {
      "inputs": [],
      "name": "last_rebalance_timestamp",
      "outputs": [
        {
          "internalType": "uint256",
          "name": "",
          "type": "uint256"
        }
      ],
      "stateMutability": "view",
      "type": "function",
      "constant": true
    },
    {
      "inputs": [],
      "name": "last_refresh_cr_timestamp",
      "outputs": [
        {
          "internalType": "uint256",
          "name": "",
          "type": "uint256"
        }
      ],
      "stateMutability": "view",
      "type": "function",
      "constant": true
    },
    {
      "inputs": [],
      "name": "migrated",
      "outputs": [
        {
          "internalType": "bool",
          "name": "",
          "type": "bool"
        }
      ],
      "stateMutability": "view",
      "type": "function",
      "constant": true
    },
    {
      "inputs": [],
      "name": "minting_fee",
      "outputs": [
        {
          "internalType": "uint256",
          "name": "",
          "type": "uint256"
        }
      ],
      "stateMutability": "view",
      "type": "function",
      "constant": true
    },
    {
      "inputs": [],
      "name": "oracleDollar",
      "outputs": [
        {
          "internalType": "address",
          "name": "",
          "type": "address"
        }
      ],
      "stateMutability": "view",
      "type": "function",
      "constant": true
    },
    {
      "inputs": [],
      "name": "oracleGovToken",
      "outputs": [
        {
          "internalType": "address",
          "name": "",
          "type": "address"
        }
      ],
      "stateMutability": "view",
      "type": "function",
      "constant": true
    },
    {
      "inputs": [],
      "name": "oracleShare",
      "outputs": [
        {
          "internalType": "address",
          "name": "",
          "type": "address"
        }
      ],
      "stateMutability": "view",
      "type": "function",
      "constant": true
    },
    {
      "inputs": [],
      "name": "owner",
      "outputs": [
        {
          "internalType": "address",
          "name": "",
          "type": "address"
        }
      ],
      "stateMutability": "view",
      "type": "function",
      "constant": true
    },
    {
      "inputs": [
        {
          "internalType": "address",
          "name": "",
          "type": "address"
        }
      ],
      "name": "pools",
      "outputs": [
        {
          "internalType": "bool",
          "name": "",
          "type": "bool"
        }
      ],
      "stateMutability": "view",
      "type": "function",
      "constant": true
    },
    {
      "inputs": [
        {
          "internalType": "uint256",
          "name": "",
          "type": "uint256"
        }
      ],
      "name": "pools_array",
      "outputs": [
        {
          "internalType": "address",
          "name": "",
          "type": "address"
        }
      ],
      "stateMutability": "view",
      "type": "function",
      "constant": true
    },
    {
      "inputs": [],
      "name": "price_band",
      "outputs": [
        {
          "internalType": "uint256",
          "name": "",
          "type": "uint256"
        }
      ],
      "stateMutability": "view",
      "type": "function",
      "constant": true
    },
    {
      "inputs": [],
      "name": "price_target",
      "outputs": [
        {
          "internalType": "uint256",
          "name": "",
          "type": "uint256"
        }
      ],
      "stateMutability": "view",
      "type": "function",
      "constant": true
    },
    {
      "inputs": [],
      "name": "ratio_step",
      "outputs": [
        {
          "internalType": "uint256",
          "name": "",
          "type": "uint256"
        }
      ],
      "stateMutability": "view",
      "type": "function",
      "constant": true
    },
    {
      "inputs": [],
      "name": "rebalance_cooldown",
      "outputs": [
        {
          "internalType": "uint256",
          "name": "",
          "type": "uint256"
        }
      ],
      "stateMutability": "view",
      "type": "function",
      "constant": true
    },
    {
      "inputs": [],
      "name": "rebalancing_pool",
      "outputs": [
        {
          "internalType": "address",
          "name": "",
          "type": "address"
        }
      ],
      "stateMutability": "view",
      "type": "function",
      "constant": true
    },
    {
      "inputs": [],
      "name": "rebalancing_pool_collateral",
      "outputs": [
        {
          "internalType": "address",
          "name": "",
          "type": "address"
        }
      ],
      "stateMutability": "view",
      "type": "function",
      "constant": true
    },
    {
      "inputs": [],
      "name": "redemption_fee",
      "outputs": [
        {
          "internalType": "uint256",
          "name": "",
          "type": "uint256"
        }
      ],
      "stateMutability": "view",
      "type": "function",
      "constant": true
    },
    {
      "inputs": [],
      "name": "refresh_cooldown",
      "outputs": [
        {
          "internalType": "uint256",
          "name": "",
          "type": "uint256"
        }
      ],
      "stateMutability": "view",
      "type": "function",
      "constant": true
    },
    {
      "inputs": [],
      "name": "renounceOwnership",
      "outputs": [],
      "stateMutability": "nonpayable",
      "type": "function"
    },
    {
      "inputs": [],
      "name": "share",
      "outputs": [
        {
          "internalType": "address",
          "name": "",
          "type": "address"
        }
      ],
      "stateMutability": "view",
      "type": "function",
      "constant": true
    },
    {
      "inputs": [],
      "name": "startTime",
      "outputs": [
        {
          "internalType": "uint256",
          "name": "",
          "type": "uint256"
        }
      ],
      "stateMutability": "view",
      "type": "function",
      "constant": true
    },
    {
      "inputs": [],
      "name": "strategist",
      "outputs": [
        {
          "internalType": "address",
          "name": "",
          "type": "address"
        }
      ],
      "stateMutability": "view",
      "type": "function",
      "constant": true
    },
    {
      "inputs": [],
      "name": "target_collateral_ratio",
      "outputs": [
        {
          "internalType": "uint256",
          "name": "",
          "type": "uint256"
        }
      ],
      "stateMutability": "view",
      "type": "function",
      "constant": true
    },
    {
      "inputs": [
        {
          "internalType": "address",
          "name": "newOwner",
          "type": "address"
        }
      ],
      "name": "transferOwnership",
      "outputs": [],
      "stateMutability": "nonpayable",
      "type": "function"
    },
    {
      "inputs": [],
      "name": "uniswap_router",
      "outputs": [
        {
          "internalType": "address",
          "name": "",
          "type": "address"
        }
      ],
      "stateMutability": "view",
      "type": "function",
      "constant": true
    },
    {
      "inputs": [],
      "name": "wcoin",
      "outputs": [
        {
          "internalType": "address",
          "name": "",
          "type": "address"
        }
      ],
      "stateMutability": "view",
      "type": "function",
      "constant": true
    },
    {
      "stateMutability": "payable",
      "type": "receive",
      "payable": true
    },
    {
      "inputs": [],
      "name": "dollarPrice",
      "outputs": [
        {
          "internalType": "uint256",
          "name": "",
          "type": "uint256"
        }
      ],
      "stateMutability": "view",
      "type": "function",
      "constant": true
    },
    {
      "inputs": [],
      "name": "sharePrice",
      "outputs": [
        {
          "internalType": "uint256",
          "name": "",
          "type": "uint256"
        }
      ],
      "stateMutability": "view",
      "type": "function",
      "constant": true
    },
    {
      "inputs": [],
      "name": "gov_token_price",
      "outputs": [
        {
          "internalType": "uint256",
          "name": "",
          "type": "uint256"
        }
      ],
      "stateMutability": "view",
      "type": "function",
      "constant": true
    },
    {
      "inputs": [
        {
          "internalType": "address",
          "name": "_address",
          "type": "address"
        }
      ],
      "name": "hasPool",
      "outputs": [
        {
          "internalType": "bool",
          "name": "",
          "type": "bool"
        }
      ],
      "stateMutability": "view",
      "type": "function",
      "constant": true
    },
    {
      "inputs": [],
      "name": "nextEpochPoint",
      "outputs": [
        {
          "internalType": "uint256",
          "name": "",
          "type": "uint256"
        }
      ],
      "stateMutability": "view",
      "type": "function",
      "constant": true
    },
    {
      "inputs": [],
      "name": "epoch",
      "outputs": [
        {
          "internalType": "uint256",
          "name": "",
          "type": "uint256"
        }
      ],
      "stateMutability": "view",
      "type": "function",
      "constant": true
    },
    {
      "inputs": [],
      "name": "redemption_fee_adjusted",
      "outputs": [
        {
          "internalType": "uint256",
          "name": "redemptionFee",
          "type": "uint256"
        }
      ],
      "stateMutability": "view",
      "type": "function",
      "constant": true
    },
    {
      "inputs": [],
      "name": "discount_requirenment",
      "outputs": [
        {
          "internalType": "uint256",
          "name": "",
          "type": "uint256"
        }
      ],
      "stateMutability": "view",
      "type": "function",
      "constant": true
    },
    {
      "inputs": [],
      "name": "info",
      "outputs": [
        {
          "internalType": "uint256",
          "name": "",
          "type": "uint256"
        },
        {
          "internalType": "uint256",
          "name": "",
          "type": "uint256"
        },
        {
          "internalType": "uint256",
          "name": "",
          "type": "uint256"
        },
        {
          "internalType": "uint256",
          "name": "",
          "type": "uint256"
        },
        {
          "internalType": "uint256",
          "name": "",
          "type": "uint256"
        },
        {
          "internalType": "uint256",
          "name": "",
          "type": "uint256"
        },
        {
          "internalType": "uint256",
          "name": "",
          "type": "uint256"
        },
        {
          "internalType": "uint256",
          "name": "",
          "type": "uint256"
        }
      ],
      "stateMutability": "view",
      "type": "function",
      "constant": true
    },
    {
      "inputs": [],
      "name": "epochInfo",
      "outputs": [
        {
          "internalType": "uint256",
          "name": "",
          "type": "uint256"
        },
        {
          "internalType": "uint256",
          "name": "",
          "type": "uint256"
        },
        {
          "internalType": "uint256",
          "name": "",
          "type": "uint256"
        },
        {
          "internalType": "uint256",
          "name": "",
          "type": "uint256"
        }
      ],
      "stateMutability": "view",
      "type": "function",
      "constant": true
    },
    {
      "inputs": [],
      "name": "globalCollateralValue",
      "outputs": [
        {
          "internalType": "uint256",
          "name": "",
          "type": "uint256"
        }
      ],
      "stateMutability": "view",
      "type": "function",
      "constant": true
    },
    {
      "inputs": [],
      "name": "calcEffectiveCollateralRatio",
      "outputs": [
        {
          "internalType": "uint256",
          "name": "",
          "type": "uint256"
        }
      ],
      "stateMutability": "view",
      "type": "function",
      "constant": true
    },
    {
      "inputs": [],
      "name": "refreshCollateralRatio",
      "outputs": [],
      "stateMutability": "nonpayable",
      "type": "function"
    },
    {
      "inputs": [],
      "name": "calcCollateralBalance",
      "outputs": [
        {
          "internalType": "uint256",
          "name": "_collateral_value",
          "type": "uint256"
        },
        {
          "internalType": "bool",
          "name": "_exceeded",
          "type": "bool"
        }
      ],
      "stateMutability": "view",
      "type": "function",
      "constant": true
    },
    {
      "inputs": [
        {
          "internalType": "address",
          "name": "pool_address",
          "type": "address"
        }
      ],
      "name": "addPool",
      "outputs": [],
      "stateMutability": "nonpayable",
      "type": "function"
    },
    {
      "inputs": [
        {
          "internalType": "address",
          "name": "pool_address",
          "type": "address"
        }
      ],
      "name": "removePool",
      "outputs": [],
      "stateMutability": "nonpayable",
      "type": "function"
    },
    {
      "inputs": [
        {
          "internalType": "uint256",
          "name": "_collateral_value",
          "type": "uint256"
        },
        {
          "internalType": "uint256",
          "name": "_min_share_amount",
          "type": "uint256"
        }
      ],
      "name": "buyback",
      "outputs": [],
      "stateMutability": "nonpayable",
      "type": "function"
    },
    {
      "inputs": [
        {
          "internalType": "uint256",
          "name": "_share_amount",
          "type": "uint256"
        },
        {
          "internalType": "uint256",
          "name": "_min_collateral_amount",
          "type": "uint256"
        }
      ],
      "name": "recollateralize",
      "outputs": [],
      "stateMutability": "nonpayable",
      "type": "function"
    },
    {
      "inputs": [],
      "name": "allocateSeigniorage",
      "outputs": [],
      "stateMutability": "nonpayable",
      "type": "function"
    },
    {
      "inputs": [
        {
          "internalType": "address",
          "name": "_new_treasury",
          "type": "address"
        }
      ],
      "name": "migrate",
      "outputs": [],
      "stateMutability": "nonpayable",
      "type": "function"
    },
    {
      "inputs": [
        {
          "internalType": "uint256",
          "name": "value",
          "type": "uint256"
        }
      ],
      "name": "setGovTokenValueForDiscount",
      "outputs": [],
      "stateMutability": "nonpayable",
      "type": "function"
    },
    {
      "inputs": [
        {
          "internalType": "uint256",
          "name": "_redemption_fee",
          "type": "uint256"
        }
      ],
      "name": "setRedemptionFee",
      "outputs": [],
      "stateMutability": "nonpayable",
      "type": "function"
    },
    {
      "inputs": [
        {
          "internalType": "uint256",
          "name": "_minting_fee",
          "type": "uint256"
        }
      ],
      "name": "setMintingFee",
      "outputs": [],
      "stateMutability": "nonpayable",
      "type": "function"
    },
    {
      "inputs": [
        {
          "internalType": "uint256",
          "name": "_ratio_step",
          "type": "uint256"
        }
      ],
      "name": "setRatioStep",
      "outputs": [],
      "stateMutability": "nonpayable",
      "type": "function"
    },
    {
      "inputs": [
        {
          "internalType": "uint256",
          "name": "_price_target",
          "type": "uint256"
        }
      ],
      "name": "setPriceTarget",
      "outputs": [],
      "stateMutability": "nonpayable",
      "type": "function"
    },
    {
      "inputs": [
        {
          "internalType": "uint256",
          "name": "_refresh_cooldown",
          "type": "uint256"
        }
      ],
      "name": "setRefreshCooldown",
      "outputs": [],
      "stateMutability": "nonpayable",
      "type": "function"
    },
    {
      "inputs": [
        {
          "internalType": "uint256",
          "name": "_price_band",
          "type": "uint256"
        }
      ],
      "name": "setPriceBand",
      "outputs": [],
      "stateMutability": "nonpayable",
      "type": "function"
    },
    {
      "inputs": [],
      "name": "toggleCollateralRatio",
      "outputs": [],
      "stateMutability": "nonpayable",
      "type": "function"
    },
    {
      "inputs": [
        {
          "internalType": "address",
          "name": "_oracle",
          "type": "address"
        }
      ],
      "name": "setOracleDollar",
      "outputs": [],
      "stateMutability": "nonpayable",
      "type": "function"
    },
    {
      "inputs": [
        {
          "internalType": "address",
          "name": "_oracle",
          "type": "address"
        }
      ],
      "name": "setOracleShare",
      "outputs": [],
      "stateMutability": "nonpayable",
      "type": "function"
    },
    {
      "inputs": [
        {
          "internalType": "address",
          "name": "_oracle",
          "type": "address"
        }
      ],
      "name": "setOracleGovToken",
      "outputs": [],
      "stateMutability": "nonpayable",
      "type": "function"
    },
    {
      "inputs": [
        {
          "internalType": "address",
          "name": "_strategist",
          "type": "address"
        }
      ],
      "name": "setStrategist",
      "outputs": [],
      "stateMutability": "nonpayable",
      "type": "function"
    },
    {
      "inputs": [
        {
          "internalType": "address",
          "name": "_foundry",
          "type": "address"
        }
      ],
      "name": "setFoundry",
      "outputs": [],
      "stateMutability": "nonpayable",
      "type": "function"
    },
    {
      "inputs": [
        {
          "internalType": "uint256",
          "name": "_epoch_length",
          "type": "uint256"
        }
      ],
      "name": "setEpochLength",
      "outputs": [],
      "stateMutability": "nonpayable",
      "type": "function"
    },
    {
      "inputs": [
        {
          "internalType": "uint256",
          "name": "cooldown",
          "type": "uint256"
        }
      ],
      "name": "setRebalanceCooldown",
      "outputs": [],
      "stateMutability": "nonpayable",
      "type": "function"
    },
    {
      "inputs": [
        {
          "internalType": "uint256",
          "name": "ratio",
          "type": "uint256"
        }
      ],
      "name": "setExcessDistributionRatio",
      "outputs": [],
      "stateMutability": "nonpayable",
      "type": "function"
    },
    {
      "inputs": [],
      "name": "updateOracles",
      "outputs": [],
      "stateMutability": "nonpayable",
      "type": "function"
    },
    {
      "inputs": [
        {
          "internalType": "address",
          "name": "_uniswap_router",
          "type": "address"
        },
        {
          "internalType": "address",
          "name": "_governanceToken",
          "type": "address"
        },
        {
          "internalType": "address",
          "name": "_wcoin",
          "type": "address"
        },
        {
          "internalType": "address",
          "name": "_collateral",
          "type": "address"
        },
        {
          "internalType": "address",
          "name": "_share",
          "type": "address"
        },
        {
          "internalType": "address",
          "name": "_dollar",
          "type": "address"
        }
      ],
      "name": "installTokens",
      "outputs": [],
      "stateMutability": "nonpayable",
      "type": "function"
    },
    {
      "inputs": [
        {
          "internalType": "address",
          "name": "_rebalance_pool",
          "type": "address"
        }
      ],
      "name": "setRebalancePool",
      "outputs": [],
      "stateMutability": "nonpayable",
      "type": "function"
    },
    {
      "inputs": [
        {
          "internalType": "uint256",
          "name": "_startTime",
          "type": "uint256"
        }
      ],
      "name": "resetStartTime",
      "outputs": [],
      "stateMutability": "nonpayable",
      "type": "function"
    }
  ],
  "bytecode": "0x6080604052600a805460ff60a01b19169055610fa0600d55610bb8600e55620f4240601081905560118190556102586012556109c46013556014556113886015556103e86016556017805460ff1916600117905561a8c060195561c350601e5560006021553480156200007157600080fd5b50604051620043ce380380620043ce833981016040819052620000949162000175565b6200009f3362000125565b6001805542821015620001035760405162461bcd60e51b815260206004820152602260248201527f53746172742074696d6520696e697469616c697a656420746f207468652070616044820152611cdd60f21b606482015260840160405180910390fd5b601c829055602081905562000119818362000199565b601f5550620001bd9050565b600080546001600160a01b038381166001600160a01b0319831681178455604051919092169283917f8be0079c531659141344cd1fd0a4f28419497f9722a3daafe3b4186f6b6457e09190a35050565b6000806040838503121562000188578182fd5b505080516020909101519092909150565b600082821015620001b857634e487b7160e01b81526011600452602481fd5b500390565b61420180620001cd6000396000f3fe60806040526004361061044b5760003560e01c806378e9792511610234578063af83136e1161012e578063ce5494bb116100b6578063e0a155941161007a578063e0a1559414610cbf578063e3ac1ea214610cdf578063e708b4ae14610cff578063f2fde38b14610d15578063f96dae0a14610d3557600080fd5b8063ce5494bb14610c2a578063d2d97b0614610c4a578063d74d1a0e14610c5f578063d8dfeb4514610c7f578063d914cd4b14610c9f57600080fd5b8063c08f076e116100fd578063c08f076e14610ba9578063c3355b8d14610bc9578063c5967c2614610bdf578063c7b9d53014610bf4578063cb73999f14610c1457600080fd5b8063af83136e14610b48578063b16ce46014610b5e578063bef40ec814610b7e578063c03f7be314610b9357600080fd5b80638ea709f3116101bc578063a445c44511610180578063a445c44514610abd578063a5d7abac14610ad2578063a8d5fd6514610af2578063ac4f843e14610b12578063af2d373914610b2857600080fd5b80638ea709f314610a2e578063900cf0cf14610a435780639052be6114610a5857806392c799f514610a78578063a4063dbc14610a8d57600080fd5b8063872697291161020357806387269729146109a657806387a140c3146109bb578063894ba4b9146109d557806389c614b8146109fa5780638da5cb5b14610a1057600080fd5b806378e97925146109305780637cd27ca6146109465780637dbc1df01461096657806381ca52cf1461098657600080fd5b80632f64fb8e116103455780634231bfe1116102cd5780635b756179116102915780635b756179146108b0578063600422b3146108c55780636140133b146108e55780636ae7448814610905578063715018a61461091b57600080fd5b80634231bfe114610824578063460ddf8d1461083a57806351adeb571461085a57806353ed67fe1461087a57806354eea7961461089057600080fd5b80633b7d0946116103145780633b7d0946146107a45780634006311b146107c45780634013124a146107da578063408ab10f146107ef57806340d7b7b81461080f57600080fd5b80632f64fb8e146106ff578063350d0a181461071f578063357a8c091461073f578063370158ea1461075457600080fd5b80631a1f1934116103d3578063238a470911610397578063238a4709146106725780632853fb101461069257806328596aba146106a85780632c678c64146106c85780632cb4f63e146106e957600080fd5b80631a1f1934146105bd5780631c5df1e5146105e75780631f1b8a8c146106075780631fe4a6861461063c5780631ff41bfa1461065c57600080fd5b80630ca687dc1161041a5780630ca687dc146104d75780630eef424d146104f75780631189ebea146105175780631246dbf51461054f578063186d9b2e1461059d57600080fd5b806303539f4a146104575780630375da591461048057806303c6cb1b146104a257806304f714c4146104b757600080fd5b3661045257005b600080fd5b34801561046357600080fd5b5061046d60165481565b6040519081526020015b60405180910390f35b34801561048c57600080fd5b506104a061049b366004613cc7565b610d55565b005b3480156104ae57600080fd5b5061046d610daa565b3480156104c357600080fd5b506104a06104d2366004613e60565b610e7e565b3480156104e357600080fd5b506104a06104f2366004613cc7565b610ead565b34801561050357600080fd5b506104a0610512366004613cc7565b610ef9565b34801561052357600080fd5b50610537610532366004613e60565b6110f8565b6040516001600160a01b039091168152602001610477565b34801561055b57600080fd5b5061058d61056a366004613cc7565b6001600160a01b03166000908152600c602052604090205460ff16151560011490565b6040519015158152602001610477565b3480156105a957600080fd5b506104a06105b8366004613e60565b611122565b3480156105c957600080fd5b506105d2611151565b60408051928352901515602083015201610477565b3480156105f357600080fd5b506104a0610602366004613e60565b611238565b34801561061357600080fd5b5061061c611267565b604080519485526020850193909352918301526060820152608001610477565b34801561064857600080fd5b50600a54610537906001600160a01b031681565b34801561066857600080fd5b5061046d601e5481565b34801561067e57600080fd5b506104a061068d366004613e60565b611292565b34801561069e57600080fd5b5061046d60155481565b3480156106b457600080fd5b506104a06106c3366004613cc7565b6112c1565b3480156106d457600080fd5b50600a5461058d90600160a01b900460ff1681565b3480156106f557600080fd5b5061046d60145481565b34801561070b57600080fd5b50601854610537906001600160a01b031681565b34801561072b57600080fd5b50600454610537906001600160a01b031681565b34801561074b57600080fd5b5061046d61130d565b34801561076057600080fd5b5061076961139a565b604080519889526020890197909752958701949094526060860192909252608085015260a084015260c083015260e082015261010001610477565b3480156107b057600080fd5b506104a06107bf366004613cc7565b61146d565b3480156107d057600080fd5b5061046d60105481565b3480156107e657600080fd5b506104a0611661565b3480156107fb57600080fd5b506104a061080a366004613e60565b611943565b34801561081b57600080fd5b5061046d611972565b34801561083057600080fd5b5061046d60205481565b34801561084657600080fd5b506104a0610855366004613e90565b6119b7565b34801561086657600080fd5b50600554610537906001600160a01b031681565b34801561088657600080fd5b5061046d601a5481565b34801561089c57600080fd5b506104a06108ab366004613e60565b611f5c565b3480156108bc57600080fd5b506104a0611f8b565b3480156108d157600080fd5b50600854610537906001600160a01b031681565b3480156108f157600080fd5b506104a0610900366004613e60565b612464565b34801561091157600080fd5b5061046d600f5481565b34801561092757600080fd5b506104a0612493565b34801561093c57600080fd5b5061046d601c5481565b34801561095257600080fd5b50601d54610537906001600160a01b031681565b34801561097257600080fd5b506104a0610981366004613e60565b6124c9565b34801561099257600080fd5b506104a06109a1366004613e60565b6124f8565b3480156109b257600080fd5b5061046d612527565b3480156109c757600080fd5b5060175461058d9060ff1681565b3480156109e157600080fd5b506017546105379061010090046001600160a01b031681565b348015610a0657600080fd5b5061046d601f5481565b348015610a1c57600080fd5b506000546001600160a01b0316610537565b348015610a3a57600080fd5b506104a061256c565b348015610a4f57600080fd5b5060215461046d565b348015610a6457600080fd5b50601b54610537906001600160a01b031681565b348015610a8457600080fd5b5061046d6126ce565b348015610a9957600080fd5b5061058d610aa8366004613cc7565b600c6020526000908152604090205460ff1681565b348015610ac957600080fd5b5061046d612787565b348015610ade57600080fd5b506104a0610aed366004613e60565b612858565b348015610afe57600080fd5b50600654610537906001600160a01b031681565b348015610b1e57600080fd5b5061046d60135481565b348015610b3457600080fd5b506104a0610b43366004613e90565b612887565b348015610b5457600080fd5b5061046d60115481565b348015610b6a57600080fd5b50600254610537906001600160a01b031681565b348015610b8a57600080fd5b506104a0612e47565b348015610b9f57600080fd5b5061046d60125481565b348015610bb557600080fd5b506104a0610bc4366004613e60565b612e85565b348015610bd557600080fd5b5061046d600e5481565b348015610beb57600080fd5b5061046d612f08565b348015610c0057600080fd5b506104a0610c0f366004613cc7565b612f1a565b348015610c2057600080fd5b5061046d600d5481565b348015610c3657600080fd5b506104a0610c45366004613cc7565b612f66565b348015610c5657600080fd5b5061046d613119565b348015610c6b57600080fd5b50600354610537906001600160a01b031681565b348015610c8b57600080fd5b50600954610537906001600160a01b031681565b348015610cab57600080fd5b506104a0610cba366004613cc7565b613235565b348015610ccb57600080fd5b506104a0610cda366004613cff565b613346565b348015610ceb57600080fd5b506104a0610cfa366004613cc7565b6133df565b348015610d0b57600080fd5b5061046d60195481565b348015610d2157600080fd5b506104a0610d30366004613cc7565b61342b565b348015610d4157600080fd5b50600754610537906001600160a01b031681565b6000546001600160a01b03163314610d885760405162461bcd60e51b8152600401610d7f90613f43565b60405180910390fd5b601d80546001600160a01b0319166001600160a01b0392909216919091179055565b600080610db561130d565b905080610dc457600191505090565b6007546040805163313ce56760e01b815290516000926001600160a01b03169163313ce567916004808301926020929190829003018186803b158015610e0957600080fd5b505afa158015610e1d573d6000803e3d6000fd5b505050506040513d601f19601f82011682018060405250810190610e419190613eb1565b60ff16905081610e5282600a614063565b620f4240601654610e63919061410d565b610e6d919061410d565b610e779190614000565b9250505090565b6000546001600160a01b03163314610ea85760405162461bcd60e51b8152600401610d7f90613f43565b601655565b6000546001600160a01b03163314610ed75760405162461bcd60e51b8152600401610d7f90613f43565b600280546001600160a01b0319166001600160a01b0392909216919091179055565b6000546001600160a01b03163314610f235760405162461bcd60e51b8152600401610d7f90613f43565b6001600160a01b0381166000908152600c602052604090205460ff16610f735760405162461bcd60e51b8152602060048201526005602482015264085c1bdbdb60da1b6044820152606401610d7f565b60006001600160a01b0316816001600160a01b031663964236636040518163ffffffff1660e01b815260040160206040518083038186803b158015610fb757600080fd5b505afa158015610fcb573d6000803e3d6000fd5b505050506040513d601f19601f82011682018060405250810190610fef9190613ce3565b6001600160a01b0316141561103d5760405162461bcd60e51b815260206004820152601460248201527310b837b7b621b7b63630ba32b930b62a37b5b2b760611b6044820152606401610d7f565b80601760016101000a8154816001600160a01b0302191690836001600160a01b03160217905550806001600160a01b031663964236636040518163ffffffff1660e01b815260040160206040518083038186803b15801561109d57600080fd5b505afa1580156110b1573d6000803e3d6000fd5b505050506040513d601f19601f820116820180604052508101906110d59190613ce3565b601880546001600160a01b0319166001600160a01b039290921691909117905550565b600b818154811061110857600080fd5b6000918252602090912001546001600160a01b0316905081565b6000546001600160a01b0316331461114c5760405162461bcd60e51b8152600401610d7f90613f43565b601355565b600080600061115e613119565b90506000620f4240601054600560009054906101000a90046001600160a01b03166001600160a01b03166318160ddd6040518163ffffffff1660e01b815260040160206040518083038186803b1580156111b757600080fd5b505afa1580156111cb573d6000803e3d6000fd5b505050506040513d601f19601f820116820180604052508101906111ef9190613e78565b6111f9919061410d565b6112039190614000565b905080821061122157611216818361412c565b935060019250611232565b61122b828261412c565b9350600092505b50509091565b6000546001600160a01b031633146112625760405162461bcd60e51b8152600401610d7f90613f43565b601255565b60008060008061127660215490565b61127e612f08565b602054601e54935093509350935090919293565b6000546001600160a01b031633146112bc5760405162461bcd60e51b8152600401610d7f90613f43565b600e55565b6000546001600160a01b031633146112eb5760405162461bcd60e51b8152600401610d7f90613f43565b600380546001600160a01b0319166001600160a01b0392909216919091179055565b6000600460009054906101000a90046001600160a01b03166001600160a01b0316637eeda7036040518163ffffffff1660e01b815260040160206040518083038186803b15801561135d57600080fd5b505afa158015611371573d6000803e3d6000fd5b505050506040513d601f19601f820116820180604052508101906113959190613e78565b905090565b6000806000806000806000806113ae611972565b6113b6612527565b600560009054906101000a90046001600160a01b03166001600160a01b03166318160ddd6040518163ffffffff1660e01b815260040160206040518083038186803b15801561140457600080fd5b505afa158015611418573d6000803e3d6000fd5b505050506040513d601f19601f8201168201806040525081019061143c9190613e78565b60105460115461144a613119565b600e546114556126ce565b969f959e50939c50919a509850965094509092509050565b6000546001600160a01b031633146114975760405162461bcd60e51b8152600401610d7f90613f43565b600a54600160a01b900460ff16156114c15760405162461bcd60e51b8152600401610d7f90613f21565b6017546001600160a01b038281166101009092041614156115305760405162461bcd60e51b815260206004820152602360248201527f43616e7460742064656c6574652061637469766520726562616c616e636520706044820152621bdbdb60ea1b6064820152608401610d7f565b6001600160a01b0381166000908152600c602052604090205460ff1615156001146115855760405162461bcd60e51b8152602060048201526005602482015264085c1bdbdb60da1b6044820152606401610d7f565b6001600160a01b0381166000908152600c60205260408120805460ff191690555b600b5481101561165d57816001600160a01b0316600b82815481106115db57634e487b7160e01b600052603260045260246000fd5b6000918252602090912001546001600160a01b0316141561164b576000600b828154811061161957634e487b7160e01b600052603260045260246000fd5b9060005260206000200160006101000a8154816001600160a01b0302191690836001600160a01b031602179055505050565b806116558161416f565b9150506115a6565b5050565b6002546001600160a01b0316156116db57600260009054906101000a90046001600160a01b03166001600160a01b031663f12fcaed6040518163ffffffff1660e01b8152600401600060405180830381600087803b1580156116c257600080fd5b505af11580156116d6573d6000803e3d6000fd5b505050505b6003546001600160a01b03161561175557600360009054906101000a90046001600160a01b03166001600160a01b031663f12fcaed6040518163ffffffff1660e01b8152600401600060405180830381600087803b15801561173c57600080fd5b505af1158015611750573d6000803e3d6000fd5b505050505b6004546001600160a01b0316156117c257600480546040805163f12fcaed60e01b815290516001600160a01b039092169263f12fcaed92828201926000929082900301818387803b1580156117a957600080fd5b505af11580156117bd573d6000803e3d6000fd5b505050505b60175460ff16156118155760405162461bcd60e51b815260206004820181905260248201527f436f6c6c61746572616c20526174696f20686173206265656e207061757365646044820152606401610d7f565b601254600f54611825904261412c565b10156118915760405162461bcd60e51b815260206004820152603560248201527f4d757374207761697420666f7220746865207265667265736820636f6f6c646f6044820152740eedc40e6d2dcc6ca40d8c2e6e840e4cacce4cae6d605b1b6064820152608401610d7f565b600061189b611972565b90506015546014546118ad9190613fe8565b8111156118e157601354601054116118c9576000601055611931565b6013546010546118d9919061412c565b601055611931565b6015546014546118f1919061412c565b81101561193157620f424060135460105461190c9190613fe8565b1061191d57620f4240601055611931565b60135460105461192d9190613fe8565b6010555b611939612787565b6011555042600f55565b6000546001600160a01b0316331461196d5760405162461bcd60e51b8152600401610d7f90613f43565b601455565b60025460408051637eeda70360e01b815290516000926001600160a01b031691637eeda703916004808301926020929190829003018186803b15801561135d57600080fd5b6000546001600160a01b031633146119e15760405162461bcd60e51b8152600401610d7f90613f43565b6002546001600160a01b031615611a5b57600260009054906101000a90046001600160a01b03166001600160a01b031663f12fcaed6040518163ffffffff1660e01b8152600401600060405180830381600087803b158015611a4257600080fd5b505af1158015611a56573d6000803e3d6000fd5b505050505b6003546001600160a01b031615611ad557600360009054906101000a90046001600160a01b03166001600160a01b031663f12fcaed6040518163ffffffff1660e01b8152600401600060405180830381600087803b158015611abc57600080fd5b505af1158015611ad0573d6000803e3d6000fd5b505050505b6004546001600160a01b031615611b4257600480546040805163f12fcaed60e01b815290516001600160a01b039092169263f12fcaed92828201926000929082900301818387803b158015611b2957600080fd5b505af1158015611b3d573d6000803e3d6000fd5b505050505b600a54600160a01b900460ff1615611b6c5760405162461bcd60e51b8152600401610d7f90613f21565b60175461010090046001600160a01b0316611bbc5760405162461bcd60e51b815260206004820152601060248201526f085c9958985b185b98da5b99d41bdbdb60821b6044820152606401610d7f565b6018546001600160a01b0316611c145760405162461bcd60e51b815260206004820152601a60248201527f21726562616c616e63696e67506f6f6c436f6c6c61746572616c0000000000006044820152606401610d7f565b601954601a54429190611c27908361412c565b1015611c6b5760405162461bcd60e51b81526020600482015260136024820152721e3932b130b630b731b2afb1b7b7b63237bbb760691b6044820152606401610d7f565b600080611c76611151565b91509150808015611c875750600082115b611cbf5760405162461bcd60e51b815260206004820152600960248201526808595e18d95959195960ba1b6044820152606401610d7f565b600085118015611cce57508185105b611d1a5760405162461bcd60e51b815260206004820152601760248201527f696e76616c6964436f6c6c61746572616c416d6f756e740000000000000000006044820152606401610d7f565b6000601760019054906101000a90046001600160a01b03166001600160a01b031663f7683bbc6040518163ffffffff1660e01b815260040160206040518083038186803b158015611d6a57600080fd5b505afa158015611d7e573d6000803e3d6000fd5b505050506040513d601f19601f82011682018060405250810190611da29190613e78565b9050600081611db4620f42408961410d565b611dbe9190614000565b6018546017546040516370a0823160e01b81526001600160a01b036101009092048216600482015292935083929116906370a082319060240160206040518083038186803b158015611e0f57600080fd5b505afa158015611e23573d6000803e3d6000fd5b505050506040513d601f19601f82011682018060405250810190611e479190613e78565b11611e8d5760405162461bcd60e51b8152602060048201526016602482015275696e737566666963656e74506f6f6c42616c616e636560501b6044820152606401610d7f565b601754604051631bc79abb60e11b8152600481018390526101009091046001600160a01b03169063378f357690602401600060405180830381600087803b158015611ed757600080fd5b505af1158015611eeb573d6000803e3d6000fd5b505060185460009250611f0991506001600160a01b031683896134c6565b604080518a8152602081018590529081018290529091507f08a6192ba3cf7155035aa0abade6c318265a34f2950e84eaff743d1231888f959060600160405180910390a1505050601a9290925550505050565b6000546001600160a01b03163314611f865760405162461bcd60e51b8152600401610d7f90613f43565b602055565b6002546001600160a01b03161561200557600260009054906101000a90046001600160a01b03166001600160a01b031663f12fcaed6040518163ffffffff1660e01b8152600401600060405180830381600087803b158015611fec57600080fd5b505af1158015612000573d6000803e3d6000fd5b505050505b6003546001600160a01b03161561207f57600360009054906101000a90046001600160a01b03166001600160a01b031663f12fcaed6040518163ffffffff1660e01b8152600401600060405180830381600087803b15801561206657600080fd5b505af115801561207a573d6000803e3d6000fd5b505050505b6004546001600160a01b0316156120ec57600480546040805163f12fcaed60e01b815290516001600160a01b039092169263f12fcaed92828201926000929082900301818387803b1580156120d357600080fd5b505af11580156120e7573d6000803e3d6000fd5b505050505b600a54600160a01b900460ff16156121165760405162461bcd60e51b8152600401610d7f90613f21565b600260015414156121695760405162461bcd60e51b815260206004820152601f60248201527f5265656e7472616e637947756172643a207265656e7472616e742063616c6c006044820152606401610d7f565b60026001556000612178612f08565b9050804210156121ca5760405162461bcd60e51b815260206004820152601860248201527f54726561737572793a206e6f74206f70656e65642079657400000000000000006044820152606401610d7f565b600a54600160a01b900460ff16156122195760405162461bcd60e51b8152602060048201526012602482015271151c99585cdd5c9e4e881b5a59dc985d195960721b6044820152606401610d7f565b601c5442101561226b5760405162461bcd60e51b815260206004820152601960248201527f54726561737572793a206e6f74207374617274656420796574000000000000006044820152606401610d7f565b600080612276611151565b915091506000811561244457620f4240601e5484612294919061410d565b61229e9190614000565b90506000601760019054906101000a90046001600160a01b03166001600160a01b031663f7683bbc6040518163ffffffff1660e01b815260040160206040518083038186803b1580156122f057600080fd5b505afa158015612304573d6000803e3d6000fd5b505050506040513d601f19601f820116820180604052508101906123289190613e78565b905060008161233a620f42408561410d565b6123449190614000565b601754604051631bc79abb60e11b81526004810183905291925061010090046001600160a01b03169063378f357690602401600060405180830381600087803b15801561239057600080fd5b505af11580156123a4573d6000803e3d6000fd5b5050601d546018546123c693506001600160a01b0390811692501660006138a6565b601d546018546123e3916001600160a01b039182169116836138a6565b601d546040516397ffe1d760e01b8152600481018390526001600160a01b03909116906397ffe1d790602401600060405180830381600087803b15801561242957600080fd5b505af115801561243d573d6000803e3d6000fd5b5050505050505b505050601f81905560215461245a906001613fe8565b6021555060018055565b6000546001600160a01b0316331461248e5760405162461bcd60e51b8152600401610d7f90613f43565b601555565b6000546001600160a01b031633146124bd5760405162461bcd60e51b8152600401610d7f90613f43565b6124c760006139fd565b565b6000546001600160a01b031633146124f35760405162461bcd60e51b8152600401610d7f90613f43565b600d55565b6000546001600160a01b031633146125225760405162461bcd60e51b8152600401610d7f90613f43565b601955565b60035460408051637eeda70360e01b815290516000926001600160a01b031691637eeda703916004808301926020929190829003018186803b15801561135d57600080fd5b6002546001600160a01b0316156125e657600260009054906101000a90046001600160a01b03166001600160a01b031663f12fcaed6040518163ffffffff1660e01b8152600401600060405180830381600087803b1580156125cd57600080fd5b505af11580156125e1573d6000803e3d6000fd5b505050505b6003546001600160a01b03161561266057600360009054906101000a90046001600160a01b03166001600160a01b031663f12fcaed6040518163ffffffff1660e01b8152600401600060405180830381600087803b15801561264757600080fd5b505af115801561265b573d6000803e3d6000fd5b505050505b6004546001600160a01b0316156124c757600480546040805163f12fcaed60e01b815290516001600160a01b039092169263f12fcaed92828201926000929082900301818387803b1580156126b457600080fd5b505af11580156126c8573d6000803e3d6000fd5b50505050565b6007546000906001600160a01b03166126e85750600d5490565b6126f0610daa565b6007546040516370a0823160e01b81523260048201526001600160a01b03909116906370a082319060240160206040518083038186803b15801561273357600080fd5b505afa158015612747573d6000803e3d6000fd5b505050506040513d601f19601f8201168201806040525081019061276b9190613e78565b1115612780576002600d546113959190614000565b50600d5490565b600080612792613119565b90506000600560009054906101000a90046001600160a01b03166001600160a01b03166318160ddd6040518163ffffffff1660e01b815260040160206040518083038186803b1580156127e457600080fd5b505afa1580156127f8573d6000803e3d6000fd5b505050506040513d601f19601f8201168201806040525081019061281c9190613e78565b905060008161282e620f42408561410d565b6128389190614000565b9050620f424081111561285157620f4240935050505090565b9392505050565b6000546001600160a01b031633146128825760405162461bcd60e51b8152600401610d7f90613f43565b601e55565b6000546001600160a01b031633146128b15760405162461bcd60e51b8152600401610d7f90613f43565b6002546001600160a01b03161561292b57600260009054906101000a90046001600160a01b03166001600160a01b031663f12fcaed6040518163ffffffff1660e01b8152600401600060405180830381600087803b15801561291257600080fd5b505af1158015612926573d6000803e3d6000fd5b505050505b6003546001600160a01b0316156129a557600360009054906101000a90046001600160a01b03166001600160a01b031663f12fcaed6040518163ffffffff1660e01b8152600401600060405180830381600087803b15801561298c57600080fd5b505af11580156129a0573d6000803e3d6000fd5b505050505b6004546001600160a01b031615612a1257600480546040805163f12fcaed60e01b815290516001600160a01b039092169263f12fcaed92828201926000929082900301818387803b1580156129f957600080fd5b505af1158015612a0d573d6000803e3d6000fd5b505050505b600a54600160a01b900460ff1615612a3c5760405162461bcd60e51b8152600401610d7f90613f21565b60175461010090046001600160a01b0316612a8c5760405162461bcd60e51b815260206004820152601060248201526f085c9958985b185b98da5b99d41bdbdb60821b6044820152606401610d7f565b6018546001600160a01b0316612ae45760405162461bcd60e51b815260206004820152601a60248201527f21726562616c616e63696e67506f6f6c436f6c6c61746572616c0000000000006044820152606401610d7f565b601954601a54429190612af7908361412c565b1015612b3b5760405162461bcd60e51b81526020600482015260136024820152721e3932b130b630b731b2afb1b7b7b63237bbb760691b6044820152606401610d7f565b600080612b46611151565b9150915080158015612b585750600082115b612b8f5760405162461bcd60e51b8152602060048201526008602482015267195e18d95959195960c21b6044820152606401610d7f565b81841115612bca5760405162461bcd60e51b81526020600482015260086024820152670f9919599a58da5d60c21b6044820152606401610d7f565b6006546040516370a0823160e01b81523060048201526000916001600160a01b0316906370a082319060240160206040518083038186803b158015612c0e57600080fd5b505afa158015612c22573d6000803e3d6000fd5b505050506040513d601f19601f82011682018060405250810190612c469190613e78565b905080861115612c885760405162461bcd60e51b815260206004820152600d60248201526c3e736861726542616c616e636560981b6044820152606401610d7f565b600654600090612ca2906001600160a01b031688886134c6565b6018546040516370a0823160e01b81523060048201529192506000916001600160a01b03909116906370a082319060240160206040518083038186803b158015612ceb57600080fd5b505afa158015612cff573d6000803e3d6000fd5b505050506040513d601f19601f82011682018060405250810190612d239190613e78565b90508015612d4e57601754601854612d4e916001600160a01b03918216916101009091041683613a4d565b6000601760019054906101000a90046001600160a01b03166001600160a01b031663f7683bbc6040518163ffffffff1660e01b815260040160206040518083038186803b158015612d9e57600080fd5b505afa158015612db2573d6000803e3d6000fd5b505050506040513d601f19601f82011682018060405250810190612dd69190613e78565b90506000620f4240612de8838661410d565b612df29190614000565b604080518c8152602081018790529081018290529091507fa2f547fe4fa01671ec43d126d393c239e285ccfc633822b6413c5f474a73c1ac9060600160405180910390a1505050601a94909455505050505050565b6000546001600160a01b03163314612e715760405162461bcd60e51b8152600401610d7f90613f43565b6017805460ff19811660ff90911615179055565b6000546001600160a01b03163314612eaf5760405162461bcd60e51b8152600401610d7f90613f43565b60215415612ef15760405162461bcd60e51b815260206004820152600f60248201526e185b1c9958591e481cdd185c9d1959608a1b6044820152606401610d7f565b601c819055612f026170808261412c565b601f5550565b6000602054601f546113959190613fe8565b6000546001600160a01b03163314612f445760405162461bcd60e51b8152600401610d7f90613f43565b600a80546001600160a01b0319166001600160a01b0392909216919091179055565b6000546001600160a01b03163314612f905760405162461bcd60e51b8152600401610d7f90613f43565b600a54600160a01b900460ff1615612fba5760405162461bcd60e51b8152600401610d7f90613f21565b600a805460ff60a01b1916600160a01b1790556006546040516370a0823160e01b81523060048201526000916001600160a01b0316906370a082319060240160206040518083038186803b15801561301157600080fd5b505afa158015613025573d6000803e3d6000fd5b505050506040513d601f19601f820116820180604052508101906130499190613e78565b9050801561306857600654613068906001600160a01b03168383613a4d565b6018546001600160a01b03161561165d576018546040516370a0823160e01b81523060048201526000916001600160a01b0316906370a082319060240160206040518083038186803b1580156130bd57600080fd5b505afa1580156130d1573d6000803e3d6000fd5b505050506040513d601f19601f820116820180604052508101906130f59190613e78565b9050801561311457601854613114906001600160a01b03168483613a4d565b505050565b600080805b600b5481101561322f5760006001600160a01b0316600b828154811061315457634e487b7160e01b600052603260045260246000fd5b6000918252602090912001546001600160a01b03161461321d57600b818154811061318f57634e487b7160e01b600052603260045260246000fd5b6000918252602091829020015460408051639c84d0f560e01b815290516001600160a01b0390921692639c84d0f592600480840193829003018186803b1580156131d857600080fd5b505afa1580156131ec573d6000803e3d6000fd5b505050506040513d601f19601f820116820180604052508101906132109190613e78565b61321a9083613fe8565b91505b806132278161416f565b91505061311e565b50919050565b6000546001600160a01b0316331461325f5760405162461bcd60e51b8152600401610d7f90613f43565b600a54600160a01b900460ff16156132895760405162461bcd60e51b8152600401610d7f90613f21565b6001600160a01b0381166000908152600c602052604090205460ff16156132e05760405162461bcd60e51b815260206004820152600b60248201526a1c1bdbdb115e1a5cdd195960aa1b6044820152606401610d7f565b6001600160a01b03166000818152600c60205260408120805460ff19166001908117909155600b805491820181559091527f0175b7a638427703f0dbe7bb9bbf987a2551717b34e79f33b5b1008d1fa01db90180546001600160a01b0319169091179055565b6000546001600160a01b031633146133705760405162461bcd60e51b8152600401610d7f90613f43565b601b80546001600160a01b03199081166001600160a01b0398891617909155600780548216968816969096179095556008805486169487169490941790935560098054851692861692909217909155600680548416918516919091179055600580549092169216919091179055565b6000546001600160a01b031633146134095760405162461bcd60e51b8152600401610d7f90613f43565b600480546001600160a01b0319166001600160a01b0392909216919091179055565b6000546001600160a01b031633146134555760405162461bcd60e51b8152600401610d7f90613f43565b6001600160a01b0381166134ba5760405162461bcd60e51b815260206004820152602660248201527f4f776e61626c653a206e6577206f776e657220697320746865207a65726f206160448201526564647265737360d01b6064820152608401610d7f565b6134c3816139fd565b50565b6009546000906001600160a01b03858116911614806134f257506006546001600160a01b038581169116145b80156135085750601b546001600160a01b031615155b801561351e57506006546001600160a01b031615155b801561353457506008546001600160a01b031615155b801561354a57506009546001600160a01b031615155b6135965760405162461bcd60e51b815260206004820152601760248201527f626164546f6b656e5265636569766564466f72537761700000000000000000006044820152606401610d7f565b826135a357506000612851565b6040805160038082526080820190925260009160208201606080368337019050506006549091506001600160a01b03868116911614156136b05760065481516001600160a01b0390911690829060009061360d57634e487b7160e01b600052603260045260246000fd5b6001600160a01b03928316602091820292909201015260085482519116908290600190811061364c57634e487b7160e01b600052603260045260246000fd5b6001600160a01b03928316602091820292909201015260095482519116908290600290811061368b57634e487b7160e01b600052603260045260246000fd5b60200260200101906001600160a01b031690816001600160a01b031681525050613795565b6009546001600160a01b03868116911614156137955760095481516001600160a01b039091169082906000906136f657634e487b7160e01b600052603260045260246000fd5b6001600160a01b03928316602091820292909201015260085482519116908290600190811061373557634e487b7160e01b600052603260045260246000fd5b6001600160a01b03928316602091820292909201015260065482519116908290600290811061377457634e487b7160e01b600052603260045260246000fd5b60200260200101906001600160a01b031690816001600160a01b0316815250505b601b546137b0906001600160a01b03878116911660006138a6565b601b546137ca906001600160a01b038781169116866138a6565b601b546000906001600160a01b03166338ed1739868685306137ee42610708613fe8565b6040518663ffffffff1660e01b815260040161380e959493929190613f78565b600060405180830381600087803b15801561382857600080fd5b505af115801561383c573d6000803e3d6000fd5b505050506040513d6000823e601f3d908101601f191682016040526138649190810190613d80565b90508060018251613875919061412c565b8151811061389357634e487b7160e01b600052603260045260246000fd5b6020026020010151925050509392505050565b80158061392f5750604051636eb1769f60e11b81523060048201526001600160a01b03838116602483015284169063dd62ed3e9060440160206040518083038186803b1580156138f557600080fd5b505afa158015613909573d6000803e3d6000fd5b505050506040513d601f19601f8201168201806040525081019061392d9190613e78565b155b61399a5760405162461bcd60e51b815260206004820152603660248201527f5361666545524332303a20617070726f76652066726f6d206e6f6e2d7a65726f60448201527520746f206e6f6e2d7a65726f20616c6c6f77616e636560501b6064820152608401610d7f565b6040516001600160a01b03831660248201526044810182905261311490849063095ea7b360e01b906064015b60408051601f198184030181529190526020810180516001600160e01b03166001600160e01b031990931692909217909152613a7d565b600080546001600160a01b038381166001600160a01b0319831681178455604051919092169283917f8be0079c531659141344cd1fd0a4f28419497f9722a3daafe3b4186f6b6457e09190a35050565b6040516001600160a01b03831660248201526044810182905261311490849063a9059cbb60e01b906064016139c6565b6000613ad2826040518060400160405280602081526020017f5361666545524332303a206c6f772d6c6576656c2063616c6c206661696c6564815250856001600160a01b0316613b4f9092919063ffffffff16565b8051909150156131145780806020019051810190613af09190613e40565b6131145760405162461bcd60e51b815260206004820152602a60248201527f5361666545524332303a204552433230206f7065726174696f6e20646964206e6044820152691bdd081cdd58d8d9595960b21b6064820152608401610d7f565b6060613b5e8484600085613b66565b949350505050565b606082471015613bc75760405162461bcd60e51b815260206004820152602660248201527f416464726573733a20696e73756666696369656e742062616c616e636520666f6044820152651c8818d85b1b60d21b6064820152608401610d7f565b843b613c155760405162461bcd60e51b815260206004820152601d60248201527f416464726573733a2063616c6c20746f206e6f6e2d636f6e74726163740000006044820152606401610d7f565b600080866001600160a01b03168587604051613c319190613ed2565b60006040518083038185875af1925050503d8060008114613c6e576040519150601f19603f3d011682016040523d82523d6000602084013e613c73565b606091505b5091509150613c83828286613c8e565b979650505050505050565b60608315613c9d575081612851565b825115613cad5782518084602001fd5b8160405162461bcd60e51b8152600401610d7f9190613eee565b600060208284031215613cd8578081fd5b8135612851816141b6565b600060208284031215613cf4578081fd5b8151612851816141b6565b60008060008060008060c08789031215613d17578182fd5b8635613d22816141b6565b95506020870135613d32816141b6565b94506040870135613d42816141b6565b93506060870135613d52816141b6565b92506080870135613d62816141b6565b915060a0870135613d72816141b6565b809150509295509295509295565b60006020808385031215613d92578182fd5b825167ffffffffffffffff80821115613da9578384fd5b818501915085601f830112613dbc578384fd5b815181811115613dce57613dce6141a0565b8060051b604051601f19603f83011681018181108582111715613df357613df36141a0565b604052828152858101935084860182860187018a1015613e11578788fd5b8795505b83861015613e33578051855260019590950194938601938601613e15565b5098975050505050505050565b600060208284031215613e51578081fd5b81518015158114612851578182fd5b600060208284031215613e71578081fd5b5035919050565b600060208284031215613e89578081fd5b5051919050565b60008060408385031215613ea2578182fd5b50508035926020909101359150565b600060208284031215613ec2578081fd5b815160ff81168114612851578182fd5b60008251613ee4818460208701614143565b9190910192915050565b6020815260008251806020840152613f0d816040850160208701614143565b601f01601f19169190910160400192915050565b6020808252600890820152671b5a59dc985d195960c21b604082015260600190565b6020808252818101527f4f776e61626c653a2063616c6c6572206973206e6f7420746865206f776e6572604082015260600190565b600060a082018783526020878185015260a0604085015281875180845260c0860191508289019350845b81811015613fc75784516001600160a01b031683529383019391830191600101613fa2565b50506001600160a01b03969096166060850152505050608001529392505050565b60008219821115613ffb57613ffb61418a565b500190565b60008261401b57634e487b7160e01b81526012600452602481fd5b500490565b600181815b8085111561405b5781600019048211156140415761404161418a565b8085161561404e57918102915b93841c9390800290614025565b509250929050565b6000612851838360008261407957506001614107565b8161408657506000614107565b816001811461409c57600281146140a6576140c2565b6001915050614107565b60ff8411156140b7576140b761418a565b50506001821b614107565b5060208310610133831016604e8410600b84101617156140e5575081810a614107565b6140ef8383614020565b80600019048211156141035761410361418a565b0290505b92915050565b60008160001904831182151516156141275761412761418a565b500290565b60008282101561413e5761413e61418a565b500390565b60005b8381101561415e578181015183820152602001614146565b838111156126c85750506000910152565b60006000198214156141835761418361418a565b5060010190565b634e487b7160e01b600052601160045260246000fd5b634e487b7160e01b600052604160045260246000fd5b6001600160a01b03811681146134c357600080fdfea264697066735822122033fe25d8961ccd14fafdd09942773ad6a900550707d8dcec328f9e4e756150ac64736f6c63430008040033",
  "immutableReferences": {},
  "source": "// SPDX-License-Identifier: MIT\r\npragma solidity 0.8.4;\r\n\r\nimport \"@openzeppelin/contracts/token/ERC20/IERC20.sol\";\r\nimport \"@openzeppelin/contracts/token/ERC20/utils/SafeERC20.sol\";\r\nimport \"@openzeppelin/contracts/security/ReentrancyGuard.sol\";\r\nimport \"@openzeppelin/contracts/access/Ownable.sol\";\r\nimport \"@openzeppelin/contracts/token/ERC20/extensions/IERC20Metadata.sol\";\r\n\r\nimport \"./interfaces/IUniswapRouter.sol\";\r\nimport \"./interfaces/IFoundry.sol\";\r\nimport \"./interfaces/IPool.sol\";\r\nimport \"./interfaces/IOracle.sol\";\r\nimport \"./interfaces/ITreasury.sol\";\r\n\r\ncontract Treasury is ITreasury, Ownable, ReentrancyGuard {\r\n    using SafeERC20 for IERC20;\r\n\r\n    address public oracleDollar;//custom token oracle\r\n    address public oracleShare;//custom token oracle\r\n    address public oracleGovToken;//custom token oracle\r\n\r\n    address public dollar;\r\n    address public share;\r\n    address public governanceToken;\r\n    address public wcoin;\r\n    address public collateral;\r\n    address public strategist;\r\n    bool public migrated = false;\r\n\r\n    // pools\r\n    address[] public pools_array;\r\n    mapping(address => bool) public pools;\r\n\r\n    // Constants for various precisions\r\n    uint256 private constant PRICE_PRECISION = 1e6;\r\n    uint256 private constant RATIO_PRECISION = 1e6;\r\n\r\n    // fees\r\n    uint256 public redemption_fee = 4000; // 6 decimals of precision\r\n    uint256 public minting_fee = 3000; // 6 decimals of precision\r\n\r\n    // collateral_ratio\r\n    uint256 public last_refresh_cr_timestamp;\r\n    uint256 public target_collateral_ratio = 1000000; // = 100% - fully collateralized at start; // 6 decimals of precision\r\n    uint256 public effective_collateral_ratio = 1000000; // = 100% - fully collateralized at start; // 6 decimals of precision\r\n    uint256 public refresh_cooldown = 600; // Refresh cooldown period is set to 10min at genesis; // Seconds to wait before being able to run refreshCollateralRatio() again\r\n    uint256 public ratio_step = 2500; // Amount to change the collateralization ratio by upon refreshCollateralRatio() // = 0.25% at 6 decimals of precision\r\n    uint256 public price_target = 1000000; // = $1. (6 decimals of precision). Collateral ratio will adjust according to the $1 price target at genesis; // The price of dollar at which the collateral ratio will respond to; this value is only used for the collateral ratio mechanism and not for minting and redeeming which are hardcoded at $1\r\n    uint256 public price_band = 5000; // The bound above and below the price target at which the Collateral ratio is allowed to drop\r\n    uint256 public gov_token_value_for_discount = 1000;//1000$ in governance tokens\r\n    uint256 private constant COLLATERAL_RATIO_MAX = 1e6;\r\n    bool public collateral_ratio_paused = true; // during bootstraping phase, collateral_ratio will be fixed at 100%\r\n\r\n    // rebalance\r\n    address public rebalancing_pool;\r\n    address public rebalancing_pool_collateral;\r\n    uint256 public rebalance_cooldown = 12 hours;\r\n    uint256 public last_rebalance_timestamp;\r\n\r\n    // uniswap\r\n    address public uniswap_router;\r\n\r\n    // foundry\r\n    uint256 public startTime;\r\n    address public foundry;\r\n    uint256 public excess_collateral_distributed_ratio = 50000; // 5% per epoch\r\n    uint256 public lastEpochTime;\r\n    uint256 public epoch_length;\r\n    uint256 private _epoch = 0;\r\n\r\n    /* ========== MODIFIERS ========== */\r\n    \r\n    modifier withOracleUpdates(){\r\n        if (oracleDollar != address(0)) IOracle(oracleDollar).updateIfRequired();//custom token oracle\r\n        if (oracleShare != address(0)) IOracle(oracleShare).updateIfRequired();//custom token oracle\r\n        if (oracleGovToken != address(0)) IOracle(oracleGovToken).updateIfRequired();//custom token oracle\r\n        _;\r\n    }\r\n\r\n    modifier notMigrated() {\r\n        require(migrated == false, \"migrated\");\r\n        _;\r\n    }\r\n\r\n    modifier hasRebalancePool() {\r\n        require(rebalancing_pool != address(0), \"!rebalancingPool\");\r\n        require(rebalancing_pool_collateral != address(0), \"!rebalancingPoolCollateral\");\r\n        _;\r\n    }\r\n\r\n    modifier checkRebalanceCooldown() {\r\n        uint256 _blockTimestamp = block.timestamp;\r\n        require(_blockTimestamp - last_rebalance_timestamp >= rebalance_cooldown, \"<rebalance_cooldown\");\r\n        _;\r\n        last_rebalance_timestamp = _blockTimestamp;\r\n    }\r\n\r\n    modifier checkEpoch {\r\n        uint256 _nextEpochPoint = nextEpochPoint();\r\n        require(block.timestamp >= _nextEpochPoint, \"Treasury: not opened yet\");\r\n        _;\r\n        lastEpochTime = _nextEpochPoint;\r\n        _epoch = _epoch + 1;\r\n    }\r\n\r\n    /* ========== EVENTS ============= */\r\n    event TransactionExecuted(address indexed target, uint256 value, string signature, bytes data);\r\n    event BoughtBack(uint256 collateral_value, uint256 collateral_amount, uint256 output_share_amount);\r\n    event Recollateralized(uint256 share_amount, uint256 output_collateral_amount, uint256 output_collateral_value);\r\n\r\n    constructor (uint256 _startTime, uint256 _epoch_length){\r\n        require(_startTime >= block.timestamp, \"Start time initialized to the past\");\r\n        startTime = _startTime;\r\n        epoch_length = _epoch_length;\r\n        lastEpochTime = _startTime - epoch_length;\r\n    }\r\n\r\n    /*=========== VIEWS ===========*/\r\n    function dollarPrice() public view returns (uint256) {return IOracle(oracleDollar).consult();}\r\n    function sharePrice() public view returns (uint256) {return IOracle(oracleShare).consult();}\r\n    function gov_token_price() public view returns (uint256) {return IOracle(oracleGovToken).consult();}\r\n    function hasPool(address _address) external view override returns (bool) {return pools[_address] == true;}\r\n    function nextEpochPoint() public view override returns (uint256) {return lastEpochTime + epoch_length;}\r\n    function epoch() public view override returns (uint256) {return _epoch;}\r\n\r\n    function redemption_fee_adjusted() public view returns (uint256 redemptionFee) {\r\n        if (governanceToken == address(0)) return redemption_fee;\r\n        if (IERC20(governanceToken).balanceOf(tx.origin) > discount_requirenment() ) return redemption_fee / 2;\r\n        return redemption_fee;\r\n    }\r\n\r\n    function discount_requirenment() public view returns (uint256) {\r\n        uint256 govTokenPrice = gov_token_price();\r\n        if (govTokenPrice == 0) return 1;\r\n        uint256 decimals = IERC20Metadata(governanceToken).decimals();\r\n        return  gov_token_value_for_discount * PRICE_PRECISION * 10**decimals / govTokenPrice;\r\n    }\r\n\r\n    function info() external view override returns (\r\n        uint256,\r\n        uint256,\r\n        uint256,\r\n        uint256,\r\n        uint256,\r\n        uint256,\r\n        uint256,\r\n        uint256\r\n    ){\r\n        return (\r\n            dollarPrice(), \r\n            sharePrice(), \r\n            IERC20(dollar).totalSupply(), \r\n            target_collateral_ratio, \r\n            effective_collateral_ratio, \r\n            globalCollateralValue(),    \r\n            minting_fee, \r\n            redemption_fee_adjusted()\r\n        );\r\n    }\r\n\r\n    function epochInfo() external view override returns (\r\n        uint256,\r\n        uint256,\r\n        uint256,\r\n        uint256\r\n    ){\r\n        return (\r\n            epoch(), \r\n            nextEpochPoint(), \r\n            epoch_length, \r\n            excess_collateral_distributed_ratio\r\n        );\r\n    }\r\n\r\n    // Iterate through all pools and calculate all value of collateral in all pools globally\r\n    function globalCollateralValue() public view returns (uint256) {\r\n        uint256 total_collateral_value = 0;\r\n        for (uint256 i = 0; i < pools_array.length; i++) {\r\n            if (pools_array[i] != address(0)) {\r\n                total_collateral_value = total_collateral_value + IPool(pools_array[i]).collateralDollarBalance();\r\n            }\r\n        }\r\n        return total_collateral_value;\r\n    }\r\n\r\n    function calcEffectiveCollateralRatio() public view returns (uint256) {\r\n        uint256 total_collateral_value = globalCollateralValue();\r\n        uint256 total_supply_dollar = IERC20(dollar).totalSupply();\r\n        uint256 ecr = total_collateral_value * PRICE_PRECISION / total_supply_dollar;\r\n        if (ecr > COLLATERAL_RATIO_MAX) return COLLATERAL_RATIO_MAX;\r\n        return ecr;\r\n    }\r\n\r\n\r\n    function refreshCollateralRatio() public withOracleUpdates{\r\n        require(collateral_ratio_paused == false, \"Collateral Ratio has been paused\");\r\n        require(block.timestamp - last_refresh_cr_timestamp >= refresh_cooldown, \"Must wait for the refresh cooldown since last refresh\");\r\n        uint256 current_dollar_price = dollarPrice();\r\n        \r\n        if (current_dollar_price > price_target + price_band ) {\r\n            if (target_collateral_ratio <= ratio_step) {// decrease collateral ratio\r\n                target_collateral_ratio = 0;// if within a step of 0, go to 0\r\n            } else {\r\n                target_collateral_ratio = target_collateral_ratio - ratio_step;\r\n            }\r\n        }\r\n        // Dollar price is below $1 - `price_band`. Need to increase `collateral_ratio`\r\n        else if (current_dollar_price < price_target - price_band) {\r\n            if (target_collateral_ratio + ratio_step >= COLLATERAL_RATIO_MAX) {// increase collateral ratio\r\n                target_collateral_ratio = COLLATERAL_RATIO_MAX; // cap collateral ratio at 1.000000\r\n            } else {\r\n                target_collateral_ratio = target_collateral_ratio + ratio_step;\r\n            }\r\n        }\r\n\r\n        effective_collateral_ratio = calcEffectiveCollateralRatio();\r\n        last_refresh_cr_timestamp = block.timestamp;\r\n    }\r\n\r\n    // Check if the protocol is over- or under-collateralized, by how much\r\n    function calcCollateralBalance() public view returns (uint256 _collateral_value, bool _exceeded) {\r\n        uint256 total_collateral_value = globalCollateralValue();\r\n        uint256 target_collateral_value = IERC20(dollar).totalSupply() * target_collateral_ratio / PRICE_PRECISION;\r\n        if (total_collateral_value >= target_collateral_value) {\r\n            _collateral_value = total_collateral_value - target_collateral_value;\r\n            _exceeded = true;\r\n        } else {\r\n            _collateral_value = target_collateral_value - total_collateral_value;\r\n            _exceeded = false;\r\n        }\r\n    }\r\n\r\n    /* -========= INTERNAL FUNCTIONS ============ */\r\n\r\n    // SWAP tokens using quickswap\r\n    function _swap(\r\n        address _input_token,\r\n        uint256 _input_amount,\r\n        uint256 _min_output_amount\r\n    ) internal returns (uint256) {\r\n        require(\r\n            (_input_token == collateral || _input_token == share) &&\r\n            uniswap_router != address(0) && \r\n            share != address(0) && \r\n            wcoin != address(0) &&\r\n            collateral != address(0), \r\n            \"badTokenReceivedForSwap\"\r\n        );\r\n        if (_input_amount == 0) return 0;\r\n        address[] memory _path = new address[](3);\r\n        if (_input_token == share) {\r\n            _path[0] = share;\r\n            _path[1] = wcoin;\r\n            _path[2] = collateral;\r\n        } else if(_input_token == collateral) {\r\n            _path[0] = collateral;\r\n            _path[1] = wcoin;\r\n            _path[2] = share;\r\n        }\r\n        \r\n        IERC20(_input_token).safeApprove(uniswap_router, 0);\r\n        IERC20(_input_token).safeApprove(uniswap_router, _input_amount);\r\n        uint256[] memory out_amounts = IUniswapRouter(uniswap_router).swapExactTokensForTokens(_input_amount, _min_output_amount, _path, address(this), block.timestamp + 1800);\r\n        return out_amounts[out_amounts.length - 1];\r\n    }\r\n    /* ========== RESTRICTED FUNCTIONS ========== */\r\n\r\n    // Add new Pool\r\n    function addPool(address pool_address) public onlyOwner notMigrated {\r\n        require(pools[pool_address] == false, \"poolExisted\");\r\n        pools[pool_address] = true;\r\n        pools_array.push(pool_address);\r\n    }\r\n\r\n    // Remove a pool\r\n    function removePool(address pool_address) public onlyOwner notMigrated {\r\n        require(rebalancing_pool != pool_address, \"Cant`t delete active rebalance pool\");\r\n        require(pools[pool_address] == true, \"!pool\");        \r\n        delete pools[pool_address];// Delete from the mapping\r\n        for (uint256 i = 0; i < pools_array.length; i++) {\r\n            if (pools_array[i] == pool_address) {\r\n                pools_array[i] = address(0); // This will leave a null in the array and keep the indices the same\r\n                break;\r\n            }\r\n        }\r\n    }\r\n\r\n    // SINGLE POOL STRATEGY\r\n    // With Treasury v1, we will only utilize collateral from a single pool to do rebalancing\r\n    function buyback(uint256 _collateral_value, uint256 _min_share_amount) external onlyOwner withOracleUpdates notMigrated hasRebalancePool checkRebalanceCooldown {\r\n        (uint256 _excess_collateral_value, bool _exceeded) = calcCollateralBalance();\r\n        require(_exceeded && _excess_collateral_value > 0, \"!exceeded\");\r\n        require(_collateral_value > 0 && _collateral_value < _excess_collateral_value, \"invalidCollateralAmount\");\r\n        uint256 _collateral_price = IPool(rebalancing_pool).getCollateralPrice();\r\n        uint256 _collateral_amount_sell = _collateral_value * PRICE_PRECISION / _collateral_price;\r\n        require(IERC20(rebalancing_pool_collateral).balanceOf(rebalancing_pool) > _collateral_amount_sell, \"insufficentPoolBalance\");\r\n        IPool(rebalancing_pool).transferCollateralToTreasury(_collateral_amount_sell); // Transfer collateral from pool to treasury\r\n        uint256 out_share_amount = _swap(rebalancing_pool_collateral, _collateral_amount_sell, _min_share_amount);\r\n        emit BoughtBack(_collateral_value, _collateral_amount_sell, out_share_amount);\r\n    }\r\n\r\n    // SINGLE POOL STRATEGY\r\n    // With Treasury v1, we will only utilize collateral from a single pool to do rebalancing\r\n    function recollateralize(uint256 _share_amount, uint256 _min_collateral_amount) external onlyOwner withOracleUpdates notMigrated hasRebalancePool checkRebalanceCooldown {\r\n        (uint256 _deficit_collateral_value, bool _exceeded) = calcCollateralBalance();\r\n        require(!_exceeded && _deficit_collateral_value > 0, \"exceeded\");\r\n        require(_min_collateral_amount <= _deficit_collateral_value, \">deficit\");\r\n        uint256 _share_balance = IERC20(share).balanceOf(address(this));\r\n        require(_share_amount <= _share_balance, \">shareBalance\");\r\n        uint256 out_collateral_amount = _swap(share, _share_amount, _min_collateral_amount);\r\n        uint256 _collateral_balance = IERC20(rebalancing_pool_collateral).balanceOf(address(this));\r\n        if (_collateral_balance > 0) {\r\n            IERC20(rebalancing_pool_collateral).safeTransfer(rebalancing_pool, _collateral_balance); // Transfer collateral from Treasury to Pool\r\n        }\r\n        uint256 collateral_price = IPool(rebalancing_pool).getCollateralPrice();\r\n        uint256 out_collateral_value = out_collateral_amount * collateral_price / PRICE_PRECISION;\r\n        emit Recollateralized(_share_amount, out_collateral_amount, out_collateral_value);\r\n    }\r\n\r\n    function allocateSeigniorage() external withOracleUpdates notMigrated nonReentrant checkEpoch {\r\n        require(!migrated, \"Treasury: migrated\");\r\n        require(block.timestamp >= startTime, \"Treasury: not started yet\");\r\n        (uint256 _excess_collateral_value, bool _exceeded) = calcCollateralBalance();\r\n        uint256 _allocation_value = 0;\r\n        if (_exceeded) {\r\n            _allocation_value = _excess_collateral_value * excess_collateral_distributed_ratio / RATIO_PRECISION;\r\n            uint256 collateral_price = IPool(rebalancing_pool).getCollateralPrice();\r\n            uint256 _allocation_amount = _allocation_value * PRICE_PRECISION / collateral_price;\r\n            IPool(rebalancing_pool).transferCollateralToTreasury(_allocation_amount); // Transfer collateral from pool to treasury\r\n            IERC20(rebalancing_pool_collateral).safeApprove(foundry, 0);\r\n            IERC20(rebalancing_pool_collateral).safeApprove(foundry, _allocation_amount);\r\n            IFoundry(foundry).allocateSeigniorage(_allocation_amount);\r\n        }\r\n    }\r\n\r\n    function migrate(address _new_treasury) external onlyOwner notMigrated {\r\n        migrated = true;\r\n        uint256 _share_balance = IERC20(share).balanceOf(address(this));\r\n        if (_share_balance > 0) {\r\n            IERC20(share).safeTransfer(_new_treasury, _share_balance);\r\n        }\r\n        if (rebalancing_pool_collateral != address(0)) {\r\n            uint256 _collateral_balance = IERC20(rebalancing_pool_collateral).balanceOf(address(this));\r\n            if (_collateral_balance > 0) {\r\n                IERC20(rebalancing_pool_collateral).safeTransfer(_new_treasury, _collateral_balance);\r\n            }\r\n        }\r\n    }\r\n\r\n    function setGovTokenValueForDiscount(uint256 value) public onlyOwner {gov_token_value_for_discount = value;}\r\n    function setRedemptionFee(uint256 _redemption_fee) public onlyOwner {redemption_fee = _redemption_fee;}\r\n    function setMintingFee(uint256 _minting_fee) public onlyOwner {minting_fee = _minting_fee;}\r\n    function setRatioStep(uint256 _ratio_step) public onlyOwner {ratio_step = _ratio_step;}\r\n    function setPriceTarget(uint256 _price_target) public onlyOwner {price_target = _price_target;}\r\n    function setRefreshCooldown(uint256 _refresh_cooldown) public onlyOwner {refresh_cooldown = _refresh_cooldown;}\r\n    function setPriceBand(uint256 _price_band) external onlyOwner {price_band = _price_band;}\r\n    function toggleCollateralRatio() public onlyOwner {collateral_ratio_paused = !collateral_ratio_paused;}\r\n    function setOracleDollar(address _oracle) public onlyOwner {oracleDollar = _oracle;}\r\n    function setOracleShare(address _oracle) public onlyOwner {oracleShare = _oracle;}\r\n    function setOracleGovToken(address _oracle) public onlyOwner {oracleGovToken = _oracle;}\r\n    function setStrategist(address _strategist) external onlyOwner {strategist = _strategist;}\r\n    function setFoundry(address _foundry) public onlyOwner {foundry = _foundry;}\r\n    function setEpochLength(uint256 _epoch_length) public onlyOwner {epoch_length = _epoch_length;}\r\n    function setRebalanceCooldown(uint256 cooldown) public onlyOwner {rebalance_cooldown = cooldown;}\r\n    function setExcessDistributionRatio(uint256 ratio) public onlyOwner {excess_collateral_distributed_ratio = ratio;}\r\n    function updateOracles() public override withOracleUpdates {/*empty, used only for modifier*/}\r\n        \r\n    function installTokens(\r\n        address _uniswap_router,\r\n        address _governanceToken,\r\n        address _wcoin,\r\n        address _collateral,\r\n        address _share,\r\n        address _dollar\r\n    ) public onlyOwner {\r\n        uniswap_router  = _uniswap_router;\r\n        governanceToken = _governanceToken;\r\n        wcoin           = _wcoin;\r\n        collateral      = _collateral;\r\n        share           = _share;\r\n        dollar          = _dollar;\r\n    }\r\n\r\n    function setRebalancePool(address _rebalance_pool) public onlyOwner  {\r\n        require(pools[_rebalance_pool], \"!pool\");\r\n        require(IPool(_rebalance_pool).getCollateralToken() != address(0), \"!poolCollateralToken\");\r\n        rebalancing_pool = _rebalance_pool;\r\n        rebalancing_pool_collateral = IPool(_rebalance_pool).getCollateralToken();\r\n    }\r\n\r\n    function resetStartTime(uint256 _startTime) external onlyOwner {\r\n        require(_epoch == 0, \"already started\");\r\n        startTime = _startTime;\r\n        lastEpochTime = _startTime - 8 hours;\r\n    }\r\n\r\n    receive() external payable {}\r\n}\r\n",
  "sourcePath": "C:/Users/PaulMuller/Documents/projects/project_AGO/contracts/Treasury.sol",
  "compiler": {
    "name": "solc",
    "version": "0.8.4+commit.c7e474f2.Emscripten.clang"
  },
  "schemaVersion": "3.4.1",
  "updatedAt": "2021-07-29T13:56:44.213Z",
  "networkType": "ethereum",
  "devdoc": {
    "kind": "dev",
    "methods": {
      "owner()": {
        "details": "Returns the address of the current owner."
      },
      "renounceOwnership()": {
        "details": "Leaves the contract without owner. It will not be possible to call `onlyOwner` functions anymore. Can only be called by the current owner. NOTE: Renouncing ownership will leave the contract without an owner, thereby removing any functionality that is only available to the owner."
      },
      "transferOwnership(address)": {
        "details": "Transfers ownership of the contract to a new account (`newOwner`). Can only be called by the current owner."
      }
    },
    "version": 1
  },
  "userdoc": {
    "kind": "user",
    "methods": {},
    "version": 1
  }
}