{
  "contractName": "Treasury",
  "abi": [
    {
      "anonymous": false,
      "inputs": [
        {
          "indexed": false,
          "internalType": "uint256",
          "name": "collateral_value",
          "type": "uint256"
        },
        {
          "indexed": false,
          "internalType": "uint256",
          "name": "collateral_amount",
          "type": "uint256"
        },
        {
          "indexed": false,
          "internalType": "uint256",
          "name": "output_share_amount",
          "type": "uint256"
        }
      ],
      "name": "BoughtBack",
      "type": "event"
    },
    {
      "anonymous": false,
      "inputs": [
        {
          "indexed": false,
          "internalType": "uint256",
          "name": "share_amount",
          "type": "uint256"
        },
        {
          "indexed": false,
          "internalType": "uint256",
          "name": "output_collateral_amount",
          "type": "uint256"
        },
        {
          "indexed": false,
          "internalType": "uint256",
          "name": "output_collateral_value",
          "type": "uint256"
        }
      ],
      "name": "Recollateralized",
      "type": "event"
    },
    {
      "anonymous": false,
      "inputs": [
        {
          "indexed": true,
          "internalType": "address",
          "name": "target",
          "type": "address"
        },
        {
          "indexed": false,
          "internalType": "uint256",
          "name": "value",
          "type": "uint256"
        },
        {
          "indexed": false,
          "internalType": "string",
          "name": "signature",
          "type": "string"
        },
        {
          "indexed": false,
          "internalType": "bytes",
          "name": "data",
          "type": "bytes"
        }
      ],
      "name": "TransactionExecuted",
      "type": "event"
    },
    {
      "inputs": [],
      "name": "AGOUSD",
      "outputs": [
        {
          "internalType": "address",
          "name": "",
          "type": "address"
        }
      ],
      "stateMutability": "view",
      "type": "function"
    },
    {
      "inputs": [],
      "name": "CNUSD",
      "outputs": [
        {
          "internalType": "address",
          "name": "",
          "type": "address"
        }
      ],
      "stateMutability": "view",
      "type": "function"
    },
    {
      "inputs": [],
      "name": "collateral_ratio_paused",
      "outputs": [
        {
          "internalType": "bool",
          "name": "",
          "type": "bool"
        }
      ],
      "stateMutability": "view",
      "type": "function"
    },
    {
      "inputs": [],
      "name": "effective_collateral_ratio",
      "outputs": [
        {
          "internalType": "uint256",
          "name": "",
          "type": "uint256"
        }
      ],
      "stateMutability": "view",
      "type": "function"
    },
    {
      "inputs": [],
      "name": "epoch_length",
      "outputs": [
        {
          "internalType": "uint256",
          "name": "",
          "type": "uint256"
        }
      ],
      "stateMutability": "view",
      "type": "function"
    },
    {
      "inputs": [],
      "name": "excess_collateral_distributed_ratio",
      "outputs": [
        {
          "internalType": "uint256",
          "name": "",
          "type": "uint256"
        }
      ],
      "stateMutability": "view",
      "type": "function"
    },
    {
      "inputs": [],
      "name": "foundry",
      "outputs": [
        {
          "internalType": "address",
          "name": "",
          "type": "address"
        }
      ],
      "stateMutability": "view",
      "type": "function"
    },
    {
      "inputs": [],
      "name": "gov_token_value_for_discount",
      "outputs": [
        {
          "internalType": "uint256",
          "name": "",
          "type": "uint256"
        }
      ],
      "stateMutability": "view",
      "type": "function"
    },
    {
      "inputs": [],
      "name": "governanceToken",
      "outputs": [
        {
          "internalType": "address",
          "name": "",
          "type": "address"
        }
      ],
      "stateMutability": "view",
      "type": "function"
    },
    {
      "inputs": [],
      "name": "initialized",
      "outputs": [
        {
          "internalType": "bool",
          "name": "",
          "type": "bool"
        }
      ],
      "stateMutability": "view",
      "type": "function"
    },
    {
      "inputs": [],
      "name": "lastEpochTime",
      "outputs": [
        {
          "internalType": "uint256",
          "name": "",
          "type": "uint256"
        }
      ],
      "stateMutability": "view",
      "type": "function"
    },
    {
      "inputs": [],
      "name": "last_rebalance_timestamp",
      "outputs": [
        {
          "internalType": "uint256",
          "name": "",
          "type": "uint256"
        }
      ],
      "stateMutability": "view",
      "type": "function"
    },
    {
      "inputs": [],
      "name": "last_refresh_cr_timestamp",
      "outputs": [
        {
          "internalType": "uint256",
          "name": "",
          "type": "uint256"
        }
      ],
      "stateMutability": "view",
      "type": "function"
    },
    {
      "inputs": [],
      "name": "migrated",
      "outputs": [
        {
          "internalType": "bool",
          "name": "",
          "type": "bool"
        }
      ],
      "stateMutability": "view",
      "type": "function"
    },
    {
      "inputs": [],
      "name": "minting_fee",
      "outputs": [
        {
          "internalType": "uint256",
          "name": "",
          "type": "uint256"
        }
      ],
      "stateMutability": "view",
      "type": "function"
    },
    {
      "inputs": [],
      "name": "oracleDollar",
      "outputs": [
        {
          "internalType": "address",
          "name": "",
          "type": "address"
        }
      ],
      "stateMutability": "view",
      "type": "function"
    },
    {
      "inputs": [],
      "name": "oracleGovToken",
      "outputs": [
        {
          "internalType": "address",
          "name": "",
          "type": "address"
        }
      ],
      "stateMutability": "view",
      "type": "function"
    },
    {
      "inputs": [],
      "name": "oracleShare",
      "outputs": [
        {
          "internalType": "address",
          "name": "",
          "type": "address"
        }
      ],
      "stateMutability": "view",
      "type": "function"
    },
    {
      "inputs": [],
      "name": "owner",
      "outputs": [
        {
          "internalType": "address",
          "name": "",
          "type": "address"
        }
      ],
      "stateMutability": "view",
      "type": "function"
    },
    {
      "inputs": [
        {
          "internalType": "address",
          "name": "",
          "type": "address"
        }
      ],
      "name": "pools",
      "outputs": [
        {
          "internalType": "bool",
          "name": "",
          "type": "bool"
        }
      ],
      "stateMutability": "view",
      "type": "function"
    },
    {
      "inputs": [
        {
          "internalType": "uint256",
          "name": "",
          "type": "uint256"
        }
      ],
      "name": "pools_array",
      "outputs": [
        {
          "internalType": "address",
          "name": "",
          "type": "address"
        }
      ],
      "stateMutability": "view",
      "type": "function"
    },
    {
      "inputs": [],
      "name": "price_band",
      "outputs": [
        {
          "internalType": "uint256",
          "name": "",
          "type": "uint256"
        }
      ],
      "stateMutability": "view",
      "type": "function"
    },
    {
      "inputs": [],
      "name": "price_target",
      "outputs": [
        {
          "internalType": "uint256",
          "name": "",
          "type": "uint256"
        }
      ],
      "stateMutability": "view",
      "type": "function"
    },
    {
      "inputs": [],
      "name": "ratio_step",
      "outputs": [
        {
          "internalType": "uint256",
          "name": "",
          "type": "uint256"
        }
      ],
      "stateMutability": "view",
      "type": "function"
    },
    {
      "inputs": [],
      "name": "rebalance_cooldown",
      "outputs": [
        {
          "internalType": "uint256",
          "name": "",
          "type": "uint256"
        }
      ],
      "stateMutability": "view",
      "type": "function"
    },
    {
      "inputs": [],
      "name": "rebalancing_pool",
      "outputs": [
        {
          "internalType": "address",
          "name": "",
          "type": "address"
        }
      ],
      "stateMutability": "view",
      "type": "function"
    },
    {
      "inputs": [],
      "name": "rebalancing_pool_collateral",
      "outputs": [
        {
          "internalType": "address",
          "name": "",
          "type": "address"
        }
      ],
      "stateMutability": "view",
      "type": "function"
    },
    {
      "inputs": [],
      "name": "redemption_fee",
      "outputs": [
        {
          "internalType": "uint256",
          "name": "",
          "type": "uint256"
        }
      ],
      "stateMutability": "view",
      "type": "function"
    },
    {
      "inputs": [],
      "name": "refresh_cooldown",
      "outputs": [
        {
          "internalType": "uint256",
          "name": "",
          "type": "uint256"
        }
      ],
      "stateMutability": "view",
      "type": "function"
    },
    {
      "inputs": [],
      "name": "startTime",
      "outputs": [
        {
          "internalType": "uint256",
          "name": "",
          "type": "uint256"
        }
      ],
      "stateMutability": "view",
      "type": "function"
    },
    {
      "inputs": [],
      "name": "strategist",
      "outputs": [
        {
          "internalType": "address",
          "name": "",
          "type": "address"
        }
      ],
      "stateMutability": "view",
      "type": "function"
    },
    {
      "inputs": [],
      "name": "target_collateral_ratio",
      "outputs": [
        {
          "internalType": "uint256",
          "name": "",
          "type": "uint256"
        }
      ],
      "stateMutability": "view",
      "type": "function"
    },
    {
      "inputs": [
        {
          "internalType": "address",
          "name": "newOwner",
          "type": "address"
        }
      ],
      "name": "transferOwnership",
      "outputs": [],
      "stateMutability": "nonpayable",
      "type": "function"
    },
    {
      "inputs": [],
      "name": "uniswap_pair_SHARE_WMATIC",
      "outputs": [
        {
          "internalType": "address",
          "name": "",
          "type": "address"
        }
      ],
      "stateMutability": "view",
      "type": "function"
    },
    {
      "inputs": [],
      "name": "uniswap_pair_WMATIC_COLLATERALL",
      "outputs": [
        {
          "internalType": "address",
          "name": "",
          "type": "address"
        }
      ],
      "stateMutability": "view",
      "type": "function"
    },
    {
      "inputs": [],
      "name": "uniswap_router",
      "outputs": [
        {
          "internalType": "address",
          "name": "",
          "type": "address"
        }
      ],
      "stateMutability": "view",
      "type": "function"
    },
    {
      "inputs": [],
      "name": "using_effective_collateral_ratio",
      "outputs": [
        {
          "internalType": "bool",
          "name": "",
          "type": "bool"
        }
      ],
      "stateMutability": "view",
      "type": "function"
    },
    {
      "stateMutability": "payable",
      "type": "receive"
    },
    {
      "inputs": [
        {
          "internalType": "uint256",
          "name": "_startTime",
          "type": "uint256"
        },
        {
          "internalType": "uint256",
          "name": "_epoch_length",
          "type": "uint256"
        }
      ],
      "name": "initialize",
      "outputs": [],
      "stateMutability": "nonpayable",
      "type": "function"
    },
    {
      "inputs": [],
      "name": "dollarPrice",
      "outputs": [
        {
          "internalType": "uint256",
          "name": "",
          "type": "uint256"
        }
      ],
      "stateMutability": "view",
      "type": "function"
    },
    {
      "inputs": [],
      "name": "sharePrice",
      "outputs": [
        {
          "internalType": "uint256",
          "name": "",
          "type": "uint256"
        }
      ],
      "stateMutability": "view",
      "type": "function"
    },
    {
      "inputs": [],
      "name": "gov_token_price",
      "outputs": [
        {
          "internalType": "uint256",
          "name": "",
          "type": "uint256"
        }
      ],
      "stateMutability": "view",
      "type": "function"
    },
    {
      "inputs": [
        {
          "internalType": "address",
          "name": "_address",
          "type": "address"
        }
      ],
      "name": "hasPool",
      "outputs": [
        {
          "internalType": "bool",
          "name": "",
          "type": "bool"
        }
      ],
      "stateMutability": "view",
      "type": "function"
    },
    {
      "inputs": [],
      "name": "nextEpochPoint",
      "outputs": [
        {
          "internalType": "uint256",
          "name": "",
          "type": "uint256"
        }
      ],
      "stateMutability": "view",
      "type": "function"
    },
    {
      "inputs": [],
      "name": "epoch",
      "outputs": [
        {
          "internalType": "uint256",
          "name": "",
          "type": "uint256"
        }
      ],
      "stateMutability": "view",
      "type": "function"
    },
    {
      "inputs": [],
      "name": "redemption_fee_adjusted",
      "outputs": [
        {
          "internalType": "uint256",
          "name": "",
          "type": "uint256"
        }
      ],
      "stateMutability": "view",
      "type": "function"
    },
    {
      "inputs": [],
      "name": "discount_requirenment",
      "outputs": [
        {
          "internalType": "uint256",
          "name": "",
          "type": "uint256"
        }
      ],
      "stateMutability": "view",
      "type": "function"
    },
    {
      "inputs": [],
      "name": "info",
      "outputs": [
        {
          "internalType": "uint256",
          "name": "",
          "type": "uint256"
        },
        {
          "internalType": "uint256",
          "name": "",
          "type": "uint256"
        },
        {
          "internalType": "uint256",
          "name": "",
          "type": "uint256"
        },
        {
          "internalType": "uint256",
          "name": "",
          "type": "uint256"
        },
        {
          "internalType": "uint256",
          "name": "",
          "type": "uint256"
        },
        {
          "internalType": "uint256",
          "name": "",
          "type": "uint256"
        },
        {
          "internalType": "uint256",
          "name": "",
          "type": "uint256"
        },
        {
          "internalType": "uint256",
          "name": "",
          "type": "uint256"
        }
      ],
      "stateMutability": "view",
      "type": "function"
    },
    {
      "inputs": [],
      "name": "epochInfo",
      "outputs": [
        {
          "internalType": "uint256",
          "name": "",
          "type": "uint256"
        },
        {
          "internalType": "uint256",
          "name": "",
          "type": "uint256"
        },
        {
          "internalType": "uint256",
          "name": "",
          "type": "uint256"
        },
        {
          "internalType": "uint256",
          "name": "",
          "type": "uint256"
        }
      ],
      "stateMutability": "view",
      "type": "function"
    },
    {
      "inputs": [],
      "name": "globalCollateralValue",
      "outputs": [
        {
          "internalType": "uint256",
          "name": "",
          "type": "uint256"
        }
      ],
      "stateMutability": "view",
      "type": "function"
    },
    {
      "inputs": [],
      "name": "calcEffectiveCollateralRatio",
      "outputs": [
        {
          "internalType": "uint256",
          "name": "",
          "type": "uint256"
        }
      ],
      "stateMutability": "view",
      "type": "function"
    },
    {
      "inputs": [],
      "name": "refreshCollateralRatio",
      "outputs": [],
      "stateMutability": "nonpayable",
      "type": "function"
    },
    {
      "inputs": [],
      "name": "calcCollateralBalance",
      "outputs": [
        {
          "internalType": "uint256",
          "name": "_collateral_value",
          "type": "uint256"
        },
        {
          "internalType": "bool",
          "name": "_exceeded",
          "type": "bool"
        }
      ],
      "stateMutability": "view",
      "type": "function"
    },
    {
      "inputs": [
        {
          "internalType": "address",
          "name": "pool_address",
          "type": "address"
        }
      ],
      "name": "addPool",
      "outputs": [],
      "stateMutability": "nonpayable",
      "type": "function"
    },
    {
      "inputs": [
        {
          "internalType": "address",
          "name": "pool_address",
          "type": "address"
        }
      ],
      "name": "removePool",
      "outputs": [],
      "stateMutability": "nonpayable",
      "type": "function"
    },
    {
      "inputs": [
        {
          "internalType": "uint256",
          "name": "_collateral_value",
          "type": "uint256"
        },
        {
          "internalType": "uint256",
          "name": "_min_share_amount",
          "type": "uint256"
        }
      ],
      "name": "buyback",
      "outputs": [],
      "stateMutability": "nonpayable",
      "type": "function"
    },
    {
      "inputs": [
        {
          "internalType": "uint256",
          "name": "_share_amount",
          "type": "uint256"
        },
        {
          "internalType": "uint256",
          "name": "_min_collateral_amount",
          "type": "uint256"
        }
      ],
      "name": "recollateralize",
      "outputs": [],
      "stateMutability": "nonpayable",
      "type": "function"
    },
    {
      "inputs": [],
      "name": "allocateSeigniorage",
      "outputs": [],
      "stateMutability": "nonpayable",
      "type": "function"
    },
    {
      "inputs": [
        {
          "internalType": "address",
          "name": "_new_treasury",
          "type": "address"
        }
      ],
      "name": "migrate",
      "outputs": [],
      "stateMutability": "nonpayable",
      "type": "function"
    },
    {
      "inputs": [
        {
          "internalType": "uint256",
          "name": "_gov_token_value_for_discount",
          "type": "uint256"
        }
      ],
      "name": "setGovTokenValueForDiscount",
      "outputs": [],
      "stateMutability": "nonpayable",
      "type": "function"
    },
    {
      "inputs": [
        {
          "internalType": "uint256",
          "name": "_redemption_fee",
          "type": "uint256"
        }
      ],
      "name": "setRedemptionFee",
      "outputs": [],
      "stateMutability": "nonpayable",
      "type": "function"
    },
    {
      "inputs": [
        {
          "internalType": "uint256",
          "name": "_minting_fee",
          "type": "uint256"
        }
      ],
      "name": "setMintingFee",
      "outputs": [],
      "stateMutability": "nonpayable",
      "type": "function"
    },
    {
      "inputs": [
        {
          "internalType": "uint256",
          "name": "_ratio_step",
          "type": "uint256"
        }
      ],
      "name": "setRatioStep",
      "outputs": [],
      "stateMutability": "nonpayable",
      "type": "function"
    },
    {
      "inputs": [
        {
          "internalType": "uint256",
          "name": "_price_target",
          "type": "uint256"
        }
      ],
      "name": "setPriceTarget",
      "outputs": [],
      "stateMutability": "nonpayable",
      "type": "function"
    },
    {
      "inputs": [
        {
          "internalType": "uint256",
          "name": "_refresh_cooldown",
          "type": "uint256"
        }
      ],
      "name": "setRefreshCooldown",
      "outputs": [],
      "stateMutability": "nonpayable",
      "type": "function"
    },
    {
      "inputs": [
        {
          "internalType": "uint256",
          "name": "_price_band",
          "type": "uint256"
        }
      ],
      "name": "setPriceBand",
      "outputs": [],
      "stateMutability": "nonpayable",
      "type": "function"
    },
    {
      "inputs": [],
      "name": "toggleCollateralRatio",
      "outputs": [],
      "stateMutability": "nonpayable",
      "type": "function"
    },
    {
      "inputs": [],
      "name": "toggleEffectiveCollateralRatio",
      "outputs": [],
      "stateMutability": "nonpayable",
      "type": "function"
    },
    {
      "inputs": [
        {
          "internalType": "address",
          "name": "_oracleDollar",
          "type": "address"
        }
      ],
      "name": "setOracleDollar",
      "outputs": [],
      "stateMutability": "nonpayable",
      "type": "function"
    },
    {
      "inputs": [
        {
          "internalType": "address",
          "name": "_oracleShare",
          "type": "address"
        }
      ],
      "name": "setOracleShare",
      "outputs": [],
      "stateMutability": "nonpayable",
      "type": "function"
    },
    {
      "inputs": [
        {
          "internalType": "address",
          "name": "_oracleGovToken",
          "type": "address"
        }
      ],
      "name": "setGovTokenShare",
      "outputs": [],
      "stateMutability": "nonpayable",
      "type": "function"
    },
    {
      "inputs": [
        {
          "internalType": "address",
          "name": "_AGOUSD",
          "type": "address"
        }
      ],
      "name": "setDollarAddress",
      "outputs": [],
      "stateMutability": "nonpayable",
      "type": "function"
    },
    {
      "inputs": [
        {
          "internalType": "address",
          "name": "_CNUSD",
          "type": "address"
        }
      ],
      "name": "setShareAddress",
      "outputs": [],
      "stateMutability": "nonpayable",
      "type": "function"
    },
    {
      "inputs": [
        {
          "internalType": "address",
          "name": "_governanceToken",
          "type": "address"
        }
      ],
      "name": "setGovTokenAddress",
      "outputs": [],
      "stateMutability": "nonpayable",
      "type": "function"
    },
    {
      "inputs": [
        {
          "internalType": "address",
          "name": "_strategist",
          "type": "address"
        }
      ],
      "name": "setStrategist",
      "outputs": [],
      "stateMutability": "nonpayable",
      "type": "function"
    },
    {
      "inputs": [
        {
          "internalType": "address",
          "name": "_uniswap_router",
          "type": "address"
        },
        {
          "internalType": "address",
          "name": "_uniswap_pair_CNUSD_WMATIC",
          "type": "address"
        },
        {
          "internalType": "address",
          "name": "_uniswap_pair_WMATIC_USDT",
          "type": "address"
        }
      ],
      "name": "setUniswapParams",
      "outputs": [],
      "stateMutability": "nonpayable",
      "type": "function"
    },
    {
      "inputs": [
        {
          "internalType": "address",
          "name": "_rebalance_pool",
          "type": "address"
        }
      ],
      "name": "setRebalancePool",
      "outputs": [],
      "stateMutability": "nonpayable",
      "type": "function"
    },
    {
      "inputs": [
        {
          "internalType": "uint256",
          "name": "_rebalance_cooldown",
          "type": "uint256"
        }
      ],
      "name": "setRebalanceCooldown",
      "outputs": [],
      "stateMutability": "nonpayable",
      "type": "function"
    },
    {
      "inputs": [
        {
          "internalType": "uint256",
          "name": "_startTime",
          "type": "uint256"
        }
      ],
      "name": "resetStartTime",
      "outputs": [],
      "stateMutability": "nonpayable",
      "type": "function"
    },
    {
      "inputs": [
        {
          "internalType": "address",
          "name": "_foundry",
          "type": "address"
        }
      ],
      "name": "setFoundry",
      "outputs": [],
      "stateMutability": "nonpayable",
      "type": "function"
    },
    {
      "inputs": [
        {
          "internalType": "uint256",
          "name": "_epoch_length",
          "type": "uint256"
        }
      ],
      "name": "setEpochLength",
      "outputs": [],
      "stateMutability": "nonpayable",
      "type": "function"
    },
    {
      "inputs": [
        {
          "internalType": "uint256",
          "name": "_excess_collateral_distributed_ratio",
          "type": "uint256"
        }
      ],
      "name": "setExcessDistributionRatio",
      "outputs": [],
      "stateMutability": "nonpayable",
      "type": "function"
    },
    {
      "inputs": [
        {
          "internalType": "address",
          "name": "target",
          "type": "address"
        },
        {
          "internalType": "uint256",
          "name": "value",
          "type": "uint256"
        },
        {
          "internalType": "string",
          "name": "signature",
          "type": "string"
        },
        {
          "internalType": "bytes",
          "name": "data",
          "type": "bytes"
        }
      ],
      "name": "executeTransaction",
      "outputs": [
        {
          "internalType": "bytes",
          "name": "",
          "type": "bytes"
        }
      ],
      "stateMutability": "nonpayable",
      "type": "function"
    }
  ],
  "bytecode": "0x608060405260018080556008805460ff60a01b19908116909155610fa0600b55610bb8600c55620f4240600e819055600f819055610e106010556109c46011556012556113886013556103e86014556015805461ffff191690921790915561a8c0601755601b8054909116905561c350601e55600060215534801561008357600080fd5b50600080546001600160a01b03191633179055613ca1806100a56000396000f3fe60806040526004361061048d5760003560e01c80636ae7448811610255578063ac4f843e11610144578063cb73999f116100c1578063dc57df4711610085578063dc57df4714610dbc578063e4a3011614610ddc578063e708b4ae14610dfc578063f2fde38b14610e12578063f96dae0a14610e32578063fc1e0c0014610e5257600080fd5b8063cb73999f14610d31578063ce5494bb14610d47578063d2d97b0614610d67578063d74d1a0e14610d7c578063d914cd4b14610d9c57600080fd5b8063c03f7be311610108578063c03f7be314610cb0578063c08f076e14610cc6578063c3355b8d14610ce6578063c5967c2614610cfc578063c7b9d53014610d1157600080fd5b8063ac4f843e14610c2f578063af2d373914610c45578063af83136e14610c65578063b16ce46014610c7b578063bef40ec814610c9b57600080fd5b80638da5cb5b116101d2578063a4063dbc11610196578063a4063dbc14610b8a578063a445c44514610bba578063a4465be214610bcf578063a5d7abac14610bef578063aaccf09814610c0f57600080fd5b80638da5cb5b14610b005780638de4011e14610b20578063900cf0cf14610b405780639052be6114610b5557806392c799f514610b7557600080fd5b8063840f82ac11610219578063840f82ac14610a755780638726972914610a9557806387a140c314610aaa578063894ba4b914610ac457806389c614b814610aea57600080fd5b80636ae74488146109e957806378e97925146109ff5780637cd27ca614610a155780637dbc1df014610a3557806381ca52cf14610a5557600080fd5b8063291878a81161037c5780634013124a116102f957806346ec64a5116102bd57806346ec64a51461093e5780634c23b60d1461095e57806353ed67fe1461097e57806354eea796146109945780635b756179146109b45780636140133b146109c957600080fd5b80634013124a146108be578063408ab10f146108d357806340d7b7b8146108f35780634231bfe114610908578063460ddf8d1461091e57600080fd5b8063350d0a1811610340578063350d0a1814610803578063357a8c0914610823578063370158ea146108385780633b7d0946146108885780634006311b146108a857600080fd5b8063291878a8146107785780632988b66d1461078d5780632c678c64146107ac5780632cb4f63e146107cd5780632f64fb8e146107e357600080fd5b80631a1f19341161040a5780631ff41bfa116103ce5780631ff41bfa146106df5780632224fa25146106f5578063238a4709146107225780632853fb101461074257806328596aba1461075857600080fd5b80631a1f1934146106205780631c5b6e8d1461064a5780631c5df1e51461066a5780631f1b8a8c1461068a5780631fe4a686146106bf57600080fd5b80630eef424d116104515780630eef424d146105395780631189ebea146105595780631246dbf514610591578063158ef93e146105df578063186d9b2e1461060057600080fd5b806303539f4a146104995780630375da59146104c257806303c6cb1b146104e457806304f714c4146104f95780630ca687dc1461051957600080fd5b3661049457005b600080fd5b3480156104a557600080fd5b506104af60145481565b6040519081526020015b60405180910390f35b3480156104ce57600080fd5b506104e26104dd366004613752565b610e72565b005b3480156104f057600080fd5b506104af610eab565b34801561050557600080fd5b506104e2610514366004613942565b610f7a565b34801561052557600080fd5b506104e2610534366004613752565b610f96565b34801561054557600080fd5b506104e2610554366004613752565b610fcf565b34801561056557600080fd5b50610579610574366004613942565b6111c0565b6040516001600160a01b0390911681526020016104b9565b34801561059d57600080fd5b506105cf6105ac366004613752565b6001600160a01b03166000908152600a602052604090205460ff16151560011490565b60405190151581526020016104b9565b3480156105eb57600080fd5b50601b546105cf90600160a01b900460ff1681565b34801561060c57600080fd5b506104e261061b366004613942565b6111ea565b34801561062c57600080fd5b50610635611206565b604080519283529015156020830152016104b9565b34801561065657600080fd5b506104e2610665366004613752565b6112df565b34801561067657600080fd5b506104e2610685366004613942565b611318565b34801561069657600080fd5b5061069f611334565b6040805194855260208501939093529183015260608201526080016104b9565b3480156106cb57600080fd5b50600854610579906001600160a01b031681565b3480156106eb57600080fd5b506104af601e5481565b34801561070157600080fd5b506107156107103660046137d4565b61135f565b6040516104b99190613a2d565b34801561072e57600080fd5b506104e261073d366004613942565b6114a4565b34801561074e57600080fd5b506104af60135481565b34801561076457600080fd5b506104e2610773366004613752565b6114c0565b34801561078457600080fd5b506104e26114f9565b34801561079957600080fd5b506015546105cf90610100900460ff1681565b3480156107b857600080fd5b506008546105cf90600160a01b900460ff1681565b3480156107d957600080fd5b506104af60125481565b3480156107ef57600080fd5b50601654610579906001600160a01b031681565b34801561080f57600080fd5b50600454610579906001600160a01b031681565b34801561082f57600080fd5b506104af61152d565b34801561084457600080fd5b5061084d6115ba565b604080519889526020890197909752958701949094526060860192909252608085015260a084015260c083015260e0820152610100016104b9565b34801561089457600080fd5b506104e26108a3366004613752565b61168d565b3480156108b457600080fd5b506104af600e5481565b3480156108ca57600080fd5b506104e26117ff565b3480156108df57600080fd5b506104e26108ee366004613942565b6119a7565b3480156108ff57600080fd5b506104af6119c3565b34801561091457600080fd5b506104af60205481565b34801561092a57600080fd5b506104e2610939366004613972565b611a08565b34801561094a57600080fd5b50600654610579906001600160a01b031681565b34801561096a57600080fd5b50601b54610579906001600160a01b031681565b34801561098a57600080fd5b506104af60185481565b3480156109a057600080fd5b506104e26109af366004613942565b611e66565b3480156109c057600080fd5b506104e2611e82565b3480156109d557600080fd5b506104e26109e4366004613942565b612197565b3480156109f557600080fd5b506104af600d5481565b348015610a0b57600080fd5b506104af601c5481565b348015610a2157600080fd5b50601d54610579906001600160a01b031681565b348015610a4157600080fd5b506104e2610a50366004613942565b6121b3565b348015610a6157600080fd5b506104e2610a70366004613942565b6121cf565b348015610a8157600080fd5b506104e2610a90366004613752565b6121eb565b348015610aa157600080fd5b506104af612224565b348015610ab657600080fd5b506015546105cf9060ff1681565b348015610ad057600080fd5b50601554610579906201000090046001600160a01b031681565b348015610af657600080fd5b506104af601f5481565b348015610b0c57600080fd5b50600054610579906001600160a01b031681565b348015610b2c57600080fd5b506104e2610b3b366004613752565b612269565b348015610b4c57600080fd5b506021546104af565b348015610b6157600080fd5b50601954610579906001600160a01b031681565b348015610b8157600080fd5b506104af6122a2565b348015610b9657600080fd5b506105cf610ba5366004613752565b600a6020526000908152604090205460ff1681565b348015610bc657600080fd5b506104af612356565b348015610bdb57600080fd5b506104e2610bea366004613752565b612438565b348015610bfb57600080fd5b506104e2610c0a366004613942565b612471565b348015610c1b57600080fd5b50601a54610579906001600160a01b031681565b348015610c3b57600080fd5b506104af60115481565b348015610c5157600080fd5b506104e2610c60366004613972565b6124db565b348015610c7157600080fd5b506104af600f5481565b348015610c8757600080fd5b50600254610579906001600160a01b031681565b348015610ca757600080fd5b506104e2612953565b348015610cbc57600080fd5b506104af60105481565b348015610cd257600080fd5b506104e2610ce1366004613942565b61297e565b348015610cf257600080fd5b506104af600c5481565b348015610d0857600080fd5b506104af6129ee565b348015610d1d57600080fd5b506104e2610d2c366004613752565b612a07565b348015610d3d57600080fd5b506104af600b5481565b348015610d5357600080fd5b506104e2610d62366004613752565b612a40565b348015610d7357600080fd5b506104af612be0565b348015610d8857600080fd5b50600354610579906001600160a01b031681565b348015610da857600080fd5b506104e2610db7366004613752565b612cfc565b348015610dc857600080fd5b506104e2610dd736600461378a565b612dfa565b348015610de857600080fd5b506104e2610df7366004613972565b612e50565b348015610e0857600080fd5b506104af60175481565b348015610e1e57600080fd5b506104e2610e2d366004613752565b612ee4565b348015610e3e57600080fd5b50600754610579906001600160a01b031681565b348015610e5e57600080fd5b50600554610579906001600160a01b031681565b6000546001600160a01b03163314610e8957600080fd5b601d80546001600160a01b0319166001600160a01b0392909216919091179055565b6000610eb561152d565b610ebf5750600190565b6007546040805163313ce56760e01b815290516000926001600160a01b03169163313ce567916004808301926020929190829003018186803b158015610f0457600080fd5b505afa158015610f18573d6000803e3d6000fd5b505050506040513d601f19601f82011682018060405250810190610f3c9190613993565b60ff169050610f74610f4c61152d565b610f6e83610f68620f4240601454612f2a90919063ffffffff16565b90612f2a565b90612fb2565b91505090565b6000546001600160a01b03163314610f9157600080fd5b601455565b6000546001600160a01b03163314610fad57600080fd5b600280546001600160a01b0319166001600160a01b0392909216919091179055565b6000546001600160a01b03163314610fe657600080fd5b6001600160a01b0381166000908152600a602052604090205460ff1661103b5760405162461bcd60e51b8152602060048201526005602482015264085c1bdbdb60da1b60448201526064015b60405180910390fd5b60006001600160a01b0316816001600160a01b031663964236636040518163ffffffff1660e01b815260040160206040518083038186803b15801561107f57600080fd5b505afa158015611093573d6000803e3d6000fd5b505050506040513d601f19601f820116820180604052508101906110b7919061376e565b6001600160a01b031614156111055760405162461bcd60e51b815260206004820152601460248201527310b837b7b621b7b63630ba32b930b62a37b5b2b760611b6044820152606401611032565b80601560026101000a8154816001600160a01b0302191690836001600160a01b03160217905550806001600160a01b031663964236636040518163ffffffff1660e01b815260040160206040518083038186803b15801561116557600080fd5b505afa158015611179573d6000803e3d6000fd5b505050506040513d601f19601f8201168201806040525081019061119d919061376e565b601680546001600160a01b0319166001600160a01b039290921691909117905550565b600981815481106111d057600080fd5b6000918252602090912001546001600160a01b0316905081565b6000546001600160a01b0316331461120157600080fd5b601155565b6000806000611213612be0565b905060006112aa620f4240610f6e600e54600560009054906101000a90046001600160a01b03166001600160a01b03166318160ddd6040518163ffffffff1660e01b815260040160206040518083038186803b15801561127257600080fd5b505afa158015611286573d6000803e3d6000fd5b505050506040513d601f19601f82011682018060405250810190610f68919061395a565b90508082106112c8576112bd8282612ff4565b9350600192506112d9565b6112d28183612ff4565b9350600092505b50509091565b6000546001600160a01b031633146112f657600080fd5b600680546001600160a01b0319166001600160a01b0392909216919091179055565b6000546001600160a01b0316331461132f57600080fd5b601055565b60008060008061134360215490565b61134b6129ee565b602054601e54935093509350935090919293565b6000546060906001600160a01b0316331461137957600080fd5b606083516000141561138c5750816113b8565b8380519060200120836040516020016113a69291906139e0565b60405160208183030381529060405290505b600080876001600160a01b031687846040516113d49190613a11565b60006040518083038185875af1925050503d8060008114611411576040519150601f19603f3d011682016040523d82523d6000602084013e611416565b606091505b5091509150816040518060600160405280603d8152602001613c2f603d9139906114535760405162461bcd60e51b81526004016110329190613a2d565b50876001600160a01b03167f02351f450e2fc766dda692922cd0e080a07d702d68757f2154bf686ee052be6e88888860405161149193929190613a62565b60405180910390a2979650505050505050565b6000546001600160a01b031633146114bb57600080fd5b600c55565b6000546001600160a01b031633146114d757600080fd5b600380546001600160a01b0319166001600160a01b0392909216919091179055565b6000546001600160a01b0316331461151057600080fd5b6015805461ff001981166101009182900460ff1615909102179055565b6000600460009054906101000a90046001600160a01b03166001600160a01b0316637eeda7036040518163ffffffff1660e01b815260040160206040518083038186803b15801561157d57600080fd5b505afa158015611591573d6000803e3d6000fd5b505050506040513d601f19601f820116820180604052508101906115b5919061395a565b905090565b6000806000806000806000806115ce6119c3565b6115d6612224565b600560009054906101000a90046001600160a01b03166001600160a01b03166318160ddd6040518163ffffffff1660e01b815260040160206040518083038186803b15801561162457600080fd5b505afa158015611638573d6000803e3d6000fd5b505050506040513d601f19601f8201168201806040525081019061165c919061395a565b600e54600f5461166a612be0565b600c546116756122a2565b969f959e50939c50919a509850965094509092509050565b6000546001600160a01b031633146116a457600080fd5b600854600160a01b900460ff16156116ce5760405162461bcd60e51b815260040161103290613a40565b6001600160a01b0381166000908152600a602052604090205460ff1615156001146117235760405162461bcd60e51b8152602060048201526005602482015264085c1bdbdb60da1b6044820152606401611032565b6001600160a01b0381166000908152600a60205260408120805460ff191690555b6009548110156117fb57816001600160a01b03166009828154811061177957634e487b7160e01b600052603260045260246000fd5b6000918252602090912001546001600160a01b031614156117e9576000600982815481106117b757634e487b7160e01b600052603260045260246000fd5b9060005260206000200160006101000a8154816001600160a01b0302191690836001600160a01b031602179055505050565b806117f381613bd2565b915050611744565b5050565b60155460ff16156118525760405162461bcd60e51b815260206004820181905260248201527f436f6c6c61746572616c20526174696f20686173206265656e207061757365646044820152606401611032565b601054600d546118629042613b8f565b10156118ce5760405162461bcd60e51b815260206004820152603560248201527f4d757374207761697420666f7220746865207265667265736820636f6f6c646f6044820152740eedc40e6d2dcc6ca40d8c2e6e840e4cacce4cae6d605b1b6064820152608401611032565b60006118d86119c3565b90506118f160135460125461303690919063ffffffff16565b81111561192457601154600e541161190d576000600e55611979565b601154600e5461191c91612ff4565b600e55611979565b60135460125461193391612ff4565b81101561197957620f4240611955601154600e5461303690919063ffffffff16565b1061196657620f4240600e55611979565b601154600e5461197591613036565b600e555b601554610100900460ff161561199957611991612356565b600f556119a0565b600e54600f555b5042600d55565b6000546001600160a01b031633146119be57600080fd5b601255565b60025460408051637eeda70360e01b815290516000926001600160a01b031691637eeda703916004808301926020929190829003018186803b15801561157d57600080fd5b6008546001600160a01b03163314611a505760405162461bcd60e51b815260206004820152600b60248201526a085cdd1c985d1959da5cdd60aa1b6044820152606401611032565b600854600160a01b900460ff1615611a7a5760405162461bcd60e51b815260040161103290613a40565b6015546201000090046001600160a01b0316611acb5760405162461bcd60e51b815260206004820152601060248201526f085c9958985b185b98da5b99d41bdbdb60821b6044820152606401611032565b6016546001600160a01b0316611b235760405162461bcd60e51b815260206004820152601a60248201527f21726562616c616e63696e67506f6f6c436f6c6c61746572616c0000000000006044820152606401611032565b601754601854429190611b369083613b8f565b1015611b7a5760405162461bcd60e51b81526020600482015260136024820152721e3932b130b630b731b2afb1b7b7b63237bbb760691b6044820152606401611032565b600080611b85611206565b91509150808015611b965750600082115b611bce5760405162461bcd60e51b815260206004820152600960248201526808595e18d95959195960ba1b6044820152606401611032565b600085118015611bdd57508185105b611c295760405162461bcd60e51b815260206004820152601760248201527f696e76616c6964436f6c6c61746572616c416d6f756e740000000000000000006044820152606401611032565b6000601560029054906101000a90046001600160a01b03166001600160a01b031663f7683bbc6040518163ffffffff1660e01b815260040160206040518083038186803b158015611c7957600080fd5b505afa158015611c8d573d6000803e3d6000fd5b505050506040513d601f19601f82011682018060405250810190611cb1919061395a565b90506000611cc682610f6e89620f4240612f2a565b6016546015546040516370a0823160e01b81526001600160a01b03620100009092048216600482015292935083929116906370a082319060240160206040518083038186803b158015611d1857600080fd5b505afa158015611d2c573d6000803e3d6000fd5b505050506040513d601f19601f82011682018060405250810190611d50919061395a565b11611d965760405162461bcd60e51b8152602060048201526016602482015275696e737566666963656e74506f6f6c42616c616e636560501b6044820152606401611032565b601554604051631bc79abb60e11b815260048101839052620100009091046001600160a01b03169063378f357690602401600060405180830381600087803b158015611de157600080fd5b505af1158015611df5573d6000803e3d6000fd5b505060165460009250611e1391506001600160a01b03168389613095565b604080518a8152602081018590529081018290529091507f08a6192ba3cf7155035aa0abade6c318265a34f2950e84eaff743d1231888f959060600160405180910390a150505060189290925550505050565b6000546001600160a01b03163314611e7d57600080fd5b602055565b6001806000828254611e949190613b38565b9091555050600154600854600160a01b900460ff1615611eeb5760405162461bcd60e51b8152602060048201526012602482015271151c99585cdd5c9e4e881b5a59dc985d195960721b6044820152606401611032565b601c54421015611f3d5760405162461bcd60e51b815260206004820152601960248201527f54726561737572793a206e6f74207374617274656420796574000000000000006044820152606401611032565b6000611f476129ee565b905080421015611f995760405162461bcd60e51b815260206004820152601860248201527f54726561737572793a206e6f74206f70656e65642079657400000000000000006044820152606401611032565b600080611fa4611206565b915091506000811561216c57611fcc620f4240610f6e601e5486612f2a90919063ffffffff16565b90506000601560029054906101000a90046001600160a01b03166001600160a01b031663f7683bbc6040518163ffffffff1660e01b815260040160206040518083038186803b15801561201e57600080fd5b505afa158015612032573d6000803e3d6000fd5b505050506040513d601f19601f82011682018060405250810190612056919061395a565b9050600061206b82610f6e85620f4240612f2a565b601554604051631bc79abb60e11b8152600481018390529192506201000090046001600160a01b03169063378f357690602401600060405180830381600087803b1580156120b857600080fd5b505af11580156120cc573d6000803e3d6000fd5b5050601d546016546120ee93506001600160a01b039081169250166000613385565b601d5460165461210b916001600160a01b03918216911683613385565b601d546040516397ffe1d760e01b8152600481018390526001600160a01b03909116906397ffe1d790602401600060405180830381600087803b15801561215157600080fd5b505af1158015612165573d6000803e3d6000fd5b5050505050505b505050601f819055602154612182906001613036565b60215550600154811461219457600080fd5b50565b6000546001600160a01b031633146121ae57600080fd5b601355565b6000546001600160a01b031633146121ca57600080fd5b600b55565b6000546001600160a01b031633146121e657600080fd5b601755565b6000546001600160a01b0316331461220257600080fd5b600780546001600160a01b0319166001600160a01b0392909216919091179055565b60035460408051637eeda70360e01b815290516000926001600160a01b031691637eeda703916004808301926020929190829003018186803b15801561157d57600080fd5b6000546001600160a01b0316331461228057600080fd5b600580546001600160a01b0319166001600160a01b0392909216919091179055565b6007546000906001600160a01b03166122bc5750600b5490565b6122c4610eab565b6007546040516370a0823160e01b81523260048201526001600160a01b03909116906370a082319060240160206040518083038186803b15801561230757600080fd5b505afa15801561231b573d6000803e3d6000fd5b505050506040513d601f19601f8201168201806040525081019061233f919061395a565b111561235357600b546115b5906002612fb2565b90565b601554600090610100900460ff1661236f5750600e5490565b6000612379612be0565b90506000600560009054906101000a90046001600160a01b03166001600160a01b03166318160ddd6040518163ffffffff1660e01b815260040160206040518083038186803b1580156123cb57600080fd5b505afa1580156123df573d6000803e3d6000fd5b505050506040513d601f19601f82011682018060405250810190612403919061395a565b9050600061241882610f6e85620f4240612f2a565b9050620f424081111561243157620f4240935050505090565b9392505050565b6000546001600160a01b0316331461244f57600080fd5b600480546001600160a01b0319166001600160a01b0392909216919091179055565b6008546001600160a01b031633148061249457506000546001600160a01b031633145b6124d65760405162461bcd60e51b815260206004820152601360248201527210b9ba3930ba32b3b4b9ba131310b7bbb732b960691b6044820152606401611032565b601e55565b6008546001600160a01b031633146125235760405162461bcd60e51b815260206004820152600b60248201526a085cdd1c985d1959da5cdd60aa1b6044820152606401611032565b600854600160a01b900460ff161561254d5760405162461bcd60e51b815260040161103290613a40565b6015546201000090046001600160a01b031661259e5760405162461bcd60e51b815260206004820152601060248201526f085c9958985b185b98da5b99d41bdbdb60821b6044820152606401611032565b6016546001600160a01b03166125f65760405162461bcd60e51b815260206004820152601a60248201527f21726562616c616e63696e67506f6f6c436f6c6c61746572616c0000000000006044820152606401611032565b6017546018544291906126099083613b8f565b101561264d5760405162461bcd60e51b81526020600482015260136024820152721e3932b130b630b731b2afb1b7b7b63237bbb760691b6044820152606401611032565b600080612658611206565b915091508015801561266a5750600082115b6126a15760405162461bcd60e51b8152602060048201526008602482015267195e18d95959195960c21b6044820152606401611032565b818411156126dc5760405162461bcd60e51b81526020600482015260086024820152670f9919599a58da5d60c21b6044820152606401611032565b6006546040516370a0823160e01b81523060048201526000916001600160a01b0316906370a082319060240160206040518083038186803b15801561272057600080fd5b505afa158015612734573d6000803e3d6000fd5b505050506040513d601f19601f82011682018060405250810190612758919061395a565b90508086111561279a5760405162461bcd60e51b815260206004820152600d60248201526c3e736861726542616c616e636560981b6044820152606401611032565b6006546000906127b4906001600160a01b03168888613095565b6016546040516370a0823160e01b81523060048201529192506000916001600160a01b03909116906370a082319060240160206040518083038186803b1580156127fd57600080fd5b505afa158015612811573d6000803e3d6000fd5b505050506040513d601f19601f82011682018060405250810190612835919061395a565b9050801561286157601554601654612861916001600160a01b03918216916201000090910416836134dc565b6000601560029054906101000a90046001600160a01b03166001600160a01b031663f7683bbc6040518163ffffffff1660e01b815260040160206040518083038186803b1580156128b157600080fd5b505afa1580156128c5573d6000803e3d6000fd5b505050506040513d601f19601f820116820180604052508101906128e9919061395a565b905060006128fe620f4240610f6e8685612f2a565b604080518c8152602081018790529081018290529091507fa2f547fe4fa01671ec43d126d393c239e285ccfc633822b6413c5f474a73c1ac9060600160405180910390a1505050601894909455505050505050565b6000546001600160a01b0316331461296a57600080fd5b6015805460ff19811660ff90911615179055565b6000546001600160a01b0316331461299557600080fd5b602154156129d75760405162461bcd60e51b815260206004820152600f60248201526e185b1c9958591e481cdd185c9d1959608a1b6044820152606401611032565b601c8190556129e881617080612ff4565b601f5550565b60006115b5602054601f5461303690919063ffffffff16565b6000546001600160a01b03163314612a1e57600080fd5b600880546001600160a01b0319166001600160a01b0392909216919091179055565b6000546001600160a01b03163314612a5757600080fd5b600854600160a01b900460ff1615612a815760405162461bcd60e51b815260040161103290613a40565b6008805460ff60a01b1916600160a01b1790556006546040516370a0823160e01b81523060048201526000916001600160a01b0316906370a082319060240160206040518083038186803b158015612ad857600080fd5b505afa158015612aec573d6000803e3d6000fd5b505050506040513d601f19601f82011682018060405250810190612b10919061395a565b90508015612b2f57600654612b2f906001600160a01b031683836134dc565b6016546001600160a01b0316156117fb576016546040516370a0823160e01b81523060048201526000916001600160a01b0316906370a082319060240160206040518083038186803b158015612b8457600080fd5b505afa158015612b98573d6000803e3d6000fd5b505050506040513d601f19601f82011682018060405250810190612bbc919061395a565b90508015612bdb57601654612bdb906001600160a01b031684836134dc565b505050565b600080805b600954811015612cf65760006001600160a01b031660098281548110612c1b57634e487b7160e01b600052603260045260246000fd5b6000918252602090912001546001600160a01b031614612ce457612ce160098281548110612c5957634e487b7160e01b600052603260045260246000fd5b6000918252602091829020015460408051639c84d0f560e01b815290516001600160a01b0390921692639c84d0f592600480840193829003018186803b158015612ca257600080fd5b505afa158015612cb6573d6000803e3d6000fd5b505050506040513d601f19601f82011682018060405250810190612cda919061395a565b8390613036565b91505b80612cee81613bd2565b915050612be5565b50919050565b6000546001600160a01b03163314612d1357600080fd5b600854600160a01b900460ff1615612d3d5760405162461bcd60e51b815260040161103290613a40565b6001600160a01b0381166000908152600a602052604090205460ff1615612d945760405162461bcd60e51b815260206004820152600b60248201526a1c1bdbdb115e1a5cdd195960aa1b6044820152606401611032565b6001600160a01b03166000818152600a60205260408120805460ff191660019081179091556009805491820181559091527f6e1540171b6c0c960b71a7020d9f60077f6af931a8bbf590da0223dacf75c7af0180546001600160a01b0319169091179055565b6000546001600160a01b03163314612e1157600080fd5b601980546001600160a01b039485166001600160a01b031991821617909155601b805493851693821693909317909255601a8054919093169116179055565b6000546001600160a01b03163314612e6757600080fd5b601b54600160a01b900460ff1615612eb65760405162461bcd60e51b8152602060048201526012602482015271185b1c9958591e525b9a5d1a585b1a5e995960721b6044820152606401611032565b601c8290556020819055612eca8282612ff4565b601f555050601b805460ff60a01b1916600160a01b179055565b6000546001600160a01b03163314612efb57600080fd5b6001600160a01b0381161561219457600080546001600160a01b0383166001600160a01b031990911617905550565b600082612f3957506000612fac565b6000612f458385613b70565b905082612f528583613b50565b14612fa95760405162461bcd60e51b815260206004820152602160248201527f536166654d6174683a206d756c7469706c69636174696f6e206f766572666c6f6044820152607760f81b6064820152608401611032565b90505b92915050565b6000612fa983836040518060400160405280601a81526020017f536166654d6174683a206469766973696f6e206279207a65726f00000000000081525061350c565b6000612fa983836040518060400160405280601e81526020017f536166654d6174683a207375627472616374696f6e206f766572666c6f770000815250613543565b6000806130438385613b38565b905083811015612fa95760405162461bcd60e51b815260206004820152601b60248201527f536166654d6174683a206164646974696f6e206f766572666c6f7700000000006044820152606401611032565b6019546000906001600160a01b0316158015906130bc5750601b546001600160a01b031615155b80156130d25750601a546001600160a01b031615155b61310b5760405162461bcd60e51b815260206004820152600a602482015269021717569636b737761760b41b6044820152606401611032565b8261311857506000612431565b604080516002808252606082018352600092602083019080368337019050506006549091506001600160a01b03868116911614156131e457601b5481516001600160a01b0390911690829060009061318057634e487b7160e01b600052603260045260246000fd5b6001600160a01b039283166020918202929092010152601a548251911690829060019081106131bf57634e487b7160e01b600052603260045260246000fd5b60200260200101906001600160a01b031690816001600160a01b031681525050613274565b601a5481516001600160a01b0390911690829060009061321457634e487b7160e01b600052603260045260246000fd5b6001600160a01b039283166020918202929092010152601b5482519116908290600190811061325357634e487b7160e01b600052603260045260246000fd5b60200260200101906001600160a01b031690816001600160a01b0316815250505b60195461328f906001600160a01b0387811691166000613385565b6019546132a9906001600160a01b03878116911686613385565b6019546000906001600160a01b03166338ed1739868685306132cd42610708613036565b6040518663ffffffff1660e01b81526004016132ed959493929190613a97565b600060405180830381600087803b15801561330757600080fd5b505af115801561331b573d6000803e3d6000fd5b505050506040513d6000823e601f3d908101601f19168201604052613343919081019061387a565b905080600182516133549190613b8f565b8151811061337257634e487b7160e01b600052603260045260246000fd5b6020026020010151925050509392505050565b80158061340e5750604051636eb1769f60e11b81523060048201526001600160a01b03838116602483015284169063dd62ed3e9060440160206040518083038186803b1580156133d457600080fd5b505afa1580156133e8573d6000803e3d6000fd5b505050506040513d601f19601f8201168201806040525081019061340c919061395a565b155b6134795760405162461bcd60e51b815260206004820152603660248201527f5361666545524332303a20617070726f76652066726f6d206e6f6e2d7a65726f60448201527520746f206e6f6e2d7a65726f20616c6c6f77616e636560501b6064820152608401611032565b6040516001600160a01b038316602482015260448101829052612bdb90849063095ea7b360e01b906064015b60408051601f198184030181529190526020810180516001600160e01b03166001600160e01b031990931692909217909152613574565b6040516001600160a01b038316602482015260448101829052612bdb90849063a9059cbb60e01b906064016134a5565b6000818361352d5760405162461bcd60e51b81526004016110329190613a2d565b50600061353a8486613b50565b95945050505050565b600081848411156135675760405162461bcd60e51b81526004016110329190613a2d565b50600061353a8486613b8f565b6001600160a01b0382163b6135cb5760405162461bcd60e51b815260206004820152601f60248201527f5361666545524332303a2063616c6c20746f206e6f6e2d636f6e7472616374006044820152606401611032565b600080836001600160a01b0316836040516135e69190613a11565b6000604051808303816000865af19150503d8060008114613623576040519150601f19603f3d011682016040523d82523d6000602084013e613628565b606091505b50915091508161367a5760405162461bcd60e51b815260206004820181905260248201527f5361666545524332303a206c6f772d6c6576656c2063616c6c206661696c65646044820152606401611032565b8051156136f457808060200190518101906136959190613922565b6136f45760405162461bcd60e51b815260206004820152602a60248201527f5361666545524332303a204552433230206f7065726174696f6e20646964206e6044820152691bdd081cdd58d8d9595960b21b6064820152608401611032565b50505050565b600067ffffffffffffffff83111561371457613714613c03565b613727601f8401601f1916602001613b07565b905082815283838301111561373b57600080fd5b828260208301376000602084830101529392505050565b600060208284031215613763578081fd5b8135612fa981613c19565b60006020828403121561377f578081fd5b8151612fa981613c19565b60008060006060848603121561379e578182fd5b83356137a981613c19565b925060208401356137b981613c19565b915060408401356137c981613c19565b809150509250925092565b600080600080608085870312156137e9578081fd5b84356137f481613c19565b935060208501359250604085013567ffffffffffffffff80821115613817578283fd5b818701915087601f83011261382a578283fd5b613839888335602085016136fa565b9350606087013591508082111561384e578283fd5b508501601f8101871361385f578182fd5b61386e878235602084016136fa565b91505092959194509250565b6000602080838503121561388c578182fd5b825167ffffffffffffffff808211156138a3578384fd5b818501915085601f8301126138b6578384fd5b8151818111156138c8576138c8613c03565b8060051b91506138d9848301613b07565b8181528481019084860184860187018a10156138f3578788fd5b8795505b838610156139155780518352600195909501949186019186016138f7565b5098975050505050505050565b600060208284031215613933578081fd5b81518015158114612fa9578182fd5b600060208284031215613953578081fd5b5035919050565b60006020828403121561396b578081fd5b5051919050565b60008060408385031215613984578182fd5b50508035926020909101359150565b6000602082840312156139a4578081fd5b815160ff81168114612fa9578182fd5b600081518084526139cc816020860160208601613ba6565b601f01601f19169290920160200192915050565b6001600160e01b0319831681528151600090613a03816004850160208701613ba6565b919091016004019392505050565b60008251613a23818460208701613ba6565b9190910192915050565b602081526000612fa960208301846139b4565b6020808252600890820152671b5a59dc985d195960c21b604082015260600190565b838152606060208201526000613a7b60608301856139b4565b8281036040840152613a8d81856139b4565b9695505050505050565b600060a082018783526020878185015260a0604085015281875180845260c0860191508289019350845b81811015613ae65784516001600160a01b031683529383019391830191600101613ac1565b50506001600160a01b03969096166060850152505050608001529392505050565b604051601f8201601f1916810167ffffffffffffffff81118282101715613b3057613b30613c03565b604052919050565b60008219821115613b4b57613b4b613bed565b500190565b600082613b6b57634e487b7160e01b81526012600452602481fd5b500490565b6000816000190483118215151615613b8a57613b8a613bed565b500290565b600082821015613ba157613ba1613bed565b500390565b60005b83811015613bc1578181015183820152602001613ba9565b838111156136f45750506000910152565b6000600019821415613be657613be6613bed565b5060010190565b634e487b7160e01b600052601160045260246000fd5b634e487b7160e01b600052604160045260246000fd5b6001600160a01b038116811461219457600080fdfe54726561737572793a3a657865637574655472616e73616374696f6e3a205472616e73616374696f6e20657865637574696f6e2072657665727465642ea2646970667358221220beaae0958ba329df635f75e35072310603a8963fe94c349f560eaf813bca68e064736f6c63430008040033",
  "immutableReferences": {},
  "source": "// SPDX-License-Identifier: MIT\r\npragma solidity 0.8.4;\r\npragma experimental ABIEncoderV2;\r\n\r\nimport \"./libraries/SafeERC20.sol\";\r\nimport \"./libraries/SafeMath.sol\";\r\nimport \"./interfaces/IUniswapRouter.sol\";\r\nimport \"./interfaces/IFoundry.sol\";\r\nimport \"./interfaces/IPool.sol\";\r\nimport \"./interfaces/IOracle.sol\";\r\nimport \"./interfaces/IEpoch.sol\";\r\nimport \"./interfaces/ITreasury.sol\";\r\nimport \"./interfaces/IERC20.sol\";\r\nimport \"./utilityContracts/Context.sol\";\r\nimport \"./utilityContracts/Ownable.sol\";\r\nimport \"./utilityContracts/ReentrancyGuard.sol\";\r\nimport \"./utilityContracts/ERC20.sol\";\r\nimport \"./utilityContracts/ERC20Detailed.sol\";\r\n\r\ncontract Treasury is ITreasury, Ownable, ReentrancyGuard {\r\n    using SafeMath for uint256;\r\n    using SafeERC20 for IERC20;\r\n\r\n    address public oracleDollar;\r\n    address public oracleShare;\r\n    address public oracleGovToken;\r\n\r\n    address public AGOUSD;\r\n    address public CNUSD;\r\n    address public governanceToken;\r\n\r\n    address public strategist;\r\n\r\n    bool public migrated = false;\r\n\r\n    // pools\r\n    address[] public pools_array;\r\n    mapping(address => bool) public pools;\r\n\r\n    // Constants for various precisions\r\n    uint256 private constant PRICE_PRECISION = 1e6;\r\n    uint256 private constant RATIO_PRECISION = 1e6;\r\n\r\n    // fees\r\n    uint256 public redemption_fee = 4000; // 6 decimals of precision\r\n    uint256 public minting_fee = 3000; // 6 decimals of precision\r\n\r\n    // collateral_ratio\r\n    uint256 public last_refresh_cr_timestamp;\r\n    uint256 public target_collateral_ratio = 1000000; // = 100% - fully collateralized at start; // 6 decimals of precision\r\n    uint256 public effective_collateral_ratio = 1000000; // = 100% - fully collateralized at start; // 6 decimals of precision\r\n    uint256 public refresh_cooldown = 3600; // Refresh cooldown period is set to 1 hour (3600 seconds) at genesis; // Seconds to wait before being able to run refreshCollateralRatio() again\r\n    uint256 public ratio_step = 2500; // Amount to change the collateralization ratio by upon refreshCollateralRatio() // = 0.25% at 6 decimals of precision\r\n    uint256 public price_target = 1000000; // = $1. (6 decimals of precision). Collateral ratio will adjust according to the $1 price target at genesis; // The price of Dollar at which the collateral ratio will respond to; this value is only used for the collateral ratio mechanism and not for minting and redeeming which are hardcoded at $1\r\n    uint256 public price_band = 5000; // The bound above and below the price target at which the Collateral ratio is allowed to drop\r\n    uint256 public gov_token_value_for_discount = 1000;//1000$ in governance tokens\r\n    uint256 private constant COLLATERAL_RATIO_MAX = 1e6;\r\n    bool public collateral_ratio_paused = true; // during bootstraping phase, collateral_ratio will be fixed at 100%\r\n    bool public using_effective_collateral_ratio = false; // toggle the effective collateral ratio usage\r\n\r\n    // rebalance\r\n    address public rebalancing_pool;\r\n    address public rebalancing_pool_collateral;\r\n    uint256 public rebalance_cooldown = 12 hours;\r\n    uint256 public last_rebalance_timestamp;\r\n\r\n    // uniswap\r\n    address public uniswap_router;\r\n    address public uniswap_pair_WMATIC_COLLATERALL;\r\n    address public uniswap_pair_SHARE_WMATIC;\r\n\r\n    // foundry\r\n    bool public initialized = false;\r\n    uint256 public startTime;\r\n    address public foundry;\r\n    uint256 public excess_collateral_distributed_ratio = 50000; // 5% per epoch\r\n    uint256 public lastEpochTime;\r\n    uint256 public epoch_length;\r\n    uint256 private _epoch = 0;\r\n\r\n    /* ========== MODIFIERS ========== */\r\n\r\n    modifier onlyStrategist() {\r\n        require(strategist == msg.sender, \"!strategist\");\r\n        _;\r\n    }\r\n\r\n    modifier onlyStrategistOrOwner() {\r\n        require(strategist == msg.sender || owner == msg.sender, \"!strategist&&!owner\");\r\n        _;\r\n    }\r\n\r\n    modifier notMigrated() {\r\n        require(migrated == false, \"migrated\");\r\n        _;\r\n    }\r\n\r\n    modifier hasRebalancePool() {\r\n        require(rebalancing_pool != address(0), \"!rebalancingPool\");\r\n        require(rebalancing_pool_collateral != address(0), \"!rebalancingPoolCollateral\");\r\n        _;\r\n    }\r\n\r\n    modifier checkCondition {\r\n        require(!migrated, \"Treasury: migrated\");\r\n        require(block.timestamp >= startTime, \"Treasury: not started yet\");\r\n        _;\r\n    }\r\n\r\n    modifier checkRebalanceCooldown() {\r\n        uint256 _blockTimestamp = block.timestamp;\r\n        require(_blockTimestamp - last_rebalance_timestamp >= rebalance_cooldown, \"<rebalance_cooldown\");\r\n        _;\r\n        last_rebalance_timestamp = _blockTimestamp;\r\n    }\r\n\r\n    modifier checkEpoch {\r\n        uint256 _nextEpochPoint = nextEpochPoint();\r\n        require(block.timestamp >= _nextEpochPoint, \"Treasury: not opened yet\");\r\n        _;\r\n        lastEpochTime = _nextEpochPoint;\r\n        _epoch = _epoch.add(1);\r\n    }\r\n\r\n    /* ========== EVENTS ============= */\r\n    event TransactionExecuted(address indexed target, uint256 value, string signature, bytes data);\r\n    event BoughtBack(uint256 collateral_value, uint256 collateral_amount, uint256 output_share_amount);\r\n    event Recollateralized(uint256 share_amount, uint256 output_collateral_amount, uint256 output_collateral_value);\r\n\r\n    function initialize(uint256 _startTime, uint256 _epoch_length) external onlyOwner {\r\n        require(initialized == false, \"alreadyInitialized\");\r\n        startTime = _startTime;\r\n        epoch_length = _epoch_length;\r\n        lastEpochTime = _startTime.sub(epoch_length);\r\n        initialized = true;\r\n    }\r\n\r\n    /* ========== VIEWS ========== */\r\n\r\n    function dollarPrice() public view returns (uint256) {\r\n        return IOracle(oracleDollar).consult();\r\n    }\r\n\r\n    function sharePrice() public view returns (uint256) {\r\n        return IOracle(oracleShare).consult();\r\n    }\r\n\r\n    function gov_token_price() public view returns (uint256) {\r\n        return IOracle(oracleGovToken).consult();\r\n    }\r\n\r\n    function hasPool(address _address) external view override returns (bool) {\r\n        return pools[_address] == true;\r\n    }\r\n\r\n    function nextEpochPoint() public view override returns (uint256) {\r\n        return lastEpochTime.add(epoch_length);\r\n    }\r\n\r\n    function epoch() public view override returns (uint256) {\r\n        return _epoch;\r\n    }\r\n\r\n    function redemption_fee_adjusted() public view returns (uint256) {\r\n        if (governanceToken == address(0)) return redemption_fee;\r\n        if (IERC20(governanceToken).balanceOf(tx.origin) > discount_requirenment() ) return redemption_fee.div(2);\r\n    }\r\n\r\n    function discount_requirenment() public view returns (uint256) {\r\n        if (gov_token_price() == 0) return 1;\r\n        uint256 decimals = ERC20Detailed(governanceToken).decimals();\r\n        return  gov_token_value_for_discount\r\n                .mul(PRICE_PRECISION)\r\n                .mul(decimals)\r\n                .div(gov_token_price());\r\n    }\r\n\r\n    function info()\r\n        external\r\n        view\r\n        override\r\n        returns (\r\n            uint256,\r\n            uint256,\r\n            uint256,\r\n            uint256,\r\n            uint256,\r\n            uint256,\r\n            uint256,\r\n            uint256\r\n        )\r\n    {\r\n        return (\r\n            dollarPrice(), \r\n            sharePrice(), \r\n            IERC20(AGOUSD).totalSupply(), \r\n            target_collateral_ratio, \r\n            effective_collateral_ratio, \r\n            globalCollateralValue(),    \r\n            minting_fee, \r\n            redemption_fee_adjusted()\r\n        );\r\n    }\r\n\r\n    function epochInfo()\r\n        external\r\n        view\r\n        override\r\n        returns (\r\n            uint256,\r\n            uint256,\r\n            uint256,\r\n            uint256\r\n        )\r\n    {\r\n        return (epoch(), nextEpochPoint(), epoch_length, excess_collateral_distributed_ratio);\r\n    }\r\n\r\n    // Iterate through all pools and calculate all value of collateral in all pools globally\r\n    function globalCollateralValue() public view returns (uint256) {\r\n        uint256 total_collateral_value = 0;\r\n        for (uint256 i = 0; i < pools_array.length; i++) {\r\n            // Exclude null addresses\r\n            if (pools_array[i] != address(0)) {\r\n                total_collateral_value = total_collateral_value.add(IPool(pools_array[i]).collateralDollarBalance());\r\n            }\r\n        }\r\n        return total_collateral_value;\r\n    }\r\n\r\n    function calcEffectiveCollateralRatio() public view returns (uint256) {\r\n        if (!using_effective_collateral_ratio) {\r\n            return target_collateral_ratio;\r\n        }\r\n        uint256 total_collateral_value = globalCollateralValue();\r\n        uint256 total_supply_dollar = IERC20(AGOUSD).totalSupply();\r\n        uint256 ecr = total_collateral_value.mul(PRICE_PRECISION).div(total_supply_dollar);\r\n        if (ecr > COLLATERAL_RATIO_MAX) {\r\n            return COLLATERAL_RATIO_MAX;\r\n        }\r\n        return ecr;\r\n    }\r\n\r\n    /* ========== PUBLIC FUNCTIONS ========== */\r\n\r\n    function refreshCollateralRatio() public {\r\n        require(collateral_ratio_paused == false, \"Collateral Ratio has been paused\");\r\n        require(block.timestamp - last_refresh_cr_timestamp >= refresh_cooldown, \"Must wait for the refresh cooldown since last refresh\");\r\n\r\n        uint256 current_dollar_price = dollarPrice();\r\n\r\n        // Step increments are 0.25% (upon genesis, changable by setRatioStep())\r\n        if (current_dollar_price > price_target.add(price_band)) {\r\n            // decrease collateral ratio\r\n            if (target_collateral_ratio <= ratio_step) {\r\n                // if within a step of 0, go to 0\r\n                target_collateral_ratio = 0;\r\n            } else {\r\n                target_collateral_ratio = target_collateral_ratio.sub(ratio_step);\r\n            }\r\n        }\r\n        // IRON price is below $1 - `price_band`. Need to increase `collateral_ratio`\r\n        else if (current_dollar_price < price_target.sub(price_band)) {\r\n            // increase collateral ratio\r\n            if (target_collateral_ratio.add(ratio_step) >= COLLATERAL_RATIO_MAX) {\r\n                target_collateral_ratio = COLLATERAL_RATIO_MAX; // cap collateral ratio at 1.000000\r\n            } else {\r\n                target_collateral_ratio = target_collateral_ratio.add(ratio_step);\r\n            }\r\n        }\r\n\r\n        // If using ECR, then calcECR. If not, update ECR = TCR\r\n        if (using_effective_collateral_ratio) {\r\n            effective_collateral_ratio = calcEffectiveCollateralRatio();\r\n        } else {\r\n            effective_collateral_ratio = target_collateral_ratio;\r\n        }\r\n\r\n        last_refresh_cr_timestamp = block.timestamp;\r\n    }\r\n\r\n    // Check if the protocol is over- or under-collateralized, by how much\r\n    function calcCollateralBalance() public view returns (uint256 _collateral_value, bool _exceeded) {\r\n        uint256 total_collateral_value = globalCollateralValue();\r\n        uint256 target_collateral_value = IERC20(AGOUSD).totalSupply().mul(target_collateral_ratio).div(PRICE_PRECISION);\r\n        if (total_collateral_value >= target_collateral_value) {\r\n            _collateral_value = total_collateral_value.sub(target_collateral_value);\r\n            _exceeded = true;\r\n        } else {\r\n            _collateral_value = target_collateral_value.sub(total_collateral_value);\r\n            _exceeded = false;\r\n        }\r\n    }\r\n\r\n    /* -========= INTERNAL FUNCTIONS ============ */\r\n\r\n    // SWAP tokens using quickswap\r\n    function _swap(\r\n        address _input_token,\r\n        uint256 _input_amount,\r\n        uint256 _min_output_amount\r\n    ) internal returns (uint256) {\r\n        require(uniswap_router != address(0) && uniswap_pair_SHARE_WMATIC != address(0) && uniswap_pair_WMATIC_COLLATERALL != address(0), \"!quickswap\");\r\n        if (_input_amount == 0) return 0;\r\n        address[] memory _path = new address[](2);\r\n        if (_input_token == CNUSD) {\r\n            _path[0] = uniswap_pair_SHARE_WMATIC;\r\n            _path[1] = uniswap_pair_WMATIC_COLLATERALL;\r\n        } else {\r\n            _path[0] = uniswap_pair_WMATIC_COLLATERALL;\r\n            _path[1] = uniswap_pair_SHARE_WMATIC;\r\n        }\r\n        IERC20(_input_token).safeApprove(uniswap_router, 0);\r\n        IERC20(_input_token).safeApprove(uniswap_router, _input_amount);\r\n        uint256[] memory out_amounts = IUniswapRouter(uniswap_router).swapExactTokensForTokens(_input_amount, _min_output_amount, _path, address(this), block.timestamp.add(1800));\r\n        return out_amounts[out_amounts.length - 1];\r\n    }\r\n    /* ========== RESTRICTED FUNCTIONS ========== */\r\n\r\n    // Add new Pool\r\n    function addPool(address pool_address) public onlyOwner notMigrated {\r\n        require(pools[pool_address] == false, \"poolExisted\");\r\n        pools[pool_address] = true;\r\n        pools_array.push(pool_address);\r\n    }\r\n\r\n    // Remove a pool\r\n    function removePool(address pool_address) public onlyOwner notMigrated {\r\n        require(pools[pool_address] == true, \"!pool\");\r\n        // Delete from the mapping\r\n        delete pools[pool_address];\r\n        // 'Delete' from the array by setting the address to 0x0\r\n        for (uint256 i = 0; i < pools_array.length; i++) {\r\n            if (pools_array[i] == pool_address) {\r\n                pools_array[i] = address(0); // This will leave a null in the array and keep the indices the same\r\n                break;\r\n            }\r\n        }\r\n    }\r\n\r\n    // SINGLE POOL STRATEGY\r\n    // With Treasury v1, we will only utilize collateral from a single pool to do rebalancing\r\n    function buyback(uint256 _collateral_value, uint256 _min_share_amount) external onlyStrategist notMigrated hasRebalancePool checkRebalanceCooldown {\r\n        (uint256 _excess_collateral_value, bool _exceeded) = calcCollateralBalance();\r\n        require(_exceeded && _excess_collateral_value > 0, \"!exceeded\");\r\n        require(_collateral_value > 0 && _collateral_value < _excess_collateral_value, \"invalidCollateralAmount\");\r\n        uint256 _collateral_price = IPool(rebalancing_pool).getCollateralPrice();\r\n        uint256 _collateral_amount_sell = _collateral_value.mul(PRICE_PRECISION).div(_collateral_price);\r\n        require(IERC20(rebalancing_pool_collateral).balanceOf(rebalancing_pool) > _collateral_amount_sell, \"insufficentPoolBalance\");\r\n        IPool(rebalancing_pool).transferCollateralToTreasury(_collateral_amount_sell); // Transfer collateral from pool to treasury\r\n        uint256 out_share_amount = _swap(rebalancing_pool_collateral, _collateral_amount_sell, _min_share_amount);\r\n        emit BoughtBack(_collateral_value, _collateral_amount_sell, out_share_amount);\r\n    }\r\n\r\n    // SINGLE POOL STRATEGY\r\n    // With Treasury v1, we will only utilize collateral from a single pool to do rebalancing\r\n    function recollateralize(uint256 _share_amount, uint256 _min_collateral_amount) external onlyStrategist notMigrated hasRebalancePool checkRebalanceCooldown {\r\n        (uint256 _deficit_collateral_value, bool _exceeded) = calcCollateralBalance();\r\n        require(!_exceeded && _deficit_collateral_value > 0, \"exceeded\");\r\n        require(_min_collateral_amount <= _deficit_collateral_value, \">deficit\");\r\n        uint256 _share_balance = IERC20(CNUSD).balanceOf(address(this));\r\n        require(_share_amount <= _share_balance, \">shareBalance\");\r\n        uint256 out_collateral_amount = _swap(CNUSD, _share_amount, _min_collateral_amount);\r\n        uint256 _collateral_balance = IERC20(rebalancing_pool_collateral).balanceOf(address(this));\r\n        if (_collateral_balance > 0) {\r\n            IERC20(rebalancing_pool_collateral).safeTransfer(rebalancing_pool, _collateral_balance); // Transfer collateral from Treasury to Pool\r\n        }\r\n        uint256 collateral_price = IPool(rebalancing_pool).getCollateralPrice();\r\n        uint256 out_collateral_value = out_collateral_amount.mul(collateral_price).div(PRICE_PRECISION);\r\n        emit Recollateralized(_share_amount, out_collateral_amount, out_collateral_value);\r\n    }\r\n\r\n    function allocateSeigniorage() external nonReentrant checkCondition checkEpoch {\r\n        (uint256 _excess_collateral_value, bool _exceeded) = calcCollateralBalance();\r\n        uint256 _allocation_value = 0;\r\n        if (_exceeded) {\r\n            _allocation_value = _excess_collateral_value.mul(excess_collateral_distributed_ratio).div(RATIO_PRECISION);\r\n            uint256 collateral_price = IPool(rebalancing_pool).getCollateralPrice();\r\n            uint256 _allocation_amount = _allocation_value.mul(PRICE_PRECISION).div(collateral_price);\r\n            IPool(rebalancing_pool).transferCollateralToTreasury(_allocation_amount); // Transfer collateral from pool to treasury\r\n            IERC20(rebalancing_pool_collateral).safeApprove(foundry, 0);\r\n            IERC20(rebalancing_pool_collateral).safeApprove(foundry, _allocation_amount);\r\n            IFoundry(foundry).allocateSeigniorage(_allocation_amount);\r\n        }\r\n    }\r\n\r\n    function migrate(address _new_treasury) external onlyOwner notMigrated {\r\n        migrated = true;\r\n        uint256 _share_balance = IERC20(CNUSD).balanceOf(address(this));\r\n        if (_share_balance > 0) {\r\n            IERC20(CNUSD).safeTransfer(_new_treasury, _share_balance);\r\n        }\r\n        if (rebalancing_pool_collateral != address(0)) {\r\n            uint256 _collateral_balance = IERC20(rebalancing_pool_collateral).balanceOf(address(this));\r\n            if (_collateral_balance > 0) {\r\n                IERC20(rebalancing_pool_collateral).safeTransfer(_new_treasury, _collateral_balance);\r\n            }\r\n        }\r\n    }\r\n\r\n    function setGovTokenValueForDiscount(uint256 _gov_token_value_for_discount) public onlyOwner {\r\n        gov_token_value_for_discount = _gov_token_value_for_discount;\r\n    }\r\n\r\n    function setRedemptionFee(uint256 _redemption_fee) public onlyOwner {\r\n        redemption_fee = _redemption_fee;\r\n    }\r\n\r\n    function setMintingFee(uint256 _minting_fee) public onlyOwner {\r\n        minting_fee = _minting_fee;\r\n    }\r\n\r\n    function setRatioStep(uint256 _ratio_step) public onlyOwner {\r\n        ratio_step = _ratio_step;\r\n    }\r\n\r\n    function setPriceTarget(uint256 _price_target) public onlyOwner {\r\n        price_target = _price_target;\r\n    }\r\n\r\n    function setRefreshCooldown(uint256 _refresh_cooldown) public onlyOwner {\r\n        refresh_cooldown = _refresh_cooldown;\r\n    }\r\n\r\n    function setPriceBand(uint256 _price_band) external onlyOwner {\r\n        price_band = _price_band;\r\n    }\r\n\r\n    function toggleCollateralRatio() public onlyOwner {\r\n        collateral_ratio_paused = !collateral_ratio_paused;\r\n    }\r\n\r\n    function toggleEffectiveCollateralRatio() public onlyOwner {\r\n        using_effective_collateral_ratio = !using_effective_collateral_ratio;\r\n    }\r\n\r\n    function setOracleDollar(address _oracleDollar) public onlyOwner {\r\n        oracleDollar = _oracleDollar;\r\n    }\r\n\r\n    function setOracleShare(address _oracleShare) public onlyOwner {\r\n        oracleShare = _oracleShare;\r\n    }\r\n\r\n    function setGovTokenShare(address _oracleGovToken) public onlyOwner {\r\n        oracleGovToken = _oracleGovToken;\r\n    }\r\n\r\n    function setDollarAddress(address _AGOUSD) public onlyOwner {\r\n        AGOUSD = _AGOUSD;\r\n    }\r\n\r\n    function setShareAddress(address _CNUSD) public onlyOwner {\r\n        CNUSD = _CNUSD;\r\n    }\r\n\r\n    function setGovTokenAddress(address _governanceToken) public onlyOwner {\r\n        governanceToken = _governanceToken;\r\n    }\r\n\r\n    function setStrategist(address _strategist) external onlyOwner {\r\n        strategist = _strategist;\r\n    }\r\n\r\n    function setUniswapParams(\r\n        address _uniswap_router,\r\n        address _uniswap_pair_CNUSD_WMATIC,\r\n        address _uniswap_pair_WMATIC_USDT\r\n    ) public onlyOwner {\r\n        uniswap_router = _uniswap_router;\r\n        uniswap_pair_SHARE_WMATIC = _uniswap_pair_CNUSD_WMATIC;\r\n        uniswap_pair_WMATIC_COLLATERALL = _uniswap_pair_WMATIC_USDT;\r\n    }\r\n\r\n    function setRebalancePool(address _rebalance_pool) public onlyOwner {\r\n        require(pools[_rebalance_pool], \"!pool\");\r\n        require(IPool(_rebalance_pool).getCollateralToken() != address(0), \"!poolCollateralToken\");\r\n        rebalancing_pool = _rebalance_pool;\r\n        rebalancing_pool_collateral = IPool(_rebalance_pool).getCollateralToken();\r\n    }\r\n\r\n    function setRebalanceCooldown(uint256 _rebalance_cooldown) public onlyOwner {\r\n        rebalance_cooldown = _rebalance_cooldown;\r\n    }\r\n\r\n    function resetStartTime(uint256 _startTime) external onlyOwner {\r\n        require(_epoch == 0, \"already started\");\r\n        startTime = _startTime;\r\n        lastEpochTime = _startTime.sub(8 hours);\r\n    }\r\n\r\n    function setFoundry(address _foundry) public onlyOwner {\r\n        foundry = _foundry;\r\n    }\r\n\r\n    function setEpochLength(uint256 _epoch_length) public onlyOwner {\r\n        epoch_length = _epoch_length;\r\n    }\r\n\r\n    function setExcessDistributionRatio(uint256 _excess_collateral_distributed_ratio) public onlyStrategistOrOwner {\r\n        excess_collateral_distributed_ratio = _excess_collateral_distributed_ratio;\r\n    }\r\n\r\n    /* ========== EMERGENCY ========== */\r\n\r\n    function executeTransaction(\r\n        address target,\r\n        uint256 value,\r\n        string memory signature,\r\n        bytes memory data\r\n    ) public onlyOwner returns (bytes memory) {\r\n        bytes memory callData;\r\n\r\n        if (bytes(signature).length == 0) {\r\n            callData = data;\r\n        } else {\r\n            callData = abi.encodePacked(bytes4(keccak256(bytes(signature))), data);\r\n        }\r\n\r\n        // solium-disable-next-line security/no-call-value\r\n        \r\n        (bool success, bytes memory returnData) = target.call{value: value}(callData);\r\n        require(success, string(\"Treasury::executeTransaction: Transaction execution reverted.\"));\r\n        emit TransactionExecuted(target, value, signature, data);\r\n        return returnData;\r\n    }\r\n\r\n    receive() external payable {}\r\n}\r\n",
  "sourcePath": "C:/Users/PaulMuller/Documents/projects/project_AGO/contracts/Treasury.sol",
  "compiler": {
    "name": "solc",
    "version": "0.8.4+commit.c7e474f2.Emscripten.clang"
  },
  "schemaVersion": "3.4.1",
  "updatedAt": "2021-06-30T14:24:16.393Z",
  "devdoc": {
    "kind": "dev",
    "methods": {
      "transferOwnership(address)": {
        "details": "Allows the current owner to transfer control of the contract to a newOwner.",
        "params": {
          "newOwner": "The address to transfer ownership to."
        }
      }
    },
    "version": 1
  },
  "userdoc": {
    "kind": "user",
    "methods": {},
    "version": 1
  }
}