{
  "contractName": "USDTOracle",
  "abi": [
    {
      "anonymous": false,
      "inputs": [
        {
          "indexed": true,
          "internalType": "address",
          "name": "previousOperator",
          "type": "address"
        },
        {
          "indexed": true,
          "internalType": "address",
          "name": "newOperator",
          "type": "address"
        }
      ],
      "name": "OperatorTransferred",
      "type": "event"
    },
    {
      "anonymous": false,
      "inputs": [
        {
          "indexed": true,
          "internalType": "address",
          "name": "previousOwner",
          "type": "address"
        },
        {
          "indexed": true,
          "internalType": "address",
          "name": "newOwner",
          "type": "address"
        }
      ],
      "name": "OwnershipTransferred",
      "type": "event"
    },
    {
      "inputs": [],
      "name": "chainlinkUSDTUsd",
      "outputs": [
        {
          "internalType": "address",
          "name": "",
          "type": "address"
        }
      ],
      "stateMutability": "view",
      "type": "function"
    },
    {
      "inputs": [],
      "name": "isOperator",
      "outputs": [
        {
          "internalType": "bool",
          "name": "",
          "type": "bool"
        }
      ],
      "stateMutability": "view",
      "type": "function"
    },
    {
      "inputs": [],
      "name": "operator",
      "outputs": [
        {
          "internalType": "address",
          "name": "",
          "type": "address"
        }
      ],
      "stateMutability": "view",
      "type": "function"
    },
    {
      "inputs": [],
      "name": "owner",
      "outputs": [
        {
          "internalType": "address",
          "name": "",
          "type": "address"
        }
      ],
      "stateMutability": "view",
      "type": "function"
    },
    {
      "inputs": [],
      "name": "renounceOwnership",
      "outputs": [],
      "stateMutability": "nonpayable",
      "type": "function"
    },
    {
      "inputs": [
        {
          "internalType": "address",
          "name": "newOperator_",
          "type": "address"
        }
      ],
      "name": "transferOperator",
      "outputs": [],
      "stateMutability": "nonpayable",
      "type": "function"
    },
    {
      "inputs": [
        {
          "internalType": "address",
          "name": "newOwner",
          "type": "address"
        }
      ],
      "name": "transferOwnership",
      "outputs": [],
      "stateMutability": "nonpayable",
      "type": "function"
    },
    {
      "inputs": [],
      "name": "consult",
      "outputs": [
        {
          "internalType": "uint256",
          "name": "",
          "type": "uint256"
        }
      ],
      "stateMutability": "view",
      "type": "function"
    },
    {
      "inputs": [
        {
          "internalType": "address",
          "name": "_chainlinkUSDTUsd",
          "type": "address"
        }
      ],
      "name": "setChainlinkUsdtUsd",
      "outputs": [],
      "stateMutability": "nonpayable",
      "type": "function"
    }
  ],
  "bytecode": "0x6080604052600280546001600160a01b031916730a6513e40db6eb1b165753ad52e80663aea5054517905534801561003657600080fd5b50600080546001600160a01b031916339081178255604051909182917f8be0079c531659141344cd1fd0a4f28419497f9722a3daafe3b4186f6b6457e0908290a350600180546001600160a01b031916339081179091556040516000907f74da04524d50c64947f5dd5381ef1a4dca5cba8ed1d816243f9e48aa0b5617ed908290a3610829806100c76000396000f3fe608060405234801561001057600080fd5b50600436106100935760003560e01c80637323be5a116100665780637323be5a146100fd5780637eeda703146101105780638da5cb5b14610126578063a9f8388914610137578063f2fde38b1461014a57600080fd5b806329605e77146100985780634456eda2146100ad578063570ca735146100d0578063715018a6146100f5575b600080fd5b6100ab6100a63660046105e4565b61015d565b005b6001546001600160a01b0316331460405190151581526020015b60405180910390f35b6001546001600160a01b03165b6040516001600160a01b0390911681526020016100c7565b6100ab61019c565b6100ab61010b3660046105e4565b610210565b610118610298565b6040519081526020016100c7565b6000546001600160a01b03166100dd565b6002546100dd906001600160a01b031681565b6100ab6101583660046105e4565b6103bd565b6000546001600160a01b031633146101905760405162461bcd60e51b81526004016101879061067b565b60405180910390fd5b610199816104a7565b50565b6000546001600160a01b031633146101c65760405162461bcd60e51b81526004016101879061067b565b600080546040516001600160a01b03909116907f8be0079c531659141344cd1fd0a4f28419497f9722a3daafe3b4186f6b6457e0908390a3600080546001600160a01b0319169055565b6001546001600160a01b031633146102765760405162461bcd60e51b8152602060048201526024808201527f6f70657261746f723a2063616c6c6572206973206e6f7420746865206f70657260448201526330ba37b960e11b6064820152608401610187565b600280546001600160a01b0319166001600160a01b0392909216919091179055565b60025460408051633fabe5a360e21b815290516000926001600160a01b0316918391839163feaf968c9160048083019260a0929190829003018186803b1580156102e157600080fd5b505afa1580156102f5573d6000803e3d6000fd5b505050506040513d601f19601f82011682018060405250810190610319919061060b565b5050509150506000826001600160a01b031663313ce5676040518163ffffffff1660e01b815260040160206040518083038186803b15801561035a57600080fd5b505afa15801561036e573d6000803e3d6000fd5b505050506040513d601f19601f82011682018060405250810190610392919061065a565b90506103b56103a282600a610713565b6103af84620f424061056b565b906105b2565b935050505090565b6000546001600160a01b031633146103e75760405162461bcd60e51b81526004016101879061067b565b6001600160a01b03811661044c5760405162461bcd60e51b815260206004820152602660248201527f4f776e61626c653a206e6577206f776e657220697320746865207a65726f206160448201526564647265737360d01b6064820152608401610187565b600080546040516001600160a01b03808516939216917f8be0079c531659141344cd1fd0a4f28419497f9722a3daafe3b4186f6b6457e091a3600080546001600160a01b0319166001600160a01b0392909216919091179055565b6001600160a01b0381166105135760405162461bcd60e51b815260206004820152602d60248201527f6f70657261746f723a207a65726f206164647265737320676976656e20666f7260448201526c103732bb9037b832b930ba37b960991b6064820152608401610187565b6040516001600160a01b038216906000907f74da04524d50c64947f5dd5381ef1a4dca5cba8ed1d816243f9e48aa0b5617ed908290a3600180546001600160a01b0319166001600160a01b0392909216919091179055565b60008261057a575060006105ac565b61058482846107be565b90508161059184836106b0565b146105ac57634e487b7160e01b600052600160045260246000fd5b92915050565b60006105be82846106b0565b9392505050565b805169ffffffffffffffffffff811681146105df57600080fd5b919050565b6000602082840312156105f5578081fd5b81356001600160a01b03811681146105be578182fd5b600080600080600060a08688031215610622578081fd5b61062b866105c5565b945060208601519350604086015192506060860151915061064e608087016105c5565b90509295509295909350565b60006020828403121561066b578081fd5b815160ff811681146105be578182fd5b6020808252818101527f4f776e61626c653a2063616c6c6572206973206e6f7420746865206f776e6572604082015260600190565b6000826106cb57634e487b7160e01b81526012600452602481fd5b500490565b600181815b8085111561070b5781600019048211156106f1576106f16107dd565b808516156106fe57918102915b93841c93908002906106d5565b509250929050565b60006105be60ff84168360008261072c575060016105ac565b81610739575060006105ac565b816001811461074f576002811461075957610775565b60019150506105ac565b60ff84111561076a5761076a6107dd565b50506001821b6105ac565b5060208310610133831016604e8410600b8410161715610798575081810a6105ac565b6107a283836106d0565b80600019048211156107b6576107b66107dd565b029392505050565b60008160001904831182151516156107d8576107d86107dd565b500290565b634e487b7160e01b600052601160045260246000fdfea2646970667358221220e98df1fb938a6e4ee52b938addeb80f7cbce65bf945bd5437f8ed47043df481464736f6c63430008040033",
  "immutableReferences": {},
  "source": "// SPDX-License-Identifier: MIT\r\npragma solidity 0.8.4;\r\npragma experimental ABIEncoderV2;\r\n\r\nabstract contract Context {\r\n    function _msgSender() internal view virtual returns (address) {\r\n        return msg.sender;\r\n    }\r\n\r\n    function _msgData() internal view virtual returns (bytes calldata) {\r\n        this;\r\n        return msg.data;\r\n    }\r\n}\r\n\r\nabstract contract Ownable is Context {\r\n    address private _owner;\r\n    event OwnershipTransferred(address indexed previousOwner, address indexed newOwner);\r\n\r\n    constructor () {\r\n        address msgSender = _msgSender();\r\n        _owner = msgSender;\r\n        emit OwnershipTransferred(address(0), msgSender);\r\n    }\r\n\r\n    function owner() public view virtual returns (address) {\r\n        return _owner;\r\n    }\r\n\r\n    modifier onlyOwner() {\r\n        require(owner() == _msgSender(), \"Ownable: caller is not the owner\");\r\n        _;\r\n    }\r\n\r\n    function renounceOwnership() public virtual onlyOwner {\r\n        emit OwnershipTransferred(_owner, address(0));\r\n        _owner = address(0);\r\n    }\r\n\r\n    function transferOwnership(address newOwner) public virtual onlyOwner {\r\n        require(newOwner != address(0), \"Ownable: new owner is the zero address\");\r\n        emit OwnershipTransferred(_owner, newOwner);\r\n        _owner = newOwner;\r\n    }\r\n}\r\n\r\nabstract contract Operator is Context, Ownable {\r\n    address private _operator;\r\n\r\n    event OperatorTransferred(address indexed previousOperator, address indexed newOperator);\r\n\r\n    constructor(){\r\n        _operator = _msgSender();\r\n        emit OperatorTransferred(address(0), _operator);\r\n    }\r\n\r\n    function operator() public view returns (address) {\r\n        return _operator;\r\n    }\r\n\r\n    modifier onlyOperator() {\r\n        require(_operator == msg.sender, \"operator: caller is not the operator\");\r\n        _;\r\n    }\r\n\r\n    function isOperator() public view returns (bool) {\r\n        return _msgSender() == _operator;\r\n    }\r\n\r\n    function transferOperator(address newOperator_) public onlyOwner {\r\n        _transferOperator(newOperator_);\r\n    }\r\n\r\n    function _transferOperator(address newOperator_) internal {\r\n        require(newOperator_ != address(0), \"operator: zero address given for new operator\");\r\n        emit OperatorTransferred(address(0), newOperator_);\r\n        _operator = newOperator_;\r\n    }\r\n}\r\n\r\nlibrary SafeMath {\r\n  function mul(uint256 a, uint256 b) internal pure returns (uint256 c) {\r\n    if (a == 0) {return 0;}\r\n    c = a * b;\r\n    assert(c / a == b);\r\n    return c;\r\n  }\r\n\r\n  function div(uint256 a, uint256 b) internal pure returns (uint256) {\r\n    return a / b;\r\n  }\r\n\r\n  function sub(uint256 a, uint256 b) internal pure returns (uint256) {\r\n    assert(b <= a);\r\n    return a - b;\r\n  }\r\n\r\n  function add(uint256 a, uint256 b) internal pure returns (uint256 c) {\r\n    c = a + b;\r\n    assert(c >= a);\r\n    return c;\r\n  }\r\n}\r\n\r\ninterface AggregatorV3Interface {\r\n    function decimals() external view returns (uint8);\r\n    function description() external view returns (string memory);\r\n    function version() external view returns (uint256);\r\n    function latestAnswer() external view returns(int256);\r\n    function getRoundData(uint80 _roundId) external view returns (\r\n        uint80 roundId,\r\n        int256 answer,\r\n        uint256 startedAt,\r\n        uint256 updatedAt,\r\n        uint80 answeredInRound\r\n    );\r\n    function latestRoundData() external view returns (\r\n        uint80 roundId,\r\n        int256 answer,\r\n        uint256 startedAt,\r\n        uint256 updatedAt,\r\n        uint80 answeredInRound\r\n    );\r\n}\r\n\r\ncontract USDTOracle is Operator{\r\n    using SafeMath for uint256;\r\n    address public chainlinkUSDTUsd = 0x0A6513e40db6EB1b165753AD52E80663aeA50545;\r\n    uint256 private constant PRICE_PRECISION = 1e6;\r\n\r\n    function consult() external view returns (uint256) {\r\n        AggregatorV3Interface _priceFeed = AggregatorV3Interface(chainlinkUSDTUsd);\r\n        (, int256 _price, , , ) = _priceFeed.latestRoundData();\r\n        uint8 _decimals = _priceFeed.decimals();\r\n        return uint256(_price).mul(PRICE_PRECISION).div(uint256(10)**_decimals);\r\n    }\r\n\r\n    function setChainlinkUsdtUsd(address _chainlinkUSDTUsd) external onlyOperator {\r\n        chainlinkUSDTUsd = _chainlinkUSDTUsd;\r\n    }\r\n}",
  "sourcePath": "C:/Users/PaulMuller/Documents/projects/project_AGO/contracts/oracle/USDTOracle.sol",
  "compiler": {
    "name": "solc",
    "version": "0.8.4+commit.c7e474f2.Emscripten.clang"
  },
  "schemaVersion": "3.4.1",
  "updatedAt": "2021-06-30T14:24:16.541Z",
  "devdoc": {
    "kind": "dev",
    "methods": {},
    "version": 1
  },
  "userdoc": {
    "kind": "user",
    "methods": {},
    "version": 1
  }
}