{
  "contractName": "USDTOracle",
  "abi": [
    {
      "anonymous": false,
      "inputs": [
        {
          "indexed": true,
          "internalType": "address",
          "name": "previousOperator",
          "type": "address"
        },
        {
          "indexed": true,
          "internalType": "address",
          "name": "newOperator",
          "type": "address"
        }
      ],
      "name": "OperatorTransferred",
      "type": "event"
    },
    {
      "anonymous": false,
      "inputs": [
        {
          "indexed": true,
          "internalType": "address",
          "name": "previousOwner",
          "type": "address"
        },
        {
          "indexed": true,
          "internalType": "address",
          "name": "newOwner",
          "type": "address"
        }
      ],
      "name": "OwnershipTransferred",
      "type": "event"
    },
    {
      "inputs": [],
      "name": "chainlinkUSDTUsd",
      "outputs": [
        {
          "internalType": "address",
          "name": "",
          "type": "address"
        }
      ],
      "stateMutability": "view",
      "type": "function"
    },
    {
      "inputs": [],
      "name": "isOperator",
      "outputs": [
        {
          "internalType": "bool",
          "name": "",
          "type": "bool"
        }
      ],
      "stateMutability": "view",
      "type": "function"
    },
    {
      "inputs": [],
      "name": "operator",
      "outputs": [
        {
          "internalType": "address",
          "name": "",
          "type": "address"
        }
      ],
      "stateMutability": "view",
      "type": "function"
    },
    {
      "inputs": [],
      "name": "owner",
      "outputs": [
        {
          "internalType": "address",
          "name": "",
          "type": "address"
        }
      ],
      "stateMutability": "view",
      "type": "function"
    },
    {
      "inputs": [],
      "name": "renounceOwnership",
      "outputs": [],
      "stateMutability": "nonpayable",
      "type": "function"
    },
    {
      "inputs": [
        {
          "internalType": "address",
          "name": "newOperator_",
          "type": "address"
        }
      ],
      "name": "transferOperator",
      "outputs": [],
      "stateMutability": "nonpayable",
      "type": "function"
    },
    {
      "inputs": [
        {
          "internalType": "address",
          "name": "newOwner",
          "type": "address"
        }
      ],
      "name": "transferOwnership",
      "outputs": [],
      "stateMutability": "nonpayable",
      "type": "function"
    },
    {
      "inputs": [],
      "name": "consult",
      "outputs": [
        {
          "internalType": "uint256",
          "name": "",
          "type": "uint256"
        }
      ],
      "stateMutability": "view",
      "type": "function"
    },
    {
      "inputs": [
        {
          "internalType": "address",
          "name": "_chainlinkUSDTUsd",
          "type": "address"
        }
      ],
      "name": "setChainlinkUsdtUsd",
      "outputs": [],
      "stateMutability": "nonpayable",
      "type": "function"
    }
  ],
  "bytecode": "0x6080604052730a6513e40db6eb1b165753ad52e80663aea50545600260006101000a81548173ffffffffffffffffffffffffffffffffffffffff021916908373ffffffffffffffffffffffffffffffffffffffff16021790555034801561006557600080fd5b5060006100766101e460201b60201c565b9050806000806101000a81548173ffffffffffffffffffffffffffffffffffffffff021916908373ffffffffffffffffffffffffffffffffffffffff1602179055508073ffffffffffffffffffffffffffffffffffffffff16600073ffffffffffffffffffffffffffffffffffffffff167f8be0079c531659141344cd1fd0a4f28419497f9722a3daafe3b4186f6b6457e060405160405180910390a3506101226101e460201b60201c565b600160006101000a81548173ffffffffffffffffffffffffffffffffffffffff021916908373ffffffffffffffffffffffffffffffffffffffff160217905550600160009054906101000a900473ffffffffffffffffffffffffffffffffffffffff1673ffffffffffffffffffffffffffffffffffffffff16600073ffffffffffffffffffffffffffffffffffffffff167f74da04524d50c64947f5dd5381ef1a4dca5cba8ed1d816243f9e48aa0b5617ed60405160405180910390a36101ec565b600033905090565b61110d806101fb6000396000f3fe608060405234801561001057600080fd5b50600436106100935760003560e01c80637323be5a116100665780637323be5a146100fa5780637eeda703146101165780638da5cb5b14610134578063a9f8388914610152578063f2fde38b1461017057610093565b806329605e77146100985780634456eda2146100b4578063570ca735146100d2578063715018a6146100f0575b600080fd5b6100b260048036038101906100ad9190610a0e565b61018c565b005b6100bc610214565b6040516100c99190610bab565b60405180910390f35b6100da610273565b6040516100e79190610b90565b60405180910390f35b6100f861029d565b005b610114600480360381019061010f9190610a0e565b6103d7565b005b61011e6104ab565b60405161012b9190610c46565b60405180910390f35b61013c610617565b6040516101499190610b90565b60405180910390f35b61015a610640565b6040516101679190610b90565b60405180910390f35b61018a60048036038101906101859190610a0e565b610666565b005b61019461080f565b73ffffffffffffffffffffffffffffffffffffffff166101b2610617565b73ffffffffffffffffffffffffffffffffffffffff1614610208576040517f08c379a00000000000000000000000000000000000000000000000000000000081526004016101ff90610c06565b60405180910390fd5b61021181610817565b50565b6000600160009054906101000a900473ffffffffffffffffffffffffffffffffffffffff1673ffffffffffffffffffffffffffffffffffffffff1661025761080f565b73ffffffffffffffffffffffffffffffffffffffff1614905090565b6000600160009054906101000a900473ffffffffffffffffffffffffffffffffffffffff16905090565b6102a561080f565b73ffffffffffffffffffffffffffffffffffffffff166102c3610617565b73ffffffffffffffffffffffffffffffffffffffff1614610319576040517f08c379a000000000000000000000000000000000000000000000000000000000815260040161031090610c06565b60405180910390fd5b600073ffffffffffffffffffffffffffffffffffffffff1660008054906101000a900473ffffffffffffffffffffffffffffffffffffffff1673ffffffffffffffffffffffffffffffffffffffff167f8be0079c531659141344cd1fd0a4f28419497f9722a3daafe3b4186f6b6457e060405160405180910390a360008060006101000a81548173ffffffffffffffffffffffffffffffffffffffff021916908373ffffffffffffffffffffffffffffffffffffffff160217905550565b3373ffffffffffffffffffffffffffffffffffffffff16600160009054906101000a900473ffffffffffffffffffffffffffffffffffffffff1673ffffffffffffffffffffffffffffffffffffffff1614610467576040517f08c379a000000000000000000000000000000000000000000000000000000000815260040161045e90610c26565b60405180910390fd5b80600260006101000a81548173ffffffffffffffffffffffffffffffffffffffff021916908373ffffffffffffffffffffffffffffffffffffffff16021790555050565b600080600260009054906101000a900473ffffffffffffffffffffffffffffffffffffffff16905060008173ffffffffffffffffffffffffffffffffffffffff1663feaf968c6040518163ffffffff1660e01b815260040160a06040518083038186803b15801561051b57600080fd5b505afa15801561052f573d6000803e3d6000fd5b505050506040513d601f19601f820116820180604052508101906105539190610a37565b50505091505060008273ffffffffffffffffffffffffffffffffffffffff1663313ce5676040518163ffffffff1660e01b815260040160206040518083038186803b1580156105a157600080fd5b505afa1580156105b5573d6000803e3d6000fd5b505050506040513d601f19601f820116820180604052508101906105d99190610aae565b905061060f81600a6105eb9190610cf6565b610601620f42408561092690919063ffffffff16565b61098f90919063ffffffff16565b935050505090565b60008060009054906101000a900473ffffffffffffffffffffffffffffffffffffffff16905090565b600260009054906101000a900473ffffffffffffffffffffffffffffffffffffffff1681565b61066e61080f565b73ffffffffffffffffffffffffffffffffffffffff1661068c610617565b73ffffffffffffffffffffffffffffffffffffffff16146106e2576040517f08c379a00000000000000000000000000000000000000000000000000000000081526004016106d990610c06565b60405180910390fd5b600073ffffffffffffffffffffffffffffffffffffffff168173ffffffffffffffffffffffffffffffffffffffff161415610752576040517f08c379a000000000000000000000000000000000000000000000000000000000815260040161074990610bc6565b60405180910390fd5b8073ffffffffffffffffffffffffffffffffffffffff1660008054906101000a900473ffffffffffffffffffffffffffffffffffffffff1673ffffffffffffffffffffffffffffffffffffffff167f8be0079c531659141344cd1fd0a4f28419497f9722a3daafe3b4186f6b6457e060405160405180910390a3806000806101000a81548173ffffffffffffffffffffffffffffffffffffffff021916908373ffffffffffffffffffffffffffffffffffffffff16021790555050565b600033905090565b600073ffffffffffffffffffffffffffffffffffffffff168173ffffffffffffffffffffffffffffffffffffffff161415610887576040517f08c379a000000000000000000000000000000000000000000000000000000000815260040161087e90610be6565b60405180910390fd5b8073ffffffffffffffffffffffffffffffffffffffff16600073ffffffffffffffffffffffffffffffffffffffff167f74da04524d50c64947f5dd5381ef1a4dca5cba8ed1d816243f9e48aa0b5617ed60405160405180910390a380600160006101000a81548173ffffffffffffffffffffffffffffffffffffffff021916908373ffffffffffffffffffffffffffffffffffffffff16021790555050565b6000808314156109395760009050610989565b81836109459190610e14565b90508183826109549190610c72565b14610988577f4e487b7100000000000000000000000000000000000000000000000000000000600052600160045260246000fd5b5b92915050565b6000818361099d9190610c72565b905092915050565b6000813590506109b481611064565b92915050565b6000815190506109c98161107b565b92915050565b6000815190506109de81611092565b92915050565b6000815190506109f3816110c0565b92915050565b600081519050610a08816110a9565b92915050565b600060208284031215610a2057600080fd5b6000610a2e848285016109a5565b91505092915050565b600080600080600060a08688031215610a4f57600080fd5b6000610a5d888289016109e4565b9550506020610a6e888289016109ba565b9450506040610a7f888289016109cf565b9350506060610a90888289016109cf565b9250506080610aa1888289016109e4565b9150509295509295909350565b600060208284031215610ac057600080fd5b6000610ace848285016109f9565b91505092915050565b610ae081610e6e565b82525050565b610aef81610e80565b82525050565b6000610b02602683610c61565b9150610b0d82610f4e565b604082019050919050565b6000610b25602d83610c61565b9150610b3082610f9d565b604082019050919050565b6000610b48602083610c61565b9150610b5382610fec565b602082019050919050565b6000610b6b602483610c61565b9150610b7682611015565b604082019050919050565b610b8a81610eb6565b82525050565b6000602082019050610ba56000830184610ad7565b92915050565b6000602082019050610bc06000830184610ae6565b92915050565b60006020820190508181036000830152610bdf81610af5565b9050919050565b60006020820190508181036000830152610bff81610b18565b9050919050565b60006020820190508181036000830152610c1f81610b3b565b9050919050565b60006020820190508181036000830152610c3f81610b5e565b9050919050565b6000602082019050610c5b6000830184610b81565b92915050565b600082825260208201905092915050565b6000610c7d82610eb6565b9150610c8883610eb6565b925082610c9857610c97610f12565b5b828204905092915050565b6000808291508390505b6001851115610ced57808604811115610cc957610cc8610ee3565b5b6001851615610cd85780820291505b8081029050610ce685610f41565b9450610cad565b94509492505050565b6000610d0182610eb6565b9150610d0c83610ec0565b9250610d397fffffffffffffffffffffffffffffffffffffffffffffffffffffffffffffffff8484610d41565b905092915050565b600082610d515760019050610e0d565b81610d5f5760009050610e0d565b8160018114610d755760028114610d7f57610dae565b6001915050610e0d565b60ff841115610d9157610d90610ee3565b5b8360020a915084821115610da857610da7610ee3565b5b50610e0d565b5060208310610133831016604e8410600b8410161715610de35782820a905083811115610dde57610ddd610ee3565b5b610e0d565b610df08484846001610ca3565b92509050818404811115610e0757610e06610ee3565b5b81810290505b9392505050565b6000610e1f82610eb6565b9150610e2a83610eb6565b9250817fffffffffffffffffffffffffffffffffffffffffffffffffffffffffffffffff0483118215151615610e6357610e62610ee3565b5b828202905092915050565b6000610e7982610e96565b9050919050565b60008115159050919050565b6000819050919050565b600073ffffffffffffffffffffffffffffffffffffffff82169050919050565b6000819050919050565b600060ff82169050919050565b600069ffffffffffffffffffff82169050919050565b7f4e487b7100000000000000000000000000000000000000000000000000000000600052601160045260246000fd5b7f4e487b7100000000000000000000000000000000000000000000000000000000600052601260045260246000fd5b60008160011c9050919050565b7f4f776e61626c653a206e6577206f776e657220697320746865207a65726f206160008201527f6464726573730000000000000000000000000000000000000000000000000000602082015250565b7f6f70657261746f723a207a65726f206164647265737320676976656e20666f7260008201527f206e6577206f70657261746f7200000000000000000000000000000000000000602082015250565b7f4f776e61626c653a2063616c6c6572206973206e6f7420746865206f776e6572600082015250565b7f6f70657261746f723a2063616c6c6572206973206e6f7420746865206f70657260008201527f61746f7200000000000000000000000000000000000000000000000000000000602082015250565b61106d81610e6e565b811461107857600080fd5b50565b61108481610e8c565b811461108f57600080fd5b50565b61109b81610eb6565b81146110a657600080fd5b50565b6110b281610ec0565b81146110bd57600080fd5b50565b6110c981610ecd565b81146110d457600080fd5b5056fea264697066735822122027a205fb9675924cbe6a77609cf559dea23c090934a08552cc93e1274e6dd11e64736f6c63430008040033",
  "immutableReferences": {},
  "source": "// SPDX-License-Identifier: MIT\npragma solidity 0.8.4;\npragma experimental ABIEncoderV2;\n\nabstract contract Context {\n    function _msgSender() internal view virtual returns (address) {\n        return msg.sender;\n    }\n\n    function _msgData() internal view virtual returns (bytes calldata) {\n        this;\n        return msg.data;\n    }\n}\n\nabstract contract Ownable is Context {\n    address private _owner;\n    event OwnershipTransferred(address indexed previousOwner, address indexed newOwner);\n\n    constructor () {\n        address msgSender = _msgSender();\n        _owner = msgSender;\n        emit OwnershipTransferred(address(0), msgSender);\n    }\n\n    function owner() public view virtual returns (address) {\n        return _owner;\n    }\n\n    modifier onlyOwner() {\n        require(owner() == _msgSender(), \"Ownable: caller is not the owner\");\n        _;\n    }\n\n    function renounceOwnership() public virtual onlyOwner {\n        emit OwnershipTransferred(_owner, address(0));\n        _owner = address(0);\n    }\n\n    function transferOwnership(address newOwner) public virtual onlyOwner {\n        require(newOwner != address(0), \"Ownable: new owner is the zero address\");\n        emit OwnershipTransferred(_owner, newOwner);\n        _owner = newOwner;\n    }\n}\n\nabstract contract Operator is Context, Ownable {\n    address private _operator;\n\n    event OperatorTransferred(address indexed previousOperator, address indexed newOperator);\n\n    constructor(){\n        _operator = _msgSender();\n        emit OperatorTransferred(address(0), _operator);\n    }\n\n    function operator() public view returns (address) {\n        return _operator;\n    }\n\n    modifier onlyOperator() {\n        require(_operator == msg.sender, \"operator: caller is not the operator\");\n        _;\n    }\n\n    function isOperator() public view returns (bool) {\n        return _msgSender() == _operator;\n    }\n\n    function transferOperator(address newOperator_) public onlyOwner {\n        _transferOperator(newOperator_);\n    }\n\n    function _transferOperator(address newOperator_) internal {\n        require(newOperator_ != address(0), \"operator: zero address given for new operator\");\n        emit OperatorTransferred(address(0), newOperator_);\n        _operator = newOperator_;\n    }\n}\n\nlibrary SafeMath {\n  function mul(uint256 a, uint256 b) internal pure returns (uint256 c) {\n    if (a == 0) {return 0;}\n    c = a * b;\n    assert(c / a == b);\n    return c;\n  }\n\n  function div(uint256 a, uint256 b) internal pure returns (uint256) {\n    return a / b;\n  }\n\n  function sub(uint256 a, uint256 b) internal pure returns (uint256) {\n    assert(b <= a);\n    return a - b;\n  }\n\n  function add(uint256 a, uint256 b) internal pure returns (uint256 c) {\n    c = a + b;\n    assert(c >= a);\n    return c;\n  }\n}\n\ninterface AggregatorV3Interface {\n    function decimals() external view returns (uint8);\n    function description() external view returns (string memory);\n    function version() external view returns (uint256);\n    function latestAnswer() external view returns(int256);\n    function getRoundData(uint80 _roundId) external view returns (\n        uint80 roundId,\n        int256 answer,\n        uint256 startedAt,\n        uint256 updatedAt,\n        uint80 answeredInRound\n    );\n    function latestRoundData() external view returns (\n        uint80 roundId,\n        int256 answer,\n        uint256 startedAt,\n        uint256 updatedAt,\n        uint80 answeredInRound\n    );\n}\n\ncontract USDTOracle is Operator{\n    using SafeMath for uint256;\n    address public chainlinkUSDTUsd = 0x0A6513e40db6EB1b165753AD52E80663aeA50545;\n    uint256 private constant PRICE_PRECISION = 1e6;\n\n    function consult() external view returns (uint256) {\n        AggregatorV3Interface _priceFeed = AggregatorV3Interface(chainlinkUSDTUsd);\n        (, int256 _price, , , ) = _priceFeed.latestRoundData();\n        uint8 _decimals = _priceFeed.decimals();\n        return uint256(_price).mul(PRICE_PRECISION).div(uint256(10)**_decimals);\n    }\n\n    function setChainlinkUsdtUsd(address _chainlinkUSDTUsd) external onlyOperator {\n        chainlinkUSDTUsd = _chainlinkUSDTUsd;\n    }\n}",
  "sourcePath": "/home/kali/Documents/project_AGO/contracts/oracle/USDTOracle.sol",
  "compiler": {
    "name": "solc",
    "version": "0.8.4+commit.c7e474f2.Emscripten.clang"
  },
  "schemaVersion": "3.3.4",
  "updatedAt": "2021-06-23T02:20:51.191Z",
  "devdoc": {
    "kind": "dev",
    "methods": {},
    "version": 1
  },
  "userdoc": {
    "kind": "user",
    "methods": {},
    "version": 1
  }
}